{
	"MultiDelegatecall.sol": {
		"MultiDelegatecall": {
			"abi": [
				{
					"inputs": [],
					"name": "DelegatecallFailed",
					"type": "error"
				},
				{
					"inputs": [
						{
							"internalType": "bytes[]",
							"name": "data",
							"type": "bytes[]"
						}
					],
					"name": "multiDelegatecall",
					"outputs": [
						{
							"internalType": "bytes[]",
							"name": "results",
							"type": "bytes[]"
						}
					],
					"stateMutability": "payable",
					"type": "function"
				}
			],
			"devdoc": {
				"kind": "dev",
				"methods": {},
				"version": 1
			},
			"evm": {
				"assembly": "    /* \"MultiDelegatecall.sol\":57:553  contract MultiDelegatecall {... */\n  mstore(0x40, 0x80)\n  callvalue\n  dup1\n  iszero\n  tag_1\n  jumpi\n  revert(0x00, 0x00)\ntag_1:\n  pop\n  dataSize(sub_0)\n  dup1\n  dataOffset(sub_0)\n  0x00\n  codecopy\n  0x00\n  return\nstop\n\nsub_0: assembly {\n        /* \"MultiDelegatecall.sol\":57:553  contract MultiDelegatecall {... */\n      mstore(0x40, 0x80)\n      jumpi(tag_1, lt(calldatasize, 0x04))\n      shr(0xe0, calldataload(0x00))\n      dup1\n      0x10957d3c\n      eq\n      tag_2\n      jumpi\n    tag_1:\n      revert(0x00, 0x00)\n        /* \"MultiDelegatecall.sol\":123:551  function multiDelegatecall(bytes[] calldata data)... */\n    tag_2:\n      tag_3\n      0x04\n      dup1\n      calldatasize\n      sub\n      dup2\n      add\n      swap1\n      tag_4\n      swap2\n      swap1\n      tag_5\n      jump\t// in\n    tag_4:\n      tag_6\n      jump\t// in\n    tag_3:\n      mload(0x40)\n      tag_7\n      swap2\n      swap1\n      tag_8\n      jump\t// in\n    tag_7:\n      mload(0x40)\n      dup1\n      swap2\n      sub\n      swap1\n      return\n    tag_6:\n        /* \"MultiDelegatecall.sol\":223:245  bytes[] memory results */\n      0x60\n        /* \"MultiDelegatecall.sol\":283:287  data */\n      dup3\n      dup3\n        /* \"MultiDelegatecall.sol\":283:294  data.length */\n      swap1\n      pop\n        /* \"MultiDelegatecall.sol\":271:295  new bytes[](data.length) */\n      0xffffffffffffffff\n      dup2\n      gt\n      iszero\n      tag_10\n      jumpi\n      tag_11\n      tag_12\n      jump\t// in\n    tag_11:\n    tag_10:\n      mload(0x40)\n      swap1\n      dup1\n      dup3\n      mstore\n      dup1\n      0x20\n      mul\n      0x20\n      add\n      dup3\n      add\n      0x40\n      mstore\n      dup1\n      iszero\n      tag_13\n      jumpi\n      dup2\n      0x20\n      add\n    tag_14:\n      0x60\n      dup2\n      mstore\n      0x20\n      add\n      swap1\n      0x01\n      swap1\n      sub\n      swap1\n      dup2\n      tag_14\n      jumpi\n      swap1\n      pop\n    tag_13:\n      pop\n        /* \"MultiDelegatecall.sol\":261:295  results = new bytes[](data.length) */\n      swap1\n      pop\n        /* \"MultiDelegatecall.sol\":310:319  uint256 i */\n      0x00\n        /* \"MultiDelegatecall.sol\":305:545  for (uint256 i; i < data.length; i++) {... */\n    tag_15:\n        /* \"MultiDelegatecall.sol\":325:329  data */\n      dup4\n      dup4\n        /* \"MultiDelegatecall.sol\":325:336  data.length */\n      swap1\n      pop\n        /* \"MultiDelegatecall.sol\":321:322  i */\n      dup2\n        /* \"MultiDelegatecall.sol\":321:336  i < data.length */\n      lt\n        /* \"MultiDelegatecall.sol\":305:545  for (uint256 i; i < data.length; i++) {... */\n      iszero\n      tag_16\n      jumpi\n        /* \"MultiDelegatecall.sol\":358:365  bool ok */\n      0x00\n        /* \"MultiDelegatecall.sol\":367:383  bytes memory res */\n      0x00\n        /* \"MultiDelegatecall.sol\":395:399  this */\n      address\n        /* \"MultiDelegatecall.sol\":387:413  address(this).delegatecall */\n      0xffffffffffffffffffffffffffffffffffffffff\n      and\n        /* \"MultiDelegatecall.sol\":414:418  data */\n      dup7\n      dup7\n        /* \"MultiDelegatecall.sol\":419:420  i */\n      dup6\n        /* \"MultiDelegatecall.sol\":414:421  data[i] */\n      dup2\n      dup2\n      lt\n      tag_18\n      jumpi\n      tag_19\n      tag_20\n      jump\t// in\n    tag_19:\n    tag_18:\n      swap1\n      pop\n      0x20\n      mul\n      dup2\n      add\n      swap1\n      tag_21\n      swap2\n      swap1\n      tag_22\n      jump\t// in\n    tag_21:\n        /* \"MultiDelegatecall.sol\":387:422  address(this).delegatecall(data[i]) */\n      mload(0x40)\n      tag_23\n      swap3\n      swap2\n      swap1\n      tag_24\n      jump\t// in\n    tag_23:\n      0x00\n      mload(0x40)\n      dup1\n      dup4\n      sub\n      dup2\n      dup6\n      gas\n      delegatecall\n      swap2\n      pop\n      pop\n      returndatasize\n      dup1\n      0x00\n      dup2\n      eq\n      tag_27\n      jumpi\n      mload(0x40)\n      swap2\n      pop\n      and(add(returndatasize, 0x3f), not(0x1f))\n      dup3\n      add\n      0x40\n      mstore\n      returndatasize\n      dup3\n      mstore\n      returndatasize\n      0x00\n      0x20\n      dup5\n      add\n      returndatacopy\n      jump(tag_26)\n    tag_27:\n      0x60\n      swap2\n      pop\n    tag_26:\n      pop\n        /* \"MultiDelegatecall.sol\":357:422  (bool ok, bytes memory res) = address(this).delegatecall(data[i]) */\n      swap2\n      pop\n      swap2\n      pop\n        /* \"MultiDelegatecall.sol\":441:443  ok */\n      dup2\n        /* \"MultiDelegatecall.sol\":436:505  if (!ok) {... */\n      tag_28\n      jumpi\n        /* \"MultiDelegatecall.sol\":470:490  DelegatecallFailed() */\n      mload(0x40)\n      0x835e98fe00000000000000000000000000000000000000000000000000000000\n      dup2\n      mstore\n      0x04\n      add\n      mload(0x40)\n      dup1\n      swap2\n      sub\n      swap1\n      revert\n        /* \"MultiDelegatecall.sol\":436:505  if (!ok) {... */\n    tag_28:\n        /* \"MultiDelegatecall.sol\":531:534  res */\n      dup1\n        /* \"MultiDelegatecall.sol\":518:525  results */\n      dup5\n        /* \"MultiDelegatecall.sol\":526:527  i */\n      dup5\n        /* \"MultiDelegatecall.sol\":518:528  results[i] */\n      dup2\n      mload\n      dup2\n      lt\n      tag_29\n      jumpi\n      tag_30\n      tag_20\n      jump\t// in\n    tag_30:\n    tag_29:\n      0x20\n      mul\n      0x20\n      add\n      add\n        /* \"MultiDelegatecall.sol\":518:534  results[i] = res */\n      dup2\n      swap1\n      mstore\n      pop\n        /* \"MultiDelegatecall.sol\":343:545  {... */\n      pop\n      pop\n        /* \"MultiDelegatecall.sol\":338:341  i++ */\n      dup1\n      dup1\n      0x01\n      add\n      swap2\n      pop\n      pop\n        /* \"MultiDelegatecall.sol\":305:545  for (uint256 i; i < data.length; i++) {... */\n      jump(tag_15)\n    tag_16:\n      pop\n        /* \"MultiDelegatecall.sol\":123:551  function multiDelegatecall(bytes[] calldata data)... */\n      swap3\n      swap2\n      pop\n      pop\n      jump\t// out\n        /* \"#utility.yul\":88:205   */\n    tag_32:\n        /* \"#utility.yul\":197:198   */\n      0x00\n        /* \"#utility.yul\":194:195   */\n      0x00\n        /* \"#utility.yul\":187:199   */\n      revert\n        /* \"#utility.yul\":211:328   */\n    tag_33:\n        /* \"#utility.yul\":320:321   */\n      0x00\n        /* \"#utility.yul\":317:318   */\n      0x00\n        /* \"#utility.yul\":310:322   */\n      revert\n        /* \"#utility.yul\":334:451   */\n    tag_34:\n        /* \"#utility.yul\":443:444   */\n      0x00\n        /* \"#utility.yul\":440:441   */\n      0x00\n        /* \"#utility.yul\":433:445   */\n      revert\n        /* \"#utility.yul\":457:574   */\n    tag_35:\n        /* \"#utility.yul\":566:567   */\n      0x00\n        /* \"#utility.yul\":563:564   */\n      0x00\n        /* \"#utility.yul\":556:568   */\n      revert\n        /* \"#utility.yul\":580:697   */\n    tag_36:\n        /* \"#utility.yul\":689:690   */\n      0x00\n        /* \"#utility.yul\":686:687   */\n      0x00\n        /* \"#utility.yul\":679:691   */\n      revert\n        /* \"#utility.yul\":718:1297   */\n    tag_37:\n        /* \"#utility.yul\":802:810   */\n      0x00\n        /* \"#utility.yul\":812:818   */\n      0x00\n        /* \"#utility.yul\":862:865   */\n      dup4\n        /* \"#utility.yul\":855:859   */\n      0x1f\n        /* \"#utility.yul\":847:853   */\n      dup5\n        /* \"#utility.yul\":843:860   */\n      add\n        /* \"#utility.yul\":839:866   */\n      slt\n        /* \"#utility.yul\":829:951   */\n      tag_63\n      jumpi\n        /* \"#utility.yul\":870:949   */\n      tag_64\n      tag_34\n      jump\t// in\n    tag_64:\n        /* \"#utility.yul\":829:951   */\n    tag_63:\n        /* \"#utility.yul\":983:989   */\n      dup3\n        /* \"#utility.yul\":970:990   */\n      calldataload\n        /* \"#utility.yul\":960:990   */\n      swap1\n      pop\n        /* \"#utility.yul\":1013:1031   */\n      0xffffffffffffffff\n        /* \"#utility.yul\":1005:1011   */\n      dup2\n        /* \"#utility.yul\":1002:1032   */\n      gt\n        /* \"#utility.yul\":999:1116   */\n      iszero\n      tag_65\n      jumpi\n        /* \"#utility.yul\":1035:1114   */\n      tag_66\n      tag_35\n      jump\t// in\n    tag_66:\n        /* \"#utility.yul\":999:1116   */\n    tag_65:\n        /* \"#utility.yul\":1149:1153   */\n      0x20\n        /* \"#utility.yul\":1141:1147   */\n      dup4\n        /* \"#utility.yul\":1137:1154   */\n      add\n        /* \"#utility.yul\":1125:1154   */\n      swap2\n      pop\n        /* \"#utility.yul\":1203:1206   */\n      dup4\n        /* \"#utility.yul\":1195:1199   */\n      0x20\n        /* \"#utility.yul\":1187:1193   */\n      dup3\n        /* \"#utility.yul\":1183:1200   */\n      mul\n        /* \"#utility.yul\":1173:1181   */\n      dup4\n        /* \"#utility.yul\":1169:1201   */\n      add\n        /* \"#utility.yul\":1166:1207   */\n      gt\n        /* \"#utility.yul\":1163:1291   */\n      iszero\n      tag_67\n      jumpi\n        /* \"#utility.yul\":1210:1289   */\n      tag_68\n      tag_36\n      jump\t// in\n    tag_68:\n        /* \"#utility.yul\":1163:1291   */\n    tag_67:\n        /* \"#utility.yul\":718:1297   */\n      swap3\n      pop\n      swap3\n      swap1\n      pop\n      jump\t// out\n        /* \"#utility.yul\":1303:1884   */\n    tag_5:\n        /* \"#utility.yul\":1400:1406   */\n      0x00\n        /* \"#utility.yul\":1408:1414   */\n      0x00\n        /* \"#utility.yul\":1457:1459   */\n      0x20\n        /* \"#utility.yul\":1445:1454   */\n      dup4\n        /* \"#utility.yul\":1436:1443   */\n      dup6\n        /* \"#utility.yul\":1432:1455   */\n      sub\n        /* \"#utility.yul\":1428:1460   */\n      slt\n        /* \"#utility.yul\":1425:1544   */\n      iszero\n      tag_70\n      jumpi\n        /* \"#utility.yul\":1463:1542   */\n      tag_71\n      tag_32\n      jump\t// in\n    tag_71:\n        /* \"#utility.yul\":1425:1544   */\n    tag_70:\n        /* \"#utility.yul\":1611:1612   */\n      0x00\n        /* \"#utility.yul\":1600:1609   */\n      dup4\n        /* \"#utility.yul\":1596:1613   */\n      add\n        /* \"#utility.yul\":1583:1614   */\n      calldataload\n        /* \"#utility.yul\":1641:1659   */\n      0xffffffffffffffff\n        /* \"#utility.yul\":1633:1639   */\n      dup2\n        /* \"#utility.yul\":1630:1660   */\n      gt\n        /* \"#utility.yul\":1627:1744   */\n      iszero\n      tag_72\n      jumpi\n        /* \"#utility.yul\":1663:1742   */\n      tag_73\n      tag_33\n      jump\t// in\n    tag_73:\n        /* \"#utility.yul\":1627:1744   */\n    tag_72:\n        /* \"#utility.yul\":1776:1867   */\n      tag_74\n        /* \"#utility.yul\":1859:1866   */\n      dup6\n        /* \"#utility.yul\":1850:1856   */\n      dup3\n        /* \"#utility.yul\":1839:1848   */\n      dup7\n        /* \"#utility.yul\":1835:1857   */\n      add\n        /* \"#utility.yul\":1776:1867   */\n      tag_37\n      jump\t// in\n    tag_74:\n        /* \"#utility.yul\":1758:1867   */\n      swap3\n      pop\n      swap3\n      pop\n        /* \"#utility.yul\":1554:1877   */\n      pop\n        /* \"#utility.yul\":1303:1884   */\n      swap3\n      pop\n      swap3\n      swap1\n      pop\n      jump\t// out\n        /* \"#utility.yul\":1890:2013   */\n    tag_38:\n        /* \"#utility.yul\":1966:1972   */\n      0x00\n        /* \"#utility.yul\":2000:2005   */\n      dup2\n        /* \"#utility.yul\":1994:2006   */\n      mload\n        /* \"#utility.yul\":1984:2006   */\n      swap1\n      pop\n        /* \"#utility.yul\":1890:2013   */\n      swap2\n      swap1\n      pop\n      jump\t// out\n        /* \"#utility.yul\":2019:2212   */\n    tag_39:\n        /* \"#utility.yul\":2127:2138   */\n      0x00\n        /* \"#utility.yul\":2161:2167   */\n      dup3\n        /* \"#utility.yul\":2156:2159   */\n      dup3\n        /* \"#utility.yul\":2149:2168   */\n      mstore\n        /* \"#utility.yul\":2201:2205   */\n      0x20\n        /* \"#utility.yul\":2196:2199   */\n      dup3\n        /* \"#utility.yul\":2192:2206   */\n      add\n        /* \"#utility.yul\":2177:2206   */\n      swap1\n      pop\n        /* \"#utility.yul\":2019:2212   */\n      swap3\n      swap2\n      pop\n      pop\n      jump\t// out\n        /* \"#utility.yul\":2218:2359   */\n    tag_40:\n        /* \"#utility.yul\":2294:2298   */\n      0x00\n        /* \"#utility.yul\":2317:2320   */\n      dup2\n        /* \"#utility.yul\":2309:2320   */\n      swap1\n      pop\n        /* \"#utility.yul\":2347:2351   */\n      0x20\n        /* \"#utility.yul\":2342:2345   */\n      dup3\n        /* \"#utility.yul\":2338:2352   */\n      add\n        /* \"#utility.yul\":2330:2352   */\n      swap1\n      pop\n        /* \"#utility.yul\":2218:2359   */\n      swap2\n      swap1\n      pop\n      jump\t// out\n        /* \"#utility.yul\":2365:2463   */\n    tag_41:\n        /* \"#utility.yul\":2416:2422   */\n      0x00\n        /* \"#utility.yul\":2450:2455   */\n      dup2\n        /* \"#utility.yul\":2444:2456   */\n      mload\n        /* \"#utility.yul\":2434:2456   */\n      swap1\n      pop\n        /* \"#utility.yul\":2365:2463   */\n      swap2\n      swap1\n      pop\n      jump\t// out\n        /* \"#utility.yul\":2469:2627   */\n    tag_42:\n        /* \"#utility.yul\":2542:2553   */\n      0x00\n        /* \"#utility.yul\":2576:2582   */\n      dup3\n        /* \"#utility.yul\":2571:2574   */\n      dup3\n        /* \"#utility.yul\":2564:2583   */\n      mstore\n        /* \"#utility.yul\":2616:2620   */\n      0x20\n        /* \"#utility.yul\":2611:2614   */\n      dup3\n        /* \"#utility.yul\":2607:2621   */\n      add\n        /* \"#utility.yul\":2592:2621   */\n      swap1\n      pop\n        /* \"#utility.yul\":2469:2627   */\n      swap3\n      swap2\n      pop\n      pop\n      jump\t// out\n        /* \"#utility.yul\":2633:2772   */\n    tag_43:\n        /* \"#utility.yul\":2722:2728   */\n      dup3\n        /* \"#utility.yul\":2717:2720   */\n      dup2\n        /* \"#utility.yul\":2712:2715   */\n      dup4\n        /* \"#utility.yul\":2706:2729   */\n      mcopy\n        /* \"#utility.yul\":2763:2764   */\n      0x00\n        /* \"#utility.yul\":2754:2760   */\n      dup4\n        /* \"#utility.yul\":2749:2752   */\n      dup4\n        /* \"#utility.yul\":2745:2761   */\n      add\n        /* \"#utility.yul\":2738:2765   */\n      mstore\n        /* \"#utility.yul\":2633:2772   */\n      pop\n      pop\n      pop\n      jump\t// out\n        /* \"#utility.yul\":2778:2880   */\n    tag_44:\n        /* \"#utility.yul\":2819:2825   */\n      0x00\n        /* \"#utility.yul\":2870:2872   */\n      0x1f\n        /* \"#utility.yul\":2866:2873   */\n      not\n        /* \"#utility.yul\":2861:2863   */\n      0x1f\n        /* \"#utility.yul\":2854:2859   */\n      dup4\n        /* \"#utility.yul\":2850:2864   */\n      add\n        /* \"#utility.yul\":2846:2874   */\n      and\n        /* \"#utility.yul\":2836:2874   */\n      swap1\n      pop\n        /* \"#utility.yul\":2778:2880   */\n      swap2\n      swap1\n      pop\n      jump\t// out\n        /* \"#utility.yul\":2886:3239   */\n    tag_45:\n        /* \"#utility.yul\":2962:2965   */\n      0x00\n        /* \"#utility.yul\":2990:3028   */\n      tag_83\n        /* \"#utility.yul\":3022:3027   */\n      dup3\n        /* \"#utility.yul\":2990:3028   */\n      tag_41\n      jump\t// in\n    tag_83:\n        /* \"#utility.yul\":3044:3104   */\n      tag_84\n        /* \"#utility.yul\":3097:3103   */\n      dup2\n        /* \"#utility.yul\":3092:3095   */\n      dup6\n        /* \"#utility.yul\":3044:3104   */\n      tag_42\n      jump\t// in\n    tag_84:\n        /* \"#utility.yul\":3037:3104   */\n      swap4\n      pop\n        /* \"#utility.yul\":3113:3178   */\n      tag_85\n        /* \"#utility.yul\":3171:3177   */\n      dup2\n        /* \"#utility.yul\":3166:3169   */\n      dup6\n        /* \"#utility.yul\":3159:3163   */\n      0x20\n        /* \"#utility.yul\":3152:3157   */\n      dup7\n        /* \"#utility.yul\":3148:3164   */\n      add\n        /* \"#utility.yul\":3113:3178   */\n      tag_43\n      jump\t// in\n    tag_85:\n        /* \"#utility.yul\":3203:3232   */\n      tag_86\n        /* \"#utility.yul\":3225:3231   */\n      dup2\n        /* \"#utility.yul\":3203:3232   */\n      tag_44\n      jump\t// in\n    tag_86:\n        /* \"#utility.yul\":3198:3201   */\n      dup5\n        /* \"#utility.yul\":3194:3233   */\n      add\n        /* \"#utility.yul\":3187:3233   */\n      swap2\n      pop\n        /* \"#utility.yul\":2966:3239   */\n      pop\n        /* \"#utility.yul\":2886:3239   */\n      swap3\n      swap2\n      pop\n      pop\n      jump\t// out\n        /* \"#utility.yul\":3245:3437   */\n    tag_46:\n        /* \"#utility.yul\":3332:3342   */\n      0x00\n        /* \"#utility.yul\":3367:3431   */\n      tag_88\n        /* \"#utility.yul\":3427:3430   */\n      dup4\n        /* \"#utility.yul\":3419:3425   */\n      dup4\n        /* \"#utility.yul\":3367:3431   */\n      tag_45\n      jump\t// in\n    tag_88:\n        /* \"#utility.yul\":3353:3431   */\n      swap1\n      pop\n        /* \"#utility.yul\":3245:3437   */\n      swap3\n      swap2\n      pop\n      pop\n      jump\t// out\n        /* \"#utility.yul\":3443:3565   */\n    tag_47:\n        /* \"#utility.yul\":3522:3526   */\n      0x00\n        /* \"#utility.yul\":3554:3558   */\n      0x20\n        /* \"#utility.yul\":3549:3552   */\n      dup3\n        /* \"#utility.yul\":3545:3559   */\n      add\n        /* \"#utility.yul\":3537:3559   */\n      swap1\n      pop\n        /* \"#utility.yul\":3443:3565   */\n      swap2\n      swap1\n      pop\n      jump\t// out\n        /* \"#utility.yul\":3597:4580   */\n    tag_48:\n        /* \"#utility.yul\":3734:3737   */\n      0x00\n        /* \"#utility.yul\":3763:3826   */\n      tag_91\n        /* \"#utility.yul\":3820:3825   */\n      dup3\n        /* \"#utility.yul\":3763:3826   */\n      tag_38\n      jump\t// in\n    tag_91:\n        /* \"#utility.yul\":3842:3937   */\n      tag_92\n        /* \"#utility.yul\":3930:3936   */\n      dup2\n        /* \"#utility.yul\":3925:3928   */\n      dup6\n        /* \"#utility.yul\":3842:3937   */\n      tag_39\n      jump\t// in\n    tag_92:\n        /* \"#utility.yul\":3835:3937   */\n      swap4\n      pop\n        /* \"#utility.yul\":3963:3966   */\n      dup4\n        /* \"#utility.yul\":4008:4012   */\n      0x20\n        /* \"#utility.yul\":4000:4006   */\n      dup3\n        /* \"#utility.yul\":3996:4013   */\n      mul\n        /* \"#utility.yul\":3991:3994   */\n      dup6\n        /* \"#utility.yul\":3987:4014   */\n      add\n        /* \"#utility.yul\":4038:4103   */\n      tag_93\n        /* \"#utility.yul\":4097:4102   */\n      dup6\n        /* \"#utility.yul\":4038:4103   */\n      tag_40\n      jump\t// in\n    tag_93:\n        /* \"#utility.yul\":4126:4133   */\n      dup1\n        /* \"#utility.yul\":4157:4158   */\n      0x00\n        /* \"#utility.yul\":4142:4535   */\n    tag_94:\n        /* \"#utility.yul\":4167:4173   */\n      dup6\n        /* \"#utility.yul\":4164:4165   */\n      dup2\n        /* \"#utility.yul\":4161:4174   */\n      lt\n        /* \"#utility.yul\":4142:4535   */\n      iszero\n      tag_96\n      jumpi\n        /* \"#utility.yul\":4238:4247   */\n      dup5\n        /* \"#utility.yul\":4232:4236   */\n      dup5\n        /* \"#utility.yul\":4228:4248   */\n      sub\n        /* \"#utility.yul\":4223:4226   */\n      dup10\n        /* \"#utility.yul\":4216:4249   */\n      mstore\n        /* \"#utility.yul\":4289:4295   */\n      dup2\n        /* \"#utility.yul\":4283:4296   */\n      mload\n        /* \"#utility.yul\":4317:4399   */\n      tag_97\n        /* \"#utility.yul\":4394:4398   */\n      dup6\n        /* \"#utility.yul\":4379:4392   */\n      dup3\n        /* \"#utility.yul\":4317:4399   */\n      tag_46\n      jump\t// in\n    tag_97:\n        /* \"#utility.yul\":4309:4399   */\n      swap5\n      pop\n        /* \"#utility.yul\":4422:4491   */\n      tag_98\n        /* \"#utility.yul\":4484:4490   */\n      dup4\n        /* \"#utility.yul\":4422:4491   */\n      tag_47\n      jump\t// in\n    tag_98:\n        /* \"#utility.yul\":4412:4491   */\n      swap3\n      pop\n        /* \"#utility.yul\":4520:4524   */\n      0x20\n        /* \"#utility.yul\":4515:4518   */\n      dup11\n        /* \"#utility.yul\":4511:4525   */\n      add\n        /* \"#utility.yul\":4504:4525   */\n      swap10\n      pop\n        /* \"#utility.yul\":4202:4535   */\n      pop\n        /* \"#utility.yul\":4189:4190   */\n      0x01\n        /* \"#utility.yul\":4186:4187   */\n      dup2\n        /* \"#utility.yul\":4182:4191   */\n      add\n        /* \"#utility.yul\":4177:4191   */\n      swap1\n      pop\n        /* \"#utility.yul\":4142:4535   */\n      jump(tag_94)\n    tag_96:\n        /* \"#utility.yul\":4146:4160   */\n      pop\n        /* \"#utility.yul\":4551:4555   */\n      dup3\n        /* \"#utility.yul\":4544:4555   */\n      swap8\n      pop\n        /* \"#utility.yul\":4571:4574   */\n      dup8\n        /* \"#utility.yul\":4564:4574   */\n      swap6\n      pop\n        /* \"#utility.yul\":3739:4580   */\n      pop\n      pop\n      pop\n      pop\n      pop\n        /* \"#utility.yul\":3597:4580   */\n      swap3\n      swap2\n      pop\n      pop\n      jump\t// out\n        /* \"#utility.yul\":4586:4995   */\n    tag_8:\n        /* \"#utility.yul\":4747:4751   */\n      0x00\n        /* \"#utility.yul\":4785:4787   */\n      0x20\n        /* \"#utility.yul\":4774:4783   */\n      dup3\n        /* \"#utility.yul\":4770:4788   */\n      add\n        /* \"#utility.yul\":4762:4788   */\n      swap1\n      pop\n        /* \"#utility.yul\":4834:4843   */\n      dup2\n        /* \"#utility.yul\":4828:4832   */\n      dup2\n        /* \"#utility.yul\":4824:4844   */\n      sub\n        /* \"#utility.yul\":4820:4821   */\n      0x00\n        /* \"#utility.yul\":4809:4818   */\n      dup4\n        /* \"#utility.yul\":4805:4822   */\n      add\n        /* \"#utility.yul\":4798:4845   */\n      mstore\n        /* \"#utility.yul\":4862:4988   */\n      tag_100\n        /* \"#utility.yul\":4983:4987   */\n      dup2\n        /* \"#utility.yul\":4974:4980   */\n      dup5\n        /* \"#utility.yul\":4862:4988   */\n      tag_48\n      jump\t// in\n    tag_100:\n        /* \"#utility.yul\":4854:4988   */\n      swap1\n      pop\n        /* \"#utility.yul\":4586:4995   */\n      swap3\n      swap2\n      pop\n      pop\n      jump\t// out\n        /* \"#utility.yul\":5001:5181   */\n    tag_12:\n        /* \"#utility.yul\":5049:5126   */\n      0x4e487b7100000000000000000000000000000000000000000000000000000000\n        /* \"#utility.yul\":5046:5047   */\n      0x00\n        /* \"#utility.yul\":5039:5127   */\n      mstore\n        /* \"#utility.yul\":5146:5150   */\n      0x41\n        /* \"#utility.yul\":5143:5144   */\n      0x04\n        /* \"#utility.yul\":5136:5151   */\n      mstore\n        /* \"#utility.yul\":5170:5174   */\n      0x24\n        /* \"#utility.yul\":5167:5168   */\n      0x00\n        /* \"#utility.yul\":5160:5175   */\n      revert\n        /* \"#utility.yul\":5187:5367   */\n    tag_20:\n        /* \"#utility.yul\":5235:5312   */\n      0x4e487b7100000000000000000000000000000000000000000000000000000000\n        /* \"#utility.yul\":5232:5233   */\n      0x00\n        /* \"#utility.yul\":5225:5313   */\n      mstore\n        /* \"#utility.yul\":5332:5336   */\n      0x32\n        /* \"#utility.yul\":5329:5330   */\n      0x04\n        /* \"#utility.yul\":5322:5337   */\n      mstore\n        /* \"#utility.yul\":5356:5360   */\n      0x24\n        /* \"#utility.yul\":5353:5354   */\n      0x00\n        /* \"#utility.yul\":5346:5361   */\n      revert\n        /* \"#utility.yul\":5373:5490   */\n    tag_49:\n        /* \"#utility.yul\":5482:5483   */\n      0x00\n        /* \"#utility.yul\":5479:5480   */\n      0x00\n        /* \"#utility.yul\":5472:5484   */\n      revert\n        /* \"#utility.yul\":5496:5613   */\n    tag_50:\n        /* \"#utility.yul\":5605:5606   */\n      0x00\n        /* \"#utility.yul\":5602:5603   */\n      0x00\n        /* \"#utility.yul\":5595:5607   */\n      revert\n        /* \"#utility.yul\":5619:5736   */\n    tag_51:\n        /* \"#utility.yul\":5728:5729   */\n      0x00\n        /* \"#utility.yul\":5725:5726   */\n      0x00\n        /* \"#utility.yul\":5718:5730   */\n      revert\n        /* \"#utility.yul\":5742:6466   */\n    tag_22:\n        /* \"#utility.yul\":5819:5823   */\n      0x00\n        /* \"#utility.yul\":5825:5831   */\n      0x00\n        /* \"#utility.yul\":5881:5892   */\n      dup4\n        /* \"#utility.yul\":5868:5893   */\n      calldataload\n        /* \"#utility.yul\":5981:5982   */\n      0x01\n        /* \"#utility.yul\":5975:5979   */\n      0x20\n        /* \"#utility.yul\":5971:5983   */\n      sub\n        /* \"#utility.yul\":5960:5968   */\n      dup5\n        /* \"#utility.yul\":5944:5958   */\n      calldatasize\n        /* \"#utility.yul\":5940:5969   */\n      sub\n        /* \"#utility.yul\":5936:5984   */\n      sub\n        /* \"#utility.yul\":5916:5934   */\n      dup2\n        /* \"#utility.yul\":5912:5985   */\n      slt\n        /* \"#utility.yul\":5902:6070   */\n      tag_107\n      jumpi\n        /* \"#utility.yul\":5989:6068   */\n      tag_108\n      tag_49\n      jump\t// in\n    tag_108:\n        /* \"#utility.yul\":5902:6070   */\n    tag_107:\n        /* \"#utility.yul\":6101:6119   */\n      dup1\n        /* \"#utility.yul\":6091:6099   */\n      dup5\n        /* \"#utility.yul\":6087:6120   */\n      add\n        /* \"#utility.yul\":6079:6120   */\n      swap3\n      pop\n        /* \"#utility.yul\":6153:6157   */\n      dup3\n        /* \"#utility.yul\":6140:6158   */\n      calldataload\n        /* \"#utility.yul\":6130:6158   */\n      swap2\n      pop\n        /* \"#utility.yul\":6181:6199   */\n      0xffffffffffffffff\n        /* \"#utility.yul\":6173:6179   */\n      dup3\n        /* \"#utility.yul\":6170:6200   */\n      gt\n        /* \"#utility.yul\":6167:6284   */\n      iszero\n      tag_109\n      jumpi\n        /* \"#utility.yul\":6203:6282   */\n      tag_110\n      tag_50\n      jump\t// in\n    tag_110:\n        /* \"#utility.yul\":6167:6284   */\n    tag_109:\n        /* \"#utility.yul\":6311:6313   */\n      0x20\n        /* \"#utility.yul\":6305:6309   */\n      dup4\n        /* \"#utility.yul\":6301:6314   */\n      add\n        /* \"#utility.yul\":6293:6314   */\n      swap3\n      pop\n        /* \"#utility.yul\":6368:6372   */\n      0x01\n        /* \"#utility.yul\":6360:6366   */\n      dup3\n        /* \"#utility.yul\":6356:6373   */\n      mul\n        /* \"#utility.yul\":6340:6354   */\n      calldatasize\n        /* \"#utility.yul\":6336:6374   */\n      sub\n        /* \"#utility.yul\":6330:6334   */\n      dup4\n        /* \"#utility.yul\":6326:6375   */\n      sgt\n        /* \"#utility.yul\":6323:6459   */\n      iszero\n      tag_111\n      jumpi\n        /* \"#utility.yul\":6378:6457   */\n      tag_112\n      tag_51\n      jump\t// in\n    tag_112:\n        /* \"#utility.yul\":6323:6459   */\n    tag_111:\n        /* \"#utility.yul\":5832:6466   */\n      pop\n        /* \"#utility.yul\":5742:6466   */\n      swap3\n      pop\n      swap3\n      swap1\n      pop\n      jump\t// out\n        /* \"#utility.yul\":6472:6619   */\n    tag_52:\n        /* \"#utility.yul\":6573:6584   */\n      0x00\n        /* \"#utility.yul\":6610:6613   */\n      dup2\n        /* \"#utility.yul\":6595:6613   */\n      swap1\n      pop\n        /* \"#utility.yul\":6472:6619   */\n      swap3\n      swap2\n      pop\n      pop\n      jump\t// out\n        /* \"#utility.yul\":6625:6773   */\n    tag_53:\n        /* \"#utility.yul\":6723:6729   */\n      dup3\n        /* \"#utility.yul\":6718:6721   */\n      dup2\n        /* \"#utility.yul\":6713:6716   */\n      dup4\n        /* \"#utility.yul\":6700:6730   */\n      calldatacopy\n        /* \"#utility.yul\":6764:6765   */\n      0x00\n        /* \"#utility.yul\":6755:6761   */\n      dup4\n        /* \"#utility.yul\":6750:6753   */\n      dup4\n        /* \"#utility.yul\":6746:6762   */\n      add\n        /* \"#utility.yul\":6739:6766   */\n      mstore\n        /* \"#utility.yul\":6625:6773   */\n      pop\n      pop\n      pop\n      jump\t// out\n        /* \"#utility.yul\":6801:7128   */\n    tag_54:\n        /* \"#utility.yul\":6915:6918   */\n      0x00\n        /* \"#utility.yul\":6936:7024   */\n      tag_116\n        /* \"#utility.yul\":7017:7023   */\n      dup4\n        /* \"#utility.yul\":7012:7015   */\n      dup6\n        /* \"#utility.yul\":6936:7024   */\n      tag_52\n      jump\t// in\n    tag_116:\n        /* \"#utility.yul\":6929:7024   */\n      swap4\n      pop\n        /* \"#utility.yul\":7034:7090   */\n      tag_117\n        /* \"#utility.yul\":7083:7089   */\n      dup4\n        /* \"#utility.yul\":7078:7081   */\n      dup6\n        /* \"#utility.yul\":7071:7076   */\n      dup5\n        /* \"#utility.yul\":7034:7090   */\n      tag_53\n      jump\t// in\n    tag_117:\n        /* \"#utility.yul\":7115:7121   */\n      dup3\n        /* \"#utility.yul\":7110:7113   */\n      dup5\n        /* \"#utility.yul\":7106:7122   */\n      add\n        /* \"#utility.yul\":7099:7122   */\n      swap1\n      pop\n        /* \"#utility.yul\":6801:7128   */\n      swap4\n      swap3\n      pop\n      pop\n      pop\n      jump\t// out\n        /* \"#utility.yul\":7134:7425   */\n    tag_24:\n        /* \"#utility.yul\":7274:7277   */\n      0x00\n        /* \"#utility.yul\":7296:7399   */\n      tag_119\n        /* \"#utility.yul\":7395:7398   */\n      dup3\n        /* \"#utility.yul\":7386:7392   */\n      dup5\n        /* \"#utility.yul\":7378:7384   */\n      dup7\n        /* \"#utility.yul\":7296:7399   */\n      tag_54\n      jump\t// in\n    tag_119:\n        /* \"#utility.yul\":7289:7399   */\n      swap2\n      pop\n        /* \"#utility.yul\":7416:7419   */\n      dup2\n        /* \"#utility.yul\":7409:7419   */\n      swap1\n      pop\n        /* \"#utility.yul\":7134:7425   */\n      swap4\n      swap3\n      pop\n      pop\n      pop\n      jump\t// out\n\n    auxdata: 0xa2646970667358221220601095624a38b9fe8abd4f17adf6fb2497a8333c436e5ea7c04517e4b90c875564736f6c634300081c0033\n}\n",
				"bytecode": {
					"linkReferences": {},
					"object": "6080604052348015600e575f5ffd5b506104fe8061001c5f395ff3fe60806040526004361061001d575f3560e01c806310957d3c14610021575b5f5ffd5b61003b60048036038101906100369190610216565b610051565b604051610048919061038c565b60405180910390f35b60608282905067ffffffffffffffff8111156100705761006f6103ac565b5b6040519080825280602002602001820160405280156100a357816020015b606081526020019060019003908161008e5790505b5090505f5b838390508110156101a6575f5f3073ffffffffffffffffffffffffffffffffffffffff168686858181106100df576100de6103d9565b5b90506020028101906100f19190610412565b6040516100ff9291906104b0565b5f60405180830381855af49150503d805f8114610137576040519150601f19603f3d011682016040523d82523d5f602084013e61013c565b606091505b509150915081610178576040517f835e98fe00000000000000000000000000000000000000000000000000000000815260040160405180910390fd5b8084848151811061018c5761018b6103d9565b5b6020026020010181905250505080806001019150506100a8565b5092915050565b5f5ffd5b5f5ffd5b5f5ffd5b5f5ffd5b5f5ffd5b5f5f83601f8401126101d6576101d56101b5565b5b8235905067ffffffffffffffff8111156101f3576101f26101b9565b5b60208301915083602082028301111561020f5761020e6101bd565b5b9250929050565b5f5f6020838503121561022c5761022b6101ad565b5b5f83013567ffffffffffffffff811115610249576102486101b1565b5b610255858286016101c1565b92509250509250929050565b5f81519050919050565b5f82825260208201905092915050565b5f819050602082019050919050565b5f81519050919050565b5f82825260208201905092915050565b8281835e5f83830152505050565b5f601f19601f8301169050919050565b5f6102cc8261028a565b6102d68185610294565b93506102e68185602086016102a4565b6102ef816102b2565b840191505092915050565b5f61030583836102c2565b905092915050565b5f602082019050919050565b5f61032382610261565b61032d818561026b565b93508360208202850161033f8561027b565b805f5b8581101561037a578484038952815161035b85826102fa565b94506103668361030d565b925060208a01995050600181019050610342565b50829750879550505050505092915050565b5f6020820190508181035f8301526103a48184610319565b905092915050565b7f4e487b71000000000000000000000000000000000000000000000000000000005f52604160045260245ffd5b7f4e487b71000000000000000000000000000000000000000000000000000000005f52603260045260245ffd5b5f5ffd5b5f5ffd5b5f5ffd5b5f5f8335600160200384360303811261042e5761042d610406565b5b80840192508235915067ffffffffffffffff8211156104505761044f61040a565b5b60208301925060018202360383131561046c5761046b61040e565b5b509250929050565b5f81905092915050565b828183375f83830152505050565b5f6104978385610474565b93506104a483858461047e565b82840190509392505050565b5f6104bc82848661048c565b9150819050939250505056fea2646970667358221220601095624a38b9fe8abd4f17adf6fb2497a8333c436e5ea7c04517e4b90c875564736f6c634300081c0033",
					"opcodes": "PUSH1 0x80 PUSH1 0x40 MSTORE CALLVALUE DUP1 ISZERO PUSH1 0xE JUMPI PUSH0 PUSH0 REVERT JUMPDEST POP PUSH2 0x4FE DUP1 PUSH2 0x1C PUSH0 CODECOPY PUSH0 RETURN INVALID PUSH1 0x80 PUSH1 0x40 MSTORE PUSH1 0x4 CALLDATASIZE LT PUSH2 0x1D JUMPI PUSH0 CALLDATALOAD PUSH1 0xE0 SHR DUP1 PUSH4 0x10957D3C EQ PUSH2 0x21 JUMPI JUMPDEST PUSH0 PUSH0 REVERT JUMPDEST PUSH2 0x3B PUSH1 0x4 DUP1 CALLDATASIZE SUB DUP2 ADD SWAP1 PUSH2 0x36 SWAP2 SWAP1 PUSH2 0x216 JUMP JUMPDEST PUSH2 0x51 JUMP JUMPDEST PUSH1 0x40 MLOAD PUSH2 0x48 SWAP2 SWAP1 PUSH2 0x38C JUMP JUMPDEST PUSH1 0x40 MLOAD DUP1 SWAP2 SUB SWAP1 RETURN JUMPDEST PUSH1 0x60 DUP3 DUP3 SWAP1 POP PUSH8 0xFFFFFFFFFFFFFFFF DUP2 GT ISZERO PUSH2 0x70 JUMPI PUSH2 0x6F PUSH2 0x3AC JUMP JUMPDEST JUMPDEST PUSH1 0x40 MLOAD SWAP1 DUP1 DUP3 MSTORE DUP1 PUSH1 0x20 MUL PUSH1 0x20 ADD DUP3 ADD PUSH1 0x40 MSTORE DUP1 ISZERO PUSH2 0xA3 JUMPI DUP2 PUSH1 0x20 ADD JUMPDEST PUSH1 0x60 DUP2 MSTORE PUSH1 0x20 ADD SWAP1 PUSH1 0x1 SWAP1 SUB SWAP1 DUP2 PUSH2 0x8E JUMPI SWAP1 POP JUMPDEST POP SWAP1 POP PUSH0 JUMPDEST DUP4 DUP4 SWAP1 POP DUP2 LT ISZERO PUSH2 0x1A6 JUMPI PUSH0 PUSH0 ADDRESS PUSH20 0xFFFFFFFFFFFFFFFFFFFFFFFFFFFFFFFFFFFFFFFF AND DUP7 DUP7 DUP6 DUP2 DUP2 LT PUSH2 0xDF JUMPI PUSH2 0xDE PUSH2 0x3D9 JUMP JUMPDEST JUMPDEST SWAP1 POP PUSH1 0x20 MUL DUP2 ADD SWAP1 PUSH2 0xF1 SWAP2 SWAP1 PUSH2 0x412 JUMP JUMPDEST PUSH1 0x40 MLOAD PUSH2 0xFF SWAP3 SWAP2 SWAP1 PUSH2 0x4B0 JUMP JUMPDEST PUSH0 PUSH1 0x40 MLOAD DUP1 DUP4 SUB DUP2 DUP6 GAS DELEGATECALL SWAP2 POP POP RETURNDATASIZE DUP1 PUSH0 DUP2 EQ PUSH2 0x137 JUMPI PUSH1 0x40 MLOAD SWAP2 POP PUSH1 0x1F NOT PUSH1 0x3F RETURNDATASIZE ADD AND DUP3 ADD PUSH1 0x40 MSTORE RETURNDATASIZE DUP3 MSTORE RETURNDATASIZE PUSH0 PUSH1 0x20 DUP5 ADD RETURNDATACOPY PUSH2 0x13C JUMP JUMPDEST PUSH1 0x60 SWAP2 POP JUMPDEST POP SWAP2 POP SWAP2 POP DUP2 PUSH2 0x178 JUMPI PUSH1 0x40 MLOAD PUSH32 0x835E98FE00000000000000000000000000000000000000000000000000000000 DUP2 MSTORE PUSH1 0x4 ADD PUSH1 0x40 MLOAD DUP1 SWAP2 SUB SWAP1 REVERT JUMPDEST DUP1 DUP5 DUP5 DUP2 MLOAD DUP2 LT PUSH2 0x18C JUMPI PUSH2 0x18B PUSH2 0x3D9 JUMP JUMPDEST JUMPDEST PUSH1 0x20 MUL PUSH1 0x20 ADD ADD DUP2 SWAP1 MSTORE POP POP POP DUP1 DUP1 PUSH1 0x1 ADD SWAP2 POP POP PUSH2 0xA8 JUMP JUMPDEST POP SWAP3 SWAP2 POP POP JUMP JUMPDEST PUSH0 PUSH0 REVERT JUMPDEST PUSH0 PUSH0 REVERT JUMPDEST PUSH0 PUSH0 REVERT JUMPDEST PUSH0 PUSH0 REVERT JUMPDEST PUSH0 PUSH0 REVERT JUMPDEST PUSH0 PUSH0 DUP4 PUSH1 0x1F DUP5 ADD SLT PUSH2 0x1D6 JUMPI PUSH2 0x1D5 PUSH2 0x1B5 JUMP JUMPDEST JUMPDEST DUP3 CALLDATALOAD SWAP1 POP PUSH8 0xFFFFFFFFFFFFFFFF DUP2 GT ISZERO PUSH2 0x1F3 JUMPI PUSH2 0x1F2 PUSH2 0x1B9 JUMP JUMPDEST JUMPDEST PUSH1 0x20 DUP4 ADD SWAP2 POP DUP4 PUSH1 0x20 DUP3 MUL DUP4 ADD GT ISZERO PUSH2 0x20F JUMPI PUSH2 0x20E PUSH2 0x1BD JUMP JUMPDEST JUMPDEST SWAP3 POP SWAP3 SWAP1 POP JUMP JUMPDEST PUSH0 PUSH0 PUSH1 0x20 DUP4 DUP6 SUB SLT ISZERO PUSH2 0x22C JUMPI PUSH2 0x22B PUSH2 0x1AD JUMP JUMPDEST JUMPDEST PUSH0 DUP4 ADD CALLDATALOAD PUSH8 0xFFFFFFFFFFFFFFFF DUP2 GT ISZERO PUSH2 0x249 JUMPI PUSH2 0x248 PUSH2 0x1B1 JUMP JUMPDEST JUMPDEST PUSH2 0x255 DUP6 DUP3 DUP7 ADD PUSH2 0x1C1 JUMP JUMPDEST SWAP3 POP SWAP3 POP POP SWAP3 POP SWAP3 SWAP1 POP JUMP JUMPDEST PUSH0 DUP2 MLOAD SWAP1 POP SWAP2 SWAP1 POP JUMP JUMPDEST PUSH0 DUP3 DUP3 MSTORE PUSH1 0x20 DUP3 ADD SWAP1 POP SWAP3 SWAP2 POP POP JUMP JUMPDEST PUSH0 DUP2 SWAP1 POP PUSH1 0x20 DUP3 ADD SWAP1 POP SWAP2 SWAP1 POP JUMP JUMPDEST PUSH0 DUP2 MLOAD SWAP1 POP SWAP2 SWAP1 POP JUMP JUMPDEST PUSH0 DUP3 DUP3 MSTORE PUSH1 0x20 DUP3 ADD SWAP1 POP SWAP3 SWAP2 POP POP JUMP JUMPDEST DUP3 DUP2 DUP4 MCOPY PUSH0 DUP4 DUP4 ADD MSTORE POP POP POP JUMP JUMPDEST PUSH0 PUSH1 0x1F NOT PUSH1 0x1F DUP4 ADD AND SWAP1 POP SWAP2 SWAP1 POP JUMP JUMPDEST PUSH0 PUSH2 0x2CC DUP3 PUSH2 0x28A JUMP JUMPDEST PUSH2 0x2D6 DUP2 DUP6 PUSH2 0x294 JUMP JUMPDEST SWAP4 POP PUSH2 0x2E6 DUP2 DUP6 PUSH1 0x20 DUP7 ADD PUSH2 0x2A4 JUMP JUMPDEST PUSH2 0x2EF DUP2 PUSH2 0x2B2 JUMP JUMPDEST DUP5 ADD SWAP2 POP POP SWAP3 SWAP2 POP POP JUMP JUMPDEST PUSH0 PUSH2 0x305 DUP4 DUP4 PUSH2 0x2C2 JUMP JUMPDEST SWAP1 POP SWAP3 SWAP2 POP POP JUMP JUMPDEST PUSH0 PUSH1 0x20 DUP3 ADD SWAP1 POP SWAP2 SWAP1 POP JUMP JUMPDEST PUSH0 PUSH2 0x323 DUP3 PUSH2 0x261 JUMP JUMPDEST PUSH2 0x32D DUP2 DUP6 PUSH2 0x26B JUMP JUMPDEST SWAP4 POP DUP4 PUSH1 0x20 DUP3 MUL DUP6 ADD PUSH2 0x33F DUP6 PUSH2 0x27B JUMP JUMPDEST DUP1 PUSH0 JUMPDEST DUP6 DUP2 LT ISZERO PUSH2 0x37A JUMPI DUP5 DUP5 SUB DUP10 MSTORE DUP2 MLOAD PUSH2 0x35B DUP6 DUP3 PUSH2 0x2FA JUMP JUMPDEST SWAP5 POP PUSH2 0x366 DUP4 PUSH2 0x30D JUMP JUMPDEST SWAP3 POP PUSH1 0x20 DUP11 ADD SWAP10 POP POP PUSH1 0x1 DUP2 ADD SWAP1 POP PUSH2 0x342 JUMP JUMPDEST POP DUP3 SWAP8 POP DUP8 SWAP6 POP POP POP POP POP POP SWAP3 SWAP2 POP POP JUMP JUMPDEST PUSH0 PUSH1 0x20 DUP3 ADD SWAP1 POP DUP2 DUP2 SUB PUSH0 DUP4 ADD MSTORE PUSH2 0x3A4 DUP2 DUP5 PUSH2 0x319 JUMP JUMPDEST SWAP1 POP SWAP3 SWAP2 POP POP JUMP JUMPDEST PUSH32 0x4E487B7100000000000000000000000000000000000000000000000000000000 PUSH0 MSTORE PUSH1 0x41 PUSH1 0x4 MSTORE PUSH1 0x24 PUSH0 REVERT JUMPDEST PUSH32 0x4E487B7100000000000000000000000000000000000000000000000000000000 PUSH0 MSTORE PUSH1 0x32 PUSH1 0x4 MSTORE PUSH1 0x24 PUSH0 REVERT JUMPDEST PUSH0 PUSH0 REVERT JUMPDEST PUSH0 PUSH0 REVERT JUMPDEST PUSH0 PUSH0 REVERT JUMPDEST PUSH0 PUSH0 DUP4 CALLDATALOAD PUSH1 0x1 PUSH1 0x20 SUB DUP5 CALLDATASIZE SUB SUB DUP2 SLT PUSH2 0x42E JUMPI PUSH2 0x42D PUSH2 0x406 JUMP JUMPDEST JUMPDEST DUP1 DUP5 ADD SWAP3 POP DUP3 CALLDATALOAD SWAP2 POP PUSH8 0xFFFFFFFFFFFFFFFF DUP3 GT ISZERO PUSH2 0x450 JUMPI PUSH2 0x44F PUSH2 0x40A JUMP JUMPDEST JUMPDEST PUSH1 0x20 DUP4 ADD SWAP3 POP PUSH1 0x1 DUP3 MUL CALLDATASIZE SUB DUP4 SGT ISZERO PUSH2 0x46C JUMPI PUSH2 0x46B PUSH2 0x40E JUMP JUMPDEST JUMPDEST POP SWAP3 POP SWAP3 SWAP1 POP JUMP JUMPDEST PUSH0 DUP2 SWAP1 POP SWAP3 SWAP2 POP POP JUMP JUMPDEST DUP3 DUP2 DUP4 CALLDATACOPY PUSH0 DUP4 DUP4 ADD MSTORE POP POP POP JUMP JUMPDEST PUSH0 PUSH2 0x497 DUP4 DUP6 PUSH2 0x474 JUMP JUMPDEST SWAP4 POP PUSH2 0x4A4 DUP4 DUP6 DUP5 PUSH2 0x47E JUMP JUMPDEST DUP3 DUP5 ADD SWAP1 POP SWAP4 SWAP3 POP POP POP JUMP JUMPDEST PUSH0 PUSH2 0x4BC DUP3 DUP5 DUP7 PUSH2 0x48C JUMP JUMPDEST SWAP2 POP DUP2 SWAP1 POP SWAP4 SWAP3 POP POP POP JUMP INVALID LOG2 PUSH5 0x6970667358 0x22 SLT KECCAK256 PUSH1 0x10 SWAP6 PUSH3 0x4A38B9 INVALID DUP11 0xBD 0x4F OR 0xAD 0xF6 0xFB 0x24 SWAP8 0xA8 CALLER EXTCODECOPY NUMBER PUSH15 0x5EA7C04517E4B90C875564736F6C63 NUMBER STOP ADDMOD SHR STOP CALLER "
				},
				"gasEstimates": {
					"creation": {
						"codeDepositCost": "255600",
						"executionCost": "292",
						"totalCost": "255892"
					},
					"external": {
						"multiDelegatecall(bytes[])": "infinite"
					}
				},
				"methodIdentifiers": {
					"multiDelegatecall(bytes[])": "10957d3c"
				}
			},
			"storageLayout": {
				"storage": [],
				"types": null
			},
			"userdoc": {
				"kind": "user",
				"methods": {},
				"version": 1
			}
		}
	}
}