{
	"EnglishAuction.sol": {
		"EnglishAution": {
			"abi": [
				{
					"inputs": [
						{
							"internalType": "address",
							"name": "_nft",
							"type": "address"
						},
						{
							"internalType": "uint256",
							"name": "_nftId",
							"type": "uint256"
						},
						{
							"internalType": "uint256",
							"name": "_startingBid",
							"type": "uint256"
						}
					],
					"stateMutability": "nonpayable",
					"type": "constructor"
				},
				{
					"anonymous": false,
					"inputs": [
						{
							"indexed": true,
							"internalType": "address",
							"name": "sender",
							"type": "address"
						},
						{
							"indexed": false,
							"internalType": "uint256",
							"name": "amount",
							"type": "uint256"
						}
					],
					"name": "Bid",
					"type": "event"
				},
				{
					"anonymous": false,
					"inputs": [
						{
							"indexed": false,
							"internalType": "address",
							"name": "highestBidder",
							"type": "address"
						},
						{
							"indexed": false,
							"internalType": "uint256",
							"name": "amount",
							"type": "uint256"
						}
					],
					"name": "End",
					"type": "event"
				},
				{
					"anonymous": false,
					"inputs": [],
					"name": "Start",
					"type": "event"
				},
				{
					"anonymous": false,
					"inputs": [
						{
							"indexed": true,
							"internalType": "address",
							"name": "bidder",
							"type": "address"
						},
						{
							"indexed": false,
							"internalType": "uint256",
							"name": "amount",
							"type": "uint256"
						}
					],
					"name": "Withdraw",
					"type": "event"
				},
				{
					"inputs": [],
					"name": "bid",
					"outputs": [],
					"stateMutability": "payable",
					"type": "function"
				},
				{
					"inputs": [
						{
							"internalType": "address",
							"name": "",
							"type": "address"
						}
					],
					"name": "bids",
					"outputs": [
						{
							"internalType": "uint256",
							"name": "",
							"type": "uint256"
						}
					],
					"stateMutability": "view",
					"type": "function"
				},
				{
					"inputs": [],
					"name": "end",
					"outputs": [],
					"stateMutability": "nonpayable",
					"type": "function"
				},
				{
					"inputs": [],
					"name": "endAt",
					"outputs": [
						{
							"internalType": "uint32",
							"name": "",
							"type": "uint32"
						}
					],
					"stateMutability": "view",
					"type": "function"
				},
				{
					"inputs": [],
					"name": "ended",
					"outputs": [
						{
							"internalType": "bool",
							"name": "",
							"type": "bool"
						}
					],
					"stateMutability": "view",
					"type": "function"
				},
				{
					"inputs": [],
					"name": "highestBid",
					"outputs": [
						{
							"internalType": "uint256",
							"name": "",
							"type": "uint256"
						}
					],
					"stateMutability": "view",
					"type": "function"
				},
				{
					"inputs": [],
					"name": "highestBidder",
					"outputs": [
						{
							"internalType": "address",
							"name": "",
							"type": "address"
						}
					],
					"stateMutability": "view",
					"type": "function"
				},
				{
					"inputs": [],
					"name": "nft",
					"outputs": [
						{
							"internalType": "contract IERC721",
							"name": "",
							"type": "address"
						}
					],
					"stateMutability": "view",
					"type": "function"
				},
				{
					"inputs": [],
					"name": "nftId",
					"outputs": [
						{
							"internalType": "uint256",
							"name": "",
							"type": "uint256"
						}
					],
					"stateMutability": "view",
					"type": "function"
				},
				{
					"inputs": [],
					"name": "seller",
					"outputs": [
						{
							"internalType": "address payable",
							"name": "",
							"type": "address"
						}
					],
					"stateMutability": "view",
					"type": "function"
				},
				{
					"inputs": [],
					"name": "start",
					"outputs": [],
					"stateMutability": "nonpayable",
					"type": "function"
				},
				{
					"inputs": [],
					"name": "started",
					"outputs": [
						{
							"internalType": "bool",
							"name": "",
							"type": "bool"
						}
					],
					"stateMutability": "view",
					"type": "function"
				},
				{
					"inputs": [],
					"name": "withdraw",
					"outputs": [],
					"stateMutability": "nonpayable",
					"type": "function"
				}
			],
			"devdoc": {
				"kind": "dev",
				"methods": {},
				"version": 1
			},
			"evm": {
				"assembly": "    /* \"EnglishAuction.sol\":190:2316  contract EnglishAution {... */\n  mstore(0x40, 0xe0)\n    /* \"EnglishAuction.sol\":709:937  constructor(... */\n  callvalue\n  dup1\n  iszero\n  tag_1\n  jumpi\n  revert(0x00, 0x00)\ntag_1:\n  pop\n  mload(0x40)\n  sub(codesize, bytecodeSize)\n  dup1\n  bytecodeSize\n  dup4\n  codecopy\n  dup2\n  dup2\n  add\n  0x40\n  mstore\n  dup2\n  add\n  swap1\n  tag_2\n  swap2\n  swap1\n  tag_3\n  jump\t// in\ntag_2:\n    /* \"EnglishAuction.sol\":827:831  _nft */\n  dup3\n    /* \"EnglishAuction.sol\":813:832  nft = IERC721(_nft) */\n  0xffffffffffffffffffffffffffffffffffffffff\n  and\n  0x80\n  dup2\n  0xffffffffffffffffffffffffffffffffffffffff\n  and\n  dup2\n  mstore\n  pop\n  pop\n    /* \"EnglishAuction.sol\":850:856  _nftId */\n  dup2\n    /* \"EnglishAuction.sol\":842:856  nftId = _nftId */\n  0xa0\n  dup2\n  dup2\n  mstore\n  pop\n  pop\n    /* \"EnglishAuction.sol\":883:893  msg.sender */\n  caller\n    /* \"EnglishAuction.sol\":866:894  seller = payable(msg.sender) */\n  0xffffffffffffffffffffffffffffffffffffffff\n  and\n  0xc0\n  dup2\n  0xffffffffffffffffffffffffffffffffffffffff\n  and\n  dup2\n  mstore\n  pop\n  pop\n    /* \"EnglishAuction.sol\":918:930  _startingBid */\n  dup1\n    /* \"EnglishAuction.sol\":905:915  highestBid */\n  0x01\n    /* \"EnglishAuction.sol\":905:930  highestBid = _startingBid */\n  dup2\n  swap1\n  sstore\n  pop\n    /* \"EnglishAuction.sol\":709:937  constructor(... */\n  pop\n  pop\n  pop\n    /* \"EnglishAuction.sol\":190:2316  contract EnglishAution {... */\n  jump(tag_6)\n    /* \"#utility.yul\":88:205   */\ntag_8:\n    /* \"#utility.yul\":197:198   */\n  0x00\n    /* \"#utility.yul\":194:195   */\n  0x00\n    /* \"#utility.yul\":187:199   */\n  revert\n    /* \"#utility.yul\":334:460   */\ntag_10:\n    /* \"#utility.yul\":371:378   */\n  0x00\n    /* \"#utility.yul\":411:453   */\n  0xffffffffffffffffffffffffffffffffffffffff\n    /* \"#utility.yul\":404:409   */\n  dup3\n    /* \"#utility.yul\":400:454   */\n  and\n    /* \"#utility.yul\":389:454   */\n  swap1\n  pop\n    /* \"#utility.yul\":334:460   */\n  swap2\n  swap1\n  pop\n  jump\t// out\n    /* \"#utility.yul\":466:562   */\ntag_11:\n    /* \"#utility.yul\":503:510   */\n  0x00\n    /* \"#utility.yul\":532:556   */\n  tag_23\n    /* \"#utility.yul\":550:555   */\n  dup3\n    /* \"#utility.yul\":532:556   */\n  tag_10\n  jump\t// in\ntag_23:\n    /* \"#utility.yul\":521:556   */\n  swap1\n  pop\n    /* \"#utility.yul\":466:562   */\n  swap2\n  swap1\n  pop\n  jump\t// out\n    /* \"#utility.yul\":568:690   */\ntag_12:\n    /* \"#utility.yul\":641:665   */\n  tag_25\n    /* \"#utility.yul\":659:664   */\n  dup2\n    /* \"#utility.yul\":641:665   */\n  tag_11\n  jump\t// in\ntag_25:\n    /* \"#utility.yul\":634:639   */\n  dup2\n    /* \"#utility.yul\":631:666   */\n  eq\n    /* \"#utility.yul\":621:684   */\n  tag_26\n  jumpi\n    /* \"#utility.yul\":680:681   */\n  0x00\n    /* \"#utility.yul\":677:678   */\n  0x00\n    /* \"#utility.yul\":670:682   */\n  revert\n    /* \"#utility.yul\":621:684   */\ntag_26:\n    /* \"#utility.yul\":568:690   */\n  pop\n  jump\t// out\n    /* \"#utility.yul\":696:839   */\ntag_13:\n    /* \"#utility.yul\":753:758   */\n  0x00\n    /* \"#utility.yul\":784:790   */\n  dup2\n    /* \"#utility.yul\":778:791   */\n  mload\n    /* \"#utility.yul\":769:791   */\n  swap1\n  pop\n    /* \"#utility.yul\":800:833   */\n  tag_28\n    /* \"#utility.yul\":827:832   */\n  dup2\n    /* \"#utility.yul\":800:833   */\n  tag_12\n  jump\t// in\ntag_28:\n    /* \"#utility.yul\":696:839   */\n  swap3\n  swap2\n  pop\n  pop\n  jump\t// out\n    /* \"#utility.yul\":845:922   */\ntag_14:\n    /* \"#utility.yul\":882:889   */\n  0x00\n    /* \"#utility.yul\":911:916   */\n  dup2\n    /* \"#utility.yul\":900:916   */\n  swap1\n  pop\n    /* \"#utility.yul\":845:922   */\n  swap2\n  swap1\n  pop\n  jump\t// out\n    /* \"#utility.yul\":928:1050   */\ntag_15:\n    /* \"#utility.yul\":1001:1025   */\n  tag_31\n    /* \"#utility.yul\":1019:1024   */\n  dup2\n    /* \"#utility.yul\":1001:1025   */\n  tag_14\n  jump\t// in\ntag_31:\n    /* \"#utility.yul\":994:999   */\n  dup2\n    /* \"#utility.yul\":991:1026   */\n  eq\n    /* \"#utility.yul\":981:1044   */\n  tag_32\n  jumpi\n    /* \"#utility.yul\":1040:1041   */\n  0x00\n    /* \"#utility.yul\":1037:1038   */\n  0x00\n    /* \"#utility.yul\":1030:1042   */\n  revert\n    /* \"#utility.yul\":981:1044   */\ntag_32:\n    /* \"#utility.yul\":928:1050   */\n  pop\n  jump\t// out\n    /* \"#utility.yul\":1056:1199   */\ntag_16:\n    /* \"#utility.yul\":1113:1118   */\n  0x00\n    /* \"#utility.yul\":1144:1150   */\n  dup2\n    /* \"#utility.yul\":1138:1151   */\n  mload\n    /* \"#utility.yul\":1129:1151   */\n  swap1\n  pop\n    /* \"#utility.yul\":1160:1193   */\n  tag_34\n    /* \"#utility.yul\":1187:1192   */\n  dup2\n    /* \"#utility.yul\":1160:1193   */\n  tag_15\n  jump\t// in\ntag_34:\n    /* \"#utility.yul\":1056:1199   */\n  swap3\n  swap2\n  pop\n  pop\n  jump\t// out\n    /* \"#utility.yul\":1205:1868   */\ntag_3:\n    /* \"#utility.yul\":1293:1299   */\n  0x00\n    /* \"#utility.yul\":1301:1307   */\n  0x00\n    /* \"#utility.yul\":1309:1315   */\n  0x00\n    /* \"#utility.yul\":1358:1360   */\n  0x60\n    /* \"#utility.yul\":1346:1355   */\n  dup5\n    /* \"#utility.yul\":1337:1344   */\n  dup7\n    /* \"#utility.yul\":1333:1356   */\n  sub\n    /* \"#utility.yul\":1329:1361   */\n  slt\n    /* \"#utility.yul\":1326:1445   */\n  iszero\n  tag_36\n  jumpi\n    /* \"#utility.yul\":1364:1443   */\n  tag_37\n  tag_8\n  jump\t// in\ntag_37:\n    /* \"#utility.yul\":1326:1445   */\ntag_36:\n    /* \"#utility.yul\":1484:1485   */\n  0x00\n    /* \"#utility.yul\":1509:1573   */\n  tag_38\n    /* \"#utility.yul\":1565:1572   */\n  dup7\n    /* \"#utility.yul\":1556:1562   */\n  dup3\n    /* \"#utility.yul\":1545:1554   */\n  dup8\n    /* \"#utility.yul\":1541:1563   */\n  add\n    /* \"#utility.yul\":1509:1573   */\n  tag_13\n  jump\t// in\ntag_38:\n    /* \"#utility.yul\":1499:1573   */\n  swap4\n  pop\n    /* \"#utility.yul\":1455:1583   */\n  pop\n    /* \"#utility.yul\":1622:1624   */\n  0x20\n    /* \"#utility.yul\":1648:1712   */\n  tag_39\n    /* \"#utility.yul\":1704:1711   */\n  dup7\n    /* \"#utility.yul\":1695:1701   */\n  dup3\n    /* \"#utility.yul\":1684:1693   */\n  dup8\n    /* \"#utility.yul\":1680:1702   */\n  add\n    /* \"#utility.yul\":1648:1712   */\n  tag_16\n  jump\t// in\ntag_39:\n    /* \"#utility.yul\":1638:1712   */\n  swap3\n  pop\n    /* \"#utility.yul\":1593:1722   */\n  pop\n    /* \"#utility.yul\":1761:1763   */\n  0x40\n    /* \"#utility.yul\":1787:1851   */\n  tag_40\n    /* \"#utility.yul\":1843:1850   */\n  dup7\n    /* \"#utility.yul\":1834:1840   */\n  dup3\n    /* \"#utility.yul\":1823:1832   */\n  dup8\n    /* \"#utility.yul\":1819:1841   */\n  add\n    /* \"#utility.yul\":1787:1851   */\n  tag_16\n  jump\t// in\ntag_40:\n    /* \"#utility.yul\":1777:1851   */\n  swap2\n  pop\n    /* \"#utility.yul\":1732:1861   */\n  pop\n    /* \"#utility.yul\":1205:1868   */\n  swap3\n  pop\n  swap3\n  pop\n  swap3\n  jump\t// out\n    /* \"EnglishAuction.sol\":190:2316  contract EnglishAution {... */\ntag_6:\n  mload(0x80)\n  mload(0xa0)\n  mload(0xc0)\n  codecopy(0x00, dataOffset(sub_0), dataSize(sub_0))\n  0x00\n  assignImmutable(\"0xd67d834462ca31eaef1f30157e31659f60355143b7441e6fc7d9eae1fa79f3f8\")\n  0x00\n  assignImmutable(\"0x3b4066bd7b7960752225af105d3beafb5c47a26c5aae7e6798a437b7c0bb33e6\")\n  0x00\n  assignImmutable(\"0x77c32b454bb61eb9df9e3848d0ded3e59753acda90ae58befe564733aec82e4c\")\n  return(0x00, dataSize(sub_0))\nstop\n\nsub_0: assembly {\n        /* \"EnglishAuction.sol\":190:2316  contract EnglishAution {... */\n      mstore(0x40, 0x80)\n      jumpi(tag_1, lt(calldatasize, 0x04))\n      shr(0xe0, calldataload(0x00))\n      dup1\n      0x62ea82db\n      gt\n      tag_15\n      jumpi\n      dup1\n      0xbe9a6555\n      gt\n      tag_16\n      jumpi\n      dup1\n      0xbe9a6555\n      eq\n      tag_11\n      jumpi\n      dup1\n      0xc6bc5182\n      eq\n      tag_12\n      jumpi\n      dup1\n      0xd57bde79\n      eq\n      tag_13\n      jumpi\n      dup1\n      0xefbe1c1c\n      eq\n      tag_14\n      jumpi\n      jump(tag_1)\n    tag_16:\n      dup1\n      0x62ea82db\n      eq\n      tag_8\n      jumpi\n      dup1\n      0x7cc3ae8c\n      eq\n      tag_9\n      jumpi\n      dup1\n      0x91f90157\n      eq\n      tag_10\n      jumpi\n      jump(tag_1)\n    tag_15:\n      dup1\n      0x08551a53\n      eq\n      tag_2\n      jumpi\n      dup1\n      0x12fa6feb\n      eq\n      tag_3\n      jumpi\n      dup1\n      0x1998aeef\n      eq\n      tag_4\n      jumpi\n      dup1\n      0x1f2698ab\n      eq\n      tag_5\n      jumpi\n      dup1\n      0x3ccfd60b\n      eq\n      tag_6\n      jumpi\n      dup1\n      0x47ccca02\n      eq\n      tag_7\n      jumpi\n    tag_1:\n      revert(0x00, 0x00)\n        /* \"EnglishAuction.sol\":479:518  address payable public immutable seller */\n    tag_2:\n      callvalue\n      dup1\n      iszero\n      tag_17\n      jumpi\n      revert(0x00, 0x00)\n    tag_17:\n      pop\n      tag_18\n      tag_19\n      jump\t// in\n    tag_18:\n      mload(0x40)\n      tag_20\n      swap2\n      swap1\n      tag_21\n      jump\t// in\n    tag_20:\n      mload(0x40)\n      dup1\n      swap2\n      sub\n      swap1\n      return\n        /* \"EnglishAuction.sol\":574:591  bool public ended */\n    tag_3:\n      callvalue\n      dup1\n      iszero\n      tag_22\n      jumpi\n      revert(0x00, 0x00)\n    tag_22:\n      pop\n      tag_23\n      tag_24\n      jump\t// in\n    tag_23:\n      mload(0x40)\n      tag_25\n      swap2\n      swap1\n      tag_26\n      jump\t// in\n    tag_25:\n      mload(0x40)\n      dup1\n      swap2\n      sub\n      swap1\n      return\n        /* \"EnglishAuction.sol\":1241:1647  function bid() external payable {... */\n    tag_4:\n      tag_27\n      tag_28\n      jump\t// in\n    tag_27:\n      stop\n        /* \"EnglishAuction.sol\":549:568  bool public started */\n    tag_5:\n      callvalue\n      dup1\n      iszero\n      tag_29\n      jumpi\n      revert(0x00, 0x00)\n    tag_29:\n      pop\n      tag_30\n      tag_31\n      jump\t// in\n    tag_30:\n      mload(0x40)\n      tag_32\n      swap2\n      swap1\n      tag_26\n      jump\t// in\n    tag_32:\n      mload(0x40)\n      dup1\n      swap2\n      sub\n      swap1\n      return\n        /* \"EnglishAuction.sol\":1653:1842  function withdraw() external {... */\n    tag_6:\n      callvalue\n      dup1\n      iszero\n      tag_33\n      jumpi\n      revert(0x00, 0x00)\n    tag_33:\n      pop\n      tag_34\n      tag_35\n      jump\t// in\n    tag_34:\n      stop\n        /* \"EnglishAuction.sol\":408:436  IERC721 public immutable nft */\n    tag_7:\n      callvalue\n      dup1\n      iszero\n      tag_36\n      jumpi\n      revert(0x00, 0x00)\n    tag_36:\n      pop\n      tag_37\n      tag_38\n      jump\t// in\n    tag_37:\n      mload(0x40)\n      tag_39\n      swap2\n      swap1\n      tag_40\n      jump\t// in\n    tag_39:\n      mload(0x40)\n      dup1\n      swap2\n      sub\n      swap1\n      return\n        /* \"EnglishAuction.sol\":663:702  mapping(address => uint256) public bids */\n    tag_8:\n      callvalue\n      dup1\n      iszero\n      tag_41\n      jumpi\n      revert(0x00, 0x00)\n    tag_41:\n      pop\n      tag_42\n      0x04\n      dup1\n      calldatasize\n      sub\n      dup2\n      add\n      swap1\n      tag_43\n      swap2\n      swap1\n      tag_44\n      jump\t// in\n    tag_43:\n      tag_45\n      jump\t// in\n    tag_42:\n      mload(0x40)\n      tag_46\n      swap2\n      swap1\n      tag_47\n      jump\t// in\n    tag_46:\n      mload(0x40)\n      dup1\n      swap2\n      sub\n      swap1\n      return\n        /* \"EnglishAuction.sol\":524:543  uint32 public endAt */\n    tag_9:\n      callvalue\n      dup1\n      iszero\n      tag_48\n      jumpi\n      revert(0x00, 0x00)\n    tag_48:\n      pop\n      tag_49\n      tag_50\n      jump\t// in\n    tag_49:\n      mload(0x40)\n      tag_51\n      swap2\n      swap1\n      tag_52\n      jump\t// in\n    tag_51:\n      mload(0x40)\n      dup1\n      swap2\n      sub\n      swap1\n      return\n        /* \"EnglishAuction.sol\":598:626  address public highestBidder */\n    tag_10:\n      callvalue\n      dup1\n      iszero\n      tag_53\n      jumpi\n      revert(0x00, 0x00)\n    tag_53:\n      pop\n      tag_54\n      tag_55\n      jump\t// in\n    tag_54:\n      mload(0x40)\n      tag_56\n      swap2\n      swap1\n      tag_57\n      jump\t// in\n    tag_56:\n      mload(0x40)\n      dup1\n      swap2\n      sub\n      swap1\n      return\n        /* \"EnglishAuction.sol\":943:1235  function start() external {... */\n    tag_11:\n      callvalue\n      dup1\n      iszero\n      tag_58\n      jumpi\n      revert(0x00, 0x00)\n    tag_58:\n      pop\n      tag_59\n      tag_60\n      jump\t// in\n    tag_59:\n      stop\n        /* \"EnglishAuction.sol\":442:472  uint256 public immutable nftId */\n    tag_12:\n      callvalue\n      dup1\n      iszero\n      tag_61\n      jumpi\n      revert(0x00, 0x00)\n    tag_61:\n      pop\n      tag_62\n      tag_63\n      jump\t// in\n    tag_62:\n      mload(0x40)\n      tag_64\n      swap2\n      swap1\n      tag_47\n      jump\t// in\n    tag_64:\n      mload(0x40)\n      dup1\n      swap2\n      sub\n      swap1\n      return\n        /* \"EnglishAuction.sol\":632:657  uint256 public highestBid */\n    tag_13:\n      callvalue\n      dup1\n      iszero\n      tag_65\n      jumpi\n      revert(0x00, 0x00)\n    tag_65:\n      pop\n      tag_66\n      tag_67\n      jump\t// in\n    tag_66:\n      mload(0x40)\n      tag_68\n      swap2\n      swap1\n      tag_47\n      jump\t// in\n    tag_68:\n      mload(0x40)\n      dup1\n      swap2\n      sub\n      swap1\n      return\n        /* \"EnglishAuction.sol\":1848:2314  function end() external {... */\n    tag_14:\n      callvalue\n      dup1\n      iszero\n      tag_69\n      jumpi\n      revert(0x00, 0x00)\n    tag_69:\n      pop\n      tag_70\n      tag_71\n      jump\t// in\n    tag_70:\n      stop\n        /* \"EnglishAuction.sol\":479:518  address payable public immutable seller */\n    tag_19:\n      immutable(\"0xd67d834462ca31eaef1f30157e31659f60355143b7441e6fc7d9eae1fa79f3f8\")\n      dup2\n      jump\t// out\n        /* \"EnglishAuction.sol\":574:591  bool public ended */\n    tag_24:\n      0x00\n      0x05\n      swap1\n      sload\n      swap1\n      0x0100\n      exp\n      swap1\n      div\n      0xff\n      and\n      dup2\n      jump\t// out\n        /* \"EnglishAuction.sol\":1241:1647  function bid() external payable {... */\n    tag_28:\n        /* \"EnglishAuction.sol\":1291:1298  started */\n      0x00\n      0x04\n      swap1\n      sload\n      swap1\n      0x0100\n      exp\n      swap1\n      div\n      0xff\n      and\n        /* \"EnglishAuction.sol\":1283:1314  require(started, \"not started\") */\n      tag_73\n      jumpi\n      mload(0x40)\n      0x08c379a000000000000000000000000000000000000000000000000000000000\n      dup2\n      mstore\n      0x04\n      add\n      tag_74\n      swap1\n      tag_75\n      jump\t// in\n    tag_74:\n      mload(0x40)\n      dup1\n      swap2\n      sub\n      swap1\n      revert\n    tag_73:\n        /* \"EnglishAuction.sol\":1340:1355  block.timestamp */\n      timestamp\n        /* \"EnglishAuction.sol\":1332:1337  endAt */\n      0x00\n      0x00\n      swap1\n      sload\n      swap1\n      0x0100\n      exp\n      swap1\n      div\n      0xffffffff\n      and\n        /* \"EnglishAuction.sol\":1332:1355  endAt > block.timestamp */\n      0xffffffff\n      and\n      gt\n        /* \"EnglishAuction.sol\":1324:1365  require(endAt > block.timestamp, \"ended\") */\n      tag_76\n      jumpi\n      mload(0x40)\n      0x08c379a000000000000000000000000000000000000000000000000000000000\n      dup2\n      mstore\n      0x04\n      add\n      tag_77\n      swap1\n      tag_78\n      jump\t// in\n    tag_77:\n      mload(0x40)\n      dup1\n      swap2\n      sub\n      swap1\n      revert\n    tag_76:\n        /* \"EnglishAuction.sol\":1395:1405  highestBid */\n      sload(0x01)\n        /* \"EnglishAuction.sol\":1383:1392  msg.value */\n      callvalue\n        /* \"EnglishAuction.sol\":1383:1405  msg.value > highestBid */\n      gt\n        /* \"EnglishAuction.sol\":1375:1429  require(msg.value > highestBid, \"value < highest Bid\") */\n      tag_79\n      jumpi\n      mload(0x40)\n      0x08c379a000000000000000000000000000000000000000000000000000000000\n      dup2\n      mstore\n      0x04\n      add\n      tag_80\n      swap1\n      tag_81\n      jump\t// in\n    tag_80:\n      mload(0x40)\n      dup1\n      swap2\n      sub\n      swap1\n      revert\n    tag_79:\n        /* \"EnglishAuction.sol\":1469:1470  0 */\n      0x00\n        /* \"EnglishAuction.sol\":1444:1471  highestBidder != address(0) */\n      0xffffffffffffffffffffffffffffffffffffffff\n      and\n        /* \"EnglishAuction.sol\":1444:1457  highestBidder */\n      0x00\n      0x06\n      swap1\n      sload\n      swap1\n      0x0100\n      exp\n      swap1\n      div\n      0xffffffffffffffffffffffffffffffffffffffff\n      and\n        /* \"EnglishAuction.sol\":1444:1471  highestBidder != address(0) */\n      0xffffffffffffffffffffffffffffffffffffffff\n      and\n      eq\n        /* \"EnglishAuction.sol\":1440:1531  if (highestBidder != address(0)) {... */\n      tag_82\n      jumpi\n        /* \"EnglishAuction.sol\":1510:1520  highestBid */\n      sload(0x01)\n        /* \"EnglishAuction.sol\":1487:1491  bids */\n      0x02\n        /* \"EnglishAuction.sol\":1487:1506  bids[highestBidder] */\n      0x00\n        /* \"EnglishAuction.sol\":1492:1505  highestBidder */\n      0x00\n      0x06\n      swap1\n      sload\n      swap1\n      0x0100\n      exp\n      swap1\n      div\n      0xffffffffffffffffffffffffffffffffffffffff\n      and\n        /* \"EnglishAuction.sol\":1487:1506  bids[highestBidder] */\n      0xffffffffffffffffffffffffffffffffffffffff\n      and\n      0xffffffffffffffffffffffffffffffffffffffff\n      and\n      dup2\n      mstore\n      0x20\n      add\n      swap1\n      dup2\n      mstore\n      0x20\n      add\n      0x00\n      keccak256\n      0x00\n        /* \"EnglishAuction.sol\":1487:1520  bids[highestBidder] += highestBid */\n      dup3\n      dup3\n      sload\n      tag_83\n      swap2\n      swap1\n      tag_84\n      jump\t// in\n    tag_83:\n      swap3\n      pop\n      pop\n      dup2\n      swap1\n      sstore\n      pop\n        /* \"EnglishAuction.sol\":1440:1531  if (highestBidder != address(0)) {... */\n    tag_82:\n        /* \"EnglishAuction.sol\":1554:1563  msg.value */\n      callvalue\n        /* \"EnglishAuction.sol\":1541:1551  highestBid */\n      0x01\n        /* \"EnglishAuction.sol\":1541:1563  highestBid = msg.value */\n      dup2\n      swap1\n      sstore\n      pop\n        /* \"EnglishAuction.sol\":1589:1599  msg.sender */\n      caller\n        /* \"EnglishAuction.sol\":1573:1586  highestBidder */\n      0x00\n      0x06\n        /* \"EnglishAuction.sol\":1573:1599  highestBidder = msg.sender */\n      0x0100\n      exp\n      dup2\n      sload\n      dup2\n      0xffffffffffffffffffffffffffffffffffffffff\n      mul\n      not\n      and\n      swap1\n      dup4\n      0xffffffffffffffffffffffffffffffffffffffff\n      and\n      mul\n      or\n      swap1\n      sstore\n      pop\n        /* \"EnglishAuction.sol\":1618:1628  msg.sender */\n      caller\n        /* \"EnglishAuction.sol\":1614:1640  Bid(msg.sender, msg.value) */\n      0xffffffffffffffffffffffffffffffffffffffff\n      and\n      0xe684a55f31b79eca403df938249029212a5925ec6be8012e099b45bc1019e5d2\n        /* \"EnglishAuction.sol\":1630:1639  msg.value */\n      callvalue\n        /* \"EnglishAuction.sol\":1614:1640  Bid(msg.sender, msg.value) */\n      mload(0x40)\n      tag_85\n      swap2\n      swap1\n      tag_47\n      jump\t// in\n    tag_85:\n      mload(0x40)\n      dup1\n      swap2\n      sub\n      swap1\n      log2\n        /* \"EnglishAuction.sol\":1241:1647  function bid() external payable {... */\n      jump\t// out\n        /* \"EnglishAuction.sol\":549:568  bool public started */\n    tag_31:\n      0x00\n      0x04\n      swap1\n      sload\n      swap1\n      0x0100\n      exp\n      swap1\n      div\n      0xff\n      and\n      dup2\n      jump\t// out\n        /* \"EnglishAuction.sol\":1653:1842  function withdraw() external {... */\n    tag_35:\n        /* \"EnglishAuction.sol\":1692:1703  uint256 bal */\n      0x00\n        /* \"EnglishAuction.sol\":1706:1710  bids */\n      0x02\n        /* \"EnglishAuction.sol\":1706:1722  bids[msg.sender] */\n      0x00\n        /* \"EnglishAuction.sol\":1711:1721  msg.sender */\n      caller\n        /* \"EnglishAuction.sol\":1706:1722  bids[msg.sender] */\n      0xffffffffffffffffffffffffffffffffffffffff\n      and\n      0xffffffffffffffffffffffffffffffffffffffff\n      and\n      dup2\n      mstore\n      0x20\n      add\n      swap1\n      dup2\n      mstore\n      0x20\n      add\n      0x00\n      keccak256\n      sload\n        /* \"EnglishAuction.sol\":1692:1722  uint256 bal = bids[msg.sender] */\n      swap1\n      pop\n        /* \"EnglishAuction.sol\":1751:1752  0 */\n      0x00\n        /* \"EnglishAuction.sol\":1732:1736  bids */\n      0x02\n        /* \"EnglishAuction.sol\":1732:1748  bids[msg.sender] */\n      0x00\n        /* \"EnglishAuction.sol\":1737:1747  msg.sender */\n      caller\n        /* \"EnglishAuction.sol\":1732:1748  bids[msg.sender] */\n      0xffffffffffffffffffffffffffffffffffffffff\n      and\n      0xffffffffffffffffffffffffffffffffffffffff\n      and\n      dup2\n      mstore\n      0x20\n      add\n      swap1\n      dup2\n      mstore\n      0x20\n      add\n      0x00\n      keccak256\n        /* \"EnglishAuction.sol\":1732:1752  bids[msg.sender] = 0 */\n      dup2\n      swap1\n      sstore\n      pop\n        /* \"EnglishAuction.sol\":1770:1780  msg.sender */\n      caller\n        /* \"EnglishAuction.sol\":1762:1790  payable(msg.sender).transfer */\n      0xffffffffffffffffffffffffffffffffffffffff\n      and\n        /* \"EnglishAuction.sol\":1762:1795  payable(msg.sender).transfer(bal) */\n      0x08fc\n        /* \"EnglishAuction.sol\":1791:1794  bal */\n      dup3\n        /* \"EnglishAuction.sol\":1762:1795  payable(msg.sender).transfer(bal) */\n      swap1\n      dup2\n      iszero\n      mul\n      swap1\n      mload(0x40)\n      0x00\n      mload(0x40)\n      dup1\n      dup4\n      sub\n      dup2\n      dup6\n      dup9\n      dup9\n      call\n      swap4\n      pop\n      pop\n      pop\n      pop\n      iszero\n      dup1\n      iszero\n      tag_88\n      jumpi\n      returndatacopy(0x00, 0x00, returndatasize)\n      revert(0x00, returndatasize)\n    tag_88:\n      pop\n        /* \"EnglishAuction.sol\":1819:1829  msg.sender */\n      caller\n        /* \"EnglishAuction.sol\":1810:1835  Withdraw(msg.sender, bal) */\n      0xffffffffffffffffffffffffffffffffffffffff\n      and\n      0x884edad9ce6fa2440d8a54cc123490eb96d2768479d49ff9c7366125a9424364\n        /* \"EnglishAuction.sol\":1831:1834  bal */\n      dup3\n        /* \"EnglishAuction.sol\":1810:1835  Withdraw(msg.sender, bal) */\n      mload(0x40)\n      tag_89\n      swap2\n      swap1\n      tag_47\n      jump\t// in\n    tag_89:\n      mload(0x40)\n      dup1\n      swap2\n      sub\n      swap1\n      log2\n        /* \"EnglishAuction.sol\":1682:1842  {... */\n      pop\n        /* \"EnglishAuction.sol\":1653:1842  function withdraw() external {... */\n      jump\t// out\n        /* \"EnglishAuction.sol\":408:436  IERC721 public immutable nft */\n    tag_38:\n      immutable(\"0x77c32b454bb61eb9df9e3848d0ded3e59753acda90ae58befe564733aec82e4c\")\n      dup2\n      jump\t// out\n        /* \"EnglishAuction.sol\":663:702  mapping(address => uint256) public bids */\n    tag_45:\n      mstore(0x20, 0x02)\n      dup1\n      0x00\n      mstore\n      keccak256(0x00, 0x40)\n      0x00\n      swap2\n      pop\n      swap1\n      pop\n      sload\n      dup2\n      jump\t// out\n        /* \"EnglishAuction.sol\":524:543  uint32 public endAt */\n    tag_50:\n      0x00\n      0x00\n      swap1\n      sload\n      swap1\n      0x0100\n      exp\n      swap1\n      div\n      0xffffffff\n      and\n      dup2\n      jump\t// out\n        /* \"EnglishAuction.sol\":598:626  address public highestBidder */\n    tag_55:\n      0x00\n      0x06\n      swap1\n      sload\n      swap1\n      0x0100\n      exp\n      swap1\n      div\n      0xffffffffffffffffffffffffffffffffffffffff\n      and\n      dup2\n      jump\t// out\n        /* \"EnglishAuction.sol\":943:1235  function start() external {... */\n    tag_60:\n        /* \"EnglishAuction.sol\":1001:1007  seller */\n      immutable(\"0xd67d834462ca31eaef1f30157e31659f60355143b7441e6fc7d9eae1fa79f3f8\")\n        /* \"EnglishAuction.sol\":987:1007  msg.sender == seller */\n      0xffffffffffffffffffffffffffffffffffffffff\n      and\n        /* \"EnglishAuction.sol\":987:997  msg.sender */\n      caller\n        /* \"EnglishAuction.sol\":987:1007  msg.sender == seller */\n      0xffffffffffffffffffffffffffffffffffffffff\n      and\n      eq\n        /* \"EnglishAuction.sol\":979:1022  require(msg.sender == seller, \"not seller\") */\n      tag_91\n      jumpi\n      mload(0x40)\n      0x08c379a000000000000000000000000000000000000000000000000000000000\n      dup2\n      mstore\n      0x04\n      add\n      tag_92\n      swap1\n      tag_93\n      jump\t// in\n    tag_92:\n      mload(0x40)\n      dup1\n      swap2\n      sub\n      swap1\n      revert\n    tag_91:\n        /* \"EnglishAuction.sol\":1041:1048  started */\n      0x00\n      0x04\n      swap1\n      sload\n      swap1\n      0x0100\n      exp\n      swap1\n      div\n      0xff\n      and\n        /* \"EnglishAuction.sol\":1040:1048  !started */\n      iszero\n        /* \"EnglishAuction.sol\":1032:1060  require(!started, \"started\") */\n      tag_94\n      jumpi\n      mload(0x40)\n      0x08c379a000000000000000000000000000000000000000000000000000000000\n      dup2\n      mstore\n      0x04\n      add\n      tag_95\n      swap1\n      tag_96\n      jump\t// in\n    tag_95:\n      mload(0x40)\n      dup1\n      swap2\n      sub\n      swap1\n      revert\n    tag_94:\n        /* \"EnglishAuction.sol\":1081:1085  true */\n      0x01\n        /* \"EnglishAuction.sol\":1071:1078  started */\n      0x00\n      0x04\n        /* \"EnglishAuction.sol\":1071:1085  started = true */\n      0x0100\n      exp\n      dup2\n      sload\n      dup2\n      0xff\n      mul\n      not\n      and\n      swap1\n      dup4\n      iszero\n      iszero\n      mul\n      or\n      swap1\n      sstore\n      pop\n        /* \"EnglishAuction.sol\":1128:1130  60 */\n      0x3c\n        /* \"EnglishAuction.sol\":1110:1125  block.timestamp */\n      timestamp\n        /* \"EnglishAuction.sol\":1110:1130  block.timestamp + 60 */\n      tag_97\n      swap2\n      swap1\n      tag_84\n      jump\t// in\n    tag_97:\n        /* \"EnglishAuction.sol\":1095:1100  endAt */\n      0x00\n      0x00\n        /* \"EnglishAuction.sol\":1095:1131  endAt = uint32(block.timestamp + 60) */\n      0x0100\n      exp\n      dup2\n      sload\n      dup2\n      0xffffffff\n      mul\n      not\n      and\n      swap1\n      dup4\n      0xffffffff\n      and\n      mul\n      or\n      swap1\n      sstore\n      pop\n        /* \"EnglishAuction.sol\":1160:1163  nft */\n      immutable(\"0x77c32b454bb61eb9df9e3848d0ded3e59753acda90ae58befe564733aec82e4c\")\n        /* \"EnglishAuction.sol\":1160:1176  nft.transferFrom */\n      0xffffffffffffffffffffffffffffffffffffffff\n      and\n      0x23b872dd\n        /* \"EnglishAuction.sol\":1177:1183  seller */\n      immutable(\"0xd67d834462ca31eaef1f30157e31659f60355143b7441e6fc7d9eae1fa79f3f8\")\n        /* \"EnglishAuction.sol\":1193:1197  this */\n      address\n        /* \"EnglishAuction.sol\":1200:1205  nftId */\n      immutable(\"0x3b4066bd7b7960752225af105d3beafb5c47a26c5aae7e6798a437b7c0bb33e6\")\n        /* \"EnglishAuction.sol\":1160:1206  nft.transferFrom(seller, address(this), nftId) */\n      mload(0x40)\n      dup5\n      0xffffffff\n      and\n      0xe0\n      shl\n      dup2\n      mstore\n      0x04\n      add\n      tag_98\n      swap4\n      swap3\n      swap2\n      swap1\n      tag_99\n      jump\t// in\n    tag_98:\n      0x00\n      mload(0x40)\n      dup1\n      dup4\n      sub\n      dup2\n      0x00\n      dup8\n      dup1\n      extcodesize\n      iszero\n      dup1\n      iszero\n      tag_100\n      jumpi\n      revert(0x00, 0x00)\n    tag_100:\n      pop\n      gas\n      call\n      iszero\n      dup1\n      iszero\n      tag_102\n      jumpi\n      returndatacopy(0x00, 0x00, returndatasize)\n      revert(0x00, returndatasize)\n    tag_102:\n      pop\n      pop\n      pop\n      pop\n        /* \"EnglishAuction.sol\":1221:1228  Start() */\n      0x1b55ba3aa851a46be3b365aee5b5c140edd620d578922f3e8466d2cbd96f954b\n      mload(0x40)\n      mload(0x40)\n      dup1\n      swap2\n      sub\n      swap1\n      log1\n        /* \"EnglishAuction.sol\":943:1235  function start() external {... */\n      jump\t// out\n        /* \"EnglishAuction.sol\":442:472  uint256 public immutable nftId */\n    tag_63:\n      immutable(\"0x3b4066bd7b7960752225af105d3beafb5c47a26c5aae7e6798a437b7c0bb33e6\")\n      dup2\n      jump\t// out\n        /* \"EnglishAuction.sol\":632:657  uint256 public highestBid */\n    tag_67:\n      sload(0x01)\n      dup2\n      jump\t// out\n        /* \"EnglishAuction.sol\":1848:2314  function end() external {... */\n    tag_71:\n        /* \"EnglishAuction.sol\":1890:1897  started */\n      0x00\n      0x04\n      swap1\n      sload\n      swap1\n      0x0100\n      exp\n      swap1\n      div\n      0xff\n      and\n        /* \"EnglishAuction.sol\":1882:1913  require(started, \"not started\") */\n      tag_104\n      jumpi\n      mload(0x40)\n      0x08c379a000000000000000000000000000000000000000000000000000000000\n      dup2\n      mstore\n      0x04\n      add\n      tag_105\n      swap1\n      tag_75\n      jump\t// in\n    tag_105:\n      mload(0x40)\n      dup1\n      swap2\n      sub\n      swap1\n      revert\n    tag_104:\n        /* \"EnglishAuction.sol\":1932:1937  ended */\n      0x00\n      0x05\n      swap1\n      sload\n      swap1\n      0x0100\n      exp\n      swap1\n      div\n      0xff\n      and\n        /* \"EnglishAuction.sol\":1931:1937  !ended */\n      iszero\n        /* \"EnglishAuction.sol\":1923:1947  require(!ended, \"ended\") */\n      tag_106\n      jumpi\n      mload(0x40)\n      0x08c379a000000000000000000000000000000000000000000000000000000000\n      dup2\n      mstore\n      0x04\n      add\n      tag_107\n      swap1\n      tag_78\n      jump\t// in\n    tag_107:\n      mload(0x40)\n      dup1\n      swap2\n      sub\n      swap1\n      revert\n    tag_106:\n        /* \"EnglishAuction.sol\":1984:1989  endAt */\n      0x00\n      0x00\n      swap1\n      sload\n      swap1\n      0x0100\n      exp\n      swap1\n      div\n      0xffffffff\n      and\n        /* \"EnglishAuction.sol\":1965:1989  block.timestamp >= endAt */\n      0xffffffff\n      and\n        /* \"EnglishAuction.sol\":1965:1980  block.timestamp */\n      timestamp\n        /* \"EnglishAuction.sol\":1965:1989  block.timestamp >= endAt */\n      lt\n      iszero\n        /* \"EnglishAuction.sol\":1957:2003  require(block.timestamp >= endAt, \"not ended\") */\n      tag_108\n      jumpi\n      mload(0x40)\n      0x08c379a000000000000000000000000000000000000000000000000000000000\n      dup2\n      mstore\n      0x04\n      add\n      tag_109\n      swap1\n      tag_110\n      jump\t// in\n    tag_109:\n      mload(0x40)\n      dup1\n      swap2\n      sub\n      swap1\n      revert\n    tag_108:\n        /* \"EnglishAuction.sol\":2021:2025  true */\n      0x01\n        /* \"EnglishAuction.sol\":2013:2018  ended */\n      0x00\n      0x05\n        /* \"EnglishAuction.sol\":2013:2025  ended = true */\n      0x0100\n      exp\n      dup2\n      sload\n      dup2\n      0xff\n      mul\n      not\n      and\n      swap1\n      dup4\n      iszero\n      iszero\n      mul\n      or\n      swap1\n      sstore\n      pop\n        /* \"EnglishAuction.sol\":2064:2065  0 */\n      0x00\n        /* \"EnglishAuction.sol\":2039:2066  highestBidder != address(0) */\n      0xffffffffffffffffffffffffffffffffffffffff\n      and\n        /* \"EnglishAuction.sol\":2039:2052  highestBidder */\n      0x00\n      0x06\n      swap1\n      sload\n      swap1\n      0x0100\n      exp\n      swap1\n      div\n      0xffffffffffffffffffffffffffffffffffffffff\n      and\n        /* \"EnglishAuction.sol\":2039:2066  highestBidder != address(0) */\n      0xffffffffffffffffffffffffffffffffffffffff\n      and\n      eq\n        /* \"EnglishAuction.sol\":2035:2264  if (highestBidder != address(0)) {... */\n      tag_111\n      jumpi\n        /* \"EnglishAuction.sol\":2082:2085  nft */\n      immutable(\"0x77c32b454bb61eb9df9e3848d0ded3e59753acda90ae58befe564733aec82e4c\")\n        /* \"EnglishAuction.sol\":2082:2098  nft.transferFrom */\n      0xffffffffffffffffffffffffffffffffffffffff\n      and\n      0x23b872dd\n        /* \"EnglishAuction.sol\":2107:2111  this */\n      address\n        /* \"EnglishAuction.sol\":2114:2127  highestBidder */\n      0x00\n      0x06\n      swap1\n      sload\n      swap1\n      0x0100\n      exp\n      swap1\n      div\n      0xffffffffffffffffffffffffffffffffffffffff\n      and\n        /* \"EnglishAuction.sol\":2129:2134  nftId */\n      immutable(\"0x3b4066bd7b7960752225af105d3beafb5c47a26c5aae7e6798a437b7c0bb33e6\")\n        /* \"EnglishAuction.sol\":2082:2135  nft.transferFrom(address(this), highestBidder, nftId) */\n      mload(0x40)\n      dup5\n      0xffffffff\n      and\n      0xe0\n      shl\n      dup2\n      mstore\n      0x04\n      add\n      tag_112\n      swap4\n      swap3\n      swap2\n      swap1\n      tag_113\n      jump\t// in\n    tag_112:\n      0x00\n      mload(0x40)\n      dup1\n      dup4\n      sub\n      dup2\n      0x00\n      dup8\n      dup1\n      extcodesize\n      iszero\n      dup1\n      iszero\n      tag_114\n      jumpi\n      revert(0x00, 0x00)\n    tag_114:\n      pop\n      gas\n      call\n      iszero\n      dup1\n      iszero\n      tag_116\n      jumpi\n      returndatacopy(0x00, 0x00, returndatasize)\n      revert(0x00, returndatasize)\n    tag_116:\n      pop\n      pop\n      pop\n      pop\n        /* \"EnglishAuction.sol\":2149:2155  seller */\n      immutable(\"0xd67d834462ca31eaef1f30157e31659f60355143b7441e6fc7d9eae1fa79f3f8\")\n        /* \"EnglishAuction.sol\":2149:2164  seller.transfer */\n      0xffffffffffffffffffffffffffffffffffffffff\n      and\n        /* \"EnglishAuction.sol\":2149:2176  seller.transfer(highestBid) */\n      0x08fc\n        /* \"EnglishAuction.sol\":2165:2175  highestBid */\n      sload(0x01)\n        /* \"EnglishAuction.sol\":2149:2176  seller.transfer(highestBid) */\n      swap1\n      dup2\n      iszero\n      mul\n      swap1\n      mload(0x40)\n      0x00\n      mload(0x40)\n      dup1\n      dup4\n      sub\n      dup2\n      dup6\n      dup9\n      dup9\n      call\n      swap4\n      pop\n      pop\n      pop\n      pop\n      iszero\n      dup1\n      iszero\n      tag_118\n      jumpi\n      returndatacopy(0x00, 0x00, returndatasize)\n      revert(0x00, returndatasize)\n    tag_118:\n      pop\n        /* \"EnglishAuction.sol\":2035:2264  if (highestBidder != address(0)) {... */\n      jump(tag_119)\n    tag_111:\n        /* \"EnglishAuction.sol\":2207:2210  nft */\n      immutable(\"0x77c32b454bb61eb9df9e3848d0ded3e59753acda90ae58befe564733aec82e4c\")\n        /* \"EnglishAuction.sol\":2207:2223  nft.transferFrom */\n      0xffffffffffffffffffffffffffffffffffffffff\n      and\n      0x23b872dd\n        /* \"EnglishAuction.sol\":2232:2236  this */\n      address\n        /* \"EnglishAuction.sol\":2239:2245  seller */\n      immutable(\"0xd67d834462ca31eaef1f30157e31659f60355143b7441e6fc7d9eae1fa79f3f8\")\n        /* \"EnglishAuction.sol\":2247:2252  nftId */\n      immutable(\"0x3b4066bd7b7960752225af105d3beafb5c47a26c5aae7e6798a437b7c0bb33e6\")\n        /* \"EnglishAuction.sol\":2207:2253  nft.transferFrom(address(this), seller, nftId) */\n      mload(0x40)\n      dup5\n      0xffffffff\n      and\n      0xe0\n      shl\n      dup2\n      mstore\n      0x04\n      add\n      tag_120\n      swap4\n      swap3\n      swap2\n      swap1\n      tag_121\n      jump\t// in\n    tag_120:\n      0x00\n      mload(0x40)\n      dup1\n      dup4\n      sub\n      dup2\n      0x00\n      dup8\n      dup1\n      extcodesize\n      iszero\n      dup1\n      iszero\n      tag_122\n      jumpi\n      revert(0x00, 0x00)\n    tag_122:\n      pop\n      gas\n      call\n      iszero\n      dup1\n      iszero\n      tag_124\n      jumpi\n      returndatacopy(0x00, 0x00, returndatasize)\n      revert(0x00, returndatasize)\n    tag_124:\n      pop\n      pop\n      pop\n      pop\n        /* \"EnglishAuction.sol\":2035:2264  if (highestBidder != address(0)) {... */\n    tag_119:\n        /* \"EnglishAuction.sol\":2278:2307  End(highestBidder,highestBid) */\n      0x7d7570b046e5ead3a4f3fbc9fa2445113625a1e79823776146316bafed6b8cc5\n        /* \"EnglishAuction.sol\":2282:2295  highestBidder */\n      0x00\n      0x06\n      swap1\n      sload\n      swap1\n      0x0100\n      exp\n      swap1\n      div\n      0xffffffffffffffffffffffffffffffffffffffff\n      and\n        /* \"EnglishAuction.sol\":2296:2306  highestBid */\n      sload(0x01)\n        /* \"EnglishAuction.sol\":2278:2307  End(highestBidder,highestBid) */\n      mload(0x40)\n      tag_125\n      swap3\n      swap2\n      swap1\n      tag_126\n      jump\t// in\n    tag_125:\n      mload(0x40)\n      dup1\n      swap2\n      sub\n      swap1\n      log1\n        /* \"EnglishAuction.sol\":1848:2314  function end() external {... */\n      jump\t// out\n        /* \"#utility.yul\":7:133   */\n    tag_127:\n        /* \"#utility.yul\":44:51   */\n      0x00\n        /* \"#utility.yul\":84:126   */\n      0xffffffffffffffffffffffffffffffffffffffff\n        /* \"#utility.yul\":77:82   */\n      dup3\n        /* \"#utility.yul\":73:127   */\n      and\n        /* \"#utility.yul\":62:127   */\n      swap1\n      pop\n        /* \"#utility.yul\":7:133   */\n      swap2\n      swap1\n      pop\n      jump\t// out\n        /* \"#utility.yul\":139:243   */\n    tag_128:\n        /* \"#utility.yul\":184:191   */\n      0x00\n        /* \"#utility.yul\":213:237   */\n      tag_167\n        /* \"#utility.yul\":231:236   */\n      dup3\n        /* \"#utility.yul\":213:237   */\n      tag_127\n      jump\t// in\n    tag_167:\n        /* \"#utility.yul\":202:237   */\n      swap1\n      pop\n        /* \"#utility.yul\":139:243   */\n      swap2\n      swap1\n      pop\n      jump\t// out\n        /* \"#utility.yul\":249:391   */\n    tag_129:\n        /* \"#utility.yul\":352:384   */\n      tag_169\n        /* \"#utility.yul\":378:383   */\n      dup2\n        /* \"#utility.yul\":352:384   */\n      tag_128\n      jump\t// in\n    tag_169:\n        /* \"#utility.yul\":347:350   */\n      dup3\n        /* \"#utility.yul\":340:385   */\n      mstore\n        /* \"#utility.yul\":249:391   */\n      pop\n      pop\n      jump\t// out\n        /* \"#utility.yul\":397:651   */\n    tag_21:\n        /* \"#utility.yul\":506:510   */\n      0x00\n        /* \"#utility.yul\":544:546   */\n      0x20\n        /* \"#utility.yul\":533:542   */\n      dup3\n        /* \"#utility.yul\":529:547   */\n      add\n        /* \"#utility.yul\":521:547   */\n      swap1\n      pop\n        /* \"#utility.yul\":557:644   */\n      tag_171\n        /* \"#utility.yul\":641:642   */\n      0x00\n        /* \"#utility.yul\":630:639   */\n      dup4\n        /* \"#utility.yul\":626:643   */\n      add\n        /* \"#utility.yul\":617:623   */\n      dup5\n        /* \"#utility.yul\":557:644   */\n      tag_129\n      jump\t// in\n    tag_171:\n        /* \"#utility.yul\":397:651   */\n      swap3\n      swap2\n      pop\n      pop\n      jump\t// out\n        /* \"#utility.yul\":657:747   */\n    tag_130:\n        /* \"#utility.yul\":691:698   */\n      0x00\n        /* \"#utility.yul\":734:739   */\n      dup2\n        /* \"#utility.yul\":727:740   */\n      iszero\n        /* \"#utility.yul\":720:741   */\n      iszero\n        /* \"#utility.yul\":709:741   */\n      swap1\n      pop\n        /* \"#utility.yul\":657:747   */\n      swap2\n      swap1\n      pop\n      jump\t// out\n        /* \"#utility.yul\":753:862   */\n    tag_131:\n        /* \"#utility.yul\":834:855   */\n      tag_174\n        /* \"#utility.yul\":849:854   */\n      dup2\n        /* \"#utility.yul\":834:855   */\n      tag_130\n      jump\t// in\n    tag_174:\n        /* \"#utility.yul\":829:832   */\n      dup3\n        /* \"#utility.yul\":822:856   */\n      mstore\n        /* \"#utility.yul\":753:862   */\n      pop\n      pop\n      jump\t// out\n        /* \"#utility.yul\":868:1078   */\n    tag_26:\n        /* \"#utility.yul\":955:959   */\n      0x00\n        /* \"#utility.yul\":993:995   */\n      0x20\n        /* \"#utility.yul\":982:991   */\n      dup3\n        /* \"#utility.yul\":978:996   */\n      add\n        /* \"#utility.yul\":970:996   */\n      swap1\n      pop\n        /* \"#utility.yul\":1006:1071   */\n      tag_176\n        /* \"#utility.yul\":1068:1069   */\n      0x00\n        /* \"#utility.yul\":1057:1066   */\n      dup4\n        /* \"#utility.yul\":1053:1070   */\n      add\n        /* \"#utility.yul\":1044:1050   */\n      dup5\n        /* \"#utility.yul\":1006:1071   */\n      tag_131\n      jump\t// in\n    tag_176:\n        /* \"#utility.yul\":868:1078   */\n      swap3\n      swap2\n      pop\n      pop\n      jump\t// out\n        /* \"#utility.yul\":1084:1144   */\n    tag_132:\n        /* \"#utility.yul\":1112:1115   */\n      0x00\n        /* \"#utility.yul\":1133:1138   */\n      dup2\n        /* \"#utility.yul\":1126:1138   */\n      swap1\n      pop\n        /* \"#utility.yul\":1084:1144   */\n      swap2\n      swap1\n      pop\n      jump\t// out\n        /* \"#utility.yul\":1150:1292   */\n    tag_133:\n        /* \"#utility.yul\":1200:1209   */\n      0x00\n        /* \"#utility.yul\":1233:1286   */\n      tag_179\n        /* \"#utility.yul\":1251:1285   */\n      tag_180\n        /* \"#utility.yul\":1260:1284   */\n      tag_181\n        /* \"#utility.yul\":1278:1283   */\n      dup5\n        /* \"#utility.yul\":1260:1284   */\n      tag_127\n      jump\t// in\n    tag_181:\n        /* \"#utility.yul\":1251:1285   */\n      tag_132\n      jump\t// in\n    tag_180:\n        /* \"#utility.yul\":1233:1286   */\n      tag_127\n      jump\t// in\n    tag_179:\n        /* \"#utility.yul\":1220:1286   */\n      swap1\n      pop\n        /* \"#utility.yul\":1150:1292   */\n      swap2\n      swap1\n      pop\n      jump\t// out\n        /* \"#utility.yul\":1298:1424   */\n    tag_134:\n        /* \"#utility.yul\":1348:1357   */\n      0x00\n        /* \"#utility.yul\":1381:1418   */\n      tag_183\n        /* \"#utility.yul\":1412:1417   */\n      dup3\n        /* \"#utility.yul\":1381:1418   */\n      tag_133\n      jump\t// in\n    tag_183:\n        /* \"#utility.yul\":1368:1418   */\n      swap1\n      pop\n        /* \"#utility.yul\":1298:1424   */\n      swap2\n      swap1\n      pop\n      jump\t// out\n        /* \"#utility.yul\":1430:1570   */\n    tag_135:\n        /* \"#utility.yul\":1494:1503   */\n      0x00\n        /* \"#utility.yul\":1527:1564   */\n      tag_185\n        /* \"#utility.yul\":1558:1563   */\n      dup3\n        /* \"#utility.yul\":1527:1564   */\n      tag_134\n      jump\t// in\n    tag_185:\n        /* \"#utility.yul\":1514:1564   */\n      swap1\n      pop\n        /* \"#utility.yul\":1430:1570   */\n      swap2\n      swap1\n      pop\n      jump\t// out\n        /* \"#utility.yul\":1576:1735   */\n    tag_136:\n        /* \"#utility.yul\":1677:1728   */\n      tag_187\n        /* \"#utility.yul\":1722:1727   */\n      dup2\n        /* \"#utility.yul\":1677:1728   */\n      tag_135\n      jump\t// in\n    tag_187:\n        /* \"#utility.yul\":1672:1675   */\n      dup3\n        /* \"#utility.yul\":1665:1729   */\n      mstore\n        /* \"#utility.yul\":1576:1735   */\n      pop\n      pop\n      jump\t// out\n        /* \"#utility.yul\":1741:1991   */\n    tag_40:\n        /* \"#utility.yul\":1848:1852   */\n      0x00\n        /* \"#utility.yul\":1886:1888   */\n      0x20\n        /* \"#utility.yul\":1875:1884   */\n      dup3\n        /* \"#utility.yul\":1871:1889   */\n      add\n        /* \"#utility.yul\":1863:1889   */\n      swap1\n      pop\n        /* \"#utility.yul\":1899:1984   */\n      tag_189\n        /* \"#utility.yul\":1981:1982   */\n      0x00\n        /* \"#utility.yul\":1970:1979   */\n      dup4\n        /* \"#utility.yul\":1966:1983   */\n      add\n        /* \"#utility.yul\":1957:1963   */\n      dup5\n        /* \"#utility.yul\":1899:1984   */\n      tag_136\n      jump\t// in\n    tag_189:\n        /* \"#utility.yul\":1741:1991   */\n      swap3\n      swap2\n      pop\n      pop\n      jump\t// out\n        /* \"#utility.yul\":2078:2195   */\n    tag_138:\n        /* \"#utility.yul\":2187:2188   */\n      0x00\n        /* \"#utility.yul\":2184:2185   */\n      0x00\n        /* \"#utility.yul\":2177:2189   */\n      revert\n        /* \"#utility.yul\":2324:2420   */\n    tag_140:\n        /* \"#utility.yul\":2361:2368   */\n      0x00\n        /* \"#utility.yul\":2390:2414   */\n      tag_194\n        /* \"#utility.yul\":2408:2413   */\n      dup3\n        /* \"#utility.yul\":2390:2414   */\n      tag_127\n      jump\t// in\n    tag_194:\n        /* \"#utility.yul\":2379:2414   */\n      swap1\n      pop\n        /* \"#utility.yul\":2324:2420   */\n      swap2\n      swap1\n      pop\n      jump\t// out\n        /* \"#utility.yul\":2426:2548   */\n    tag_141:\n        /* \"#utility.yul\":2499:2523   */\n      tag_196\n        /* \"#utility.yul\":2517:2522   */\n      dup2\n        /* \"#utility.yul\":2499:2523   */\n      tag_140\n      jump\t// in\n    tag_196:\n        /* \"#utility.yul\":2492:2497   */\n      dup2\n        /* \"#utility.yul\":2489:2524   */\n      eq\n        /* \"#utility.yul\":2479:2542   */\n      tag_197\n      jumpi\n        /* \"#utility.yul\":2538:2539   */\n      0x00\n        /* \"#utility.yul\":2535:2536   */\n      0x00\n        /* \"#utility.yul\":2528:2540   */\n      revert\n        /* \"#utility.yul\":2479:2542   */\n    tag_197:\n        /* \"#utility.yul\":2426:2548   */\n      pop\n      jump\t// out\n        /* \"#utility.yul\":2554:2693   */\n    tag_142:\n        /* \"#utility.yul\":2600:2605   */\n      0x00\n        /* \"#utility.yul\":2638:2644   */\n      dup2\n        /* \"#utility.yul\":2625:2645   */\n      calldataload\n        /* \"#utility.yul\":2616:2645   */\n      swap1\n      pop\n        /* \"#utility.yul\":2654:2687   */\n      tag_199\n        /* \"#utility.yul\":2681:2686   */\n      dup2\n        /* \"#utility.yul\":2654:2687   */\n      tag_141\n      jump\t// in\n    tag_199:\n        /* \"#utility.yul\":2554:2693   */\n      swap3\n      swap2\n      pop\n      pop\n      jump\t// out\n        /* \"#utility.yul\":2699:3028   */\n    tag_44:\n        /* \"#utility.yul\":2758:2764   */\n      0x00\n        /* \"#utility.yul\":2807:2809   */\n      0x20\n        /* \"#utility.yul\":2795:2804   */\n      dup3\n        /* \"#utility.yul\":2786:2793   */\n      dup5\n        /* \"#utility.yul\":2782:2805   */\n      sub\n        /* \"#utility.yul\":2778:2810   */\n      slt\n        /* \"#utility.yul\":2775:2894   */\n      iszero\n      tag_201\n      jumpi\n        /* \"#utility.yul\":2813:2892   */\n      tag_202\n      tag_138\n      jump\t// in\n    tag_202:\n        /* \"#utility.yul\":2775:2894   */\n    tag_201:\n        /* \"#utility.yul\":2933:2934   */\n      0x00\n        /* \"#utility.yul\":2958:3011   */\n      tag_203\n        /* \"#utility.yul\":3003:3010   */\n      dup5\n        /* \"#utility.yul\":2994:3000   */\n      dup3\n        /* \"#utility.yul\":2983:2992   */\n      dup6\n        /* \"#utility.yul\":2979:3001   */\n      add\n        /* \"#utility.yul\":2958:3011   */\n      tag_142\n      jump\t// in\n    tag_203:\n        /* \"#utility.yul\":2948:3011   */\n      swap2\n      pop\n        /* \"#utility.yul\":2904:3021   */\n      pop\n        /* \"#utility.yul\":2699:3028   */\n      swap3\n      swap2\n      pop\n      pop\n      jump\t// out\n        /* \"#utility.yul\":3034:3111   */\n    tag_143:\n        /* \"#utility.yul\":3071:3078   */\n      0x00\n        /* \"#utility.yul\":3100:3105   */\n      dup2\n        /* \"#utility.yul\":3089:3105   */\n      swap1\n      pop\n        /* \"#utility.yul\":3034:3111   */\n      swap2\n      swap1\n      pop\n      jump\t// out\n        /* \"#utility.yul\":3117:3235   */\n    tag_144:\n        /* \"#utility.yul\":3204:3228   */\n      tag_206\n        /* \"#utility.yul\":3222:3227   */\n      dup2\n        /* \"#utility.yul\":3204:3228   */\n      tag_143\n      jump\t// in\n    tag_206:\n        /* \"#utility.yul\":3199:3202   */\n      dup3\n        /* \"#utility.yul\":3192:3229   */\n      mstore\n        /* \"#utility.yul\":3117:3235   */\n      pop\n      pop\n      jump\t// out\n        /* \"#utility.yul\":3241:3463   */\n    tag_47:\n        /* \"#utility.yul\":3334:3338   */\n      0x00\n        /* \"#utility.yul\":3372:3374   */\n      0x20\n        /* \"#utility.yul\":3361:3370   */\n      dup3\n        /* \"#utility.yul\":3357:3375   */\n      add\n        /* \"#utility.yul\":3349:3375   */\n      swap1\n      pop\n        /* \"#utility.yul\":3385:3456   */\n      tag_208\n        /* \"#utility.yul\":3453:3454   */\n      0x00\n        /* \"#utility.yul\":3442:3451   */\n      dup4\n        /* \"#utility.yul\":3438:3455   */\n      add\n        /* \"#utility.yul\":3429:3435   */\n      dup5\n        /* \"#utility.yul\":3385:3456   */\n      tag_144\n      jump\t// in\n    tag_208:\n        /* \"#utility.yul\":3241:3463   */\n      swap3\n      swap2\n      pop\n      pop\n      jump\t// out\n        /* \"#utility.yul\":3469:3562   */\n    tag_145:\n        /* \"#utility.yul\":3505:3512   */\n      0x00\n        /* \"#utility.yul\":3545:3555   */\n      0xffffffff\n        /* \"#utility.yul\":3538:3543   */\n      dup3\n        /* \"#utility.yul\":3534:3556   */\n      and\n        /* \"#utility.yul\":3523:3556   */\n      swap1\n      pop\n        /* \"#utility.yul\":3469:3562   */\n      swap2\n      swap1\n      pop\n      jump\t// out\n        /* \"#utility.yul\":3568:3683   */\n    tag_146:\n        /* \"#utility.yul\":3653:3676   */\n      tag_211\n        /* \"#utility.yul\":3670:3675   */\n      dup2\n        /* \"#utility.yul\":3653:3676   */\n      tag_145\n      jump\t// in\n    tag_211:\n        /* \"#utility.yul\":3648:3651   */\n      dup3\n        /* \"#utility.yul\":3641:3677   */\n      mstore\n        /* \"#utility.yul\":3568:3683   */\n      pop\n      pop\n      jump\t// out\n        /* \"#utility.yul\":3689:3907   */\n    tag_52:\n        /* \"#utility.yul\":3780:3784   */\n      0x00\n        /* \"#utility.yul\":3818:3820   */\n      0x20\n        /* \"#utility.yul\":3807:3816   */\n      dup3\n        /* \"#utility.yul\":3803:3821   */\n      add\n        /* \"#utility.yul\":3795:3821   */\n      swap1\n      pop\n        /* \"#utility.yul\":3831:3900   */\n      tag_213\n        /* \"#utility.yul\":3897:3898   */\n      0x00\n        /* \"#utility.yul\":3886:3895   */\n      dup4\n        /* \"#utility.yul\":3882:3899   */\n      add\n        /* \"#utility.yul\":3873:3879   */\n      dup5\n        /* \"#utility.yul\":3831:3900   */\n      tag_146\n      jump\t// in\n    tag_213:\n        /* \"#utility.yul\":3689:3907   */\n      swap3\n      swap2\n      pop\n      pop\n      jump\t// out\n        /* \"#utility.yul\":3913:4031   */\n    tag_147:\n        /* \"#utility.yul\":4000:4024   */\n      tag_215\n        /* \"#utility.yul\":4018:4023   */\n      dup2\n        /* \"#utility.yul\":4000:4024   */\n      tag_140\n      jump\t// in\n    tag_215:\n        /* \"#utility.yul\":3995:3998   */\n      dup3\n        /* \"#utility.yul\":3988:4025   */\n      mstore\n        /* \"#utility.yul\":3913:4031   */\n      pop\n      pop\n      jump\t// out\n        /* \"#utility.yul\":4037:4259   */\n    tag_57:\n        /* \"#utility.yul\":4130:4134   */\n      0x00\n        /* \"#utility.yul\":4168:4170   */\n      0x20\n        /* \"#utility.yul\":4157:4166   */\n      dup3\n        /* \"#utility.yul\":4153:4171   */\n      add\n        /* \"#utility.yul\":4145:4171   */\n      swap1\n      pop\n        /* \"#utility.yul\":4181:4252   */\n      tag_217\n        /* \"#utility.yul\":4249:4250   */\n      0x00\n        /* \"#utility.yul\":4238:4247   */\n      dup4\n        /* \"#utility.yul\":4234:4251   */\n      add\n        /* \"#utility.yul\":4225:4231   */\n      dup5\n        /* \"#utility.yul\":4181:4252   */\n      tag_147\n      jump\t// in\n    tag_217:\n        /* \"#utility.yul\":4037:4259   */\n      swap3\n      swap2\n      pop\n      pop\n      jump\t// out\n        /* \"#utility.yul\":4265:4434   */\n    tag_148:\n        /* \"#utility.yul\":4349:4360   */\n      0x00\n        /* \"#utility.yul\":4383:4389   */\n      dup3\n        /* \"#utility.yul\":4378:4381   */\n      dup3\n        /* \"#utility.yul\":4371:4390   */\n      mstore\n        /* \"#utility.yul\":4423:4427   */\n      0x20\n        /* \"#utility.yul\":4418:4421   */\n      dup3\n        /* \"#utility.yul\":4414:4428   */\n      add\n        /* \"#utility.yul\":4399:4428   */\n      swap1\n      pop\n        /* \"#utility.yul\":4265:4434   */\n      swap3\n      swap2\n      pop\n      pop\n      jump\t// out\n        /* \"#utility.yul\":4440:4601   */\n    tag_149:\n        /* \"#utility.yul\":4580:4593   */\n      0x6e6f742073746172746564000000000000000000000000000000000000000000\n        /* \"#utility.yul\":4576:4577   */\n      0x00\n        /* \"#utility.yul\":4568:4574   */\n      dup3\n        /* \"#utility.yul\":4564:4578   */\n      add\n        /* \"#utility.yul\":4557:4594   */\n      mstore\n        /* \"#utility.yul\":4440:4601   */\n      pop\n      jump\t// out\n        /* \"#utility.yul\":4607:4973   */\n    tag_150:\n        /* \"#utility.yul\":4749:4752   */\n      0x00\n        /* \"#utility.yul\":4770:4837   */\n      tag_221\n        /* \"#utility.yul\":4834:4836   */\n      0x0b\n        /* \"#utility.yul\":4829:4832   */\n      dup4\n        /* \"#utility.yul\":4770:4837   */\n      tag_148\n      jump\t// in\n    tag_221:\n        /* \"#utility.yul\":4763:4837   */\n      swap2\n      pop\n        /* \"#utility.yul\":4846:4939   */\n      tag_222\n        /* \"#utility.yul\":4935:4938   */\n      dup3\n        /* \"#utility.yul\":4846:4939   */\n      tag_149\n      jump\t// in\n    tag_222:\n        /* \"#utility.yul\":4964:4966   */\n      0x20\n        /* \"#utility.yul\":4959:4962   */\n      dup3\n        /* \"#utility.yul\":4955:4967   */\n      add\n        /* \"#utility.yul\":4948:4967   */\n      swap1\n      pop\n        /* \"#utility.yul\":4607:4973   */\n      swap2\n      swap1\n      pop\n      jump\t// out\n        /* \"#utility.yul\":4979:5398   */\n    tag_75:\n        /* \"#utility.yul\":5145:5149   */\n      0x00\n        /* \"#utility.yul\":5183:5185   */\n      0x20\n        /* \"#utility.yul\":5172:5181   */\n      dup3\n        /* \"#utility.yul\":5168:5186   */\n      add\n        /* \"#utility.yul\":5160:5186   */\n      swap1\n      pop\n        /* \"#utility.yul\":5232:5241   */\n      dup2\n        /* \"#utility.yul\":5226:5230   */\n      dup2\n        /* \"#utility.yul\":5222:5242   */\n      sub\n        /* \"#utility.yul\":5218:5219   */\n      0x00\n        /* \"#utility.yul\":5207:5216   */\n      dup4\n        /* \"#utility.yul\":5203:5220   */\n      add\n        /* \"#utility.yul\":5196:5243   */\n      mstore\n        /* \"#utility.yul\":5260:5391   */\n      tag_224\n        /* \"#utility.yul\":5386:5390   */\n      dup2\n        /* \"#utility.yul\":5260:5391   */\n      tag_150\n      jump\t// in\n    tag_224:\n        /* \"#utility.yul\":5252:5391   */\n      swap1\n      pop\n        /* \"#utility.yul\":4979:5398   */\n      swap2\n      swap1\n      pop\n      jump\t// out\n        /* \"#utility.yul\":5404:5559   */\n    tag_151:\n        /* \"#utility.yul\":5544:5551   */\n      0x656e646564000000000000000000000000000000000000000000000000000000\n        /* \"#utility.yul\":5540:5541   */\n      0x00\n        /* \"#utility.yul\":5532:5538   */\n      dup3\n        /* \"#utility.yul\":5528:5542   */\n      add\n        /* \"#utility.yul\":5521:5552   */\n      mstore\n        /* \"#utility.yul\":5404:5559   */\n      pop\n      jump\t// out\n        /* \"#utility.yul\":5565:5930   */\n    tag_152:\n        /* \"#utility.yul\":5707:5710   */\n      0x00\n        /* \"#utility.yul\":5728:5794   */\n      tag_227\n        /* \"#utility.yul\":5792:5793   */\n      0x05\n        /* \"#utility.yul\":5787:5790   */\n      dup4\n        /* \"#utility.yul\":5728:5794   */\n      tag_148\n      jump\t// in\n    tag_227:\n        /* \"#utility.yul\":5721:5794   */\n      swap2\n      pop\n        /* \"#utility.yul\":5803:5896   */\n      tag_228\n        /* \"#utility.yul\":5892:5895   */\n      dup3\n        /* \"#utility.yul\":5803:5896   */\n      tag_151\n      jump\t// in\n    tag_228:\n        /* \"#utility.yul\":5921:5923   */\n      0x20\n        /* \"#utility.yul\":5916:5919   */\n      dup3\n        /* \"#utility.yul\":5912:5924   */\n      add\n        /* \"#utility.yul\":5905:5924   */\n      swap1\n      pop\n        /* \"#utility.yul\":5565:5930   */\n      swap2\n      swap1\n      pop\n      jump\t// out\n        /* \"#utility.yul\":5936:6355   */\n    tag_78:\n        /* \"#utility.yul\":6102:6106   */\n      0x00\n        /* \"#utility.yul\":6140:6142   */\n      0x20\n        /* \"#utility.yul\":6129:6138   */\n      dup3\n        /* \"#utility.yul\":6125:6143   */\n      add\n        /* \"#utility.yul\":6117:6143   */\n      swap1\n      pop\n        /* \"#utility.yul\":6189:6198   */\n      dup2\n        /* \"#utility.yul\":6183:6187   */\n      dup2\n        /* \"#utility.yul\":6179:6199   */\n      sub\n        /* \"#utility.yul\":6175:6176   */\n      0x00\n        /* \"#utility.yul\":6164:6173   */\n      dup4\n        /* \"#utility.yul\":6160:6177   */\n      add\n        /* \"#utility.yul\":6153:6200   */\n      mstore\n        /* \"#utility.yul\":6217:6348   */\n      tag_230\n        /* \"#utility.yul\":6343:6347   */\n      dup2\n        /* \"#utility.yul\":6217:6348   */\n      tag_152\n      jump\t// in\n    tag_230:\n        /* \"#utility.yul\":6209:6348   */\n      swap1\n      pop\n        /* \"#utility.yul\":5936:6355   */\n      swap2\n      swap1\n      pop\n      jump\t// out\n        /* \"#utility.yul\":6361:6530   */\n    tag_153:\n        /* \"#utility.yul\":6501:6522   */\n      0x76616c7565203c20686967686573742042696400000000000000000000000000\n        /* \"#utility.yul\":6497:6498   */\n      0x00\n        /* \"#utility.yul\":6489:6495   */\n      dup3\n        /* \"#utility.yul\":6485:6499   */\n      add\n        /* \"#utility.yul\":6478:6523   */\n      mstore\n        /* \"#utility.yul\":6361:6530   */\n      pop\n      jump\t// out\n        /* \"#utility.yul\":6536:6902   */\n    tag_154:\n        /* \"#utility.yul\":6678:6681   */\n      0x00\n        /* \"#utility.yul\":6699:6766   */\n      tag_233\n        /* \"#utility.yul\":6763:6765   */\n      0x13\n        /* \"#utility.yul\":6758:6761   */\n      dup4\n        /* \"#utility.yul\":6699:6766   */\n      tag_148\n      jump\t// in\n    tag_233:\n        /* \"#utility.yul\":6692:6766   */\n      swap2\n      pop\n        /* \"#utility.yul\":6775:6868   */\n      tag_234\n        /* \"#utility.yul\":6864:6867   */\n      dup3\n        /* \"#utility.yul\":6775:6868   */\n      tag_153\n      jump\t// in\n    tag_234:\n        /* \"#utility.yul\":6893:6895   */\n      0x20\n        /* \"#utility.yul\":6888:6891   */\n      dup3\n        /* \"#utility.yul\":6884:6896   */\n      add\n        /* \"#utility.yul\":6877:6896   */\n      swap1\n      pop\n        /* \"#utility.yul\":6536:6902   */\n      swap2\n      swap1\n      pop\n      jump\t// out\n        /* \"#utility.yul\":6908:7327   */\n    tag_81:\n        /* \"#utility.yul\":7074:7078   */\n      0x00\n        /* \"#utility.yul\":7112:7114   */\n      0x20\n        /* \"#utility.yul\":7101:7110   */\n      dup3\n        /* \"#utility.yul\":7097:7115   */\n      add\n        /* \"#utility.yul\":7089:7115   */\n      swap1\n      pop\n        /* \"#utility.yul\":7161:7170   */\n      dup2\n        /* \"#utility.yul\":7155:7159   */\n      dup2\n        /* \"#utility.yul\":7151:7171   */\n      sub\n        /* \"#utility.yul\":7147:7148   */\n      0x00\n        /* \"#utility.yul\":7136:7145   */\n      dup4\n        /* \"#utility.yul\":7132:7149   */\n      add\n        /* \"#utility.yul\":7125:7172   */\n      mstore\n        /* \"#utility.yul\":7189:7320   */\n      tag_236\n        /* \"#utility.yul\":7315:7319   */\n      dup2\n        /* \"#utility.yul\":7189:7320   */\n      tag_154\n      jump\t// in\n    tag_236:\n        /* \"#utility.yul\":7181:7320   */\n      swap1\n      pop\n        /* \"#utility.yul\":6908:7327   */\n      swap2\n      swap1\n      pop\n      jump\t// out\n        /* \"#utility.yul\":7333:7513   */\n    tag_155:\n        /* \"#utility.yul\":7381:7458   */\n      0x4e487b7100000000000000000000000000000000000000000000000000000000\n        /* \"#utility.yul\":7378:7379   */\n      0x00\n        /* \"#utility.yul\":7371:7459   */\n      mstore\n        /* \"#utility.yul\":7478:7482   */\n      0x11\n        /* \"#utility.yul\":7475:7476   */\n      0x04\n        /* \"#utility.yul\":7468:7483   */\n      mstore\n        /* \"#utility.yul\":7502:7506   */\n      0x24\n        /* \"#utility.yul\":7499:7500   */\n      0x00\n        /* \"#utility.yul\":7492:7507   */\n      revert\n        /* \"#utility.yul\":7519:7710   */\n    tag_84:\n        /* \"#utility.yul\":7559:7562   */\n      0x00\n        /* \"#utility.yul\":7578:7598   */\n      tag_239\n        /* \"#utility.yul\":7596:7597   */\n      dup3\n        /* \"#utility.yul\":7578:7598   */\n      tag_143\n      jump\t// in\n    tag_239:\n        /* \"#utility.yul\":7573:7598   */\n      swap2\n      pop\n        /* \"#utility.yul\":7612:7632   */\n      tag_240\n        /* \"#utility.yul\":7630:7631   */\n      dup4\n        /* \"#utility.yul\":7612:7632   */\n      tag_143\n      jump\t// in\n    tag_240:\n        /* \"#utility.yul\":7607:7632   */\n      swap3\n      pop\n        /* \"#utility.yul\":7655:7656   */\n      dup3\n        /* \"#utility.yul\":7652:7653   */\n      dup3\n        /* \"#utility.yul\":7648:7657   */\n      add\n        /* \"#utility.yul\":7641:7657   */\n      swap1\n      pop\n        /* \"#utility.yul\":7676:7679   */\n      dup1\n        /* \"#utility.yul\":7673:7674   */\n      dup3\n        /* \"#utility.yul\":7670:7680   */\n      gt\n        /* \"#utility.yul\":7667:7703   */\n      iszero\n      tag_241\n      jumpi\n        /* \"#utility.yul\":7683:7701   */\n      tag_242\n      tag_155\n      jump\t// in\n    tag_242:\n        /* \"#utility.yul\":7667:7703   */\n    tag_241:\n        /* \"#utility.yul\":7519:7710   */\n      swap3\n      swap2\n      pop\n      pop\n      jump\t// out\n        /* \"#utility.yul\":7716:7876   */\n    tag_156:\n        /* \"#utility.yul\":7856:7868   */\n      0x6e6f742073656c6c657200000000000000000000000000000000000000000000\n        /* \"#utility.yul\":7852:7853   */\n      0x00\n        /* \"#utility.yul\":7844:7850   */\n      dup3\n        /* \"#utility.yul\":7840:7854   */\n      add\n        /* \"#utility.yul\":7833:7869   */\n      mstore\n        /* \"#utility.yul\":7716:7876   */\n      pop\n      jump\t// out\n        /* \"#utility.yul\":7882:8248   */\n    tag_157:\n        /* \"#utility.yul\":8024:8027   */\n      0x00\n        /* \"#utility.yul\":8045:8112   */\n      tag_245\n        /* \"#utility.yul\":8109:8111   */\n      0x0a\n        /* \"#utility.yul\":8104:8107   */\n      dup4\n        /* \"#utility.yul\":8045:8112   */\n      tag_148\n      jump\t// in\n    tag_245:\n        /* \"#utility.yul\":8038:8112   */\n      swap2\n      pop\n        /* \"#utility.yul\":8121:8214   */\n      tag_246\n        /* \"#utility.yul\":8210:8213   */\n      dup3\n        /* \"#utility.yul\":8121:8214   */\n      tag_156\n      jump\t// in\n    tag_246:\n        /* \"#utility.yul\":8239:8241   */\n      0x20\n        /* \"#utility.yul\":8234:8237   */\n      dup3\n        /* \"#utility.yul\":8230:8242   */\n      add\n        /* \"#utility.yul\":8223:8242   */\n      swap1\n      pop\n        /* \"#utility.yul\":7882:8248   */\n      swap2\n      swap1\n      pop\n      jump\t// out\n        /* \"#utility.yul\":8254:8673   */\n    tag_93:\n        /* \"#utility.yul\":8420:8424   */\n      0x00\n        /* \"#utility.yul\":8458:8460   */\n      0x20\n        /* \"#utility.yul\":8447:8456   */\n      dup3\n        /* \"#utility.yul\":8443:8461   */\n      add\n        /* \"#utility.yul\":8435:8461   */\n      swap1\n      pop\n        /* \"#utility.yul\":8507:8516   */\n      dup2\n        /* \"#utility.yul\":8501:8505   */\n      dup2\n        /* \"#utility.yul\":8497:8517   */\n      sub\n        /* \"#utility.yul\":8493:8494   */\n      0x00\n        /* \"#utility.yul\":8482:8491   */\n      dup4\n        /* \"#utility.yul\":8478:8495   */\n      add\n        /* \"#utility.yul\":8471:8518   */\n      mstore\n        /* \"#utility.yul\":8535:8666   */\n      tag_248\n        /* \"#utility.yul\":8661:8665   */\n      dup2\n        /* \"#utility.yul\":8535:8666   */\n      tag_157\n      jump\t// in\n    tag_248:\n        /* \"#utility.yul\":8527:8666   */\n      swap1\n      pop\n        /* \"#utility.yul\":8254:8673   */\n      swap2\n      swap1\n      pop\n      jump\t// out\n        /* \"#utility.yul\":8679:8836   */\n    tag_158:\n        /* \"#utility.yul\":8819:8828   */\n      0x7374617274656400000000000000000000000000000000000000000000000000\n        /* \"#utility.yul\":8815:8816   */\n      0x00\n        /* \"#utility.yul\":8807:8813   */\n      dup3\n        /* \"#utility.yul\":8803:8817   */\n      add\n        /* \"#utility.yul\":8796:8829   */\n      mstore\n        /* \"#utility.yul\":8679:8836   */\n      pop\n      jump\t// out\n        /* \"#utility.yul\":8842:9207   */\n    tag_159:\n        /* \"#utility.yul\":8984:8987   */\n      0x00\n        /* \"#utility.yul\":9005:9071   */\n      tag_251\n        /* \"#utility.yul\":9069:9070   */\n      0x07\n        /* \"#utility.yul\":9064:9067   */\n      dup4\n        /* \"#utility.yul\":9005:9071   */\n      tag_148\n      jump\t// in\n    tag_251:\n        /* \"#utility.yul\":8998:9071   */\n      swap2\n      pop\n        /* \"#utility.yul\":9080:9173   */\n      tag_252\n        /* \"#utility.yul\":9169:9172   */\n      dup3\n        /* \"#utility.yul\":9080:9173   */\n      tag_158\n      jump\t// in\n    tag_252:\n        /* \"#utility.yul\":9198:9200   */\n      0x20\n        /* \"#utility.yul\":9193:9196   */\n      dup3\n        /* \"#utility.yul\":9189:9201   */\n      add\n        /* \"#utility.yul\":9182:9201   */\n      swap1\n      pop\n        /* \"#utility.yul\":8842:9207   */\n      swap2\n      swap1\n      pop\n      jump\t// out\n        /* \"#utility.yul\":9213:9632   */\n    tag_96:\n        /* \"#utility.yul\":9379:9383   */\n      0x00\n        /* \"#utility.yul\":9417:9419   */\n      0x20\n        /* \"#utility.yul\":9406:9415   */\n      dup3\n        /* \"#utility.yul\":9402:9420   */\n      add\n        /* \"#utility.yul\":9394:9420   */\n      swap1\n      pop\n        /* \"#utility.yul\":9466:9475   */\n      dup2\n        /* \"#utility.yul\":9460:9464   */\n      dup2\n        /* \"#utility.yul\":9456:9476   */\n      sub\n        /* \"#utility.yul\":9452:9453   */\n      0x00\n        /* \"#utility.yul\":9441:9450   */\n      dup4\n        /* \"#utility.yul\":9437:9454   */\n      add\n        /* \"#utility.yul\":9430:9477   */\n      mstore\n        /* \"#utility.yul\":9494:9625   */\n      tag_254\n        /* \"#utility.yul\":9620:9624   */\n      dup2\n        /* \"#utility.yul\":9494:9625   */\n      tag_159\n      jump\t// in\n    tag_254:\n        /* \"#utility.yul\":9486:9625   */\n      swap1\n      pop\n        /* \"#utility.yul\":9213:9632   */\n      swap2\n      swap1\n      pop\n      jump\t// out\n        /* \"#utility.yul\":9638:9772   */\n    tag_160:\n        /* \"#utility.yul\":9696:9705   */\n      0x00\n        /* \"#utility.yul\":9729:9766   */\n      tag_256\n        /* \"#utility.yul\":9760:9765   */\n      dup3\n        /* \"#utility.yul\":9729:9766   */\n      tag_134\n      jump\t// in\n    tag_256:\n        /* \"#utility.yul\":9716:9766   */\n      swap1\n      pop\n        /* \"#utility.yul\":9638:9772   */\n      swap2\n      swap1\n      pop\n      jump\t// out\n        /* \"#utility.yul\":9778:9925   */\n    tag_161:\n        /* \"#utility.yul\":9873:9918   */\n      tag_258\n        /* \"#utility.yul\":9912:9917   */\n      dup2\n        /* \"#utility.yul\":9873:9918   */\n      tag_160\n      jump\t// in\n    tag_258:\n        /* \"#utility.yul\":9868:9871   */\n      dup3\n        /* \"#utility.yul\":9861:9919   */\n      mstore\n        /* \"#utility.yul\":9778:9925   */\n      pop\n      pop\n      jump\t// out\n        /* \"#utility.yul\":9931:10389   */\n    tag_99:\n        /* \"#utility.yul\":10088:10092   */\n      0x00\n        /* \"#utility.yul\":10126:10128   */\n      0x60\n        /* \"#utility.yul\":10115:10124   */\n      dup3\n        /* \"#utility.yul\":10111:10129   */\n      add\n        /* \"#utility.yul\":10103:10129   */\n      swap1\n      pop\n        /* \"#utility.yul\":10139:10218   */\n      tag_260\n        /* \"#utility.yul\":10215:10216   */\n      0x00\n        /* \"#utility.yul\":10204:10213   */\n      dup4\n        /* \"#utility.yul\":10200:10217   */\n      add\n        /* \"#utility.yul\":10191:10197   */\n      dup7\n        /* \"#utility.yul\":10139:10218   */\n      tag_161\n      jump\t// in\n    tag_260:\n        /* \"#utility.yul\":10228:10300   */\n      tag_261\n        /* \"#utility.yul\":10296:10298   */\n      0x20\n        /* \"#utility.yul\":10285:10294   */\n      dup4\n        /* \"#utility.yul\":10281:10299   */\n      add\n        /* \"#utility.yul\":10272:10278   */\n      dup6\n        /* \"#utility.yul\":10228:10300   */\n      tag_147\n      jump\t// in\n    tag_261:\n        /* \"#utility.yul\":10310:10382   */\n      tag_262\n        /* \"#utility.yul\":10378:10380   */\n      0x40\n        /* \"#utility.yul\":10367:10376   */\n      dup4\n        /* \"#utility.yul\":10363:10381   */\n      add\n        /* \"#utility.yul\":10354:10360   */\n      dup5\n        /* \"#utility.yul\":10310:10382   */\n      tag_144\n      jump\t// in\n    tag_262:\n        /* \"#utility.yul\":9931:10389   */\n      swap5\n      swap4\n      pop\n      pop\n      pop\n      pop\n      jump\t// out\n        /* \"#utility.yul\":10395:10554   */\n    tag_162:\n        /* \"#utility.yul\":10535:10546   */\n      0x6e6f7420656e6465640000000000000000000000000000000000000000000000\n        /* \"#utility.yul\":10531:10532   */\n      0x00\n        /* \"#utility.yul\":10523:10529   */\n      dup3\n        /* \"#utility.yul\":10519:10533   */\n      add\n        /* \"#utility.yul\":10512:10547   */\n      mstore\n        /* \"#utility.yul\":10395:10554   */\n      pop\n      jump\t// out\n        /* \"#utility.yul\":10560:10925   */\n    tag_163:\n        /* \"#utility.yul\":10702:10705   */\n      0x00\n        /* \"#utility.yul\":10723:10789   */\n      tag_265\n        /* \"#utility.yul\":10787:10788   */\n      0x09\n        /* \"#utility.yul\":10782:10785   */\n      dup4\n        /* \"#utility.yul\":10723:10789   */\n      tag_148\n      jump\t// in\n    tag_265:\n        /* \"#utility.yul\":10716:10789   */\n      swap2\n      pop\n        /* \"#utility.yul\":10798:10891   */\n      tag_266\n        /* \"#utility.yul\":10887:10890   */\n      dup3\n        /* \"#utility.yul\":10798:10891   */\n      tag_162\n      jump\t// in\n    tag_266:\n        /* \"#utility.yul\":10916:10918   */\n      0x20\n        /* \"#utility.yul\":10911:10914   */\n      dup3\n        /* \"#utility.yul\":10907:10919   */\n      add\n        /* \"#utility.yul\":10900:10919   */\n      swap1\n      pop\n        /* \"#utility.yul\":10560:10925   */\n      swap2\n      swap1\n      pop\n      jump\t// out\n        /* \"#utility.yul\":10931:11350   */\n    tag_110:\n        /* \"#utility.yul\":11097:11101   */\n      0x00\n        /* \"#utility.yul\":11135:11137   */\n      0x20\n        /* \"#utility.yul\":11124:11133   */\n      dup3\n        /* \"#utility.yul\":11120:11138   */\n      add\n        /* \"#utility.yul\":11112:11138   */\n      swap1\n      pop\n        /* \"#utility.yul\":11184:11193   */\n      dup2\n        /* \"#utility.yul\":11178:11182   */\n      dup2\n        /* \"#utility.yul\":11174:11194   */\n      sub\n        /* \"#utility.yul\":11170:11171   */\n      0x00\n        /* \"#utility.yul\":11159:11168   */\n      dup4\n        /* \"#utility.yul\":11155:11172   */\n      add\n        /* \"#utility.yul\":11148:11195   */\n      mstore\n        /* \"#utility.yul\":11212:11343   */\n      tag_268\n        /* \"#utility.yul\":11338:11342   */\n      dup2\n        /* \"#utility.yul\":11212:11343   */\n      tag_163\n      jump\t// in\n    tag_268:\n        /* \"#utility.yul\":11204:11343   */\n      swap1\n      pop\n        /* \"#utility.yul\":10931:11350   */\n      swap2\n      swap1\n      pop\n      jump\t// out\n        /* \"#utility.yul\":11356:11798   */\n    tag_113:\n        /* \"#utility.yul\":11505:11509   */\n      0x00\n        /* \"#utility.yul\":11543:11545   */\n      0x60\n        /* \"#utility.yul\":11532:11541   */\n      dup3\n        /* \"#utility.yul\":11528:11546   */\n      add\n        /* \"#utility.yul\":11520:11546   */\n      swap1\n      pop\n        /* \"#utility.yul\":11556:11627   */\n      tag_270\n        /* \"#utility.yul\":11624:11625   */\n      0x00\n        /* \"#utility.yul\":11613:11622   */\n      dup4\n        /* \"#utility.yul\":11609:11626   */\n      add\n        /* \"#utility.yul\":11600:11606   */\n      dup7\n        /* \"#utility.yul\":11556:11627   */\n      tag_147\n      jump\t// in\n    tag_270:\n        /* \"#utility.yul\":11637:11709   */\n      tag_271\n        /* \"#utility.yul\":11705:11707   */\n      0x20\n        /* \"#utility.yul\":11694:11703   */\n      dup4\n        /* \"#utility.yul\":11690:11708   */\n      add\n        /* \"#utility.yul\":11681:11687   */\n      dup6\n        /* \"#utility.yul\":11637:11709   */\n      tag_147\n      jump\t// in\n    tag_271:\n        /* \"#utility.yul\":11719:11791   */\n      tag_272\n        /* \"#utility.yul\":11787:11789   */\n      0x40\n        /* \"#utility.yul\":11776:11785   */\n      dup4\n        /* \"#utility.yul\":11772:11790   */\n      add\n        /* \"#utility.yul\":11763:11769   */\n      dup5\n        /* \"#utility.yul\":11719:11791   */\n      tag_144\n      jump\t// in\n    tag_272:\n        /* \"#utility.yul\":11356:11798   */\n      swap5\n      swap4\n      pop\n      pop\n      pop\n      pop\n      jump\t// out\n        /* \"#utility.yul\":11804:12262   */\n    tag_121:\n        /* \"#utility.yul\":11961:11965   */\n      0x00\n        /* \"#utility.yul\":11999:12001   */\n      0x60\n        /* \"#utility.yul\":11988:11997   */\n      dup3\n        /* \"#utility.yul\":11984:12002   */\n      add\n        /* \"#utility.yul\":11976:12002   */\n      swap1\n      pop\n        /* \"#utility.yul\":12012:12083   */\n      tag_274\n        /* \"#utility.yul\":12080:12081   */\n      0x00\n        /* \"#utility.yul\":12069:12078   */\n      dup4\n        /* \"#utility.yul\":12065:12082   */\n      add\n        /* \"#utility.yul\":12056:12062   */\n      dup7\n        /* \"#utility.yul\":12012:12083   */\n      tag_147\n      jump\t// in\n    tag_274:\n        /* \"#utility.yul\":12093:12173   */\n      tag_275\n        /* \"#utility.yul\":12169:12171   */\n      0x20\n        /* \"#utility.yul\":12158:12167   */\n      dup4\n        /* \"#utility.yul\":12154:12172   */\n      add\n        /* \"#utility.yul\":12145:12151   */\n      dup6\n        /* \"#utility.yul\":12093:12173   */\n      tag_161\n      jump\t// in\n    tag_275:\n        /* \"#utility.yul\":12183:12255   */\n      tag_276\n        /* \"#utility.yul\":12251:12253   */\n      0x40\n        /* \"#utility.yul\":12240:12249   */\n      dup4\n        /* \"#utility.yul\":12236:12254   */\n      add\n        /* \"#utility.yul\":12227:12233   */\n      dup5\n        /* \"#utility.yul\":12183:12255   */\n      tag_144\n      jump\t// in\n    tag_276:\n        /* \"#utility.yul\":11804:12262   */\n      swap5\n      swap4\n      pop\n      pop\n      pop\n      pop\n      jump\t// out\n        /* \"#utility.yul\":12268:12600   */\n    tag_126:\n        /* \"#utility.yul\":12389:12393   */\n      0x00\n        /* \"#utility.yul\":12427:12429   */\n      0x40\n        /* \"#utility.yul\":12416:12425   */\n      dup3\n        /* \"#utility.yul\":12412:12430   */\n      add\n        /* \"#utility.yul\":12404:12430   */\n      swap1\n      pop\n        /* \"#utility.yul\":12440:12511   */\n      tag_278\n        /* \"#utility.yul\":12508:12509   */\n      0x00\n        /* \"#utility.yul\":12497:12506   */\n      dup4\n        /* \"#utility.yul\":12493:12510   */\n      add\n        /* \"#utility.yul\":12484:12490   */\n      dup6\n        /* \"#utility.yul\":12440:12511   */\n      tag_147\n      jump\t// in\n    tag_278:\n        /* \"#utility.yul\":12521:12593   */\n      tag_279\n        /* \"#utility.yul\":12589:12591   */\n      0x20\n        /* \"#utility.yul\":12578:12587   */\n      dup4\n        /* \"#utility.yul\":12574:12592   */\n      add\n        /* \"#utility.yul\":12565:12571   */\n      dup5\n        /* \"#utility.yul\":12521:12593   */\n      tag_144\n      jump\t// in\n    tag_279:\n        /* \"#utility.yul\":12268:12600   */\n      swap4\n      swap3\n      pop\n      pop\n      pop\n      jump\t// out\n\n    auxdata: 0xa26469706673582212203b911f09c6304511488f6198f8fe21e526990164fbe7a045b4305ae3efddb1a864736f6c634300081c0033\n}\n",
				"bytecode": {
					"linkReferences": {},
					"object": "60e060405234801561000f575f5ffd5b506040516114b83803806114b883398181016040528101906100319190610141565b8273ffffffffffffffffffffffffffffffffffffffff1660808173ffffffffffffffffffffffffffffffffffffffff16815250508160a081815250503373ffffffffffffffffffffffffffffffffffffffff1660c08173ffffffffffffffffffffffffffffffffffffffff168152505080600181905550505050610191565b5f5ffd5b5f73ffffffffffffffffffffffffffffffffffffffff82169050919050565b5f6100dd826100b4565b9050919050565b6100ed816100d3565b81146100f7575f5ffd5b50565b5f81519050610108816100e4565b92915050565b5f819050919050565b6101208161010e565b811461012a575f5ffd5b50565b5f8151905061013b81610117565b92915050565b5f5f5f60608486031215610158576101576100b0565b5b5f610165868287016100fa565b93505060206101768682870161012d565b92505060406101878682870161012d565b9150509250925092565b60805160a05160c0516112b76102015f395f818161029f015281816106bd0152818161081b01528181610b300152610bd801525f818161083d015281816108d701528181610ac40152610bf901525f818161064b015281816107df01528181610a650152610b9b01526112b75ff3fe6080604052600436106100c1575f3560e01c806362ea82db1161007e578063be9a655511610058578063be9a65551461021d578063c6bc518214610233578063d57bde791461025d578063efbe1c1c14610287576100c1565b806362ea82db1461018d5780637cc3ae8c146101c957806391f90157146101f3576100c1565b806308551a53146100c557806312fa6feb146100ef5780631998aeef146101195780631f2698ab146101235780633ccfd60b1461014d57806347ccca0214610163575b5f5ffd5b3480156100d0575f5ffd5b506100d961029d565b6040516100e69190610d01565b60405180910390f35b3480156100fa575f5ffd5b506101036102c1565b6040516101109190610d34565b60405180910390f35b6101216102d3565b005b34801561012e575f5ffd5b5061013761051f565b6040516101449190610d34565b60405180910390f35b348015610158575f5ffd5b50610161610531565b005b34801561016e575f5ffd5b50610177610649565b6040516101849190610da8565b60405180910390f35b348015610198575f5ffd5b506101b360048036038101906101ae9190610e00565b61066d565b6040516101c09190610e43565b60405180910390f35b3480156101d4575f5ffd5b506101dd610682565b6040516101ea9190610e7a565b60405180910390f35b3480156101fe575f5ffd5b50610207610696565b6040516102149190610ea2565b60405180910390f35b348015610228575f5ffd5b506102316106bb565b005b34801561023e575f5ffd5b506102476108d5565b6040516102549190610e43565b60405180910390f35b348015610268575f5ffd5b506102716108f9565b60405161027e9190610e43565b60405180910390f35b348015610292575f5ffd5b5061029b6108ff565b005b7f000000000000000000000000000000000000000000000000000000000000000081565b5f60059054906101000a900460ff1681565b5f60049054906101000a900460ff16610321576040517f08c379a000000000000000000000000000000000000000000000000000000000815260040161031890610f15565b60405180910390fd5b425f5f9054906101000a900463ffffffff1663ffffffff1611610379576040517f08c379a000000000000000000000000000000000000000000000000000000000815260040161037090610f7d565b60405180910390fd5b60015434116103bd576040517f08c379a00000000000000000000000000000000000000000000000000000000081526004016103b490610fe5565b60405180910390fd5b5f73ffffffffffffffffffffffffffffffffffffffff165f60069054906101000a900473ffffffffffffffffffffffffffffffffffffffff1673ffffffffffffffffffffffffffffffffffffffff16146104885760015460025f5f60069054906101000a900473ffffffffffffffffffffffffffffffffffffffff1673ffffffffffffffffffffffffffffffffffffffff1673ffffffffffffffffffffffffffffffffffffffff1681526020019081526020015f205f8282546104809190611030565b925050819055505b34600181905550335f60066101000a81548173ffffffffffffffffffffffffffffffffffffffff021916908373ffffffffffffffffffffffffffffffffffffffff1602179055503373ffffffffffffffffffffffffffffffffffffffff167fe684a55f31b79eca403df938249029212a5925ec6be8012e099b45bc1019e5d2346040516105159190610e43565b60405180910390a2565b5f60049054906101000a900460ff1681565b5f60025f3373ffffffffffffffffffffffffffffffffffffffff1673ffffffffffffffffffffffffffffffffffffffff1681526020019081526020015f205490505f60025f3373ffffffffffffffffffffffffffffffffffffffff1673ffffffffffffffffffffffffffffffffffffffff1681526020019081526020015f20819055503373ffffffffffffffffffffffffffffffffffffffff166108fc8290811502906040515f60405180830381858888f193505050501580156105f7573d5f5f3e3d5ffd5b503373ffffffffffffffffffffffffffffffffffffffff167f884edad9ce6fa2440d8a54cc123490eb96d2768479d49ff9c7366125a94243648260405161063e9190610e43565b60405180910390a250565b7f000000000000000000000000000000000000000000000000000000000000000081565b6002602052805f5260405f205f915090505481565b5f5f9054906101000a900463ffffffff1681565b5f60069054906101000a900473ffffffffffffffffffffffffffffffffffffffff1681565b7f000000000000000000000000000000000000000000000000000000000000000073ffffffffffffffffffffffffffffffffffffffff163373ffffffffffffffffffffffffffffffffffffffff1614610749576040517f08c379a0000000000000000000000000000000000000000000000000000000008152600401610740906110ad565b60405180910390fd5b5f60049054906101000a900460ff1615610798576040517f08c379a000000000000000000000000000000000000000000000000000000000815260040161078f90611115565b60405180910390fd5b60015f60046101000a81548160ff021916908315150217905550603c426107bf9190611030565b5f5f6101000a81548163ffffffff021916908363ffffffff1602179055507f000000000000000000000000000000000000000000000000000000000000000073ffffffffffffffffffffffffffffffffffffffff166323b872dd7f0000000000000000000000000000000000000000000000000000000000000000307f00000000000000000000000000000000000000000000000000000000000000006040518463ffffffff1660e01b815260040161087a93929190611153565b5f604051808303815f87803b158015610891575f5ffd5b505af11580156108a3573d5f5f3e3d5ffd5b505050507f1b55ba3aa851a46be3b365aee5b5c140edd620d578922f3e8466d2cbd96f954b60405160405180910390a1565b7f000000000000000000000000000000000000000000000000000000000000000081565b60015481565b5f60049054906101000a900460ff1661094d576040517f08c379a000000000000000000000000000000000000000000000000000000000815260040161094490610f15565b60405180910390fd5b5f60059054906101000a900460ff161561099c576040517f08c379a000000000000000000000000000000000000000000000000000000000815260040161099390610f7d565b60405180910390fd5b5f5f9054906101000a900463ffffffff1663ffffffff164210156109f5576040517f08c379a00000000000000000000000000000000000000000000000000000000081526004016109ec906111d2565b60405180910390fd5b60015f60056101000a81548160ff0219169083151502179055505f73ffffffffffffffffffffffffffffffffffffffff165f60069054906101000a900473ffffffffffffffffffffffffffffffffffffffff1673ffffffffffffffffffffffffffffffffffffffff1614610b99577f000000000000000000000000000000000000000000000000000000000000000073ffffffffffffffffffffffffffffffffffffffff166323b872dd305f60069054906101000a900473ffffffffffffffffffffffffffffffffffffffff167f00000000000000000000000000000000000000000000000000000000000000006040518463ffffffff1660e01b8152600401610b01939291906111f0565b5f604051808303815f87803b158015610b18575f5ffd5b505af1158015610b2a573d5f5f3e3d5ffd5b505050507f000000000000000000000000000000000000000000000000000000000000000073ffffffffffffffffffffffffffffffffffffffff166108fc60015490811502906040515f60405180830381858888f19350505050158015610b93573d5f5f3e3d5ffd5b50610c64565b7f000000000000000000000000000000000000000000000000000000000000000073ffffffffffffffffffffffffffffffffffffffff166323b872dd307f00000000000000000000000000000000000000000000000000000000000000007f00000000000000000000000000000000000000000000000000000000000000006040518463ffffffff1660e01b8152600401610c3693929190611225565b5f604051808303815f87803b158015610c4d575f5ffd5b505af1158015610c5f573d5f5f3e3d5ffd5b505050505b7f7d7570b046e5ead3a4f3fbc9fa2445113625a1e79823776146316bafed6b8cc55f60069054906101000a900473ffffffffffffffffffffffffffffffffffffffff16600154604051610cb892919061125a565b60405180910390a1565b5f73ffffffffffffffffffffffffffffffffffffffff82169050919050565b5f610ceb82610cc2565b9050919050565b610cfb81610ce1565b82525050565b5f602082019050610d145f830184610cf2565b92915050565b5f8115159050919050565b610d2e81610d1a565b82525050565b5f602082019050610d475f830184610d25565b92915050565b5f819050919050565b5f610d70610d6b610d6684610cc2565b610d4d565b610cc2565b9050919050565b5f610d8182610d56565b9050919050565b5f610d9282610d77565b9050919050565b610da281610d88565b82525050565b5f602082019050610dbb5f830184610d99565b92915050565b5f5ffd5b5f610dcf82610cc2565b9050919050565b610ddf81610dc5565b8114610de9575f5ffd5b50565b5f81359050610dfa81610dd6565b92915050565b5f60208284031215610e1557610e14610dc1565b5b5f610e2284828501610dec565b91505092915050565b5f819050919050565b610e3d81610e2b565b82525050565b5f602082019050610e565f830184610e34565b92915050565b5f63ffffffff82169050919050565b610e7481610e5c565b82525050565b5f602082019050610e8d5f830184610e6b565b92915050565b610e9c81610dc5565b82525050565b5f602082019050610eb55f830184610e93565b92915050565b5f82825260208201905092915050565b7f6e6f7420737461727465640000000000000000000000000000000000000000005f82015250565b5f610eff600b83610ebb565b9150610f0a82610ecb565b602082019050919050565b5f6020820190508181035f830152610f2c81610ef3565b9050919050565b7f656e6465640000000000000000000000000000000000000000000000000000005f82015250565b5f610f67600583610ebb565b9150610f7282610f33565b602082019050919050565b5f6020820190508181035f830152610f9481610f5b565b9050919050565b7f76616c7565203c206869676865737420426964000000000000000000000000005f82015250565b5f610fcf601383610ebb565b9150610fda82610f9b565b602082019050919050565b5f6020820190508181035f830152610ffc81610fc3565b9050919050565b7f4e487b71000000000000000000000000000000000000000000000000000000005f52601160045260245ffd5b5f61103a82610e2b565b915061104583610e2b565b925082820190508082111561105d5761105c611003565b5b92915050565b7f6e6f742073656c6c6572000000000000000000000000000000000000000000005f82015250565b5f611097600a83610ebb565b91506110a282611063565b602082019050919050565b5f6020820190508181035f8301526110c48161108b565b9050919050565b7f73746172746564000000000000000000000000000000000000000000000000005f82015250565b5f6110ff600783610ebb565b915061110a826110cb565b602082019050919050565b5f6020820190508181035f83015261112c816110f3565b9050919050565b5f61113d82610d77565b9050919050565b61114d81611133565b82525050565b5f6060820190506111665f830186611144565b6111736020830185610e93565b6111806040830184610e34565b949350505050565b7f6e6f7420656e64656400000000000000000000000000000000000000000000005f82015250565b5f6111bc600983610ebb565b91506111c782611188565b602082019050919050565b5f6020820190508181035f8301526111e9816111b0565b9050919050565b5f6060820190506112035f830186610e93565b6112106020830185610e93565b61121d6040830184610e34565b949350505050565b5f6060820190506112385f830186610e93565b6112456020830185611144565b6112526040830184610e34565b949350505050565b5f60408201905061126d5f830185610e93565b61127a6020830184610e34565b939250505056fea26469706673582212203b911f09c6304511488f6198f8fe21e526990164fbe7a045b4305ae3efddb1a864736f6c634300081c0033",
					"opcodes": "PUSH1 0xE0 PUSH1 0x40 MSTORE CALLVALUE DUP1 ISZERO PUSH2 0xF JUMPI PUSH0 PUSH0 REVERT JUMPDEST POP PUSH1 0x40 MLOAD PUSH2 0x14B8 CODESIZE SUB DUP1 PUSH2 0x14B8 DUP4 CODECOPY DUP2 DUP2 ADD PUSH1 0x40 MSTORE DUP2 ADD SWAP1 PUSH2 0x31 SWAP2 SWAP1 PUSH2 0x141 JUMP JUMPDEST DUP3 PUSH20 0xFFFFFFFFFFFFFFFFFFFFFFFFFFFFFFFFFFFFFFFF AND PUSH1 0x80 DUP2 PUSH20 0xFFFFFFFFFFFFFFFFFFFFFFFFFFFFFFFFFFFFFFFF AND DUP2 MSTORE POP POP DUP2 PUSH1 0xA0 DUP2 DUP2 MSTORE POP POP CALLER PUSH20 0xFFFFFFFFFFFFFFFFFFFFFFFFFFFFFFFFFFFFFFFF AND PUSH1 0xC0 DUP2 PUSH20 0xFFFFFFFFFFFFFFFFFFFFFFFFFFFFFFFFFFFFFFFF AND DUP2 MSTORE POP POP DUP1 PUSH1 0x1 DUP2 SWAP1 SSTORE POP POP POP POP PUSH2 0x191 JUMP JUMPDEST PUSH0 PUSH0 REVERT JUMPDEST PUSH0 PUSH20 0xFFFFFFFFFFFFFFFFFFFFFFFFFFFFFFFFFFFFFFFF DUP3 AND SWAP1 POP SWAP2 SWAP1 POP JUMP JUMPDEST PUSH0 PUSH2 0xDD DUP3 PUSH2 0xB4 JUMP JUMPDEST SWAP1 POP SWAP2 SWAP1 POP JUMP JUMPDEST PUSH2 0xED DUP2 PUSH2 0xD3 JUMP JUMPDEST DUP2 EQ PUSH2 0xF7 JUMPI PUSH0 PUSH0 REVERT JUMPDEST POP JUMP JUMPDEST PUSH0 DUP2 MLOAD SWAP1 POP PUSH2 0x108 DUP2 PUSH2 0xE4 JUMP JUMPDEST SWAP3 SWAP2 POP POP JUMP JUMPDEST PUSH0 DUP2 SWAP1 POP SWAP2 SWAP1 POP JUMP JUMPDEST PUSH2 0x120 DUP2 PUSH2 0x10E JUMP JUMPDEST DUP2 EQ PUSH2 0x12A JUMPI PUSH0 PUSH0 REVERT JUMPDEST POP JUMP JUMPDEST PUSH0 DUP2 MLOAD SWAP1 POP PUSH2 0x13B DUP2 PUSH2 0x117 JUMP JUMPDEST SWAP3 SWAP2 POP POP JUMP JUMPDEST PUSH0 PUSH0 PUSH0 PUSH1 0x60 DUP5 DUP7 SUB SLT ISZERO PUSH2 0x158 JUMPI PUSH2 0x157 PUSH2 0xB0 JUMP JUMPDEST JUMPDEST PUSH0 PUSH2 0x165 DUP7 DUP3 DUP8 ADD PUSH2 0xFA JUMP JUMPDEST SWAP4 POP POP PUSH1 0x20 PUSH2 0x176 DUP7 DUP3 DUP8 ADD PUSH2 0x12D JUMP JUMPDEST SWAP3 POP POP PUSH1 0x40 PUSH2 0x187 DUP7 DUP3 DUP8 ADD PUSH2 0x12D JUMP JUMPDEST SWAP2 POP POP SWAP3 POP SWAP3 POP SWAP3 JUMP JUMPDEST PUSH1 0x80 MLOAD PUSH1 0xA0 MLOAD PUSH1 0xC0 MLOAD PUSH2 0x12B7 PUSH2 0x201 PUSH0 CODECOPY PUSH0 DUP2 DUP2 PUSH2 0x29F ADD MSTORE DUP2 DUP2 PUSH2 0x6BD ADD MSTORE DUP2 DUP2 PUSH2 0x81B ADD MSTORE DUP2 DUP2 PUSH2 0xB30 ADD MSTORE PUSH2 0xBD8 ADD MSTORE PUSH0 DUP2 DUP2 PUSH2 0x83D ADD MSTORE DUP2 DUP2 PUSH2 0x8D7 ADD MSTORE DUP2 DUP2 PUSH2 0xAC4 ADD MSTORE PUSH2 0xBF9 ADD MSTORE PUSH0 DUP2 DUP2 PUSH2 0x64B ADD MSTORE DUP2 DUP2 PUSH2 0x7DF ADD MSTORE DUP2 DUP2 PUSH2 0xA65 ADD MSTORE PUSH2 0xB9B ADD MSTORE PUSH2 0x12B7 PUSH0 RETURN INVALID PUSH1 0x80 PUSH1 0x40 MSTORE PUSH1 0x4 CALLDATASIZE LT PUSH2 0xC1 JUMPI PUSH0 CALLDATALOAD PUSH1 0xE0 SHR DUP1 PUSH4 0x62EA82DB GT PUSH2 0x7E JUMPI DUP1 PUSH4 0xBE9A6555 GT PUSH2 0x58 JUMPI DUP1 PUSH4 0xBE9A6555 EQ PUSH2 0x21D JUMPI DUP1 PUSH4 0xC6BC5182 EQ PUSH2 0x233 JUMPI DUP1 PUSH4 0xD57BDE79 EQ PUSH2 0x25D JUMPI DUP1 PUSH4 0xEFBE1C1C EQ PUSH2 0x287 JUMPI PUSH2 0xC1 JUMP JUMPDEST DUP1 PUSH4 0x62EA82DB EQ PUSH2 0x18D JUMPI DUP1 PUSH4 0x7CC3AE8C EQ PUSH2 0x1C9 JUMPI DUP1 PUSH4 0x91F90157 EQ PUSH2 0x1F3 JUMPI PUSH2 0xC1 JUMP JUMPDEST DUP1 PUSH4 0x8551A53 EQ PUSH2 0xC5 JUMPI DUP1 PUSH4 0x12FA6FEB EQ PUSH2 0xEF JUMPI DUP1 PUSH4 0x1998AEEF EQ PUSH2 0x119 JUMPI DUP1 PUSH4 0x1F2698AB EQ PUSH2 0x123 JUMPI DUP1 PUSH4 0x3CCFD60B EQ PUSH2 0x14D JUMPI DUP1 PUSH4 0x47CCCA02 EQ PUSH2 0x163 JUMPI JUMPDEST PUSH0 PUSH0 REVERT JUMPDEST CALLVALUE DUP1 ISZERO PUSH2 0xD0 JUMPI PUSH0 PUSH0 REVERT JUMPDEST POP PUSH2 0xD9 PUSH2 0x29D JUMP JUMPDEST PUSH1 0x40 MLOAD PUSH2 0xE6 SWAP2 SWAP1 PUSH2 0xD01 JUMP JUMPDEST PUSH1 0x40 MLOAD DUP1 SWAP2 SUB SWAP1 RETURN JUMPDEST CALLVALUE DUP1 ISZERO PUSH2 0xFA JUMPI PUSH0 PUSH0 REVERT JUMPDEST POP PUSH2 0x103 PUSH2 0x2C1 JUMP JUMPDEST PUSH1 0x40 MLOAD PUSH2 0x110 SWAP2 SWAP1 PUSH2 0xD34 JUMP JUMPDEST PUSH1 0x40 MLOAD DUP1 SWAP2 SUB SWAP1 RETURN JUMPDEST PUSH2 0x121 PUSH2 0x2D3 JUMP JUMPDEST STOP JUMPDEST CALLVALUE DUP1 ISZERO PUSH2 0x12E JUMPI PUSH0 PUSH0 REVERT JUMPDEST POP PUSH2 0x137 PUSH2 0x51F JUMP JUMPDEST PUSH1 0x40 MLOAD PUSH2 0x144 SWAP2 SWAP1 PUSH2 0xD34 JUMP JUMPDEST PUSH1 0x40 MLOAD DUP1 SWAP2 SUB SWAP1 RETURN JUMPDEST CALLVALUE DUP1 ISZERO PUSH2 0x158 JUMPI PUSH0 PUSH0 REVERT JUMPDEST POP PUSH2 0x161 PUSH2 0x531 JUMP JUMPDEST STOP JUMPDEST CALLVALUE DUP1 ISZERO PUSH2 0x16E JUMPI PUSH0 PUSH0 REVERT JUMPDEST POP PUSH2 0x177 PUSH2 0x649 JUMP JUMPDEST PUSH1 0x40 MLOAD PUSH2 0x184 SWAP2 SWAP1 PUSH2 0xDA8 JUMP JUMPDEST PUSH1 0x40 MLOAD DUP1 SWAP2 SUB SWAP1 RETURN JUMPDEST CALLVALUE DUP1 ISZERO PUSH2 0x198 JUMPI PUSH0 PUSH0 REVERT JUMPDEST POP PUSH2 0x1B3 PUSH1 0x4 DUP1 CALLDATASIZE SUB DUP2 ADD SWAP1 PUSH2 0x1AE SWAP2 SWAP1 PUSH2 0xE00 JUMP JUMPDEST PUSH2 0x66D JUMP JUMPDEST PUSH1 0x40 MLOAD PUSH2 0x1C0 SWAP2 SWAP1 PUSH2 0xE43 JUMP JUMPDEST PUSH1 0x40 MLOAD DUP1 SWAP2 SUB SWAP1 RETURN JUMPDEST CALLVALUE DUP1 ISZERO PUSH2 0x1D4 JUMPI PUSH0 PUSH0 REVERT JUMPDEST POP PUSH2 0x1DD PUSH2 0x682 JUMP JUMPDEST PUSH1 0x40 MLOAD PUSH2 0x1EA SWAP2 SWAP1 PUSH2 0xE7A JUMP JUMPDEST PUSH1 0x40 MLOAD DUP1 SWAP2 SUB SWAP1 RETURN JUMPDEST CALLVALUE DUP1 ISZERO PUSH2 0x1FE JUMPI PUSH0 PUSH0 REVERT JUMPDEST POP PUSH2 0x207 PUSH2 0x696 JUMP JUMPDEST PUSH1 0x40 MLOAD PUSH2 0x214 SWAP2 SWAP1 PUSH2 0xEA2 JUMP JUMPDEST PUSH1 0x40 MLOAD DUP1 SWAP2 SUB SWAP1 RETURN JUMPDEST CALLVALUE DUP1 ISZERO PUSH2 0x228 JUMPI PUSH0 PUSH0 REVERT JUMPDEST POP PUSH2 0x231 PUSH2 0x6BB JUMP JUMPDEST STOP JUMPDEST CALLVALUE DUP1 ISZERO PUSH2 0x23E JUMPI PUSH0 PUSH0 REVERT JUMPDEST POP PUSH2 0x247 PUSH2 0x8D5 JUMP JUMPDEST PUSH1 0x40 MLOAD PUSH2 0x254 SWAP2 SWAP1 PUSH2 0xE43 JUMP JUMPDEST PUSH1 0x40 MLOAD DUP1 SWAP2 SUB SWAP1 RETURN JUMPDEST CALLVALUE DUP1 ISZERO PUSH2 0x268 JUMPI PUSH0 PUSH0 REVERT JUMPDEST POP PUSH2 0x271 PUSH2 0x8F9 JUMP JUMPDEST PUSH1 0x40 MLOAD PUSH2 0x27E SWAP2 SWAP1 PUSH2 0xE43 JUMP JUMPDEST PUSH1 0x40 MLOAD DUP1 SWAP2 SUB SWAP1 RETURN JUMPDEST CALLVALUE DUP1 ISZERO PUSH2 0x292 JUMPI PUSH0 PUSH0 REVERT JUMPDEST POP PUSH2 0x29B PUSH2 0x8FF JUMP JUMPDEST STOP JUMPDEST PUSH32 0x0 DUP2 JUMP JUMPDEST PUSH0 PUSH1 0x5 SWAP1 SLOAD SWAP1 PUSH2 0x100 EXP SWAP1 DIV PUSH1 0xFF AND DUP2 JUMP JUMPDEST PUSH0 PUSH1 0x4 SWAP1 SLOAD SWAP1 PUSH2 0x100 EXP SWAP1 DIV PUSH1 0xFF AND PUSH2 0x321 JUMPI PUSH1 0x40 MLOAD PUSH32 0x8C379A000000000000000000000000000000000000000000000000000000000 DUP2 MSTORE PUSH1 0x4 ADD PUSH2 0x318 SWAP1 PUSH2 0xF15 JUMP JUMPDEST PUSH1 0x40 MLOAD DUP1 SWAP2 SUB SWAP1 REVERT JUMPDEST TIMESTAMP PUSH0 PUSH0 SWAP1 SLOAD SWAP1 PUSH2 0x100 EXP SWAP1 DIV PUSH4 0xFFFFFFFF AND PUSH4 0xFFFFFFFF AND GT PUSH2 0x379 JUMPI PUSH1 0x40 MLOAD PUSH32 0x8C379A000000000000000000000000000000000000000000000000000000000 DUP2 MSTORE PUSH1 0x4 ADD PUSH2 0x370 SWAP1 PUSH2 0xF7D JUMP JUMPDEST PUSH1 0x40 MLOAD DUP1 SWAP2 SUB SWAP1 REVERT JUMPDEST PUSH1 0x1 SLOAD CALLVALUE GT PUSH2 0x3BD JUMPI PUSH1 0x40 MLOAD PUSH32 0x8C379A000000000000000000000000000000000000000000000000000000000 DUP2 MSTORE PUSH1 0x4 ADD PUSH2 0x3B4 SWAP1 PUSH2 0xFE5 JUMP JUMPDEST PUSH1 0x40 MLOAD DUP1 SWAP2 SUB SWAP1 REVERT JUMPDEST PUSH0 PUSH20 0xFFFFFFFFFFFFFFFFFFFFFFFFFFFFFFFFFFFFFFFF AND PUSH0 PUSH1 0x6 SWAP1 SLOAD SWAP1 PUSH2 0x100 EXP SWAP1 DIV PUSH20 0xFFFFFFFFFFFFFFFFFFFFFFFFFFFFFFFFFFFFFFFF AND PUSH20 0xFFFFFFFFFFFFFFFFFFFFFFFFFFFFFFFFFFFFFFFF AND EQ PUSH2 0x488 JUMPI PUSH1 0x1 SLOAD PUSH1 0x2 PUSH0 PUSH0 PUSH1 0x6 SWAP1 SLOAD SWAP1 PUSH2 0x100 EXP SWAP1 DIV PUSH20 0xFFFFFFFFFFFFFFFFFFFFFFFFFFFFFFFFFFFFFFFF AND PUSH20 0xFFFFFFFFFFFFFFFFFFFFFFFFFFFFFFFFFFFFFFFF AND PUSH20 0xFFFFFFFFFFFFFFFFFFFFFFFFFFFFFFFFFFFFFFFF AND DUP2 MSTORE PUSH1 0x20 ADD SWAP1 DUP2 MSTORE PUSH1 0x20 ADD PUSH0 KECCAK256 PUSH0 DUP3 DUP3 SLOAD PUSH2 0x480 SWAP2 SWAP1 PUSH2 0x1030 JUMP JUMPDEST SWAP3 POP POP DUP2 SWAP1 SSTORE POP JUMPDEST CALLVALUE PUSH1 0x1 DUP2 SWAP1 SSTORE POP CALLER PUSH0 PUSH1 0x6 PUSH2 0x100 EXP DUP2 SLOAD DUP2 PUSH20 0xFFFFFFFFFFFFFFFFFFFFFFFFFFFFFFFFFFFFFFFF MUL NOT AND SWAP1 DUP4 PUSH20 0xFFFFFFFFFFFFFFFFFFFFFFFFFFFFFFFFFFFFFFFF AND MUL OR SWAP1 SSTORE POP CALLER PUSH20 0xFFFFFFFFFFFFFFFFFFFFFFFFFFFFFFFFFFFFFFFF AND PUSH32 0xE684A55F31B79ECA403DF938249029212A5925EC6BE8012E099B45BC1019E5D2 CALLVALUE PUSH1 0x40 MLOAD PUSH2 0x515 SWAP2 SWAP1 PUSH2 0xE43 JUMP JUMPDEST PUSH1 0x40 MLOAD DUP1 SWAP2 SUB SWAP1 LOG2 JUMP JUMPDEST PUSH0 PUSH1 0x4 SWAP1 SLOAD SWAP1 PUSH2 0x100 EXP SWAP1 DIV PUSH1 0xFF AND DUP2 JUMP JUMPDEST PUSH0 PUSH1 0x2 PUSH0 CALLER PUSH20 0xFFFFFFFFFFFFFFFFFFFFFFFFFFFFFFFFFFFFFFFF AND PUSH20 0xFFFFFFFFFFFFFFFFFFFFFFFFFFFFFFFFFFFFFFFF AND DUP2 MSTORE PUSH1 0x20 ADD SWAP1 DUP2 MSTORE PUSH1 0x20 ADD PUSH0 KECCAK256 SLOAD SWAP1 POP PUSH0 PUSH1 0x2 PUSH0 CALLER PUSH20 0xFFFFFFFFFFFFFFFFFFFFFFFFFFFFFFFFFFFFFFFF AND PUSH20 0xFFFFFFFFFFFFFFFFFFFFFFFFFFFFFFFFFFFFFFFF AND DUP2 MSTORE PUSH1 0x20 ADD SWAP1 DUP2 MSTORE PUSH1 0x20 ADD PUSH0 KECCAK256 DUP2 SWAP1 SSTORE POP CALLER PUSH20 0xFFFFFFFFFFFFFFFFFFFFFFFFFFFFFFFFFFFFFFFF AND PUSH2 0x8FC DUP3 SWAP1 DUP2 ISZERO MUL SWAP1 PUSH1 0x40 MLOAD PUSH0 PUSH1 0x40 MLOAD DUP1 DUP4 SUB DUP2 DUP6 DUP9 DUP9 CALL SWAP4 POP POP POP POP ISZERO DUP1 ISZERO PUSH2 0x5F7 JUMPI RETURNDATASIZE PUSH0 PUSH0 RETURNDATACOPY RETURNDATASIZE PUSH0 REVERT JUMPDEST POP CALLER PUSH20 0xFFFFFFFFFFFFFFFFFFFFFFFFFFFFFFFFFFFFFFFF AND PUSH32 0x884EDAD9CE6FA2440D8A54CC123490EB96D2768479D49FF9C7366125A9424364 DUP3 PUSH1 0x40 MLOAD PUSH2 0x63E SWAP2 SWAP1 PUSH2 0xE43 JUMP JUMPDEST PUSH1 0x40 MLOAD DUP1 SWAP2 SUB SWAP1 LOG2 POP JUMP JUMPDEST PUSH32 0x0 DUP2 JUMP JUMPDEST PUSH1 0x2 PUSH1 0x20 MSTORE DUP1 PUSH0 MSTORE PUSH1 0x40 PUSH0 KECCAK256 PUSH0 SWAP2 POP SWAP1 POP SLOAD DUP2 JUMP JUMPDEST PUSH0 PUSH0 SWAP1 SLOAD SWAP1 PUSH2 0x100 EXP SWAP1 DIV PUSH4 0xFFFFFFFF AND DUP2 JUMP JUMPDEST PUSH0 PUSH1 0x6 SWAP1 SLOAD SWAP1 PUSH2 0x100 EXP SWAP1 DIV PUSH20 0xFFFFFFFFFFFFFFFFFFFFFFFFFFFFFFFFFFFFFFFF AND DUP2 JUMP JUMPDEST PUSH32 0x0 PUSH20 0xFFFFFFFFFFFFFFFFFFFFFFFFFFFFFFFFFFFFFFFF AND CALLER PUSH20 0xFFFFFFFFFFFFFFFFFFFFFFFFFFFFFFFFFFFFFFFF AND EQ PUSH2 0x749 JUMPI PUSH1 0x40 MLOAD PUSH32 0x8C379A000000000000000000000000000000000000000000000000000000000 DUP2 MSTORE PUSH1 0x4 ADD PUSH2 0x740 SWAP1 PUSH2 0x10AD JUMP JUMPDEST PUSH1 0x40 MLOAD DUP1 SWAP2 SUB SWAP1 REVERT JUMPDEST PUSH0 PUSH1 0x4 SWAP1 SLOAD SWAP1 PUSH2 0x100 EXP SWAP1 DIV PUSH1 0xFF AND ISZERO PUSH2 0x798 JUMPI PUSH1 0x40 MLOAD PUSH32 0x8C379A000000000000000000000000000000000000000000000000000000000 DUP2 MSTORE PUSH1 0x4 ADD PUSH2 0x78F SWAP1 PUSH2 0x1115 JUMP JUMPDEST PUSH1 0x40 MLOAD DUP1 SWAP2 SUB SWAP1 REVERT JUMPDEST PUSH1 0x1 PUSH0 PUSH1 0x4 PUSH2 0x100 EXP DUP2 SLOAD DUP2 PUSH1 0xFF MUL NOT AND SWAP1 DUP4 ISZERO ISZERO MUL OR SWAP1 SSTORE POP PUSH1 0x3C TIMESTAMP PUSH2 0x7BF SWAP2 SWAP1 PUSH2 0x1030 JUMP JUMPDEST PUSH0 PUSH0 PUSH2 0x100 EXP DUP2 SLOAD DUP2 PUSH4 0xFFFFFFFF MUL NOT AND SWAP1 DUP4 PUSH4 0xFFFFFFFF AND MUL OR SWAP1 SSTORE POP PUSH32 0x0 PUSH20 0xFFFFFFFFFFFFFFFFFFFFFFFFFFFFFFFFFFFFFFFF AND PUSH4 0x23B872DD PUSH32 0x0 ADDRESS PUSH32 0x0 PUSH1 0x40 MLOAD DUP5 PUSH4 0xFFFFFFFF AND PUSH1 0xE0 SHL DUP2 MSTORE PUSH1 0x4 ADD PUSH2 0x87A SWAP4 SWAP3 SWAP2 SWAP1 PUSH2 0x1153 JUMP JUMPDEST PUSH0 PUSH1 0x40 MLOAD DUP1 DUP4 SUB DUP2 PUSH0 DUP8 DUP1 EXTCODESIZE ISZERO DUP1 ISZERO PUSH2 0x891 JUMPI PUSH0 PUSH0 REVERT JUMPDEST POP GAS CALL ISZERO DUP1 ISZERO PUSH2 0x8A3 JUMPI RETURNDATASIZE PUSH0 PUSH0 RETURNDATACOPY RETURNDATASIZE PUSH0 REVERT JUMPDEST POP POP POP POP PUSH32 0x1B55BA3AA851A46BE3B365AEE5B5C140EDD620D578922F3E8466D2CBD96F954B PUSH1 0x40 MLOAD PUSH1 0x40 MLOAD DUP1 SWAP2 SUB SWAP1 LOG1 JUMP JUMPDEST PUSH32 0x0 DUP2 JUMP JUMPDEST PUSH1 0x1 SLOAD DUP2 JUMP JUMPDEST PUSH0 PUSH1 0x4 SWAP1 SLOAD SWAP1 PUSH2 0x100 EXP SWAP1 DIV PUSH1 0xFF AND PUSH2 0x94D JUMPI PUSH1 0x40 MLOAD PUSH32 0x8C379A000000000000000000000000000000000000000000000000000000000 DUP2 MSTORE PUSH1 0x4 ADD PUSH2 0x944 SWAP1 PUSH2 0xF15 JUMP JUMPDEST PUSH1 0x40 MLOAD DUP1 SWAP2 SUB SWAP1 REVERT JUMPDEST PUSH0 PUSH1 0x5 SWAP1 SLOAD SWAP1 PUSH2 0x100 EXP SWAP1 DIV PUSH1 0xFF AND ISZERO PUSH2 0x99C JUMPI PUSH1 0x40 MLOAD PUSH32 0x8C379A000000000000000000000000000000000000000000000000000000000 DUP2 MSTORE PUSH1 0x4 ADD PUSH2 0x993 SWAP1 PUSH2 0xF7D JUMP JUMPDEST PUSH1 0x40 MLOAD DUP1 SWAP2 SUB SWAP1 REVERT JUMPDEST PUSH0 PUSH0 SWAP1 SLOAD SWAP1 PUSH2 0x100 EXP SWAP1 DIV PUSH4 0xFFFFFFFF AND PUSH4 0xFFFFFFFF AND TIMESTAMP LT ISZERO PUSH2 0x9F5 JUMPI PUSH1 0x40 MLOAD PUSH32 0x8C379A000000000000000000000000000000000000000000000000000000000 DUP2 MSTORE PUSH1 0x4 ADD PUSH2 0x9EC SWAP1 PUSH2 0x11D2 JUMP JUMPDEST PUSH1 0x40 MLOAD DUP1 SWAP2 SUB SWAP1 REVERT JUMPDEST PUSH1 0x1 PUSH0 PUSH1 0x5 PUSH2 0x100 EXP DUP2 SLOAD DUP2 PUSH1 0xFF MUL NOT AND SWAP1 DUP4 ISZERO ISZERO MUL OR SWAP1 SSTORE POP PUSH0 PUSH20 0xFFFFFFFFFFFFFFFFFFFFFFFFFFFFFFFFFFFFFFFF AND PUSH0 PUSH1 0x6 SWAP1 SLOAD SWAP1 PUSH2 0x100 EXP SWAP1 DIV PUSH20 0xFFFFFFFFFFFFFFFFFFFFFFFFFFFFFFFFFFFFFFFF AND PUSH20 0xFFFFFFFFFFFFFFFFFFFFFFFFFFFFFFFFFFFFFFFF AND EQ PUSH2 0xB99 JUMPI PUSH32 0x0 PUSH20 0xFFFFFFFFFFFFFFFFFFFFFFFFFFFFFFFFFFFFFFFF AND PUSH4 0x23B872DD ADDRESS PUSH0 PUSH1 0x6 SWAP1 SLOAD SWAP1 PUSH2 0x100 EXP SWAP1 DIV PUSH20 0xFFFFFFFFFFFFFFFFFFFFFFFFFFFFFFFFFFFFFFFF AND PUSH32 0x0 PUSH1 0x40 MLOAD DUP5 PUSH4 0xFFFFFFFF AND PUSH1 0xE0 SHL DUP2 MSTORE PUSH1 0x4 ADD PUSH2 0xB01 SWAP4 SWAP3 SWAP2 SWAP1 PUSH2 0x11F0 JUMP JUMPDEST PUSH0 PUSH1 0x40 MLOAD DUP1 DUP4 SUB DUP2 PUSH0 DUP8 DUP1 EXTCODESIZE ISZERO DUP1 ISZERO PUSH2 0xB18 JUMPI PUSH0 PUSH0 REVERT JUMPDEST POP GAS CALL ISZERO DUP1 ISZERO PUSH2 0xB2A JUMPI RETURNDATASIZE PUSH0 PUSH0 RETURNDATACOPY RETURNDATASIZE PUSH0 REVERT JUMPDEST POP POP POP POP PUSH32 0x0 PUSH20 0xFFFFFFFFFFFFFFFFFFFFFFFFFFFFFFFFFFFFFFFF AND PUSH2 0x8FC PUSH1 0x1 SLOAD SWAP1 DUP2 ISZERO MUL SWAP1 PUSH1 0x40 MLOAD PUSH0 PUSH1 0x40 MLOAD DUP1 DUP4 SUB DUP2 DUP6 DUP9 DUP9 CALL SWAP4 POP POP POP POP ISZERO DUP1 ISZERO PUSH2 0xB93 JUMPI RETURNDATASIZE PUSH0 PUSH0 RETURNDATACOPY RETURNDATASIZE PUSH0 REVERT JUMPDEST POP PUSH2 0xC64 JUMP JUMPDEST PUSH32 0x0 PUSH20 0xFFFFFFFFFFFFFFFFFFFFFFFFFFFFFFFFFFFFFFFF AND PUSH4 0x23B872DD ADDRESS PUSH32 0x0 PUSH32 0x0 PUSH1 0x40 MLOAD DUP5 PUSH4 0xFFFFFFFF AND PUSH1 0xE0 SHL DUP2 MSTORE PUSH1 0x4 ADD PUSH2 0xC36 SWAP4 SWAP3 SWAP2 SWAP1 PUSH2 0x1225 JUMP JUMPDEST PUSH0 PUSH1 0x40 MLOAD DUP1 DUP4 SUB DUP2 PUSH0 DUP8 DUP1 EXTCODESIZE ISZERO DUP1 ISZERO PUSH2 0xC4D JUMPI PUSH0 PUSH0 REVERT JUMPDEST POP GAS CALL ISZERO DUP1 ISZERO PUSH2 0xC5F JUMPI RETURNDATASIZE PUSH0 PUSH0 RETURNDATACOPY RETURNDATASIZE PUSH0 REVERT JUMPDEST POP POP POP POP JUMPDEST PUSH32 0x7D7570B046E5EAD3A4F3FBC9FA2445113625A1E79823776146316BAFED6B8CC5 PUSH0 PUSH1 0x6 SWAP1 SLOAD SWAP1 PUSH2 0x100 EXP SWAP1 DIV PUSH20 0xFFFFFFFFFFFFFFFFFFFFFFFFFFFFFFFFFFFFFFFF AND PUSH1 0x1 SLOAD PUSH1 0x40 MLOAD PUSH2 0xCB8 SWAP3 SWAP2 SWAP1 PUSH2 0x125A JUMP JUMPDEST PUSH1 0x40 MLOAD DUP1 SWAP2 SUB SWAP1 LOG1 JUMP JUMPDEST PUSH0 PUSH20 0xFFFFFFFFFFFFFFFFFFFFFFFFFFFFFFFFFFFFFFFF DUP3 AND SWAP1 POP SWAP2 SWAP1 POP JUMP JUMPDEST PUSH0 PUSH2 0xCEB DUP3 PUSH2 0xCC2 JUMP JUMPDEST SWAP1 POP SWAP2 SWAP1 POP JUMP JUMPDEST PUSH2 0xCFB DUP2 PUSH2 0xCE1 JUMP JUMPDEST DUP3 MSTORE POP POP JUMP JUMPDEST PUSH0 PUSH1 0x20 DUP3 ADD SWAP1 POP PUSH2 0xD14 PUSH0 DUP4 ADD DUP5 PUSH2 0xCF2 JUMP JUMPDEST SWAP3 SWAP2 POP POP JUMP JUMPDEST PUSH0 DUP2 ISZERO ISZERO SWAP1 POP SWAP2 SWAP1 POP JUMP JUMPDEST PUSH2 0xD2E DUP2 PUSH2 0xD1A JUMP JUMPDEST DUP3 MSTORE POP POP JUMP JUMPDEST PUSH0 PUSH1 0x20 DUP3 ADD SWAP1 POP PUSH2 0xD47 PUSH0 DUP4 ADD DUP5 PUSH2 0xD25 JUMP JUMPDEST SWAP3 SWAP2 POP POP JUMP JUMPDEST PUSH0 DUP2 SWAP1 POP SWAP2 SWAP1 POP JUMP JUMPDEST PUSH0 PUSH2 0xD70 PUSH2 0xD6B PUSH2 0xD66 DUP5 PUSH2 0xCC2 JUMP JUMPDEST PUSH2 0xD4D JUMP JUMPDEST PUSH2 0xCC2 JUMP JUMPDEST SWAP1 POP SWAP2 SWAP1 POP JUMP JUMPDEST PUSH0 PUSH2 0xD81 DUP3 PUSH2 0xD56 JUMP JUMPDEST SWAP1 POP SWAP2 SWAP1 POP JUMP JUMPDEST PUSH0 PUSH2 0xD92 DUP3 PUSH2 0xD77 JUMP JUMPDEST SWAP1 POP SWAP2 SWAP1 POP JUMP JUMPDEST PUSH2 0xDA2 DUP2 PUSH2 0xD88 JUMP JUMPDEST DUP3 MSTORE POP POP JUMP JUMPDEST PUSH0 PUSH1 0x20 DUP3 ADD SWAP1 POP PUSH2 0xDBB PUSH0 DUP4 ADD DUP5 PUSH2 0xD99 JUMP JUMPDEST SWAP3 SWAP2 POP POP JUMP JUMPDEST PUSH0 PUSH0 REVERT JUMPDEST PUSH0 PUSH2 0xDCF DUP3 PUSH2 0xCC2 JUMP JUMPDEST SWAP1 POP SWAP2 SWAP1 POP JUMP JUMPDEST PUSH2 0xDDF DUP2 PUSH2 0xDC5 JUMP JUMPDEST DUP2 EQ PUSH2 0xDE9 JUMPI PUSH0 PUSH0 REVERT JUMPDEST POP JUMP JUMPDEST PUSH0 DUP2 CALLDATALOAD SWAP1 POP PUSH2 0xDFA DUP2 PUSH2 0xDD6 JUMP JUMPDEST SWAP3 SWAP2 POP POP JUMP JUMPDEST PUSH0 PUSH1 0x20 DUP3 DUP5 SUB SLT ISZERO PUSH2 0xE15 JUMPI PUSH2 0xE14 PUSH2 0xDC1 JUMP JUMPDEST JUMPDEST PUSH0 PUSH2 0xE22 DUP5 DUP3 DUP6 ADD PUSH2 0xDEC JUMP JUMPDEST SWAP2 POP POP SWAP3 SWAP2 POP POP JUMP JUMPDEST PUSH0 DUP2 SWAP1 POP SWAP2 SWAP1 POP JUMP JUMPDEST PUSH2 0xE3D DUP2 PUSH2 0xE2B JUMP JUMPDEST DUP3 MSTORE POP POP JUMP JUMPDEST PUSH0 PUSH1 0x20 DUP3 ADD SWAP1 POP PUSH2 0xE56 PUSH0 DUP4 ADD DUP5 PUSH2 0xE34 JUMP JUMPDEST SWAP3 SWAP2 POP POP JUMP JUMPDEST PUSH0 PUSH4 0xFFFFFFFF DUP3 AND SWAP1 POP SWAP2 SWAP1 POP JUMP JUMPDEST PUSH2 0xE74 DUP2 PUSH2 0xE5C JUMP JUMPDEST DUP3 MSTORE POP POP JUMP JUMPDEST PUSH0 PUSH1 0x20 DUP3 ADD SWAP1 POP PUSH2 0xE8D PUSH0 DUP4 ADD DUP5 PUSH2 0xE6B JUMP JUMPDEST SWAP3 SWAP2 POP POP JUMP JUMPDEST PUSH2 0xE9C DUP2 PUSH2 0xDC5 JUMP JUMPDEST DUP3 MSTORE POP POP JUMP JUMPDEST PUSH0 PUSH1 0x20 DUP3 ADD SWAP1 POP PUSH2 0xEB5 PUSH0 DUP4 ADD DUP5 PUSH2 0xE93 JUMP JUMPDEST SWAP3 SWAP2 POP POP JUMP JUMPDEST PUSH0 DUP3 DUP3 MSTORE PUSH1 0x20 DUP3 ADD SWAP1 POP SWAP3 SWAP2 POP POP JUMP JUMPDEST PUSH32 0x6E6F742073746172746564000000000000000000000000000000000000000000 PUSH0 DUP3 ADD MSTORE POP JUMP JUMPDEST PUSH0 PUSH2 0xEFF PUSH1 0xB DUP4 PUSH2 0xEBB JUMP JUMPDEST SWAP2 POP PUSH2 0xF0A DUP3 PUSH2 0xECB JUMP JUMPDEST PUSH1 0x20 DUP3 ADD SWAP1 POP SWAP2 SWAP1 POP JUMP JUMPDEST PUSH0 PUSH1 0x20 DUP3 ADD SWAP1 POP DUP2 DUP2 SUB PUSH0 DUP4 ADD MSTORE PUSH2 0xF2C DUP2 PUSH2 0xEF3 JUMP JUMPDEST SWAP1 POP SWAP2 SWAP1 POP JUMP JUMPDEST PUSH32 0x656E646564000000000000000000000000000000000000000000000000000000 PUSH0 DUP3 ADD MSTORE POP JUMP JUMPDEST PUSH0 PUSH2 0xF67 PUSH1 0x5 DUP4 PUSH2 0xEBB JUMP JUMPDEST SWAP2 POP PUSH2 0xF72 DUP3 PUSH2 0xF33 JUMP JUMPDEST PUSH1 0x20 DUP3 ADD SWAP1 POP SWAP2 SWAP1 POP JUMP JUMPDEST PUSH0 PUSH1 0x20 DUP3 ADD SWAP1 POP DUP2 DUP2 SUB PUSH0 DUP4 ADD MSTORE PUSH2 0xF94 DUP2 PUSH2 0xF5B JUMP JUMPDEST SWAP1 POP SWAP2 SWAP1 POP JUMP JUMPDEST PUSH32 0x76616C7565203C20686967686573742042696400000000000000000000000000 PUSH0 DUP3 ADD MSTORE POP JUMP JUMPDEST PUSH0 PUSH2 0xFCF PUSH1 0x13 DUP4 PUSH2 0xEBB JUMP JUMPDEST SWAP2 POP PUSH2 0xFDA DUP3 PUSH2 0xF9B JUMP JUMPDEST PUSH1 0x20 DUP3 ADD SWAP1 POP SWAP2 SWAP1 POP JUMP JUMPDEST PUSH0 PUSH1 0x20 DUP3 ADD SWAP1 POP DUP2 DUP2 SUB PUSH0 DUP4 ADD MSTORE PUSH2 0xFFC DUP2 PUSH2 0xFC3 JUMP JUMPDEST SWAP1 POP SWAP2 SWAP1 POP JUMP JUMPDEST PUSH32 0x4E487B7100000000000000000000000000000000000000000000000000000000 PUSH0 MSTORE PUSH1 0x11 PUSH1 0x4 MSTORE PUSH1 0x24 PUSH0 REVERT JUMPDEST PUSH0 PUSH2 0x103A DUP3 PUSH2 0xE2B JUMP JUMPDEST SWAP2 POP PUSH2 0x1045 DUP4 PUSH2 0xE2B JUMP JUMPDEST SWAP3 POP DUP3 DUP3 ADD SWAP1 POP DUP1 DUP3 GT ISZERO PUSH2 0x105D JUMPI PUSH2 0x105C PUSH2 0x1003 JUMP JUMPDEST JUMPDEST SWAP3 SWAP2 POP POP JUMP JUMPDEST PUSH32 0x6E6F742073656C6C657200000000000000000000000000000000000000000000 PUSH0 DUP3 ADD MSTORE POP JUMP JUMPDEST PUSH0 PUSH2 0x1097 PUSH1 0xA DUP4 PUSH2 0xEBB JUMP JUMPDEST SWAP2 POP PUSH2 0x10A2 DUP3 PUSH2 0x1063 JUMP JUMPDEST PUSH1 0x20 DUP3 ADD SWAP1 POP SWAP2 SWAP1 POP JUMP JUMPDEST PUSH0 PUSH1 0x20 DUP3 ADD SWAP1 POP DUP2 DUP2 SUB PUSH0 DUP4 ADD MSTORE PUSH2 0x10C4 DUP2 PUSH2 0x108B JUMP JUMPDEST SWAP1 POP SWAP2 SWAP1 POP JUMP JUMPDEST PUSH32 0x7374617274656400000000000000000000000000000000000000000000000000 PUSH0 DUP3 ADD MSTORE POP JUMP JUMPDEST PUSH0 PUSH2 0x10FF PUSH1 0x7 DUP4 PUSH2 0xEBB JUMP JUMPDEST SWAP2 POP PUSH2 0x110A DUP3 PUSH2 0x10CB JUMP JUMPDEST PUSH1 0x20 DUP3 ADD SWAP1 POP SWAP2 SWAP1 POP JUMP JUMPDEST PUSH0 PUSH1 0x20 DUP3 ADD SWAP1 POP DUP2 DUP2 SUB PUSH0 DUP4 ADD MSTORE PUSH2 0x112C DUP2 PUSH2 0x10F3 JUMP JUMPDEST SWAP1 POP SWAP2 SWAP1 POP JUMP JUMPDEST PUSH0 PUSH2 0x113D DUP3 PUSH2 0xD77 JUMP JUMPDEST SWAP1 POP SWAP2 SWAP1 POP JUMP JUMPDEST PUSH2 0x114D DUP2 PUSH2 0x1133 JUMP JUMPDEST DUP3 MSTORE POP POP JUMP JUMPDEST PUSH0 PUSH1 0x60 DUP3 ADD SWAP1 POP PUSH2 0x1166 PUSH0 DUP4 ADD DUP7 PUSH2 0x1144 JUMP JUMPDEST PUSH2 0x1173 PUSH1 0x20 DUP4 ADD DUP6 PUSH2 0xE93 JUMP JUMPDEST PUSH2 0x1180 PUSH1 0x40 DUP4 ADD DUP5 PUSH2 0xE34 JUMP JUMPDEST SWAP5 SWAP4 POP POP POP POP JUMP JUMPDEST PUSH32 0x6E6F7420656E6465640000000000000000000000000000000000000000000000 PUSH0 DUP3 ADD MSTORE POP JUMP JUMPDEST PUSH0 PUSH2 0x11BC PUSH1 0x9 DUP4 PUSH2 0xEBB JUMP JUMPDEST SWAP2 POP PUSH2 0x11C7 DUP3 PUSH2 0x1188 JUMP JUMPDEST PUSH1 0x20 DUP3 ADD SWAP1 POP SWAP2 SWAP1 POP JUMP JUMPDEST PUSH0 PUSH1 0x20 DUP3 ADD SWAP1 POP DUP2 DUP2 SUB PUSH0 DUP4 ADD MSTORE PUSH2 0x11E9 DUP2 PUSH2 0x11B0 JUMP JUMPDEST SWAP1 POP SWAP2 SWAP1 POP JUMP JUMPDEST PUSH0 PUSH1 0x60 DUP3 ADD SWAP1 POP PUSH2 0x1203 PUSH0 DUP4 ADD DUP7 PUSH2 0xE93 JUMP JUMPDEST PUSH2 0x1210 PUSH1 0x20 DUP4 ADD DUP6 PUSH2 0xE93 JUMP JUMPDEST PUSH2 0x121D PUSH1 0x40 DUP4 ADD DUP5 PUSH2 0xE34 JUMP JUMPDEST SWAP5 SWAP4 POP POP POP POP JUMP JUMPDEST PUSH0 PUSH1 0x60 DUP3 ADD SWAP1 POP PUSH2 0x1238 PUSH0 DUP4 ADD DUP7 PUSH2 0xE93 JUMP JUMPDEST PUSH2 0x1245 PUSH1 0x20 DUP4 ADD DUP6 PUSH2 0x1144 JUMP JUMPDEST PUSH2 0x1252 PUSH1 0x40 DUP4 ADD DUP5 PUSH2 0xE34 JUMP JUMPDEST SWAP5 SWAP4 POP POP POP POP JUMP JUMPDEST PUSH0 PUSH1 0x40 DUP3 ADD SWAP1 POP PUSH2 0x126D PUSH0 DUP4 ADD DUP6 PUSH2 0xE93 JUMP JUMPDEST PUSH2 0x127A PUSH1 0x20 DUP4 ADD DUP5 PUSH2 0xE34 JUMP JUMPDEST SWAP4 SWAP3 POP POP POP JUMP INVALID LOG2 PUSH5 0x6970667358 0x22 SLT KECCAK256 EXTCODESIZE SWAP2 0x1F MULMOD 0xC6 ADDRESS GASLIMIT GT BASEFEE DUP16 PUSH2 0x98F8 INVALID 0x21 0xE5 0x26 SWAP10 ADD PUSH5 0xFBE7A045B4 ADDRESS GAS 0xE3 0xEF 0xDD 0xB1 0xA8 PUSH5 0x736F6C6343 STOP ADDMOD SHR STOP CALLER "
				},
				"gasEstimates": {
					"creation": {
						"codeDepositCost": "958200",
						"executionCost": "infinite",
						"totalCost": "infinite"
					},
					"external": {
						"bid()": "infinite",
						"bids(address)": "2825",
						"end()": "infinite",
						"endAt()": "2510",
						"ended()": "2539",
						"highestBid()": "2491",
						"highestBidder()": "2625",
						"nft()": "infinite",
						"nftId()": "infinite",
						"seller()": "infinite",
						"start()": "infinite",
						"started()": "2583",
						"withdraw()": "infinite"
					}
				},
				"methodIdentifiers": {
					"bid()": "1998aeef",
					"bids(address)": "62ea82db",
					"end()": "efbe1c1c",
					"endAt()": "7cc3ae8c",
					"ended()": "12fa6feb",
					"highestBid()": "d57bde79",
					"highestBidder()": "91f90157",
					"nft()": "47ccca02",
					"nftId()": "c6bc5182",
					"seller()": "08551a53",
					"start()": "be9a6555",
					"started()": "1f2698ab",
					"withdraw()": "3ccfd60b"
				}
			},
			"storageLayout": {
				"storage": [
					{
						"astId": 40,
						"contract": "EnglishAuction.sol:EnglishAution",
						"label": "endAt",
						"offset": 0,
						"slot": "0",
						"type": "t_uint32"
					},
					{
						"astId": 42,
						"contract": "EnglishAuction.sol:EnglishAution",
						"label": "started",
						"offset": 4,
						"slot": "0",
						"type": "t_bool"
					},
					{
						"astId": 44,
						"contract": "EnglishAuction.sol:EnglishAution",
						"label": "ended",
						"offset": 5,
						"slot": "0",
						"type": "t_bool"
					},
					{
						"astId": 46,
						"contract": "EnglishAuction.sol:EnglishAution",
						"label": "highestBidder",
						"offset": 6,
						"slot": "0",
						"type": "t_address"
					},
					{
						"astId": 48,
						"contract": "EnglishAuction.sol:EnglishAution",
						"label": "highestBid",
						"offset": 0,
						"slot": "1",
						"type": "t_uint256"
					},
					{
						"astId": 52,
						"contract": "EnglishAuction.sol:EnglishAution",
						"label": "bids",
						"offset": 0,
						"slot": "2",
						"type": "t_mapping(t_address,t_uint256)"
					}
				],
				"types": {
					"t_address": {
						"encoding": "inplace",
						"label": "address",
						"numberOfBytes": "20"
					},
					"t_bool": {
						"encoding": "inplace",
						"label": "bool",
						"numberOfBytes": "1"
					},
					"t_mapping(t_address,t_uint256)": {
						"encoding": "mapping",
						"key": "t_address",
						"label": "mapping(address => uint256)",
						"numberOfBytes": "32",
						"value": "t_uint256"
					},
					"t_uint256": {
						"encoding": "inplace",
						"label": "uint256",
						"numberOfBytes": "32"
					},
					"t_uint32": {
						"encoding": "inplace",
						"label": "uint32",
						"numberOfBytes": "4"
					}
				}
			},
			"userdoc": {
				"kind": "user",
				"methods": {},
				"version": 1
			}
		}
	}
}