{
	"DataLocations.sol": {
		"DataLocations": {
			"abi": [
				{
					"inputs": [
						{
							"internalType": "uint256[]",
							"name": "y",
							"type": "uint256[]"
						},
						{
							"internalType": "string",
							"name": "s",
							"type": "string"
						}
					],
					"name": "example",
					"outputs": [
						{
							"internalType": "uint256[]",
							"name": "",
							"type": "uint256[]"
						}
					],
					"stateMutability": "nonpayable",
					"type": "function"
				},
				{
					"inputs": [
						{
							"internalType": "address",
							"name": "",
							"type": "address"
						}
					],
					"name": "myStructs",
					"outputs": [
						{
							"internalType": "uint256",
							"name": "foo",
							"type": "uint256"
						},
						{
							"internalType": "string",
							"name": "text",
							"type": "string"
						}
					],
					"stateMutability": "view",
					"type": "function"
				}
			],
			"devdoc": {
				"kind": "dev",
				"methods": {},
				"version": 1
			},
			"evm": {
				"assembly": "    /* \"DataLocations.sol\":57:1018  contract DataLocations {... */\n  mstore(0x40, 0x80)\n  callvalue\n  dup1\n  iszero\n  tag_1\n  jumpi\n  0x00\n  dup1\n  revert\ntag_1:\n  pop\n  dataSize(sub_0)\n  dup1\n  dataOffset(sub_0)\n  0x00\n  codecopy\n  0x00\n  return\nstop\n\nsub_0: assembly {\n        /* \"DataLocations.sol\":57:1018  contract DataLocations {... */\n      mstore(0x40, 0x80)\n      callvalue\n      dup1\n      iszero\n      tag_1\n      jumpi\n      0x00\n      dup1\n      revert\n    tag_1:\n      pop\n      jumpi(tag_2, lt(calldatasize, 0x04))\n      shr(0xe0, calldataload(0x00))\n      dup1\n      0x9837ae1a\n      eq\n      tag_3\n      jumpi\n      dup1\n      0xb43c5d33\n      eq\n      tag_4\n      jumpi\n    tag_2:\n      0x00\n      dup1\n      revert\n        /* \"DataLocations.sol\":209:928  function example(uint256[] calldata y, string calldata s)... */\n    tag_3:\n      tag_5\n      0x04\n      dup1\n      calldatasize\n      sub\n      dup2\n      add\n      swap1\n      tag_6\n      swap2\n      swap1\n      tag_7\n      jump\t// in\n    tag_6:\n      tag_8\n      jump\t// in\n    tag_5:\n      mload(0x40)\n      tag_9\n      swap2\n      swap1\n      tag_10\n      jump\t// in\n    tag_9:\n      mload(0x40)\n      dup1\n      swap2\n      sub\n      swap1\n      return\n        /* \"DataLocations.sol\":157:202  mapping(address => MyStruct) public myStructs */\n    tag_4:\n      tag_11\n      0x04\n      dup1\n      calldatasize\n      sub\n      dup2\n      add\n      swap1\n      tag_12\n      swap2\n      swap1\n      tag_13\n      jump\t// in\n    tag_12:\n      tag_14\n      jump\t// in\n    tag_11:\n      mload(0x40)\n      tag_15\n      swap3\n      swap2\n      swap1\n      tag_16\n      jump\t// in\n    tag_15:\n      mload(0x40)\n      dup1\n      swap2\n      sub\n      swap1\n      return\n        /* \"DataLocations.sol\":209:928  function example(uint256[] calldata y, string calldata s)... */\n    tag_8:\n        /* \"DataLocations.sol\":301:317  uint256[] memory */\n      0x60\n        /* \"DataLocations.sol\":357:377  MyStruct(123, \"bar\") */\n      mload(0x40)\n      dup1\n      0x40\n      add\n      0x40\n      mstore\n      dup1\n        /* \"DataLocations.sol\":366:369  123 */\n      0x7b\n        /* \"DataLocations.sol\":357:377  MyStruct(123, \"bar\") */\n      dup2\n      mstore\n      0x20\n      add\n      mload(0x40)\n      dup1\n      0x40\n      add\n      0x40\n      mstore\n      dup1\n      0x03\n      dup2\n      mstore\n      0x20\n      add\n      0x6261720000000000000000000000000000000000000000000000000000000000\n      dup2\n      mstore\n      pop\n      dup2\n      mstore\n      pop\n        /* \"DataLocations.sol\":333:342  myStructs */\n      0x00\n        /* \"DataLocations.sol\":333:354  myStructs[msg.sender] */\n      dup1\n        /* \"DataLocations.sol\":343:353  msg.sender */\n      caller\n        /* \"DataLocations.sol\":333:354  myStructs[msg.sender] */\n      0xffffffffffffffffffffffffffffffffffffffff\n      and\n      0xffffffffffffffffffffffffffffffffffffffff\n      and\n      dup2\n      mstore\n      0x20\n      add\n      swap1\n      dup2\n      mstore\n      0x20\n      add\n      0x00\n      keccak256\n        /* \"DataLocations.sol\":333:377  myStructs[msg.sender] = MyStruct(123, \"bar\") */\n      0x00\n      dup3\n      add\n      mload\n      dup2\n      0x00\n      add\n      sstore\n      0x20\n      dup3\n      add\n      mload\n      dup2\n      0x01\n      add\n      swap1\n      dup2\n      tag_18\n      swap2\n      swap1\n      tag_19\n      jump\t// in\n    tag_18:\n      pop\n      swap1\n      pop\n      pop\n        /* \"DataLocations.sol\":387:412  MyStruct storage myStruct */\n      0x00\n        /* \"DataLocations.sol\":415:424  myStructs */\n      dup1\n        /* \"DataLocations.sol\":415:436  myStructs[msg.sender] */\n      0x00\n        /* \"DataLocations.sol\":425:435  msg.sender */\n      caller\n        /* \"DataLocations.sol\":415:436  myStructs[msg.sender] */\n      0xffffffffffffffffffffffffffffffffffffffff\n      and\n      0xffffffffffffffffffffffffffffffffffffffff\n      and\n      dup2\n      mstore\n      0x20\n      add\n      swap1\n      dup2\n      mstore\n      0x20\n      add\n      0x00\n      keccak256\n        /* \"DataLocations.sol\":387:436  MyStruct storage myStruct = myStructs[msg.sender] */\n      swap1\n      pop\n        /* \"DataLocations.sol\":526:547  myStruct.text = \"foo\" */\n      mload(0x40)\n      dup1\n      0x40\n      add\n      0x40\n      mstore\n      dup1\n      0x03\n      dup2\n      mstore\n      0x20\n      add\n      0x666f6f0000000000000000000000000000000000000000000000000000000000\n      dup2\n      mstore\n      pop\n        /* \"DataLocations.sol\":526:534  myStruct */\n      dup2\n        /* \"DataLocations.sol\":526:539  myStruct.text */\n      0x01\n      add\n        /* \"DataLocations.sol\":526:547  myStruct.text = \"foo\" */\n      swap1\n      dup2\n      tag_20\n      swap2\n      swap1\n      tag_19\n      jump\t// in\n    tag_20:\n      pop\n        /* \"DataLocations.sol\":558:582  MyStruct memory readOnly */\n      0x00\n        /* \"DataLocations.sol\":585:594  myStructs */\n      dup1\n        /* \"DataLocations.sol\":585:606  myStructs[msg.sender] */\n      0x00\n        /* \"DataLocations.sol\":595:605  msg.sender */\n      caller\n        /* \"DataLocations.sol\":585:606  myStructs[msg.sender] */\n      0xffffffffffffffffffffffffffffffffffffffff\n      and\n      0xffffffffffffffffffffffffffffffffffffffff\n      and\n      dup2\n      mstore\n      0x20\n      add\n      swap1\n      dup2\n      mstore\n      0x20\n      add\n      0x00\n      keccak256\n        /* \"DataLocations.sol\":558:606  MyStruct memory readOnly = myStructs[msg.sender] */\n      mload(0x40)\n      dup1\n      0x40\n      add\n      0x40\n      mstore\n      swap1\n      dup2\n      0x00\n      dup3\n      add\n      sload\n      dup2\n      mstore\n      0x20\n      add\n      0x01\n      dup3\n      add\n      dup1\n      sload\n      tag_21\n      swap1\n      tag_22\n      jump\t// in\n    tag_21:\n      dup1\n      0x1f\n      add\n      0x20\n      dup1\n      swap2\n      div\n      mul\n      0x20\n      add\n      mload(0x40)\n      swap1\n      dup2\n      add\n      0x40\n      mstore\n      dup1\n      swap3\n      swap2\n      swap1\n      dup2\n      dup2\n      mstore\n      0x20\n      add\n      dup3\n      dup1\n      sload\n      tag_23\n      swap1\n      tag_22\n      jump\t// in\n    tag_23:\n      dup1\n      iszero\n      tag_24\n      jumpi\n      dup1\n      0x1f\n      lt\n      tag_25\n      jumpi\n      0x0100\n      dup1\n      dup4\n      sload\n      div\n      mul\n      dup4\n      mstore\n      swap2\n      0x20\n      add\n      swap2\n      jump(tag_24)\n    tag_25:\n      dup3\n      add\n      swap2\n      swap1\n      0x00\n      mstore\n      keccak256(0x00, 0x20)\n      swap1\n    tag_26:\n      dup2\n      sload\n      dup2\n      mstore\n      swap1\n      0x01\n      add\n      swap1\n      0x20\n      add\n      dup1\n      dup4\n      gt\n      tag_26\n      jumpi\n      dup3\n      swap1\n      sub\n      0x1f\n      and\n      dup3\n      add\n      swap2\n    tag_24:\n      pop\n      pop\n      pop\n      pop\n      pop\n      dup2\n      mstore\n      pop\n      pop\n      swap1\n      pop\n        /* \"DataLocations.sol\":680:683  456 */\n      0x01c8\n        /* \"DataLocations.sol\":665:673  myStruct */\n      dup3\n        /* \"DataLocations.sol\":665:677  myStruct.foo */\n      0x00\n      add\n        /* \"DataLocations.sol\":665:683  myStruct.foo = 456 */\n      dup2\n      swap1\n      sstore\n      pop\n        /* \"DataLocations.sol\":771:783  _internal(y) */\n      tag_27\n        /* \"DataLocations.sol\":781:782  y */\n      dup8\n      dup8\n        /* \"DataLocations.sol\":771:780  _internal */\n      tag_28\n        /* \"DataLocations.sol\":771:783  _internal(y) */\n      jump\t// in\n    tag_27:\n        /* \"DataLocations.sol\":822:848  uint256[] memory memoryArr */\n      0x00\n        /* \"DataLocations.sol\":865:866  3 */\n      0x03\n        /* \"DataLocations.sol\":851:867  new uint256[](3) */\n      0xffffffffffffffff\n      dup2\n      gt\n      iszero\n      tag_29\n      jumpi\n      tag_30\n      tag_31\n      jump\t// in\n    tag_30:\n    tag_29:\n      mload(0x40)\n      swap1\n      dup1\n      dup3\n      mstore\n      dup1\n      0x20\n      mul\n      0x20\n      add\n      dup3\n      add\n      0x40\n      mstore\n      dup1\n      iszero\n      tag_32\n      jumpi\n      dup2\n      0x20\n      add\n      0x20\n      dup3\n      mul\n      dup1\n      calldatasize\n      dup4\n      calldatacopy\n      dup1\n      dup3\n      add\n      swap2\n      pop\n      pop\n      swap1\n      pop\n    tag_32:\n      pop\n        /* \"DataLocations.sol\":822:867  uint256[] memory memoryArr = new uint256[](3) */\n      swap1\n      pop\n        /* \"DataLocations.sol\":892:895  234 */\n      0xea\n        /* \"DataLocations.sol\":877:886  memoryArr */\n      dup2\n        /* \"DataLocations.sol\":887:888  0 */\n      0x00\n        /* \"DataLocations.sol\":877:889  memoryArr[0] */\n      dup2\n      mload\n      dup2\n      lt\n      tag_33\n      jumpi\n      tag_34\n      tag_35\n      jump\t// in\n    tag_34:\n    tag_33:\n      0x20\n      mul\n      0x20\n      add\n      add\n        /* \"DataLocations.sol\":877:895  memoryArr[0] = 234 */\n      dup2\n      dup2\n      mstore\n      pop\n      pop\n        /* \"DataLocations.sol\":912:921  memoryArr */\n      dup1\n        /* \"DataLocations.sol\":905:921  return memoryArr */\n      swap4\n      pop\n      pop\n      pop\n      pop\n        /* \"DataLocations.sol\":209:928  function example(uint256[] calldata y, string calldata s)... */\n      swap5\n      swap4\n      pop\n      pop\n      pop\n      pop\n      jump\t// out\n        /* \"DataLocations.sol\":157:202  mapping(address => MyStruct) public myStructs */\n    tag_14:\n      mstore(0x20, 0x00)\n      dup1\n      0x00\n      mstore\n      keccak256(0x00, 0x40)\n      0x00\n      swap2\n      pop\n      swap1\n      pop\n      dup1\n      0x00\n      add\n      sload\n      swap1\n      dup1\n      0x01\n      add\n      dup1\n      sload\n      tag_36\n      swap1\n      tag_22\n      jump\t// in\n    tag_36:\n      dup1\n      0x1f\n      add\n      0x20\n      dup1\n      swap2\n      div\n      mul\n      0x20\n      add\n      mload(0x40)\n      swap1\n      dup2\n      add\n      0x40\n      mstore\n      dup1\n      swap3\n      swap2\n      swap1\n      dup2\n      dup2\n      mstore\n      0x20\n      add\n      dup3\n      dup1\n      sload\n      tag_37\n      swap1\n      tag_22\n      jump\t// in\n    tag_37:\n      dup1\n      iszero\n      tag_38\n      jumpi\n      dup1\n      0x1f\n      lt\n      tag_39\n      jumpi\n      0x0100\n      dup1\n      dup4\n      sload\n      div\n      mul\n      dup4\n      mstore\n      swap2\n      0x20\n      add\n      swap2\n      jump(tag_38)\n    tag_39:\n      dup3\n      add\n      swap2\n      swap1\n      0x00\n      mstore\n      keccak256(0x00, 0x20)\n      swap1\n    tag_40:\n      dup2\n      sload\n      dup2\n      mstore\n      swap1\n      0x01\n      add\n      swap1\n      0x20\n      add\n      dup1\n      dup4\n      gt\n      tag_40\n      jumpi\n      dup3\n      swap1\n      sub\n      0x1f\n      and\n      dup3\n      add\n      swap2\n    tag_38:\n      pop\n      pop\n      pop\n      pop\n      pop\n      swap1\n      pop\n      dup3\n      jump\t// out\n        /* \"DataLocations.sol\":934:1016  function _internal(uint256[] calldata y) private {... */\n    tag_28:\n        /* \"DataLocations.sol\":993:1002  uint256 x */\n      0x00\n        /* \"DataLocations.sol\":1005:1006  y */\n      dup3\n      dup3\n        /* \"DataLocations.sol\":1007:1008  0 */\n      0x00\n        /* \"DataLocations.sol\":1005:1009  y[0] */\n      dup2\n      dup2\n      lt\n      tag_42\n      jumpi\n      tag_43\n      tag_35\n      jump\t// in\n    tag_43:\n    tag_42:\n      swap1\n      pop\n      0x20\n      mul\n      add\n      calldataload\n        /* \"DataLocations.sol\":993:1009  uint256 x = y[0] */\n      swap1\n      pop\n        /* \"DataLocations.sol\":983:1016  {... */\n      pop\n        /* \"DataLocations.sol\":934:1016  function _internal(uint256[] calldata y) private {... */\n      pop\n      pop\n      jump\t// out\n        /* \"#utility.yul\":88:205   */\n    tag_45:\n        /* \"#utility.yul\":197:198   */\n      0x00\n        /* \"#utility.yul\":194:195   */\n      dup1\n        /* \"#utility.yul\":187:199   */\n      revert\n        /* \"#utility.yul\":211:328   */\n    tag_46:\n        /* \"#utility.yul\":320:321   */\n      0x00\n        /* \"#utility.yul\":317:318   */\n      dup1\n        /* \"#utility.yul\":310:322   */\n      revert\n        /* \"#utility.yul\":334:451   */\n    tag_47:\n        /* \"#utility.yul\":443:444   */\n      0x00\n        /* \"#utility.yul\":440:441   */\n      dup1\n        /* \"#utility.yul\":433:445   */\n      revert\n        /* \"#utility.yul\":457:574   */\n    tag_48:\n        /* \"#utility.yul\":566:567   */\n      0x00\n        /* \"#utility.yul\":563:564   */\n      dup1\n        /* \"#utility.yul\":556:568   */\n      revert\n        /* \"#utility.yul\":580:697   */\n    tag_49:\n        /* \"#utility.yul\":689:690   */\n      0x00\n        /* \"#utility.yul\":686:687   */\n      dup1\n        /* \"#utility.yul\":679:691   */\n      revert\n        /* \"#utility.yul\":720:1288   */\n    tag_50:\n        /* \"#utility.yul\":793:801   */\n      0x00\n        /* \"#utility.yul\":803:809   */\n      dup1\n        /* \"#utility.yul\":853:856   */\n      dup4\n        /* \"#utility.yul\":846:850   */\n      0x1f\n        /* \"#utility.yul\":838:844   */\n      dup5\n        /* \"#utility.yul\":834:851   */\n      add\n        /* \"#utility.yul\":830:857   */\n      slt\n        /* \"#utility.yul\":820:942   */\n      tag_94\n      jumpi\n        /* \"#utility.yul\":861:940   */\n      tag_95\n      tag_47\n      jump\t// in\n    tag_95:\n        /* \"#utility.yul\":820:942   */\n    tag_94:\n        /* \"#utility.yul\":974:980   */\n      dup3\n        /* \"#utility.yul\":961:981   */\n      calldataload\n        /* \"#utility.yul\":951:981   */\n      swap1\n      pop\n        /* \"#utility.yul\":1004:1022   */\n      0xffffffffffffffff\n        /* \"#utility.yul\":996:1002   */\n      dup2\n        /* \"#utility.yul\":993:1023   */\n      gt\n        /* \"#utility.yul\":990:1107   */\n      iszero\n      tag_96\n      jumpi\n        /* \"#utility.yul\":1026:1105   */\n      tag_97\n      tag_48\n      jump\t// in\n    tag_97:\n        /* \"#utility.yul\":990:1107   */\n    tag_96:\n        /* \"#utility.yul\":1140:1144   */\n      0x20\n        /* \"#utility.yul\":1132:1138   */\n      dup4\n        /* \"#utility.yul\":1128:1145   */\n      add\n        /* \"#utility.yul\":1116:1145   */\n      swap2\n      pop\n        /* \"#utility.yul\":1194:1197   */\n      dup4\n        /* \"#utility.yul\":1186:1190   */\n      0x20\n        /* \"#utility.yul\":1178:1184   */\n      dup3\n        /* \"#utility.yul\":1174:1191   */\n      mul\n        /* \"#utility.yul\":1164:1172   */\n      dup4\n        /* \"#utility.yul\":1160:1192   */\n      add\n        /* \"#utility.yul\":1157:1198   */\n      gt\n        /* \"#utility.yul\":1154:1282   */\n      iszero\n      tag_98\n      jumpi\n        /* \"#utility.yul\":1201:1280   */\n      tag_99\n      tag_49\n      jump\t// in\n    tag_99:\n        /* \"#utility.yul\":1154:1282   */\n    tag_98:\n        /* \"#utility.yul\":720:1288   */\n      swap3\n      pop\n      swap3\n      swap1\n      pop\n      jump\t// out\n        /* \"#utility.yul\":1308:1861   */\n    tag_51:\n        /* \"#utility.yul\":1366:1374   */\n      0x00\n        /* \"#utility.yul\":1376:1382   */\n      dup1\n        /* \"#utility.yul\":1426:1429   */\n      dup4\n        /* \"#utility.yul\":1419:1423   */\n      0x1f\n        /* \"#utility.yul\":1411:1417   */\n      dup5\n        /* \"#utility.yul\":1407:1424   */\n      add\n        /* \"#utility.yul\":1403:1430   */\n      slt\n        /* \"#utility.yul\":1393:1515   */\n      tag_101\n      jumpi\n        /* \"#utility.yul\":1434:1513   */\n      tag_102\n      tag_47\n      jump\t// in\n    tag_102:\n        /* \"#utility.yul\":1393:1515   */\n    tag_101:\n        /* \"#utility.yul\":1547:1553   */\n      dup3\n        /* \"#utility.yul\":1534:1554   */\n      calldataload\n        /* \"#utility.yul\":1524:1554   */\n      swap1\n      pop\n        /* \"#utility.yul\":1577:1595   */\n      0xffffffffffffffff\n        /* \"#utility.yul\":1569:1575   */\n      dup2\n        /* \"#utility.yul\":1566:1596   */\n      gt\n        /* \"#utility.yul\":1563:1680   */\n      iszero\n      tag_103\n      jumpi\n        /* \"#utility.yul\":1599:1678   */\n      tag_104\n      tag_48\n      jump\t// in\n    tag_104:\n        /* \"#utility.yul\":1563:1680   */\n    tag_103:\n        /* \"#utility.yul\":1713:1717   */\n      0x20\n        /* \"#utility.yul\":1705:1711   */\n      dup4\n        /* \"#utility.yul\":1701:1718   */\n      add\n        /* \"#utility.yul\":1689:1718   */\n      swap2\n      pop\n        /* \"#utility.yul\":1767:1770   */\n      dup4\n        /* \"#utility.yul\":1759:1763   */\n      0x01\n        /* \"#utility.yul\":1751:1757   */\n      dup3\n        /* \"#utility.yul\":1747:1764   */\n      mul\n        /* \"#utility.yul\":1737:1745   */\n      dup4\n        /* \"#utility.yul\":1733:1765   */\n      add\n        /* \"#utility.yul\":1730:1771   */\n      gt\n        /* \"#utility.yul\":1727:1855   */\n      iszero\n      tag_105\n      jumpi\n        /* \"#utility.yul\":1774:1853   */\n      tag_106\n      tag_49\n      jump\t// in\n    tag_106:\n        /* \"#utility.yul\":1727:1855   */\n    tag_105:\n        /* \"#utility.yul\":1308:1861   */\n      swap3\n      pop\n      swap3\n      swap1\n      pop\n      jump\t// out\n        /* \"#utility.yul\":1867:2771   */\n    tag_7:\n        /* \"#utility.yul\":1974:1980   */\n      0x00\n        /* \"#utility.yul\":1982:1988   */\n      dup1\n        /* \"#utility.yul\":1990:1996   */\n      0x00\n        /* \"#utility.yul\":1998:2004   */\n      dup1\n        /* \"#utility.yul\":2047:2049   */\n      0x40\n        /* \"#utility.yul\":2035:2044   */\n      dup6\n        /* \"#utility.yul\":2026:2033   */\n      dup8\n        /* \"#utility.yul\":2022:2045   */\n      sub\n        /* \"#utility.yul\":2018:2050   */\n      slt\n        /* \"#utility.yul\":2015:2134   */\n      iszero\n      tag_108\n      jumpi\n        /* \"#utility.yul\":2053:2132   */\n      tag_109\n      tag_45\n      jump\t// in\n    tag_109:\n        /* \"#utility.yul\":2015:2134   */\n    tag_108:\n        /* \"#utility.yul\":2201:2202   */\n      0x00\n        /* \"#utility.yul\":2190:2199   */\n      dup6\n        /* \"#utility.yul\":2186:2203   */\n      add\n        /* \"#utility.yul\":2173:2204   */\n      calldataload\n        /* \"#utility.yul\":2231:2249   */\n      0xffffffffffffffff\n        /* \"#utility.yul\":2223:2229   */\n      dup2\n        /* \"#utility.yul\":2220:2250   */\n      gt\n        /* \"#utility.yul\":2217:2334   */\n      iszero\n      tag_110\n      jumpi\n        /* \"#utility.yul\":2253:2332   */\n      tag_111\n      tag_46\n      jump\t// in\n    tag_111:\n        /* \"#utility.yul\":2217:2334   */\n    tag_110:\n        /* \"#utility.yul\":2366:2446   */\n      tag_112\n        /* \"#utility.yul\":2438:2445   */\n      dup8\n        /* \"#utility.yul\":2429:2435   */\n      dup3\n        /* \"#utility.yul\":2418:2427   */\n      dup9\n        /* \"#utility.yul\":2414:2436   */\n      add\n        /* \"#utility.yul\":2366:2446   */\n      tag_50\n      jump\t// in\n    tag_112:\n        /* \"#utility.yul\":2348:2446   */\n      swap5\n      pop\n      swap5\n      pop\n        /* \"#utility.yul\":2144:2456   */\n      pop\n        /* \"#utility.yul\":2523:2525   */\n      0x20\n        /* \"#utility.yul\":2512:2521   */\n      dup6\n        /* \"#utility.yul\":2508:2526   */\n      add\n        /* \"#utility.yul\":2495:2527   */\n      calldataload\n        /* \"#utility.yul\":2554:2572   */\n      0xffffffffffffffff\n        /* \"#utility.yul\":2546:2552   */\n      dup2\n        /* \"#utility.yul\":2543:2573   */\n      gt\n        /* \"#utility.yul\":2540:2657   */\n      iszero\n      tag_113\n      jumpi\n        /* \"#utility.yul\":2576:2655   */\n      tag_114\n      tag_46\n      jump\t// in\n    tag_114:\n        /* \"#utility.yul\":2540:2657   */\n    tag_113:\n        /* \"#utility.yul\":2689:2754   */\n      tag_115\n        /* \"#utility.yul\":2746:2753   */\n      dup8\n        /* \"#utility.yul\":2737:2743   */\n      dup3\n        /* \"#utility.yul\":2726:2735   */\n      dup9\n        /* \"#utility.yul\":2722:2744   */\n      add\n        /* \"#utility.yul\":2689:2754   */\n      tag_51\n      jump\t// in\n    tag_115:\n        /* \"#utility.yul\":2671:2754   */\n      swap3\n      pop\n      swap3\n      pop\n        /* \"#utility.yul\":2466:2764   */\n      pop\n        /* \"#utility.yul\":1867:2771   */\n      swap3\n      swap6\n      swap2\n      swap5\n      pop\n      swap3\n      pop\n      jump\t// out\n        /* \"#utility.yul\":2777:2891   */\n    tag_52:\n        /* \"#utility.yul\":2844:2850   */\n      0x00\n        /* \"#utility.yul\":2878:2883   */\n      dup2\n        /* \"#utility.yul\":2872:2884   */\n      mload\n        /* \"#utility.yul\":2862:2884   */\n      swap1\n      pop\n        /* \"#utility.yul\":2777:2891   */\n      swap2\n      swap1\n      pop\n      jump\t// out\n        /* \"#utility.yul\":2897:3081   */\n    tag_53:\n        /* \"#utility.yul\":2996:3007   */\n      0x00\n        /* \"#utility.yul\":3030:3036   */\n      dup3\n        /* \"#utility.yul\":3025:3028   */\n      dup3\n        /* \"#utility.yul\":3018:3037   */\n      mstore\n        /* \"#utility.yul\":3070:3074   */\n      0x20\n        /* \"#utility.yul\":3065:3068   */\n      dup3\n        /* \"#utility.yul\":3061:3075   */\n      add\n        /* \"#utility.yul\":3046:3075   */\n      swap1\n      pop\n        /* \"#utility.yul\":2897:3081   */\n      swap3\n      swap2\n      pop\n      pop\n      jump\t// out\n        /* \"#utility.yul\":3087:3219   */\n    tag_54:\n        /* \"#utility.yul\":3154:3158   */\n      0x00\n        /* \"#utility.yul\":3177:3180   */\n      dup2\n        /* \"#utility.yul\":3169:3180   */\n      swap1\n      pop\n        /* \"#utility.yul\":3207:3211   */\n      0x20\n        /* \"#utility.yul\":3202:3205   */\n      dup3\n        /* \"#utility.yul\":3198:3212   */\n      add\n        /* \"#utility.yul\":3190:3212   */\n      swap1\n      pop\n        /* \"#utility.yul\":3087:3219   */\n      swap2\n      swap1\n      pop\n      jump\t// out\n        /* \"#utility.yul\":3225:3302   */\n    tag_55:\n        /* \"#utility.yul\":3262:3269   */\n      0x00\n        /* \"#utility.yul\":3291:3296   */\n      dup2\n        /* \"#utility.yul\":3280:3296   */\n      swap1\n      pop\n        /* \"#utility.yul\":3225:3302   */\n      swap2\n      swap1\n      pop\n      jump\t// out\n        /* \"#utility.yul\":3308:3416   */\n    tag_56:\n        /* \"#utility.yul\":3385:3409   */\n      tag_121\n        /* \"#utility.yul\":3403:3408   */\n      dup2\n        /* \"#utility.yul\":3385:3409   */\n      tag_55\n      jump\t// in\n    tag_121:\n        /* \"#utility.yul\":3380:3383   */\n      dup3\n        /* \"#utility.yul\":3373:3410   */\n      mstore\n        /* \"#utility.yul\":3308:3416   */\n      pop\n      pop\n      jump\t// out\n        /* \"#utility.yul\":3422:3601   */\n    tag_57:\n        /* \"#utility.yul\":3491:3501   */\n      0x00\n        /* \"#utility.yul\":3512:3558   */\n      tag_123\n        /* \"#utility.yul\":3554:3557   */\n      dup4\n        /* \"#utility.yul\":3546:3552   */\n      dup4\n        /* \"#utility.yul\":3512:3558   */\n      tag_56\n      jump\t// in\n    tag_123:\n        /* \"#utility.yul\":3590:3594   */\n      0x20\n        /* \"#utility.yul\":3585:3588   */\n      dup4\n        /* \"#utility.yul\":3581:3595   */\n      add\n        /* \"#utility.yul\":3567:3595   */\n      swap1\n      pop\n        /* \"#utility.yul\":3422:3601   */\n      swap3\n      swap2\n      pop\n      pop\n      jump\t// out\n        /* \"#utility.yul\":3607:3720   */\n    tag_58:\n        /* \"#utility.yul\":3677:3681   */\n      0x00\n        /* \"#utility.yul\":3709:3713   */\n      0x20\n        /* \"#utility.yul\":3704:3707   */\n      dup3\n        /* \"#utility.yul\":3700:3714   */\n      add\n        /* \"#utility.yul\":3692:3714   */\n      swap1\n      pop\n        /* \"#utility.yul\":3607:3720   */\n      swap2\n      swap1\n      pop\n      jump\t// out\n        /* \"#utility.yul\":3756:4488   */\n    tag_59:\n        /* \"#utility.yul\":3875:3878   */\n      0x00\n        /* \"#utility.yul\":3904:3958   */\n      tag_126\n        /* \"#utility.yul\":3952:3957   */\n      dup3\n        /* \"#utility.yul\":3904:3958   */\n      tag_52\n      jump\t// in\n    tag_126:\n        /* \"#utility.yul\":3974:4060   */\n      tag_127\n        /* \"#utility.yul\":4053:4059   */\n      dup2\n        /* \"#utility.yul\":4048:4051   */\n      dup6\n        /* \"#utility.yul\":3974:4060   */\n      tag_53\n      jump\t// in\n    tag_127:\n        /* \"#utility.yul\":3967:4060   */\n      swap4\n      pop\n        /* \"#utility.yul\":4084:4140   */\n      tag_128\n        /* \"#utility.yul\":4134:4139   */\n      dup4\n        /* \"#utility.yul\":4084:4140   */\n      tag_54\n      jump\t// in\n    tag_128:\n        /* \"#utility.yul\":4163:4170   */\n      dup1\n        /* \"#utility.yul\":4194:4195   */\n      0x00\n        /* \"#utility.yul\":4179:4463   */\n    tag_129:\n        /* \"#utility.yul\":4204:4210   */\n      dup4\n        /* \"#utility.yul\":4201:4202   */\n      dup2\n        /* \"#utility.yul\":4198:4211   */\n      lt\n        /* \"#utility.yul\":4179:4463   */\n      iszero\n      tag_131\n      jumpi\n        /* \"#utility.yul\":4280:4286   */\n      dup2\n        /* \"#utility.yul\":4274:4287   */\n      mload\n        /* \"#utility.yul\":4307:4370   */\n      tag_132\n        /* \"#utility.yul\":4366:4369   */\n      dup9\n        /* \"#utility.yul\":4351:4364   */\n      dup3\n        /* \"#utility.yul\":4307:4370   */\n      tag_57\n      jump\t// in\n    tag_132:\n        /* \"#utility.yul\":4300:4370   */\n      swap8\n      pop\n        /* \"#utility.yul\":4393:4453   */\n      tag_133\n        /* \"#utility.yul\":4446:4452   */\n      dup4\n        /* \"#utility.yul\":4393:4453   */\n      tag_58\n      jump\t// in\n    tag_133:\n        /* \"#utility.yul\":4383:4453   */\n      swap3\n      pop\n        /* \"#utility.yul\":4239:4463   */\n      pop\n        /* \"#utility.yul\":4226:4227   */\n      0x01\n        /* \"#utility.yul\":4223:4224   */\n      dup2\n        /* \"#utility.yul\":4219:4228   */\n      add\n        /* \"#utility.yul\":4214:4228   */\n      swap1\n      pop\n        /* \"#utility.yul\":4179:4463   */\n      jump(tag_129)\n    tag_131:\n        /* \"#utility.yul\":4183:4197   */\n      pop\n        /* \"#utility.yul\":4479:4482   */\n      dup6\n        /* \"#utility.yul\":4472:4482   */\n      swap4\n      pop\n        /* \"#utility.yul\":3880:4488   */\n      pop\n      pop\n      pop\n        /* \"#utility.yul\":3756:4488   */\n      swap3\n      swap2\n      pop\n      pop\n      jump\t// out\n        /* \"#utility.yul\":4494:4867   */\n    tag_10:\n        /* \"#utility.yul\":4637:4641   */\n      0x00\n        /* \"#utility.yul\":4675:4677   */\n      0x20\n        /* \"#utility.yul\":4664:4673   */\n      dup3\n        /* \"#utility.yul\":4660:4678   */\n      add\n        /* \"#utility.yul\":4652:4678   */\n      swap1\n      pop\n        /* \"#utility.yul\":4724:4733   */\n      dup2\n        /* \"#utility.yul\":4718:4722   */\n      dup2\n        /* \"#utility.yul\":4714:4734   */\n      sub\n        /* \"#utility.yul\":4710:4711   */\n      0x00\n        /* \"#utility.yul\":4699:4708   */\n      dup4\n        /* \"#utility.yul\":4695:4712   */\n      add\n        /* \"#utility.yul\":4688:4735   */\n      mstore\n        /* \"#utility.yul\":4752:4860   */\n      tag_135\n        /* \"#utility.yul\":4855:4859   */\n      dup2\n        /* \"#utility.yul\":4846:4852   */\n      dup5\n        /* \"#utility.yul\":4752:4860   */\n      tag_59\n      jump\t// in\n    tag_135:\n        /* \"#utility.yul\":4744:4860   */\n      swap1\n      pop\n        /* \"#utility.yul\":4494:4867   */\n      swap3\n      swap2\n      pop\n      pop\n      jump\t// out\n        /* \"#utility.yul\":4873:4999   */\n    tag_60:\n        /* \"#utility.yul\":4910:4917   */\n      0x00\n        /* \"#utility.yul\":4950:4992   */\n      0xffffffffffffffffffffffffffffffffffffffff\n        /* \"#utility.yul\":4943:4948   */\n      dup3\n        /* \"#utility.yul\":4939:4993   */\n      and\n        /* \"#utility.yul\":4928:4993   */\n      swap1\n      pop\n        /* \"#utility.yul\":4873:4999   */\n      swap2\n      swap1\n      pop\n      jump\t// out\n        /* \"#utility.yul\":5005:5101   */\n    tag_61:\n        /* \"#utility.yul\":5042:5049   */\n      0x00\n        /* \"#utility.yul\":5071:5095   */\n      tag_138\n        /* \"#utility.yul\":5089:5094   */\n      dup3\n        /* \"#utility.yul\":5071:5095   */\n      tag_60\n      jump\t// in\n    tag_138:\n        /* \"#utility.yul\":5060:5095   */\n      swap1\n      pop\n        /* \"#utility.yul\":5005:5101   */\n      swap2\n      swap1\n      pop\n      jump\t// out\n        /* \"#utility.yul\":5107:5229   */\n    tag_62:\n        /* \"#utility.yul\":5180:5204   */\n      tag_140\n        /* \"#utility.yul\":5198:5203   */\n      dup2\n        /* \"#utility.yul\":5180:5204   */\n      tag_61\n      jump\t// in\n    tag_140:\n        /* \"#utility.yul\":5173:5178   */\n      dup2\n        /* \"#utility.yul\":5170:5205   */\n      eq\n        /* \"#utility.yul\":5160:5223   */\n      tag_141\n      jumpi\n        /* \"#utility.yul\":5219:5220   */\n      0x00\n        /* \"#utility.yul\":5216:5217   */\n      dup1\n        /* \"#utility.yul\":5209:5221   */\n      revert\n        /* \"#utility.yul\":5160:5223   */\n    tag_141:\n        /* \"#utility.yul\":5107:5229   */\n      pop\n      jump\t// out\n        /* \"#utility.yul\":5235:5374   */\n    tag_63:\n        /* \"#utility.yul\":5281:5286   */\n      0x00\n        /* \"#utility.yul\":5319:5325   */\n      dup2\n        /* \"#utility.yul\":5306:5326   */\n      calldataload\n        /* \"#utility.yul\":5297:5326   */\n      swap1\n      pop\n        /* \"#utility.yul\":5335:5368   */\n      tag_143\n        /* \"#utility.yul\":5362:5367   */\n      dup2\n        /* \"#utility.yul\":5335:5368   */\n      tag_62\n      jump\t// in\n    tag_143:\n        /* \"#utility.yul\":5235:5374   */\n      swap3\n      swap2\n      pop\n      pop\n      jump\t// out\n        /* \"#utility.yul\":5380:5709   */\n    tag_13:\n        /* \"#utility.yul\":5439:5445   */\n      0x00\n        /* \"#utility.yul\":5488:5490   */\n      0x20\n        /* \"#utility.yul\":5476:5485   */\n      dup3\n        /* \"#utility.yul\":5467:5474   */\n      dup5\n        /* \"#utility.yul\":5463:5486   */\n      sub\n        /* \"#utility.yul\":5459:5491   */\n      slt\n        /* \"#utility.yul\":5456:5575   */\n      iszero\n      tag_145\n      jumpi\n        /* \"#utility.yul\":5494:5573   */\n      tag_146\n      tag_45\n      jump\t// in\n    tag_146:\n        /* \"#utility.yul\":5456:5575   */\n    tag_145:\n        /* \"#utility.yul\":5614:5615   */\n      0x00\n        /* \"#utility.yul\":5639:5692   */\n      tag_147\n        /* \"#utility.yul\":5684:5691   */\n      dup5\n        /* \"#utility.yul\":5675:5681   */\n      dup3\n        /* \"#utility.yul\":5664:5673   */\n      dup6\n        /* \"#utility.yul\":5660:5682   */\n      add\n        /* \"#utility.yul\":5639:5692   */\n      tag_63\n      jump\t// in\n    tag_147:\n        /* \"#utility.yul\":5629:5692   */\n      swap2\n      pop\n        /* \"#utility.yul\":5585:5702   */\n      pop\n        /* \"#utility.yul\":5380:5709   */\n      swap3\n      swap2\n      pop\n      pop\n      jump\t// out\n        /* \"#utility.yul\":5715:5833   */\n    tag_64:\n        /* \"#utility.yul\":5802:5826   */\n      tag_149\n        /* \"#utility.yul\":5820:5825   */\n      dup2\n        /* \"#utility.yul\":5802:5826   */\n      tag_55\n      jump\t// in\n    tag_149:\n        /* \"#utility.yul\":5797:5800   */\n      dup3\n        /* \"#utility.yul\":5790:5827   */\n      mstore\n        /* \"#utility.yul\":5715:5833   */\n      pop\n      pop\n      jump\t// out\n        /* \"#utility.yul\":5839:5938   */\n    tag_65:\n        /* \"#utility.yul\":5891:5897   */\n      0x00\n        /* \"#utility.yul\":5925:5930   */\n      dup2\n        /* \"#utility.yul\":5919:5931   */\n      mload\n        /* \"#utility.yul\":5909:5931   */\n      swap1\n      pop\n        /* \"#utility.yul\":5839:5938   */\n      swap2\n      swap1\n      pop\n      jump\t// out\n        /* \"#utility.yul\":5944:6113   */\n    tag_66:\n        /* \"#utility.yul\":6028:6039   */\n      0x00\n        /* \"#utility.yul\":6062:6068   */\n      dup3\n        /* \"#utility.yul\":6057:6060   */\n      dup3\n        /* \"#utility.yul\":6050:6069   */\n      mstore\n        /* \"#utility.yul\":6102:6106   */\n      0x20\n        /* \"#utility.yul\":6097:6100   */\n      dup3\n        /* \"#utility.yul\":6093:6107   */\n      add\n        /* \"#utility.yul\":6078:6107   */\n      swap1\n      pop\n        /* \"#utility.yul\":5944:6113   */\n      swap3\n      swap2\n      pop\n      pop\n      jump\t// out\n        /* \"#utility.yul\":6119:6258   */\n    tag_67:\n        /* \"#utility.yul\":6208:6214   */\n      dup3\n        /* \"#utility.yul\":6203:6206   */\n      dup2\n        /* \"#utility.yul\":6198:6201   */\n      dup4\n        /* \"#utility.yul\":6192:6215   */\n      mcopy\n        /* \"#utility.yul\":6249:6250   */\n      0x00\n        /* \"#utility.yul\":6240:6246   */\n      dup4\n        /* \"#utility.yul\":6235:6238   */\n      dup4\n        /* \"#utility.yul\":6231:6247   */\n      add\n        /* \"#utility.yul\":6224:6251   */\n      mstore\n        /* \"#utility.yul\":6119:6258   */\n      pop\n      pop\n      pop\n      jump\t// out\n        /* \"#utility.yul\":6264:6366   */\n    tag_68:\n        /* \"#utility.yul\":6305:6311   */\n      0x00\n        /* \"#utility.yul\":6356:6358   */\n      0x1f\n        /* \"#utility.yul\":6352:6359   */\n      not\n        /* \"#utility.yul\":6347:6349   */\n      0x1f\n        /* \"#utility.yul\":6340:6345   */\n      dup4\n        /* \"#utility.yul\":6336:6350   */\n      add\n        /* \"#utility.yul\":6332:6360   */\n      and\n        /* \"#utility.yul\":6322:6360   */\n      swap1\n      pop\n        /* \"#utility.yul\":6264:6366   */\n      swap2\n      swap1\n      pop\n      jump\t// out\n        /* \"#utility.yul\":6372:6749   */\n    tag_69:\n        /* \"#utility.yul\":6460:6463   */\n      0x00\n        /* \"#utility.yul\":6488:6527   */\n      tag_155\n        /* \"#utility.yul\":6521:6526   */\n      dup3\n        /* \"#utility.yul\":6488:6527   */\n      tag_65\n      jump\t// in\n    tag_155:\n        /* \"#utility.yul\":6543:6614   */\n      tag_156\n        /* \"#utility.yul\":6607:6613   */\n      dup2\n        /* \"#utility.yul\":6602:6605   */\n      dup6\n        /* \"#utility.yul\":6543:6614   */\n      tag_66\n      jump\t// in\n    tag_156:\n        /* \"#utility.yul\":6536:6614   */\n      swap4\n      pop\n        /* \"#utility.yul\":6623:6688   */\n      tag_157\n        /* \"#utility.yul\":6681:6687   */\n      dup2\n        /* \"#utility.yul\":6676:6679   */\n      dup6\n        /* \"#utility.yul\":6669:6673   */\n      0x20\n        /* \"#utility.yul\":6662:6667   */\n      dup7\n        /* \"#utility.yul\":6658:6674   */\n      add\n        /* \"#utility.yul\":6623:6688   */\n      tag_67\n      jump\t// in\n    tag_157:\n        /* \"#utility.yul\":6713:6742   */\n      tag_158\n        /* \"#utility.yul\":6735:6741   */\n      dup2\n        /* \"#utility.yul\":6713:6742   */\n      tag_68\n      jump\t// in\n    tag_158:\n        /* \"#utility.yul\":6708:6711   */\n      dup5\n        /* \"#utility.yul\":6704:6743   */\n      add\n        /* \"#utility.yul\":6697:6743   */\n      swap2\n      pop\n        /* \"#utility.yul\":6464:6749   */\n      pop\n        /* \"#utility.yul\":6372:6749   */\n      swap3\n      swap2\n      pop\n      pop\n      jump\t// out\n        /* \"#utility.yul\":6755:7178   */\n    tag_16:\n        /* \"#utility.yul\":6896:6900   */\n      0x00\n        /* \"#utility.yul\":6934:6936   */\n      0x40\n        /* \"#utility.yul\":6923:6932   */\n      dup3\n        /* \"#utility.yul\":6919:6937   */\n      add\n        /* \"#utility.yul\":6911:6937   */\n      swap1\n      pop\n        /* \"#utility.yul\":6947:7018   */\n      tag_160\n        /* \"#utility.yul\":7015:7016   */\n      0x00\n        /* \"#utility.yul\":7004:7013   */\n      dup4\n        /* \"#utility.yul\":7000:7017   */\n      add\n        /* \"#utility.yul\":6991:6997   */\n      dup6\n        /* \"#utility.yul\":6947:7018   */\n      tag_64\n      jump\t// in\n    tag_160:\n        /* \"#utility.yul\":7065:7074   */\n      dup2\n        /* \"#utility.yul\":7059:7063   */\n      dup2\n        /* \"#utility.yul\":7055:7075   */\n      sub\n        /* \"#utility.yul\":7050:7052   */\n      0x20\n        /* \"#utility.yul\":7039:7048   */\n      dup4\n        /* \"#utility.yul\":7035:7053   */\n      add\n        /* \"#utility.yul\":7028:7076   */\n      mstore\n        /* \"#utility.yul\":7093:7171   */\n      tag_161\n        /* \"#utility.yul\":7166:7170   */\n      dup2\n        /* \"#utility.yul\":7157:7163   */\n      dup5\n        /* \"#utility.yul\":7093:7171   */\n      tag_69\n      jump\t// in\n    tag_161:\n        /* \"#utility.yul\":7085:7171   */\n      swap1\n      pop\n        /* \"#utility.yul\":6755:7178   */\n      swap4\n      swap3\n      pop\n      pop\n      pop\n      jump\t// out\n        /* \"#utility.yul\":7184:7364   */\n    tag_31:\n        /* \"#utility.yul\":7232:7309   */\n      0x4e487b7100000000000000000000000000000000000000000000000000000000\n        /* \"#utility.yul\":7229:7230   */\n      0x00\n        /* \"#utility.yul\":7222:7310   */\n      mstore\n        /* \"#utility.yul\":7329:7333   */\n      0x41\n        /* \"#utility.yul\":7326:7327   */\n      0x04\n        /* \"#utility.yul\":7319:7334   */\n      mstore\n        /* \"#utility.yul\":7353:7357   */\n      0x24\n        /* \"#utility.yul\":7350:7351   */\n      0x00\n        /* \"#utility.yul\":7343:7358   */\n      revert\n        /* \"#utility.yul\":7370:7550   */\n    tag_70:\n        /* \"#utility.yul\":7418:7495   */\n      0x4e487b7100000000000000000000000000000000000000000000000000000000\n        /* \"#utility.yul\":7415:7416   */\n      0x00\n        /* \"#utility.yul\":7408:7496   */\n      mstore\n        /* \"#utility.yul\":7515:7519   */\n      0x22\n        /* \"#utility.yul\":7512:7513   */\n      0x04\n        /* \"#utility.yul\":7505:7520   */\n      mstore\n        /* \"#utility.yul\":7539:7543   */\n      0x24\n        /* \"#utility.yul\":7536:7537   */\n      0x00\n        /* \"#utility.yul\":7529:7544   */\n      revert\n        /* \"#utility.yul\":7556:7876   */\n    tag_22:\n        /* \"#utility.yul\":7600:7606   */\n      0x00\n        /* \"#utility.yul\":7637:7638   */\n      0x02\n        /* \"#utility.yul\":7631:7635   */\n      dup3\n        /* \"#utility.yul\":7627:7639   */\n      div\n        /* \"#utility.yul\":7617:7639   */\n      swap1\n      pop\n        /* \"#utility.yul\":7684:7685   */\n      0x01\n        /* \"#utility.yul\":7678:7682   */\n      dup3\n        /* \"#utility.yul\":7674:7686   */\n      and\n        /* \"#utility.yul\":7705:7723   */\n      dup1\n        /* \"#utility.yul\":7695:7776   */\n      tag_165\n      jumpi\n        /* \"#utility.yul\":7761:7765   */\n      0x7f\n        /* \"#utility.yul\":7753:7759   */\n      dup3\n        /* \"#utility.yul\":7749:7766   */\n      and\n        /* \"#utility.yul\":7739:7766   */\n      swap2\n      pop\n        /* \"#utility.yul\":7695:7776   */\n    tag_165:\n        /* \"#utility.yul\":7823:7825   */\n      0x20\n        /* \"#utility.yul\":7815:7821   */\n      dup3\n        /* \"#utility.yul\":7812:7826   */\n      lt\n        /* \"#utility.yul\":7792:7810   */\n      dup2\n        /* \"#utility.yul\":7789:7827   */\n      sub\n        /* \"#utility.yul\":7786:7870   */\n      tag_166\n      jumpi\n        /* \"#utility.yul\":7842:7860   */\n      tag_167\n      tag_70\n      jump\t// in\n    tag_167:\n        /* \"#utility.yul\":7786:7870   */\n    tag_166:\n        /* \"#utility.yul\":7607:7876   */\n      pop\n        /* \"#utility.yul\":7556:7876   */\n      swap2\n      swap1\n      pop\n      jump\t// out\n        /* \"#utility.yul\":7882:8023   */\n    tag_71:\n        /* \"#utility.yul\":7931:7935   */\n      0x00\n        /* \"#utility.yul\":7954:7957   */\n      dup2\n        /* \"#utility.yul\":7946:7957   */\n      swap1\n      pop\n        /* \"#utility.yul\":7977:7980   */\n      dup2\n        /* \"#utility.yul\":7974:7975   */\n      0x00\n        /* \"#utility.yul\":7967:7981   */\n      mstore\n        /* \"#utility.yul\":8011:8015   */\n      0x20\n        /* \"#utility.yul\":8008:8009   */\n      0x00\n        /* \"#utility.yul\":7998:8016   */\n      keccak256\n        /* \"#utility.yul\":7990:8016   */\n      swap1\n      pop\n        /* \"#utility.yul\":7882:8023   */\n      swap2\n      swap1\n      pop\n      jump\t// out\n        /* \"#utility.yul\":8029:8122   */\n    tag_72:\n        /* \"#utility.yul\":8066:8072   */\n      0x00\n        /* \"#utility.yul\":8113:8115   */\n      0x20\n        /* \"#utility.yul\":8108:8110   */\n      0x1f\n        /* \"#utility.yul\":8101:8106   */\n      dup4\n        /* \"#utility.yul\":8097:8111   */\n      add\n        /* \"#utility.yul\":8093:8116   */\n      div\n        /* \"#utility.yul\":8083:8116   */\n      swap1\n      pop\n        /* \"#utility.yul\":8029:8122   */\n      swap2\n      swap1\n      pop\n      jump\t// out\n        /* \"#utility.yul\":8128:8235   */\n    tag_73:\n        /* \"#utility.yul\":8172:8180   */\n      0x00\n        /* \"#utility.yul\":8222:8227   */\n      dup3\n        /* \"#utility.yul\":8216:8220   */\n      dup3\n        /* \"#utility.yul\":8212:8228   */\n      shl\n        /* \"#utility.yul\":8191:8228   */\n      swap1\n      pop\n        /* \"#utility.yul\":8128:8235   */\n      swap3\n      swap2\n      pop\n      pop\n      jump\t// out\n        /* \"#utility.yul\":8241:8634   */\n    tag_74:\n        /* \"#utility.yul\":8310:8316   */\n      0x00\n        /* \"#utility.yul\":8360:8361   */\n      0x08\n        /* \"#utility.yul\":8348:8358   */\n      dup4\n        /* \"#utility.yul\":8344:8362   */\n      mul\n        /* \"#utility.yul\":8383:8480   */\n      tag_172\n        /* \"#utility.yul\":8413:8479   */\n      0xffffffffffffffffffffffffffffffffffffffffffffffffffffffffffffffff\n        /* \"#utility.yul\":8402:8411   */\n      dup3\n        /* \"#utility.yul\":8383:8480   */\n      tag_73\n      jump\t// in\n    tag_172:\n        /* \"#utility.yul\":8501:8540   */\n      tag_173\n        /* \"#utility.yul\":8531:8539   */\n      dup7\n        /* \"#utility.yul\":8520:8529   */\n      dup4\n        /* \"#utility.yul\":8501:8540   */\n      tag_73\n      jump\t// in\n    tag_173:\n        /* \"#utility.yul\":8489:8540   */\n      swap6\n      pop\n        /* \"#utility.yul\":8573:8577   */\n      dup1\n        /* \"#utility.yul\":8569:8578   */\n      not\n        /* \"#utility.yul\":8562:8567   */\n      dup5\n        /* \"#utility.yul\":8558:8579   */\n      and\n        /* \"#utility.yul\":8549:8579   */\n      swap4\n      pop\n        /* \"#utility.yul\":8622:8626   */\n      dup1\n        /* \"#utility.yul\":8612:8620   */\n      dup7\n        /* \"#utility.yul\":8608:8627   */\n      and\n        /* \"#utility.yul\":8601:8606   */\n      dup5\n        /* \"#utility.yul\":8598:8628   */\n      or\n        /* \"#utility.yul\":8588:8628   */\n      swap3\n      pop\n        /* \"#utility.yul\":8317:8634   */\n      pop\n      pop\n        /* \"#utility.yul\":8241:8634   */\n      swap4\n      swap3\n      pop\n      pop\n      pop\n      jump\t// out\n        /* \"#utility.yul\":8640:8700   */\n    tag_75:\n        /* \"#utility.yul\":8668:8671   */\n      0x00\n        /* \"#utility.yul\":8689:8694   */\n      dup2\n        /* \"#utility.yul\":8682:8694   */\n      swap1\n      pop\n        /* \"#utility.yul\":8640:8700   */\n      swap2\n      swap1\n      pop\n      jump\t// out\n        /* \"#utility.yul\":8706:8848   */\n    tag_76:\n        /* \"#utility.yul\":8756:8765   */\n      0x00\n        /* \"#utility.yul\":8789:8842   */\n      tag_176\n        /* \"#utility.yul\":8807:8841   */\n      tag_177\n        /* \"#utility.yul\":8816:8840   */\n      tag_178\n        /* \"#utility.yul\":8834:8839   */\n      dup5\n        /* \"#utility.yul\":8816:8840   */\n      tag_55\n      jump\t// in\n    tag_178:\n        /* \"#utility.yul\":8807:8841   */\n      tag_75\n      jump\t// in\n    tag_177:\n        /* \"#utility.yul\":8789:8842   */\n      tag_55\n      jump\t// in\n    tag_176:\n        /* \"#utility.yul\":8776:8842   */\n      swap1\n      pop\n        /* \"#utility.yul\":8706:8848   */\n      swap2\n      swap1\n      pop\n      jump\t// out\n        /* \"#utility.yul\":8854:8929   */\n    tag_77:\n        /* \"#utility.yul\":8897:8900   */\n      0x00\n        /* \"#utility.yul\":8918:8923   */\n      dup2\n        /* \"#utility.yul\":8911:8923   */\n      swap1\n      pop\n        /* \"#utility.yul\":8854:8929   */\n      swap2\n      swap1\n      pop\n      jump\t// out\n        /* \"#utility.yul\":8935:9204   */\n    tag_78:\n        /* \"#utility.yul\":9045:9084   */\n      tag_181\n        /* \"#utility.yul\":9076:9083   */\n      dup4\n        /* \"#utility.yul\":9045:9084   */\n      tag_76\n      jump\t// in\n    tag_181:\n        /* \"#utility.yul\":9106:9197   */\n      tag_182\n        /* \"#utility.yul\":9155:9196   */\n      tag_183\n        /* \"#utility.yul\":9179:9195   */\n      dup3\n        /* \"#utility.yul\":9155:9196   */\n      tag_77\n      jump\t// in\n    tag_183:\n        /* \"#utility.yul\":9147:9153   */\n      dup5\n        /* \"#utility.yul\":9140:9144   */\n      dup5\n        /* \"#utility.yul\":9134:9145   */\n      sload\n        /* \"#utility.yul\":9106:9197   */\n      tag_74\n      jump\t// in\n    tag_182:\n        /* \"#utility.yul\":9100:9104   */\n      dup3\n        /* \"#utility.yul\":9093:9198   */\n      sstore\n        /* \"#utility.yul\":9011:9204   */\n      pop\n        /* \"#utility.yul\":8935:9204   */\n      pop\n      pop\n      pop\n      jump\t// out\n        /* \"#utility.yul\":9210:9283   */\n    tag_79:\n        /* \"#utility.yul\":9255:9258   */\n      0x00\n        /* \"#utility.yul\":9210:9283   */\n      swap1\n      jump\t// out\n        /* \"#utility.yul\":9289:9478   */\n    tag_80:\n        /* \"#utility.yul\":9366:9398   */\n      tag_186\n      tag_79\n      jump\t// in\n    tag_186:\n        /* \"#utility.yul\":9407:9472   */\n      tag_187\n        /* \"#utility.yul\":9465:9471   */\n      dup2\n        /* \"#utility.yul\":9457:9463   */\n      dup5\n        /* \"#utility.yul\":9451:9455   */\n      dup5\n        /* \"#utility.yul\":9407:9472   */\n      tag_78\n      jump\t// in\n    tag_187:\n        /* \"#utility.yul\":9342:9478   */\n      pop\n        /* \"#utility.yul\":9289:9478   */\n      pop\n      pop\n      jump\t// out\n        /* \"#utility.yul\":9484:9670   */\n    tag_81:\n        /* \"#utility.yul\":9544:9664   */\n    tag_189:\n        /* \"#utility.yul\":9561:9564   */\n      dup2\n        /* \"#utility.yul\":9554:9559   */\n      dup2\n        /* \"#utility.yul\":9551:9565   */\n      lt\n        /* \"#utility.yul\":9544:9664   */\n      iszero\n      tag_191\n      jumpi\n        /* \"#utility.yul\":9615:9654   */\n      tag_192\n        /* \"#utility.yul\":9652:9653   */\n      0x00\n        /* \"#utility.yul\":9645:9650   */\n      dup3\n        /* \"#utility.yul\":9615:9654   */\n      tag_80\n      jump\t// in\n    tag_192:\n        /* \"#utility.yul\":9588:9589   */\n      0x01\n        /* \"#utility.yul\":9581:9586   */\n      dup2\n        /* \"#utility.yul\":9577:9590   */\n      add\n        /* \"#utility.yul\":9568:9590   */\n      swap1\n      pop\n        /* \"#utility.yul\":9544:9664   */\n      jump(tag_189)\n    tag_191:\n        /* \"#utility.yul\":9484:9670   */\n      pop\n      pop\n      jump\t// out\n        /* \"#utility.yul\":9676:10219   */\n    tag_82:\n        /* \"#utility.yul\":9777:9779   */\n      0x1f\n        /* \"#utility.yul\":9772:9775   */\n      dup3\n        /* \"#utility.yul\":9769:9780   */\n      gt\n        /* \"#utility.yul\":9766:10212   */\n      iszero\n      tag_194\n      jumpi\n        /* \"#utility.yul\":9811:9849   */\n      tag_195\n        /* \"#utility.yul\":9843:9848   */\n      dup2\n        /* \"#utility.yul\":9811:9849   */\n      tag_71\n      jump\t// in\n    tag_195:\n        /* \"#utility.yul\":9895:9924   */\n      tag_196\n        /* \"#utility.yul\":9913:9923   */\n      dup5\n        /* \"#utility.yul\":9895:9924   */\n      tag_72\n      jump\t// in\n    tag_196:\n        /* \"#utility.yul\":9885:9893   */\n      dup2\n        /* \"#utility.yul\":9881:9925   */\n      add\n        /* \"#utility.yul\":10078:10080   */\n      0x20\n        /* \"#utility.yul\":10066:10076   */\n      dup6\n        /* \"#utility.yul\":10063:10081   */\n      lt\n        /* \"#utility.yul\":10060:10109   */\n      iszero\n      tag_197\n      jumpi\n        /* \"#utility.yul\":10099:10107   */\n      dup2\n        /* \"#utility.yul\":10084:10107   */\n      swap1\n      pop\n        /* \"#utility.yul\":10060:10109   */\n    tag_197:\n        /* \"#utility.yul\":10122:10202   */\n      tag_198\n        /* \"#utility.yul\":10178:10200   */\n      tag_199\n        /* \"#utility.yul\":10196:10199   */\n      dup6\n        /* \"#utility.yul\":10178:10200   */\n      tag_72\n      jump\t// in\n    tag_199:\n        /* \"#utility.yul\":10168:10176   */\n      dup4\n        /* \"#utility.yul\":10164:10201   */\n      add\n        /* \"#utility.yul\":10151:10162   */\n      dup3\n        /* \"#utility.yul\":10122:10202   */\n      tag_81\n      jump\t// in\n    tag_198:\n        /* \"#utility.yul\":9781:10212   */\n      pop\n      pop\n        /* \"#utility.yul\":9766:10212   */\n    tag_194:\n        /* \"#utility.yul\":9676:10219   */\n      pop\n      pop\n      pop\n      jump\t// out\n        /* \"#utility.yul\":10225:10342   */\n    tag_83:\n        /* \"#utility.yul\":10279:10287   */\n      0x00\n        /* \"#utility.yul\":10329:10334   */\n      dup3\n        /* \"#utility.yul\":10323:10327   */\n      dup3\n        /* \"#utility.yul\":10319:10335   */\n      shr\n        /* \"#utility.yul\":10298:10335   */\n      swap1\n      pop\n        /* \"#utility.yul\":10225:10342   */\n      swap3\n      swap2\n      pop\n      pop\n      jump\t// out\n        /* \"#utility.yul\":10348:10517   */\n    tag_84:\n        /* \"#utility.yul\":10392:10398   */\n      0x00\n        /* \"#utility.yul\":10425:10476   */\n      tag_202\n        /* \"#utility.yul\":10473:10474   */\n      0x00\n        /* \"#utility.yul\":10469:10475   */\n      not\n        /* \"#utility.yul\":10461:10466   */\n      dup5\n        /* \"#utility.yul\":10458:10459   */\n      0x08\n        /* \"#utility.yul\":10454:10467   */\n      mul\n        /* \"#utility.yul\":10425:10476   */\n      tag_83\n      jump\t// in\n    tag_202:\n        /* \"#utility.yul\":10421:10477   */\n      not\n        /* \"#utility.yul\":10506:10510   */\n      dup1\n        /* \"#utility.yul\":10500:10504   */\n      dup4\n        /* \"#utility.yul\":10496:10511   */\n      and\n        /* \"#utility.yul\":10486:10511   */\n      swap2\n      pop\n        /* \"#utility.yul\":10399:10517   */\n      pop\n        /* \"#utility.yul\":10348:10517   */\n      swap3\n      swap2\n      pop\n      pop\n      jump\t// out\n        /* \"#utility.yul\":10522:10817   */\n    tag_85:\n        /* \"#utility.yul\":10598:10602   */\n      0x00\n        /* \"#utility.yul\":10744:10773   */\n      tag_204\n        /* \"#utility.yul\":10769:10772   */\n      dup4\n        /* \"#utility.yul\":10763:10767   */\n      dup4\n        /* \"#utility.yul\":10744:10773   */\n      tag_84\n      jump\t// in\n    tag_204:\n        /* \"#utility.yul\":10736:10773   */\n      swap2\n      pop\n        /* \"#utility.yul\":10806:10809   */\n      dup3\n        /* \"#utility.yul\":10803:10804   */\n      0x02\n        /* \"#utility.yul\":10799:10810   */\n      mul\n        /* \"#utility.yul\":10793:10797   */\n      dup3\n        /* \"#utility.yul\":10790:10811   */\n      or\n        /* \"#utility.yul\":10782:10811   */\n      swap1\n      pop\n        /* \"#utility.yul\":10522:10817   */\n      swap3\n      swap2\n      pop\n      pop\n      jump\t// out\n        /* \"#utility.yul\":10822:12217   */\n    tag_19:\n        /* \"#utility.yul\":10939:10976   */\n      tag_206\n        /* \"#utility.yul\":10972:10975   */\n      dup3\n        /* \"#utility.yul\":10939:10976   */\n      tag_65\n      jump\t// in\n    tag_206:\n        /* \"#utility.yul\":11041:11059   */\n      0xffffffffffffffff\n        /* \"#utility.yul\":11033:11039   */\n      dup2\n        /* \"#utility.yul\":11030:11060   */\n      gt\n        /* \"#utility.yul\":11027:11083   */\n      iszero\n      tag_207\n      jumpi\n        /* \"#utility.yul\":11063:11081   */\n      tag_208\n      tag_31\n      jump\t// in\n    tag_208:\n        /* \"#utility.yul\":11027:11083   */\n    tag_207:\n        /* \"#utility.yul\":11107:11145   */\n      tag_209\n        /* \"#utility.yul\":11139:11143   */\n      dup3\n        /* \"#utility.yul\":11133:11144   */\n      sload\n        /* \"#utility.yul\":11107:11145   */\n      tag_22\n      jump\t// in\n    tag_209:\n        /* \"#utility.yul\":11192:11259   */\n      tag_210\n        /* \"#utility.yul\":11252:11258   */\n      dup3\n        /* \"#utility.yul\":11244:11250   */\n      dup3\n        /* \"#utility.yul\":11238:11242   */\n      dup6\n        /* \"#utility.yul\":11192:11259   */\n      tag_82\n      jump\t// in\n    tag_210:\n        /* \"#utility.yul\":11286:11287   */\n      0x00\n        /* \"#utility.yul\":11310:11314   */\n      0x20\n        /* \"#utility.yul\":11297:11314   */\n      swap1\n      pop\n        /* \"#utility.yul\":11342:11344   */\n      0x1f\n        /* \"#utility.yul\":11334:11340   */\n      dup4\n        /* \"#utility.yul\":11331:11345   */\n      gt\n        /* \"#utility.yul\":11359:11360   */\n      0x01\n        /* \"#utility.yul\":11354:11972   */\n      dup2\n      eq\n      tag_212\n      jumpi\n        /* \"#utility.yul\":12016:12017   */\n      0x00\n        /* \"#utility.yul\":12033:12039   */\n      dup5\n        /* \"#utility.yul\":12030:12107   */\n      iszero\n      tag_213\n      jumpi\n        /* \"#utility.yul\":12082:12091   */\n      dup3\n        /* \"#utility.yul\":12077:12080   */\n      dup8\n        /* \"#utility.yul\":12073:12092   */\n      add\n        /* \"#utility.yul\":12067:12093   */\n      mload\n        /* \"#utility.yul\":12058:12093   */\n      swap1\n      pop\n        /* \"#utility.yul\":12030:12107   */\n    tag_213:\n        /* \"#utility.yul\":12133:12200   */\n      tag_214\n        /* \"#utility.yul\":12193:12199   */\n      dup6\n        /* \"#utility.yul\":12186:12191   */\n      dup3\n        /* \"#utility.yul\":12133:12200   */\n      tag_85\n      jump\t// in\n    tag_214:\n        /* \"#utility.yul\":12127:12131   */\n      dup7\n        /* \"#utility.yul\":12120:12201   */\n      sstore\n        /* \"#utility.yul\":11989:12211   */\n      pop\n        /* \"#utility.yul\":11324:12211   */\n      jump(tag_211)\n        /* \"#utility.yul\":11354:11972   */\n    tag_212:\n        /* \"#utility.yul\":11406:11410   */\n      0x1f\n        /* \"#utility.yul\":11402:11411   */\n      not\n        /* \"#utility.yul\":11394:11400   */\n      dup5\n        /* \"#utility.yul\":11390:11412   */\n      and\n        /* \"#utility.yul\":11440:11477   */\n      tag_215\n        /* \"#utility.yul\":11472:11476   */\n      dup7\n        /* \"#utility.yul\":11440:11477   */\n      tag_71\n      jump\t// in\n    tag_215:\n        /* \"#utility.yul\":11499:11500   */\n      0x00\n        /* \"#utility.yul\":11513:11721   */\n    tag_216:\n        /* \"#utility.yul\":11527:11534   */\n      dup3\n        /* \"#utility.yul\":11524:11525   */\n      dup2\n        /* \"#utility.yul\":11521:11535   */\n      lt\n        /* \"#utility.yul\":11513:11721   */\n      iszero\n      tag_218\n      jumpi\n        /* \"#utility.yul\":11606:11615   */\n      dup5\n        /* \"#utility.yul\":11601:11604   */\n      dup10\n        /* \"#utility.yul\":11597:11616   */\n      add\n        /* \"#utility.yul\":11591:11617   */\n      mload\n        /* \"#utility.yul\":11583:11589   */\n      dup3\n        /* \"#utility.yul\":11576:11618   */\n      sstore\n        /* \"#utility.yul\":11657:11658   */\n      0x01\n        /* \"#utility.yul\":11649:11655   */\n      dup3\n        /* \"#utility.yul\":11645:11659   */\n      add\n        /* \"#utility.yul\":11635:11659   */\n      swap2\n      pop\n        /* \"#utility.yul\":11704:11706   */\n      0x20\n        /* \"#utility.yul\":11693:11702   */\n      dup6\n        /* \"#utility.yul\":11689:11707   */\n      add\n        /* \"#utility.yul\":11676:11707   */\n      swap5\n      pop\n        /* \"#utility.yul\":11550:11554   */\n      0x20\n        /* \"#utility.yul\":11547:11548   */\n      dup2\n        /* \"#utility.yul\":11543:11555   */\n      add\n        /* \"#utility.yul\":11538:11555   */\n      swap1\n      pop\n        /* \"#utility.yul\":11513:11721   */\n      jump(tag_216)\n    tag_218:\n        /* \"#utility.yul\":11749:11755   */\n      dup7\n        /* \"#utility.yul\":11740:11747   */\n      dup4\n        /* \"#utility.yul\":11737:11756   */\n      lt\n        /* \"#utility.yul\":11734:11913   */\n      iszero\n      tag_219\n      jumpi\n        /* \"#utility.yul\":11807:11816   */\n      dup5\n        /* \"#utility.yul\":11802:11805   */\n      dup10\n        /* \"#utility.yul\":11798:11817   */\n      add\n        /* \"#utility.yul\":11792:11818   */\n      mload\n        /* \"#utility.yul\":11850:11898   */\n      tag_220\n        /* \"#utility.yul\":11892:11896   */\n      0x1f\n        /* \"#utility.yul\":11884:11890   */\n      dup10\n        /* \"#utility.yul\":11880:11897   */\n      and\n        /* \"#utility.yul\":11869:11878   */\n      dup3\n        /* \"#utility.yul\":11850:11898   */\n      tag_84\n      jump\t// in\n    tag_220:\n        /* \"#utility.yul\":11842:11848   */\n      dup4\n        /* \"#utility.yul\":11835:11899   */\n      sstore\n        /* \"#utility.yul\":11757:11913   */\n      pop\n        /* \"#utility.yul\":11734:11913   */\n    tag_219:\n        /* \"#utility.yul\":11959:11960   */\n      0x01\n        /* \"#utility.yul\":11955:11956   */\n      0x02\n        /* \"#utility.yul\":11947:11953   */\n      dup9\n        /* \"#utility.yul\":11943:11957   */\n      mul\n        /* \"#utility.yul\":11939:11961   */\n      add\n        /* \"#utility.yul\":11933:11937   */\n      dup9\n        /* \"#utility.yul\":11926:11962   */\n      sstore\n        /* \"#utility.yul\":11361:11972   */\n      pop\n      pop\n      pop\n        /* \"#utility.yul\":11324:12211   */\n    tag_211:\n      pop\n        /* \"#utility.yul\":10914:12217   */\n      pop\n      pop\n      pop\n        /* \"#utility.yul\":10822:12217   */\n      pop\n      pop\n      jump\t// out\n        /* \"#utility.yul\":12223:12403   */\n    tag_35:\n        /* \"#utility.yul\":12271:12348   */\n      0x4e487b7100000000000000000000000000000000000000000000000000000000\n        /* \"#utility.yul\":12268:12269   */\n      0x00\n        /* \"#utility.yul\":12261:12349   */\n      mstore\n        /* \"#utility.yul\":12368:12372   */\n      0x32\n        /* \"#utility.yul\":12365:12366   */\n      0x04\n        /* \"#utility.yul\":12358:12373   */\n      mstore\n        /* \"#utility.yul\":12392:12396   */\n      0x24\n        /* \"#utility.yul\":12389:12390   */\n      0x00\n        /* \"#utility.yul\":12382:12397   */\n      revert\n\n    auxdata: 0xa2646970667358221220af7536ed83e8d215bf337b35bd6183f2826fb7603bbf260d47d84ba38fa79c1064736f6c634300081a0033\n}\n",
				"bytecode": {
					"linkReferences": {},
					"object": "6080604052348015600e575f80fd5b50610aaa8061001c5f395ff3fe608060405234801561000f575f80fd5b5060043610610034575f3560e01c80639837ae1a14610038578063b43c5d3314610068575b5f80fd5b610052600480360381019061004d91906104c1565b610099565b60405161005f91906105ff565b60405180910390f35b610082600480360381019061007d9190610679565b61033c565b604051610090929190610723565b60405180910390f35b60606040518060400160405280607b81526020016040518060400160405280600381526020017f62617200000000000000000000000000000000000000000000000000000000008152508152505f803373ffffffffffffffffffffffffffffffffffffffff1673ffffffffffffffffffffffffffffffffffffffff1681526020019081526020015f205f820151815f0155602082015181600101908161013f9190610978565b509050505f805f3373ffffffffffffffffffffffffffffffffffffffff1673ffffffffffffffffffffffffffffffffffffffff1681526020019081526020015f2090506040518060400160405280600381526020017f666f6f00000000000000000000000000000000000000000000000000000000008152508160010190816101c89190610978565b505f805f3373ffffffffffffffffffffffffffffffffffffffff1673ffffffffffffffffffffffffffffffffffffffff1681526020019081526020015f206040518060400160405290815f820154815260200160018201805461022a906107ab565b80601f0160208091040260200160405190810160405280929190818152602001828054610256906107ab565b80156102a15780601f10610278576101008083540402835291602001916102a1565b820191905f5260205f20905b81548152906001019060200180831161028457829003601f168201915b50505050508152505090506101c8825f01819055506102c087876103e1565b5f600367ffffffffffffffff8111156102dc576102db610751565b5b60405190808252806020026020018201604052801561030a5781602001602082028036833780820191505090505b50905060ea815f8151811061032257610321610a47565b5b602002602001018181525050809350505050949350505050565b5f602052805f5260405f205f91509050805f015490806001018054610360906107ab565b80601f016020809104026020016040519081016040528092919081815260200182805461038c906107ab565b80156103d75780601f106103ae576101008083540402835291602001916103d7565b820191905f5260205f20905b8154815290600101906020018083116103ba57829003601f168201915b5050505050905082565b5f82825f8181106103f5576103f4610a47565b5b905060200201359050505050565b5f80fd5b5f80fd5b5f80fd5b5f80fd5b5f80fd5b5f8083601f84011261042c5761042b61040b565b5b8235905067ffffffffffffffff8111156104495761044861040f565b5b60208301915083602082028301111561046557610464610413565b5b9250929050565b5f8083601f8401126104815761048061040b565b5b8235905067ffffffffffffffff81111561049e5761049d61040f565b5b6020830191508360018202830111156104ba576104b9610413565b5b9250929050565b5f805f80604085870312156104d9576104d8610403565b5b5f85013567ffffffffffffffff8111156104f6576104f5610407565b5b61050287828801610417565b9450945050602085013567ffffffffffffffff81111561052557610524610407565b5b6105318782880161046c565b925092505092959194509250565b5f81519050919050565b5f82825260208201905092915050565b5f819050602082019050919050565b5f819050919050565b61057a81610568565b82525050565b5f61058b8383610571565b60208301905092915050565b5f602082019050919050565b5f6105ad8261053f565b6105b78185610549565b93506105c283610559565b805f5b838110156105f25781516105d98882610580565b97506105e483610597565b9250506001810190506105c5565b5085935050505092915050565b5f6020820190508181035f83015261061781846105a3565b905092915050565b5f73ffffffffffffffffffffffffffffffffffffffff82169050919050565b5f6106488261061f565b9050919050565b6106588161063e565b8114610662575f80fd5b50565b5f813590506106738161064f565b92915050565b5f6020828403121561068e5761068d610403565b5b5f61069b84828501610665565b91505092915050565b6106ad81610568565b82525050565b5f81519050919050565b5f82825260208201905092915050565b8281835e5f83830152505050565b5f601f19601f8301169050919050565b5f6106f5826106b3565b6106ff81856106bd565b935061070f8185602086016106cd565b610718816106db565b840191505092915050565b5f6040820190506107365f8301856106a4565b818103602083015261074881846106eb565b90509392505050565b7f4e487b71000000000000000000000000000000000000000000000000000000005f52604160045260245ffd5b7f4e487b71000000000000000000000000000000000000000000000000000000005f52602260045260245ffd5b5f60028204905060018216806107c257607f821691505b6020821081036107d5576107d461077e565b5b50919050565b5f819050815f5260205f209050919050565b5f6020601f8301049050919050565b5f82821b905092915050565b5f600883026108377fffffffffffffffffffffffffffffffffffffffffffffffffffffffffffffffff826107fc565b61084186836107fc565b95508019841693508086168417925050509392505050565b5f819050919050565b5f61087c61087761087284610568565b610859565b610568565b9050919050565b5f819050919050565b61089583610862565b6108a96108a182610883565b848454610808565b825550505050565b5f90565b6108bd6108b1565b6108c881848461088c565b505050565b5b818110156108eb576108e05f826108b5565b6001810190506108ce565b5050565b601f82111561093057610901816107db565b61090a846107ed565b81016020851015610919578190505b61092d610925856107ed565b8301826108cd565b50505b505050565b5f82821c905092915050565b5f6109505f1984600802610935565b1980831691505092915050565b5f6109688383610941565b9150826002028217905092915050565b610981826106b3565b67ffffffffffffffff81111561099a57610999610751565b5b6109a482546107ab565b6109af8282856108ef565b5f60209050601f8311600181146109e0575f84156109ce578287015190505b6109d8858261095d565b865550610a3f565b601f1984166109ee866107db565b5f5b82811015610a15578489015182556001820191506020850194506020810190506109f0565b86831015610a325784890151610a2e601f891682610941565b8355505b6001600288020188555050505b505050505050565b7f4e487b71000000000000000000000000000000000000000000000000000000005f52603260045260245ffdfea2646970667358221220af7536ed83e8d215bf337b35bd6183f2826fb7603bbf260d47d84ba38fa79c1064736f6c634300081a0033",
					"opcodes": "PUSH1 0x80 PUSH1 0x40 MSTORE CALLVALUE DUP1 ISZERO PUSH1 0xE JUMPI PUSH0 DUP1 REVERT JUMPDEST POP PUSH2 0xAAA DUP1 PUSH2 0x1C PUSH0 CODECOPY PUSH0 RETURN INVALID PUSH1 0x80 PUSH1 0x40 MSTORE CALLVALUE DUP1 ISZERO PUSH2 0xF JUMPI PUSH0 DUP1 REVERT JUMPDEST POP PUSH1 0x4 CALLDATASIZE LT PUSH2 0x34 JUMPI PUSH0 CALLDATALOAD PUSH1 0xE0 SHR DUP1 PUSH4 0x9837AE1A EQ PUSH2 0x38 JUMPI DUP1 PUSH4 0xB43C5D33 EQ PUSH2 0x68 JUMPI JUMPDEST PUSH0 DUP1 REVERT JUMPDEST PUSH2 0x52 PUSH1 0x4 DUP1 CALLDATASIZE SUB DUP2 ADD SWAP1 PUSH2 0x4D SWAP2 SWAP1 PUSH2 0x4C1 JUMP JUMPDEST PUSH2 0x99 JUMP JUMPDEST PUSH1 0x40 MLOAD PUSH2 0x5F SWAP2 SWAP1 PUSH2 0x5FF JUMP JUMPDEST PUSH1 0x40 MLOAD DUP1 SWAP2 SUB SWAP1 RETURN JUMPDEST PUSH2 0x82 PUSH1 0x4 DUP1 CALLDATASIZE SUB DUP2 ADD SWAP1 PUSH2 0x7D SWAP2 SWAP1 PUSH2 0x679 JUMP JUMPDEST PUSH2 0x33C JUMP JUMPDEST PUSH1 0x40 MLOAD PUSH2 0x90 SWAP3 SWAP2 SWAP1 PUSH2 0x723 JUMP JUMPDEST PUSH1 0x40 MLOAD DUP1 SWAP2 SUB SWAP1 RETURN JUMPDEST PUSH1 0x60 PUSH1 0x40 MLOAD DUP1 PUSH1 0x40 ADD PUSH1 0x40 MSTORE DUP1 PUSH1 0x7B DUP2 MSTORE PUSH1 0x20 ADD PUSH1 0x40 MLOAD DUP1 PUSH1 0x40 ADD PUSH1 0x40 MSTORE DUP1 PUSH1 0x3 DUP2 MSTORE PUSH1 0x20 ADD PUSH32 0x6261720000000000000000000000000000000000000000000000000000000000 DUP2 MSTORE POP DUP2 MSTORE POP PUSH0 DUP1 CALLER PUSH20 0xFFFFFFFFFFFFFFFFFFFFFFFFFFFFFFFFFFFFFFFF AND PUSH20 0xFFFFFFFFFFFFFFFFFFFFFFFFFFFFFFFFFFFFFFFF AND DUP2 MSTORE PUSH1 0x20 ADD SWAP1 DUP2 MSTORE PUSH1 0x20 ADD PUSH0 KECCAK256 PUSH0 DUP3 ADD MLOAD DUP2 PUSH0 ADD SSTORE PUSH1 0x20 DUP3 ADD MLOAD DUP2 PUSH1 0x1 ADD SWAP1 DUP2 PUSH2 0x13F SWAP2 SWAP1 PUSH2 0x978 JUMP JUMPDEST POP SWAP1 POP POP PUSH0 DUP1 PUSH0 CALLER PUSH20 0xFFFFFFFFFFFFFFFFFFFFFFFFFFFFFFFFFFFFFFFF AND PUSH20 0xFFFFFFFFFFFFFFFFFFFFFFFFFFFFFFFFFFFFFFFF AND DUP2 MSTORE PUSH1 0x20 ADD SWAP1 DUP2 MSTORE PUSH1 0x20 ADD PUSH0 KECCAK256 SWAP1 POP PUSH1 0x40 MLOAD DUP1 PUSH1 0x40 ADD PUSH1 0x40 MSTORE DUP1 PUSH1 0x3 DUP2 MSTORE PUSH1 0x20 ADD PUSH32 0x666F6F0000000000000000000000000000000000000000000000000000000000 DUP2 MSTORE POP DUP2 PUSH1 0x1 ADD SWAP1 DUP2 PUSH2 0x1C8 SWAP2 SWAP1 PUSH2 0x978 JUMP JUMPDEST POP PUSH0 DUP1 PUSH0 CALLER PUSH20 0xFFFFFFFFFFFFFFFFFFFFFFFFFFFFFFFFFFFFFFFF AND PUSH20 0xFFFFFFFFFFFFFFFFFFFFFFFFFFFFFFFFFFFFFFFF AND DUP2 MSTORE PUSH1 0x20 ADD SWAP1 DUP2 MSTORE PUSH1 0x20 ADD PUSH0 KECCAK256 PUSH1 0x40 MLOAD DUP1 PUSH1 0x40 ADD PUSH1 0x40 MSTORE SWAP1 DUP2 PUSH0 DUP3 ADD SLOAD DUP2 MSTORE PUSH1 0x20 ADD PUSH1 0x1 DUP3 ADD DUP1 SLOAD PUSH2 0x22A SWAP1 PUSH2 0x7AB JUMP JUMPDEST DUP1 PUSH1 0x1F ADD PUSH1 0x20 DUP1 SWAP2 DIV MUL PUSH1 0x20 ADD PUSH1 0x40 MLOAD SWAP1 DUP2 ADD PUSH1 0x40 MSTORE DUP1 SWAP3 SWAP2 SWAP1 DUP2 DUP2 MSTORE PUSH1 0x20 ADD DUP3 DUP1 SLOAD PUSH2 0x256 SWAP1 PUSH2 0x7AB JUMP JUMPDEST DUP1 ISZERO PUSH2 0x2A1 JUMPI DUP1 PUSH1 0x1F LT PUSH2 0x278 JUMPI PUSH2 0x100 DUP1 DUP4 SLOAD DIV MUL DUP4 MSTORE SWAP2 PUSH1 0x20 ADD SWAP2 PUSH2 0x2A1 JUMP JUMPDEST DUP3 ADD SWAP2 SWAP1 PUSH0 MSTORE PUSH1 0x20 PUSH0 KECCAK256 SWAP1 JUMPDEST DUP2 SLOAD DUP2 MSTORE SWAP1 PUSH1 0x1 ADD SWAP1 PUSH1 0x20 ADD DUP1 DUP4 GT PUSH2 0x284 JUMPI DUP3 SWAP1 SUB PUSH1 0x1F AND DUP3 ADD SWAP2 JUMPDEST POP POP POP POP POP DUP2 MSTORE POP POP SWAP1 POP PUSH2 0x1C8 DUP3 PUSH0 ADD DUP2 SWAP1 SSTORE POP PUSH2 0x2C0 DUP8 DUP8 PUSH2 0x3E1 JUMP JUMPDEST PUSH0 PUSH1 0x3 PUSH8 0xFFFFFFFFFFFFFFFF DUP2 GT ISZERO PUSH2 0x2DC JUMPI PUSH2 0x2DB PUSH2 0x751 JUMP JUMPDEST JUMPDEST PUSH1 0x40 MLOAD SWAP1 DUP1 DUP3 MSTORE DUP1 PUSH1 0x20 MUL PUSH1 0x20 ADD DUP3 ADD PUSH1 0x40 MSTORE DUP1 ISZERO PUSH2 0x30A JUMPI DUP2 PUSH1 0x20 ADD PUSH1 0x20 DUP3 MUL DUP1 CALLDATASIZE DUP4 CALLDATACOPY DUP1 DUP3 ADD SWAP2 POP POP SWAP1 POP JUMPDEST POP SWAP1 POP PUSH1 0xEA DUP2 PUSH0 DUP2 MLOAD DUP2 LT PUSH2 0x322 JUMPI PUSH2 0x321 PUSH2 0xA47 JUMP JUMPDEST JUMPDEST PUSH1 0x20 MUL PUSH1 0x20 ADD ADD DUP2 DUP2 MSTORE POP POP DUP1 SWAP4 POP POP POP POP SWAP5 SWAP4 POP POP POP POP JUMP JUMPDEST PUSH0 PUSH1 0x20 MSTORE DUP1 PUSH0 MSTORE PUSH1 0x40 PUSH0 KECCAK256 PUSH0 SWAP2 POP SWAP1 POP DUP1 PUSH0 ADD SLOAD SWAP1 DUP1 PUSH1 0x1 ADD DUP1 SLOAD PUSH2 0x360 SWAP1 PUSH2 0x7AB JUMP JUMPDEST DUP1 PUSH1 0x1F ADD PUSH1 0x20 DUP1 SWAP2 DIV MUL PUSH1 0x20 ADD PUSH1 0x40 MLOAD SWAP1 DUP2 ADD PUSH1 0x40 MSTORE DUP1 SWAP3 SWAP2 SWAP1 DUP2 DUP2 MSTORE PUSH1 0x20 ADD DUP3 DUP1 SLOAD PUSH2 0x38C SWAP1 PUSH2 0x7AB JUMP JUMPDEST DUP1 ISZERO PUSH2 0x3D7 JUMPI DUP1 PUSH1 0x1F LT PUSH2 0x3AE JUMPI PUSH2 0x100 DUP1 DUP4 SLOAD DIV MUL DUP4 MSTORE SWAP2 PUSH1 0x20 ADD SWAP2 PUSH2 0x3D7 JUMP JUMPDEST DUP3 ADD SWAP2 SWAP1 PUSH0 MSTORE PUSH1 0x20 PUSH0 KECCAK256 SWAP1 JUMPDEST DUP2 SLOAD DUP2 MSTORE SWAP1 PUSH1 0x1 ADD SWAP1 PUSH1 0x20 ADD DUP1 DUP4 GT PUSH2 0x3BA JUMPI DUP3 SWAP1 SUB PUSH1 0x1F AND DUP3 ADD SWAP2 JUMPDEST POP POP POP POP POP SWAP1 POP DUP3 JUMP JUMPDEST PUSH0 DUP3 DUP3 PUSH0 DUP2 DUP2 LT PUSH2 0x3F5 JUMPI PUSH2 0x3F4 PUSH2 0xA47 JUMP JUMPDEST JUMPDEST SWAP1 POP PUSH1 0x20 MUL ADD CALLDATALOAD SWAP1 POP POP POP POP JUMP JUMPDEST PUSH0 DUP1 REVERT JUMPDEST PUSH0 DUP1 REVERT JUMPDEST PUSH0 DUP1 REVERT JUMPDEST PUSH0 DUP1 REVERT JUMPDEST PUSH0 DUP1 REVERT JUMPDEST PUSH0 DUP1 DUP4 PUSH1 0x1F DUP5 ADD SLT PUSH2 0x42C JUMPI PUSH2 0x42B PUSH2 0x40B JUMP JUMPDEST JUMPDEST DUP3 CALLDATALOAD SWAP1 POP PUSH8 0xFFFFFFFFFFFFFFFF DUP2 GT ISZERO PUSH2 0x449 JUMPI PUSH2 0x448 PUSH2 0x40F JUMP JUMPDEST JUMPDEST PUSH1 0x20 DUP4 ADD SWAP2 POP DUP4 PUSH1 0x20 DUP3 MUL DUP4 ADD GT ISZERO PUSH2 0x465 JUMPI PUSH2 0x464 PUSH2 0x413 JUMP JUMPDEST JUMPDEST SWAP3 POP SWAP3 SWAP1 POP JUMP JUMPDEST PUSH0 DUP1 DUP4 PUSH1 0x1F DUP5 ADD SLT PUSH2 0x481 JUMPI PUSH2 0x480 PUSH2 0x40B JUMP JUMPDEST JUMPDEST DUP3 CALLDATALOAD SWAP1 POP PUSH8 0xFFFFFFFFFFFFFFFF DUP2 GT ISZERO PUSH2 0x49E JUMPI PUSH2 0x49D PUSH2 0x40F JUMP JUMPDEST JUMPDEST PUSH1 0x20 DUP4 ADD SWAP2 POP DUP4 PUSH1 0x1 DUP3 MUL DUP4 ADD GT ISZERO PUSH2 0x4BA JUMPI PUSH2 0x4B9 PUSH2 0x413 JUMP JUMPDEST JUMPDEST SWAP3 POP SWAP3 SWAP1 POP JUMP JUMPDEST PUSH0 DUP1 PUSH0 DUP1 PUSH1 0x40 DUP6 DUP8 SUB SLT ISZERO PUSH2 0x4D9 JUMPI PUSH2 0x4D8 PUSH2 0x403 JUMP JUMPDEST JUMPDEST PUSH0 DUP6 ADD CALLDATALOAD PUSH8 0xFFFFFFFFFFFFFFFF DUP2 GT ISZERO PUSH2 0x4F6 JUMPI PUSH2 0x4F5 PUSH2 0x407 JUMP JUMPDEST JUMPDEST PUSH2 0x502 DUP8 DUP3 DUP9 ADD PUSH2 0x417 JUMP JUMPDEST SWAP5 POP SWAP5 POP POP PUSH1 0x20 DUP6 ADD CALLDATALOAD PUSH8 0xFFFFFFFFFFFFFFFF DUP2 GT ISZERO PUSH2 0x525 JUMPI PUSH2 0x524 PUSH2 0x407 JUMP JUMPDEST JUMPDEST PUSH2 0x531 DUP8 DUP3 DUP9 ADD PUSH2 0x46C JUMP JUMPDEST SWAP3 POP SWAP3 POP POP SWAP3 SWAP6 SWAP2 SWAP5 POP SWAP3 POP JUMP JUMPDEST PUSH0 DUP2 MLOAD SWAP1 POP SWAP2 SWAP1 POP JUMP JUMPDEST PUSH0 DUP3 DUP3 MSTORE PUSH1 0x20 DUP3 ADD SWAP1 POP SWAP3 SWAP2 POP POP JUMP JUMPDEST PUSH0 DUP2 SWAP1 POP PUSH1 0x20 DUP3 ADD SWAP1 POP SWAP2 SWAP1 POP JUMP JUMPDEST PUSH0 DUP2 SWAP1 POP SWAP2 SWAP1 POP JUMP JUMPDEST PUSH2 0x57A DUP2 PUSH2 0x568 JUMP JUMPDEST DUP3 MSTORE POP POP JUMP JUMPDEST PUSH0 PUSH2 0x58B DUP4 DUP4 PUSH2 0x571 JUMP JUMPDEST PUSH1 0x20 DUP4 ADD SWAP1 POP SWAP3 SWAP2 POP POP JUMP JUMPDEST PUSH0 PUSH1 0x20 DUP3 ADD SWAP1 POP SWAP2 SWAP1 POP JUMP JUMPDEST PUSH0 PUSH2 0x5AD DUP3 PUSH2 0x53F JUMP JUMPDEST PUSH2 0x5B7 DUP2 DUP6 PUSH2 0x549 JUMP JUMPDEST SWAP4 POP PUSH2 0x5C2 DUP4 PUSH2 0x559 JUMP JUMPDEST DUP1 PUSH0 JUMPDEST DUP4 DUP2 LT ISZERO PUSH2 0x5F2 JUMPI DUP2 MLOAD PUSH2 0x5D9 DUP9 DUP3 PUSH2 0x580 JUMP JUMPDEST SWAP8 POP PUSH2 0x5E4 DUP4 PUSH2 0x597 JUMP JUMPDEST SWAP3 POP POP PUSH1 0x1 DUP2 ADD SWAP1 POP PUSH2 0x5C5 JUMP JUMPDEST POP DUP6 SWAP4 POP POP POP POP SWAP3 SWAP2 POP POP JUMP JUMPDEST PUSH0 PUSH1 0x20 DUP3 ADD SWAP1 POP DUP2 DUP2 SUB PUSH0 DUP4 ADD MSTORE PUSH2 0x617 DUP2 DUP5 PUSH2 0x5A3 JUMP JUMPDEST SWAP1 POP SWAP3 SWAP2 POP POP JUMP JUMPDEST PUSH0 PUSH20 0xFFFFFFFFFFFFFFFFFFFFFFFFFFFFFFFFFFFFFFFF DUP3 AND SWAP1 POP SWAP2 SWAP1 POP JUMP JUMPDEST PUSH0 PUSH2 0x648 DUP3 PUSH2 0x61F JUMP JUMPDEST SWAP1 POP SWAP2 SWAP1 POP JUMP JUMPDEST PUSH2 0x658 DUP2 PUSH2 0x63E JUMP JUMPDEST DUP2 EQ PUSH2 0x662 JUMPI PUSH0 DUP1 REVERT JUMPDEST POP JUMP JUMPDEST PUSH0 DUP2 CALLDATALOAD SWAP1 POP PUSH2 0x673 DUP2 PUSH2 0x64F JUMP JUMPDEST SWAP3 SWAP2 POP POP JUMP JUMPDEST PUSH0 PUSH1 0x20 DUP3 DUP5 SUB SLT ISZERO PUSH2 0x68E JUMPI PUSH2 0x68D PUSH2 0x403 JUMP JUMPDEST JUMPDEST PUSH0 PUSH2 0x69B DUP5 DUP3 DUP6 ADD PUSH2 0x665 JUMP JUMPDEST SWAP2 POP POP SWAP3 SWAP2 POP POP JUMP JUMPDEST PUSH2 0x6AD DUP2 PUSH2 0x568 JUMP JUMPDEST DUP3 MSTORE POP POP JUMP JUMPDEST PUSH0 DUP2 MLOAD SWAP1 POP SWAP2 SWAP1 POP JUMP JUMPDEST PUSH0 DUP3 DUP3 MSTORE PUSH1 0x20 DUP3 ADD SWAP1 POP SWAP3 SWAP2 POP POP JUMP JUMPDEST DUP3 DUP2 DUP4 MCOPY PUSH0 DUP4 DUP4 ADD MSTORE POP POP POP JUMP JUMPDEST PUSH0 PUSH1 0x1F NOT PUSH1 0x1F DUP4 ADD AND SWAP1 POP SWAP2 SWAP1 POP JUMP JUMPDEST PUSH0 PUSH2 0x6F5 DUP3 PUSH2 0x6B3 JUMP JUMPDEST PUSH2 0x6FF DUP2 DUP6 PUSH2 0x6BD JUMP JUMPDEST SWAP4 POP PUSH2 0x70F DUP2 DUP6 PUSH1 0x20 DUP7 ADD PUSH2 0x6CD JUMP JUMPDEST PUSH2 0x718 DUP2 PUSH2 0x6DB JUMP JUMPDEST DUP5 ADD SWAP2 POP POP SWAP3 SWAP2 POP POP JUMP JUMPDEST PUSH0 PUSH1 0x40 DUP3 ADD SWAP1 POP PUSH2 0x736 PUSH0 DUP4 ADD DUP6 PUSH2 0x6A4 JUMP JUMPDEST DUP2 DUP2 SUB PUSH1 0x20 DUP4 ADD MSTORE PUSH2 0x748 DUP2 DUP5 PUSH2 0x6EB JUMP JUMPDEST SWAP1 POP SWAP4 SWAP3 POP POP POP JUMP JUMPDEST PUSH32 0x4E487B7100000000000000000000000000000000000000000000000000000000 PUSH0 MSTORE PUSH1 0x41 PUSH1 0x4 MSTORE PUSH1 0x24 PUSH0 REVERT JUMPDEST PUSH32 0x4E487B7100000000000000000000000000000000000000000000000000000000 PUSH0 MSTORE PUSH1 0x22 PUSH1 0x4 MSTORE PUSH1 0x24 PUSH0 REVERT JUMPDEST PUSH0 PUSH1 0x2 DUP3 DIV SWAP1 POP PUSH1 0x1 DUP3 AND DUP1 PUSH2 0x7C2 JUMPI PUSH1 0x7F DUP3 AND SWAP2 POP JUMPDEST PUSH1 0x20 DUP3 LT DUP2 SUB PUSH2 0x7D5 JUMPI PUSH2 0x7D4 PUSH2 0x77E JUMP JUMPDEST JUMPDEST POP SWAP2 SWAP1 POP JUMP JUMPDEST PUSH0 DUP2 SWAP1 POP DUP2 PUSH0 MSTORE PUSH1 0x20 PUSH0 KECCAK256 SWAP1 POP SWAP2 SWAP1 POP JUMP JUMPDEST PUSH0 PUSH1 0x20 PUSH1 0x1F DUP4 ADD DIV SWAP1 POP SWAP2 SWAP1 POP JUMP JUMPDEST PUSH0 DUP3 DUP3 SHL SWAP1 POP SWAP3 SWAP2 POP POP JUMP JUMPDEST PUSH0 PUSH1 0x8 DUP4 MUL PUSH2 0x837 PUSH32 0xFFFFFFFFFFFFFFFFFFFFFFFFFFFFFFFFFFFFFFFFFFFFFFFFFFFFFFFFFFFFFFFF DUP3 PUSH2 0x7FC JUMP JUMPDEST PUSH2 0x841 DUP7 DUP4 PUSH2 0x7FC JUMP JUMPDEST SWAP6 POP DUP1 NOT DUP5 AND SWAP4 POP DUP1 DUP7 AND DUP5 OR SWAP3 POP POP POP SWAP4 SWAP3 POP POP POP JUMP JUMPDEST PUSH0 DUP2 SWAP1 POP SWAP2 SWAP1 POP JUMP JUMPDEST PUSH0 PUSH2 0x87C PUSH2 0x877 PUSH2 0x872 DUP5 PUSH2 0x568 JUMP JUMPDEST PUSH2 0x859 JUMP JUMPDEST PUSH2 0x568 JUMP JUMPDEST SWAP1 POP SWAP2 SWAP1 POP JUMP JUMPDEST PUSH0 DUP2 SWAP1 POP SWAP2 SWAP1 POP JUMP JUMPDEST PUSH2 0x895 DUP4 PUSH2 0x862 JUMP JUMPDEST PUSH2 0x8A9 PUSH2 0x8A1 DUP3 PUSH2 0x883 JUMP JUMPDEST DUP5 DUP5 SLOAD PUSH2 0x808 JUMP JUMPDEST DUP3 SSTORE POP POP POP POP JUMP JUMPDEST PUSH0 SWAP1 JUMP JUMPDEST PUSH2 0x8BD PUSH2 0x8B1 JUMP JUMPDEST PUSH2 0x8C8 DUP2 DUP5 DUP5 PUSH2 0x88C JUMP JUMPDEST POP POP POP JUMP JUMPDEST JUMPDEST DUP2 DUP2 LT ISZERO PUSH2 0x8EB JUMPI PUSH2 0x8E0 PUSH0 DUP3 PUSH2 0x8B5 JUMP JUMPDEST PUSH1 0x1 DUP2 ADD SWAP1 POP PUSH2 0x8CE JUMP JUMPDEST POP POP JUMP JUMPDEST PUSH1 0x1F DUP3 GT ISZERO PUSH2 0x930 JUMPI PUSH2 0x901 DUP2 PUSH2 0x7DB JUMP JUMPDEST PUSH2 0x90A DUP5 PUSH2 0x7ED JUMP JUMPDEST DUP2 ADD PUSH1 0x20 DUP6 LT ISZERO PUSH2 0x919 JUMPI DUP2 SWAP1 POP JUMPDEST PUSH2 0x92D PUSH2 0x925 DUP6 PUSH2 0x7ED JUMP JUMPDEST DUP4 ADD DUP3 PUSH2 0x8CD JUMP JUMPDEST POP POP JUMPDEST POP POP POP JUMP JUMPDEST PUSH0 DUP3 DUP3 SHR SWAP1 POP SWAP3 SWAP2 POP POP JUMP JUMPDEST PUSH0 PUSH2 0x950 PUSH0 NOT DUP5 PUSH1 0x8 MUL PUSH2 0x935 JUMP JUMPDEST NOT DUP1 DUP4 AND SWAP2 POP POP SWAP3 SWAP2 POP POP JUMP JUMPDEST PUSH0 PUSH2 0x968 DUP4 DUP4 PUSH2 0x941 JUMP JUMPDEST SWAP2 POP DUP3 PUSH1 0x2 MUL DUP3 OR SWAP1 POP SWAP3 SWAP2 POP POP JUMP JUMPDEST PUSH2 0x981 DUP3 PUSH2 0x6B3 JUMP JUMPDEST PUSH8 0xFFFFFFFFFFFFFFFF DUP2 GT ISZERO PUSH2 0x99A JUMPI PUSH2 0x999 PUSH2 0x751 JUMP JUMPDEST JUMPDEST PUSH2 0x9A4 DUP3 SLOAD PUSH2 0x7AB JUMP JUMPDEST PUSH2 0x9AF DUP3 DUP3 DUP6 PUSH2 0x8EF JUMP JUMPDEST PUSH0 PUSH1 0x20 SWAP1 POP PUSH1 0x1F DUP4 GT PUSH1 0x1 DUP2 EQ PUSH2 0x9E0 JUMPI PUSH0 DUP5 ISZERO PUSH2 0x9CE JUMPI DUP3 DUP8 ADD MLOAD SWAP1 POP JUMPDEST PUSH2 0x9D8 DUP6 DUP3 PUSH2 0x95D JUMP JUMPDEST DUP7 SSTORE POP PUSH2 0xA3F JUMP JUMPDEST PUSH1 0x1F NOT DUP5 AND PUSH2 0x9EE DUP7 PUSH2 0x7DB JUMP JUMPDEST PUSH0 JUMPDEST DUP3 DUP2 LT ISZERO PUSH2 0xA15 JUMPI DUP5 DUP10 ADD MLOAD DUP3 SSTORE PUSH1 0x1 DUP3 ADD SWAP2 POP PUSH1 0x20 DUP6 ADD SWAP5 POP PUSH1 0x20 DUP2 ADD SWAP1 POP PUSH2 0x9F0 JUMP JUMPDEST DUP7 DUP4 LT ISZERO PUSH2 0xA32 JUMPI DUP5 DUP10 ADD MLOAD PUSH2 0xA2E PUSH1 0x1F DUP10 AND DUP3 PUSH2 0x941 JUMP JUMPDEST DUP4 SSTORE POP JUMPDEST PUSH1 0x1 PUSH1 0x2 DUP9 MUL ADD DUP9 SSTORE POP POP POP JUMPDEST POP POP POP POP POP POP JUMP JUMPDEST PUSH32 0x4E487B7100000000000000000000000000000000000000000000000000000000 PUSH0 MSTORE PUSH1 0x32 PUSH1 0x4 MSTORE PUSH1 0x24 PUSH0 REVERT INVALID LOG2 PUSH5 0x6970667358 0x22 SLT KECCAK256 0xAF PUSH22 0x36ED83E8D215BF337B35BD6183F2826FB7603BBF260D SELFBALANCE 0xD8 0x4B LOG3 DUP16 0xA7 SWAP13 LT PUSH5 0x736F6C6343 STOP ADDMOD BYTE STOP CALLER "
				},
				"gasEstimates": {
					"creation": {
						"codeDepositCost": "546000",
						"executionCost": "579",
						"totalCost": "546579"
					},
					"external": {
						"example(uint256[],string)": "infinite",
						"myStructs(address)": "infinite"
					},
					"internal": {
						"_internal(uint256[] calldata)": "76"
					}
				},
				"methodIdentifiers": {
					"example(uint256[],string)": "9837ae1a",
					"myStructs(address)": "b43c5d33"
				}
			},
			"storageLayout": {
				"storage": [
					{
						"astId": 11,
						"contract": "DataLocations.sol:DataLocations",
						"label": "myStructs",
						"offset": 0,
						"slot": "0",
						"type": "t_mapping(t_address,t_struct(MyStruct)6_storage)"
					}
				],
				"types": {
					"t_address": {
						"encoding": "inplace",
						"label": "address",
						"numberOfBytes": "20"
					},
					"t_mapping(t_address,t_struct(MyStruct)6_storage)": {
						"encoding": "mapping",
						"key": "t_address",
						"label": "mapping(address => struct DataLocations.MyStruct)",
						"numberOfBytes": "32",
						"value": "t_struct(MyStruct)6_storage"
					},
					"t_string_storage": {
						"encoding": "bytes",
						"label": "string",
						"numberOfBytes": "32"
					},
					"t_struct(MyStruct)6_storage": {
						"encoding": "inplace",
						"label": "struct DataLocations.MyStruct",
						"members": [
							{
								"astId": 3,
								"contract": "DataLocations.sol:DataLocations",
								"label": "foo",
								"offset": 0,
								"slot": "0",
								"type": "t_uint256"
							},
							{
								"astId": 5,
								"contract": "DataLocations.sol:DataLocations",
								"label": "text",
								"offset": 0,
								"slot": "1",
								"type": "t_string_storage"
							}
						],
						"numberOfBytes": "64"
					},
					"t_uint256": {
						"encoding": "inplace",
						"label": "uint256",
						"numberOfBytes": "32"
					}
				}
			},
			"userdoc": {
				"kind": "user",
				"methods": {},
				"version": 1
			}
		}
	}
}