{
	"IERC721.sol": {
		"MyNFT": {
			"abi": [
				{
					"anonymous": false,
					"inputs": [
						{
							"indexed": true,
							"internalType": "address",
							"name": "owner",
							"type": "address"
						},
						{
							"indexed": true,
							"internalType": "address",
							"name": "spender",
							"type": "address"
						},
						{
							"indexed": true,
							"internalType": "uint256",
							"name": "id",
							"type": "uint256"
						}
					],
					"name": "Approval",
					"type": "event"
				},
				{
					"anonymous": false,
					"inputs": [
						{
							"indexed": true,
							"internalType": "address",
							"name": "owner",
							"type": "address"
						},
						{
							"indexed": true,
							"internalType": "address",
							"name": "operator",
							"type": "address"
						},
						{
							"indexed": false,
							"internalType": "bool",
							"name": "approved",
							"type": "bool"
						}
					],
					"name": "ApprovalForAll",
					"type": "event"
				},
				{
					"anonymous": false,
					"inputs": [
						{
							"indexed": true,
							"internalType": "address",
							"name": "from",
							"type": "address"
						},
						{
							"indexed": true,
							"internalType": "address",
							"name": "to",
							"type": "address"
						},
						{
							"indexed": true,
							"internalType": "uint256",
							"name": "id",
							"type": "uint256"
						}
					],
					"name": "Transfer",
					"type": "event"
				},
				{
					"inputs": [
						{
							"internalType": "address",
							"name": "to",
							"type": "address"
						},
						{
							"internalType": "uint256",
							"name": "tokenId",
							"type": "uint256"
						}
					],
					"name": "approve",
					"outputs": [],
					"stateMutability": "nonpayable",
					"type": "function"
				},
				{
					"inputs": [
						{
							"internalType": "address",
							"name": "owner",
							"type": "address"
						}
					],
					"name": "balanceOf",
					"outputs": [
						{
							"internalType": "uint256",
							"name": "balance",
							"type": "uint256"
						}
					],
					"stateMutability": "view",
					"type": "function"
				},
				{
					"inputs": [
						{
							"internalType": "uint256",
							"name": "tokenId",
							"type": "uint256"
						}
					],
					"name": "burn",
					"outputs": [],
					"stateMutability": "nonpayable",
					"type": "function"
				},
				{
					"inputs": [
						{
							"internalType": "uint256",
							"name": "tokenId",
							"type": "uint256"
						}
					],
					"name": "getApproved",
					"outputs": [
						{
							"internalType": "address",
							"name": "operator",
							"type": "address"
						}
					],
					"stateMutability": "view",
					"type": "function"
				},
				{
					"inputs": [
						{
							"internalType": "address",
							"name": "",
							"type": "address"
						},
						{
							"internalType": "address",
							"name": "",
							"type": "address"
						}
					],
					"name": "isApprovedForAll",
					"outputs": [
						{
							"internalType": "bool",
							"name": "",
							"type": "bool"
						}
					],
					"stateMutability": "view",
					"type": "function"
				},
				{
					"inputs": [
						{
							"internalType": "address",
							"name": "to",
							"type": "address"
						},
						{
							"internalType": "uint256",
							"name": "tokenId",
							"type": "uint256"
						}
					],
					"name": "mint",
					"outputs": [],
					"stateMutability": "nonpayable",
					"type": "function"
				},
				{
					"inputs": [
						{
							"internalType": "uint256",
							"name": "tokenId",
							"type": "uint256"
						}
					],
					"name": "ownerOf",
					"outputs": [
						{
							"internalType": "address",
							"name": "owner",
							"type": "address"
						}
					],
					"stateMutability": "view",
					"type": "function"
				},
				{
					"inputs": [
						{
							"internalType": "address",
							"name": "from",
							"type": "address"
						},
						{
							"internalType": "address",
							"name": "to",
							"type": "address"
						},
						{
							"internalType": "uint256",
							"name": "tokenId",
							"type": "uint256"
						}
					],
					"name": "safeTransferFrom",
					"outputs": [],
					"stateMutability": "nonpayable",
					"type": "function"
				},
				{
					"inputs": [
						{
							"internalType": "address",
							"name": "from",
							"type": "address"
						},
						{
							"internalType": "address",
							"name": "to",
							"type": "address"
						},
						{
							"internalType": "uint256",
							"name": "tokenId",
							"type": "uint256"
						},
						{
							"internalType": "bytes",
							"name": "data",
							"type": "bytes"
						}
					],
					"name": "safeTransferFrom",
					"outputs": [],
					"stateMutability": "nonpayable",
					"type": "function"
				},
				{
					"inputs": [
						{
							"internalType": "address",
							"name": "operator",
							"type": "address"
						},
						{
							"internalType": "bool",
							"name": "_approved",
							"type": "bool"
						}
					],
					"name": "setApprovalForAll",
					"outputs": [],
					"stateMutability": "nonpayable",
					"type": "function"
				},
				{
					"inputs": [
						{
							"internalType": "bytes4",
							"name": "interfaceId",
							"type": "bytes4"
						}
					],
					"name": "supportInterface",
					"outputs": [
						{
							"internalType": "bool",
							"name": "",
							"type": "bool"
						}
					],
					"stateMutability": "view",
					"type": "function"
				},
				{
					"inputs": [
						{
							"internalType": "address",
							"name": "from",
							"type": "address"
						},
						{
							"internalType": "address",
							"name": "to",
							"type": "address"
						},
						{
							"internalType": "uint256",
							"name": "tokenId",
							"type": "uint256"
						}
					],
					"name": "transferFrom",
					"outputs": [],
					"stateMutability": "nonpayable",
					"type": "function"
				}
			],
			"devdoc": {
				"kind": "dev",
				"methods": {},
				"version": 1
			},
			"evm": {
				"assembly": "    /* \"IERC721.sol\":5688:5936  contract MyNFT is ERC721{... */\n  mstore(0x40, 0x80)\n  callvalue\n  dup1\n  iszero\n  tag_1\n  jumpi\n  0x00\n  dup1\n  revert\ntag_1:\n  pop\n  dataSize(sub_0)\n  dup1\n  dataOffset(sub_0)\n  0x00\n  codecopy\n  0x00\n  return\nstop\n\nsub_0: assembly {\n        /* \"IERC721.sol\":5688:5936  contract MyNFT is ERC721{... */\n      mstore(0x40, 0x80)\n      callvalue\n      dup1\n      iszero\n      tag_1\n      jumpi\n      0x00\n      dup1\n      revert\n    tag_1:\n      pop\n      jumpi(tag_2, lt(calldatasize, 0x04))\n      shr(0xe0, calldataload(0x00))\n      dup1\n      0x6352211e\n      gt\n      tag_15\n      jumpi\n      dup1\n      0x6352211e\n      eq\n      tag_9\n      jumpi\n      dup1\n      0x70a08231\n      eq\n      tag_10\n      jumpi\n      dup1\n      0x75e79be6\n      eq\n      tag_11\n      jumpi\n      dup1\n      0xa22cb465\n      eq\n      tag_12\n      jumpi\n      dup1\n      0xb88d4fde\n      eq\n      tag_13\n      jumpi\n      dup1\n      0xe985e9c5\n      eq\n      tag_14\n      jumpi\n      jump(tag_2)\n    tag_15:\n      dup1\n      0x081812fc\n      eq\n      tag_3\n      jumpi\n      dup1\n      0x095ea7b3\n      eq\n      tag_4\n      jumpi\n      dup1\n      0x23b872dd\n      eq\n      tag_5\n      jumpi\n      dup1\n      0x40c10f19\n      eq\n      tag_6\n      jumpi\n      dup1\n      0x42842e0e\n      eq\n      tag_7\n      jumpi\n      dup1\n      0x42966c68\n      eq\n      tag_8\n      jumpi\n    tag_2:\n      0x00\n      dup1\n      revert\n        /* \"IERC721.sol\":4203:4427  function getApproved(uint256 tokenId)... */\n    tag_3:\n      tag_16\n      0x04\n      dup1\n      calldatasize\n      sub\n      dup2\n      add\n      swap1\n      tag_17\n      swap2\n      swap1\n      tag_18\n      jump\t// in\n    tag_17:\n      tag_19\n      jump\t// in\n    tag_16:\n      mload(0x40)\n      tag_20\n      swap2\n      swap1\n      tag_21\n      jump\t// in\n    tag_20:\n      mload(0x40)\n      dup1\n      swap2\n      sub\n      swap1\n      return\n        /* \"IERC721.sol\":3886:4197  function approve(address to, uint256 tokenId) external {... */\n    tag_4:\n      tag_22\n      0x04\n      dup1\n      calldatasize\n      sub\n      dup2\n      add\n      swap1\n      tag_23\n      swap2\n      swap1\n      tag_24\n      jump\t// in\n    tag_23:\n      tag_25\n      jump\t// in\n    tag_22:\n      stop\n        /* \"IERC721.sol\":3382:3880  function transferFrom(... */\n    tag_5:\n      tag_26\n      0x04\n      dup1\n      calldatasize\n      sub\n      dup2\n      add\n      swap1\n      tag_27\n      swap2\n      swap1\n      tag_28\n      jump\t// in\n    tag_27:\n      tag_29\n      jump\t// in\n    tag_26:\n      stop\n        /* \"IERC721.sol\":5718:5800  function mint (address to,uint tokenId)external {... */\n    tag_6:\n      tag_30\n      0x04\n      dup1\n      calldatasize\n      sub\n      dup2\n      add\n      swap1\n      tag_31\n      swap2\n      swap1\n      tag_24\n      jump\t// in\n    tag_31:\n      tag_32\n      jump\t// in\n    tag_30:\n      stop\n        /* \"IERC721.sol\":2355:2847  function safeTransferFrom(... */\n    tag_7:\n      tag_33\n      0x04\n      dup1\n      calldatasize\n      sub\n      dup2\n      add\n      swap1\n      tag_34\n      swap2\n      swap1\n      tag_28\n      jump\t// in\n    tag_34:\n      tag_35\n      jump\t// in\n    tag_33:\n      stop\n        /* \"IERC721.sol\":5806:5934  function burn(uint tokenId)external {... */\n    tag_8:\n      tag_36\n      0x04\n      dup1\n      calldatasize\n      sub\n      dup2\n      add\n      swap1\n      tag_37\n      swap2\n      swap1\n      tag_18\n      jump\t// in\n    tag_37:\n      tag_38\n      jump\t// in\n    tag_36:\n      stop\n        /* \"IERC721.sol\":2175:2349  function ownerOf(uint256 tokenId) external view returns (address owner) {... */\n    tag_9:\n      tag_39\n      0x04\n      dup1\n      calldatasize\n      sub\n      dup2\n      add\n      swap1\n      tag_40\n      swap2\n      swap1\n      tag_18\n      jump\t// in\n    tag_40:\n      tag_41\n      jump\t// in\n    tag_39:\n      mload(0x40)\n      tag_42\n      swap2\n      swap1\n      tag_21\n      jump\t// in\n    tag_42:\n      mload(0x40)\n      dup1\n      swap2\n      sub\n      swap1\n      return\n        /* \"IERC721.sol\":1994:2169  function balanceOf(address owner) external view returns (uint256 balance) {... */\n    tag_10:\n      tag_43\n      0x04\n      dup1\n      calldatasize\n      sub\n      dup2\n      add\n      swap1\n      tag_44\n      swap2\n      swap1\n      tag_45\n      jump\t// in\n    tag_44:\n      tag_46\n      jump\t// in\n    tag_43:\n      mload(0x40)\n      tag_47\n      swap2\n      swap1\n      tag_48\n      jump\t// in\n    tag_47:\n      mload(0x40)\n      dup1\n      swap2\n      sub\n      swap1\n      return\n        /* \"IERC721.sol\":1781:1988  function supportInterface(bytes4 interfaceId) external view returns (bool) {... */\n    tag_11:\n      tag_49\n      0x04\n      dup1\n      calldatasize\n      sub\n      dup2\n      add\n      swap1\n      tag_50\n      swap2\n      swap1\n      tag_51\n      jump\t// in\n    tag_50:\n      tag_52\n      jump\t// in\n    tag_49:\n      mload(0x40)\n      tag_53\n      swap2\n      swap1\n      tag_54\n      jump\t// in\n    tag_53:\n      mload(0x40)\n      dup1\n      swap2\n      sub\n      swap1\n      return\n        /* \"IERC721.sol\":4711:4910  function setApprovalForAll(address operator, bool _approved) external {... */\n    tag_12:\n      tag_55\n      0x04\n      dup1\n      calldatasize\n      sub\n      dup2\n      add\n      swap1\n      tag_56\n      swap2\n      swap1\n      tag_57\n      jump\t// in\n    tag_56:\n      tag_58\n      jump\t// in\n    tag_55:\n      stop\n        /* \"IERC721.sol\":2853:3376  function safeTransferFrom(... */\n    tag_13:\n      tag_59\n      0x04\n      dup1\n      calldatasize\n      sub\n      dup2\n      add\n      swap1\n      tag_60\n      swap2\n      swap1\n      tag_61\n      jump\t// in\n    tag_60:\n      tag_62\n      jump\t// in\n    tag_59:\n      stop\n        /* \"IERC721.sol\":1706:1774  mapping(address => mapping(address => bool)) public isApprovedForAll */\n    tag_14:\n      tag_63\n      0x04\n      dup1\n      calldatasize\n      sub\n      dup2\n      add\n      swap1\n      tag_64\n      swap2\n      swap1\n      tag_65\n      jump\t// in\n    tag_64:\n      tag_66\n      jump\t// in\n    tag_63:\n      mload(0x40)\n      tag_67\n      swap2\n      swap1\n      tag_54\n      jump\t// in\n    tag_67:\n      mload(0x40)\n      dup1\n      swap2\n      sub\n      swap1\n      return\n        /* \"IERC721.sol\":4203:4427  function getApproved(uint256 tokenId)... */\n    tag_19:\n        /* \"IERC721.sol\":4288:4304  address operator */\n      0x00\n        /* \"IERC721.sol\":4357:4358  0 */\n      dup1\n        /* \"IERC721.sol\":4328:4359  _ownerOf[tokenId] != address(0) */\n      0xffffffffffffffffffffffffffffffffffffffff\n      and\n        /* \"IERC721.sol\":4328:4336  _ownerOf */\n      0x00\n        /* \"IERC721.sol\":4328:4345  _ownerOf[tokenId] */\n      dup1\n        /* \"IERC721.sol\":4337:4344  tokenId */\n      dup5\n        /* \"IERC721.sol\":4328:4345  _ownerOf[tokenId] */\n      dup2\n      mstore\n      0x20\n      add\n      swap1\n      dup2\n      mstore\n      0x20\n      add\n      0x00\n      keccak256\n      0x00\n      swap1\n      sload\n      swap1\n      0x0100\n      exp\n      swap1\n      div\n      0xffffffffffffffffffffffffffffffffffffffff\n      and\n        /* \"IERC721.sol\":4328:4359  _ownerOf[tokenId] != address(0) */\n      0xffffffffffffffffffffffffffffffffffffffff\n      and\n      sub\n        /* \"IERC721.sol\":4320:4384  require(_ownerOf[tokenId] != address(0), \"tokenId is not exist\") */\n      tag_69\n      jumpi\n      mload(0x40)\n      0x08c379a000000000000000000000000000000000000000000000000000000000\n      dup2\n      mstore\n      0x04\n      add\n      tag_70\n      swap1\n      tag_71\n      jump\t// in\n    tag_70:\n      mload(0x40)\n      dup1\n      swap2\n      sub\n      swap1\n      revert\n    tag_69:\n        /* \"IERC721.sol\":4401:4411  _approvals */\n      0x02\n        /* \"IERC721.sol\":4401:4420  _approvals[tokenId] */\n      0x00\n        /* \"IERC721.sol\":4412:4419  tokenId */\n      dup4\n        /* \"IERC721.sol\":4401:4420  _approvals[tokenId] */\n      dup2\n      mstore\n      0x20\n      add\n      swap1\n      dup2\n      mstore\n      0x20\n      add\n      0x00\n      keccak256\n      0x00\n      swap1\n      sload\n      swap1\n      0x0100\n      exp\n      swap1\n      div\n      0xffffffffffffffffffffffffffffffffffffffff\n      and\n        /* \"IERC721.sol\":4394:4420  return _approvals[tokenId] */\n      swap1\n      pop\n        /* \"IERC721.sol\":4203:4427  function getApproved(uint256 tokenId)... */\n      swap2\n      swap1\n      pop\n      jump\t// out\n        /* \"IERC721.sol\":3886:4197  function approve(address to, uint256 tokenId) external {... */\n    tag_25:\n        /* \"IERC721.sol\":3951:3964  address owner */\n      0x00\n        /* \"IERC721.sol\":3967:3975  _ownerOf */\n      dup1\n        /* \"IERC721.sol\":3967:3984  _ownerOf[tokenId] */\n      0x00\n        /* \"IERC721.sol\":3976:3983  tokenId */\n      dup4\n        /* \"IERC721.sol\":3967:3984  _ownerOf[tokenId] */\n      dup2\n      mstore\n      0x20\n      add\n      swap1\n      dup2\n      mstore\n      0x20\n      add\n      0x00\n      keccak256\n      0x00\n      swap1\n      sload\n      swap1\n      0x0100\n      exp\n      swap1\n      div\n      0xffffffffffffffffffffffffffffffffffffffff\n      and\n        /* \"IERC721.sol\":3951:3984  address owner = _ownerOf[tokenId] */\n      swap1\n      pop\n        /* \"IERC721.sol\":4029:4034  owner */\n      dup1\n        /* \"IERC721.sol\":4015:4034  msg.sender == owner */\n      0xffffffffffffffffffffffffffffffffffffffff\n      and\n        /* \"IERC721.sol\":4015:4025  msg.sender */\n      caller\n        /* \"IERC721.sol\":4015:4034  msg.sender == owner */\n      0xffffffffffffffffffffffffffffffffffffffff\n      and\n      eq\n        /* \"IERC721.sol\":4015:4073  msg.sender == owner || isApprovedForAll[owner][msg.sender] */\n      dup1\n      tag_73\n      jumpi\n      pop\n        /* \"IERC721.sol\":4038:4054  isApprovedForAll */\n      0x03\n        /* \"IERC721.sol\":4038:4061  isApprovedForAll[owner] */\n      0x00\n        /* \"IERC721.sol\":4055:4060  owner */\n      dup3\n        /* \"IERC721.sol\":4038:4061  isApprovedForAll[owner] */\n      0xffffffffffffffffffffffffffffffffffffffff\n      and\n      0xffffffffffffffffffffffffffffffffffffffff\n      and\n      dup2\n      mstore\n      0x20\n      add\n      swap1\n      dup2\n      mstore\n      0x20\n      add\n      0x00\n      keccak256\n        /* \"IERC721.sol\":4038:4073  isApprovedForAll[owner][msg.sender] */\n      0x00\n        /* \"IERC721.sol\":4062:4072  msg.sender */\n      caller\n        /* \"IERC721.sol\":4038:4073  isApprovedForAll[owner][msg.sender] */\n      0xffffffffffffffffffffffffffffffffffffffff\n      and\n      0xffffffffffffffffffffffffffffffffffffffff\n      and\n      dup2\n      mstore\n      0x20\n      add\n      swap1\n      dup2\n      mstore\n      0x20\n      add\n      0x00\n      keccak256\n      0x00\n      swap1\n      sload\n      swap1\n      0x0100\n      exp\n      swap1\n      div\n      0xff\n      and\n        /* \"IERC721.sol\":4015:4073  msg.sender == owner || isApprovedForAll[owner][msg.sender] */\n    tag_73:\n        /* \"IERC721.sol\":3994:4113  require(... */\n      tag_74\n      jumpi\n      mload(0x40)\n      0x08c379a000000000000000000000000000000000000000000000000000000000\n      dup2\n      mstore\n      0x04\n      add\n      tag_75\n      swap1\n      tag_76\n      jump\t// in\n    tag_75:\n      mload(0x40)\n      dup1\n      swap2\n      sub\n      swap1\n      revert\n    tag_74:\n        /* \"IERC721.sol\":4145:4147  to */\n      dup3\n        /* \"IERC721.sol\":4123:4133  _approvals */\n      0x02\n        /* \"IERC721.sol\":4123:4142  _approvals[tokenId] */\n      0x00\n        /* \"IERC721.sol\":4134:4141  tokenId */\n      dup5\n        /* \"IERC721.sol\":4123:4142  _approvals[tokenId] */\n      dup2\n      mstore\n      0x20\n      add\n      swap1\n      dup2\n      mstore\n      0x20\n      add\n      0x00\n      keccak256\n      0x00\n        /* \"IERC721.sol\":4123:4147  _approvals[tokenId] = to */\n      0x0100\n      exp\n      dup2\n      sload\n      dup2\n      0xffffffffffffffffffffffffffffffffffffffff\n      mul\n      not\n      and\n      swap1\n      dup4\n      0xffffffffffffffffffffffffffffffffffffffff\n      and\n      mul\n      or\n      swap1\n      sstore\n      pop\n        /* \"IERC721.sol\":4182:4189  tokenId */\n      dup2\n        /* \"IERC721.sol\":4178:4180  to */\n      dup4\n        /* \"IERC721.sol\":4162:4190  Approval(owner, to, tokenId) */\n      0xffffffffffffffffffffffffffffffffffffffff\n      and\n        /* \"IERC721.sol\":4171:4176  owner */\n      dup3\n        /* \"IERC721.sol\":4162:4190  Approval(owner, to, tokenId) */\n      0xffffffffffffffffffffffffffffffffffffffff\n      and\n      0x8c5be1e5ebec7d5bd14f71427d1e84f3dd0314c0f7b2291e5b200ac8c7c3b925\n      mload(0x40)\n      mload(0x40)\n      dup1\n      swap2\n      sub\n      swap1\n      log4\n        /* \"IERC721.sol\":3941:4197  {... */\n      pop\n        /* \"IERC721.sol\":3886:4197  function approve(address to, uint256 tokenId) external {... */\n      pop\n      pop\n      jump\t// out\n        /* \"IERC721.sol\":3382:3880  function transferFrom(... */\n    tag_29:\n        /* \"IERC721.sol\":3510:3518  _ownerOf */\n      0x00\n        /* \"IERC721.sol\":3510:3527  _ownerOf[tokenId] */\n      dup1\n        /* \"IERC721.sol\":3519:3526  tokenId */\n      dup3\n        /* \"IERC721.sol\":3510:3527  _ownerOf[tokenId] */\n      dup2\n      mstore\n      0x20\n      add\n      swap1\n      dup2\n      mstore\n      0x20\n      add\n      0x00\n      keccak256\n      0x00\n      swap1\n      sload\n      swap1\n      0x0100\n      exp\n      swap1\n      div\n      0xffffffffffffffffffffffffffffffffffffffff\n      and\n        /* \"IERC721.sol\":3502:3527  from == _ownerOf[tokenId] */\n      0xffffffffffffffffffffffffffffffffffffffff\n      and\n        /* \"IERC721.sol\":3502:3506  from */\n      dup4\n        /* \"IERC721.sol\":3502:3527  from == _ownerOf[tokenId] */\n      0xffffffffffffffffffffffffffffffffffffffff\n      and\n      eq\n        /* \"IERC721.sol\":3494:3545  require(from == _ownerOf[tokenId], \"from != owner\") */\n      tag_78\n      jumpi\n      mload(0x40)\n      0x08c379a000000000000000000000000000000000000000000000000000000000\n      dup2\n      mstore\n      0x04\n      add\n      tag_79\n      swap1\n      tag_80\n      jump\t// in\n    tag_79:\n      mload(0x40)\n      dup1\n      swap2\n      sub\n      swap1\n      revert\n    tag_78:\n        /* \"IERC721.sol\":3577:3578  0 */\n      0x00\n        /* \"IERC721.sol\":3563:3579  to != address(0) */\n      0xffffffffffffffffffffffffffffffffffffffff\n      and\n        /* \"IERC721.sol\":3563:3565  to */\n      dup3\n        /* \"IERC721.sol\":3563:3579  to != address(0) */\n      0xffffffffffffffffffffffffffffffffffffffff\n      and\n      sub\n        /* \"IERC721.sol\":3555:3593  require(to != address(0), \"to = zero\") */\n      tag_81\n      jumpi\n      mload(0x40)\n      0x08c379a000000000000000000000000000000000000000000000000000000000\n      dup2\n      mstore\n      0x04\n      add\n      tag_82\n      swap1\n      tag_83\n      jump\t// in\n    tag_82:\n      mload(0x40)\n      dup1\n      swap2\n      sub\n      swap1\n      revert\n    tag_81:\n        /* \"IERC721.sol\":3624:3669  _isApprovedOrOwner(from, msg.sender, tokenId) */\n      tag_84\n        /* \"IERC721.sol\":3643:3647  from */\n      dup4\n        /* \"IERC721.sol\":3649:3659  msg.sender */\n      caller\n        /* \"IERC721.sol\":3661:3668  tokenId */\n      dup4\n        /* \"IERC721.sol\":3624:3642  _isApprovedOrOwner */\n      tag_85\n        /* \"IERC721.sol\":3624:3669  _isApprovedOrOwner(from, msg.sender, tokenId) */\n      jump\t// in\n    tag_84:\n        /* \"IERC721.sol\":3603:3709  require(... */\n      tag_86\n      jumpi\n      mload(0x40)\n      0x08c379a000000000000000000000000000000000000000000000000000000000\n      dup2\n      mstore\n      0x04\n      add\n      tag_87\n      swap1\n      tag_76\n      jump\t// in\n    tag_87:\n      mload(0x40)\n      dup1\n      swap2\n      sub\n      swap1\n      revert\n    tag_86:\n        /* \"IERC721.sol\":3719:3729  _balanceOf */\n      0x01\n        /* \"IERC721.sol\":3719:3735  _balanceOf[from] */\n      0x00\n        /* \"IERC721.sol\":3730:3734  from */\n      dup5\n        /* \"IERC721.sol\":3719:3735  _balanceOf[from] */\n      0xffffffffffffffffffffffffffffffffffffffff\n      and\n      0xffffffffffffffffffffffffffffffffffffffff\n      and\n      dup2\n      mstore\n      0x20\n      add\n      swap1\n      dup2\n      mstore\n      0x20\n      add\n      0x00\n      keccak256\n      0x00\n        /* \"IERC721.sol\":3719:3737  _balanceOf[from]-- */\n      dup2\n      sload\n      dup1\n      swap3\n      swap2\n      swap1\n      tag_88\n      swap1\n      tag_89\n      jump\t// in\n    tag_88:\n      swap2\n      swap1\n      pop\n      sstore\n      pop\n        /* \"IERC721.sol\":3747:3757  _balanceOf */\n      0x01\n        /* \"IERC721.sol\":3747:3761  _balanceOf[to] */\n      0x00\n        /* \"IERC721.sol\":3758:3760  to */\n      dup4\n        /* \"IERC721.sol\":3747:3761  _balanceOf[to] */\n      0xffffffffffffffffffffffffffffffffffffffff\n      and\n      0xffffffffffffffffffffffffffffffffffffffff\n      and\n      dup2\n      mstore\n      0x20\n      add\n      swap1\n      dup2\n      mstore\n      0x20\n      add\n      0x00\n      keccak256\n      0x00\n        /* \"IERC721.sol\":3747:3763  _balanceOf[to]++ */\n      dup2\n      sload\n      dup1\n      swap3\n      swap2\n      swap1\n      tag_90\n      swap1\n      tag_91\n      jump\t// in\n    tag_90:\n      swap2\n      swap1\n      pop\n      sstore\n      pop\n        /* \"IERC721.sol\":3793:3795  to */\n      dup2\n        /* \"IERC721.sol\":3773:3781  _ownerOf */\n      0x00\n        /* \"IERC721.sol\":3773:3790  _ownerOf[tokenId] */\n      dup1\n        /* \"IERC721.sol\":3782:3789  tokenId */\n      dup4\n        /* \"IERC721.sol\":3773:3790  _ownerOf[tokenId] */\n      dup2\n      mstore\n      0x20\n      add\n      swap1\n      dup2\n      mstore\n      0x20\n      add\n      0x00\n      keccak256\n      0x00\n        /* \"IERC721.sol\":3773:3795  _ownerOf[tokenId] = to */\n      0x0100\n      exp\n      dup2\n      sload\n      dup2\n      0xffffffffffffffffffffffffffffffffffffffff\n      mul\n      not\n      and\n      swap1\n      dup4\n      0xffffffffffffffffffffffffffffffffffffffff\n      and\n      mul\n      or\n      swap1\n      sstore\n      pop\n        /* \"IERC721.sol\":3812:3822  _approvals */\n      0x02\n        /* \"IERC721.sol\":3812:3831  _approvals[tokenId] */\n      0x00\n        /* \"IERC721.sol\":3823:3830  tokenId */\n      dup3\n        /* \"IERC721.sol\":3812:3831  _approvals[tokenId] */\n      dup2\n      mstore\n      0x20\n      add\n      swap1\n      dup2\n      mstore\n      0x20\n      add\n      0x00\n      keccak256\n      0x00\n        /* \"IERC721.sol\":3805:3831  delete _approvals[tokenId] */\n      0x0100\n      exp\n      dup2\n      sload\n      swap1\n      0xffffffffffffffffffffffffffffffffffffffff\n      mul\n      not\n      and\n      swap1\n      sstore\n        /* \"IERC721.sol\":3865:3872  tokenId */\n      dup1\n        /* \"IERC721.sol\":3861:3863  to */\n      dup3\n        /* \"IERC721.sol\":3846:3873  Transfer(from, to, tokenId) */\n      0xffffffffffffffffffffffffffffffffffffffff\n      and\n        /* \"IERC721.sol\":3855:3859  from */\n      dup5\n        /* \"IERC721.sol\":3846:3873  Transfer(from, to, tokenId) */\n      0xffffffffffffffffffffffffffffffffffffffff\n      and\n      0xddf252ad1be2c89b69c2b068fc378daa952ba7f163c4a11628f55a4df523b3ef\n      mload(0x40)\n      mload(0x40)\n      dup1\n      swap2\n      sub\n      swap1\n      log4\n        /* \"IERC721.sol\":3382:3880  function transferFrom(... */\n      pop\n      pop\n      pop\n      jump\t// out\n        /* \"IERC721.sol\":5718:5800  function mint (address to,uint tokenId)external {... */\n    tag_32:\n        /* \"IERC721.sol\":5776:5793  _mint(to,tokenId) */\n      tag_93\n        /* \"IERC721.sol\":5782:5784  to */\n      dup3\n        /* \"IERC721.sol\":5785:5792  tokenId */\n      dup3\n        /* \"IERC721.sol\":5776:5781  _mint */\n      tag_94\n        /* \"IERC721.sol\":5776:5793  _mint(to,tokenId) */\n      jump\t// in\n    tag_93:\n        /* \"IERC721.sol\":5718:5800  function mint (address to,uint tokenId)external {... */\n      pop\n      pop\n      jump\t// out\n        /* \"IERC721.sol\":2355:2847  function safeTransferFrom(... */\n    tag_35:\n        /* \"IERC721.sol\":2473:2504  transferFrom(from, to, tokenId) */\n      tag_96\n        /* \"IERC721.sol\":2486:2490  from */\n      dup4\n        /* \"IERC721.sol\":2492:2494  to */\n      dup4\n        /* \"IERC721.sol\":2496:2503  tokenId */\n      dup4\n        /* \"IERC721.sol\":2473:2485  transferFrom */\n      tag_29\n        /* \"IERC721.sol\":2473:2504  transferFrom(from, to, tokenId) */\n      jump\t// in\n    tag_96:\n        /* \"IERC721.sol\":2553:2554  0 */\n      0x00\n        /* \"IERC721.sol\":2535:2537  to */\n      dup3\n        /* \"IERC721.sol\":2535:2549  to.code.length */\n      0xffffffffffffffffffffffffffffffffffffffff\n      and\n      extcodesize\n        /* \"IERC721.sol\":2535:2554  to.code.length == 0 */\n      eq\n        /* \"IERC721.sol\":2535:2800  to.code.length == 0 ||... */\n      dup1\n      tag_97\n      jumpi\n      pop\n        /* \"IERC721.sol\":2759:2800  IERC721Receiver.onERC721Received.selector */\n      shl(0xe0, 0x150b7a02)\n        /* \"IERC721.sol\":2574:2800  IERC721Receiver(to).onERC721Received(... */\n      not(0xffffffffffffffffffffffffffffffffffffffffffffffffffffffff)\n      and\n        /* \"IERC721.sol\":2590:2592  to */\n      dup3\n        /* \"IERC721.sol\":2574:2610  IERC721Receiver(to).onERC721Received */\n      0xffffffffffffffffffffffffffffffffffffffff\n      and\n      0x150b7a02\n        /* \"IERC721.sol\":2632:2642  msg.sender */\n      caller\n        /* \"IERC721.sol\":2664:2668  from */\n      dup7\n        /* \"IERC721.sol\":2690:2697  tokenId */\n      dup6\n        /* \"IERC721.sol\":2574:2739  IERC721Receiver(to).onERC721Received(... */\n      mload(0x40)\n      dup5\n      0xffffffff\n      and\n      0xe0\n      shl\n      dup2\n      mstore\n      0x04\n      add\n      tag_98\n      swap4\n      swap3\n      swap2\n      swap1\n      tag_99\n      jump\t// in\n    tag_98:\n      0x20\n      mload(0x40)\n      dup1\n      dup4\n      sub\n      dup2\n      0x00\n      dup8\n      gas\n      call\n      iszero\n      dup1\n      iszero\n      tag_101\n      jumpi\n      returndatasize\n      0x00\n      dup1\n      returndatacopy\n      revert(0x00, returndatasize)\n    tag_101:\n      pop\n      pop\n      pop\n      pop\n      mload(0x40)\n      returndatasize\n      not(0x1f)\n      0x1f\n      dup3\n      add\n      and\n      dup3\n      add\n      dup1\n      0x40\n      mstore\n      pop\n      dup2\n      add\n      swap1\n      tag_102\n      swap2\n      swap1\n      tag_103\n      jump\t// in\n    tag_102:\n        /* \"IERC721.sol\":2574:2800  IERC721Receiver(to).onERC721Received(... */\n      not(0xffffffffffffffffffffffffffffffffffffffffffffffffffffffff)\n      and\n      eq\n        /* \"IERC721.sol\":2535:2800  to.code.length == 0 ||... */\n    tag_97:\n        /* \"IERC721.sol\":2514:2840  require(... */\n      tag_104\n      jumpi\n      mload(0x40)\n      0x08c379a000000000000000000000000000000000000000000000000000000000\n      dup2\n      mstore\n      0x04\n      add\n      tag_105\n      swap1\n      tag_106\n      jump\t// in\n    tag_105:\n      mload(0x40)\n      dup1\n      swap2\n      sub\n      swap1\n      revert\n    tag_104:\n        /* \"IERC721.sol\":2355:2847  function safeTransferFrom(... */\n      pop\n      pop\n      pop\n      jump\t// out\n        /* \"IERC721.sol\":5806:5934  function burn(uint tokenId)external {... */\n    tag_38:\n        /* \"IERC721.sol\":5873:5881  _ownerOf */\n      0x00\n        /* \"IERC721.sol\":5873:5890  _ownerOf[tokenId] */\n      dup1\n        /* \"IERC721.sol\":5882:5889  tokenId */\n      dup3\n        /* \"IERC721.sol\":5873:5890  _ownerOf[tokenId] */\n      dup2\n      mstore\n      0x20\n      add\n      swap1\n      dup2\n      mstore\n      0x20\n      add\n      0x00\n      keccak256\n      0x00\n      swap1\n      sload\n      swap1\n      0x0100\n      exp\n      swap1\n      div\n      0xffffffffffffffffffffffffffffffffffffffff\n      and\n        /* \"IERC721.sol\":5860:5890  msg.sender ==_ownerOf[tokenId] */\n      0xffffffffffffffffffffffffffffffffffffffff\n      and\n        /* \"IERC721.sol\":5860:5870  msg.sender */\n      caller\n        /* \"IERC721.sol\":5860:5890  msg.sender ==_ownerOf[tokenId] */\n      0xffffffffffffffffffffffffffffffffffffffff\n      and\n      eq\n        /* \"IERC721.sol\":5852:5903  require(msg.sender ==_ownerOf[tokenId],\"not owner\") */\n      tag_108\n      jumpi\n      mload(0x40)\n      0x08c379a000000000000000000000000000000000000000000000000000000000\n      dup2\n      mstore\n      0x04\n      add\n      tag_109\n      swap1\n      tag_110\n      jump\t// in\n    tag_109:\n      mload(0x40)\n      dup1\n      swap2\n      sub\n      swap1\n      revert\n    tag_108:\n        /* \"IERC721.sol\":5913:5927  _burn(tokenId) */\n      tag_111\n        /* \"IERC721.sol\":5919:5926  tokenId */\n      dup2\n        /* \"IERC721.sol\":5913:5918  _burn */\n      tag_112\n        /* \"IERC721.sol\":5913:5927  _burn(tokenId) */\n      jump\t// in\n    tag_111:\n        /* \"IERC721.sol\":5806:5934  function burn(uint tokenId)external {... */\n      pop\n      jump\t// out\n        /* \"IERC721.sol\":2175:2349  function ownerOf(uint256 tokenId) external view returns (address owner) {... */\n    tag_41:\n        /* \"IERC721.sol\":2232:2245  address owner */\n      0x00\n        /* \"IERC721.sol\":2265:2273  _ownerOf */\n      dup1\n        /* \"IERC721.sol\":2265:2282  _ownerOf[tokenId] */\n      0x00\n        /* \"IERC721.sol\":2274:2281  tokenId */\n      dup4\n        /* \"IERC721.sol\":2265:2282  _ownerOf[tokenId] */\n      dup2\n      mstore\n      0x20\n      add\n      swap1\n      dup2\n      mstore\n      0x20\n      add\n      0x00\n      keccak256\n      0x00\n      swap1\n      sload\n      swap1\n      0x0100\n      exp\n      swap1\n      div\n      0xffffffffffffffffffffffffffffffffffffffff\n      and\n        /* \"IERC721.sol\":2257:2282  owner = _ownerOf[tokenId] */\n      swap1\n      pop\n        /* \"IERC721.sol\":2317:2318  0 */\n      0x00\n        /* \"IERC721.sol\":2300:2319  owner != address(0) */\n      0xffffffffffffffffffffffffffffffffffffffff\n      and\n        /* \"IERC721.sol\":2300:2305  owner */\n      dup2\n        /* \"IERC721.sol\":2300:2319  owner != address(0) */\n      0xffffffffffffffffffffffffffffffffffffffff\n      and\n      sub\n        /* \"IERC721.sol\":2292:2342  require(owner != address(0), \"owner = address(0)\") */\n      tag_114\n      jumpi\n      mload(0x40)\n      0x08c379a000000000000000000000000000000000000000000000000000000000\n      dup2\n      mstore\n      0x04\n      add\n      tag_115\n      swap1\n      tag_116\n      jump\t// in\n    tag_115:\n      mload(0x40)\n      dup1\n      swap2\n      sub\n      swap1\n      revert\n    tag_114:\n        /* \"IERC721.sol\":2175:2349  function ownerOf(uint256 tokenId) external view returns (address owner) {... */\n      swap2\n      swap1\n      pop\n      jump\t// out\n        /* \"IERC721.sol\":1994:2169  function balanceOf(address owner) external view returns (uint256 balance) {... */\n    tag_46:\n        /* \"IERC721.sol\":2051:2066  uint256 balance */\n      0x00\n        /* \"IERC721.sol\":2103:2104  0 */\n      dup1\n        /* \"IERC721.sol\":2086:2105  owner != address(0) */\n      0xffffffffffffffffffffffffffffffffffffffff\n      and\n        /* \"IERC721.sol\":2086:2091  owner */\n      dup3\n        /* \"IERC721.sol\":2086:2105  owner != address(0) */\n      0xffffffffffffffffffffffffffffffffffffffff\n      and\n      sub\n        /* \"IERC721.sol\":2078:2128  require(owner != address(0), \"owner = address(0)\") */\n      tag_118\n      jumpi\n      mload(0x40)\n      0x08c379a000000000000000000000000000000000000000000000000000000000\n      dup2\n      mstore\n      0x04\n      add\n      tag_119\n      swap1\n      tag_116\n      jump\t// in\n    tag_119:\n      mload(0x40)\n      dup1\n      swap2\n      sub\n      swap1\n      revert\n    tag_118:\n        /* \"IERC721.sol\":2145:2155  _balanceOf */\n      0x01\n        /* \"IERC721.sol\":2145:2162  _balanceOf[owner] */\n      0x00\n        /* \"IERC721.sol\":2156:2161  owner */\n      dup4\n        /* \"IERC721.sol\":2145:2162  _balanceOf[owner] */\n      0xffffffffffffffffffffffffffffffffffffffff\n      and\n      0xffffffffffffffffffffffffffffffffffffffff\n      and\n      dup2\n      mstore\n      0x20\n      add\n      swap1\n      dup2\n      mstore\n      0x20\n      add\n      0x00\n      keccak256\n      sload\n        /* \"IERC721.sol\":2138:2162  return _balanceOf[owner] */\n      swap1\n      pop\n        /* \"IERC721.sol\":1994:2169  function balanceOf(address owner) external view returns (uint256 balance) {... */\n      swap2\n      swap1\n      pop\n      jump\t// out\n        /* \"IERC721.sol\":1781:1988  function supportInterface(bytes4 interfaceId) external view returns (bool) {... */\n    tag_52:\n        /* \"IERC721.sol\":1850:1854  bool */\n      0x00\n        /* \"IERC721.sol\":1900:1925  type(IERC721).interfaceId */\n      0xc22876c300000000000000000000000000000000000000000000000000000000\n        /* \"IERC721.sol\":1885:1925  interfaceId == type(IERC721).interfaceId */\n      not(0xffffffffffffffffffffffffffffffffffffffffffffffffffffffff)\n      and\n        /* \"IERC721.sol\":1885:1896  interfaceId */\n      dup3\n        /* \"IERC721.sol\":1885:1925  interfaceId == type(IERC721).interfaceId */\n      not(0xffffffffffffffffffffffffffffffffffffffffffffffffffffffff)\n      and\n      eq\n        /* \"IERC721.sol\":1885:1981  interfaceId == type(IERC721).interfaceId ||... */\n      dup1\n      tag_121\n      jumpi\n      pop\n        /* \"IERC721.sol\":1956:1981  type(IERC165).interfaceId */\n      0x75e79be600000000000000000000000000000000000000000000000000000000\n        /* \"IERC721.sol\":1941:1981  interfaceId == type(IERC165).interfaceId */\n      not(0xffffffffffffffffffffffffffffffffffffffffffffffffffffffff)\n      and\n        /* \"IERC721.sol\":1941:1952  interfaceId */\n      dup3\n        /* \"IERC721.sol\":1941:1981  interfaceId == type(IERC165).interfaceId */\n      not(0xffffffffffffffffffffffffffffffffffffffffffffffffffffffff)\n      and\n      eq\n        /* \"IERC721.sol\":1885:1981  interfaceId == type(IERC721).interfaceId ||... */\n    tag_121:\n        /* \"IERC721.sol\":1866:1981  return... */\n      swap1\n      pop\n        /* \"IERC721.sol\":1781:1988  function supportInterface(bytes4 interfaceId) external view returns (bool) {... */\n      swap2\n      swap1\n      pop\n      jump\t// out\n        /* \"IERC721.sol\":4711:4910  function setApprovalForAll(address operator, bool _approved) external {... */\n    tag_58:\n        /* \"IERC721.sol\":4832:4841  _approved */\n      dup1\n        /* \"IERC721.sol\":4791:4807  isApprovedForAll */\n      0x03\n        /* \"IERC721.sol\":4791:4819  isApprovedForAll[msg.sender] */\n      0x00\n        /* \"IERC721.sol\":4808:4818  msg.sender */\n      caller\n        /* \"IERC721.sol\":4791:4819  isApprovedForAll[msg.sender] */\n      0xffffffffffffffffffffffffffffffffffffffff\n      and\n      0xffffffffffffffffffffffffffffffffffffffff\n      and\n      dup2\n      mstore\n      0x20\n      add\n      swap1\n      dup2\n      mstore\n      0x20\n      add\n      0x00\n      keccak256\n        /* \"IERC721.sol\":4791:4829  isApprovedForAll[msg.sender][operator] */\n      0x00\n        /* \"IERC721.sol\":4820:4828  operator */\n      dup5\n        /* \"IERC721.sol\":4791:4829  isApprovedForAll[msg.sender][operator] */\n      0xffffffffffffffffffffffffffffffffffffffff\n      and\n      0xffffffffffffffffffffffffffffffffffffffff\n      and\n      dup2\n      mstore\n      0x20\n      add\n      swap1\n      dup2\n      mstore\n      0x20\n      add\n      0x00\n      keccak256\n      0x00\n        /* \"IERC721.sol\":4791:4841  isApprovedForAll[msg.sender][operator] = _approved */\n      0x0100\n      exp\n      dup2\n      sload\n      dup2\n      0xff\n      mul\n      not\n      and\n      swap1\n      dup4\n      iszero\n      iszero\n      mul\n      or\n      swap1\n      sstore\n      pop\n        /* \"IERC721.sol\":4883:4891  operator */\n      dup2\n        /* \"IERC721.sol\":4856:4903  ApprovalForAll(msg.sender, operator, _approved) */\n      0xffffffffffffffffffffffffffffffffffffffff\n      and\n        /* \"IERC721.sol\":4871:4881  msg.sender */\n      caller\n        /* \"IERC721.sol\":4856:4903  ApprovalForAll(msg.sender, operator, _approved) */\n      0xffffffffffffffffffffffffffffffffffffffff\n      and\n      0x17307eab39ab6107e8899845ad3d59bd9653f200f220920489ca2b5937696c31\n        /* \"IERC721.sol\":4893:4902  _approved */\n      dup4\n        /* \"IERC721.sol\":4856:4903  ApprovalForAll(msg.sender, operator, _approved) */\n      mload(0x40)\n      tag_123\n      swap2\n      swap1\n      tag_54\n      jump\t// in\n    tag_123:\n      mload(0x40)\n      dup1\n      swap2\n      sub\n      swap1\n      log3\n        /* \"IERC721.sol\":4711:4910  function setApprovalForAll(address operator, bool _approved) external {... */\n      pop\n      pop\n      jump\t// out\n        /* \"IERC721.sol\":2853:3376  function safeTransferFrom(... */\n    tag_62:\n        /* \"IERC721.sol\":3000:3031  transferFrom(from, to, tokenId) */\n      tag_125\n        /* \"IERC721.sol\":3013:3017  from */\n      dup6\n        /* \"IERC721.sol\":3019:3021  to */\n      dup6\n        /* \"IERC721.sol\":3023:3030  tokenId */\n      dup6\n        /* \"IERC721.sol\":3000:3012  transferFrom */\n      tag_29\n        /* \"IERC721.sol\":3000:3031  transferFrom(from, to, tokenId) */\n      jump\t// in\n    tag_125:\n        /* \"IERC721.sol\":3080:3081  0 */\n      0x00\n        /* \"IERC721.sol\":3062:3064  to */\n      dup5\n        /* \"IERC721.sol\":3062:3076  to.code.length */\n      0xffffffffffffffffffffffffffffffffffffffff\n      and\n      extcodesize\n        /* \"IERC721.sol\":3062:3081  to.code.length == 0 */\n      eq\n        /* \"IERC721.sol\":3062:3329  to.code.length == 0 ||... */\n      dup1\n      tag_126\n      jumpi\n      pop\n        /* \"IERC721.sol\":3288:3329  IERC721Receiver.onERC721Received.selector */\n      shl(0xe0, 0x150b7a02)\n        /* \"IERC721.sol\":3101:3329  IERC721Receiver(to).onERC721Received(... */\n      not(0xffffffffffffffffffffffffffffffffffffffffffffffffffffffff)\n      and\n        /* \"IERC721.sol\":3117:3119  to */\n      dup5\n        /* \"IERC721.sol\":3101:3137  IERC721Receiver(to).onERC721Received */\n      0xffffffffffffffffffffffffffffffffffffffff\n      and\n      0x150b7a02\n        /* \"IERC721.sol\":3159:3169  msg.sender */\n      caller\n        /* \"IERC721.sol\":3191:3195  from */\n      dup9\n        /* \"IERC721.sol\":3217:3224  tokenId */\n      dup8\n        /* \"IERC721.sol\":3246:3250  data */\n      dup8\n      dup8\n        /* \"IERC721.sol\":3101:3268  IERC721Receiver(to).onERC721Received(... */\n      mload(0x40)\n      dup7\n      0xffffffff\n      and\n      0xe0\n      shl\n      dup2\n      mstore\n      0x04\n      add\n      tag_127\n      swap6\n      swap5\n      swap4\n      swap3\n      swap2\n      swap1\n      tag_128\n      jump\t// in\n    tag_127:\n      0x20\n      mload(0x40)\n      dup1\n      dup4\n      sub\n      dup2\n      0x00\n      dup8\n      gas\n      call\n      iszero\n      dup1\n      iszero\n      tag_130\n      jumpi\n      returndatasize\n      0x00\n      dup1\n      returndatacopy\n      revert(0x00, returndatasize)\n    tag_130:\n      pop\n      pop\n      pop\n      pop\n      mload(0x40)\n      returndatasize\n      not(0x1f)\n      0x1f\n      dup3\n      add\n      and\n      dup3\n      add\n      dup1\n      0x40\n      mstore\n      pop\n      dup2\n      add\n      swap1\n      tag_131\n      swap2\n      swap1\n      tag_103\n      jump\t// in\n    tag_131:\n        /* \"IERC721.sol\":3101:3329  IERC721Receiver(to).onERC721Received(... */\n      not(0xffffffffffffffffffffffffffffffffffffffffffffffffffffffff)\n      and\n      eq\n        /* \"IERC721.sol\":3062:3329  to.code.length == 0 ||... */\n    tag_126:\n        /* \"IERC721.sol\":3041:3369  require(... */\n      tag_132\n      jumpi\n      mload(0x40)\n      0x08c379a000000000000000000000000000000000000000000000000000000000\n      dup2\n      mstore\n      0x04\n      add\n      tag_133\n      swap1\n      tag_106\n      jump\t// in\n    tag_133:\n      mload(0x40)\n      dup1\n      swap2\n      sub\n      swap1\n      revert\n    tag_132:\n        /* \"IERC721.sol\":2853:3376  function safeTransferFrom(... */\n      pop\n      pop\n      pop\n      pop\n      pop\n      jump\t// out\n        /* \"IERC721.sol\":1706:1774  mapping(address => mapping(address => bool)) public isApprovedForAll */\n    tag_66:\n      mstore(0x20, 0x03)\n      dup2\n      0x00\n      mstore\n      mstore(0x20, keccak256(0x00, 0x40))\n      dup1\n      0x00\n      mstore\n      keccak256(0x00, 0x40)\n      0x00\n      swap2\n      pop\n      swap2\n      pop\n      swap1\n      sload\n      swap1\n      0x0100\n      exp\n      swap1\n      div\n      0xff\n      and\n      dup2\n      jump\t// out\n        /* \"IERC721.sol\":4433:4705  function _isApprovedOrOwner(... */\n    tag_85:\n        /* \"IERC721.sol\":4563:4567  bool */\n      0x00\n        /* \"IERC721.sol\":4598:4603  owner */\n      dup4\n        /* \"IERC721.sol\":4587:4603  spender == owner */\n      0xffffffffffffffffffffffffffffffffffffffff\n      and\n        /* \"IERC721.sol\":4587:4594  spender */\n      dup4\n        /* \"IERC721.sol\":4587:4603  spender == owner */\n      0xffffffffffffffffffffffffffffffffffffffff\n      and\n      eq\n        /* \"IERC721.sol\":4587:4651  spender == owner ||... */\n      dup1\n      tag_135\n      jumpi\n      pop\n        /* \"IERC721.sol\":4619:4635  isApprovedForAll */\n      0x03\n        /* \"IERC721.sol\":4619:4642  isApprovedForAll[owner] */\n      0x00\n        /* \"IERC721.sol\":4636:4641  owner */\n      dup6\n        /* \"IERC721.sol\":4619:4642  isApprovedForAll[owner] */\n      0xffffffffffffffffffffffffffffffffffffffff\n      and\n      0xffffffffffffffffffffffffffffffffffffffff\n      and\n      dup2\n      mstore\n      0x20\n      add\n      swap1\n      dup2\n      mstore\n      0x20\n      add\n      0x00\n      keccak256\n        /* \"IERC721.sol\":4619:4651  isApprovedForAll[owner][spender] */\n      0x00\n        /* \"IERC721.sol\":4643:4650  spender */\n      dup5\n        /* \"IERC721.sol\":4619:4651  isApprovedForAll[owner][spender] */\n      0xffffffffffffffffffffffffffffffffffffffff\n      and\n      0xffffffffffffffffffffffffffffffffffffffff\n      and\n      dup2\n      mstore\n      0x20\n      add\n      swap1\n      dup2\n      mstore\n      0x20\n      add\n      0x00\n      keccak256\n      0x00\n      swap1\n      sload\n      swap1\n      0x0100\n      exp\n      swap1\n      div\n      0xff\n      and\n        /* \"IERC721.sol\":4587:4651  spender == owner ||... */\n    tag_135:\n        /* \"IERC721.sol\":4587:4697  spender == owner ||... */\n      dup1\n      tag_136\n      jumpi\n      pop\n        /* \"IERC721.sol\":4678:4688  _approvals */\n      0x02\n        /* \"IERC721.sol\":4678:4697  _approvals[tokenId] */\n      0x00\n        /* \"IERC721.sol\":4689:4696  tokenId */\n      dup4\n        /* \"IERC721.sol\":4678:4697  _approvals[tokenId] */\n      dup2\n      mstore\n      0x20\n      add\n      swap1\n      dup2\n      mstore\n      0x20\n      add\n      0x00\n      keccak256\n      0x00\n      swap1\n      sload\n      swap1\n      0x0100\n      exp\n      swap1\n      div\n      0xffffffffffffffffffffffffffffffffffffffff\n      and\n        /* \"IERC721.sol\":4667:4697  spender == _approvals[tokenId] */\n      0xffffffffffffffffffffffffffffffffffffffff\n      and\n        /* \"IERC721.sol\":4667:4674  spender */\n      dup4\n        /* \"IERC721.sol\":4667:4697  spender == _approvals[tokenId] */\n      0xffffffffffffffffffffffffffffffffffffffff\n      and\n      eq\n        /* \"IERC721.sol\":4587:4697  spender == owner ||... */\n    tag_136:\n        /* \"IERC721.sol\":4579:4698  return (spender == owner ||... */\n      swap1\n      pop\n        /* \"IERC721.sol\":4433:4705  function _isApprovedOrOwner(... */\n      swap4\n      swap3\n      pop\n      pop\n      pop\n      jump\t// out\n        /* \"IERC721.sol\":5087:5374  function _mint(address to, uint256 tokenId) internal {... */\n    tag_94:\n        /* \"IERC721.sol\":5172:5173  0 */\n      0x00\n        /* \"IERC721.sol\":5158:5174  to != address(0) */\n      0xffffffffffffffffffffffffffffffffffffffff\n      and\n        /* \"IERC721.sol\":5158:5160  to */\n      dup3\n        /* \"IERC721.sol\":5158:5174  to != address(0) */\n      0xffffffffffffffffffffffffffffffffffffffff\n      and\n      sub\n        /* \"IERC721.sol\":5150:5196  require(to != address(0), \"to = zero address\") */\n      tag_138\n      jumpi\n      mload(0x40)\n      0x08c379a000000000000000000000000000000000000000000000000000000000\n      dup2\n      mstore\n      0x04\n      add\n      tag_139\n      swap1\n      tag_140\n      jump\t// in\n    tag_139:\n      mload(0x40)\n      dup1\n      swap2\n      sub\n      swap1\n      revert\n    tag_138:\n        /* \"IERC721.sol\":5243:5244  0 */\n      0x00\n        /* \"IERC721.sol\":5214:5245  _ownerOf[tokenId] == address(0) */\n      0xffffffffffffffffffffffffffffffffffffffff\n      and\n        /* \"IERC721.sol\":5214:5222  _ownerOf */\n      0x00\n        /* \"IERC721.sol\":5214:5231  _ownerOf[tokenId] */\n      dup1\n        /* \"IERC721.sol\":5223:5230  tokenId */\n      dup4\n        /* \"IERC721.sol\":5214:5231  _ownerOf[tokenId] */\n      dup2\n      mstore\n      0x20\n      add\n      swap1\n      dup2\n      mstore\n      0x20\n      add\n      0x00\n      keccak256\n      0x00\n      swap1\n      sload\n      swap1\n      0x0100\n      exp\n      swap1\n      div\n      0xffffffffffffffffffffffffffffffffffffffff\n      and\n        /* \"IERC721.sol\":5214:5245  _ownerOf[tokenId] == address(0) */\n      0xffffffffffffffffffffffffffffffffffffffff\n      and\n      eq\n        /* \"IERC721.sol\":5206:5261  require(_ownerOf[tokenId] == address(0), \"token exist\") */\n      tag_141\n      jumpi\n      mload(0x40)\n      0x08c379a000000000000000000000000000000000000000000000000000000000\n      dup2\n      mstore\n      0x04\n      add\n      tag_142\n      swap1\n      tag_143\n      jump\t// in\n    tag_142:\n      mload(0x40)\n      dup1\n      swap2\n      sub\n      swap1\n      revert\n    tag_141:\n        /* \"IERC721.sol\":5271:5281  _balanceOf */\n      0x01\n        /* \"IERC721.sol\":5271:5285  _balanceOf[to] */\n      0x00\n        /* \"IERC721.sol\":5282:5284  to */\n      dup4\n        /* \"IERC721.sol\":5271:5285  _balanceOf[to] */\n      0xffffffffffffffffffffffffffffffffffffffff\n      and\n      0xffffffffffffffffffffffffffffffffffffffff\n      and\n      dup2\n      mstore\n      0x20\n      add\n      swap1\n      dup2\n      mstore\n      0x20\n      add\n      0x00\n      keccak256\n      0x00\n        /* \"IERC721.sol\":5271:5287  _balanceOf[to]++ */\n      dup2\n      sload\n      dup1\n      swap3\n      swap2\n      swap1\n      tag_144\n      swap1\n      tag_91\n      jump\t// in\n    tag_144:\n      swap2\n      swap1\n      pop\n      sstore\n      pop\n        /* \"IERC721.sol\":5317:5319  to */\n      dup2\n        /* \"IERC721.sol\":5297:5305  _ownerOf */\n      0x00\n        /* \"IERC721.sol\":5297:5314  _ownerOf[tokenId] */\n      dup1\n        /* \"IERC721.sol\":5306:5313  tokenId */\n      dup4\n        /* \"IERC721.sol\":5297:5314  _ownerOf[tokenId] */\n      dup2\n      mstore\n      0x20\n      add\n      swap1\n      dup2\n      mstore\n      0x20\n      add\n      0x00\n      keccak256\n      0x00\n        /* \"IERC721.sol\":5297:5319  _ownerOf[tokenId] = to */\n      0x0100\n      exp\n      dup2\n      sload\n      dup2\n      0xffffffffffffffffffffffffffffffffffffffff\n      mul\n      not\n      and\n      swap1\n      dup4\n      0xffffffffffffffffffffffffffffffffffffffff\n      and\n      mul\n      or\n      swap1\n      sstore\n      pop\n        /* \"IERC721.sol\":5359:5366  tokenId */\n      dup1\n        /* \"IERC721.sol\":5355:5357  to */\n      dup3\n        /* \"IERC721.sol\":5334:5367  Transfer(address(0), to, tokenId) */\n      0xffffffffffffffffffffffffffffffffffffffff\n      and\n        /* \"IERC721.sol\":5351:5352  0 */\n      0x00\n        /* \"IERC721.sol\":5334:5367  Transfer(address(0), to, tokenId) */\n      0xffffffffffffffffffffffffffffffffffffffff\n      and\n      0xddf252ad1be2c89b69c2b068fc378daa952ba7f163c4a11628f55a4df523b3ef\n      mload(0x40)\n      mload(0x40)\n      dup1\n      swap2\n      sub\n      swap1\n      log4\n        /* \"IERC721.sol\":5087:5374  function _mint(address to, uint256 tokenId) internal {... */\n      pop\n      pop\n      jump\t// out\n        /* \"IERC721.sol\":5380:5684  function _burn(uint256 tokenId) internal {... */\n    tag_112:\n        /* \"IERC721.sol\":5431:5444  address owner */\n      0x00\n        /* \"IERC721.sol\":5447:5455  _ownerOf */\n      dup1\n        /* \"IERC721.sol\":5447:5464  _ownerOf[tokenId] */\n      0x00\n        /* \"IERC721.sol\":5456:5463  tokenId */\n      dup4\n        /* \"IERC721.sol\":5447:5464  _ownerOf[tokenId] */\n      dup2\n      mstore\n      0x20\n      add\n      swap1\n      dup2\n      mstore\n      0x20\n      add\n      0x00\n      keccak256\n      0x00\n      swap1\n      sload\n      swap1\n      0x0100\n      exp\n      swap1\n      div\n      0xffffffffffffffffffffffffffffffffffffffff\n      and\n        /* \"IERC721.sol\":5431:5464  address owner = _ownerOf[tokenId] */\n      swap1\n      pop\n        /* \"IERC721.sol\":5499:5500  0 */\n      0x00\n        /* \"IERC721.sol\":5482:5501  owner != address(0) */\n      0xffffffffffffffffffffffffffffffffffffffff\n      and\n        /* \"IERC721.sol\":5482:5487  owner */\n      dup2\n        /* \"IERC721.sol\":5482:5501  owner != address(0) */\n      0xffffffffffffffffffffffffffffffffffffffff\n      and\n      sub\n        /* \"IERC721.sol\":5474:5526  require(owner != address(0), \"token does not exist\") */\n      tag_146\n      jumpi\n      mload(0x40)\n      0x08c379a000000000000000000000000000000000000000000000000000000000\n      dup2\n      mstore\n      0x04\n      add\n      tag_147\n      swap1\n      tag_148\n      jump\t// in\n    tag_147:\n      mload(0x40)\n      dup1\n      swap2\n      sub\n      swap1\n      revert\n    tag_146:\n        /* \"IERC721.sol\":5537:5547  _balanceOf */\n      0x01\n        /* \"IERC721.sol\":5537:5554  _balanceOf[owner] */\n      0x00\n        /* \"IERC721.sol\":5548:5553  owner */\n      dup3\n        /* \"IERC721.sol\":5537:5554  _balanceOf[owner] */\n      0xffffffffffffffffffffffffffffffffffffffff\n      and\n      0xffffffffffffffffffffffffffffffffffffffff\n      and\n      dup2\n      mstore\n      0x20\n      add\n      swap1\n      dup2\n      mstore\n      0x20\n      add\n      0x00\n      keccak256\n      0x00\n        /* \"IERC721.sol\":5537:5556  _balanceOf[owner]-- */\n      dup2\n      sload\n      dup1\n      swap3\n      swap2\n      swap1\n      tag_149\n      swap1\n      tag_89\n      jump\t// in\n    tag_149:\n      swap2\n      swap1\n      pop\n      sstore\n      pop\n        /* \"IERC721.sol\":5573:5581  _ownerOf */\n      0x00\n        /* \"IERC721.sol\":5573:5590  _ownerOf[tokenId] */\n      dup1\n        /* \"IERC721.sol\":5582:5589  tokenId */\n      dup4\n        /* \"IERC721.sol\":5573:5590  _ownerOf[tokenId] */\n      dup2\n      mstore\n      0x20\n      add\n      swap1\n      dup2\n      mstore\n      0x20\n      add\n      0x00\n      keccak256\n      0x00\n        /* \"IERC721.sol\":5566:5590  delete _ownerOf[tokenId] */\n      0x0100\n      exp\n      dup2\n      sload\n      swap1\n      0xffffffffffffffffffffffffffffffffffffffff\n      mul\n      not\n      and\n      swap1\n      sstore\n        /* \"IERC721.sol\":5607:5617  _approvals */\n      0x02\n        /* \"IERC721.sol\":5607:5626  _approvals[tokenId] */\n      0x00\n        /* \"IERC721.sol\":5618:5625  tokenId */\n      dup4\n        /* \"IERC721.sol\":5607:5626  _approvals[tokenId] */\n      dup2\n      mstore\n      0x20\n      add\n      swap1\n      dup2\n      mstore\n      0x20\n      add\n      0x00\n      keccak256\n      0x00\n        /* \"IERC721.sol\":5600:5626  delete _approvals[tokenId] */\n      0x0100\n      exp\n      dup2\n      sload\n      swap1\n      0xffffffffffffffffffffffffffffffffffffffff\n      mul\n      not\n      and\n      swap1\n      sstore\n        /* \"IERC721.sol\":5669:5676  tokenId */\n      dup2\n        /* \"IERC721.sol\":5665:5666  0 */\n      0x00\n        /* \"IERC721.sol\":5641:5677  Transfer(owner, address(0), tokenId) */\n      0xffffffffffffffffffffffffffffffffffffffff\n      and\n        /* \"IERC721.sol\":5650:5655  owner */\n      dup3\n        /* \"IERC721.sol\":5641:5677  Transfer(owner, address(0), tokenId) */\n      0xffffffffffffffffffffffffffffffffffffffff\n      and\n      0xddf252ad1be2c89b69c2b068fc378daa952ba7f163c4a11628f55a4df523b3ef\n      mload(0x40)\n      mload(0x40)\n      dup1\n      swap2\n      sub\n      swap1\n      log4\n        /* \"IERC721.sol\":5421:5684  {... */\n      pop\n        /* \"IERC721.sol\":5380:5684  function _burn(uint256 tokenId) internal {... */\n      pop\n      jump\t// out\n        /* \"#utility.yul\":88:205   */\n    tag_151:\n        /* \"#utility.yul\":197:198   */\n      0x00\n        /* \"#utility.yul\":194:195   */\n      dup1\n        /* \"#utility.yul\":187:199   */\n      revert\n        /* \"#utility.yul\":211:328   */\n    tag_152:\n        /* \"#utility.yul\":320:321   */\n      0x00\n        /* \"#utility.yul\":317:318   */\n      dup1\n        /* \"#utility.yul\":310:322   */\n      revert\n        /* \"#utility.yul\":334:411   */\n    tag_153:\n        /* \"#utility.yul\":371:378   */\n      0x00\n        /* \"#utility.yul\":400:405   */\n      dup2\n        /* \"#utility.yul\":389:405   */\n      swap1\n      pop\n        /* \"#utility.yul\":334:411   */\n      swap2\n      swap1\n      pop\n      jump\t// out\n        /* \"#utility.yul\":417:539   */\n    tag_154:\n        /* \"#utility.yul\":490:514   */\n      tag_208\n        /* \"#utility.yul\":508:513   */\n      dup2\n        /* \"#utility.yul\":490:514   */\n      tag_153\n      jump\t// in\n    tag_208:\n        /* \"#utility.yul\":483:488   */\n      dup2\n        /* \"#utility.yul\":480:515   */\n      eq\n        /* \"#utility.yul\":470:533   */\n      tag_209\n      jumpi\n        /* \"#utility.yul\":529:530   */\n      0x00\n        /* \"#utility.yul\":526:527   */\n      dup1\n        /* \"#utility.yul\":519:531   */\n      revert\n        /* \"#utility.yul\":470:533   */\n    tag_209:\n        /* \"#utility.yul\":417:539   */\n      pop\n      jump\t// out\n        /* \"#utility.yul\":545:684   */\n    tag_155:\n        /* \"#utility.yul\":591:596   */\n      0x00\n        /* \"#utility.yul\":629:635   */\n      dup2\n        /* \"#utility.yul\":616:636   */\n      calldataload\n        /* \"#utility.yul\":607:636   */\n      swap1\n      pop\n        /* \"#utility.yul\":645:678   */\n      tag_211\n        /* \"#utility.yul\":672:677   */\n      dup2\n        /* \"#utility.yul\":645:678   */\n      tag_154\n      jump\t// in\n    tag_211:\n        /* \"#utility.yul\":545:684   */\n      swap3\n      swap2\n      pop\n      pop\n      jump\t// out\n        /* \"#utility.yul\":690:1019   */\n    tag_18:\n        /* \"#utility.yul\":749:755   */\n      0x00\n        /* \"#utility.yul\":798:800   */\n      0x20\n        /* \"#utility.yul\":786:795   */\n      dup3\n        /* \"#utility.yul\":777:784   */\n      dup5\n        /* \"#utility.yul\":773:796   */\n      sub\n        /* \"#utility.yul\":769:801   */\n      slt\n        /* \"#utility.yul\":766:885   */\n      iszero\n      tag_213\n      jumpi\n        /* \"#utility.yul\":804:883   */\n      tag_214\n      tag_151\n      jump\t// in\n    tag_214:\n        /* \"#utility.yul\":766:885   */\n    tag_213:\n        /* \"#utility.yul\":924:925   */\n      0x00\n        /* \"#utility.yul\":949:1002   */\n      tag_215\n        /* \"#utility.yul\":994:1001   */\n      dup5\n        /* \"#utility.yul\":985:991   */\n      dup3\n        /* \"#utility.yul\":974:983   */\n      dup6\n        /* \"#utility.yul\":970:992   */\n      add\n        /* \"#utility.yul\":949:1002   */\n      tag_155\n      jump\t// in\n    tag_215:\n        /* \"#utility.yul\":939:1002   */\n      swap2\n      pop\n        /* \"#utility.yul\":895:1012   */\n      pop\n        /* \"#utility.yul\":690:1019   */\n      swap3\n      swap2\n      pop\n      pop\n      jump\t// out\n        /* \"#utility.yul\":1025:1151   */\n    tag_156:\n        /* \"#utility.yul\":1062:1069   */\n      0x00\n        /* \"#utility.yul\":1102:1144   */\n      0xffffffffffffffffffffffffffffffffffffffff\n        /* \"#utility.yul\":1095:1100   */\n      dup3\n        /* \"#utility.yul\":1091:1145   */\n      and\n        /* \"#utility.yul\":1080:1145   */\n      swap1\n      pop\n        /* \"#utility.yul\":1025:1151   */\n      swap2\n      swap1\n      pop\n      jump\t// out\n        /* \"#utility.yul\":1157:1253   */\n    tag_157:\n        /* \"#utility.yul\":1194:1201   */\n      0x00\n        /* \"#utility.yul\":1223:1247   */\n      tag_218\n        /* \"#utility.yul\":1241:1246   */\n      dup3\n        /* \"#utility.yul\":1223:1247   */\n      tag_156\n      jump\t// in\n    tag_218:\n        /* \"#utility.yul\":1212:1247   */\n      swap1\n      pop\n        /* \"#utility.yul\":1157:1253   */\n      swap2\n      swap1\n      pop\n      jump\t// out\n        /* \"#utility.yul\":1259:1377   */\n    tag_158:\n        /* \"#utility.yul\":1346:1370   */\n      tag_220\n        /* \"#utility.yul\":1364:1369   */\n      dup2\n        /* \"#utility.yul\":1346:1370   */\n      tag_157\n      jump\t// in\n    tag_220:\n        /* \"#utility.yul\":1341:1344   */\n      dup3\n        /* \"#utility.yul\":1334:1371   */\n      mstore\n        /* \"#utility.yul\":1259:1377   */\n      pop\n      pop\n      jump\t// out\n        /* \"#utility.yul\":1383:1605   */\n    tag_21:\n        /* \"#utility.yul\":1476:1480   */\n      0x00\n        /* \"#utility.yul\":1514:1516   */\n      0x20\n        /* \"#utility.yul\":1503:1512   */\n      dup3\n        /* \"#utility.yul\":1499:1517   */\n      add\n        /* \"#utility.yul\":1491:1517   */\n      swap1\n      pop\n        /* \"#utility.yul\":1527:1598   */\n      tag_222\n        /* \"#utility.yul\":1595:1596   */\n      0x00\n        /* \"#utility.yul\":1584:1593   */\n      dup4\n        /* \"#utility.yul\":1580:1597   */\n      add\n        /* \"#utility.yul\":1571:1577   */\n      dup5\n        /* \"#utility.yul\":1527:1598   */\n      tag_158\n      jump\t// in\n    tag_222:\n        /* \"#utility.yul\":1383:1605   */\n      swap3\n      swap2\n      pop\n      pop\n      jump\t// out\n        /* \"#utility.yul\":1611:1733   */\n    tag_159:\n        /* \"#utility.yul\":1684:1708   */\n      tag_224\n        /* \"#utility.yul\":1702:1707   */\n      dup2\n        /* \"#utility.yul\":1684:1708   */\n      tag_157\n      jump\t// in\n    tag_224:\n        /* \"#utility.yul\":1677:1682   */\n      dup2\n        /* \"#utility.yul\":1674:1709   */\n      eq\n        /* \"#utility.yul\":1664:1727   */\n      tag_225\n      jumpi\n        /* \"#utility.yul\":1723:1724   */\n      0x00\n        /* \"#utility.yul\":1720:1721   */\n      dup1\n        /* \"#utility.yul\":1713:1725   */\n      revert\n        /* \"#utility.yul\":1664:1727   */\n    tag_225:\n        /* \"#utility.yul\":1611:1733   */\n      pop\n      jump\t// out\n        /* \"#utility.yul\":1739:1878   */\n    tag_160:\n        /* \"#utility.yul\":1785:1790   */\n      0x00\n        /* \"#utility.yul\":1823:1829   */\n      dup2\n        /* \"#utility.yul\":1810:1830   */\n      calldataload\n        /* \"#utility.yul\":1801:1830   */\n      swap1\n      pop\n        /* \"#utility.yul\":1839:1872   */\n      tag_227\n        /* \"#utility.yul\":1866:1871   */\n      dup2\n        /* \"#utility.yul\":1839:1872   */\n      tag_159\n      jump\t// in\n    tag_227:\n        /* \"#utility.yul\":1739:1878   */\n      swap3\n      swap2\n      pop\n      pop\n      jump\t// out\n        /* \"#utility.yul\":1884:2358   */\n    tag_24:\n        /* \"#utility.yul\":1952:1958   */\n      0x00\n        /* \"#utility.yul\":1960:1966   */\n      dup1\n        /* \"#utility.yul\":2009:2011   */\n      0x40\n        /* \"#utility.yul\":1997:2006   */\n      dup4\n        /* \"#utility.yul\":1988:1995   */\n      dup6\n        /* \"#utility.yul\":1984:2007   */\n      sub\n        /* \"#utility.yul\":1980:2012   */\n      slt\n        /* \"#utility.yul\":1977:2096   */\n      iszero\n      tag_229\n      jumpi\n        /* \"#utility.yul\":2015:2094   */\n      tag_230\n      tag_151\n      jump\t// in\n    tag_230:\n        /* \"#utility.yul\":1977:2096   */\n    tag_229:\n        /* \"#utility.yul\":2135:2136   */\n      0x00\n        /* \"#utility.yul\":2160:2213   */\n      tag_231\n        /* \"#utility.yul\":2205:2212   */\n      dup6\n        /* \"#utility.yul\":2196:2202   */\n      dup3\n        /* \"#utility.yul\":2185:2194   */\n      dup7\n        /* \"#utility.yul\":2181:2203   */\n      add\n        /* \"#utility.yul\":2160:2213   */\n      tag_160\n      jump\t// in\n    tag_231:\n        /* \"#utility.yul\":2150:2213   */\n      swap3\n      pop\n        /* \"#utility.yul\":2106:2223   */\n      pop\n        /* \"#utility.yul\":2262:2264   */\n      0x20\n        /* \"#utility.yul\":2288:2341   */\n      tag_232\n        /* \"#utility.yul\":2333:2340   */\n      dup6\n        /* \"#utility.yul\":2324:2330   */\n      dup3\n        /* \"#utility.yul\":2313:2322   */\n      dup7\n        /* \"#utility.yul\":2309:2331   */\n      add\n        /* \"#utility.yul\":2288:2341   */\n      tag_155\n      jump\t// in\n    tag_232:\n        /* \"#utility.yul\":2278:2341   */\n      swap2\n      pop\n        /* \"#utility.yul\":2233:2351   */\n      pop\n        /* \"#utility.yul\":1884:2358   */\n      swap3\n      pop\n      swap3\n      swap1\n      pop\n      jump\t// out\n        /* \"#utility.yul\":2364:2983   */\n    tag_28:\n        /* \"#utility.yul\":2441:2447   */\n      0x00\n        /* \"#utility.yul\":2449:2455   */\n      dup1\n        /* \"#utility.yul\":2457:2463   */\n      0x00\n        /* \"#utility.yul\":2506:2508   */\n      0x60\n        /* \"#utility.yul\":2494:2503   */\n      dup5\n        /* \"#utility.yul\":2485:2492   */\n      dup7\n        /* \"#utility.yul\":2481:2504   */\n      sub\n        /* \"#utility.yul\":2477:2509   */\n      slt\n        /* \"#utility.yul\":2474:2593   */\n      iszero\n      tag_234\n      jumpi\n        /* \"#utility.yul\":2512:2591   */\n      tag_235\n      tag_151\n      jump\t// in\n    tag_235:\n        /* \"#utility.yul\":2474:2593   */\n    tag_234:\n        /* \"#utility.yul\":2632:2633   */\n      0x00\n        /* \"#utility.yul\":2657:2710   */\n      tag_236\n        /* \"#utility.yul\":2702:2709   */\n      dup7\n        /* \"#utility.yul\":2693:2699   */\n      dup3\n        /* \"#utility.yul\":2682:2691   */\n      dup8\n        /* \"#utility.yul\":2678:2700   */\n      add\n        /* \"#utility.yul\":2657:2710   */\n      tag_160\n      jump\t// in\n    tag_236:\n        /* \"#utility.yul\":2647:2710   */\n      swap4\n      pop\n        /* \"#utility.yul\":2603:2720   */\n      pop\n        /* \"#utility.yul\":2759:2761   */\n      0x20\n        /* \"#utility.yul\":2785:2838   */\n      tag_237\n        /* \"#utility.yul\":2830:2837   */\n      dup7\n        /* \"#utility.yul\":2821:2827   */\n      dup3\n        /* \"#utility.yul\":2810:2819   */\n      dup8\n        /* \"#utility.yul\":2806:2828   */\n      add\n        /* \"#utility.yul\":2785:2838   */\n      tag_160\n      jump\t// in\n    tag_237:\n        /* \"#utility.yul\":2775:2838   */\n      swap3\n      pop\n        /* \"#utility.yul\":2730:2848   */\n      pop\n        /* \"#utility.yul\":2887:2889   */\n      0x40\n        /* \"#utility.yul\":2913:2966   */\n      tag_238\n        /* \"#utility.yul\":2958:2965   */\n      dup7\n        /* \"#utility.yul\":2949:2955   */\n      dup3\n        /* \"#utility.yul\":2938:2947   */\n      dup8\n        /* \"#utility.yul\":2934:2956   */\n      add\n        /* \"#utility.yul\":2913:2966   */\n      tag_155\n      jump\t// in\n    tag_238:\n        /* \"#utility.yul\":2903:2966   */\n      swap2\n      pop\n        /* \"#utility.yul\":2858:2976   */\n      pop\n        /* \"#utility.yul\":2364:2983   */\n      swap3\n      pop\n      swap3\n      pop\n      swap3\n      jump\t// out\n        /* \"#utility.yul\":2989:3318   */\n    tag_45:\n        /* \"#utility.yul\":3048:3054   */\n      0x00\n        /* \"#utility.yul\":3097:3099   */\n      0x20\n        /* \"#utility.yul\":3085:3094   */\n      dup3\n        /* \"#utility.yul\":3076:3083   */\n      dup5\n        /* \"#utility.yul\":3072:3095   */\n      sub\n        /* \"#utility.yul\":3068:3100   */\n      slt\n        /* \"#utility.yul\":3065:3184   */\n      iszero\n      tag_240\n      jumpi\n        /* \"#utility.yul\":3103:3182   */\n      tag_241\n      tag_151\n      jump\t// in\n    tag_241:\n        /* \"#utility.yul\":3065:3184   */\n    tag_240:\n        /* \"#utility.yul\":3223:3224   */\n      0x00\n        /* \"#utility.yul\":3248:3301   */\n      tag_242\n        /* \"#utility.yul\":3293:3300   */\n      dup5\n        /* \"#utility.yul\":3284:3290   */\n      dup3\n        /* \"#utility.yul\":3273:3282   */\n      dup6\n        /* \"#utility.yul\":3269:3291   */\n      add\n        /* \"#utility.yul\":3248:3301   */\n      tag_160\n      jump\t// in\n    tag_242:\n        /* \"#utility.yul\":3238:3301   */\n      swap2\n      pop\n        /* \"#utility.yul\":3194:3311   */\n      pop\n        /* \"#utility.yul\":2989:3318   */\n      swap3\n      swap2\n      pop\n      pop\n      jump\t// out\n        /* \"#utility.yul\":3324:3442   */\n    tag_161:\n        /* \"#utility.yul\":3411:3435   */\n      tag_244\n        /* \"#utility.yul\":3429:3434   */\n      dup2\n        /* \"#utility.yul\":3411:3435   */\n      tag_153\n      jump\t// in\n    tag_244:\n        /* \"#utility.yul\":3406:3409   */\n      dup3\n        /* \"#utility.yul\":3399:3436   */\n      mstore\n        /* \"#utility.yul\":3324:3442   */\n      pop\n      pop\n      jump\t// out\n        /* \"#utility.yul\":3448:3670   */\n    tag_48:\n        /* \"#utility.yul\":3541:3545   */\n      0x00\n        /* \"#utility.yul\":3579:3581   */\n      0x20\n        /* \"#utility.yul\":3568:3577   */\n      dup3\n        /* \"#utility.yul\":3564:3582   */\n      add\n        /* \"#utility.yul\":3556:3582   */\n      swap1\n      pop\n        /* \"#utility.yul\":3592:3663   */\n      tag_246\n        /* \"#utility.yul\":3660:3661   */\n      0x00\n        /* \"#utility.yul\":3649:3658   */\n      dup4\n        /* \"#utility.yul\":3645:3662   */\n      add\n        /* \"#utility.yul\":3636:3642   */\n      dup5\n        /* \"#utility.yul\":3592:3663   */\n      tag_161\n      jump\t// in\n    tag_246:\n        /* \"#utility.yul\":3448:3670   */\n      swap3\n      swap2\n      pop\n      pop\n      jump\t// out\n        /* \"#utility.yul\":3676:3825   */\n    tag_162:\n        /* \"#utility.yul\":3712:3719   */\n      0x00\n        /* \"#utility.yul\":3752:3818   */\n      0xffffffff00000000000000000000000000000000000000000000000000000000\n        /* \"#utility.yul\":3745:3750   */\n      dup3\n        /* \"#utility.yul\":3741:3819   */\n      and\n        /* \"#utility.yul\":3730:3819   */\n      swap1\n      pop\n        /* \"#utility.yul\":3676:3825   */\n      swap2\n      swap1\n      pop\n      jump\t// out\n        /* \"#utility.yul\":3831:3951   */\n    tag_163:\n        /* \"#utility.yul\":3903:3926   */\n      tag_249\n        /* \"#utility.yul\":3920:3925   */\n      dup2\n        /* \"#utility.yul\":3903:3926   */\n      tag_162\n      jump\t// in\n    tag_249:\n        /* \"#utility.yul\":3896:3901   */\n      dup2\n        /* \"#utility.yul\":3893:3927   */\n      eq\n        /* \"#utility.yul\":3883:3945   */\n      tag_250\n      jumpi\n        /* \"#utility.yul\":3941:3942   */\n      0x00\n        /* \"#utility.yul\":3938:3939   */\n      dup1\n        /* \"#utility.yul\":3931:3943   */\n      revert\n        /* \"#utility.yul\":3883:3945   */\n    tag_250:\n        /* \"#utility.yul\":3831:3951   */\n      pop\n      jump\t// out\n        /* \"#utility.yul\":3957:4094   */\n    tag_164:\n        /* \"#utility.yul\":4002:4007   */\n      0x00\n        /* \"#utility.yul\":4040:4046   */\n      dup2\n        /* \"#utility.yul\":4027:4047   */\n      calldataload\n        /* \"#utility.yul\":4018:4047   */\n      swap1\n      pop\n        /* \"#utility.yul\":4056:4088   */\n      tag_252\n        /* \"#utility.yul\":4082:4087   */\n      dup2\n        /* \"#utility.yul\":4056:4088   */\n      tag_163\n      jump\t// in\n    tag_252:\n        /* \"#utility.yul\":3957:4094   */\n      swap3\n      swap2\n      pop\n      pop\n      jump\t// out\n        /* \"#utility.yul\":4100:4427   */\n    tag_51:\n        /* \"#utility.yul\":4158:4164   */\n      0x00\n        /* \"#utility.yul\":4207:4209   */\n      0x20\n        /* \"#utility.yul\":4195:4204   */\n      dup3\n        /* \"#utility.yul\":4186:4193   */\n      dup5\n        /* \"#utility.yul\":4182:4205   */\n      sub\n        /* \"#utility.yul\":4178:4210   */\n      slt\n        /* \"#utility.yul\":4175:4294   */\n      iszero\n      tag_254\n      jumpi\n        /* \"#utility.yul\":4213:4292   */\n      tag_255\n      tag_151\n      jump\t// in\n    tag_255:\n        /* \"#utility.yul\":4175:4294   */\n    tag_254:\n        /* \"#utility.yul\":4333:4334   */\n      0x00\n        /* \"#utility.yul\":4358:4410   */\n      tag_256\n        /* \"#utility.yul\":4402:4409   */\n      dup5\n        /* \"#utility.yul\":4393:4399   */\n      dup3\n        /* \"#utility.yul\":4382:4391   */\n      dup6\n        /* \"#utility.yul\":4378:4400   */\n      add\n        /* \"#utility.yul\":4358:4410   */\n      tag_164\n      jump\t// in\n    tag_256:\n        /* \"#utility.yul\":4348:4410   */\n      swap2\n      pop\n        /* \"#utility.yul\":4304:4420   */\n      pop\n        /* \"#utility.yul\":4100:4427   */\n      swap3\n      swap2\n      pop\n      pop\n      jump\t// out\n        /* \"#utility.yul\":4433:4523   */\n    tag_165:\n        /* \"#utility.yul\":4467:4474   */\n      0x00\n        /* \"#utility.yul\":4510:4515   */\n      dup2\n        /* \"#utility.yul\":4503:4516   */\n      iszero\n        /* \"#utility.yul\":4496:4517   */\n      iszero\n        /* \"#utility.yul\":4485:4517   */\n      swap1\n      pop\n        /* \"#utility.yul\":4433:4523   */\n      swap2\n      swap1\n      pop\n      jump\t// out\n        /* \"#utility.yul\":4529:4638   */\n    tag_166:\n        /* \"#utility.yul\":4610:4631   */\n      tag_259\n        /* \"#utility.yul\":4625:4630   */\n      dup2\n        /* \"#utility.yul\":4610:4631   */\n      tag_165\n      jump\t// in\n    tag_259:\n        /* \"#utility.yul\":4605:4608   */\n      dup3\n        /* \"#utility.yul\":4598:4632   */\n      mstore\n        /* \"#utility.yul\":4529:4638   */\n      pop\n      pop\n      jump\t// out\n        /* \"#utility.yul\":4644:4854   */\n    tag_54:\n        /* \"#utility.yul\":4731:4735   */\n      0x00\n        /* \"#utility.yul\":4769:4771   */\n      0x20\n        /* \"#utility.yul\":4758:4767   */\n      dup3\n        /* \"#utility.yul\":4754:4772   */\n      add\n        /* \"#utility.yul\":4746:4772   */\n      swap1\n      pop\n        /* \"#utility.yul\":4782:4847   */\n      tag_261\n        /* \"#utility.yul\":4844:4845   */\n      0x00\n        /* \"#utility.yul\":4833:4842   */\n      dup4\n        /* \"#utility.yul\":4829:4846   */\n      add\n        /* \"#utility.yul\":4820:4826   */\n      dup5\n        /* \"#utility.yul\":4782:4847   */\n      tag_166\n      jump\t// in\n    tag_261:\n        /* \"#utility.yul\":4644:4854   */\n      swap3\n      swap2\n      pop\n      pop\n      jump\t// out\n        /* \"#utility.yul\":4860:4976   */\n    tag_167:\n        /* \"#utility.yul\":4930:4951   */\n      tag_263\n        /* \"#utility.yul\":4945:4950   */\n      dup2\n        /* \"#utility.yul\":4930:4951   */\n      tag_165\n      jump\t// in\n    tag_263:\n        /* \"#utility.yul\":4923:4928   */\n      dup2\n        /* \"#utility.yul\":4920:4952   */\n      eq\n        /* \"#utility.yul\":4910:4970   */\n      tag_264\n      jumpi\n        /* \"#utility.yul\":4966:4967   */\n      0x00\n        /* \"#utility.yul\":4963:4964   */\n      dup1\n        /* \"#utility.yul\":4956:4968   */\n      revert\n        /* \"#utility.yul\":4910:4970   */\n    tag_264:\n        /* \"#utility.yul\":4860:4976   */\n      pop\n      jump\t// out\n        /* \"#utility.yul\":4982:5115   */\n    tag_168:\n        /* \"#utility.yul\":5025:5030   */\n      0x00\n        /* \"#utility.yul\":5063:5069   */\n      dup2\n        /* \"#utility.yul\":5050:5070   */\n      calldataload\n        /* \"#utility.yul\":5041:5070   */\n      swap1\n      pop\n        /* \"#utility.yul\":5079:5109   */\n      tag_266\n        /* \"#utility.yul\":5103:5108   */\n      dup2\n        /* \"#utility.yul\":5079:5109   */\n      tag_167\n      jump\t// in\n    tag_266:\n        /* \"#utility.yul\":4982:5115   */\n      swap3\n      swap2\n      pop\n      pop\n      jump\t// out\n        /* \"#utility.yul\":5121:5589   */\n    tag_57:\n        /* \"#utility.yul\":5186:5192   */\n      0x00\n        /* \"#utility.yul\":5194:5200   */\n      dup1\n        /* \"#utility.yul\":5243:5245   */\n      0x40\n        /* \"#utility.yul\":5231:5240   */\n      dup4\n        /* \"#utility.yul\":5222:5229   */\n      dup6\n        /* \"#utility.yul\":5218:5241   */\n      sub\n        /* \"#utility.yul\":5214:5246   */\n      slt\n        /* \"#utility.yul\":5211:5330   */\n      iszero\n      tag_268\n      jumpi\n        /* \"#utility.yul\":5249:5328   */\n      tag_269\n      tag_151\n      jump\t// in\n    tag_269:\n        /* \"#utility.yul\":5211:5330   */\n    tag_268:\n        /* \"#utility.yul\":5369:5370   */\n      0x00\n        /* \"#utility.yul\":5394:5447   */\n      tag_270\n        /* \"#utility.yul\":5439:5446   */\n      dup6\n        /* \"#utility.yul\":5430:5436   */\n      dup3\n        /* \"#utility.yul\":5419:5428   */\n      dup7\n        /* \"#utility.yul\":5415:5437   */\n      add\n        /* \"#utility.yul\":5394:5447   */\n      tag_160\n      jump\t// in\n    tag_270:\n        /* \"#utility.yul\":5384:5447   */\n      swap3\n      pop\n        /* \"#utility.yul\":5340:5457   */\n      pop\n        /* \"#utility.yul\":5496:5498   */\n      0x20\n        /* \"#utility.yul\":5522:5572   */\n      tag_271\n        /* \"#utility.yul\":5564:5571   */\n      dup6\n        /* \"#utility.yul\":5555:5561   */\n      dup3\n        /* \"#utility.yul\":5544:5553   */\n      dup7\n        /* \"#utility.yul\":5540:5562   */\n      add\n        /* \"#utility.yul\":5522:5572   */\n      tag_168\n      jump\t// in\n    tag_271:\n        /* \"#utility.yul\":5512:5572   */\n      swap2\n      pop\n        /* \"#utility.yul\":5467:5582   */\n      pop\n        /* \"#utility.yul\":5121:5589   */\n      swap3\n      pop\n      swap3\n      swap1\n      pop\n      jump\t// out\n        /* \"#utility.yul\":5595:5712   */\n    tag_169:\n        /* \"#utility.yul\":5704:5705   */\n      0x00\n        /* \"#utility.yul\":5701:5702   */\n      dup1\n        /* \"#utility.yul\":5694:5706   */\n      revert\n        /* \"#utility.yul\":5718:5835   */\n    tag_170:\n        /* \"#utility.yul\":5827:5828   */\n      0x00\n        /* \"#utility.yul\":5824:5825   */\n      dup1\n        /* \"#utility.yul\":5817:5829   */\n      revert\n        /* \"#utility.yul\":5841:5958   */\n    tag_171:\n        /* \"#utility.yul\":5950:5951   */\n      0x00\n        /* \"#utility.yul\":5947:5948   */\n      dup1\n        /* \"#utility.yul\":5940:5952   */\n      revert\n        /* \"#utility.yul\":5977:6529   */\n    tag_172:\n        /* \"#utility.yul\":6034:6042   */\n      0x00\n        /* \"#utility.yul\":6044:6050   */\n      dup1\n        /* \"#utility.yul\":6094:6097   */\n      dup4\n        /* \"#utility.yul\":6087:6091   */\n      0x1f\n        /* \"#utility.yul\":6079:6085   */\n      dup5\n        /* \"#utility.yul\":6075:6092   */\n      add\n        /* \"#utility.yul\":6071:6098   */\n      slt\n        /* \"#utility.yul\":6061:6183   */\n      tag_276\n      jumpi\n        /* \"#utility.yul\":6102:6181   */\n      tag_277\n      tag_169\n      jump\t// in\n    tag_277:\n        /* \"#utility.yul\":6061:6183   */\n    tag_276:\n        /* \"#utility.yul\":6215:6221   */\n      dup3\n        /* \"#utility.yul\":6202:6222   */\n      calldataload\n        /* \"#utility.yul\":6192:6222   */\n      swap1\n      pop\n        /* \"#utility.yul\":6245:6263   */\n      0xffffffffffffffff\n        /* \"#utility.yul\":6237:6243   */\n      dup2\n        /* \"#utility.yul\":6234:6264   */\n      gt\n        /* \"#utility.yul\":6231:6348   */\n      iszero\n      tag_278\n      jumpi\n        /* \"#utility.yul\":6267:6346   */\n      tag_279\n      tag_170\n      jump\t// in\n    tag_279:\n        /* \"#utility.yul\":6231:6348   */\n    tag_278:\n        /* \"#utility.yul\":6381:6385   */\n      0x20\n        /* \"#utility.yul\":6373:6379   */\n      dup4\n        /* \"#utility.yul\":6369:6386   */\n      add\n        /* \"#utility.yul\":6357:6386   */\n      swap2\n      pop\n        /* \"#utility.yul\":6435:6438   */\n      dup4\n        /* \"#utility.yul\":6427:6431   */\n      0x01\n        /* \"#utility.yul\":6419:6425   */\n      dup3\n        /* \"#utility.yul\":6415:6432   */\n      mul\n        /* \"#utility.yul\":6405:6413   */\n      dup4\n        /* \"#utility.yul\":6401:6433   */\n      add\n        /* \"#utility.yul\":6398:6439   */\n      gt\n        /* \"#utility.yul\":6395:6523   */\n      iszero\n      tag_280\n      jumpi\n        /* \"#utility.yul\":6442:6521   */\n      tag_281\n      tag_171\n      jump\t// in\n    tag_281:\n        /* \"#utility.yul\":6395:6523   */\n    tag_280:\n        /* \"#utility.yul\":5977:6529   */\n      swap3\n      pop\n      swap3\n      swap1\n      pop\n      jump\t// out\n        /* \"#utility.yul\":6535:7498   */\n    tag_61:\n        /* \"#utility.yul\":6632:6638   */\n      0x00\n        /* \"#utility.yul\":6640:6646   */\n      dup1\n        /* \"#utility.yul\":6648:6654   */\n      0x00\n        /* \"#utility.yul\":6656:6662   */\n      dup1\n        /* \"#utility.yul\":6664:6670   */\n      0x00\n        /* \"#utility.yul\":6713:6716   */\n      0x80\n        /* \"#utility.yul\":6701:6710   */\n      dup7\n        /* \"#utility.yul\":6692:6699   */\n      dup9\n        /* \"#utility.yul\":6688:6711   */\n      sub\n        /* \"#utility.yul\":6684:6717   */\n      slt\n        /* \"#utility.yul\":6681:6801   */\n      iszero\n      tag_283\n      jumpi\n        /* \"#utility.yul\":6720:6799   */\n      tag_284\n      tag_151\n      jump\t// in\n    tag_284:\n        /* \"#utility.yul\":6681:6801   */\n    tag_283:\n        /* \"#utility.yul\":6840:6841   */\n      0x00\n        /* \"#utility.yul\":6865:6918   */\n      tag_285\n        /* \"#utility.yul\":6910:6917   */\n      dup9\n        /* \"#utility.yul\":6901:6907   */\n      dup3\n        /* \"#utility.yul\":6890:6899   */\n      dup10\n        /* \"#utility.yul\":6886:6908   */\n      add\n        /* \"#utility.yul\":6865:6918   */\n      tag_160\n      jump\t// in\n    tag_285:\n        /* \"#utility.yul\":6855:6918   */\n      swap6\n      pop\n        /* \"#utility.yul\":6811:6928   */\n      pop\n        /* \"#utility.yul\":6967:6969   */\n      0x20\n        /* \"#utility.yul\":6993:7046   */\n      tag_286\n        /* \"#utility.yul\":7038:7045   */\n      dup9\n        /* \"#utility.yul\":7029:7035   */\n      dup3\n        /* \"#utility.yul\":7018:7027   */\n      dup10\n        /* \"#utility.yul\":7014:7036   */\n      add\n        /* \"#utility.yul\":6993:7046   */\n      tag_160\n      jump\t// in\n    tag_286:\n        /* \"#utility.yul\":6983:7046   */\n      swap5\n      pop\n        /* \"#utility.yul\":6938:7056   */\n      pop\n        /* \"#utility.yul\":7095:7097   */\n      0x40\n        /* \"#utility.yul\":7121:7174   */\n      tag_287\n        /* \"#utility.yul\":7166:7173   */\n      dup9\n        /* \"#utility.yul\":7157:7163   */\n      dup3\n        /* \"#utility.yul\":7146:7155   */\n      dup10\n        /* \"#utility.yul\":7142:7164   */\n      add\n        /* \"#utility.yul\":7121:7174   */\n      tag_155\n      jump\t// in\n    tag_287:\n        /* \"#utility.yul\":7111:7174   */\n      swap4\n      pop\n        /* \"#utility.yul\":7066:7184   */\n      pop\n        /* \"#utility.yul\":7251:7253   */\n      0x60\n        /* \"#utility.yul\":7240:7249   */\n      dup7\n        /* \"#utility.yul\":7236:7254   */\n      add\n        /* \"#utility.yul\":7223:7255   */\n      calldataload\n        /* \"#utility.yul\":7282:7300   */\n      0xffffffffffffffff\n        /* \"#utility.yul\":7274:7280   */\n      dup2\n        /* \"#utility.yul\":7271:7301   */\n      gt\n        /* \"#utility.yul\":7268:7385   */\n      iszero\n      tag_288\n      jumpi\n        /* \"#utility.yul\":7304:7383   */\n      tag_289\n      tag_152\n      jump\t// in\n    tag_289:\n        /* \"#utility.yul\":7268:7385   */\n    tag_288:\n        /* \"#utility.yul\":7417:7481   */\n      tag_290\n        /* \"#utility.yul\":7473:7480   */\n      dup9\n        /* \"#utility.yul\":7464:7470   */\n      dup3\n        /* \"#utility.yul\":7453:7462   */\n      dup10\n        /* \"#utility.yul\":7449:7471   */\n      add\n        /* \"#utility.yul\":7417:7481   */\n      tag_172\n      jump\t// in\n    tag_290:\n        /* \"#utility.yul\":7399:7481   */\n      swap3\n      pop\n      swap3\n      pop\n        /* \"#utility.yul\":7194:7491   */\n      pop\n        /* \"#utility.yul\":6535:7498   */\n      swap3\n      swap6\n      pop\n      swap3\n      swap6\n      swap1\n      swap4\n      pop\n      jump\t// out\n        /* \"#utility.yul\":7504:7978   */\n    tag_65:\n        /* \"#utility.yul\":7572:7578   */\n      0x00\n        /* \"#utility.yul\":7580:7586   */\n      dup1\n        /* \"#utility.yul\":7629:7631   */\n      0x40\n        /* \"#utility.yul\":7617:7626   */\n      dup4\n        /* \"#utility.yul\":7608:7615   */\n      dup6\n        /* \"#utility.yul\":7604:7627   */\n      sub\n        /* \"#utility.yul\":7600:7632   */\n      slt\n        /* \"#utility.yul\":7597:7716   */\n      iszero\n      tag_292\n      jumpi\n        /* \"#utility.yul\":7635:7714   */\n      tag_293\n      tag_151\n      jump\t// in\n    tag_293:\n        /* \"#utility.yul\":7597:7716   */\n    tag_292:\n        /* \"#utility.yul\":7755:7756   */\n      0x00\n        /* \"#utility.yul\":7780:7833   */\n      tag_294\n        /* \"#utility.yul\":7825:7832   */\n      dup6\n        /* \"#utility.yul\":7816:7822   */\n      dup3\n        /* \"#utility.yul\":7805:7814   */\n      dup7\n        /* \"#utility.yul\":7801:7823   */\n      add\n        /* \"#utility.yul\":7780:7833   */\n      tag_160\n      jump\t// in\n    tag_294:\n        /* \"#utility.yul\":7770:7833   */\n      swap3\n      pop\n        /* \"#utility.yul\":7726:7843   */\n      pop\n        /* \"#utility.yul\":7882:7884   */\n      0x20\n        /* \"#utility.yul\":7908:7961   */\n      tag_295\n        /* \"#utility.yul\":7953:7960   */\n      dup6\n        /* \"#utility.yul\":7944:7950   */\n      dup3\n        /* \"#utility.yul\":7933:7942   */\n      dup7\n        /* \"#utility.yul\":7929:7951   */\n      add\n        /* \"#utility.yul\":7908:7961   */\n      tag_160\n      jump\t// in\n    tag_295:\n        /* \"#utility.yul\":7898:7961   */\n      swap2\n      pop\n        /* \"#utility.yul\":7853:7971   */\n      pop\n        /* \"#utility.yul\":7504:7978   */\n      swap3\n      pop\n      swap3\n      swap1\n      pop\n      jump\t// out\n        /* \"#utility.yul\":7984:8153   */\n    tag_173:\n        /* \"#utility.yul\":8068:8079   */\n      0x00\n        /* \"#utility.yul\":8102:8108   */\n      dup3\n        /* \"#utility.yul\":8097:8100   */\n      dup3\n        /* \"#utility.yul\":8090:8109   */\n      mstore\n        /* \"#utility.yul\":8142:8146   */\n      0x20\n        /* \"#utility.yul\":8137:8140   */\n      dup3\n        /* \"#utility.yul\":8133:8147   */\n      add\n        /* \"#utility.yul\":8118:8147   */\n      swap1\n      pop\n        /* \"#utility.yul\":7984:8153   */\n      swap3\n      swap2\n      pop\n      pop\n      jump\t// out\n        /* \"#utility.yul\":8159:8329   */\n    tag_174:\n        /* \"#utility.yul\":8299:8321   */\n      0x746f6b656e4964206973206e6f74206578697374000000000000000000000000\n        /* \"#utility.yul\":8295:8296   */\n      0x00\n        /* \"#utility.yul\":8287:8293   */\n      dup3\n        /* \"#utility.yul\":8283:8297   */\n      add\n        /* \"#utility.yul\":8276:8322   */\n      mstore\n        /* \"#utility.yul\":8159:8329   */\n      pop\n      jump\t// out\n        /* \"#utility.yul\":8335:8701   */\n    tag_175:\n        /* \"#utility.yul\":8477:8480   */\n      0x00\n        /* \"#utility.yul\":8498:8565   */\n      tag_299\n        /* \"#utility.yul\":8562:8564   */\n      0x14\n        /* \"#utility.yul\":8557:8560   */\n      dup4\n        /* \"#utility.yul\":8498:8565   */\n      tag_173\n      jump\t// in\n    tag_299:\n        /* \"#utility.yul\":8491:8565   */\n      swap2\n      pop\n        /* \"#utility.yul\":8574:8667   */\n      tag_300\n        /* \"#utility.yul\":8663:8666   */\n      dup3\n        /* \"#utility.yul\":8574:8667   */\n      tag_174\n      jump\t// in\n    tag_300:\n        /* \"#utility.yul\":8692:8694   */\n      0x20\n        /* \"#utility.yul\":8687:8690   */\n      dup3\n        /* \"#utility.yul\":8683:8695   */\n      add\n        /* \"#utility.yul\":8676:8695   */\n      swap1\n      pop\n        /* \"#utility.yul\":8335:8701   */\n      swap2\n      swap1\n      pop\n      jump\t// out\n        /* \"#utility.yul\":8707:9126   */\n    tag_71:\n        /* \"#utility.yul\":8873:8877   */\n      0x00\n        /* \"#utility.yul\":8911:8913   */\n      0x20\n        /* \"#utility.yul\":8900:8909   */\n      dup3\n        /* \"#utility.yul\":8896:8914   */\n      add\n        /* \"#utility.yul\":8888:8914   */\n      swap1\n      pop\n        /* \"#utility.yul\":8960:8969   */\n      dup2\n        /* \"#utility.yul\":8954:8958   */\n      dup2\n        /* \"#utility.yul\":8950:8970   */\n      sub\n        /* \"#utility.yul\":8946:8947   */\n      0x00\n        /* \"#utility.yul\":8935:8944   */\n      dup4\n        /* \"#utility.yul\":8931:8948   */\n      add\n        /* \"#utility.yul\":8924:8971   */\n      mstore\n        /* \"#utility.yul\":8988:9119   */\n      tag_302\n        /* \"#utility.yul\":9114:9118   */\n      dup2\n        /* \"#utility.yul\":8988:9119   */\n      tag_175\n      jump\t// in\n    tag_302:\n        /* \"#utility.yul\":8980:9119   */\n      swap1\n      pop\n        /* \"#utility.yul\":8707:9126   */\n      swap2\n      swap1\n      pop\n      jump\t// out\n        /* \"#utility.yul\":9132:9296   */\n    tag_176:\n        /* \"#utility.yul\":9272:9288   */\n      0x6e6f7420617574686f72697a6564000000000000000000000000000000000000\n        /* \"#utility.yul\":9268:9269   */\n      0x00\n        /* \"#utility.yul\":9260:9266   */\n      dup3\n        /* \"#utility.yul\":9256:9270   */\n      add\n        /* \"#utility.yul\":9249:9289   */\n      mstore\n        /* \"#utility.yul\":9132:9296   */\n      pop\n      jump\t// out\n        /* \"#utility.yul\":9302:9668   */\n    tag_177:\n        /* \"#utility.yul\":9444:9447   */\n      0x00\n        /* \"#utility.yul\":9465:9532   */\n      tag_305\n        /* \"#utility.yul\":9529:9531   */\n      0x0e\n        /* \"#utility.yul\":9524:9527   */\n      dup4\n        /* \"#utility.yul\":9465:9532   */\n      tag_173\n      jump\t// in\n    tag_305:\n        /* \"#utility.yul\":9458:9532   */\n      swap2\n      pop\n        /* \"#utility.yul\":9541:9634   */\n      tag_306\n        /* \"#utility.yul\":9630:9633   */\n      dup3\n        /* \"#utility.yul\":9541:9634   */\n      tag_176\n      jump\t// in\n    tag_306:\n        /* \"#utility.yul\":9659:9661   */\n      0x20\n        /* \"#utility.yul\":9654:9657   */\n      dup3\n        /* \"#utility.yul\":9650:9662   */\n      add\n        /* \"#utility.yul\":9643:9662   */\n      swap1\n      pop\n        /* \"#utility.yul\":9302:9668   */\n      swap2\n      swap1\n      pop\n      jump\t// out\n        /* \"#utility.yul\":9674:10093   */\n    tag_76:\n        /* \"#utility.yul\":9840:9844   */\n      0x00\n        /* \"#utility.yul\":9878:9880   */\n      0x20\n        /* \"#utility.yul\":9867:9876   */\n      dup3\n        /* \"#utility.yul\":9863:9881   */\n      add\n        /* \"#utility.yul\":9855:9881   */\n      swap1\n      pop\n        /* \"#utility.yul\":9927:9936   */\n      dup2\n        /* \"#utility.yul\":9921:9925   */\n      dup2\n        /* \"#utility.yul\":9917:9937   */\n      sub\n        /* \"#utility.yul\":9913:9914   */\n      0x00\n        /* \"#utility.yul\":9902:9911   */\n      dup4\n        /* \"#utility.yul\":9898:9915   */\n      add\n        /* \"#utility.yul\":9891:9938   */\n      mstore\n        /* \"#utility.yul\":9955:10086   */\n      tag_308\n        /* \"#utility.yul\":10081:10085   */\n      dup2\n        /* \"#utility.yul\":9955:10086   */\n      tag_177\n      jump\t// in\n    tag_308:\n        /* \"#utility.yul\":9947:10086   */\n      swap1\n      pop\n        /* \"#utility.yul\":9674:10093   */\n      swap2\n      swap1\n      pop\n      jump\t// out\n        /* \"#utility.yul\":10099:10262   */\n    tag_178:\n        /* \"#utility.yul\":10239:10254   */\n      0x66726f6d20213d206f776e657200000000000000000000000000000000000000\n        /* \"#utility.yul\":10235:10236   */\n      0x00\n        /* \"#utility.yul\":10227:10233   */\n      dup3\n        /* \"#utility.yul\":10223:10237   */\n      add\n        /* \"#utility.yul\":10216:10255   */\n      mstore\n        /* \"#utility.yul\":10099:10262   */\n      pop\n      jump\t// out\n        /* \"#utility.yul\":10268:10634   */\n    tag_179:\n        /* \"#utility.yul\":10410:10413   */\n      0x00\n        /* \"#utility.yul\":10431:10498   */\n      tag_311\n        /* \"#utility.yul\":10495:10497   */\n      0x0d\n        /* \"#utility.yul\":10490:10493   */\n      dup4\n        /* \"#utility.yul\":10431:10498   */\n      tag_173\n      jump\t// in\n    tag_311:\n        /* \"#utility.yul\":10424:10498   */\n      swap2\n      pop\n        /* \"#utility.yul\":10507:10600   */\n      tag_312\n        /* \"#utility.yul\":10596:10599   */\n      dup3\n        /* \"#utility.yul\":10507:10600   */\n      tag_178\n      jump\t// in\n    tag_312:\n        /* \"#utility.yul\":10625:10627   */\n      0x20\n        /* \"#utility.yul\":10620:10623   */\n      dup3\n        /* \"#utility.yul\":10616:10628   */\n      add\n        /* \"#utility.yul\":10609:10628   */\n      swap1\n      pop\n        /* \"#utility.yul\":10268:10634   */\n      swap2\n      swap1\n      pop\n      jump\t// out\n        /* \"#utility.yul\":10640:11059   */\n    tag_80:\n        /* \"#utility.yul\":10806:10810   */\n      0x00\n        /* \"#utility.yul\":10844:10846   */\n      0x20\n        /* \"#utility.yul\":10833:10842   */\n      dup3\n        /* \"#utility.yul\":10829:10847   */\n      add\n        /* \"#utility.yul\":10821:10847   */\n      swap1\n      pop\n        /* \"#utility.yul\":10893:10902   */\n      dup2\n        /* \"#utility.yul\":10887:10891   */\n      dup2\n        /* \"#utility.yul\":10883:10903   */\n      sub\n        /* \"#utility.yul\":10879:10880   */\n      0x00\n        /* \"#utility.yul\":10868:10877   */\n      dup4\n        /* \"#utility.yul\":10864:10881   */\n      add\n        /* \"#utility.yul\":10857:10904   */\n      mstore\n        /* \"#utility.yul\":10921:11052   */\n      tag_314\n        /* \"#utility.yul\":11047:11051   */\n      dup2\n        /* \"#utility.yul\":10921:11052   */\n      tag_179\n      jump\t// in\n    tag_314:\n        /* \"#utility.yul\":10913:11052   */\n      swap1\n      pop\n        /* \"#utility.yul\":10640:11059   */\n      swap2\n      swap1\n      pop\n      jump\t// out\n        /* \"#utility.yul\":11065:11224   */\n    tag_180:\n        /* \"#utility.yul\":11205:11216   */\n      0x746f203d207a65726f0000000000000000000000000000000000000000000000\n        /* \"#utility.yul\":11201:11202   */\n      0x00\n        /* \"#utility.yul\":11193:11199   */\n      dup3\n        /* \"#utility.yul\":11189:11203   */\n      add\n        /* \"#utility.yul\":11182:11217   */\n      mstore\n        /* \"#utility.yul\":11065:11224   */\n      pop\n      jump\t// out\n        /* \"#utility.yul\":11230:11595   */\n    tag_181:\n        /* \"#utility.yul\":11372:11375   */\n      0x00\n        /* \"#utility.yul\":11393:11459   */\n      tag_317\n        /* \"#utility.yul\":11457:11458   */\n      0x09\n        /* \"#utility.yul\":11452:11455   */\n      dup4\n        /* \"#utility.yul\":11393:11459   */\n      tag_173\n      jump\t// in\n    tag_317:\n        /* \"#utility.yul\":11386:11459   */\n      swap2\n      pop\n        /* \"#utility.yul\":11468:11561   */\n      tag_318\n        /* \"#utility.yul\":11557:11560   */\n      dup3\n        /* \"#utility.yul\":11468:11561   */\n      tag_180\n      jump\t// in\n    tag_318:\n        /* \"#utility.yul\":11586:11588   */\n      0x20\n        /* \"#utility.yul\":11581:11584   */\n      dup3\n        /* \"#utility.yul\":11577:11589   */\n      add\n        /* \"#utility.yul\":11570:11589   */\n      swap1\n      pop\n        /* \"#utility.yul\":11230:11595   */\n      swap2\n      swap1\n      pop\n      jump\t// out\n        /* \"#utility.yul\":11601:12020   */\n    tag_83:\n        /* \"#utility.yul\":11767:11771   */\n      0x00\n        /* \"#utility.yul\":11805:11807   */\n      0x20\n        /* \"#utility.yul\":11794:11803   */\n      dup3\n        /* \"#utility.yul\":11790:11808   */\n      add\n        /* \"#utility.yul\":11782:11808   */\n      swap1\n      pop\n        /* \"#utility.yul\":11854:11863   */\n      dup2\n        /* \"#utility.yul\":11848:11852   */\n      dup2\n        /* \"#utility.yul\":11844:11864   */\n      sub\n        /* \"#utility.yul\":11840:11841   */\n      0x00\n        /* \"#utility.yul\":11829:11838   */\n      dup4\n        /* \"#utility.yul\":11825:11842   */\n      add\n        /* \"#utility.yul\":11818:11865   */\n      mstore\n        /* \"#utility.yul\":11882:12013   */\n      tag_320\n        /* \"#utility.yul\":12008:12012   */\n      dup2\n        /* \"#utility.yul\":11882:12013   */\n      tag_181\n      jump\t// in\n    tag_320:\n        /* \"#utility.yul\":11874:12013   */\n      swap1\n      pop\n        /* \"#utility.yul\":11601:12020   */\n      swap2\n      swap1\n      pop\n      jump\t// out\n        /* \"#utility.yul\":12026:12206   */\n    tag_182:\n        /* \"#utility.yul\":12074:12151   */\n      0x4e487b7100000000000000000000000000000000000000000000000000000000\n        /* \"#utility.yul\":12071:12072   */\n      0x00\n        /* \"#utility.yul\":12064:12152   */\n      mstore\n        /* \"#utility.yul\":12171:12175   */\n      0x11\n        /* \"#utility.yul\":12168:12169   */\n      0x04\n        /* \"#utility.yul\":12161:12176   */\n      mstore\n        /* \"#utility.yul\":12195:12199   */\n      0x24\n        /* \"#utility.yul\":12192:12193   */\n      0x00\n        /* \"#utility.yul\":12185:12200   */\n      revert\n        /* \"#utility.yul\":12212:12383   */\n    tag_89:\n        /* \"#utility.yul\":12251:12254   */\n      0x00\n        /* \"#utility.yul\":12274:12298   */\n      tag_323\n        /* \"#utility.yul\":12292:12297   */\n      dup3\n        /* \"#utility.yul\":12274:12298   */\n      tag_153\n      jump\t// in\n    tag_323:\n        /* \"#utility.yul\":12265:12298   */\n      swap2\n      pop\n        /* \"#utility.yul\":12320:12324   */\n      0x00\n        /* \"#utility.yul\":12313:12318   */\n      dup3\n        /* \"#utility.yul\":12310:12325   */\n      sub\n        /* \"#utility.yul\":12307:12348   */\n      tag_324\n      jumpi\n        /* \"#utility.yul\":12328:12346   */\n      tag_325\n      tag_182\n      jump\t// in\n    tag_325:\n        /* \"#utility.yul\":12307:12348   */\n    tag_324:\n        /* \"#utility.yul\":12375:12376   */\n      0x01\n        /* \"#utility.yul\":12368:12373   */\n      dup3\n        /* \"#utility.yul\":12364:12377   */\n      sub\n        /* \"#utility.yul\":12357:12377   */\n      swap1\n      pop\n        /* \"#utility.yul\":12212:12383   */\n      swap2\n      swap1\n      pop\n      jump\t// out\n        /* \"#utility.yul\":12389:12622   */\n    tag_91:\n        /* \"#utility.yul\":12428:12431   */\n      0x00\n        /* \"#utility.yul\":12451:12475   */\n      tag_327\n        /* \"#utility.yul\":12469:12474   */\n      dup3\n        /* \"#utility.yul\":12451:12475   */\n      tag_153\n      jump\t// in\n    tag_327:\n        /* \"#utility.yul\":12442:12475   */\n      swap2\n      pop\n        /* \"#utility.yul\":12497:12563   */\n      0xffffffffffffffffffffffffffffffffffffffffffffffffffffffffffffffff\n        /* \"#utility.yul\":12490:12495   */\n      dup3\n        /* \"#utility.yul\":12487:12564   */\n      sub\n        /* \"#utility.yul\":12484:12587   */\n      tag_328\n      jumpi\n        /* \"#utility.yul\":12567:12585   */\n      tag_329\n      tag_182\n      jump\t// in\n    tag_329:\n        /* \"#utility.yul\":12484:12587   */\n    tag_328:\n        /* \"#utility.yul\":12614:12615   */\n      0x01\n        /* \"#utility.yul\":12607:12612   */\n      dup3\n        /* \"#utility.yul\":12603:12616   */\n      add\n        /* \"#utility.yul\":12596:12616   */\n      swap1\n      pop\n        /* \"#utility.yul\":12389:12622   */\n      swap2\n      swap1\n      pop\n      jump\t// out\n        /* \"#utility.yul\":12628:12796   */\n    tag_183:\n        /* \"#utility.yul\":12711:12722   */\n      0x00\n        /* \"#utility.yul\":12745:12751   */\n      dup3\n        /* \"#utility.yul\":12740:12743   */\n      dup3\n        /* \"#utility.yul\":12733:12752   */\n      mstore\n        /* \"#utility.yul\":12785:12789   */\n      0x20\n        /* \"#utility.yul\":12780:12783   */\n      dup3\n        /* \"#utility.yul\":12776:12790   */\n      add\n        /* \"#utility.yul\":12761:12790   */\n      swap1\n      pop\n        /* \"#utility.yul\":12628:12796   */\n      swap3\n      swap2\n      pop\n      pop\n      jump\t// out\n        /* \"#utility.yul\":12802:12916   */\n    tag_184:\n      pop\n      jump\t// out\n        /* \"#utility.yul\":12922:13284   */\n    tag_185:\n        /* \"#utility.yul\":13063:13066   */\n      0x00\n        /* \"#utility.yul\":13084:13149   */\n      tag_333\n        /* \"#utility.yul\":13147:13148   */\n      0x00\n        /* \"#utility.yul\":13142:13145   */\n      dup4\n        /* \"#utility.yul\":13084:13149   */\n      tag_183\n      jump\t// in\n    tag_333:\n        /* \"#utility.yul\":13077:13149   */\n      swap2\n      pop\n        /* \"#utility.yul\":13158:13251   */\n      tag_334\n        /* \"#utility.yul\":13247:13250   */\n      dup3\n        /* \"#utility.yul\":13158:13251   */\n      tag_184\n      jump\t// in\n    tag_334:\n        /* \"#utility.yul\":13276:13277   */\n      0x00\n        /* \"#utility.yul\":13271:13274   */\n      dup3\n        /* \"#utility.yul\":13267:13278   */\n      add\n        /* \"#utility.yul\":13260:13278   */\n      swap1\n      pop\n        /* \"#utility.yul\":12922:13284   */\n      swap2\n      swap1\n      pop\n      jump\t// out\n        /* \"#utility.yul\":13290:14038   */\n    tag_99:\n        /* \"#utility.yul\":13539:13543   */\n      0x00\n        /* \"#utility.yul\":13577:13580   */\n      0x80\n        /* \"#utility.yul\":13566:13575   */\n      dup3\n        /* \"#utility.yul\":13562:13581   */\n      add\n        /* \"#utility.yul\":13554:13581   */\n      swap1\n      pop\n        /* \"#utility.yul\":13591:13662   */\n      tag_336\n        /* \"#utility.yul\":13659:13660   */\n      0x00\n        /* \"#utility.yul\":13648:13657   */\n      dup4\n        /* \"#utility.yul\":13644:13661   */\n      add\n        /* \"#utility.yul\":13635:13641   */\n      dup7\n        /* \"#utility.yul\":13591:13662   */\n      tag_158\n      jump\t// in\n    tag_336:\n        /* \"#utility.yul\":13672:13744   */\n      tag_337\n        /* \"#utility.yul\":13740:13742   */\n      0x20\n        /* \"#utility.yul\":13729:13738   */\n      dup4\n        /* \"#utility.yul\":13725:13743   */\n      add\n        /* \"#utility.yul\":13716:13722   */\n      dup6\n        /* \"#utility.yul\":13672:13744   */\n      tag_158\n      jump\t// in\n    tag_337:\n        /* \"#utility.yul\":13754:13826   */\n      tag_338\n        /* \"#utility.yul\":13822:13824   */\n      0x40\n        /* \"#utility.yul\":13811:13820   */\n      dup4\n        /* \"#utility.yul\":13807:13825   */\n      add\n        /* \"#utility.yul\":13798:13804   */\n      dup5\n        /* \"#utility.yul\":13754:13826   */\n      tag_161\n      jump\t// in\n    tag_338:\n        /* \"#utility.yul\":13873:13882   */\n      dup2\n        /* \"#utility.yul\":13867:13871   */\n      dup2\n        /* \"#utility.yul\":13863:13883   */\n      sub\n        /* \"#utility.yul\":13858:13860   */\n      0x60\n        /* \"#utility.yul\":13847:13856   */\n      dup4\n        /* \"#utility.yul\":13843:13861   */\n      add\n        /* \"#utility.yul\":13836:13884   */\n      mstore\n        /* \"#utility.yul\":13901:14031   */\n      tag_339\n        /* \"#utility.yul\":14026:14030   */\n      dup2\n        /* \"#utility.yul\":13901:14031   */\n      tag_185\n      jump\t// in\n    tag_339:\n        /* \"#utility.yul\":13893:14031   */\n      swap1\n      pop\n        /* \"#utility.yul\":13290:14038   */\n      swap5\n      swap4\n      pop\n      pop\n      pop\n      pop\n      jump\t// out\n        /* \"#utility.yul\":14044:14185   */\n    tag_186:\n        /* \"#utility.yul\":14100:14105   */\n      0x00\n        /* \"#utility.yul\":14131:14137   */\n      dup2\n        /* \"#utility.yul\":14125:14138   */\n      mload\n        /* \"#utility.yul\":14116:14138   */\n      swap1\n      pop\n        /* \"#utility.yul\":14147:14179   */\n      tag_341\n        /* \"#utility.yul\":14173:14178   */\n      dup2\n        /* \"#utility.yul\":14147:14179   */\n      tag_163\n      jump\t// in\n    tag_341:\n        /* \"#utility.yul\":14044:14185   */\n      swap3\n      swap2\n      pop\n      pop\n      jump\t// out\n        /* \"#utility.yul\":14191:14540   */\n    tag_103:\n        /* \"#utility.yul\":14260:14266   */\n      0x00\n        /* \"#utility.yul\":14309:14311   */\n      0x20\n        /* \"#utility.yul\":14297:14306   */\n      dup3\n        /* \"#utility.yul\":14288:14295   */\n      dup5\n        /* \"#utility.yul\":14284:14307   */\n      sub\n        /* \"#utility.yul\":14280:14312   */\n      slt\n        /* \"#utility.yul\":14277:14396   */\n      iszero\n      tag_343\n      jumpi\n        /* \"#utility.yul\":14315:14394   */\n      tag_344\n      tag_151\n      jump\t// in\n    tag_344:\n        /* \"#utility.yul\":14277:14396   */\n    tag_343:\n        /* \"#utility.yul\":14435:14436   */\n      0x00\n        /* \"#utility.yul\":14460:14523   */\n      tag_345\n        /* \"#utility.yul\":14515:14522   */\n      dup5\n        /* \"#utility.yul\":14506:14512   */\n      dup3\n        /* \"#utility.yul\":14495:14504   */\n      dup6\n        /* \"#utility.yul\":14491:14513   */\n      add\n        /* \"#utility.yul\":14460:14523   */\n      tag_186\n      jump\t// in\n    tag_345:\n        /* \"#utility.yul\":14450:14523   */\n      swap2\n      pop\n        /* \"#utility.yul\":14406:14533   */\n      pop\n        /* \"#utility.yul\":14191:14540   */\n      swap3\n      swap2\n      pop\n      pop\n      jump\t// out\n        /* \"#utility.yul\":14546:14710   */\n    tag_187:\n        /* \"#utility.yul\":14686:14702   */\n      0x756e736166652072656365697074000000000000000000000000000000000000\n        /* \"#utility.yul\":14682:14683   */\n      0x00\n        /* \"#utility.yul\":14674:14680   */\n      dup3\n        /* \"#utility.yul\":14670:14684   */\n      add\n        /* \"#utility.yul\":14663:14703   */\n      mstore\n        /* \"#utility.yul\":14546:14710   */\n      pop\n      jump\t// out\n        /* \"#utility.yul\":14716:15082   */\n    tag_188:\n        /* \"#utility.yul\":14858:14861   */\n      0x00\n        /* \"#utility.yul\":14879:14946   */\n      tag_348\n        /* \"#utility.yul\":14943:14945   */\n      0x0e\n        /* \"#utility.yul\":14938:14941   */\n      dup4\n        /* \"#utility.yul\":14879:14946   */\n      tag_173\n      jump\t// in\n    tag_348:\n        /* \"#utility.yul\":14872:14946   */\n      swap2\n      pop\n        /* \"#utility.yul\":14955:15048   */\n      tag_349\n        /* \"#utility.yul\":15044:15047   */\n      dup3\n        /* \"#utility.yul\":14955:15048   */\n      tag_187\n      jump\t// in\n    tag_349:\n        /* \"#utility.yul\":15073:15075   */\n      0x20\n        /* \"#utility.yul\":15068:15071   */\n      dup3\n        /* \"#utility.yul\":15064:15076   */\n      add\n        /* \"#utility.yul\":15057:15076   */\n      swap1\n      pop\n        /* \"#utility.yul\":14716:15082   */\n      swap2\n      swap1\n      pop\n      jump\t// out\n        /* \"#utility.yul\":15088:15507   */\n    tag_106:\n        /* \"#utility.yul\":15254:15258   */\n      0x00\n        /* \"#utility.yul\":15292:15294   */\n      0x20\n        /* \"#utility.yul\":15281:15290   */\n      dup3\n        /* \"#utility.yul\":15277:15295   */\n      add\n        /* \"#utility.yul\":15269:15295   */\n      swap1\n      pop\n        /* \"#utility.yul\":15341:15350   */\n      dup2\n        /* \"#utility.yul\":15335:15339   */\n      dup2\n        /* \"#utility.yul\":15331:15351   */\n      sub\n        /* \"#utility.yul\":15327:15328   */\n      0x00\n        /* \"#utility.yul\":15316:15325   */\n      dup4\n        /* \"#utility.yul\":15312:15329   */\n      add\n        /* \"#utility.yul\":15305:15352   */\n      mstore\n        /* \"#utility.yul\":15369:15500   */\n      tag_351\n        /* \"#utility.yul\":15495:15499   */\n      dup2\n        /* \"#utility.yul\":15369:15500   */\n      tag_188\n      jump\t// in\n    tag_351:\n        /* \"#utility.yul\":15361:15500   */\n      swap1\n      pop\n        /* \"#utility.yul\":15088:15507   */\n      swap2\n      swap1\n      pop\n      jump\t// out\n        /* \"#utility.yul\":15513:15672   */\n    tag_189:\n        /* \"#utility.yul\":15653:15664   */\n      0x6e6f74206f776e65720000000000000000000000000000000000000000000000\n        /* \"#utility.yul\":15649:15650   */\n      0x00\n        /* \"#utility.yul\":15641:15647   */\n      dup3\n        /* \"#utility.yul\":15637:15651   */\n      add\n        /* \"#utility.yul\":15630:15665   */\n      mstore\n        /* \"#utility.yul\":15513:15672   */\n      pop\n      jump\t// out\n        /* \"#utility.yul\":15678:16043   */\n    tag_190:\n        /* \"#utility.yul\":15820:15823   */\n      0x00\n        /* \"#utility.yul\":15841:15907   */\n      tag_354\n        /* \"#utility.yul\":15905:15906   */\n      0x09\n        /* \"#utility.yul\":15900:15903   */\n      dup4\n        /* \"#utility.yul\":15841:15907   */\n      tag_173\n      jump\t// in\n    tag_354:\n        /* \"#utility.yul\":15834:15907   */\n      swap2\n      pop\n        /* \"#utility.yul\":15916:16009   */\n      tag_355\n        /* \"#utility.yul\":16005:16008   */\n      dup3\n        /* \"#utility.yul\":15916:16009   */\n      tag_189\n      jump\t// in\n    tag_355:\n        /* \"#utility.yul\":16034:16036   */\n      0x20\n        /* \"#utility.yul\":16029:16032   */\n      dup3\n        /* \"#utility.yul\":16025:16037   */\n      add\n        /* \"#utility.yul\":16018:16037   */\n      swap1\n      pop\n        /* \"#utility.yul\":15678:16043   */\n      swap2\n      swap1\n      pop\n      jump\t// out\n        /* \"#utility.yul\":16049:16468   */\n    tag_110:\n        /* \"#utility.yul\":16215:16219   */\n      0x00\n        /* \"#utility.yul\":16253:16255   */\n      0x20\n        /* \"#utility.yul\":16242:16251   */\n      dup3\n        /* \"#utility.yul\":16238:16256   */\n      add\n        /* \"#utility.yul\":16230:16256   */\n      swap1\n      pop\n        /* \"#utility.yul\":16302:16311   */\n      dup2\n        /* \"#utility.yul\":16296:16300   */\n      dup2\n        /* \"#utility.yul\":16292:16312   */\n      sub\n        /* \"#utility.yul\":16288:16289   */\n      0x00\n        /* \"#utility.yul\":16277:16286   */\n      dup4\n        /* \"#utility.yul\":16273:16290   */\n      add\n        /* \"#utility.yul\":16266:16313   */\n      mstore\n        /* \"#utility.yul\":16330:16461   */\n      tag_357\n        /* \"#utility.yul\":16456:16460   */\n      dup2\n        /* \"#utility.yul\":16330:16461   */\n      tag_190\n      jump\t// in\n    tag_357:\n        /* \"#utility.yul\":16322:16461   */\n      swap1\n      pop\n        /* \"#utility.yul\":16049:16468   */\n      swap2\n      swap1\n      pop\n      jump\t// out\n        /* \"#utility.yul\":16474:16642   */\n    tag_191:\n        /* \"#utility.yul\":16614:16634   */\n      0x6f776e6572203d20616464726573732830290000000000000000000000000000\n        /* \"#utility.yul\":16610:16611   */\n      0x00\n        /* \"#utility.yul\":16602:16608   */\n      dup3\n        /* \"#utility.yul\":16598:16612   */\n      add\n        /* \"#utility.yul\":16591:16635   */\n      mstore\n        /* \"#utility.yul\":16474:16642   */\n      pop\n      jump\t// out\n        /* \"#utility.yul\":16648:17014   */\n    tag_192:\n        /* \"#utility.yul\":16790:16793   */\n      0x00\n        /* \"#utility.yul\":16811:16878   */\n      tag_360\n        /* \"#utility.yul\":16875:16877   */\n      0x12\n        /* \"#utility.yul\":16870:16873   */\n      dup4\n        /* \"#utility.yul\":16811:16878   */\n      tag_173\n      jump\t// in\n    tag_360:\n        /* \"#utility.yul\":16804:16878   */\n      swap2\n      pop\n        /* \"#utility.yul\":16887:16980   */\n      tag_361\n        /* \"#utility.yul\":16976:16979   */\n      dup3\n        /* \"#utility.yul\":16887:16980   */\n      tag_191\n      jump\t// in\n    tag_361:\n        /* \"#utility.yul\":17005:17007   */\n      0x20\n        /* \"#utility.yul\":17000:17003   */\n      dup3\n        /* \"#utility.yul\":16996:17008   */\n      add\n        /* \"#utility.yul\":16989:17008   */\n      swap1\n      pop\n        /* \"#utility.yul\":16648:17014   */\n      swap2\n      swap1\n      pop\n      jump\t// out\n        /* \"#utility.yul\":17020:17439   */\n    tag_116:\n        /* \"#utility.yul\":17186:17190   */\n      0x00\n        /* \"#utility.yul\":17224:17226   */\n      0x20\n        /* \"#utility.yul\":17213:17222   */\n      dup3\n        /* \"#utility.yul\":17209:17227   */\n      add\n        /* \"#utility.yul\":17201:17227   */\n      swap1\n      pop\n        /* \"#utility.yul\":17273:17282   */\n      dup2\n        /* \"#utility.yul\":17267:17271   */\n      dup2\n        /* \"#utility.yul\":17263:17283   */\n      sub\n        /* \"#utility.yul\":17259:17260   */\n      0x00\n        /* \"#utility.yul\":17248:17257   */\n      dup4\n        /* \"#utility.yul\":17244:17261   */\n      add\n        /* \"#utility.yul\":17237:17284   */\n      mstore\n        /* \"#utility.yul\":17301:17432   */\n      tag_363\n        /* \"#utility.yul\":17427:17431   */\n      dup2\n        /* \"#utility.yul\":17301:17432   */\n      tag_192\n      jump\t// in\n    tag_363:\n        /* \"#utility.yul\":17293:17432   */\n      swap1\n      pop\n        /* \"#utility.yul\":17020:17439   */\n      swap2\n      swap1\n      pop\n      jump\t// out\n        /* \"#utility.yul\":17445:17593   */\n    tag_193:\n        /* \"#utility.yul\":17543:17549   */\n      dup3\n        /* \"#utility.yul\":17538:17541   */\n      dup2\n        /* \"#utility.yul\":17533:17536   */\n      dup4\n        /* \"#utility.yul\":17520:17550   */\n      calldatacopy\n        /* \"#utility.yul\":17584:17585   */\n      0x00\n        /* \"#utility.yul\":17575:17581   */\n      dup4\n        /* \"#utility.yul\":17570:17573   */\n      dup4\n        /* \"#utility.yul\":17566:17582   */\n      add\n        /* \"#utility.yul\":17559:17586   */\n      mstore\n        /* \"#utility.yul\":17445:17593   */\n      pop\n      pop\n      pop\n      jump\t// out\n        /* \"#utility.yul\":17599:17701   */\n    tag_194:\n        /* \"#utility.yul\":17640:17646   */\n      0x00\n        /* \"#utility.yul\":17691:17693   */\n      0x1f\n        /* \"#utility.yul\":17687:17694   */\n      not\n        /* \"#utility.yul\":17682:17684   */\n      0x1f\n        /* \"#utility.yul\":17675:17680   */\n      dup4\n        /* \"#utility.yul\":17671:17685   */\n      add\n        /* \"#utility.yul\":17667:17695   */\n      and\n        /* \"#utility.yul\":17657:17695   */\n      swap1\n      pop\n        /* \"#utility.yul\":17599:17701   */\n      swap2\n      swap1\n      pop\n      jump\t// out\n        /* \"#utility.yul\":17729:18043   */\n    tag_195:\n        /* \"#utility.yul\":17825:17828   */\n      0x00\n        /* \"#utility.yul\":17846:17916   */\n      tag_367\n        /* \"#utility.yul\":17909:17915   */\n      dup4\n        /* \"#utility.yul\":17904:17907   */\n      dup6\n        /* \"#utility.yul\":17846:17916   */\n      tag_183\n      jump\t// in\n    tag_367:\n        /* \"#utility.yul\":17839:17916   */\n      swap4\n      pop\n        /* \"#utility.yul\":17926:17982   */\n      tag_368\n        /* \"#utility.yul\":17975:17981   */\n      dup4\n        /* \"#utility.yul\":17970:17973   */\n      dup6\n        /* \"#utility.yul\":17963:17968   */\n      dup5\n        /* \"#utility.yul\":17926:17982   */\n      tag_193\n      jump\t// in\n    tag_368:\n        /* \"#utility.yul\":18007:18036   */\n      tag_369\n        /* \"#utility.yul\":18029:18035   */\n      dup4\n        /* \"#utility.yul\":18007:18036   */\n      tag_194\n      jump\t// in\n    tag_369:\n        /* \"#utility.yul\":18002:18005   */\n      dup5\n        /* \"#utility.yul\":17998:18037   */\n      add\n        /* \"#utility.yul\":17991:18037   */\n      swap1\n      pop\n        /* \"#utility.yul\":17729:18043   */\n      swap4\n      swap3\n      pop\n      pop\n      pop\n      jump\t// out\n        /* \"#utility.yul\":18049:18709   */\n    tag_128:\n        /* \"#utility.yul\":18254:18258   */\n      0x00\n        /* \"#utility.yul\":18292:18295   */\n      0x80\n        /* \"#utility.yul\":18281:18290   */\n      dup3\n        /* \"#utility.yul\":18277:18296   */\n      add\n        /* \"#utility.yul\":18269:18296   */\n      swap1\n      pop\n        /* \"#utility.yul\":18306:18377   */\n      tag_371\n        /* \"#utility.yul\":18374:18375   */\n      0x00\n        /* \"#utility.yul\":18363:18372   */\n      dup4\n        /* \"#utility.yul\":18359:18376   */\n      add\n        /* \"#utility.yul\":18350:18356   */\n      dup9\n        /* \"#utility.yul\":18306:18377   */\n      tag_158\n      jump\t// in\n    tag_371:\n        /* \"#utility.yul\":18387:18459   */\n      tag_372\n        /* \"#utility.yul\":18455:18457   */\n      0x20\n        /* \"#utility.yul\":18444:18453   */\n      dup4\n        /* \"#utility.yul\":18440:18458   */\n      add\n        /* \"#utility.yul\":18431:18437   */\n      dup8\n        /* \"#utility.yul\":18387:18459   */\n      tag_158\n      jump\t// in\n    tag_372:\n        /* \"#utility.yul\":18469:18541   */\n      tag_373\n        /* \"#utility.yul\":18537:18539   */\n      0x40\n        /* \"#utility.yul\":18526:18535   */\n      dup4\n        /* \"#utility.yul\":18522:18540   */\n      add\n        /* \"#utility.yul\":18513:18519   */\n      dup7\n        /* \"#utility.yul\":18469:18541   */\n      tag_161\n      jump\t// in\n    tag_373:\n        /* \"#utility.yul\":18588:18597   */\n      dup2\n        /* \"#utility.yul\":18582:18586   */\n      dup2\n        /* \"#utility.yul\":18578:18598   */\n      sub\n        /* \"#utility.yul\":18573:18575   */\n      0x60\n        /* \"#utility.yul\":18562:18571   */\n      dup4\n        /* \"#utility.yul\":18558:18576   */\n      add\n        /* \"#utility.yul\":18551:18599   */\n      mstore\n        /* \"#utility.yul\":18616:18702   */\n      tag_374\n        /* \"#utility.yul\":18697:18701   */\n      dup2\n        /* \"#utility.yul\":18688:18694   */\n      dup5\n        /* \"#utility.yul\":18680:18686   */\n      dup7\n        /* \"#utility.yul\":18616:18702   */\n      tag_195\n      jump\t// in\n    tag_374:\n        /* \"#utility.yul\":18608:18702   */\n      swap1\n      pop\n        /* \"#utility.yul\":18049:18709   */\n      swap7\n      swap6\n      pop\n      pop\n      pop\n      pop\n      pop\n      pop\n      jump\t// out\n        /* \"#utility.yul\":18715:18882   */\n    tag_196:\n        /* \"#utility.yul\":18855:18874   */\n      0x746f203d207a65726f2061646472657373000000000000000000000000000000\n        /* \"#utility.yul\":18851:18852   */\n      0x00\n        /* \"#utility.yul\":18843:18849   */\n      dup3\n        /* \"#utility.yul\":18839:18853   */\n      add\n        /* \"#utility.yul\":18832:18875   */\n      mstore\n        /* \"#utility.yul\":18715:18882   */\n      pop\n      jump\t// out\n        /* \"#utility.yul\":18888:19254   */\n    tag_197:\n        /* \"#utility.yul\":19030:19033   */\n      0x00\n        /* \"#utility.yul\":19051:19118   */\n      tag_377\n        /* \"#utility.yul\":19115:19117   */\n      0x11\n        /* \"#utility.yul\":19110:19113   */\n      dup4\n        /* \"#utility.yul\":19051:19118   */\n      tag_173\n      jump\t// in\n    tag_377:\n        /* \"#utility.yul\":19044:19118   */\n      swap2\n      pop\n        /* \"#utility.yul\":19127:19220   */\n      tag_378\n        /* \"#utility.yul\":19216:19219   */\n      dup3\n        /* \"#utility.yul\":19127:19220   */\n      tag_196\n      jump\t// in\n    tag_378:\n        /* \"#utility.yul\":19245:19247   */\n      0x20\n        /* \"#utility.yul\":19240:19243   */\n      dup3\n        /* \"#utility.yul\":19236:19248   */\n      add\n        /* \"#utility.yul\":19229:19248   */\n      swap1\n      pop\n        /* \"#utility.yul\":18888:19254   */\n      swap2\n      swap1\n      pop\n      jump\t// out\n        /* \"#utility.yul\":19260:19679   */\n    tag_140:\n        /* \"#utility.yul\":19426:19430   */\n      0x00\n        /* \"#utility.yul\":19464:19466   */\n      0x20\n        /* \"#utility.yul\":19453:19462   */\n      dup3\n        /* \"#utility.yul\":19449:19467   */\n      add\n        /* \"#utility.yul\":19441:19467   */\n      swap1\n      pop\n        /* \"#utility.yul\":19513:19522   */\n      dup2\n        /* \"#utility.yul\":19507:19511   */\n      dup2\n        /* \"#utility.yul\":19503:19523   */\n      sub\n        /* \"#utility.yul\":19499:19500   */\n      0x00\n        /* \"#utility.yul\":19488:19497   */\n      dup4\n        /* \"#utility.yul\":19484:19501   */\n      add\n        /* \"#utility.yul\":19477:19524   */\n      mstore\n        /* \"#utility.yul\":19541:19672   */\n      tag_380\n        /* \"#utility.yul\":19667:19671   */\n      dup2\n        /* \"#utility.yul\":19541:19672   */\n      tag_197\n      jump\t// in\n    tag_380:\n        /* \"#utility.yul\":19533:19672   */\n      swap1\n      pop\n        /* \"#utility.yul\":19260:19679   */\n      swap2\n      swap1\n      pop\n      jump\t// out\n        /* \"#utility.yul\":19685:19846   */\n    tag_198:\n        /* \"#utility.yul\":19825:19838   */\n      0x746f6b656e206578697374000000000000000000000000000000000000000000\n        /* \"#utility.yul\":19821:19822   */\n      0x00\n        /* \"#utility.yul\":19813:19819   */\n      dup3\n        /* \"#utility.yul\":19809:19823   */\n      add\n        /* \"#utility.yul\":19802:19839   */\n      mstore\n        /* \"#utility.yul\":19685:19846   */\n      pop\n      jump\t// out\n        /* \"#utility.yul\":19852:20218   */\n    tag_199:\n        /* \"#utility.yul\":19994:19997   */\n      0x00\n        /* \"#utility.yul\":20015:20082   */\n      tag_383\n        /* \"#utility.yul\":20079:20081   */\n      0x0b\n        /* \"#utility.yul\":20074:20077   */\n      dup4\n        /* \"#utility.yul\":20015:20082   */\n      tag_173\n      jump\t// in\n    tag_383:\n        /* \"#utility.yul\":20008:20082   */\n      swap2\n      pop\n        /* \"#utility.yul\":20091:20184   */\n      tag_384\n        /* \"#utility.yul\":20180:20183   */\n      dup3\n        /* \"#utility.yul\":20091:20184   */\n      tag_198\n      jump\t// in\n    tag_384:\n        /* \"#utility.yul\":20209:20211   */\n      0x20\n        /* \"#utility.yul\":20204:20207   */\n      dup3\n        /* \"#utility.yul\":20200:20212   */\n      add\n        /* \"#utility.yul\":20193:20212   */\n      swap1\n      pop\n        /* \"#utility.yul\":19852:20218   */\n      swap2\n      swap1\n      pop\n      jump\t// out\n        /* \"#utility.yul\":20224:20643   */\n    tag_143:\n        /* \"#utility.yul\":20390:20394   */\n      0x00\n        /* \"#utility.yul\":20428:20430   */\n      0x20\n        /* \"#utility.yul\":20417:20426   */\n      dup3\n        /* \"#utility.yul\":20413:20431   */\n      add\n        /* \"#utility.yul\":20405:20431   */\n      swap1\n      pop\n        /* \"#utility.yul\":20477:20486   */\n      dup2\n        /* \"#utility.yul\":20471:20475   */\n      dup2\n        /* \"#utility.yul\":20467:20487   */\n      sub\n        /* \"#utility.yul\":20463:20464   */\n      0x00\n        /* \"#utility.yul\":20452:20461   */\n      dup4\n        /* \"#utility.yul\":20448:20465   */\n      add\n        /* \"#utility.yul\":20441:20488   */\n      mstore\n        /* \"#utility.yul\":20505:20636   */\n      tag_386\n        /* \"#utility.yul\":20631:20635   */\n      dup2\n        /* \"#utility.yul\":20505:20636   */\n      tag_199\n      jump\t// in\n    tag_386:\n        /* \"#utility.yul\":20497:20636   */\n      swap1\n      pop\n        /* \"#utility.yul\":20224:20643   */\n      swap2\n      swap1\n      pop\n      jump\t// out\n        /* \"#utility.yul\":20649:20819   */\n    tag_200:\n        /* \"#utility.yul\":20789:20811   */\n      0x746f6b656e20646f6573206e6f74206578697374000000000000000000000000\n        /* \"#utility.yul\":20785:20786   */\n      0x00\n        /* \"#utility.yul\":20777:20783   */\n      dup3\n        /* \"#utility.yul\":20773:20787   */\n      add\n        /* \"#utility.yul\":20766:20812   */\n      mstore\n        /* \"#utility.yul\":20649:20819   */\n      pop\n      jump\t// out\n        /* \"#utility.yul\":20825:21191   */\n    tag_201:\n        /* \"#utility.yul\":20967:20970   */\n      0x00\n        /* \"#utility.yul\":20988:21055   */\n      tag_389\n        /* \"#utility.yul\":21052:21054   */\n      0x14\n        /* \"#utility.yul\":21047:21050   */\n      dup4\n        /* \"#utility.yul\":20988:21055   */\n      tag_173\n      jump\t// in\n    tag_389:\n        /* \"#utility.yul\":20981:21055   */\n      swap2\n      pop\n        /* \"#utility.yul\":21064:21157   */\n      tag_390\n        /* \"#utility.yul\":21153:21156   */\n      dup3\n        /* \"#utility.yul\":21064:21157   */\n      tag_200\n      jump\t// in\n    tag_390:\n        /* \"#utility.yul\":21182:21184   */\n      0x20\n        /* \"#utility.yul\":21177:21180   */\n      dup3\n        /* \"#utility.yul\":21173:21185   */\n      add\n        /* \"#utility.yul\":21166:21185   */\n      swap1\n      pop\n        /* \"#utility.yul\":20825:21191   */\n      swap2\n      swap1\n      pop\n      jump\t// out\n        /* \"#utility.yul\":21197:21616   */\n    tag_148:\n        /* \"#utility.yul\":21363:21367   */\n      0x00\n        /* \"#utility.yul\":21401:21403   */\n      0x20\n        /* \"#utility.yul\":21390:21399   */\n      dup3\n        /* \"#utility.yul\":21386:21404   */\n      add\n        /* \"#utility.yul\":21378:21404   */\n      swap1\n      pop\n        /* \"#utility.yul\":21450:21459   */\n      dup2\n        /* \"#utility.yul\":21444:21448   */\n      dup2\n        /* \"#utility.yul\":21440:21460   */\n      sub\n        /* \"#utility.yul\":21436:21437   */\n      0x00\n        /* \"#utility.yul\":21425:21434   */\n      dup4\n        /* \"#utility.yul\":21421:21438   */\n      add\n        /* \"#utility.yul\":21414:21461   */\n      mstore\n        /* \"#utility.yul\":21478:21609   */\n      tag_392\n        /* \"#utility.yul\":21604:21608   */\n      dup2\n        /* \"#utility.yul\":21478:21609   */\n      tag_201\n      jump\t// in\n    tag_392:\n        /* \"#utility.yul\":21470:21609   */\n      swap1\n      pop\n        /* \"#utility.yul\":21197:21616   */\n      swap2\n      swap1\n      pop\n      jump\t// out\n\n    auxdata: 0xa26469706673582212203de833eff49f8690ed4cd76752ae42b7e7f902fc1501df67b61cc22402ce83b964736f6c634300081a0033\n}\n",
				"bytecode": {
					"linkReferences": {},
					"object": "6080604052348015600e575f80fd5b50611d9c8061001c5f395ff3fe608060405234801561000f575f80fd5b50600436106100b2575f3560e01c80636352211e1161006f5780636352211e1461017257806370a08231146101a257806375e79be6146101d2578063a22cb46514610202578063b88d4fde1461021e578063e985e9c51461023a576100b2565b8063081812fc146100b6578063095ea7b3146100e657806323b872dd1461010257806340c10f191461011e57806342842e0e1461013a57806342966c6814610156575b5f80fd5b6100d060048036038101906100cb919061138f565b61026a565b6040516100dd91906113f9565b60405180910390f35b61010060048036038101906100fb919061143c565b610340565b005b61011c6004803603810190610117919061147a565b61051c565b005b6101386004803603810190610133919061143c565b6107f6565b005b610154600480360381019061014f919061147a565b610804565b005b610170600480360381019061016b919061138f565b610938565b005b61018c6004803603810190610187919061138f565b6109e1565b60405161019991906113f9565b60405180910390f35b6101bc60048036038101906101b791906114ca565b610a87565b6040516101c99190611504565b60405180910390f35b6101ec60048036038101906101e79190611572565b610b3b565b6040516101f991906115b7565b60405180910390f35b61021c600480360381019061021791906115fa565b610c0c565b005b61023860048036038101906102339190611699565b610d04565b005b610254600480360381019061024f919061171d565b610e3e565b60405161026191906115b7565b60405180910390f35b5f8073ffffffffffffffffffffffffffffffffffffffff165f808481526020019081526020015f205f9054906101000a900473ffffffffffffffffffffffffffffffffffffffff1673ffffffffffffffffffffffffffffffffffffffff1603610308576040517f08c379a00000000000000000000000000000000000000000000000000000000081526004016102ff906117b5565b60405180910390fd5b60025f8381526020019081526020015f205f9054906101000a900473ffffffffffffffffffffffffffffffffffffffff169050919050565b5f805f8381526020019081526020015f205f9054906101000a900473ffffffffffffffffffffffffffffffffffffffff1690508073ffffffffffffffffffffffffffffffffffffffff163373ffffffffffffffffffffffffffffffffffffffff16148061042e575060035f8273ffffffffffffffffffffffffffffffffffffffff1673ffffffffffffffffffffffffffffffffffffffff1681526020019081526020015f205f3373ffffffffffffffffffffffffffffffffffffffff1673ffffffffffffffffffffffffffffffffffffffff1681526020019081526020015f205f9054906101000a900460ff165b61046d576040517f08c379a00000000000000000000000000000000000000000000000000000000081526004016104649061181d565b60405180910390fd5b8260025f8481526020019081526020015f205f6101000a81548173ffffffffffffffffffffffffffffffffffffffff021916908373ffffffffffffffffffffffffffffffffffffffff160217905550818373ffffffffffffffffffffffffffffffffffffffff168273ffffffffffffffffffffffffffffffffffffffff167f8c5be1e5ebec7d5bd14f71427d1e84f3dd0314c0f7b2291e5b200ac8c7c3b92560405160405180910390a4505050565b5f808281526020019081526020015f205f9054906101000a900473ffffffffffffffffffffffffffffffffffffffff1673ffffffffffffffffffffffffffffffffffffffff168373ffffffffffffffffffffffffffffffffffffffff16146105b9576040517f08c379a00000000000000000000000000000000000000000000000000000000081526004016105b090611885565b60405180910390fd5b5f73ffffffffffffffffffffffffffffffffffffffff168273ffffffffffffffffffffffffffffffffffffffff1603610627576040517f08c379a000000000000000000000000000000000000000000000000000000000815260040161061e906118ed565b60405180910390fd5b610632833383610e68565b610671576040517f08c379a00000000000000000000000000000000000000000000000000000000081526004016106689061181d565b60405180910390fd5b60015f8473ffffffffffffffffffffffffffffffffffffffff1673ffffffffffffffffffffffffffffffffffffffff1681526020019081526020015f205f8154809291906106be90611938565b919050555060015f8373ffffffffffffffffffffffffffffffffffffffff1673ffffffffffffffffffffffffffffffffffffffff1681526020019081526020015f205f8154809291906107109061195f565b9190505550815f808381526020019081526020015f205f6101000a81548173ffffffffffffffffffffffffffffffffffffffff021916908373ffffffffffffffffffffffffffffffffffffffff16021790555060025f8281526020019081526020015f205f6101000a81549073ffffffffffffffffffffffffffffffffffffffff0219169055808273ffffffffffffffffffffffffffffffffffffffff168473ffffffffffffffffffffffffffffffffffffffff167fddf252ad1be2c89b69c2b068fc378daa952ba7f163c4a11628f55a4df523b3ef60405160405180910390a4505050565b6108008282610f93565b5050565b61080f83838361051c565b5f8273ffffffffffffffffffffffffffffffffffffffff163b14806108f4575063150b7a0260e01b7bffffffffffffffffffffffffffffffffffffffffffffffffffffffff19168273ffffffffffffffffffffffffffffffffffffffff1663150b7a023386856040518463ffffffff1660e01b8152600401610893939291906119d9565b6020604051808303815f875af11580156108af573d5f803e3d5ffd5b505050506040513d601f19601f820116820180604052508101906108d39190611a35565b7bffffffffffffffffffffffffffffffffffffffffffffffffffffffff1916145b610933576040517f08c379a000000000000000000000000000000000000000000000000000000000815260040161092a90611aaa565b60405180910390fd5b505050565b5f808281526020019081526020015f205f9054906101000a900473ffffffffffffffffffffffffffffffffffffffff1673ffffffffffffffffffffffffffffffffffffffff163373ffffffffffffffffffffffffffffffffffffffff16146109d5576040517f08c379a00000000000000000000000000000000000000000000000000000000081526004016109cc90611b12565b60405180910390fd5b6109de8161119d565b50565b5f805f8381526020019081526020015f205f9054906101000a900473ffffffffffffffffffffffffffffffffffffffff1690505f73ffffffffffffffffffffffffffffffffffffffff168173ffffffffffffffffffffffffffffffffffffffff1603610a82576040517f08c379a0000000000000000000000000000000000000000000000000000000008152600401610a7990611b7a565b60405180910390fd5b919050565b5f8073ffffffffffffffffffffffffffffffffffffffff168273ffffffffffffffffffffffffffffffffffffffff1603610af6576040517f08c379a0000000000000000000000000000000000000000000000000000000008152600401610aed90611b7a565b60405180910390fd5b60015f8373ffffffffffffffffffffffffffffffffffffffff1673ffffffffffffffffffffffffffffffffffffffff1681526020019081526020015f20549050919050565b5f7fc22876c3000000000000000000000000000000000000000000000000000000007bffffffffffffffffffffffffffffffffffffffffffffffffffffffff1916827bffffffffffffffffffffffffffffffffffffffffffffffffffffffff19161480610c0557507f75e79be6000000000000000000000000000000000000000000000000000000007bffffffffffffffffffffffffffffffffffffffffffffffffffffffff1916827bffffffffffffffffffffffffffffffffffffffffffffffffffffffff1916145b9050919050565b8060035f3373ffffffffffffffffffffffffffffffffffffffff1673ffffffffffffffffffffffffffffffffffffffff1681526020019081526020015f205f8473ffffffffffffffffffffffffffffffffffffffff1673ffffffffffffffffffffffffffffffffffffffff1681526020019081526020015f205f6101000a81548160ff0219169083151502179055508173ffffffffffffffffffffffffffffffffffffffff163373ffffffffffffffffffffffffffffffffffffffff167f17307eab39ab6107e8899845ad3d59bd9653f200f220920489ca2b5937696c3183604051610cf891906115b7565b60405180910390a35050565b610d0f85858561051c565b5f8473ffffffffffffffffffffffffffffffffffffffff163b1480610df8575063150b7a0260e01b7bffffffffffffffffffffffffffffffffffffffffffffffffffffffff19168473ffffffffffffffffffffffffffffffffffffffff1663150b7a0233888787876040518663ffffffff1660e01b8152600401610d97959493929190611be2565b6020604051808303815f875af1158015610db3573d5f803e3d5ffd5b505050506040513d601f19601f82011682018060405250810190610dd79190611a35565b7bffffffffffffffffffffffffffffffffffffffffffffffffffffffff1916145b610e37576040517f08c379a0000000000000000000000000000000000000000000000000000000008152600401610e2e90611aaa565b60405180910390fd5b5050505050565b6003602052815f5260405f20602052805f5260405f205f915091509054906101000a900460ff1681565b5f8373ffffffffffffffffffffffffffffffffffffffff168373ffffffffffffffffffffffffffffffffffffffff161480610f24575060035f8573ffffffffffffffffffffffffffffffffffffffff1673ffffffffffffffffffffffffffffffffffffffff1681526020019081526020015f205f8473ffffffffffffffffffffffffffffffffffffffff1673ffffffffffffffffffffffffffffffffffffffff1681526020019081526020015f205f9054906101000a900460ff165b80610f8a575060025f8381526020019081526020015f205f9054906101000a900473ffffffffffffffffffffffffffffffffffffffff1673ffffffffffffffffffffffffffffffffffffffff168373ffffffffffffffffffffffffffffffffffffffff16145b90509392505050565b5f73ffffffffffffffffffffffffffffffffffffffff168273ffffffffffffffffffffffffffffffffffffffff1603611001576040517f08c379a0000000000000000000000000000000000000000000000000000000008152600401610ff890611c78565b60405180910390fd5b5f73ffffffffffffffffffffffffffffffffffffffff165f808381526020019081526020015f205f9054906101000a900473ffffffffffffffffffffffffffffffffffffffff1673ffffffffffffffffffffffffffffffffffffffff161461109e576040517f08c379a000000000000000000000000000000000000000000000000000000000815260040161109590611ce0565b60405180910390fd5b60015f8373ffffffffffffffffffffffffffffffffffffffff1673ffffffffffffffffffffffffffffffffffffffff1681526020019081526020015f205f8154809291906110eb9061195f565b9190505550815f808381526020019081526020015f205f6101000a81548173ffffffffffffffffffffffffffffffffffffffff021916908373ffffffffffffffffffffffffffffffffffffffff160217905550808273ffffffffffffffffffffffffffffffffffffffff165f73ffffffffffffffffffffffffffffffffffffffff167fddf252ad1be2c89b69c2b068fc378daa952ba7f163c4a11628f55a4df523b3ef60405160405180910390a45050565b5f805f8381526020019081526020015f205f9054906101000a900473ffffffffffffffffffffffffffffffffffffffff1690505f73ffffffffffffffffffffffffffffffffffffffff168173ffffffffffffffffffffffffffffffffffffffff160361123e576040517f08c379a000000000000000000000000000000000000000000000000000000000815260040161123590611d48565b60405180910390fd5b60015f8273ffffffffffffffffffffffffffffffffffffffff1673ffffffffffffffffffffffffffffffffffffffff1681526020019081526020015f205f81548092919061128b90611938565b91905055505f808381526020019081526020015f205f6101000a81549073ffffffffffffffffffffffffffffffffffffffff021916905560025f8381526020019081526020015f205f6101000a81549073ffffffffffffffffffffffffffffffffffffffff0219169055815f73ffffffffffffffffffffffffffffffffffffffff168273ffffffffffffffffffffffffffffffffffffffff167fddf252ad1be2c89b69c2b068fc378daa952ba7f163c4a11628f55a4df523b3ef60405160405180910390a45050565b5f80fd5b5f80fd5b5f819050919050565b61136e8161135c565b8114611378575f80fd5b50565b5f8135905061138981611365565b92915050565b5f602082840312156113a4576113a3611354565b5b5f6113b18482850161137b565b91505092915050565b5f73ffffffffffffffffffffffffffffffffffffffff82169050919050565b5f6113e3826113ba565b9050919050565b6113f3816113d9565b82525050565b5f60208201905061140c5f8301846113ea565b92915050565b61141b816113d9565b8114611425575f80fd5b50565b5f8135905061143681611412565b92915050565b5f806040838503121561145257611451611354565b5b5f61145f85828601611428565b92505060206114708582860161137b565b9150509250929050565b5f805f6060848603121561149157611490611354565b5b5f61149e86828701611428565b93505060206114af86828701611428565b92505060406114c08682870161137b565b9150509250925092565b5f602082840312156114df576114de611354565b5b5f6114ec84828501611428565b91505092915050565b6114fe8161135c565b82525050565b5f6020820190506115175f8301846114f5565b92915050565b5f7fffffffff0000000000000000000000000000000000000000000000000000000082169050919050565b6115518161151d565b811461155b575f80fd5b50565b5f8135905061156c81611548565b92915050565b5f6020828403121561158757611586611354565b5b5f6115948482850161155e565b91505092915050565b5f8115159050919050565b6115b18161159d565b82525050565b5f6020820190506115ca5f8301846115a8565b92915050565b6115d98161159d565b81146115e3575f80fd5b50565b5f813590506115f4816115d0565b92915050565b5f80604083850312156116105761160f611354565b5b5f61161d85828601611428565b925050602061162e858286016115e6565b9150509250929050565b5f80fd5b5f80fd5b5f80fd5b5f8083601f84011261165957611658611638565b5b8235905067ffffffffffffffff8111156116765761167561163c565b5b60208301915083600182028301111561169257611691611640565b5b9250929050565b5f805f805f608086880312156116b2576116b1611354565b5b5f6116bf88828901611428565b95505060206116d088828901611428565b94505060406116e18882890161137b565b935050606086013567ffffffffffffffff81111561170257611701611358565b5b61170e88828901611644565b92509250509295509295909350565b5f806040838503121561173357611732611354565b5b5f61174085828601611428565b925050602061175185828601611428565b9150509250929050565b5f82825260208201905092915050565b7f746f6b656e4964206973206e6f742065786973740000000000000000000000005f82015250565b5f61179f60148361175b565b91506117aa8261176b565b602082019050919050565b5f6020820190508181035f8301526117cc81611793565b9050919050565b7f6e6f7420617574686f72697a65640000000000000000000000000000000000005f82015250565b5f611807600e8361175b565b9150611812826117d3565b602082019050919050565b5f6020820190508181035f830152611834816117fb565b9050919050565b7f66726f6d20213d206f776e6572000000000000000000000000000000000000005f82015250565b5f61186f600d8361175b565b915061187a8261183b565b602082019050919050565b5f6020820190508181035f83015261189c81611863565b9050919050565b7f746f203d207a65726f00000000000000000000000000000000000000000000005f82015250565b5f6118d760098361175b565b91506118e2826118a3565b602082019050919050565b5f6020820190508181035f830152611904816118cb565b9050919050565b7f4e487b71000000000000000000000000000000000000000000000000000000005f52601160045260245ffd5b5f6119428261135c565b91505f82036119545761195361190b565b5b600182039050919050565b5f6119698261135c565b91507fffffffffffffffffffffffffffffffffffffffffffffffffffffffffffffffff820361199b5761199a61190b565b5b600182019050919050565b5f82825260208201905092915050565b50565b5f6119c45f836119a6565b91506119cf826119b6565b5f82019050919050565b5f6080820190506119ec5f8301866113ea565b6119f960208301856113ea565b611a0660408301846114f5565b8181036060830152611a17816119b9565b9050949350505050565b5f81519050611a2f81611548565b92915050565b5f60208284031215611a4a57611a49611354565b5b5f611a5784828501611a21565b91505092915050565b7f756e7361666520726563656970740000000000000000000000000000000000005f82015250565b5f611a94600e8361175b565b9150611a9f82611a60565b602082019050919050565b5f6020820190508181035f830152611ac181611a88565b9050919050565b7f6e6f74206f776e657200000000000000000000000000000000000000000000005f82015250565b5f611afc60098361175b565b9150611b0782611ac8565b602082019050919050565b5f6020820190508181035f830152611b2981611af0565b9050919050565b7f6f776e6572203d206164647265737328302900000000000000000000000000005f82015250565b5f611b6460128361175b565b9150611b6f82611b30565b602082019050919050565b5f6020820190508181035f830152611b9181611b58565b9050919050565b828183375f83830152505050565b5f601f19601f8301169050919050565b5f611bc183856119a6565b9350611bce838584611b98565b611bd783611ba6565b840190509392505050565b5f608082019050611bf55f8301886113ea565b611c0260208301876113ea565b611c0f60408301866114f5565b8181036060830152611c22818486611bb6565b90509695505050505050565b7f746f203d207a65726f20616464726573730000000000000000000000000000005f82015250565b5f611c6260118361175b565b9150611c6d82611c2e565b602082019050919050565b5f6020820190508181035f830152611c8f81611c56565b9050919050565b7f746f6b656e2065786973740000000000000000000000000000000000000000005f82015250565b5f611cca600b8361175b565b9150611cd582611c96565b602082019050919050565b5f6020820190508181035f830152611cf781611cbe565b9050919050565b7f746f6b656e20646f6573206e6f742065786973740000000000000000000000005f82015250565b5f611d3260148361175b565b9150611d3d82611cfe565b602082019050919050565b5f6020820190508181035f830152611d5f81611d26565b905091905056fea26469706673582212203de833eff49f8690ed4cd76752ae42b7e7f902fc1501df67b61cc22402ce83b964736f6c634300081a0033",
					"opcodes": "PUSH1 0x80 PUSH1 0x40 MSTORE CALLVALUE DUP1 ISZERO PUSH1 0xE JUMPI PUSH0 DUP1 REVERT JUMPDEST POP PUSH2 0x1D9C DUP1 PUSH2 0x1C PUSH0 CODECOPY PUSH0 RETURN INVALID PUSH1 0x80 PUSH1 0x40 MSTORE CALLVALUE DUP1 ISZERO PUSH2 0xF JUMPI PUSH0 DUP1 REVERT JUMPDEST POP PUSH1 0x4 CALLDATASIZE LT PUSH2 0xB2 JUMPI PUSH0 CALLDATALOAD PUSH1 0xE0 SHR DUP1 PUSH4 0x6352211E GT PUSH2 0x6F JUMPI DUP1 PUSH4 0x6352211E EQ PUSH2 0x172 JUMPI DUP1 PUSH4 0x70A08231 EQ PUSH2 0x1A2 JUMPI DUP1 PUSH4 0x75E79BE6 EQ PUSH2 0x1D2 JUMPI DUP1 PUSH4 0xA22CB465 EQ PUSH2 0x202 JUMPI DUP1 PUSH4 0xB88D4FDE EQ PUSH2 0x21E JUMPI DUP1 PUSH4 0xE985E9C5 EQ PUSH2 0x23A JUMPI PUSH2 0xB2 JUMP JUMPDEST DUP1 PUSH4 0x81812FC EQ PUSH2 0xB6 JUMPI DUP1 PUSH4 0x95EA7B3 EQ PUSH2 0xE6 JUMPI DUP1 PUSH4 0x23B872DD EQ PUSH2 0x102 JUMPI DUP1 PUSH4 0x40C10F19 EQ PUSH2 0x11E JUMPI DUP1 PUSH4 0x42842E0E EQ PUSH2 0x13A JUMPI DUP1 PUSH4 0x42966C68 EQ PUSH2 0x156 JUMPI JUMPDEST PUSH0 DUP1 REVERT JUMPDEST PUSH2 0xD0 PUSH1 0x4 DUP1 CALLDATASIZE SUB DUP2 ADD SWAP1 PUSH2 0xCB SWAP2 SWAP1 PUSH2 0x138F JUMP JUMPDEST PUSH2 0x26A JUMP JUMPDEST PUSH1 0x40 MLOAD PUSH2 0xDD SWAP2 SWAP1 PUSH2 0x13F9 JUMP JUMPDEST PUSH1 0x40 MLOAD DUP1 SWAP2 SUB SWAP1 RETURN JUMPDEST PUSH2 0x100 PUSH1 0x4 DUP1 CALLDATASIZE SUB DUP2 ADD SWAP1 PUSH2 0xFB SWAP2 SWAP1 PUSH2 0x143C JUMP JUMPDEST PUSH2 0x340 JUMP JUMPDEST STOP JUMPDEST PUSH2 0x11C PUSH1 0x4 DUP1 CALLDATASIZE SUB DUP2 ADD SWAP1 PUSH2 0x117 SWAP2 SWAP1 PUSH2 0x147A JUMP JUMPDEST PUSH2 0x51C JUMP JUMPDEST STOP JUMPDEST PUSH2 0x138 PUSH1 0x4 DUP1 CALLDATASIZE SUB DUP2 ADD SWAP1 PUSH2 0x133 SWAP2 SWAP1 PUSH2 0x143C JUMP JUMPDEST PUSH2 0x7F6 JUMP JUMPDEST STOP JUMPDEST PUSH2 0x154 PUSH1 0x4 DUP1 CALLDATASIZE SUB DUP2 ADD SWAP1 PUSH2 0x14F SWAP2 SWAP1 PUSH2 0x147A JUMP JUMPDEST PUSH2 0x804 JUMP JUMPDEST STOP JUMPDEST PUSH2 0x170 PUSH1 0x4 DUP1 CALLDATASIZE SUB DUP2 ADD SWAP1 PUSH2 0x16B SWAP2 SWAP1 PUSH2 0x138F JUMP JUMPDEST PUSH2 0x938 JUMP JUMPDEST STOP JUMPDEST PUSH2 0x18C PUSH1 0x4 DUP1 CALLDATASIZE SUB DUP2 ADD SWAP1 PUSH2 0x187 SWAP2 SWAP1 PUSH2 0x138F JUMP JUMPDEST PUSH2 0x9E1 JUMP JUMPDEST PUSH1 0x40 MLOAD PUSH2 0x199 SWAP2 SWAP1 PUSH2 0x13F9 JUMP JUMPDEST PUSH1 0x40 MLOAD DUP1 SWAP2 SUB SWAP1 RETURN JUMPDEST PUSH2 0x1BC PUSH1 0x4 DUP1 CALLDATASIZE SUB DUP2 ADD SWAP1 PUSH2 0x1B7 SWAP2 SWAP1 PUSH2 0x14CA JUMP JUMPDEST PUSH2 0xA87 JUMP JUMPDEST PUSH1 0x40 MLOAD PUSH2 0x1C9 SWAP2 SWAP1 PUSH2 0x1504 JUMP JUMPDEST PUSH1 0x40 MLOAD DUP1 SWAP2 SUB SWAP1 RETURN JUMPDEST PUSH2 0x1EC PUSH1 0x4 DUP1 CALLDATASIZE SUB DUP2 ADD SWAP1 PUSH2 0x1E7 SWAP2 SWAP1 PUSH2 0x1572 JUMP JUMPDEST PUSH2 0xB3B JUMP JUMPDEST PUSH1 0x40 MLOAD PUSH2 0x1F9 SWAP2 SWAP1 PUSH2 0x15B7 JUMP JUMPDEST PUSH1 0x40 MLOAD DUP1 SWAP2 SUB SWAP1 RETURN JUMPDEST PUSH2 0x21C PUSH1 0x4 DUP1 CALLDATASIZE SUB DUP2 ADD SWAP1 PUSH2 0x217 SWAP2 SWAP1 PUSH2 0x15FA JUMP JUMPDEST PUSH2 0xC0C JUMP JUMPDEST STOP JUMPDEST PUSH2 0x238 PUSH1 0x4 DUP1 CALLDATASIZE SUB DUP2 ADD SWAP1 PUSH2 0x233 SWAP2 SWAP1 PUSH2 0x1699 JUMP JUMPDEST PUSH2 0xD04 JUMP JUMPDEST STOP JUMPDEST PUSH2 0x254 PUSH1 0x4 DUP1 CALLDATASIZE SUB DUP2 ADD SWAP1 PUSH2 0x24F SWAP2 SWAP1 PUSH2 0x171D JUMP JUMPDEST PUSH2 0xE3E JUMP JUMPDEST PUSH1 0x40 MLOAD PUSH2 0x261 SWAP2 SWAP1 PUSH2 0x15B7 JUMP JUMPDEST PUSH1 0x40 MLOAD DUP1 SWAP2 SUB SWAP1 RETURN JUMPDEST PUSH0 DUP1 PUSH20 0xFFFFFFFFFFFFFFFFFFFFFFFFFFFFFFFFFFFFFFFF AND PUSH0 DUP1 DUP5 DUP2 MSTORE PUSH1 0x20 ADD SWAP1 DUP2 MSTORE PUSH1 0x20 ADD PUSH0 KECCAK256 PUSH0 SWAP1 SLOAD SWAP1 PUSH2 0x100 EXP SWAP1 DIV PUSH20 0xFFFFFFFFFFFFFFFFFFFFFFFFFFFFFFFFFFFFFFFF AND PUSH20 0xFFFFFFFFFFFFFFFFFFFFFFFFFFFFFFFFFFFFFFFF AND SUB PUSH2 0x308 JUMPI PUSH1 0x40 MLOAD PUSH32 0x8C379A000000000000000000000000000000000000000000000000000000000 DUP2 MSTORE PUSH1 0x4 ADD PUSH2 0x2FF SWAP1 PUSH2 0x17B5 JUMP JUMPDEST PUSH1 0x40 MLOAD DUP1 SWAP2 SUB SWAP1 REVERT JUMPDEST PUSH1 0x2 PUSH0 DUP4 DUP2 MSTORE PUSH1 0x20 ADD SWAP1 DUP2 MSTORE PUSH1 0x20 ADD PUSH0 KECCAK256 PUSH0 SWAP1 SLOAD SWAP1 PUSH2 0x100 EXP SWAP1 DIV PUSH20 0xFFFFFFFFFFFFFFFFFFFFFFFFFFFFFFFFFFFFFFFF AND SWAP1 POP SWAP2 SWAP1 POP JUMP JUMPDEST PUSH0 DUP1 PUSH0 DUP4 DUP2 MSTORE PUSH1 0x20 ADD SWAP1 DUP2 MSTORE PUSH1 0x20 ADD PUSH0 KECCAK256 PUSH0 SWAP1 SLOAD SWAP1 PUSH2 0x100 EXP SWAP1 DIV PUSH20 0xFFFFFFFFFFFFFFFFFFFFFFFFFFFFFFFFFFFFFFFF AND SWAP1 POP DUP1 PUSH20 0xFFFFFFFFFFFFFFFFFFFFFFFFFFFFFFFFFFFFFFFF AND CALLER PUSH20 0xFFFFFFFFFFFFFFFFFFFFFFFFFFFFFFFFFFFFFFFF AND EQ DUP1 PUSH2 0x42E JUMPI POP PUSH1 0x3 PUSH0 DUP3 PUSH20 0xFFFFFFFFFFFFFFFFFFFFFFFFFFFFFFFFFFFFFFFF AND PUSH20 0xFFFFFFFFFFFFFFFFFFFFFFFFFFFFFFFFFFFFFFFF AND DUP2 MSTORE PUSH1 0x20 ADD SWAP1 DUP2 MSTORE PUSH1 0x20 ADD PUSH0 KECCAK256 PUSH0 CALLER PUSH20 0xFFFFFFFFFFFFFFFFFFFFFFFFFFFFFFFFFFFFFFFF AND PUSH20 0xFFFFFFFFFFFFFFFFFFFFFFFFFFFFFFFFFFFFFFFF AND DUP2 MSTORE PUSH1 0x20 ADD SWAP1 DUP2 MSTORE PUSH1 0x20 ADD PUSH0 KECCAK256 PUSH0 SWAP1 SLOAD SWAP1 PUSH2 0x100 EXP SWAP1 DIV PUSH1 0xFF AND JUMPDEST PUSH2 0x46D JUMPI PUSH1 0x40 MLOAD PUSH32 0x8C379A000000000000000000000000000000000000000000000000000000000 DUP2 MSTORE PUSH1 0x4 ADD PUSH2 0x464 SWAP1 PUSH2 0x181D JUMP JUMPDEST PUSH1 0x40 MLOAD DUP1 SWAP2 SUB SWAP1 REVERT JUMPDEST DUP3 PUSH1 0x2 PUSH0 DUP5 DUP2 MSTORE PUSH1 0x20 ADD SWAP1 DUP2 MSTORE PUSH1 0x20 ADD PUSH0 KECCAK256 PUSH0 PUSH2 0x100 EXP DUP2 SLOAD DUP2 PUSH20 0xFFFFFFFFFFFFFFFFFFFFFFFFFFFFFFFFFFFFFFFF MUL NOT AND SWAP1 DUP4 PUSH20 0xFFFFFFFFFFFFFFFFFFFFFFFFFFFFFFFFFFFFFFFF AND MUL OR SWAP1 SSTORE POP DUP2 DUP4 PUSH20 0xFFFFFFFFFFFFFFFFFFFFFFFFFFFFFFFFFFFFFFFF AND DUP3 PUSH20 0xFFFFFFFFFFFFFFFFFFFFFFFFFFFFFFFFFFFFFFFF AND PUSH32 0x8C5BE1E5EBEC7D5BD14F71427D1E84F3DD0314C0F7B2291E5B200AC8C7C3B925 PUSH1 0x40 MLOAD PUSH1 0x40 MLOAD DUP1 SWAP2 SUB SWAP1 LOG4 POP POP POP JUMP JUMPDEST PUSH0 DUP1 DUP3 DUP2 MSTORE PUSH1 0x20 ADD SWAP1 DUP2 MSTORE PUSH1 0x20 ADD PUSH0 KECCAK256 PUSH0 SWAP1 SLOAD SWAP1 PUSH2 0x100 EXP SWAP1 DIV PUSH20 0xFFFFFFFFFFFFFFFFFFFFFFFFFFFFFFFFFFFFFFFF AND PUSH20 0xFFFFFFFFFFFFFFFFFFFFFFFFFFFFFFFFFFFFFFFF AND DUP4 PUSH20 0xFFFFFFFFFFFFFFFFFFFFFFFFFFFFFFFFFFFFFFFF AND EQ PUSH2 0x5B9 JUMPI PUSH1 0x40 MLOAD PUSH32 0x8C379A000000000000000000000000000000000000000000000000000000000 DUP2 MSTORE PUSH1 0x4 ADD PUSH2 0x5B0 SWAP1 PUSH2 0x1885 JUMP JUMPDEST PUSH1 0x40 MLOAD DUP1 SWAP2 SUB SWAP1 REVERT JUMPDEST PUSH0 PUSH20 0xFFFFFFFFFFFFFFFFFFFFFFFFFFFFFFFFFFFFFFFF AND DUP3 PUSH20 0xFFFFFFFFFFFFFFFFFFFFFFFFFFFFFFFFFFFFFFFF AND SUB PUSH2 0x627 JUMPI PUSH1 0x40 MLOAD PUSH32 0x8C379A000000000000000000000000000000000000000000000000000000000 DUP2 MSTORE PUSH1 0x4 ADD PUSH2 0x61E SWAP1 PUSH2 0x18ED JUMP JUMPDEST PUSH1 0x40 MLOAD DUP1 SWAP2 SUB SWAP1 REVERT JUMPDEST PUSH2 0x632 DUP4 CALLER DUP4 PUSH2 0xE68 JUMP JUMPDEST PUSH2 0x671 JUMPI PUSH1 0x40 MLOAD PUSH32 0x8C379A000000000000000000000000000000000000000000000000000000000 DUP2 MSTORE PUSH1 0x4 ADD PUSH2 0x668 SWAP1 PUSH2 0x181D JUMP JUMPDEST PUSH1 0x40 MLOAD DUP1 SWAP2 SUB SWAP1 REVERT JUMPDEST PUSH1 0x1 PUSH0 DUP5 PUSH20 0xFFFFFFFFFFFFFFFFFFFFFFFFFFFFFFFFFFFFFFFF AND PUSH20 0xFFFFFFFFFFFFFFFFFFFFFFFFFFFFFFFFFFFFFFFF AND DUP2 MSTORE PUSH1 0x20 ADD SWAP1 DUP2 MSTORE PUSH1 0x20 ADD PUSH0 KECCAK256 PUSH0 DUP2 SLOAD DUP1 SWAP3 SWAP2 SWAP1 PUSH2 0x6BE SWAP1 PUSH2 0x1938 JUMP JUMPDEST SWAP2 SWAP1 POP SSTORE POP PUSH1 0x1 PUSH0 DUP4 PUSH20 0xFFFFFFFFFFFFFFFFFFFFFFFFFFFFFFFFFFFFFFFF AND PUSH20 0xFFFFFFFFFFFFFFFFFFFFFFFFFFFFFFFFFFFFFFFF AND DUP2 MSTORE PUSH1 0x20 ADD SWAP1 DUP2 MSTORE PUSH1 0x20 ADD PUSH0 KECCAK256 PUSH0 DUP2 SLOAD DUP1 SWAP3 SWAP2 SWAP1 PUSH2 0x710 SWAP1 PUSH2 0x195F JUMP JUMPDEST SWAP2 SWAP1 POP SSTORE POP DUP2 PUSH0 DUP1 DUP4 DUP2 MSTORE PUSH1 0x20 ADD SWAP1 DUP2 MSTORE PUSH1 0x20 ADD PUSH0 KECCAK256 PUSH0 PUSH2 0x100 EXP DUP2 SLOAD DUP2 PUSH20 0xFFFFFFFFFFFFFFFFFFFFFFFFFFFFFFFFFFFFFFFF MUL NOT AND SWAP1 DUP4 PUSH20 0xFFFFFFFFFFFFFFFFFFFFFFFFFFFFFFFFFFFFFFFF AND MUL OR SWAP1 SSTORE POP PUSH1 0x2 PUSH0 DUP3 DUP2 MSTORE PUSH1 0x20 ADD SWAP1 DUP2 MSTORE PUSH1 0x20 ADD PUSH0 KECCAK256 PUSH0 PUSH2 0x100 EXP DUP2 SLOAD SWAP1 PUSH20 0xFFFFFFFFFFFFFFFFFFFFFFFFFFFFFFFFFFFFFFFF MUL NOT AND SWAP1 SSTORE DUP1 DUP3 PUSH20 0xFFFFFFFFFFFFFFFFFFFFFFFFFFFFFFFFFFFFFFFF AND DUP5 PUSH20 0xFFFFFFFFFFFFFFFFFFFFFFFFFFFFFFFFFFFFFFFF AND PUSH32 0xDDF252AD1BE2C89B69C2B068FC378DAA952BA7F163C4A11628F55A4DF523B3EF PUSH1 0x40 MLOAD PUSH1 0x40 MLOAD DUP1 SWAP2 SUB SWAP1 LOG4 POP POP POP JUMP JUMPDEST PUSH2 0x800 DUP3 DUP3 PUSH2 0xF93 JUMP JUMPDEST POP POP JUMP JUMPDEST PUSH2 0x80F DUP4 DUP4 DUP4 PUSH2 0x51C JUMP JUMPDEST PUSH0 DUP3 PUSH20 0xFFFFFFFFFFFFFFFFFFFFFFFFFFFFFFFFFFFFFFFF AND EXTCODESIZE EQ DUP1 PUSH2 0x8F4 JUMPI POP PUSH4 0x150B7A02 PUSH1 0xE0 SHL PUSH28 0xFFFFFFFFFFFFFFFFFFFFFFFFFFFFFFFFFFFFFFFFFFFFFFFFFFFFFFFF NOT AND DUP3 PUSH20 0xFFFFFFFFFFFFFFFFFFFFFFFFFFFFFFFFFFFFFFFF AND PUSH4 0x150B7A02 CALLER DUP7 DUP6 PUSH1 0x40 MLOAD DUP5 PUSH4 0xFFFFFFFF AND PUSH1 0xE0 SHL DUP2 MSTORE PUSH1 0x4 ADD PUSH2 0x893 SWAP4 SWAP3 SWAP2 SWAP1 PUSH2 0x19D9 JUMP JUMPDEST PUSH1 0x20 PUSH1 0x40 MLOAD DUP1 DUP4 SUB DUP2 PUSH0 DUP8 GAS CALL ISZERO DUP1 ISZERO PUSH2 0x8AF JUMPI RETURNDATASIZE PUSH0 DUP1 RETURNDATACOPY RETURNDATASIZE PUSH0 REVERT JUMPDEST POP POP POP POP PUSH1 0x40 MLOAD RETURNDATASIZE PUSH1 0x1F NOT PUSH1 0x1F DUP3 ADD AND DUP3 ADD DUP1 PUSH1 0x40 MSTORE POP DUP2 ADD SWAP1 PUSH2 0x8D3 SWAP2 SWAP1 PUSH2 0x1A35 JUMP JUMPDEST PUSH28 0xFFFFFFFFFFFFFFFFFFFFFFFFFFFFFFFFFFFFFFFFFFFFFFFFFFFFFFFF NOT AND EQ JUMPDEST PUSH2 0x933 JUMPI PUSH1 0x40 MLOAD PUSH32 0x8C379A000000000000000000000000000000000000000000000000000000000 DUP2 MSTORE PUSH1 0x4 ADD PUSH2 0x92A SWAP1 PUSH2 0x1AAA JUMP JUMPDEST PUSH1 0x40 MLOAD DUP1 SWAP2 SUB SWAP1 REVERT JUMPDEST POP POP POP JUMP JUMPDEST PUSH0 DUP1 DUP3 DUP2 MSTORE PUSH1 0x20 ADD SWAP1 DUP2 MSTORE PUSH1 0x20 ADD PUSH0 KECCAK256 PUSH0 SWAP1 SLOAD SWAP1 PUSH2 0x100 EXP SWAP1 DIV PUSH20 0xFFFFFFFFFFFFFFFFFFFFFFFFFFFFFFFFFFFFFFFF AND PUSH20 0xFFFFFFFFFFFFFFFFFFFFFFFFFFFFFFFFFFFFFFFF AND CALLER PUSH20 0xFFFFFFFFFFFFFFFFFFFFFFFFFFFFFFFFFFFFFFFF AND EQ PUSH2 0x9D5 JUMPI PUSH1 0x40 MLOAD PUSH32 0x8C379A000000000000000000000000000000000000000000000000000000000 DUP2 MSTORE PUSH1 0x4 ADD PUSH2 0x9CC SWAP1 PUSH2 0x1B12 JUMP JUMPDEST PUSH1 0x40 MLOAD DUP1 SWAP2 SUB SWAP1 REVERT JUMPDEST PUSH2 0x9DE DUP2 PUSH2 0x119D JUMP JUMPDEST POP JUMP JUMPDEST PUSH0 DUP1 PUSH0 DUP4 DUP2 MSTORE PUSH1 0x20 ADD SWAP1 DUP2 MSTORE PUSH1 0x20 ADD PUSH0 KECCAK256 PUSH0 SWAP1 SLOAD SWAP1 PUSH2 0x100 EXP SWAP1 DIV PUSH20 0xFFFFFFFFFFFFFFFFFFFFFFFFFFFFFFFFFFFFFFFF AND SWAP1 POP PUSH0 PUSH20 0xFFFFFFFFFFFFFFFFFFFFFFFFFFFFFFFFFFFFFFFF AND DUP2 PUSH20 0xFFFFFFFFFFFFFFFFFFFFFFFFFFFFFFFFFFFFFFFF AND SUB PUSH2 0xA82 JUMPI PUSH1 0x40 MLOAD PUSH32 0x8C379A000000000000000000000000000000000000000000000000000000000 DUP2 MSTORE PUSH1 0x4 ADD PUSH2 0xA79 SWAP1 PUSH2 0x1B7A JUMP JUMPDEST PUSH1 0x40 MLOAD DUP1 SWAP2 SUB SWAP1 REVERT JUMPDEST SWAP2 SWAP1 POP JUMP JUMPDEST PUSH0 DUP1 PUSH20 0xFFFFFFFFFFFFFFFFFFFFFFFFFFFFFFFFFFFFFFFF AND DUP3 PUSH20 0xFFFFFFFFFFFFFFFFFFFFFFFFFFFFFFFFFFFFFFFF AND SUB PUSH2 0xAF6 JUMPI PUSH1 0x40 MLOAD PUSH32 0x8C379A000000000000000000000000000000000000000000000000000000000 DUP2 MSTORE PUSH1 0x4 ADD PUSH2 0xAED SWAP1 PUSH2 0x1B7A JUMP JUMPDEST PUSH1 0x40 MLOAD DUP1 SWAP2 SUB SWAP1 REVERT JUMPDEST PUSH1 0x1 PUSH0 DUP4 PUSH20 0xFFFFFFFFFFFFFFFFFFFFFFFFFFFFFFFFFFFFFFFF AND PUSH20 0xFFFFFFFFFFFFFFFFFFFFFFFFFFFFFFFFFFFFFFFF AND DUP2 MSTORE PUSH1 0x20 ADD SWAP1 DUP2 MSTORE PUSH1 0x20 ADD PUSH0 KECCAK256 SLOAD SWAP1 POP SWAP2 SWAP1 POP JUMP JUMPDEST PUSH0 PUSH32 0xC22876C300000000000000000000000000000000000000000000000000000000 PUSH28 0xFFFFFFFFFFFFFFFFFFFFFFFFFFFFFFFFFFFFFFFFFFFFFFFFFFFFFFFF NOT AND DUP3 PUSH28 0xFFFFFFFFFFFFFFFFFFFFFFFFFFFFFFFFFFFFFFFFFFFFFFFFFFFFFFFF NOT AND EQ DUP1 PUSH2 0xC05 JUMPI POP PUSH32 0x75E79BE600000000000000000000000000000000000000000000000000000000 PUSH28 0xFFFFFFFFFFFFFFFFFFFFFFFFFFFFFFFFFFFFFFFFFFFFFFFFFFFFFFFF NOT AND DUP3 PUSH28 0xFFFFFFFFFFFFFFFFFFFFFFFFFFFFFFFFFFFFFFFFFFFFFFFFFFFFFFFF NOT AND EQ JUMPDEST SWAP1 POP SWAP2 SWAP1 POP JUMP JUMPDEST DUP1 PUSH1 0x3 PUSH0 CALLER PUSH20 0xFFFFFFFFFFFFFFFFFFFFFFFFFFFFFFFFFFFFFFFF AND PUSH20 0xFFFFFFFFFFFFFFFFFFFFFFFFFFFFFFFFFFFFFFFF AND DUP2 MSTORE PUSH1 0x20 ADD SWAP1 DUP2 MSTORE PUSH1 0x20 ADD PUSH0 KECCAK256 PUSH0 DUP5 PUSH20 0xFFFFFFFFFFFFFFFFFFFFFFFFFFFFFFFFFFFFFFFF AND PUSH20 0xFFFFFFFFFFFFFFFFFFFFFFFFFFFFFFFFFFFFFFFF AND DUP2 MSTORE PUSH1 0x20 ADD SWAP1 DUP2 MSTORE PUSH1 0x20 ADD PUSH0 KECCAK256 PUSH0 PUSH2 0x100 EXP DUP2 SLOAD DUP2 PUSH1 0xFF MUL NOT AND SWAP1 DUP4 ISZERO ISZERO MUL OR SWAP1 SSTORE POP DUP2 PUSH20 0xFFFFFFFFFFFFFFFFFFFFFFFFFFFFFFFFFFFFFFFF AND CALLER PUSH20 0xFFFFFFFFFFFFFFFFFFFFFFFFFFFFFFFFFFFFFFFF AND PUSH32 0x17307EAB39AB6107E8899845AD3D59BD9653F200F220920489CA2B5937696C31 DUP4 PUSH1 0x40 MLOAD PUSH2 0xCF8 SWAP2 SWAP1 PUSH2 0x15B7 JUMP JUMPDEST PUSH1 0x40 MLOAD DUP1 SWAP2 SUB SWAP1 LOG3 POP POP JUMP JUMPDEST PUSH2 0xD0F DUP6 DUP6 DUP6 PUSH2 0x51C JUMP JUMPDEST PUSH0 DUP5 PUSH20 0xFFFFFFFFFFFFFFFFFFFFFFFFFFFFFFFFFFFFFFFF AND EXTCODESIZE EQ DUP1 PUSH2 0xDF8 JUMPI POP PUSH4 0x150B7A02 PUSH1 0xE0 SHL PUSH28 0xFFFFFFFFFFFFFFFFFFFFFFFFFFFFFFFFFFFFFFFFFFFFFFFFFFFFFFFF NOT AND DUP5 PUSH20 0xFFFFFFFFFFFFFFFFFFFFFFFFFFFFFFFFFFFFFFFF AND PUSH4 0x150B7A02 CALLER DUP9 DUP8 DUP8 DUP8 PUSH1 0x40 MLOAD DUP7 PUSH4 0xFFFFFFFF AND PUSH1 0xE0 SHL DUP2 MSTORE PUSH1 0x4 ADD PUSH2 0xD97 SWAP6 SWAP5 SWAP4 SWAP3 SWAP2 SWAP1 PUSH2 0x1BE2 JUMP JUMPDEST PUSH1 0x20 PUSH1 0x40 MLOAD DUP1 DUP4 SUB DUP2 PUSH0 DUP8 GAS CALL ISZERO DUP1 ISZERO PUSH2 0xDB3 JUMPI RETURNDATASIZE PUSH0 DUP1 RETURNDATACOPY RETURNDATASIZE PUSH0 REVERT JUMPDEST POP POP POP POP PUSH1 0x40 MLOAD RETURNDATASIZE PUSH1 0x1F NOT PUSH1 0x1F DUP3 ADD AND DUP3 ADD DUP1 PUSH1 0x40 MSTORE POP DUP2 ADD SWAP1 PUSH2 0xDD7 SWAP2 SWAP1 PUSH2 0x1A35 JUMP JUMPDEST PUSH28 0xFFFFFFFFFFFFFFFFFFFFFFFFFFFFFFFFFFFFFFFFFFFFFFFFFFFFFFFF NOT AND EQ JUMPDEST PUSH2 0xE37 JUMPI PUSH1 0x40 MLOAD PUSH32 0x8C379A000000000000000000000000000000000000000000000000000000000 DUP2 MSTORE PUSH1 0x4 ADD PUSH2 0xE2E SWAP1 PUSH2 0x1AAA JUMP JUMPDEST PUSH1 0x40 MLOAD DUP1 SWAP2 SUB SWAP1 REVERT JUMPDEST POP POP POP POP POP JUMP JUMPDEST PUSH1 0x3 PUSH1 0x20 MSTORE DUP2 PUSH0 MSTORE PUSH1 0x40 PUSH0 KECCAK256 PUSH1 0x20 MSTORE DUP1 PUSH0 MSTORE PUSH1 0x40 PUSH0 KECCAK256 PUSH0 SWAP2 POP SWAP2 POP SWAP1 SLOAD SWAP1 PUSH2 0x100 EXP SWAP1 DIV PUSH1 0xFF AND DUP2 JUMP JUMPDEST PUSH0 DUP4 PUSH20 0xFFFFFFFFFFFFFFFFFFFFFFFFFFFFFFFFFFFFFFFF AND DUP4 PUSH20 0xFFFFFFFFFFFFFFFFFFFFFFFFFFFFFFFFFFFFFFFF AND EQ DUP1 PUSH2 0xF24 JUMPI POP PUSH1 0x3 PUSH0 DUP6 PUSH20 0xFFFFFFFFFFFFFFFFFFFFFFFFFFFFFFFFFFFFFFFF AND PUSH20 0xFFFFFFFFFFFFFFFFFFFFFFFFFFFFFFFFFFFFFFFF AND DUP2 MSTORE PUSH1 0x20 ADD SWAP1 DUP2 MSTORE PUSH1 0x20 ADD PUSH0 KECCAK256 PUSH0 DUP5 PUSH20 0xFFFFFFFFFFFFFFFFFFFFFFFFFFFFFFFFFFFFFFFF AND PUSH20 0xFFFFFFFFFFFFFFFFFFFFFFFFFFFFFFFFFFFFFFFF AND DUP2 MSTORE PUSH1 0x20 ADD SWAP1 DUP2 MSTORE PUSH1 0x20 ADD PUSH0 KECCAK256 PUSH0 SWAP1 SLOAD SWAP1 PUSH2 0x100 EXP SWAP1 DIV PUSH1 0xFF AND JUMPDEST DUP1 PUSH2 0xF8A JUMPI POP PUSH1 0x2 PUSH0 DUP4 DUP2 MSTORE PUSH1 0x20 ADD SWAP1 DUP2 MSTORE PUSH1 0x20 ADD PUSH0 KECCAK256 PUSH0 SWAP1 SLOAD SWAP1 PUSH2 0x100 EXP SWAP1 DIV PUSH20 0xFFFFFFFFFFFFFFFFFFFFFFFFFFFFFFFFFFFFFFFF AND PUSH20 0xFFFFFFFFFFFFFFFFFFFFFFFFFFFFFFFFFFFFFFFF AND DUP4 PUSH20 0xFFFFFFFFFFFFFFFFFFFFFFFFFFFFFFFFFFFFFFFF AND EQ JUMPDEST SWAP1 POP SWAP4 SWAP3 POP POP POP JUMP JUMPDEST PUSH0 PUSH20 0xFFFFFFFFFFFFFFFFFFFFFFFFFFFFFFFFFFFFFFFF AND DUP3 PUSH20 0xFFFFFFFFFFFFFFFFFFFFFFFFFFFFFFFFFFFFFFFF AND SUB PUSH2 0x1001 JUMPI PUSH1 0x40 MLOAD PUSH32 0x8C379A000000000000000000000000000000000000000000000000000000000 DUP2 MSTORE PUSH1 0x4 ADD PUSH2 0xFF8 SWAP1 PUSH2 0x1C78 JUMP JUMPDEST PUSH1 0x40 MLOAD DUP1 SWAP2 SUB SWAP1 REVERT JUMPDEST PUSH0 PUSH20 0xFFFFFFFFFFFFFFFFFFFFFFFFFFFFFFFFFFFFFFFF AND PUSH0 DUP1 DUP4 DUP2 MSTORE PUSH1 0x20 ADD SWAP1 DUP2 MSTORE PUSH1 0x20 ADD PUSH0 KECCAK256 PUSH0 SWAP1 SLOAD SWAP1 PUSH2 0x100 EXP SWAP1 DIV PUSH20 0xFFFFFFFFFFFFFFFFFFFFFFFFFFFFFFFFFFFFFFFF AND PUSH20 0xFFFFFFFFFFFFFFFFFFFFFFFFFFFFFFFFFFFFFFFF AND EQ PUSH2 0x109E JUMPI PUSH1 0x40 MLOAD PUSH32 0x8C379A000000000000000000000000000000000000000000000000000000000 DUP2 MSTORE PUSH1 0x4 ADD PUSH2 0x1095 SWAP1 PUSH2 0x1CE0 JUMP JUMPDEST PUSH1 0x40 MLOAD DUP1 SWAP2 SUB SWAP1 REVERT JUMPDEST PUSH1 0x1 PUSH0 DUP4 PUSH20 0xFFFFFFFFFFFFFFFFFFFFFFFFFFFFFFFFFFFFFFFF AND PUSH20 0xFFFFFFFFFFFFFFFFFFFFFFFFFFFFFFFFFFFFFFFF AND DUP2 MSTORE PUSH1 0x20 ADD SWAP1 DUP2 MSTORE PUSH1 0x20 ADD PUSH0 KECCAK256 PUSH0 DUP2 SLOAD DUP1 SWAP3 SWAP2 SWAP1 PUSH2 0x10EB SWAP1 PUSH2 0x195F JUMP JUMPDEST SWAP2 SWAP1 POP SSTORE POP DUP2 PUSH0 DUP1 DUP4 DUP2 MSTORE PUSH1 0x20 ADD SWAP1 DUP2 MSTORE PUSH1 0x20 ADD PUSH0 KECCAK256 PUSH0 PUSH2 0x100 EXP DUP2 SLOAD DUP2 PUSH20 0xFFFFFFFFFFFFFFFFFFFFFFFFFFFFFFFFFFFFFFFF MUL NOT AND SWAP1 DUP4 PUSH20 0xFFFFFFFFFFFFFFFFFFFFFFFFFFFFFFFFFFFFFFFF AND MUL OR SWAP1 SSTORE POP DUP1 DUP3 PUSH20 0xFFFFFFFFFFFFFFFFFFFFFFFFFFFFFFFFFFFFFFFF AND PUSH0 PUSH20 0xFFFFFFFFFFFFFFFFFFFFFFFFFFFFFFFFFFFFFFFF AND PUSH32 0xDDF252AD1BE2C89B69C2B068FC378DAA952BA7F163C4A11628F55A4DF523B3EF PUSH1 0x40 MLOAD PUSH1 0x40 MLOAD DUP1 SWAP2 SUB SWAP1 LOG4 POP POP JUMP JUMPDEST PUSH0 DUP1 PUSH0 DUP4 DUP2 MSTORE PUSH1 0x20 ADD SWAP1 DUP2 MSTORE PUSH1 0x20 ADD PUSH0 KECCAK256 PUSH0 SWAP1 SLOAD SWAP1 PUSH2 0x100 EXP SWAP1 DIV PUSH20 0xFFFFFFFFFFFFFFFFFFFFFFFFFFFFFFFFFFFFFFFF AND SWAP1 POP PUSH0 PUSH20 0xFFFFFFFFFFFFFFFFFFFFFFFFFFFFFFFFFFFFFFFF AND DUP2 PUSH20 0xFFFFFFFFFFFFFFFFFFFFFFFFFFFFFFFFFFFFFFFF AND SUB PUSH2 0x123E JUMPI PUSH1 0x40 MLOAD PUSH32 0x8C379A000000000000000000000000000000000000000000000000000000000 DUP2 MSTORE PUSH1 0x4 ADD PUSH2 0x1235 SWAP1 PUSH2 0x1D48 JUMP JUMPDEST PUSH1 0x40 MLOAD DUP1 SWAP2 SUB SWAP1 REVERT JUMPDEST PUSH1 0x1 PUSH0 DUP3 PUSH20 0xFFFFFFFFFFFFFFFFFFFFFFFFFFFFFFFFFFFFFFFF AND PUSH20 0xFFFFFFFFFFFFFFFFFFFFFFFFFFFFFFFFFFFFFFFF AND DUP2 MSTORE PUSH1 0x20 ADD SWAP1 DUP2 MSTORE PUSH1 0x20 ADD PUSH0 KECCAK256 PUSH0 DUP2 SLOAD DUP1 SWAP3 SWAP2 SWAP1 PUSH2 0x128B SWAP1 PUSH2 0x1938 JUMP JUMPDEST SWAP2 SWAP1 POP SSTORE POP PUSH0 DUP1 DUP4 DUP2 MSTORE PUSH1 0x20 ADD SWAP1 DUP2 MSTORE PUSH1 0x20 ADD PUSH0 KECCAK256 PUSH0 PUSH2 0x100 EXP DUP2 SLOAD SWAP1 PUSH20 0xFFFFFFFFFFFFFFFFFFFFFFFFFFFFFFFFFFFFFFFF MUL NOT AND SWAP1 SSTORE PUSH1 0x2 PUSH0 DUP4 DUP2 MSTORE PUSH1 0x20 ADD SWAP1 DUP2 MSTORE PUSH1 0x20 ADD PUSH0 KECCAK256 PUSH0 PUSH2 0x100 EXP DUP2 SLOAD SWAP1 PUSH20 0xFFFFFFFFFFFFFFFFFFFFFFFFFFFFFFFFFFFFFFFF MUL NOT AND SWAP1 SSTORE DUP2 PUSH0 PUSH20 0xFFFFFFFFFFFFFFFFFFFFFFFFFFFFFFFFFFFFFFFF AND DUP3 PUSH20 0xFFFFFFFFFFFFFFFFFFFFFFFFFFFFFFFFFFFFFFFF AND PUSH32 0xDDF252AD1BE2C89B69C2B068FC378DAA952BA7F163C4A11628F55A4DF523B3EF PUSH1 0x40 MLOAD PUSH1 0x40 MLOAD DUP1 SWAP2 SUB SWAP1 LOG4 POP POP JUMP JUMPDEST PUSH0 DUP1 REVERT JUMPDEST PUSH0 DUP1 REVERT JUMPDEST PUSH0 DUP2 SWAP1 POP SWAP2 SWAP1 POP JUMP JUMPDEST PUSH2 0x136E DUP2 PUSH2 0x135C JUMP JUMPDEST DUP2 EQ PUSH2 0x1378 JUMPI PUSH0 DUP1 REVERT JUMPDEST POP JUMP JUMPDEST PUSH0 DUP2 CALLDATALOAD SWAP1 POP PUSH2 0x1389 DUP2 PUSH2 0x1365 JUMP JUMPDEST SWAP3 SWAP2 POP POP JUMP JUMPDEST PUSH0 PUSH1 0x20 DUP3 DUP5 SUB SLT ISZERO PUSH2 0x13A4 JUMPI PUSH2 0x13A3 PUSH2 0x1354 JUMP JUMPDEST JUMPDEST PUSH0 PUSH2 0x13B1 DUP5 DUP3 DUP6 ADD PUSH2 0x137B JUMP JUMPDEST SWAP2 POP POP SWAP3 SWAP2 POP POP JUMP JUMPDEST PUSH0 PUSH20 0xFFFFFFFFFFFFFFFFFFFFFFFFFFFFFFFFFFFFFFFF DUP3 AND SWAP1 POP SWAP2 SWAP1 POP JUMP JUMPDEST PUSH0 PUSH2 0x13E3 DUP3 PUSH2 0x13BA JUMP JUMPDEST SWAP1 POP SWAP2 SWAP1 POP JUMP JUMPDEST PUSH2 0x13F3 DUP2 PUSH2 0x13D9 JUMP JUMPDEST DUP3 MSTORE POP POP JUMP JUMPDEST PUSH0 PUSH1 0x20 DUP3 ADD SWAP1 POP PUSH2 0x140C PUSH0 DUP4 ADD DUP5 PUSH2 0x13EA JUMP JUMPDEST SWAP3 SWAP2 POP POP JUMP JUMPDEST PUSH2 0x141B DUP2 PUSH2 0x13D9 JUMP JUMPDEST DUP2 EQ PUSH2 0x1425 JUMPI PUSH0 DUP1 REVERT JUMPDEST POP JUMP JUMPDEST PUSH0 DUP2 CALLDATALOAD SWAP1 POP PUSH2 0x1436 DUP2 PUSH2 0x1412 JUMP JUMPDEST SWAP3 SWAP2 POP POP JUMP JUMPDEST PUSH0 DUP1 PUSH1 0x40 DUP4 DUP6 SUB SLT ISZERO PUSH2 0x1452 JUMPI PUSH2 0x1451 PUSH2 0x1354 JUMP JUMPDEST JUMPDEST PUSH0 PUSH2 0x145F DUP6 DUP3 DUP7 ADD PUSH2 0x1428 JUMP JUMPDEST SWAP3 POP POP PUSH1 0x20 PUSH2 0x1470 DUP6 DUP3 DUP7 ADD PUSH2 0x137B JUMP JUMPDEST SWAP2 POP POP SWAP3 POP SWAP3 SWAP1 POP JUMP JUMPDEST PUSH0 DUP1 PUSH0 PUSH1 0x60 DUP5 DUP7 SUB SLT ISZERO PUSH2 0x1491 JUMPI PUSH2 0x1490 PUSH2 0x1354 JUMP JUMPDEST JUMPDEST PUSH0 PUSH2 0x149E DUP7 DUP3 DUP8 ADD PUSH2 0x1428 JUMP JUMPDEST SWAP4 POP POP PUSH1 0x20 PUSH2 0x14AF DUP7 DUP3 DUP8 ADD PUSH2 0x1428 JUMP JUMPDEST SWAP3 POP POP PUSH1 0x40 PUSH2 0x14C0 DUP7 DUP3 DUP8 ADD PUSH2 0x137B JUMP JUMPDEST SWAP2 POP POP SWAP3 POP SWAP3 POP SWAP3 JUMP JUMPDEST PUSH0 PUSH1 0x20 DUP3 DUP5 SUB SLT ISZERO PUSH2 0x14DF JUMPI PUSH2 0x14DE PUSH2 0x1354 JUMP JUMPDEST JUMPDEST PUSH0 PUSH2 0x14EC DUP5 DUP3 DUP6 ADD PUSH2 0x1428 JUMP JUMPDEST SWAP2 POP POP SWAP3 SWAP2 POP POP JUMP JUMPDEST PUSH2 0x14FE DUP2 PUSH2 0x135C JUMP JUMPDEST DUP3 MSTORE POP POP JUMP JUMPDEST PUSH0 PUSH1 0x20 DUP3 ADD SWAP1 POP PUSH2 0x1517 PUSH0 DUP4 ADD DUP5 PUSH2 0x14F5 JUMP JUMPDEST SWAP3 SWAP2 POP POP JUMP JUMPDEST PUSH0 PUSH32 0xFFFFFFFF00000000000000000000000000000000000000000000000000000000 DUP3 AND SWAP1 POP SWAP2 SWAP1 POP JUMP JUMPDEST PUSH2 0x1551 DUP2 PUSH2 0x151D JUMP JUMPDEST DUP2 EQ PUSH2 0x155B JUMPI PUSH0 DUP1 REVERT JUMPDEST POP JUMP JUMPDEST PUSH0 DUP2 CALLDATALOAD SWAP1 POP PUSH2 0x156C DUP2 PUSH2 0x1548 JUMP JUMPDEST SWAP3 SWAP2 POP POP JUMP JUMPDEST PUSH0 PUSH1 0x20 DUP3 DUP5 SUB SLT ISZERO PUSH2 0x1587 JUMPI PUSH2 0x1586 PUSH2 0x1354 JUMP JUMPDEST JUMPDEST PUSH0 PUSH2 0x1594 DUP5 DUP3 DUP6 ADD PUSH2 0x155E JUMP JUMPDEST SWAP2 POP POP SWAP3 SWAP2 POP POP JUMP JUMPDEST PUSH0 DUP2 ISZERO ISZERO SWAP1 POP SWAP2 SWAP1 POP JUMP JUMPDEST PUSH2 0x15B1 DUP2 PUSH2 0x159D JUMP JUMPDEST DUP3 MSTORE POP POP JUMP JUMPDEST PUSH0 PUSH1 0x20 DUP3 ADD SWAP1 POP PUSH2 0x15CA PUSH0 DUP4 ADD DUP5 PUSH2 0x15A8 JUMP JUMPDEST SWAP3 SWAP2 POP POP JUMP JUMPDEST PUSH2 0x15D9 DUP2 PUSH2 0x159D JUMP JUMPDEST DUP2 EQ PUSH2 0x15E3 JUMPI PUSH0 DUP1 REVERT JUMPDEST POP JUMP JUMPDEST PUSH0 DUP2 CALLDATALOAD SWAP1 POP PUSH2 0x15F4 DUP2 PUSH2 0x15D0 JUMP JUMPDEST SWAP3 SWAP2 POP POP JUMP JUMPDEST PUSH0 DUP1 PUSH1 0x40 DUP4 DUP6 SUB SLT ISZERO PUSH2 0x1610 JUMPI PUSH2 0x160F PUSH2 0x1354 JUMP JUMPDEST JUMPDEST PUSH0 PUSH2 0x161D DUP6 DUP3 DUP7 ADD PUSH2 0x1428 JUMP JUMPDEST SWAP3 POP POP PUSH1 0x20 PUSH2 0x162E DUP6 DUP3 DUP7 ADD PUSH2 0x15E6 JUMP JUMPDEST SWAP2 POP POP SWAP3 POP SWAP3 SWAP1 POP JUMP JUMPDEST PUSH0 DUP1 REVERT JUMPDEST PUSH0 DUP1 REVERT JUMPDEST PUSH0 DUP1 REVERT JUMPDEST PUSH0 DUP1 DUP4 PUSH1 0x1F DUP5 ADD SLT PUSH2 0x1659 JUMPI PUSH2 0x1658 PUSH2 0x1638 JUMP JUMPDEST JUMPDEST DUP3 CALLDATALOAD SWAP1 POP PUSH8 0xFFFFFFFFFFFFFFFF DUP2 GT ISZERO PUSH2 0x1676 JUMPI PUSH2 0x1675 PUSH2 0x163C JUMP JUMPDEST JUMPDEST PUSH1 0x20 DUP4 ADD SWAP2 POP DUP4 PUSH1 0x1 DUP3 MUL DUP4 ADD GT ISZERO PUSH2 0x1692 JUMPI PUSH2 0x1691 PUSH2 0x1640 JUMP JUMPDEST JUMPDEST SWAP3 POP SWAP3 SWAP1 POP JUMP JUMPDEST PUSH0 DUP1 PUSH0 DUP1 PUSH0 PUSH1 0x80 DUP7 DUP9 SUB SLT ISZERO PUSH2 0x16B2 JUMPI PUSH2 0x16B1 PUSH2 0x1354 JUMP JUMPDEST JUMPDEST PUSH0 PUSH2 0x16BF DUP9 DUP3 DUP10 ADD PUSH2 0x1428 JUMP JUMPDEST SWAP6 POP POP PUSH1 0x20 PUSH2 0x16D0 DUP9 DUP3 DUP10 ADD PUSH2 0x1428 JUMP JUMPDEST SWAP5 POP POP PUSH1 0x40 PUSH2 0x16E1 DUP9 DUP3 DUP10 ADD PUSH2 0x137B JUMP JUMPDEST SWAP4 POP POP PUSH1 0x60 DUP7 ADD CALLDATALOAD PUSH8 0xFFFFFFFFFFFFFFFF DUP2 GT ISZERO PUSH2 0x1702 JUMPI PUSH2 0x1701 PUSH2 0x1358 JUMP JUMPDEST JUMPDEST PUSH2 0x170E DUP9 DUP3 DUP10 ADD PUSH2 0x1644 JUMP JUMPDEST SWAP3 POP SWAP3 POP POP SWAP3 SWAP6 POP SWAP3 SWAP6 SWAP1 SWAP4 POP JUMP JUMPDEST PUSH0 DUP1 PUSH1 0x40 DUP4 DUP6 SUB SLT ISZERO PUSH2 0x1733 JUMPI PUSH2 0x1732 PUSH2 0x1354 JUMP JUMPDEST JUMPDEST PUSH0 PUSH2 0x1740 DUP6 DUP3 DUP7 ADD PUSH2 0x1428 JUMP JUMPDEST SWAP3 POP POP PUSH1 0x20 PUSH2 0x1751 DUP6 DUP3 DUP7 ADD PUSH2 0x1428 JUMP JUMPDEST SWAP2 POP POP SWAP3 POP SWAP3 SWAP1 POP JUMP JUMPDEST PUSH0 DUP3 DUP3 MSTORE PUSH1 0x20 DUP3 ADD SWAP1 POP SWAP3 SWAP2 POP POP JUMP JUMPDEST PUSH32 0x746F6B656E4964206973206E6F74206578697374000000000000000000000000 PUSH0 DUP3 ADD MSTORE POP JUMP JUMPDEST PUSH0 PUSH2 0x179F PUSH1 0x14 DUP4 PUSH2 0x175B JUMP JUMPDEST SWAP2 POP PUSH2 0x17AA DUP3 PUSH2 0x176B JUMP JUMPDEST PUSH1 0x20 DUP3 ADD SWAP1 POP SWAP2 SWAP1 POP JUMP JUMPDEST PUSH0 PUSH1 0x20 DUP3 ADD SWAP1 POP DUP2 DUP2 SUB PUSH0 DUP4 ADD MSTORE PUSH2 0x17CC DUP2 PUSH2 0x1793 JUMP JUMPDEST SWAP1 POP SWAP2 SWAP1 POP JUMP JUMPDEST PUSH32 0x6E6F7420617574686F72697A6564000000000000000000000000000000000000 PUSH0 DUP3 ADD MSTORE POP JUMP JUMPDEST PUSH0 PUSH2 0x1807 PUSH1 0xE DUP4 PUSH2 0x175B JUMP JUMPDEST SWAP2 POP PUSH2 0x1812 DUP3 PUSH2 0x17D3 JUMP JUMPDEST PUSH1 0x20 DUP3 ADD SWAP1 POP SWAP2 SWAP1 POP JUMP JUMPDEST PUSH0 PUSH1 0x20 DUP3 ADD SWAP1 POP DUP2 DUP2 SUB PUSH0 DUP4 ADD MSTORE PUSH2 0x1834 DUP2 PUSH2 0x17FB JUMP JUMPDEST SWAP1 POP SWAP2 SWAP1 POP JUMP JUMPDEST PUSH32 0x66726F6D20213D206F776E657200000000000000000000000000000000000000 PUSH0 DUP3 ADD MSTORE POP JUMP JUMPDEST PUSH0 PUSH2 0x186F PUSH1 0xD DUP4 PUSH2 0x175B JUMP JUMPDEST SWAP2 POP PUSH2 0x187A DUP3 PUSH2 0x183B JUMP JUMPDEST PUSH1 0x20 DUP3 ADD SWAP1 POP SWAP2 SWAP1 POP JUMP JUMPDEST PUSH0 PUSH1 0x20 DUP3 ADD SWAP1 POP DUP2 DUP2 SUB PUSH0 DUP4 ADD MSTORE PUSH2 0x189C DUP2 PUSH2 0x1863 JUMP JUMPDEST SWAP1 POP SWAP2 SWAP1 POP JUMP JUMPDEST PUSH32 0x746F203D207A65726F0000000000000000000000000000000000000000000000 PUSH0 DUP3 ADD MSTORE POP JUMP JUMPDEST PUSH0 PUSH2 0x18D7 PUSH1 0x9 DUP4 PUSH2 0x175B JUMP JUMPDEST SWAP2 POP PUSH2 0x18E2 DUP3 PUSH2 0x18A3 JUMP JUMPDEST PUSH1 0x20 DUP3 ADD SWAP1 POP SWAP2 SWAP1 POP JUMP JUMPDEST PUSH0 PUSH1 0x20 DUP3 ADD SWAP1 POP DUP2 DUP2 SUB PUSH0 DUP4 ADD MSTORE PUSH2 0x1904 DUP2 PUSH2 0x18CB JUMP JUMPDEST SWAP1 POP SWAP2 SWAP1 POP JUMP JUMPDEST PUSH32 0x4E487B7100000000000000000000000000000000000000000000000000000000 PUSH0 MSTORE PUSH1 0x11 PUSH1 0x4 MSTORE PUSH1 0x24 PUSH0 REVERT JUMPDEST PUSH0 PUSH2 0x1942 DUP3 PUSH2 0x135C JUMP JUMPDEST SWAP2 POP PUSH0 DUP3 SUB PUSH2 0x1954 JUMPI PUSH2 0x1953 PUSH2 0x190B JUMP JUMPDEST JUMPDEST PUSH1 0x1 DUP3 SUB SWAP1 POP SWAP2 SWAP1 POP JUMP JUMPDEST PUSH0 PUSH2 0x1969 DUP3 PUSH2 0x135C JUMP JUMPDEST SWAP2 POP PUSH32 0xFFFFFFFFFFFFFFFFFFFFFFFFFFFFFFFFFFFFFFFFFFFFFFFFFFFFFFFFFFFFFFFF DUP3 SUB PUSH2 0x199B JUMPI PUSH2 0x199A PUSH2 0x190B JUMP JUMPDEST JUMPDEST PUSH1 0x1 DUP3 ADD SWAP1 POP SWAP2 SWAP1 POP JUMP JUMPDEST PUSH0 DUP3 DUP3 MSTORE PUSH1 0x20 DUP3 ADD SWAP1 POP SWAP3 SWAP2 POP POP JUMP JUMPDEST POP JUMP JUMPDEST PUSH0 PUSH2 0x19C4 PUSH0 DUP4 PUSH2 0x19A6 JUMP JUMPDEST SWAP2 POP PUSH2 0x19CF DUP3 PUSH2 0x19B6 JUMP JUMPDEST PUSH0 DUP3 ADD SWAP1 POP SWAP2 SWAP1 POP JUMP JUMPDEST PUSH0 PUSH1 0x80 DUP3 ADD SWAP1 POP PUSH2 0x19EC PUSH0 DUP4 ADD DUP7 PUSH2 0x13EA JUMP JUMPDEST PUSH2 0x19F9 PUSH1 0x20 DUP4 ADD DUP6 PUSH2 0x13EA JUMP JUMPDEST PUSH2 0x1A06 PUSH1 0x40 DUP4 ADD DUP5 PUSH2 0x14F5 JUMP JUMPDEST DUP2 DUP2 SUB PUSH1 0x60 DUP4 ADD MSTORE PUSH2 0x1A17 DUP2 PUSH2 0x19B9 JUMP JUMPDEST SWAP1 POP SWAP5 SWAP4 POP POP POP POP JUMP JUMPDEST PUSH0 DUP2 MLOAD SWAP1 POP PUSH2 0x1A2F DUP2 PUSH2 0x1548 JUMP JUMPDEST SWAP3 SWAP2 POP POP JUMP JUMPDEST PUSH0 PUSH1 0x20 DUP3 DUP5 SUB SLT ISZERO PUSH2 0x1A4A JUMPI PUSH2 0x1A49 PUSH2 0x1354 JUMP JUMPDEST JUMPDEST PUSH0 PUSH2 0x1A57 DUP5 DUP3 DUP6 ADD PUSH2 0x1A21 JUMP JUMPDEST SWAP2 POP POP SWAP3 SWAP2 POP POP JUMP JUMPDEST PUSH32 0x756E736166652072656365697074000000000000000000000000000000000000 PUSH0 DUP3 ADD MSTORE POP JUMP JUMPDEST PUSH0 PUSH2 0x1A94 PUSH1 0xE DUP4 PUSH2 0x175B JUMP JUMPDEST SWAP2 POP PUSH2 0x1A9F DUP3 PUSH2 0x1A60 JUMP JUMPDEST PUSH1 0x20 DUP3 ADD SWAP1 POP SWAP2 SWAP1 POP JUMP JUMPDEST PUSH0 PUSH1 0x20 DUP3 ADD SWAP1 POP DUP2 DUP2 SUB PUSH0 DUP4 ADD MSTORE PUSH2 0x1AC1 DUP2 PUSH2 0x1A88 JUMP JUMPDEST SWAP1 POP SWAP2 SWAP1 POP JUMP JUMPDEST PUSH32 0x6E6F74206F776E65720000000000000000000000000000000000000000000000 PUSH0 DUP3 ADD MSTORE POP JUMP JUMPDEST PUSH0 PUSH2 0x1AFC PUSH1 0x9 DUP4 PUSH2 0x175B JUMP JUMPDEST SWAP2 POP PUSH2 0x1B07 DUP3 PUSH2 0x1AC8 JUMP JUMPDEST PUSH1 0x20 DUP3 ADD SWAP1 POP SWAP2 SWAP1 POP JUMP JUMPDEST PUSH0 PUSH1 0x20 DUP3 ADD SWAP1 POP DUP2 DUP2 SUB PUSH0 DUP4 ADD MSTORE PUSH2 0x1B29 DUP2 PUSH2 0x1AF0 JUMP JUMPDEST SWAP1 POP SWAP2 SWAP1 POP JUMP JUMPDEST PUSH32 0x6F776E6572203D20616464726573732830290000000000000000000000000000 PUSH0 DUP3 ADD MSTORE POP JUMP JUMPDEST PUSH0 PUSH2 0x1B64 PUSH1 0x12 DUP4 PUSH2 0x175B JUMP JUMPDEST SWAP2 POP PUSH2 0x1B6F DUP3 PUSH2 0x1B30 JUMP JUMPDEST PUSH1 0x20 DUP3 ADD SWAP1 POP SWAP2 SWAP1 POP JUMP JUMPDEST PUSH0 PUSH1 0x20 DUP3 ADD SWAP1 POP DUP2 DUP2 SUB PUSH0 DUP4 ADD MSTORE PUSH2 0x1B91 DUP2 PUSH2 0x1B58 JUMP JUMPDEST SWAP1 POP SWAP2 SWAP1 POP JUMP JUMPDEST DUP3 DUP2 DUP4 CALLDATACOPY PUSH0 DUP4 DUP4 ADD MSTORE POP POP POP JUMP JUMPDEST PUSH0 PUSH1 0x1F NOT PUSH1 0x1F DUP4 ADD AND SWAP1 POP SWAP2 SWAP1 POP JUMP JUMPDEST PUSH0 PUSH2 0x1BC1 DUP4 DUP6 PUSH2 0x19A6 JUMP JUMPDEST SWAP4 POP PUSH2 0x1BCE DUP4 DUP6 DUP5 PUSH2 0x1B98 JUMP JUMPDEST PUSH2 0x1BD7 DUP4 PUSH2 0x1BA6 JUMP JUMPDEST DUP5 ADD SWAP1 POP SWAP4 SWAP3 POP POP POP JUMP JUMPDEST PUSH0 PUSH1 0x80 DUP3 ADD SWAP1 POP PUSH2 0x1BF5 PUSH0 DUP4 ADD DUP9 PUSH2 0x13EA JUMP JUMPDEST PUSH2 0x1C02 PUSH1 0x20 DUP4 ADD DUP8 PUSH2 0x13EA JUMP JUMPDEST PUSH2 0x1C0F PUSH1 0x40 DUP4 ADD DUP7 PUSH2 0x14F5 JUMP JUMPDEST DUP2 DUP2 SUB PUSH1 0x60 DUP4 ADD MSTORE PUSH2 0x1C22 DUP2 DUP5 DUP7 PUSH2 0x1BB6 JUMP JUMPDEST SWAP1 POP SWAP7 SWAP6 POP POP POP POP POP POP JUMP JUMPDEST PUSH32 0x746F203D207A65726F2061646472657373000000000000000000000000000000 PUSH0 DUP3 ADD MSTORE POP JUMP JUMPDEST PUSH0 PUSH2 0x1C62 PUSH1 0x11 DUP4 PUSH2 0x175B JUMP JUMPDEST SWAP2 POP PUSH2 0x1C6D DUP3 PUSH2 0x1C2E JUMP JUMPDEST PUSH1 0x20 DUP3 ADD SWAP1 POP SWAP2 SWAP1 POP JUMP JUMPDEST PUSH0 PUSH1 0x20 DUP3 ADD SWAP1 POP DUP2 DUP2 SUB PUSH0 DUP4 ADD MSTORE PUSH2 0x1C8F DUP2 PUSH2 0x1C56 JUMP JUMPDEST SWAP1 POP SWAP2 SWAP1 POP JUMP JUMPDEST PUSH32 0x746F6B656E206578697374000000000000000000000000000000000000000000 PUSH0 DUP3 ADD MSTORE POP JUMP JUMPDEST PUSH0 PUSH2 0x1CCA PUSH1 0xB DUP4 PUSH2 0x175B JUMP JUMPDEST SWAP2 POP PUSH2 0x1CD5 DUP3 PUSH2 0x1C96 JUMP JUMPDEST PUSH1 0x20 DUP3 ADD SWAP1 POP SWAP2 SWAP1 POP JUMP JUMPDEST PUSH0 PUSH1 0x20 DUP3 ADD SWAP1 POP DUP2 DUP2 SUB PUSH0 DUP4 ADD MSTORE PUSH2 0x1CF7 DUP2 PUSH2 0x1CBE JUMP JUMPDEST SWAP1 POP SWAP2 SWAP1 POP JUMP JUMPDEST PUSH32 0x746F6B656E20646F6573206E6F74206578697374000000000000000000000000 PUSH0 DUP3 ADD MSTORE POP JUMP JUMPDEST PUSH0 PUSH2 0x1D32 PUSH1 0x14 DUP4 PUSH2 0x175B JUMP JUMPDEST SWAP2 POP PUSH2 0x1D3D DUP3 PUSH2 0x1CFE JUMP JUMPDEST PUSH1 0x20 DUP3 ADD SWAP1 POP SWAP2 SWAP1 POP JUMP JUMPDEST PUSH0 PUSH1 0x20 DUP3 ADD SWAP1 POP DUP2 DUP2 SUB PUSH0 DUP4 ADD MSTORE PUSH2 0x1D5F DUP2 PUSH2 0x1D26 JUMP JUMPDEST SWAP1 POP SWAP2 SWAP1 POP JUMP INVALID LOG2 PUSH5 0x6970667358 0x22 SLT KECCAK256 RETURNDATASIZE 0xE8 CALLER 0xEF DELEGATECALL SWAP16 DUP7 SWAP1 0xED 0x4C 0xD7 PUSH8 0x52AE42B7E7F902FC ISZERO ADD 0xDF PUSH8 0xB61CC22402CE83B9 PUSH5 0x736F6C6343 STOP ADDMOD BYTE STOP CALLER "
				},
				"gasEstimates": {
					"creation": {
						"codeDepositCost": "1516000",
						"executionCost": "1580",
						"totalCost": "1517580"
					},
					"external": {
						"approve(address,uint256)": "31497",
						"balanceOf(address)": "2886",
						"burn(uint256)": "infinite",
						"getApproved(uint256)": "5099",
						"isApprovedForAll(address,address)": "infinite",
						"mint(address,uint256)": "infinite",
						"ownerOf(uint256)": "2938",
						"safeTransferFrom(address,address,uint256)": "infinite",
						"safeTransferFrom(address,address,uint256,bytes)": "infinite",
						"setApprovalForAll(address,bool)": "infinite",
						"supportInterface(bytes4)": "719",
						"transferFrom(address,address,uint256)": "infinite"
					}
				},
				"methodIdentifiers": {
					"approve(address,uint256)": "095ea7b3",
					"balanceOf(address)": "70a08231",
					"burn(uint256)": "42966c68",
					"getApproved(uint256)": "081812fc",
					"isApprovedForAll(address,address)": "e985e9c5",
					"mint(address,uint256)": "40c10f19",
					"ownerOf(uint256)": "6352211e",
					"safeTransferFrom(address,address,uint256)": "42842e0e",
					"safeTransferFrom(address,address,uint256,bytes)": "b88d4fde",
					"setApprovalForAll(address,bool)": "a22cb465",
					"supportInterface(bytes4)": "75e79be6",
					"transferFrom(address,address,uint256)": "23b872dd"
				}
			},
			"storageLayout": {
				"storage": [
					{
						"astId": 120,
						"contract": "IERC721.sol:MyNFT",
						"label": "_ownerOf",
						"offset": 0,
						"slot": "0",
						"type": "t_mapping(t_uint256,t_address)"
					},
					{
						"astId": 124,
						"contract": "IERC721.sol:MyNFT",
						"label": "_balanceOf",
						"offset": 0,
						"slot": "1",
						"type": "t_mapping(t_address,t_uint256)"
					},
					{
						"astId": 128,
						"contract": "IERC721.sol:MyNFT",
						"label": "_approvals",
						"offset": 0,
						"slot": "2",
						"type": "t_mapping(t_uint256,t_address)"
					},
					{
						"astId": 134,
						"contract": "IERC721.sol:MyNFT",
						"label": "isApprovedForAll",
						"offset": 0,
						"slot": "3",
						"type": "t_mapping(t_address,t_mapping(t_address,t_bool))"
					}
				],
				"types": {
					"t_address": {
						"encoding": "inplace",
						"label": "address",
						"numberOfBytes": "20"
					},
					"t_bool": {
						"encoding": "inplace",
						"label": "bool",
						"numberOfBytes": "1"
					},
					"t_mapping(t_address,t_bool)": {
						"encoding": "mapping",
						"key": "t_address",
						"label": "mapping(address => bool)",
						"numberOfBytes": "32",
						"value": "t_bool"
					},
					"t_mapping(t_address,t_mapping(t_address,t_bool))": {
						"encoding": "mapping",
						"key": "t_address",
						"label": "mapping(address => mapping(address => bool))",
						"numberOfBytes": "32",
						"value": "t_mapping(t_address,t_bool)"
					},
					"t_mapping(t_address,t_uint256)": {
						"encoding": "mapping",
						"key": "t_address",
						"label": "mapping(address => uint256)",
						"numberOfBytes": "32",
						"value": "t_uint256"
					},
					"t_mapping(t_uint256,t_address)": {
						"encoding": "mapping",
						"key": "t_uint256",
						"label": "mapping(uint256 => address)",
						"numberOfBytes": "32",
						"value": "t_address"
					},
					"t_uint256": {
						"encoding": "inplace",
						"label": "uint256",
						"numberOfBytes": "32"
					}
				}
			},
			"userdoc": {
				"kind": "user",
				"methods": {},
				"version": 1
			}
		}
	}
}