{
	"IERC721.sol": {
		"ERC721": {
			"abi": [
				{
					"anonymous": false,
					"inputs": [
						{
							"indexed": true,
							"internalType": "address",
							"name": "owner",
							"type": "address"
						},
						{
							"indexed": true,
							"internalType": "address",
							"name": "spender",
							"type": "address"
						},
						{
							"indexed": true,
							"internalType": "uint256",
							"name": "id",
							"type": "uint256"
						}
					],
					"name": "Approval",
					"type": "event"
				},
				{
					"anonymous": false,
					"inputs": [
						{
							"indexed": true,
							"internalType": "address",
							"name": "owner",
							"type": "address"
						},
						{
							"indexed": true,
							"internalType": "address",
							"name": "operator",
							"type": "address"
						},
						{
							"indexed": false,
							"internalType": "bool",
							"name": "approved",
							"type": "bool"
						}
					],
					"name": "ApprovalForAll",
					"type": "event"
				},
				{
					"anonymous": false,
					"inputs": [
						{
							"indexed": true,
							"internalType": "address",
							"name": "from",
							"type": "address"
						},
						{
							"indexed": true,
							"internalType": "address",
							"name": "to",
							"type": "address"
						},
						{
							"indexed": true,
							"internalType": "uint256",
							"name": "id",
							"type": "uint256"
						}
					],
					"name": "Transfer",
					"type": "event"
				},
				{
					"inputs": [
						{
							"internalType": "address",
							"name": "to",
							"type": "address"
						},
						{
							"internalType": "uint256",
							"name": "tokenId",
							"type": "uint256"
						}
					],
					"name": "approve",
					"outputs": [],
					"stateMutability": "nonpayable",
					"type": "function"
				},
				{
					"inputs": [
						{
							"internalType": "address",
							"name": "owner",
							"type": "address"
						}
					],
					"name": "balanceOf",
					"outputs": [
						{
							"internalType": "uint256",
							"name": "balance",
							"type": "uint256"
						}
					],
					"stateMutability": "view",
					"type": "function"
				},
				{
					"inputs": [
						{
							"internalType": "uint256",
							"name": "tokenId",
							"type": "uint256"
						}
					],
					"name": "getApproved",
					"outputs": [
						{
							"internalType": "address",
							"name": "operator",
							"type": "address"
						}
					],
					"stateMutability": "view",
					"type": "function"
				},
				{
					"inputs": [
						{
							"internalType": "address",
							"name": "",
							"type": "address"
						},
						{
							"internalType": "address",
							"name": "",
							"type": "address"
						}
					],
					"name": "isApprovedForAll",
					"outputs": [
						{
							"internalType": "bool",
							"name": "",
							"type": "bool"
						}
					],
					"stateMutability": "view",
					"type": "function"
				},
				{
					"inputs": [
						{
							"internalType": "uint256",
							"name": "tokenId",
							"type": "uint256"
						}
					],
					"name": "ownerOf",
					"outputs": [
						{
							"internalType": "address",
							"name": "owner",
							"type": "address"
						}
					],
					"stateMutability": "view",
					"type": "function"
				},
				{
					"inputs": [
						{
							"internalType": "address",
							"name": "from",
							"type": "address"
						},
						{
							"internalType": "address",
							"name": "to",
							"type": "address"
						},
						{
							"internalType": "uint256",
							"name": "tokenId",
							"type": "uint256"
						}
					],
					"name": "safeTransferFrom",
					"outputs": [],
					"stateMutability": "nonpayable",
					"type": "function"
				},
				{
					"inputs": [
						{
							"internalType": "address",
							"name": "from",
							"type": "address"
						},
						{
							"internalType": "address",
							"name": "to",
							"type": "address"
						},
						{
							"internalType": "uint256",
							"name": "tokenId",
							"type": "uint256"
						},
						{
							"internalType": "bytes",
							"name": "data",
							"type": "bytes"
						}
					],
					"name": "safeTransferFrom",
					"outputs": [],
					"stateMutability": "nonpayable",
					"type": "function"
				},
				{
					"inputs": [
						{
							"internalType": "address",
							"name": "operator",
							"type": "address"
						},
						{
							"internalType": "bool",
							"name": "_approved",
							"type": "bool"
						}
					],
					"name": "setApprovalForAll",
					"outputs": [],
					"stateMutability": "nonpayable",
					"type": "function"
				},
				{
					"inputs": [
						{
							"internalType": "bytes4",
							"name": "interfaceId",
							"type": "bytes4"
						}
					],
					"name": "supportInterface",
					"outputs": [
						{
							"internalType": "bool",
							"name": "",
							"type": "bool"
						}
					],
					"stateMutability": "view",
					"type": "function"
				},
				{
					"inputs": [
						{
							"internalType": "address",
							"name": "from",
							"type": "address"
						},
						{
							"internalType": "address",
							"name": "to",
							"type": "address"
						},
						{
							"internalType": "uint256",
							"name": "tokenId",
							"type": "uint256"
						}
					],
					"name": "transferFrom",
					"outputs": [],
					"stateMutability": "nonpayable",
					"type": "function"
				}
			],
			"devdoc": {
				"kind": "dev",
				"methods": {},
				"version": 1
			},
			"evm": {
				"assembly": "    /* \"IERC721.sol\":1164:5686  contract ERC721 is IERC721 {... */\n  mstore(0x40, 0x80)\n  callvalue\n  dup1\n  iszero\n  tag_1\n  jumpi\n  0x00\n  dup1\n  revert\ntag_1:\n  pop\n  dataSize(sub_0)\n  dup1\n  dataOffset(sub_0)\n  0x00\n  codecopy\n  0x00\n  return\nstop\n\nsub_0: assembly {\n        /* \"IERC721.sol\":1164:5686  contract ERC721 is IERC721 {... */\n      mstore(0x40, 0x80)\n      callvalue\n      dup1\n      iszero\n      tag_1\n      jumpi\n      0x00\n      dup1\n      revert\n    tag_1:\n      pop\n      jumpi(tag_2, lt(calldatasize, 0x04))\n      shr(0xe0, calldataload(0x00))\n      dup1\n      0x70a08231\n      gt\n      tag_13\n      jumpi\n      dup1\n      0x70a08231\n      eq\n      tag_8\n      jumpi\n      dup1\n      0x75e79be6\n      eq\n      tag_9\n      jumpi\n      dup1\n      0xa22cb465\n      eq\n      tag_10\n      jumpi\n      dup1\n      0xb88d4fde\n      eq\n      tag_11\n      jumpi\n      dup1\n      0xe985e9c5\n      eq\n      tag_12\n      jumpi\n      jump(tag_2)\n    tag_13:\n      dup1\n      0x081812fc\n      eq\n      tag_3\n      jumpi\n      dup1\n      0x095ea7b3\n      eq\n      tag_4\n      jumpi\n      dup1\n      0x23b872dd\n      eq\n      tag_5\n      jumpi\n      dup1\n      0x42842e0e\n      eq\n      tag_6\n      jumpi\n      dup1\n      0x6352211e\n      eq\n      tag_7\n      jumpi\n    tag_2:\n      0x00\n      dup1\n      revert\n        /* \"IERC721.sol\":4203:4427  function getApproved(uint256 tokenId)... */\n    tag_3:\n      tag_14\n      0x04\n      dup1\n      calldatasize\n      sub\n      dup2\n      add\n      swap1\n      tag_15\n      swap2\n      swap1\n      tag_16\n      jump\t// in\n    tag_15:\n      tag_17\n      jump\t// in\n    tag_14:\n      mload(0x40)\n      tag_18\n      swap2\n      swap1\n      tag_19\n      jump\t// in\n    tag_18:\n      mload(0x40)\n      dup1\n      swap2\n      sub\n      swap1\n      return\n        /* \"IERC721.sol\":3886:4197  function approve(address to, uint256 tokenId) external {... */\n    tag_4:\n      tag_20\n      0x04\n      dup1\n      calldatasize\n      sub\n      dup2\n      add\n      swap1\n      tag_21\n      swap2\n      swap1\n      tag_22\n      jump\t// in\n    tag_21:\n      tag_23\n      jump\t// in\n    tag_20:\n      stop\n        /* \"IERC721.sol\":3382:3880  function transferFrom(... */\n    tag_5:\n      tag_24\n      0x04\n      dup1\n      calldatasize\n      sub\n      dup2\n      add\n      swap1\n      tag_25\n      swap2\n      swap1\n      tag_26\n      jump\t// in\n    tag_25:\n      tag_27\n      jump\t// in\n    tag_24:\n      stop\n        /* \"IERC721.sol\":2355:2847  function safeTransferFrom(... */\n    tag_6:\n      tag_28\n      0x04\n      dup1\n      calldatasize\n      sub\n      dup2\n      add\n      swap1\n      tag_29\n      swap2\n      swap1\n      tag_26\n      jump\t// in\n    tag_29:\n      tag_30\n      jump\t// in\n    tag_28:\n      stop\n        /* \"IERC721.sol\":2175:2349  function ownerOf(uint256 tokenId) external view returns (address owner) {... */\n    tag_7:\n      tag_31\n      0x04\n      dup1\n      calldatasize\n      sub\n      dup2\n      add\n      swap1\n      tag_32\n      swap2\n      swap1\n      tag_16\n      jump\t// in\n    tag_32:\n      tag_33\n      jump\t// in\n    tag_31:\n      mload(0x40)\n      tag_34\n      swap2\n      swap1\n      tag_19\n      jump\t// in\n    tag_34:\n      mload(0x40)\n      dup1\n      swap2\n      sub\n      swap1\n      return\n        /* \"IERC721.sol\":1994:2169  function balanceOf(address owner) external view returns (uint256 balance) {... */\n    tag_8:\n      tag_35\n      0x04\n      dup1\n      calldatasize\n      sub\n      dup2\n      add\n      swap1\n      tag_36\n      swap2\n      swap1\n      tag_37\n      jump\t// in\n    tag_36:\n      tag_38\n      jump\t// in\n    tag_35:\n      mload(0x40)\n      tag_39\n      swap2\n      swap1\n      tag_40\n      jump\t// in\n    tag_39:\n      mload(0x40)\n      dup1\n      swap2\n      sub\n      swap1\n      return\n        /* \"IERC721.sol\":1781:1988  function supportInterface(bytes4 interfaceId) external view returns (bool) {... */\n    tag_9:\n      tag_41\n      0x04\n      dup1\n      calldatasize\n      sub\n      dup2\n      add\n      swap1\n      tag_42\n      swap2\n      swap1\n      tag_43\n      jump\t// in\n    tag_42:\n      tag_44\n      jump\t// in\n    tag_41:\n      mload(0x40)\n      tag_45\n      swap2\n      swap1\n      tag_46\n      jump\t// in\n    tag_45:\n      mload(0x40)\n      dup1\n      swap2\n      sub\n      swap1\n      return\n        /* \"IERC721.sol\":4711:4910  function setApprovalForAll(address operator, bool _approved) external {... */\n    tag_10:\n      tag_47\n      0x04\n      dup1\n      calldatasize\n      sub\n      dup2\n      add\n      swap1\n      tag_48\n      swap2\n      swap1\n      tag_49\n      jump\t// in\n    tag_48:\n      tag_50\n      jump\t// in\n    tag_47:\n      stop\n        /* \"IERC721.sol\":2853:3376  function safeTransferFrom(... */\n    tag_11:\n      tag_51\n      0x04\n      dup1\n      calldatasize\n      sub\n      dup2\n      add\n      swap1\n      tag_52\n      swap2\n      swap1\n      tag_53\n      jump\t// in\n    tag_52:\n      tag_54\n      jump\t// in\n    tag_51:\n      stop\n        /* \"IERC721.sol\":1706:1774  mapping(address => mapping(address => bool)) public isApprovedForAll */\n    tag_12:\n      tag_55\n      0x04\n      dup1\n      calldatasize\n      sub\n      dup2\n      add\n      swap1\n      tag_56\n      swap2\n      swap1\n      tag_57\n      jump\t// in\n    tag_56:\n      tag_58\n      jump\t// in\n    tag_55:\n      mload(0x40)\n      tag_59\n      swap2\n      swap1\n      tag_46\n      jump\t// in\n    tag_59:\n      mload(0x40)\n      dup1\n      swap2\n      sub\n      swap1\n      return\n        /* \"IERC721.sol\":4203:4427  function getApproved(uint256 tokenId)... */\n    tag_17:\n        /* \"IERC721.sol\":4288:4304  address operator */\n      0x00\n        /* \"IERC721.sol\":4357:4358  0 */\n      dup1\n        /* \"IERC721.sol\":4328:4359  _ownerOf[tokenId] != address(0) */\n      0xffffffffffffffffffffffffffffffffffffffff\n      and\n        /* \"IERC721.sol\":4328:4336  _ownerOf */\n      0x00\n        /* \"IERC721.sol\":4328:4345  _ownerOf[tokenId] */\n      dup1\n        /* \"IERC721.sol\":4337:4344  tokenId */\n      dup5\n        /* \"IERC721.sol\":4328:4345  _ownerOf[tokenId] */\n      dup2\n      mstore\n      0x20\n      add\n      swap1\n      dup2\n      mstore\n      0x20\n      add\n      0x00\n      keccak256\n      0x00\n      swap1\n      sload\n      swap1\n      0x0100\n      exp\n      swap1\n      div\n      0xffffffffffffffffffffffffffffffffffffffff\n      and\n        /* \"IERC721.sol\":4328:4359  _ownerOf[tokenId] != address(0) */\n      0xffffffffffffffffffffffffffffffffffffffff\n      and\n      sub\n        /* \"IERC721.sol\":4320:4384  require(_ownerOf[tokenId] != address(0), \"tokenId is not exist\") */\n      tag_61\n      jumpi\n      mload(0x40)\n      0x08c379a000000000000000000000000000000000000000000000000000000000\n      dup2\n      mstore\n      0x04\n      add\n      tag_62\n      swap1\n      tag_63\n      jump\t// in\n    tag_62:\n      mload(0x40)\n      dup1\n      swap2\n      sub\n      swap1\n      revert\n    tag_61:\n        /* \"IERC721.sol\":4401:4411  _approvals */\n      0x02\n        /* \"IERC721.sol\":4401:4420  _approvals[tokenId] */\n      0x00\n        /* \"IERC721.sol\":4412:4419  tokenId */\n      dup4\n        /* \"IERC721.sol\":4401:4420  _approvals[tokenId] */\n      dup2\n      mstore\n      0x20\n      add\n      swap1\n      dup2\n      mstore\n      0x20\n      add\n      0x00\n      keccak256\n      0x00\n      swap1\n      sload\n      swap1\n      0x0100\n      exp\n      swap1\n      div\n      0xffffffffffffffffffffffffffffffffffffffff\n      and\n        /* \"IERC721.sol\":4394:4420  return _approvals[tokenId] */\n      swap1\n      pop\n        /* \"IERC721.sol\":4203:4427  function getApproved(uint256 tokenId)... */\n      swap2\n      swap1\n      pop\n      jump\t// out\n        /* \"IERC721.sol\":3886:4197  function approve(address to, uint256 tokenId) external {... */\n    tag_23:\n        /* \"IERC721.sol\":3951:3964  address owner */\n      0x00\n        /* \"IERC721.sol\":3967:3975  _ownerOf */\n      dup1\n        /* \"IERC721.sol\":3967:3984  _ownerOf[tokenId] */\n      0x00\n        /* \"IERC721.sol\":3976:3983  tokenId */\n      dup4\n        /* \"IERC721.sol\":3967:3984  _ownerOf[tokenId] */\n      dup2\n      mstore\n      0x20\n      add\n      swap1\n      dup2\n      mstore\n      0x20\n      add\n      0x00\n      keccak256\n      0x00\n      swap1\n      sload\n      swap1\n      0x0100\n      exp\n      swap1\n      div\n      0xffffffffffffffffffffffffffffffffffffffff\n      and\n        /* \"IERC721.sol\":3951:3984  address owner = _ownerOf[tokenId] */\n      swap1\n      pop\n        /* \"IERC721.sol\":4029:4034  owner */\n      dup1\n        /* \"IERC721.sol\":4015:4034  msg.sender == owner */\n      0xffffffffffffffffffffffffffffffffffffffff\n      and\n        /* \"IERC721.sol\":4015:4025  msg.sender */\n      caller\n        /* \"IERC721.sol\":4015:4034  msg.sender == owner */\n      0xffffffffffffffffffffffffffffffffffffffff\n      and\n      eq\n        /* \"IERC721.sol\":4015:4073  msg.sender == owner || isApprovedForAll[owner][msg.sender] */\n      dup1\n      tag_65\n      jumpi\n      pop\n        /* \"IERC721.sol\":4038:4054  isApprovedForAll */\n      0x03\n        /* \"IERC721.sol\":4038:4061  isApprovedForAll[owner] */\n      0x00\n        /* \"IERC721.sol\":4055:4060  owner */\n      dup3\n        /* \"IERC721.sol\":4038:4061  isApprovedForAll[owner] */\n      0xffffffffffffffffffffffffffffffffffffffff\n      and\n      0xffffffffffffffffffffffffffffffffffffffff\n      and\n      dup2\n      mstore\n      0x20\n      add\n      swap1\n      dup2\n      mstore\n      0x20\n      add\n      0x00\n      keccak256\n        /* \"IERC721.sol\":4038:4073  isApprovedForAll[owner][msg.sender] */\n      0x00\n        /* \"IERC721.sol\":4062:4072  msg.sender */\n      caller\n        /* \"IERC721.sol\":4038:4073  isApprovedForAll[owner][msg.sender] */\n      0xffffffffffffffffffffffffffffffffffffffff\n      and\n      0xffffffffffffffffffffffffffffffffffffffff\n      and\n      dup2\n      mstore\n      0x20\n      add\n      swap1\n      dup2\n      mstore\n      0x20\n      add\n      0x00\n      keccak256\n      0x00\n      swap1\n      sload\n      swap1\n      0x0100\n      exp\n      swap1\n      div\n      0xff\n      and\n        /* \"IERC721.sol\":4015:4073  msg.sender == owner || isApprovedForAll[owner][msg.sender] */\n    tag_65:\n        /* \"IERC721.sol\":3994:4113  require(... */\n      tag_66\n      jumpi\n      mload(0x40)\n      0x08c379a000000000000000000000000000000000000000000000000000000000\n      dup2\n      mstore\n      0x04\n      add\n      tag_67\n      swap1\n      tag_68\n      jump\t// in\n    tag_67:\n      mload(0x40)\n      dup1\n      swap2\n      sub\n      swap1\n      revert\n    tag_66:\n        /* \"IERC721.sol\":4145:4147  to */\n      dup3\n        /* \"IERC721.sol\":4123:4133  _approvals */\n      0x02\n        /* \"IERC721.sol\":4123:4142  _approvals[tokenId] */\n      0x00\n        /* \"IERC721.sol\":4134:4141  tokenId */\n      dup5\n        /* \"IERC721.sol\":4123:4142  _approvals[tokenId] */\n      dup2\n      mstore\n      0x20\n      add\n      swap1\n      dup2\n      mstore\n      0x20\n      add\n      0x00\n      keccak256\n      0x00\n        /* \"IERC721.sol\":4123:4147  _approvals[tokenId] = to */\n      0x0100\n      exp\n      dup2\n      sload\n      dup2\n      0xffffffffffffffffffffffffffffffffffffffff\n      mul\n      not\n      and\n      swap1\n      dup4\n      0xffffffffffffffffffffffffffffffffffffffff\n      and\n      mul\n      or\n      swap1\n      sstore\n      pop\n        /* \"IERC721.sol\":4182:4189  tokenId */\n      dup2\n        /* \"IERC721.sol\":4178:4180  to */\n      dup4\n        /* \"IERC721.sol\":4162:4190  Approval(owner, to, tokenId) */\n      0xffffffffffffffffffffffffffffffffffffffff\n      and\n        /* \"IERC721.sol\":4171:4176  owner */\n      dup3\n        /* \"IERC721.sol\":4162:4190  Approval(owner, to, tokenId) */\n      0xffffffffffffffffffffffffffffffffffffffff\n      and\n      0x8c5be1e5ebec7d5bd14f71427d1e84f3dd0314c0f7b2291e5b200ac8c7c3b925\n      mload(0x40)\n      mload(0x40)\n      dup1\n      swap2\n      sub\n      swap1\n      log4\n        /* \"IERC721.sol\":3941:4197  {... */\n      pop\n        /* \"IERC721.sol\":3886:4197  function approve(address to, uint256 tokenId) external {... */\n      pop\n      pop\n      jump\t// out\n        /* \"IERC721.sol\":3382:3880  function transferFrom(... */\n    tag_27:\n        /* \"IERC721.sol\":3510:3518  _ownerOf */\n      0x00\n        /* \"IERC721.sol\":3510:3527  _ownerOf[tokenId] */\n      dup1\n        /* \"IERC721.sol\":3519:3526  tokenId */\n      dup3\n        /* \"IERC721.sol\":3510:3527  _ownerOf[tokenId] */\n      dup2\n      mstore\n      0x20\n      add\n      swap1\n      dup2\n      mstore\n      0x20\n      add\n      0x00\n      keccak256\n      0x00\n      swap1\n      sload\n      swap1\n      0x0100\n      exp\n      swap1\n      div\n      0xffffffffffffffffffffffffffffffffffffffff\n      and\n        /* \"IERC721.sol\":3502:3527  from == _ownerOf[tokenId] */\n      0xffffffffffffffffffffffffffffffffffffffff\n      and\n        /* \"IERC721.sol\":3502:3506  from */\n      dup4\n        /* \"IERC721.sol\":3502:3527  from == _ownerOf[tokenId] */\n      0xffffffffffffffffffffffffffffffffffffffff\n      and\n      eq\n        /* \"IERC721.sol\":3494:3545  require(from == _ownerOf[tokenId], \"from != owner\") */\n      tag_70\n      jumpi\n      mload(0x40)\n      0x08c379a000000000000000000000000000000000000000000000000000000000\n      dup2\n      mstore\n      0x04\n      add\n      tag_71\n      swap1\n      tag_72\n      jump\t// in\n    tag_71:\n      mload(0x40)\n      dup1\n      swap2\n      sub\n      swap1\n      revert\n    tag_70:\n        /* \"IERC721.sol\":3577:3578  0 */\n      0x00\n        /* \"IERC721.sol\":3563:3579  to != address(0) */\n      0xffffffffffffffffffffffffffffffffffffffff\n      and\n        /* \"IERC721.sol\":3563:3565  to */\n      dup3\n        /* \"IERC721.sol\":3563:3579  to != address(0) */\n      0xffffffffffffffffffffffffffffffffffffffff\n      and\n      sub\n        /* \"IERC721.sol\":3555:3593  require(to != address(0), \"to = zero\") */\n      tag_73\n      jumpi\n      mload(0x40)\n      0x08c379a000000000000000000000000000000000000000000000000000000000\n      dup2\n      mstore\n      0x04\n      add\n      tag_74\n      swap1\n      tag_75\n      jump\t// in\n    tag_74:\n      mload(0x40)\n      dup1\n      swap2\n      sub\n      swap1\n      revert\n    tag_73:\n        /* \"IERC721.sol\":3624:3669  _isApprovedOrOwner(from, msg.sender, tokenId) */\n      tag_76\n        /* \"IERC721.sol\":3643:3647  from */\n      dup4\n        /* \"IERC721.sol\":3649:3659  msg.sender */\n      caller\n        /* \"IERC721.sol\":3661:3668  tokenId */\n      dup4\n        /* \"IERC721.sol\":3624:3642  _isApprovedOrOwner */\n      tag_77\n        /* \"IERC721.sol\":3624:3669  _isApprovedOrOwner(from, msg.sender, tokenId) */\n      jump\t// in\n    tag_76:\n        /* \"IERC721.sol\":3603:3709  require(... */\n      tag_78\n      jumpi\n      mload(0x40)\n      0x08c379a000000000000000000000000000000000000000000000000000000000\n      dup2\n      mstore\n      0x04\n      add\n      tag_79\n      swap1\n      tag_68\n      jump\t// in\n    tag_79:\n      mload(0x40)\n      dup1\n      swap2\n      sub\n      swap1\n      revert\n    tag_78:\n        /* \"IERC721.sol\":3719:3729  _balanceOf */\n      0x01\n        /* \"IERC721.sol\":3719:3735  _balanceOf[from] */\n      0x00\n        /* \"IERC721.sol\":3730:3734  from */\n      dup5\n        /* \"IERC721.sol\":3719:3735  _balanceOf[from] */\n      0xffffffffffffffffffffffffffffffffffffffff\n      and\n      0xffffffffffffffffffffffffffffffffffffffff\n      and\n      dup2\n      mstore\n      0x20\n      add\n      swap1\n      dup2\n      mstore\n      0x20\n      add\n      0x00\n      keccak256\n      0x00\n        /* \"IERC721.sol\":3719:3737  _balanceOf[from]-- */\n      dup2\n      sload\n      dup1\n      swap3\n      swap2\n      swap1\n      tag_80\n      swap1\n      tag_81\n      jump\t// in\n    tag_80:\n      swap2\n      swap1\n      pop\n      sstore\n      pop\n        /* \"IERC721.sol\":3747:3757  _balanceOf */\n      0x01\n        /* \"IERC721.sol\":3747:3761  _balanceOf[to] */\n      0x00\n        /* \"IERC721.sol\":3758:3760  to */\n      dup4\n        /* \"IERC721.sol\":3747:3761  _balanceOf[to] */\n      0xffffffffffffffffffffffffffffffffffffffff\n      and\n      0xffffffffffffffffffffffffffffffffffffffff\n      and\n      dup2\n      mstore\n      0x20\n      add\n      swap1\n      dup2\n      mstore\n      0x20\n      add\n      0x00\n      keccak256\n      0x00\n        /* \"IERC721.sol\":3747:3763  _balanceOf[to]++ */\n      dup2\n      sload\n      dup1\n      swap3\n      swap2\n      swap1\n      tag_82\n      swap1\n      tag_83\n      jump\t// in\n    tag_82:\n      swap2\n      swap1\n      pop\n      sstore\n      pop\n        /* \"IERC721.sol\":3793:3795  to */\n      dup2\n        /* \"IERC721.sol\":3773:3781  _ownerOf */\n      0x00\n        /* \"IERC721.sol\":3773:3790  _ownerOf[tokenId] */\n      dup1\n        /* \"IERC721.sol\":3782:3789  tokenId */\n      dup4\n        /* \"IERC721.sol\":3773:3790  _ownerOf[tokenId] */\n      dup2\n      mstore\n      0x20\n      add\n      swap1\n      dup2\n      mstore\n      0x20\n      add\n      0x00\n      keccak256\n      0x00\n        /* \"IERC721.sol\":3773:3795  _ownerOf[tokenId] = to */\n      0x0100\n      exp\n      dup2\n      sload\n      dup2\n      0xffffffffffffffffffffffffffffffffffffffff\n      mul\n      not\n      and\n      swap1\n      dup4\n      0xffffffffffffffffffffffffffffffffffffffff\n      and\n      mul\n      or\n      swap1\n      sstore\n      pop\n        /* \"IERC721.sol\":3812:3822  _approvals */\n      0x02\n        /* \"IERC721.sol\":3812:3831  _approvals[tokenId] */\n      0x00\n        /* \"IERC721.sol\":3823:3830  tokenId */\n      dup3\n        /* \"IERC721.sol\":3812:3831  _approvals[tokenId] */\n      dup2\n      mstore\n      0x20\n      add\n      swap1\n      dup2\n      mstore\n      0x20\n      add\n      0x00\n      keccak256\n      0x00\n        /* \"IERC721.sol\":3805:3831  delete _approvals[tokenId] */\n      0x0100\n      exp\n      dup2\n      sload\n      swap1\n      0xffffffffffffffffffffffffffffffffffffffff\n      mul\n      not\n      and\n      swap1\n      sstore\n        /* \"IERC721.sol\":3865:3872  tokenId */\n      dup1\n        /* \"IERC721.sol\":3861:3863  to */\n      dup3\n        /* \"IERC721.sol\":3846:3873  Transfer(from, to, tokenId) */\n      0xffffffffffffffffffffffffffffffffffffffff\n      and\n        /* \"IERC721.sol\":3855:3859  from */\n      dup5\n        /* \"IERC721.sol\":3846:3873  Transfer(from, to, tokenId) */\n      0xffffffffffffffffffffffffffffffffffffffff\n      and\n      0xddf252ad1be2c89b69c2b068fc378daa952ba7f163c4a11628f55a4df523b3ef\n      mload(0x40)\n      mload(0x40)\n      dup1\n      swap2\n      sub\n      swap1\n      log4\n        /* \"IERC721.sol\":3382:3880  function transferFrom(... */\n      pop\n      pop\n      pop\n      jump\t// out\n        /* \"IERC721.sol\":2355:2847  function safeTransferFrom(... */\n    tag_30:\n        /* \"IERC721.sol\":2473:2504  transferFrom(from, to, tokenId) */\n      tag_85\n        /* \"IERC721.sol\":2486:2490  from */\n      dup4\n        /* \"IERC721.sol\":2492:2494  to */\n      dup4\n        /* \"IERC721.sol\":2496:2503  tokenId */\n      dup4\n        /* \"IERC721.sol\":2473:2485  transferFrom */\n      tag_27\n        /* \"IERC721.sol\":2473:2504  transferFrom(from, to, tokenId) */\n      jump\t// in\n    tag_85:\n        /* \"IERC721.sol\":2553:2554  0 */\n      0x00\n        /* \"IERC721.sol\":2535:2537  to */\n      dup3\n        /* \"IERC721.sol\":2535:2549  to.code.length */\n      0xffffffffffffffffffffffffffffffffffffffff\n      and\n      extcodesize\n        /* \"IERC721.sol\":2535:2554  to.code.length == 0 */\n      eq\n        /* \"IERC721.sol\":2535:2800  to.code.length == 0 ||... */\n      dup1\n      tag_86\n      jumpi\n      pop\n        /* \"IERC721.sol\":2759:2800  IERC721Receiver.onERC721Received.selector */\n      shl(0xe0, 0x150b7a02)\n        /* \"IERC721.sol\":2574:2800  IERC721Receiver(to).onERC721Received(... */\n      not(0xffffffffffffffffffffffffffffffffffffffffffffffffffffffff)\n      and\n        /* \"IERC721.sol\":2590:2592  to */\n      dup3\n        /* \"IERC721.sol\":2574:2610  IERC721Receiver(to).onERC721Received */\n      0xffffffffffffffffffffffffffffffffffffffff\n      and\n      0x150b7a02\n        /* \"IERC721.sol\":2632:2642  msg.sender */\n      caller\n        /* \"IERC721.sol\":2664:2668  from */\n      dup7\n        /* \"IERC721.sol\":2690:2697  tokenId */\n      dup6\n        /* \"IERC721.sol\":2574:2739  IERC721Receiver(to).onERC721Received(... */\n      mload(0x40)\n      dup5\n      0xffffffff\n      and\n      0xe0\n      shl\n      dup2\n      mstore\n      0x04\n      add\n      tag_87\n      swap4\n      swap3\n      swap2\n      swap1\n      tag_88\n      jump\t// in\n    tag_87:\n      0x20\n      mload(0x40)\n      dup1\n      dup4\n      sub\n      dup2\n      0x00\n      dup8\n      gas\n      call\n      iszero\n      dup1\n      iszero\n      tag_90\n      jumpi\n      returndatasize\n      0x00\n      dup1\n      returndatacopy\n      revert(0x00, returndatasize)\n    tag_90:\n      pop\n      pop\n      pop\n      pop\n      mload(0x40)\n      returndatasize\n      not(0x1f)\n      0x1f\n      dup3\n      add\n      and\n      dup3\n      add\n      dup1\n      0x40\n      mstore\n      pop\n      dup2\n      add\n      swap1\n      tag_91\n      swap2\n      swap1\n      tag_92\n      jump\t// in\n    tag_91:\n        /* \"IERC721.sol\":2574:2800  IERC721Receiver(to).onERC721Received(... */\n      not(0xffffffffffffffffffffffffffffffffffffffffffffffffffffffff)\n      and\n      eq\n        /* \"IERC721.sol\":2535:2800  to.code.length == 0 ||... */\n    tag_86:\n        /* \"IERC721.sol\":2514:2840  require(... */\n      tag_93\n      jumpi\n      mload(0x40)\n      0x08c379a000000000000000000000000000000000000000000000000000000000\n      dup2\n      mstore\n      0x04\n      add\n      tag_94\n      swap1\n      tag_95\n      jump\t// in\n    tag_94:\n      mload(0x40)\n      dup1\n      swap2\n      sub\n      swap1\n      revert\n    tag_93:\n        /* \"IERC721.sol\":2355:2847  function safeTransferFrom(... */\n      pop\n      pop\n      pop\n      jump\t// out\n        /* \"IERC721.sol\":2175:2349  function ownerOf(uint256 tokenId) external view returns (address owner) {... */\n    tag_33:\n        /* \"IERC721.sol\":2232:2245  address owner */\n      0x00\n        /* \"IERC721.sol\":2265:2273  _ownerOf */\n      dup1\n        /* \"IERC721.sol\":2265:2282  _ownerOf[tokenId] */\n      0x00\n        /* \"IERC721.sol\":2274:2281  tokenId */\n      dup4\n        /* \"IERC721.sol\":2265:2282  _ownerOf[tokenId] */\n      dup2\n      mstore\n      0x20\n      add\n      swap1\n      dup2\n      mstore\n      0x20\n      add\n      0x00\n      keccak256\n      0x00\n      swap1\n      sload\n      swap1\n      0x0100\n      exp\n      swap1\n      div\n      0xffffffffffffffffffffffffffffffffffffffff\n      and\n        /* \"IERC721.sol\":2257:2282  owner = _ownerOf[tokenId] */\n      swap1\n      pop\n        /* \"IERC721.sol\":2317:2318  0 */\n      0x00\n        /* \"IERC721.sol\":2300:2319  owner != address(0) */\n      0xffffffffffffffffffffffffffffffffffffffff\n      and\n        /* \"IERC721.sol\":2300:2305  owner */\n      dup2\n        /* \"IERC721.sol\":2300:2319  owner != address(0) */\n      0xffffffffffffffffffffffffffffffffffffffff\n      and\n      sub\n        /* \"IERC721.sol\":2292:2342  require(owner != address(0), \"owner = address(0)\") */\n      tag_97\n      jumpi\n      mload(0x40)\n      0x08c379a000000000000000000000000000000000000000000000000000000000\n      dup2\n      mstore\n      0x04\n      add\n      tag_98\n      swap1\n      tag_99\n      jump\t// in\n    tag_98:\n      mload(0x40)\n      dup1\n      swap2\n      sub\n      swap1\n      revert\n    tag_97:\n        /* \"IERC721.sol\":2175:2349  function ownerOf(uint256 tokenId) external view returns (address owner) {... */\n      swap2\n      swap1\n      pop\n      jump\t// out\n        /* \"IERC721.sol\":1994:2169  function balanceOf(address owner) external view returns (uint256 balance) {... */\n    tag_38:\n        /* \"IERC721.sol\":2051:2066  uint256 balance */\n      0x00\n        /* \"IERC721.sol\":2103:2104  0 */\n      dup1\n        /* \"IERC721.sol\":2086:2105  owner != address(0) */\n      0xffffffffffffffffffffffffffffffffffffffff\n      and\n        /* \"IERC721.sol\":2086:2091  owner */\n      dup3\n        /* \"IERC721.sol\":2086:2105  owner != address(0) */\n      0xffffffffffffffffffffffffffffffffffffffff\n      and\n      sub\n        /* \"IERC721.sol\":2078:2128  require(owner != address(0), \"owner = address(0)\") */\n      tag_101\n      jumpi\n      mload(0x40)\n      0x08c379a000000000000000000000000000000000000000000000000000000000\n      dup2\n      mstore\n      0x04\n      add\n      tag_102\n      swap1\n      tag_99\n      jump\t// in\n    tag_102:\n      mload(0x40)\n      dup1\n      swap2\n      sub\n      swap1\n      revert\n    tag_101:\n        /* \"IERC721.sol\":2145:2155  _balanceOf */\n      0x01\n        /* \"IERC721.sol\":2145:2162  _balanceOf[owner] */\n      0x00\n        /* \"IERC721.sol\":2156:2161  owner */\n      dup4\n        /* \"IERC721.sol\":2145:2162  _balanceOf[owner] */\n      0xffffffffffffffffffffffffffffffffffffffff\n      and\n      0xffffffffffffffffffffffffffffffffffffffff\n      and\n      dup2\n      mstore\n      0x20\n      add\n      swap1\n      dup2\n      mstore\n      0x20\n      add\n      0x00\n      keccak256\n      sload\n        /* \"IERC721.sol\":2138:2162  return _balanceOf[owner] */\n      swap1\n      pop\n        /* \"IERC721.sol\":1994:2169  function balanceOf(address owner) external view returns (uint256 balance) {... */\n      swap2\n      swap1\n      pop\n      jump\t// out\n        /* \"IERC721.sol\":1781:1988  function supportInterface(bytes4 interfaceId) external view returns (bool) {... */\n    tag_44:\n        /* \"IERC721.sol\":1850:1854  bool */\n      0x00\n        /* \"IERC721.sol\":1900:1925  type(IERC721).interfaceId */\n      0xc22876c300000000000000000000000000000000000000000000000000000000\n        /* \"IERC721.sol\":1885:1925  interfaceId == type(IERC721).interfaceId */\n      not(0xffffffffffffffffffffffffffffffffffffffffffffffffffffffff)\n      and\n        /* \"IERC721.sol\":1885:1896  interfaceId */\n      dup3\n        /* \"IERC721.sol\":1885:1925  interfaceId == type(IERC721).interfaceId */\n      not(0xffffffffffffffffffffffffffffffffffffffffffffffffffffffff)\n      and\n      eq\n        /* \"IERC721.sol\":1885:1981  interfaceId == type(IERC721).interfaceId ||... */\n      dup1\n      tag_104\n      jumpi\n      pop\n        /* \"IERC721.sol\":1956:1981  type(IERC165).interfaceId */\n      0x75e79be600000000000000000000000000000000000000000000000000000000\n        /* \"IERC721.sol\":1941:1981  interfaceId == type(IERC165).interfaceId */\n      not(0xffffffffffffffffffffffffffffffffffffffffffffffffffffffff)\n      and\n        /* \"IERC721.sol\":1941:1952  interfaceId */\n      dup3\n        /* \"IERC721.sol\":1941:1981  interfaceId == type(IERC165).interfaceId */\n      not(0xffffffffffffffffffffffffffffffffffffffffffffffffffffffff)\n      and\n      eq\n        /* \"IERC721.sol\":1885:1981  interfaceId == type(IERC721).interfaceId ||... */\n    tag_104:\n        /* \"IERC721.sol\":1866:1981  return... */\n      swap1\n      pop\n        /* \"IERC721.sol\":1781:1988  function supportInterface(bytes4 interfaceId) external view returns (bool) {... */\n      swap2\n      swap1\n      pop\n      jump\t// out\n        /* \"IERC721.sol\":4711:4910  function setApprovalForAll(address operator, bool _approved) external {... */\n    tag_50:\n        /* \"IERC721.sol\":4832:4841  _approved */\n      dup1\n        /* \"IERC721.sol\":4791:4807  isApprovedForAll */\n      0x03\n        /* \"IERC721.sol\":4791:4819  isApprovedForAll[msg.sender] */\n      0x00\n        /* \"IERC721.sol\":4808:4818  msg.sender */\n      caller\n        /* \"IERC721.sol\":4791:4819  isApprovedForAll[msg.sender] */\n      0xffffffffffffffffffffffffffffffffffffffff\n      and\n      0xffffffffffffffffffffffffffffffffffffffff\n      and\n      dup2\n      mstore\n      0x20\n      add\n      swap1\n      dup2\n      mstore\n      0x20\n      add\n      0x00\n      keccak256\n        /* \"IERC721.sol\":4791:4829  isApprovedForAll[msg.sender][operator] */\n      0x00\n        /* \"IERC721.sol\":4820:4828  operator */\n      dup5\n        /* \"IERC721.sol\":4791:4829  isApprovedForAll[msg.sender][operator] */\n      0xffffffffffffffffffffffffffffffffffffffff\n      and\n      0xffffffffffffffffffffffffffffffffffffffff\n      and\n      dup2\n      mstore\n      0x20\n      add\n      swap1\n      dup2\n      mstore\n      0x20\n      add\n      0x00\n      keccak256\n      0x00\n        /* \"IERC721.sol\":4791:4841  isApprovedForAll[msg.sender][operator] = _approved */\n      0x0100\n      exp\n      dup2\n      sload\n      dup2\n      0xff\n      mul\n      not\n      and\n      swap1\n      dup4\n      iszero\n      iszero\n      mul\n      or\n      swap1\n      sstore\n      pop\n        /* \"IERC721.sol\":4883:4891  operator */\n      dup2\n        /* \"IERC721.sol\":4856:4903  ApprovalForAll(msg.sender, operator, _approved) */\n      0xffffffffffffffffffffffffffffffffffffffff\n      and\n        /* \"IERC721.sol\":4871:4881  msg.sender */\n      caller\n        /* \"IERC721.sol\":4856:4903  ApprovalForAll(msg.sender, operator, _approved) */\n      0xffffffffffffffffffffffffffffffffffffffff\n      and\n      0x17307eab39ab6107e8899845ad3d59bd9653f200f220920489ca2b5937696c31\n        /* \"IERC721.sol\":4893:4902  _approved */\n      dup4\n        /* \"IERC721.sol\":4856:4903  ApprovalForAll(msg.sender, operator, _approved) */\n      mload(0x40)\n      tag_106\n      swap2\n      swap1\n      tag_46\n      jump\t// in\n    tag_106:\n      mload(0x40)\n      dup1\n      swap2\n      sub\n      swap1\n      log3\n        /* \"IERC721.sol\":4711:4910  function setApprovalForAll(address operator, bool _approved) external {... */\n      pop\n      pop\n      jump\t// out\n        /* \"IERC721.sol\":2853:3376  function safeTransferFrom(... */\n    tag_54:\n        /* \"IERC721.sol\":3000:3031  transferFrom(from, to, tokenId) */\n      tag_108\n        /* \"IERC721.sol\":3013:3017  from */\n      dup6\n        /* \"IERC721.sol\":3019:3021  to */\n      dup6\n        /* \"IERC721.sol\":3023:3030  tokenId */\n      dup6\n        /* \"IERC721.sol\":3000:3012  transferFrom */\n      tag_27\n        /* \"IERC721.sol\":3000:3031  transferFrom(from, to, tokenId) */\n      jump\t// in\n    tag_108:\n        /* \"IERC721.sol\":3080:3081  0 */\n      0x00\n        /* \"IERC721.sol\":3062:3064  to */\n      dup5\n        /* \"IERC721.sol\":3062:3076  to.code.length */\n      0xffffffffffffffffffffffffffffffffffffffff\n      and\n      extcodesize\n        /* \"IERC721.sol\":3062:3081  to.code.length == 0 */\n      eq\n        /* \"IERC721.sol\":3062:3329  to.code.length == 0 ||... */\n      dup1\n      tag_109\n      jumpi\n      pop\n        /* \"IERC721.sol\":3288:3329  IERC721Receiver.onERC721Received.selector */\n      shl(0xe0, 0x150b7a02)\n        /* \"IERC721.sol\":3101:3329  IERC721Receiver(to).onERC721Received(... */\n      not(0xffffffffffffffffffffffffffffffffffffffffffffffffffffffff)\n      and\n        /* \"IERC721.sol\":3117:3119  to */\n      dup5\n        /* \"IERC721.sol\":3101:3137  IERC721Receiver(to).onERC721Received */\n      0xffffffffffffffffffffffffffffffffffffffff\n      and\n      0x150b7a02\n        /* \"IERC721.sol\":3159:3169  msg.sender */\n      caller\n        /* \"IERC721.sol\":3191:3195  from */\n      dup9\n        /* \"IERC721.sol\":3217:3224  tokenId */\n      dup8\n        /* \"IERC721.sol\":3246:3250  data */\n      dup8\n      dup8\n        /* \"IERC721.sol\":3101:3268  IERC721Receiver(to).onERC721Received(... */\n      mload(0x40)\n      dup7\n      0xffffffff\n      and\n      0xe0\n      shl\n      dup2\n      mstore\n      0x04\n      add\n      tag_110\n      swap6\n      swap5\n      swap4\n      swap3\n      swap2\n      swap1\n      tag_111\n      jump\t// in\n    tag_110:\n      0x20\n      mload(0x40)\n      dup1\n      dup4\n      sub\n      dup2\n      0x00\n      dup8\n      gas\n      call\n      iszero\n      dup1\n      iszero\n      tag_113\n      jumpi\n      returndatasize\n      0x00\n      dup1\n      returndatacopy\n      revert(0x00, returndatasize)\n    tag_113:\n      pop\n      pop\n      pop\n      pop\n      mload(0x40)\n      returndatasize\n      not(0x1f)\n      0x1f\n      dup3\n      add\n      and\n      dup3\n      add\n      dup1\n      0x40\n      mstore\n      pop\n      dup2\n      add\n      swap1\n      tag_114\n      swap2\n      swap1\n      tag_92\n      jump\t// in\n    tag_114:\n        /* \"IERC721.sol\":3101:3329  IERC721Receiver(to).onERC721Received(... */\n      not(0xffffffffffffffffffffffffffffffffffffffffffffffffffffffff)\n      and\n      eq\n        /* \"IERC721.sol\":3062:3329  to.code.length == 0 ||... */\n    tag_109:\n        /* \"IERC721.sol\":3041:3369  require(... */\n      tag_115\n      jumpi\n      mload(0x40)\n      0x08c379a000000000000000000000000000000000000000000000000000000000\n      dup2\n      mstore\n      0x04\n      add\n      tag_116\n      swap1\n      tag_95\n      jump\t// in\n    tag_116:\n      mload(0x40)\n      dup1\n      swap2\n      sub\n      swap1\n      revert\n    tag_115:\n        /* \"IERC721.sol\":2853:3376  function safeTransferFrom(... */\n      pop\n      pop\n      pop\n      pop\n      pop\n      jump\t// out\n        /* \"IERC721.sol\":1706:1774  mapping(address => mapping(address => bool)) public isApprovedForAll */\n    tag_58:\n      mstore(0x20, 0x03)\n      dup2\n      0x00\n      mstore\n      mstore(0x20, keccak256(0x00, 0x40))\n      dup1\n      0x00\n      mstore\n      keccak256(0x00, 0x40)\n      0x00\n      swap2\n      pop\n      swap2\n      pop\n      swap1\n      sload\n      swap1\n      0x0100\n      exp\n      swap1\n      div\n      0xff\n      and\n      dup2\n      jump\t// out\n        /* \"IERC721.sol\":4433:4705  function _isApprovedOrOwner(... */\n    tag_77:\n        /* \"IERC721.sol\":4563:4567  bool */\n      0x00\n        /* \"IERC721.sol\":4598:4603  owner */\n      dup4\n        /* \"IERC721.sol\":4587:4603  spender == owner */\n      0xffffffffffffffffffffffffffffffffffffffff\n      and\n        /* \"IERC721.sol\":4587:4594  spender */\n      dup4\n        /* \"IERC721.sol\":4587:4603  spender == owner */\n      0xffffffffffffffffffffffffffffffffffffffff\n      and\n      eq\n        /* \"IERC721.sol\":4587:4651  spender == owner ||... */\n      dup1\n      tag_118\n      jumpi\n      pop\n        /* \"IERC721.sol\":4619:4635  isApprovedForAll */\n      0x03\n        /* \"IERC721.sol\":4619:4642  isApprovedForAll[owner] */\n      0x00\n        /* \"IERC721.sol\":4636:4641  owner */\n      dup6\n        /* \"IERC721.sol\":4619:4642  isApprovedForAll[owner] */\n      0xffffffffffffffffffffffffffffffffffffffff\n      and\n      0xffffffffffffffffffffffffffffffffffffffff\n      and\n      dup2\n      mstore\n      0x20\n      add\n      swap1\n      dup2\n      mstore\n      0x20\n      add\n      0x00\n      keccak256\n        /* \"IERC721.sol\":4619:4651  isApprovedForAll[owner][spender] */\n      0x00\n        /* \"IERC721.sol\":4643:4650  spender */\n      dup5\n        /* \"IERC721.sol\":4619:4651  isApprovedForAll[owner][spender] */\n      0xffffffffffffffffffffffffffffffffffffffff\n      and\n      0xffffffffffffffffffffffffffffffffffffffff\n      and\n      dup2\n      mstore\n      0x20\n      add\n      swap1\n      dup2\n      mstore\n      0x20\n      add\n      0x00\n      keccak256\n      0x00\n      swap1\n      sload\n      swap1\n      0x0100\n      exp\n      swap1\n      div\n      0xff\n      and\n        /* \"IERC721.sol\":4587:4651  spender == owner ||... */\n    tag_118:\n        /* \"IERC721.sol\":4587:4697  spender == owner ||... */\n      dup1\n      tag_119\n      jumpi\n      pop\n        /* \"IERC721.sol\":4678:4688  _approvals */\n      0x02\n        /* \"IERC721.sol\":4678:4697  _approvals[tokenId] */\n      0x00\n        /* \"IERC721.sol\":4689:4696  tokenId */\n      dup4\n        /* \"IERC721.sol\":4678:4697  _approvals[tokenId] */\n      dup2\n      mstore\n      0x20\n      add\n      swap1\n      dup2\n      mstore\n      0x20\n      add\n      0x00\n      keccak256\n      0x00\n      swap1\n      sload\n      swap1\n      0x0100\n      exp\n      swap1\n      div\n      0xffffffffffffffffffffffffffffffffffffffff\n      and\n        /* \"IERC721.sol\":4667:4697  spender == _approvals[tokenId] */\n      0xffffffffffffffffffffffffffffffffffffffff\n      and\n        /* \"IERC721.sol\":4667:4674  spender */\n      dup4\n        /* \"IERC721.sol\":4667:4697  spender == _approvals[tokenId] */\n      0xffffffffffffffffffffffffffffffffffffffff\n      and\n      eq\n        /* \"IERC721.sol\":4587:4697  spender == owner ||... */\n    tag_119:\n        /* \"IERC721.sol\":4579:4698  return (spender == owner ||... */\n      swap1\n      pop\n        /* \"IERC721.sol\":4433:4705  function _isApprovedOrOwner(... */\n      swap4\n      swap3\n      pop\n      pop\n      pop\n      jump\t// out\n        /* \"#utility.yul\":88:205   */\n    tag_121:\n        /* \"#utility.yul\":197:198   */\n      0x00\n        /* \"#utility.yul\":194:195   */\n      dup1\n        /* \"#utility.yul\":187:199   */\n      revert\n        /* \"#utility.yul\":211:328   */\n    tag_122:\n        /* \"#utility.yul\":320:321   */\n      0x00\n        /* \"#utility.yul\":317:318   */\n      dup1\n        /* \"#utility.yul\":310:322   */\n      revert\n        /* \"#utility.yul\":334:411   */\n    tag_123:\n        /* \"#utility.yul\":371:378   */\n      0x00\n        /* \"#utility.yul\":400:405   */\n      dup2\n        /* \"#utility.yul\":389:405   */\n      swap1\n      pop\n        /* \"#utility.yul\":334:411   */\n      swap2\n      swap1\n      pop\n      jump\t// out\n        /* \"#utility.yul\":417:539   */\n    tag_124:\n        /* \"#utility.yul\":490:514   */\n      tag_170\n        /* \"#utility.yul\":508:513   */\n      dup2\n        /* \"#utility.yul\":490:514   */\n      tag_123\n      jump\t// in\n    tag_170:\n        /* \"#utility.yul\":483:488   */\n      dup2\n        /* \"#utility.yul\":480:515   */\n      eq\n        /* \"#utility.yul\":470:533   */\n      tag_171\n      jumpi\n        /* \"#utility.yul\":529:530   */\n      0x00\n        /* \"#utility.yul\":526:527   */\n      dup1\n        /* \"#utility.yul\":519:531   */\n      revert\n        /* \"#utility.yul\":470:533   */\n    tag_171:\n        /* \"#utility.yul\":417:539   */\n      pop\n      jump\t// out\n        /* \"#utility.yul\":545:684   */\n    tag_125:\n        /* \"#utility.yul\":591:596   */\n      0x00\n        /* \"#utility.yul\":629:635   */\n      dup2\n        /* \"#utility.yul\":616:636   */\n      calldataload\n        /* \"#utility.yul\":607:636   */\n      swap1\n      pop\n        /* \"#utility.yul\":645:678   */\n      tag_173\n        /* \"#utility.yul\":672:677   */\n      dup2\n        /* \"#utility.yul\":645:678   */\n      tag_124\n      jump\t// in\n    tag_173:\n        /* \"#utility.yul\":545:684   */\n      swap3\n      swap2\n      pop\n      pop\n      jump\t// out\n        /* \"#utility.yul\":690:1019   */\n    tag_16:\n        /* \"#utility.yul\":749:755   */\n      0x00\n        /* \"#utility.yul\":798:800   */\n      0x20\n        /* \"#utility.yul\":786:795   */\n      dup3\n        /* \"#utility.yul\":777:784   */\n      dup5\n        /* \"#utility.yul\":773:796   */\n      sub\n        /* \"#utility.yul\":769:801   */\n      slt\n        /* \"#utility.yul\":766:885   */\n      iszero\n      tag_175\n      jumpi\n        /* \"#utility.yul\":804:883   */\n      tag_176\n      tag_121\n      jump\t// in\n    tag_176:\n        /* \"#utility.yul\":766:885   */\n    tag_175:\n        /* \"#utility.yul\":924:925   */\n      0x00\n        /* \"#utility.yul\":949:1002   */\n      tag_177\n        /* \"#utility.yul\":994:1001   */\n      dup5\n        /* \"#utility.yul\":985:991   */\n      dup3\n        /* \"#utility.yul\":974:983   */\n      dup6\n        /* \"#utility.yul\":970:992   */\n      add\n        /* \"#utility.yul\":949:1002   */\n      tag_125\n      jump\t// in\n    tag_177:\n        /* \"#utility.yul\":939:1002   */\n      swap2\n      pop\n        /* \"#utility.yul\":895:1012   */\n      pop\n        /* \"#utility.yul\":690:1019   */\n      swap3\n      swap2\n      pop\n      pop\n      jump\t// out\n        /* \"#utility.yul\":1025:1151   */\n    tag_126:\n        /* \"#utility.yul\":1062:1069   */\n      0x00\n        /* \"#utility.yul\":1102:1144   */\n      0xffffffffffffffffffffffffffffffffffffffff\n        /* \"#utility.yul\":1095:1100   */\n      dup3\n        /* \"#utility.yul\":1091:1145   */\n      and\n        /* \"#utility.yul\":1080:1145   */\n      swap1\n      pop\n        /* \"#utility.yul\":1025:1151   */\n      swap2\n      swap1\n      pop\n      jump\t// out\n        /* \"#utility.yul\":1157:1253   */\n    tag_127:\n        /* \"#utility.yul\":1194:1201   */\n      0x00\n        /* \"#utility.yul\":1223:1247   */\n      tag_180\n        /* \"#utility.yul\":1241:1246   */\n      dup3\n        /* \"#utility.yul\":1223:1247   */\n      tag_126\n      jump\t// in\n    tag_180:\n        /* \"#utility.yul\":1212:1247   */\n      swap1\n      pop\n        /* \"#utility.yul\":1157:1253   */\n      swap2\n      swap1\n      pop\n      jump\t// out\n        /* \"#utility.yul\":1259:1377   */\n    tag_128:\n        /* \"#utility.yul\":1346:1370   */\n      tag_182\n        /* \"#utility.yul\":1364:1369   */\n      dup2\n        /* \"#utility.yul\":1346:1370   */\n      tag_127\n      jump\t// in\n    tag_182:\n        /* \"#utility.yul\":1341:1344   */\n      dup3\n        /* \"#utility.yul\":1334:1371   */\n      mstore\n        /* \"#utility.yul\":1259:1377   */\n      pop\n      pop\n      jump\t// out\n        /* \"#utility.yul\":1383:1605   */\n    tag_19:\n        /* \"#utility.yul\":1476:1480   */\n      0x00\n        /* \"#utility.yul\":1514:1516   */\n      0x20\n        /* \"#utility.yul\":1503:1512   */\n      dup3\n        /* \"#utility.yul\":1499:1517   */\n      add\n        /* \"#utility.yul\":1491:1517   */\n      swap1\n      pop\n        /* \"#utility.yul\":1527:1598   */\n      tag_184\n        /* \"#utility.yul\":1595:1596   */\n      0x00\n        /* \"#utility.yul\":1584:1593   */\n      dup4\n        /* \"#utility.yul\":1580:1597   */\n      add\n        /* \"#utility.yul\":1571:1577   */\n      dup5\n        /* \"#utility.yul\":1527:1598   */\n      tag_128\n      jump\t// in\n    tag_184:\n        /* \"#utility.yul\":1383:1605   */\n      swap3\n      swap2\n      pop\n      pop\n      jump\t// out\n        /* \"#utility.yul\":1611:1733   */\n    tag_129:\n        /* \"#utility.yul\":1684:1708   */\n      tag_186\n        /* \"#utility.yul\":1702:1707   */\n      dup2\n        /* \"#utility.yul\":1684:1708   */\n      tag_127\n      jump\t// in\n    tag_186:\n        /* \"#utility.yul\":1677:1682   */\n      dup2\n        /* \"#utility.yul\":1674:1709   */\n      eq\n        /* \"#utility.yul\":1664:1727   */\n      tag_187\n      jumpi\n        /* \"#utility.yul\":1723:1724   */\n      0x00\n        /* \"#utility.yul\":1720:1721   */\n      dup1\n        /* \"#utility.yul\":1713:1725   */\n      revert\n        /* \"#utility.yul\":1664:1727   */\n    tag_187:\n        /* \"#utility.yul\":1611:1733   */\n      pop\n      jump\t// out\n        /* \"#utility.yul\":1739:1878   */\n    tag_130:\n        /* \"#utility.yul\":1785:1790   */\n      0x00\n        /* \"#utility.yul\":1823:1829   */\n      dup2\n        /* \"#utility.yul\":1810:1830   */\n      calldataload\n        /* \"#utility.yul\":1801:1830   */\n      swap1\n      pop\n        /* \"#utility.yul\":1839:1872   */\n      tag_189\n        /* \"#utility.yul\":1866:1871   */\n      dup2\n        /* \"#utility.yul\":1839:1872   */\n      tag_129\n      jump\t// in\n    tag_189:\n        /* \"#utility.yul\":1739:1878   */\n      swap3\n      swap2\n      pop\n      pop\n      jump\t// out\n        /* \"#utility.yul\":1884:2358   */\n    tag_22:\n        /* \"#utility.yul\":1952:1958   */\n      0x00\n        /* \"#utility.yul\":1960:1966   */\n      dup1\n        /* \"#utility.yul\":2009:2011   */\n      0x40\n        /* \"#utility.yul\":1997:2006   */\n      dup4\n        /* \"#utility.yul\":1988:1995   */\n      dup6\n        /* \"#utility.yul\":1984:2007   */\n      sub\n        /* \"#utility.yul\":1980:2012   */\n      slt\n        /* \"#utility.yul\":1977:2096   */\n      iszero\n      tag_191\n      jumpi\n        /* \"#utility.yul\":2015:2094   */\n      tag_192\n      tag_121\n      jump\t// in\n    tag_192:\n        /* \"#utility.yul\":1977:2096   */\n    tag_191:\n        /* \"#utility.yul\":2135:2136   */\n      0x00\n        /* \"#utility.yul\":2160:2213   */\n      tag_193\n        /* \"#utility.yul\":2205:2212   */\n      dup6\n        /* \"#utility.yul\":2196:2202   */\n      dup3\n        /* \"#utility.yul\":2185:2194   */\n      dup7\n        /* \"#utility.yul\":2181:2203   */\n      add\n        /* \"#utility.yul\":2160:2213   */\n      tag_130\n      jump\t// in\n    tag_193:\n        /* \"#utility.yul\":2150:2213   */\n      swap3\n      pop\n        /* \"#utility.yul\":2106:2223   */\n      pop\n        /* \"#utility.yul\":2262:2264   */\n      0x20\n        /* \"#utility.yul\":2288:2341   */\n      tag_194\n        /* \"#utility.yul\":2333:2340   */\n      dup6\n        /* \"#utility.yul\":2324:2330   */\n      dup3\n        /* \"#utility.yul\":2313:2322   */\n      dup7\n        /* \"#utility.yul\":2309:2331   */\n      add\n        /* \"#utility.yul\":2288:2341   */\n      tag_125\n      jump\t// in\n    tag_194:\n        /* \"#utility.yul\":2278:2341   */\n      swap2\n      pop\n        /* \"#utility.yul\":2233:2351   */\n      pop\n        /* \"#utility.yul\":1884:2358   */\n      swap3\n      pop\n      swap3\n      swap1\n      pop\n      jump\t// out\n        /* \"#utility.yul\":2364:2983   */\n    tag_26:\n        /* \"#utility.yul\":2441:2447   */\n      0x00\n        /* \"#utility.yul\":2449:2455   */\n      dup1\n        /* \"#utility.yul\":2457:2463   */\n      0x00\n        /* \"#utility.yul\":2506:2508   */\n      0x60\n        /* \"#utility.yul\":2494:2503   */\n      dup5\n        /* \"#utility.yul\":2485:2492   */\n      dup7\n        /* \"#utility.yul\":2481:2504   */\n      sub\n        /* \"#utility.yul\":2477:2509   */\n      slt\n        /* \"#utility.yul\":2474:2593   */\n      iszero\n      tag_196\n      jumpi\n        /* \"#utility.yul\":2512:2591   */\n      tag_197\n      tag_121\n      jump\t// in\n    tag_197:\n        /* \"#utility.yul\":2474:2593   */\n    tag_196:\n        /* \"#utility.yul\":2632:2633   */\n      0x00\n        /* \"#utility.yul\":2657:2710   */\n      tag_198\n        /* \"#utility.yul\":2702:2709   */\n      dup7\n        /* \"#utility.yul\":2693:2699   */\n      dup3\n        /* \"#utility.yul\":2682:2691   */\n      dup8\n        /* \"#utility.yul\":2678:2700   */\n      add\n        /* \"#utility.yul\":2657:2710   */\n      tag_130\n      jump\t// in\n    tag_198:\n        /* \"#utility.yul\":2647:2710   */\n      swap4\n      pop\n        /* \"#utility.yul\":2603:2720   */\n      pop\n        /* \"#utility.yul\":2759:2761   */\n      0x20\n        /* \"#utility.yul\":2785:2838   */\n      tag_199\n        /* \"#utility.yul\":2830:2837   */\n      dup7\n        /* \"#utility.yul\":2821:2827   */\n      dup3\n        /* \"#utility.yul\":2810:2819   */\n      dup8\n        /* \"#utility.yul\":2806:2828   */\n      add\n        /* \"#utility.yul\":2785:2838   */\n      tag_130\n      jump\t// in\n    tag_199:\n        /* \"#utility.yul\":2775:2838   */\n      swap3\n      pop\n        /* \"#utility.yul\":2730:2848   */\n      pop\n        /* \"#utility.yul\":2887:2889   */\n      0x40\n        /* \"#utility.yul\":2913:2966   */\n      tag_200\n        /* \"#utility.yul\":2958:2965   */\n      dup7\n        /* \"#utility.yul\":2949:2955   */\n      dup3\n        /* \"#utility.yul\":2938:2947   */\n      dup8\n        /* \"#utility.yul\":2934:2956   */\n      add\n        /* \"#utility.yul\":2913:2966   */\n      tag_125\n      jump\t// in\n    tag_200:\n        /* \"#utility.yul\":2903:2966   */\n      swap2\n      pop\n        /* \"#utility.yul\":2858:2976   */\n      pop\n        /* \"#utility.yul\":2364:2983   */\n      swap3\n      pop\n      swap3\n      pop\n      swap3\n      jump\t// out\n        /* \"#utility.yul\":2989:3318   */\n    tag_37:\n        /* \"#utility.yul\":3048:3054   */\n      0x00\n        /* \"#utility.yul\":3097:3099   */\n      0x20\n        /* \"#utility.yul\":3085:3094   */\n      dup3\n        /* \"#utility.yul\":3076:3083   */\n      dup5\n        /* \"#utility.yul\":3072:3095   */\n      sub\n        /* \"#utility.yul\":3068:3100   */\n      slt\n        /* \"#utility.yul\":3065:3184   */\n      iszero\n      tag_202\n      jumpi\n        /* \"#utility.yul\":3103:3182   */\n      tag_203\n      tag_121\n      jump\t// in\n    tag_203:\n        /* \"#utility.yul\":3065:3184   */\n    tag_202:\n        /* \"#utility.yul\":3223:3224   */\n      0x00\n        /* \"#utility.yul\":3248:3301   */\n      tag_204\n        /* \"#utility.yul\":3293:3300   */\n      dup5\n        /* \"#utility.yul\":3284:3290   */\n      dup3\n        /* \"#utility.yul\":3273:3282   */\n      dup6\n        /* \"#utility.yul\":3269:3291   */\n      add\n        /* \"#utility.yul\":3248:3301   */\n      tag_130\n      jump\t// in\n    tag_204:\n        /* \"#utility.yul\":3238:3301   */\n      swap2\n      pop\n        /* \"#utility.yul\":3194:3311   */\n      pop\n        /* \"#utility.yul\":2989:3318   */\n      swap3\n      swap2\n      pop\n      pop\n      jump\t// out\n        /* \"#utility.yul\":3324:3442   */\n    tag_131:\n        /* \"#utility.yul\":3411:3435   */\n      tag_206\n        /* \"#utility.yul\":3429:3434   */\n      dup2\n        /* \"#utility.yul\":3411:3435   */\n      tag_123\n      jump\t// in\n    tag_206:\n        /* \"#utility.yul\":3406:3409   */\n      dup3\n        /* \"#utility.yul\":3399:3436   */\n      mstore\n        /* \"#utility.yul\":3324:3442   */\n      pop\n      pop\n      jump\t// out\n        /* \"#utility.yul\":3448:3670   */\n    tag_40:\n        /* \"#utility.yul\":3541:3545   */\n      0x00\n        /* \"#utility.yul\":3579:3581   */\n      0x20\n        /* \"#utility.yul\":3568:3577   */\n      dup3\n        /* \"#utility.yul\":3564:3582   */\n      add\n        /* \"#utility.yul\":3556:3582   */\n      swap1\n      pop\n        /* \"#utility.yul\":3592:3663   */\n      tag_208\n        /* \"#utility.yul\":3660:3661   */\n      0x00\n        /* \"#utility.yul\":3649:3658   */\n      dup4\n        /* \"#utility.yul\":3645:3662   */\n      add\n        /* \"#utility.yul\":3636:3642   */\n      dup5\n        /* \"#utility.yul\":3592:3663   */\n      tag_131\n      jump\t// in\n    tag_208:\n        /* \"#utility.yul\":3448:3670   */\n      swap3\n      swap2\n      pop\n      pop\n      jump\t// out\n        /* \"#utility.yul\":3676:3825   */\n    tag_132:\n        /* \"#utility.yul\":3712:3719   */\n      0x00\n        /* \"#utility.yul\":3752:3818   */\n      0xffffffff00000000000000000000000000000000000000000000000000000000\n        /* \"#utility.yul\":3745:3750   */\n      dup3\n        /* \"#utility.yul\":3741:3819   */\n      and\n        /* \"#utility.yul\":3730:3819   */\n      swap1\n      pop\n        /* \"#utility.yul\":3676:3825   */\n      swap2\n      swap1\n      pop\n      jump\t// out\n        /* \"#utility.yul\":3831:3951   */\n    tag_133:\n        /* \"#utility.yul\":3903:3926   */\n      tag_211\n        /* \"#utility.yul\":3920:3925   */\n      dup2\n        /* \"#utility.yul\":3903:3926   */\n      tag_132\n      jump\t// in\n    tag_211:\n        /* \"#utility.yul\":3896:3901   */\n      dup2\n        /* \"#utility.yul\":3893:3927   */\n      eq\n        /* \"#utility.yul\":3883:3945   */\n      tag_212\n      jumpi\n        /* \"#utility.yul\":3941:3942   */\n      0x00\n        /* \"#utility.yul\":3938:3939   */\n      dup1\n        /* \"#utility.yul\":3931:3943   */\n      revert\n        /* \"#utility.yul\":3883:3945   */\n    tag_212:\n        /* \"#utility.yul\":3831:3951   */\n      pop\n      jump\t// out\n        /* \"#utility.yul\":3957:4094   */\n    tag_134:\n        /* \"#utility.yul\":4002:4007   */\n      0x00\n        /* \"#utility.yul\":4040:4046   */\n      dup2\n        /* \"#utility.yul\":4027:4047   */\n      calldataload\n        /* \"#utility.yul\":4018:4047   */\n      swap1\n      pop\n        /* \"#utility.yul\":4056:4088   */\n      tag_214\n        /* \"#utility.yul\":4082:4087   */\n      dup2\n        /* \"#utility.yul\":4056:4088   */\n      tag_133\n      jump\t// in\n    tag_214:\n        /* \"#utility.yul\":3957:4094   */\n      swap3\n      swap2\n      pop\n      pop\n      jump\t// out\n        /* \"#utility.yul\":4100:4427   */\n    tag_43:\n        /* \"#utility.yul\":4158:4164   */\n      0x00\n        /* \"#utility.yul\":4207:4209   */\n      0x20\n        /* \"#utility.yul\":4195:4204   */\n      dup3\n        /* \"#utility.yul\":4186:4193   */\n      dup5\n        /* \"#utility.yul\":4182:4205   */\n      sub\n        /* \"#utility.yul\":4178:4210   */\n      slt\n        /* \"#utility.yul\":4175:4294   */\n      iszero\n      tag_216\n      jumpi\n        /* \"#utility.yul\":4213:4292   */\n      tag_217\n      tag_121\n      jump\t// in\n    tag_217:\n        /* \"#utility.yul\":4175:4294   */\n    tag_216:\n        /* \"#utility.yul\":4333:4334   */\n      0x00\n        /* \"#utility.yul\":4358:4410   */\n      tag_218\n        /* \"#utility.yul\":4402:4409   */\n      dup5\n        /* \"#utility.yul\":4393:4399   */\n      dup3\n        /* \"#utility.yul\":4382:4391   */\n      dup6\n        /* \"#utility.yul\":4378:4400   */\n      add\n        /* \"#utility.yul\":4358:4410   */\n      tag_134\n      jump\t// in\n    tag_218:\n        /* \"#utility.yul\":4348:4410   */\n      swap2\n      pop\n        /* \"#utility.yul\":4304:4420   */\n      pop\n        /* \"#utility.yul\":4100:4427   */\n      swap3\n      swap2\n      pop\n      pop\n      jump\t// out\n        /* \"#utility.yul\":4433:4523   */\n    tag_135:\n        /* \"#utility.yul\":4467:4474   */\n      0x00\n        /* \"#utility.yul\":4510:4515   */\n      dup2\n        /* \"#utility.yul\":4503:4516   */\n      iszero\n        /* \"#utility.yul\":4496:4517   */\n      iszero\n        /* \"#utility.yul\":4485:4517   */\n      swap1\n      pop\n        /* \"#utility.yul\":4433:4523   */\n      swap2\n      swap1\n      pop\n      jump\t// out\n        /* \"#utility.yul\":4529:4638   */\n    tag_136:\n        /* \"#utility.yul\":4610:4631   */\n      tag_221\n        /* \"#utility.yul\":4625:4630   */\n      dup2\n        /* \"#utility.yul\":4610:4631   */\n      tag_135\n      jump\t// in\n    tag_221:\n        /* \"#utility.yul\":4605:4608   */\n      dup3\n        /* \"#utility.yul\":4598:4632   */\n      mstore\n        /* \"#utility.yul\":4529:4638   */\n      pop\n      pop\n      jump\t// out\n        /* \"#utility.yul\":4644:4854   */\n    tag_46:\n        /* \"#utility.yul\":4731:4735   */\n      0x00\n        /* \"#utility.yul\":4769:4771   */\n      0x20\n        /* \"#utility.yul\":4758:4767   */\n      dup3\n        /* \"#utility.yul\":4754:4772   */\n      add\n        /* \"#utility.yul\":4746:4772   */\n      swap1\n      pop\n        /* \"#utility.yul\":4782:4847   */\n      tag_223\n        /* \"#utility.yul\":4844:4845   */\n      0x00\n        /* \"#utility.yul\":4833:4842   */\n      dup4\n        /* \"#utility.yul\":4829:4846   */\n      add\n        /* \"#utility.yul\":4820:4826   */\n      dup5\n        /* \"#utility.yul\":4782:4847   */\n      tag_136\n      jump\t// in\n    tag_223:\n        /* \"#utility.yul\":4644:4854   */\n      swap3\n      swap2\n      pop\n      pop\n      jump\t// out\n        /* \"#utility.yul\":4860:4976   */\n    tag_137:\n        /* \"#utility.yul\":4930:4951   */\n      tag_225\n        /* \"#utility.yul\":4945:4950   */\n      dup2\n        /* \"#utility.yul\":4930:4951   */\n      tag_135\n      jump\t// in\n    tag_225:\n        /* \"#utility.yul\":4923:4928   */\n      dup2\n        /* \"#utility.yul\":4920:4952   */\n      eq\n        /* \"#utility.yul\":4910:4970   */\n      tag_226\n      jumpi\n        /* \"#utility.yul\":4966:4967   */\n      0x00\n        /* \"#utility.yul\":4963:4964   */\n      dup1\n        /* \"#utility.yul\":4956:4968   */\n      revert\n        /* \"#utility.yul\":4910:4970   */\n    tag_226:\n        /* \"#utility.yul\":4860:4976   */\n      pop\n      jump\t// out\n        /* \"#utility.yul\":4982:5115   */\n    tag_138:\n        /* \"#utility.yul\":5025:5030   */\n      0x00\n        /* \"#utility.yul\":5063:5069   */\n      dup2\n        /* \"#utility.yul\":5050:5070   */\n      calldataload\n        /* \"#utility.yul\":5041:5070   */\n      swap1\n      pop\n        /* \"#utility.yul\":5079:5109   */\n      tag_228\n        /* \"#utility.yul\":5103:5108   */\n      dup2\n        /* \"#utility.yul\":5079:5109   */\n      tag_137\n      jump\t// in\n    tag_228:\n        /* \"#utility.yul\":4982:5115   */\n      swap3\n      swap2\n      pop\n      pop\n      jump\t// out\n        /* \"#utility.yul\":5121:5589   */\n    tag_49:\n        /* \"#utility.yul\":5186:5192   */\n      0x00\n        /* \"#utility.yul\":5194:5200   */\n      dup1\n        /* \"#utility.yul\":5243:5245   */\n      0x40\n        /* \"#utility.yul\":5231:5240   */\n      dup4\n        /* \"#utility.yul\":5222:5229   */\n      dup6\n        /* \"#utility.yul\":5218:5241   */\n      sub\n        /* \"#utility.yul\":5214:5246   */\n      slt\n        /* \"#utility.yul\":5211:5330   */\n      iszero\n      tag_230\n      jumpi\n        /* \"#utility.yul\":5249:5328   */\n      tag_231\n      tag_121\n      jump\t// in\n    tag_231:\n        /* \"#utility.yul\":5211:5330   */\n    tag_230:\n        /* \"#utility.yul\":5369:5370   */\n      0x00\n        /* \"#utility.yul\":5394:5447   */\n      tag_232\n        /* \"#utility.yul\":5439:5446   */\n      dup6\n        /* \"#utility.yul\":5430:5436   */\n      dup3\n        /* \"#utility.yul\":5419:5428   */\n      dup7\n        /* \"#utility.yul\":5415:5437   */\n      add\n        /* \"#utility.yul\":5394:5447   */\n      tag_130\n      jump\t// in\n    tag_232:\n        /* \"#utility.yul\":5384:5447   */\n      swap3\n      pop\n        /* \"#utility.yul\":5340:5457   */\n      pop\n        /* \"#utility.yul\":5496:5498   */\n      0x20\n        /* \"#utility.yul\":5522:5572   */\n      tag_233\n        /* \"#utility.yul\":5564:5571   */\n      dup6\n        /* \"#utility.yul\":5555:5561   */\n      dup3\n        /* \"#utility.yul\":5544:5553   */\n      dup7\n        /* \"#utility.yul\":5540:5562   */\n      add\n        /* \"#utility.yul\":5522:5572   */\n      tag_138\n      jump\t// in\n    tag_233:\n        /* \"#utility.yul\":5512:5572   */\n      swap2\n      pop\n        /* \"#utility.yul\":5467:5582   */\n      pop\n        /* \"#utility.yul\":5121:5589   */\n      swap3\n      pop\n      swap3\n      swap1\n      pop\n      jump\t// out\n        /* \"#utility.yul\":5595:5712   */\n    tag_139:\n        /* \"#utility.yul\":5704:5705   */\n      0x00\n        /* \"#utility.yul\":5701:5702   */\n      dup1\n        /* \"#utility.yul\":5694:5706   */\n      revert\n        /* \"#utility.yul\":5718:5835   */\n    tag_140:\n        /* \"#utility.yul\":5827:5828   */\n      0x00\n        /* \"#utility.yul\":5824:5825   */\n      dup1\n        /* \"#utility.yul\":5817:5829   */\n      revert\n        /* \"#utility.yul\":5841:5958   */\n    tag_141:\n        /* \"#utility.yul\":5950:5951   */\n      0x00\n        /* \"#utility.yul\":5947:5948   */\n      dup1\n        /* \"#utility.yul\":5940:5952   */\n      revert\n        /* \"#utility.yul\":5977:6529   */\n    tag_142:\n        /* \"#utility.yul\":6034:6042   */\n      0x00\n        /* \"#utility.yul\":6044:6050   */\n      dup1\n        /* \"#utility.yul\":6094:6097   */\n      dup4\n        /* \"#utility.yul\":6087:6091   */\n      0x1f\n        /* \"#utility.yul\":6079:6085   */\n      dup5\n        /* \"#utility.yul\":6075:6092   */\n      add\n        /* \"#utility.yul\":6071:6098   */\n      slt\n        /* \"#utility.yul\":6061:6183   */\n      tag_238\n      jumpi\n        /* \"#utility.yul\":6102:6181   */\n      tag_239\n      tag_139\n      jump\t// in\n    tag_239:\n        /* \"#utility.yul\":6061:6183   */\n    tag_238:\n        /* \"#utility.yul\":6215:6221   */\n      dup3\n        /* \"#utility.yul\":6202:6222   */\n      calldataload\n        /* \"#utility.yul\":6192:6222   */\n      swap1\n      pop\n        /* \"#utility.yul\":6245:6263   */\n      0xffffffffffffffff\n        /* \"#utility.yul\":6237:6243   */\n      dup2\n        /* \"#utility.yul\":6234:6264   */\n      gt\n        /* \"#utility.yul\":6231:6348   */\n      iszero\n      tag_240\n      jumpi\n        /* \"#utility.yul\":6267:6346   */\n      tag_241\n      tag_140\n      jump\t// in\n    tag_241:\n        /* \"#utility.yul\":6231:6348   */\n    tag_240:\n        /* \"#utility.yul\":6381:6385   */\n      0x20\n        /* \"#utility.yul\":6373:6379   */\n      dup4\n        /* \"#utility.yul\":6369:6386   */\n      add\n        /* \"#utility.yul\":6357:6386   */\n      swap2\n      pop\n        /* \"#utility.yul\":6435:6438   */\n      dup4\n        /* \"#utility.yul\":6427:6431   */\n      0x01\n        /* \"#utility.yul\":6419:6425   */\n      dup3\n        /* \"#utility.yul\":6415:6432   */\n      mul\n        /* \"#utility.yul\":6405:6413   */\n      dup4\n        /* \"#utility.yul\":6401:6433   */\n      add\n        /* \"#utility.yul\":6398:6439   */\n      gt\n        /* \"#utility.yul\":6395:6523   */\n      iszero\n      tag_242\n      jumpi\n        /* \"#utility.yul\":6442:6521   */\n      tag_243\n      tag_141\n      jump\t// in\n    tag_243:\n        /* \"#utility.yul\":6395:6523   */\n    tag_242:\n        /* \"#utility.yul\":5977:6529   */\n      swap3\n      pop\n      swap3\n      swap1\n      pop\n      jump\t// out\n        /* \"#utility.yul\":6535:7498   */\n    tag_53:\n        /* \"#utility.yul\":6632:6638   */\n      0x00\n        /* \"#utility.yul\":6640:6646   */\n      dup1\n        /* \"#utility.yul\":6648:6654   */\n      0x00\n        /* \"#utility.yul\":6656:6662   */\n      dup1\n        /* \"#utility.yul\":6664:6670   */\n      0x00\n        /* \"#utility.yul\":6713:6716   */\n      0x80\n        /* \"#utility.yul\":6701:6710   */\n      dup7\n        /* \"#utility.yul\":6692:6699   */\n      dup9\n        /* \"#utility.yul\":6688:6711   */\n      sub\n        /* \"#utility.yul\":6684:6717   */\n      slt\n        /* \"#utility.yul\":6681:6801   */\n      iszero\n      tag_245\n      jumpi\n        /* \"#utility.yul\":6720:6799   */\n      tag_246\n      tag_121\n      jump\t// in\n    tag_246:\n        /* \"#utility.yul\":6681:6801   */\n    tag_245:\n        /* \"#utility.yul\":6840:6841   */\n      0x00\n        /* \"#utility.yul\":6865:6918   */\n      tag_247\n        /* \"#utility.yul\":6910:6917   */\n      dup9\n        /* \"#utility.yul\":6901:6907   */\n      dup3\n        /* \"#utility.yul\":6890:6899   */\n      dup10\n        /* \"#utility.yul\":6886:6908   */\n      add\n        /* \"#utility.yul\":6865:6918   */\n      tag_130\n      jump\t// in\n    tag_247:\n        /* \"#utility.yul\":6855:6918   */\n      swap6\n      pop\n        /* \"#utility.yul\":6811:6928   */\n      pop\n        /* \"#utility.yul\":6967:6969   */\n      0x20\n        /* \"#utility.yul\":6993:7046   */\n      tag_248\n        /* \"#utility.yul\":7038:7045   */\n      dup9\n        /* \"#utility.yul\":7029:7035   */\n      dup3\n        /* \"#utility.yul\":7018:7027   */\n      dup10\n        /* \"#utility.yul\":7014:7036   */\n      add\n        /* \"#utility.yul\":6993:7046   */\n      tag_130\n      jump\t// in\n    tag_248:\n        /* \"#utility.yul\":6983:7046   */\n      swap5\n      pop\n        /* \"#utility.yul\":6938:7056   */\n      pop\n        /* \"#utility.yul\":7095:7097   */\n      0x40\n        /* \"#utility.yul\":7121:7174   */\n      tag_249\n        /* \"#utility.yul\":7166:7173   */\n      dup9\n        /* \"#utility.yul\":7157:7163   */\n      dup3\n        /* \"#utility.yul\":7146:7155   */\n      dup10\n        /* \"#utility.yul\":7142:7164   */\n      add\n        /* \"#utility.yul\":7121:7174   */\n      tag_125\n      jump\t// in\n    tag_249:\n        /* \"#utility.yul\":7111:7174   */\n      swap4\n      pop\n        /* \"#utility.yul\":7066:7184   */\n      pop\n        /* \"#utility.yul\":7251:7253   */\n      0x60\n        /* \"#utility.yul\":7240:7249   */\n      dup7\n        /* \"#utility.yul\":7236:7254   */\n      add\n        /* \"#utility.yul\":7223:7255   */\n      calldataload\n        /* \"#utility.yul\":7282:7300   */\n      0xffffffffffffffff\n        /* \"#utility.yul\":7274:7280   */\n      dup2\n        /* \"#utility.yul\":7271:7301   */\n      gt\n        /* \"#utility.yul\":7268:7385   */\n      iszero\n      tag_250\n      jumpi\n        /* \"#utility.yul\":7304:7383   */\n      tag_251\n      tag_122\n      jump\t// in\n    tag_251:\n        /* \"#utility.yul\":7268:7385   */\n    tag_250:\n        /* \"#utility.yul\":7417:7481   */\n      tag_252\n        /* \"#utility.yul\":7473:7480   */\n      dup9\n        /* \"#utility.yul\":7464:7470   */\n      dup3\n        /* \"#utility.yul\":7453:7462   */\n      dup10\n        /* \"#utility.yul\":7449:7471   */\n      add\n        /* \"#utility.yul\":7417:7481   */\n      tag_142\n      jump\t// in\n    tag_252:\n        /* \"#utility.yul\":7399:7481   */\n      swap3\n      pop\n      swap3\n      pop\n        /* \"#utility.yul\":7194:7491   */\n      pop\n        /* \"#utility.yul\":6535:7498   */\n      swap3\n      swap6\n      pop\n      swap3\n      swap6\n      swap1\n      swap4\n      pop\n      jump\t// out\n        /* \"#utility.yul\":7504:7978   */\n    tag_57:\n        /* \"#utility.yul\":7572:7578   */\n      0x00\n        /* \"#utility.yul\":7580:7586   */\n      dup1\n        /* \"#utility.yul\":7629:7631   */\n      0x40\n        /* \"#utility.yul\":7617:7626   */\n      dup4\n        /* \"#utility.yul\":7608:7615   */\n      dup6\n        /* \"#utility.yul\":7604:7627   */\n      sub\n        /* \"#utility.yul\":7600:7632   */\n      slt\n        /* \"#utility.yul\":7597:7716   */\n      iszero\n      tag_254\n      jumpi\n        /* \"#utility.yul\":7635:7714   */\n      tag_255\n      tag_121\n      jump\t// in\n    tag_255:\n        /* \"#utility.yul\":7597:7716   */\n    tag_254:\n        /* \"#utility.yul\":7755:7756   */\n      0x00\n        /* \"#utility.yul\":7780:7833   */\n      tag_256\n        /* \"#utility.yul\":7825:7832   */\n      dup6\n        /* \"#utility.yul\":7816:7822   */\n      dup3\n        /* \"#utility.yul\":7805:7814   */\n      dup7\n        /* \"#utility.yul\":7801:7823   */\n      add\n        /* \"#utility.yul\":7780:7833   */\n      tag_130\n      jump\t// in\n    tag_256:\n        /* \"#utility.yul\":7770:7833   */\n      swap3\n      pop\n        /* \"#utility.yul\":7726:7843   */\n      pop\n        /* \"#utility.yul\":7882:7884   */\n      0x20\n        /* \"#utility.yul\":7908:7961   */\n      tag_257\n        /* \"#utility.yul\":7953:7960   */\n      dup6\n        /* \"#utility.yul\":7944:7950   */\n      dup3\n        /* \"#utility.yul\":7933:7942   */\n      dup7\n        /* \"#utility.yul\":7929:7951   */\n      add\n        /* \"#utility.yul\":7908:7961   */\n      tag_130\n      jump\t// in\n    tag_257:\n        /* \"#utility.yul\":7898:7961   */\n      swap2\n      pop\n        /* \"#utility.yul\":7853:7971   */\n      pop\n        /* \"#utility.yul\":7504:7978   */\n      swap3\n      pop\n      swap3\n      swap1\n      pop\n      jump\t// out\n        /* \"#utility.yul\":7984:8153   */\n    tag_143:\n        /* \"#utility.yul\":8068:8079   */\n      0x00\n        /* \"#utility.yul\":8102:8108   */\n      dup3\n        /* \"#utility.yul\":8097:8100   */\n      dup3\n        /* \"#utility.yul\":8090:8109   */\n      mstore\n        /* \"#utility.yul\":8142:8146   */\n      0x20\n        /* \"#utility.yul\":8137:8140   */\n      dup3\n        /* \"#utility.yul\":8133:8147   */\n      add\n        /* \"#utility.yul\":8118:8147   */\n      swap1\n      pop\n        /* \"#utility.yul\":7984:8153   */\n      swap3\n      swap2\n      pop\n      pop\n      jump\t// out\n        /* \"#utility.yul\":8159:8329   */\n    tag_144:\n        /* \"#utility.yul\":8299:8321   */\n      0x746f6b656e4964206973206e6f74206578697374000000000000000000000000\n        /* \"#utility.yul\":8295:8296   */\n      0x00\n        /* \"#utility.yul\":8287:8293   */\n      dup3\n        /* \"#utility.yul\":8283:8297   */\n      add\n        /* \"#utility.yul\":8276:8322   */\n      mstore\n        /* \"#utility.yul\":8159:8329   */\n      pop\n      jump\t// out\n        /* \"#utility.yul\":8335:8701   */\n    tag_145:\n        /* \"#utility.yul\":8477:8480   */\n      0x00\n        /* \"#utility.yul\":8498:8565   */\n      tag_261\n        /* \"#utility.yul\":8562:8564   */\n      0x14\n        /* \"#utility.yul\":8557:8560   */\n      dup4\n        /* \"#utility.yul\":8498:8565   */\n      tag_143\n      jump\t// in\n    tag_261:\n        /* \"#utility.yul\":8491:8565   */\n      swap2\n      pop\n        /* \"#utility.yul\":8574:8667   */\n      tag_262\n        /* \"#utility.yul\":8663:8666   */\n      dup3\n        /* \"#utility.yul\":8574:8667   */\n      tag_144\n      jump\t// in\n    tag_262:\n        /* \"#utility.yul\":8692:8694   */\n      0x20\n        /* \"#utility.yul\":8687:8690   */\n      dup3\n        /* \"#utility.yul\":8683:8695   */\n      add\n        /* \"#utility.yul\":8676:8695   */\n      swap1\n      pop\n        /* \"#utility.yul\":8335:8701   */\n      swap2\n      swap1\n      pop\n      jump\t// out\n        /* \"#utility.yul\":8707:9126   */\n    tag_63:\n        /* \"#utility.yul\":8873:8877   */\n      0x00\n        /* \"#utility.yul\":8911:8913   */\n      0x20\n        /* \"#utility.yul\":8900:8909   */\n      dup3\n        /* \"#utility.yul\":8896:8914   */\n      add\n        /* \"#utility.yul\":8888:8914   */\n      swap1\n      pop\n        /* \"#utility.yul\":8960:8969   */\n      dup2\n        /* \"#utility.yul\":8954:8958   */\n      dup2\n        /* \"#utility.yul\":8950:8970   */\n      sub\n        /* \"#utility.yul\":8946:8947   */\n      0x00\n        /* \"#utility.yul\":8935:8944   */\n      dup4\n        /* \"#utility.yul\":8931:8948   */\n      add\n        /* \"#utility.yul\":8924:8971   */\n      mstore\n        /* \"#utility.yul\":8988:9119   */\n      tag_264\n        /* \"#utility.yul\":9114:9118   */\n      dup2\n        /* \"#utility.yul\":8988:9119   */\n      tag_145\n      jump\t// in\n    tag_264:\n        /* \"#utility.yul\":8980:9119   */\n      swap1\n      pop\n        /* \"#utility.yul\":8707:9126   */\n      swap2\n      swap1\n      pop\n      jump\t// out\n        /* \"#utility.yul\":9132:9296   */\n    tag_146:\n        /* \"#utility.yul\":9272:9288   */\n      0x6e6f7420617574686f72697a6564000000000000000000000000000000000000\n        /* \"#utility.yul\":9268:9269   */\n      0x00\n        /* \"#utility.yul\":9260:9266   */\n      dup3\n        /* \"#utility.yul\":9256:9270   */\n      add\n        /* \"#utility.yul\":9249:9289   */\n      mstore\n        /* \"#utility.yul\":9132:9296   */\n      pop\n      jump\t// out\n        /* \"#utility.yul\":9302:9668   */\n    tag_147:\n        /* \"#utility.yul\":9444:9447   */\n      0x00\n        /* \"#utility.yul\":9465:9532   */\n      tag_267\n        /* \"#utility.yul\":9529:9531   */\n      0x0e\n        /* \"#utility.yul\":9524:9527   */\n      dup4\n        /* \"#utility.yul\":9465:9532   */\n      tag_143\n      jump\t// in\n    tag_267:\n        /* \"#utility.yul\":9458:9532   */\n      swap2\n      pop\n        /* \"#utility.yul\":9541:9634   */\n      tag_268\n        /* \"#utility.yul\":9630:9633   */\n      dup3\n        /* \"#utility.yul\":9541:9634   */\n      tag_146\n      jump\t// in\n    tag_268:\n        /* \"#utility.yul\":9659:9661   */\n      0x20\n        /* \"#utility.yul\":9654:9657   */\n      dup3\n        /* \"#utility.yul\":9650:9662   */\n      add\n        /* \"#utility.yul\":9643:9662   */\n      swap1\n      pop\n        /* \"#utility.yul\":9302:9668   */\n      swap2\n      swap1\n      pop\n      jump\t// out\n        /* \"#utility.yul\":9674:10093   */\n    tag_68:\n        /* \"#utility.yul\":9840:9844   */\n      0x00\n        /* \"#utility.yul\":9878:9880   */\n      0x20\n        /* \"#utility.yul\":9867:9876   */\n      dup3\n        /* \"#utility.yul\":9863:9881   */\n      add\n        /* \"#utility.yul\":9855:9881   */\n      swap1\n      pop\n        /* \"#utility.yul\":9927:9936   */\n      dup2\n        /* \"#utility.yul\":9921:9925   */\n      dup2\n        /* \"#utility.yul\":9917:9937   */\n      sub\n        /* \"#utility.yul\":9913:9914   */\n      0x00\n        /* \"#utility.yul\":9902:9911   */\n      dup4\n        /* \"#utility.yul\":9898:9915   */\n      add\n        /* \"#utility.yul\":9891:9938   */\n      mstore\n        /* \"#utility.yul\":9955:10086   */\n      tag_270\n        /* \"#utility.yul\":10081:10085   */\n      dup2\n        /* \"#utility.yul\":9955:10086   */\n      tag_147\n      jump\t// in\n    tag_270:\n        /* \"#utility.yul\":9947:10086   */\n      swap1\n      pop\n        /* \"#utility.yul\":9674:10093   */\n      swap2\n      swap1\n      pop\n      jump\t// out\n        /* \"#utility.yul\":10099:10262   */\n    tag_148:\n        /* \"#utility.yul\":10239:10254   */\n      0x66726f6d20213d206f776e657200000000000000000000000000000000000000\n        /* \"#utility.yul\":10235:10236   */\n      0x00\n        /* \"#utility.yul\":10227:10233   */\n      dup3\n        /* \"#utility.yul\":10223:10237   */\n      add\n        /* \"#utility.yul\":10216:10255   */\n      mstore\n        /* \"#utility.yul\":10099:10262   */\n      pop\n      jump\t// out\n        /* \"#utility.yul\":10268:10634   */\n    tag_149:\n        /* \"#utility.yul\":10410:10413   */\n      0x00\n        /* \"#utility.yul\":10431:10498   */\n      tag_273\n        /* \"#utility.yul\":10495:10497   */\n      0x0d\n        /* \"#utility.yul\":10490:10493   */\n      dup4\n        /* \"#utility.yul\":10431:10498   */\n      tag_143\n      jump\t// in\n    tag_273:\n        /* \"#utility.yul\":10424:10498   */\n      swap2\n      pop\n        /* \"#utility.yul\":10507:10600   */\n      tag_274\n        /* \"#utility.yul\":10596:10599   */\n      dup3\n        /* \"#utility.yul\":10507:10600   */\n      tag_148\n      jump\t// in\n    tag_274:\n        /* \"#utility.yul\":10625:10627   */\n      0x20\n        /* \"#utility.yul\":10620:10623   */\n      dup3\n        /* \"#utility.yul\":10616:10628   */\n      add\n        /* \"#utility.yul\":10609:10628   */\n      swap1\n      pop\n        /* \"#utility.yul\":10268:10634   */\n      swap2\n      swap1\n      pop\n      jump\t// out\n        /* \"#utility.yul\":10640:11059   */\n    tag_72:\n        /* \"#utility.yul\":10806:10810   */\n      0x00\n        /* \"#utility.yul\":10844:10846   */\n      0x20\n        /* \"#utility.yul\":10833:10842   */\n      dup3\n        /* \"#utility.yul\":10829:10847   */\n      add\n        /* \"#utility.yul\":10821:10847   */\n      swap1\n      pop\n        /* \"#utility.yul\":10893:10902   */\n      dup2\n        /* \"#utility.yul\":10887:10891   */\n      dup2\n        /* \"#utility.yul\":10883:10903   */\n      sub\n        /* \"#utility.yul\":10879:10880   */\n      0x00\n        /* \"#utility.yul\":10868:10877   */\n      dup4\n        /* \"#utility.yul\":10864:10881   */\n      add\n        /* \"#utility.yul\":10857:10904   */\n      mstore\n        /* \"#utility.yul\":10921:11052   */\n      tag_276\n        /* \"#utility.yul\":11047:11051   */\n      dup2\n        /* \"#utility.yul\":10921:11052   */\n      tag_149\n      jump\t// in\n    tag_276:\n        /* \"#utility.yul\":10913:11052   */\n      swap1\n      pop\n        /* \"#utility.yul\":10640:11059   */\n      swap2\n      swap1\n      pop\n      jump\t// out\n        /* \"#utility.yul\":11065:11224   */\n    tag_150:\n        /* \"#utility.yul\":11205:11216   */\n      0x746f203d207a65726f0000000000000000000000000000000000000000000000\n        /* \"#utility.yul\":11201:11202   */\n      0x00\n        /* \"#utility.yul\":11193:11199   */\n      dup3\n        /* \"#utility.yul\":11189:11203   */\n      add\n        /* \"#utility.yul\":11182:11217   */\n      mstore\n        /* \"#utility.yul\":11065:11224   */\n      pop\n      jump\t// out\n        /* \"#utility.yul\":11230:11595   */\n    tag_151:\n        /* \"#utility.yul\":11372:11375   */\n      0x00\n        /* \"#utility.yul\":11393:11459   */\n      tag_279\n        /* \"#utility.yul\":11457:11458   */\n      0x09\n        /* \"#utility.yul\":11452:11455   */\n      dup4\n        /* \"#utility.yul\":11393:11459   */\n      tag_143\n      jump\t// in\n    tag_279:\n        /* \"#utility.yul\":11386:11459   */\n      swap2\n      pop\n        /* \"#utility.yul\":11468:11561   */\n      tag_280\n        /* \"#utility.yul\":11557:11560   */\n      dup3\n        /* \"#utility.yul\":11468:11561   */\n      tag_150\n      jump\t// in\n    tag_280:\n        /* \"#utility.yul\":11586:11588   */\n      0x20\n        /* \"#utility.yul\":11581:11584   */\n      dup3\n        /* \"#utility.yul\":11577:11589   */\n      add\n        /* \"#utility.yul\":11570:11589   */\n      swap1\n      pop\n        /* \"#utility.yul\":11230:11595   */\n      swap2\n      swap1\n      pop\n      jump\t// out\n        /* \"#utility.yul\":11601:12020   */\n    tag_75:\n        /* \"#utility.yul\":11767:11771   */\n      0x00\n        /* \"#utility.yul\":11805:11807   */\n      0x20\n        /* \"#utility.yul\":11794:11803   */\n      dup3\n        /* \"#utility.yul\":11790:11808   */\n      add\n        /* \"#utility.yul\":11782:11808   */\n      swap1\n      pop\n        /* \"#utility.yul\":11854:11863   */\n      dup2\n        /* \"#utility.yul\":11848:11852   */\n      dup2\n        /* \"#utility.yul\":11844:11864   */\n      sub\n        /* \"#utility.yul\":11840:11841   */\n      0x00\n        /* \"#utility.yul\":11829:11838   */\n      dup4\n        /* \"#utility.yul\":11825:11842   */\n      add\n        /* \"#utility.yul\":11818:11865   */\n      mstore\n        /* \"#utility.yul\":11882:12013   */\n      tag_282\n        /* \"#utility.yul\":12008:12012   */\n      dup2\n        /* \"#utility.yul\":11882:12013   */\n      tag_151\n      jump\t// in\n    tag_282:\n        /* \"#utility.yul\":11874:12013   */\n      swap1\n      pop\n        /* \"#utility.yul\":11601:12020   */\n      swap2\n      swap1\n      pop\n      jump\t// out\n        /* \"#utility.yul\":12026:12206   */\n    tag_152:\n        /* \"#utility.yul\":12074:12151   */\n      0x4e487b7100000000000000000000000000000000000000000000000000000000\n        /* \"#utility.yul\":12071:12072   */\n      0x00\n        /* \"#utility.yul\":12064:12152   */\n      mstore\n        /* \"#utility.yul\":12171:12175   */\n      0x11\n        /* \"#utility.yul\":12168:12169   */\n      0x04\n        /* \"#utility.yul\":12161:12176   */\n      mstore\n        /* \"#utility.yul\":12195:12199   */\n      0x24\n        /* \"#utility.yul\":12192:12193   */\n      0x00\n        /* \"#utility.yul\":12185:12200   */\n      revert\n        /* \"#utility.yul\":12212:12383   */\n    tag_81:\n        /* \"#utility.yul\":12251:12254   */\n      0x00\n        /* \"#utility.yul\":12274:12298   */\n      tag_285\n        /* \"#utility.yul\":12292:12297   */\n      dup3\n        /* \"#utility.yul\":12274:12298   */\n      tag_123\n      jump\t// in\n    tag_285:\n        /* \"#utility.yul\":12265:12298   */\n      swap2\n      pop\n        /* \"#utility.yul\":12320:12324   */\n      0x00\n        /* \"#utility.yul\":12313:12318   */\n      dup3\n        /* \"#utility.yul\":12310:12325   */\n      sub\n        /* \"#utility.yul\":12307:12348   */\n      tag_286\n      jumpi\n        /* \"#utility.yul\":12328:12346   */\n      tag_287\n      tag_152\n      jump\t// in\n    tag_287:\n        /* \"#utility.yul\":12307:12348   */\n    tag_286:\n        /* \"#utility.yul\":12375:12376   */\n      0x01\n        /* \"#utility.yul\":12368:12373   */\n      dup3\n        /* \"#utility.yul\":12364:12377   */\n      sub\n        /* \"#utility.yul\":12357:12377   */\n      swap1\n      pop\n        /* \"#utility.yul\":12212:12383   */\n      swap2\n      swap1\n      pop\n      jump\t// out\n        /* \"#utility.yul\":12389:12622   */\n    tag_83:\n        /* \"#utility.yul\":12428:12431   */\n      0x00\n        /* \"#utility.yul\":12451:12475   */\n      tag_289\n        /* \"#utility.yul\":12469:12474   */\n      dup3\n        /* \"#utility.yul\":12451:12475   */\n      tag_123\n      jump\t// in\n    tag_289:\n        /* \"#utility.yul\":12442:12475   */\n      swap2\n      pop\n        /* \"#utility.yul\":12497:12563   */\n      0xffffffffffffffffffffffffffffffffffffffffffffffffffffffffffffffff\n        /* \"#utility.yul\":12490:12495   */\n      dup3\n        /* \"#utility.yul\":12487:12564   */\n      sub\n        /* \"#utility.yul\":12484:12587   */\n      tag_290\n      jumpi\n        /* \"#utility.yul\":12567:12585   */\n      tag_291\n      tag_152\n      jump\t// in\n    tag_291:\n        /* \"#utility.yul\":12484:12587   */\n    tag_290:\n        /* \"#utility.yul\":12614:12615   */\n      0x01\n        /* \"#utility.yul\":12607:12612   */\n      dup3\n        /* \"#utility.yul\":12603:12616   */\n      add\n        /* \"#utility.yul\":12596:12616   */\n      swap1\n      pop\n        /* \"#utility.yul\":12389:12622   */\n      swap2\n      swap1\n      pop\n      jump\t// out\n        /* \"#utility.yul\":12628:12796   */\n    tag_153:\n        /* \"#utility.yul\":12711:12722   */\n      0x00\n        /* \"#utility.yul\":12745:12751   */\n      dup3\n        /* \"#utility.yul\":12740:12743   */\n      dup3\n        /* \"#utility.yul\":12733:12752   */\n      mstore\n        /* \"#utility.yul\":12785:12789   */\n      0x20\n        /* \"#utility.yul\":12780:12783   */\n      dup3\n        /* \"#utility.yul\":12776:12790   */\n      add\n        /* \"#utility.yul\":12761:12790   */\n      swap1\n      pop\n        /* \"#utility.yul\":12628:12796   */\n      swap3\n      swap2\n      pop\n      pop\n      jump\t// out\n        /* \"#utility.yul\":12802:12916   */\n    tag_154:\n      pop\n      jump\t// out\n        /* \"#utility.yul\":12922:13284   */\n    tag_155:\n        /* \"#utility.yul\":13063:13066   */\n      0x00\n        /* \"#utility.yul\":13084:13149   */\n      tag_295\n        /* \"#utility.yul\":13147:13148   */\n      0x00\n        /* \"#utility.yul\":13142:13145   */\n      dup4\n        /* \"#utility.yul\":13084:13149   */\n      tag_153\n      jump\t// in\n    tag_295:\n        /* \"#utility.yul\":13077:13149   */\n      swap2\n      pop\n        /* \"#utility.yul\":13158:13251   */\n      tag_296\n        /* \"#utility.yul\":13247:13250   */\n      dup3\n        /* \"#utility.yul\":13158:13251   */\n      tag_154\n      jump\t// in\n    tag_296:\n        /* \"#utility.yul\":13276:13277   */\n      0x00\n        /* \"#utility.yul\":13271:13274   */\n      dup3\n        /* \"#utility.yul\":13267:13278   */\n      add\n        /* \"#utility.yul\":13260:13278   */\n      swap1\n      pop\n        /* \"#utility.yul\":12922:13284   */\n      swap2\n      swap1\n      pop\n      jump\t// out\n        /* \"#utility.yul\":13290:14038   */\n    tag_88:\n        /* \"#utility.yul\":13539:13543   */\n      0x00\n        /* \"#utility.yul\":13577:13580   */\n      0x80\n        /* \"#utility.yul\":13566:13575   */\n      dup3\n        /* \"#utility.yul\":13562:13581   */\n      add\n        /* \"#utility.yul\":13554:13581   */\n      swap1\n      pop\n        /* \"#utility.yul\":13591:13662   */\n      tag_298\n        /* \"#utility.yul\":13659:13660   */\n      0x00\n        /* \"#utility.yul\":13648:13657   */\n      dup4\n        /* \"#utility.yul\":13644:13661   */\n      add\n        /* \"#utility.yul\":13635:13641   */\n      dup7\n        /* \"#utility.yul\":13591:13662   */\n      tag_128\n      jump\t// in\n    tag_298:\n        /* \"#utility.yul\":13672:13744   */\n      tag_299\n        /* \"#utility.yul\":13740:13742   */\n      0x20\n        /* \"#utility.yul\":13729:13738   */\n      dup4\n        /* \"#utility.yul\":13725:13743   */\n      add\n        /* \"#utility.yul\":13716:13722   */\n      dup6\n        /* \"#utility.yul\":13672:13744   */\n      tag_128\n      jump\t// in\n    tag_299:\n        /* \"#utility.yul\":13754:13826   */\n      tag_300\n        /* \"#utility.yul\":13822:13824   */\n      0x40\n        /* \"#utility.yul\":13811:13820   */\n      dup4\n        /* \"#utility.yul\":13807:13825   */\n      add\n        /* \"#utility.yul\":13798:13804   */\n      dup5\n        /* \"#utility.yul\":13754:13826   */\n      tag_131\n      jump\t// in\n    tag_300:\n        /* \"#utility.yul\":13873:13882   */\n      dup2\n        /* \"#utility.yul\":13867:13871   */\n      dup2\n        /* \"#utility.yul\":13863:13883   */\n      sub\n        /* \"#utility.yul\":13858:13860   */\n      0x60\n        /* \"#utility.yul\":13847:13856   */\n      dup4\n        /* \"#utility.yul\":13843:13861   */\n      add\n        /* \"#utility.yul\":13836:13884   */\n      mstore\n        /* \"#utility.yul\":13901:14031   */\n      tag_301\n        /* \"#utility.yul\":14026:14030   */\n      dup2\n        /* \"#utility.yul\":13901:14031   */\n      tag_155\n      jump\t// in\n    tag_301:\n        /* \"#utility.yul\":13893:14031   */\n      swap1\n      pop\n        /* \"#utility.yul\":13290:14038   */\n      swap5\n      swap4\n      pop\n      pop\n      pop\n      pop\n      jump\t// out\n        /* \"#utility.yul\":14044:14185   */\n    tag_156:\n        /* \"#utility.yul\":14100:14105   */\n      0x00\n        /* \"#utility.yul\":14131:14137   */\n      dup2\n        /* \"#utility.yul\":14125:14138   */\n      mload\n        /* \"#utility.yul\":14116:14138   */\n      swap1\n      pop\n        /* \"#utility.yul\":14147:14179   */\n      tag_303\n        /* \"#utility.yul\":14173:14178   */\n      dup2\n        /* \"#utility.yul\":14147:14179   */\n      tag_133\n      jump\t// in\n    tag_303:\n        /* \"#utility.yul\":14044:14185   */\n      swap3\n      swap2\n      pop\n      pop\n      jump\t// out\n        /* \"#utility.yul\":14191:14540   */\n    tag_92:\n        /* \"#utility.yul\":14260:14266   */\n      0x00\n        /* \"#utility.yul\":14309:14311   */\n      0x20\n        /* \"#utility.yul\":14297:14306   */\n      dup3\n        /* \"#utility.yul\":14288:14295   */\n      dup5\n        /* \"#utility.yul\":14284:14307   */\n      sub\n        /* \"#utility.yul\":14280:14312   */\n      slt\n        /* \"#utility.yul\":14277:14396   */\n      iszero\n      tag_305\n      jumpi\n        /* \"#utility.yul\":14315:14394   */\n      tag_306\n      tag_121\n      jump\t// in\n    tag_306:\n        /* \"#utility.yul\":14277:14396   */\n    tag_305:\n        /* \"#utility.yul\":14435:14436   */\n      0x00\n        /* \"#utility.yul\":14460:14523   */\n      tag_307\n        /* \"#utility.yul\":14515:14522   */\n      dup5\n        /* \"#utility.yul\":14506:14512   */\n      dup3\n        /* \"#utility.yul\":14495:14504   */\n      dup6\n        /* \"#utility.yul\":14491:14513   */\n      add\n        /* \"#utility.yul\":14460:14523   */\n      tag_156\n      jump\t// in\n    tag_307:\n        /* \"#utility.yul\":14450:14523   */\n      swap2\n      pop\n        /* \"#utility.yul\":14406:14533   */\n      pop\n        /* \"#utility.yul\":14191:14540   */\n      swap3\n      swap2\n      pop\n      pop\n      jump\t// out\n        /* \"#utility.yul\":14546:14710   */\n    tag_157:\n        /* \"#utility.yul\":14686:14702   */\n      0x756e736166652072656365697074000000000000000000000000000000000000\n        /* \"#utility.yul\":14682:14683   */\n      0x00\n        /* \"#utility.yul\":14674:14680   */\n      dup3\n        /* \"#utility.yul\":14670:14684   */\n      add\n        /* \"#utility.yul\":14663:14703   */\n      mstore\n        /* \"#utility.yul\":14546:14710   */\n      pop\n      jump\t// out\n        /* \"#utility.yul\":14716:15082   */\n    tag_158:\n        /* \"#utility.yul\":14858:14861   */\n      0x00\n        /* \"#utility.yul\":14879:14946   */\n      tag_310\n        /* \"#utility.yul\":14943:14945   */\n      0x0e\n        /* \"#utility.yul\":14938:14941   */\n      dup4\n        /* \"#utility.yul\":14879:14946   */\n      tag_143\n      jump\t// in\n    tag_310:\n        /* \"#utility.yul\":14872:14946   */\n      swap2\n      pop\n        /* \"#utility.yul\":14955:15048   */\n      tag_311\n        /* \"#utility.yul\":15044:15047   */\n      dup3\n        /* \"#utility.yul\":14955:15048   */\n      tag_157\n      jump\t// in\n    tag_311:\n        /* \"#utility.yul\":15073:15075   */\n      0x20\n        /* \"#utility.yul\":15068:15071   */\n      dup3\n        /* \"#utility.yul\":15064:15076   */\n      add\n        /* \"#utility.yul\":15057:15076   */\n      swap1\n      pop\n        /* \"#utility.yul\":14716:15082   */\n      swap2\n      swap1\n      pop\n      jump\t// out\n        /* \"#utility.yul\":15088:15507   */\n    tag_95:\n        /* \"#utility.yul\":15254:15258   */\n      0x00\n        /* \"#utility.yul\":15292:15294   */\n      0x20\n        /* \"#utility.yul\":15281:15290   */\n      dup3\n        /* \"#utility.yul\":15277:15295   */\n      add\n        /* \"#utility.yul\":15269:15295   */\n      swap1\n      pop\n        /* \"#utility.yul\":15341:15350   */\n      dup2\n        /* \"#utility.yul\":15335:15339   */\n      dup2\n        /* \"#utility.yul\":15331:15351   */\n      sub\n        /* \"#utility.yul\":15327:15328   */\n      0x00\n        /* \"#utility.yul\":15316:15325   */\n      dup4\n        /* \"#utility.yul\":15312:15329   */\n      add\n        /* \"#utility.yul\":15305:15352   */\n      mstore\n        /* \"#utility.yul\":15369:15500   */\n      tag_313\n        /* \"#utility.yul\":15495:15499   */\n      dup2\n        /* \"#utility.yul\":15369:15500   */\n      tag_158\n      jump\t// in\n    tag_313:\n        /* \"#utility.yul\":15361:15500   */\n      swap1\n      pop\n        /* \"#utility.yul\":15088:15507   */\n      swap2\n      swap1\n      pop\n      jump\t// out\n        /* \"#utility.yul\":15513:15681   */\n    tag_159:\n        /* \"#utility.yul\":15653:15673   */\n      0x6f776e6572203d20616464726573732830290000000000000000000000000000\n        /* \"#utility.yul\":15649:15650   */\n      0x00\n        /* \"#utility.yul\":15641:15647   */\n      dup3\n        /* \"#utility.yul\":15637:15651   */\n      add\n        /* \"#utility.yul\":15630:15674   */\n      mstore\n        /* \"#utility.yul\":15513:15681   */\n      pop\n      jump\t// out\n        /* \"#utility.yul\":15687:16053   */\n    tag_160:\n        /* \"#utility.yul\":15829:15832   */\n      0x00\n        /* \"#utility.yul\":15850:15917   */\n      tag_316\n        /* \"#utility.yul\":15914:15916   */\n      0x12\n        /* \"#utility.yul\":15909:15912   */\n      dup4\n        /* \"#utility.yul\":15850:15917   */\n      tag_143\n      jump\t// in\n    tag_316:\n        /* \"#utility.yul\":15843:15917   */\n      swap2\n      pop\n        /* \"#utility.yul\":15926:16019   */\n      tag_317\n        /* \"#utility.yul\":16015:16018   */\n      dup3\n        /* \"#utility.yul\":15926:16019   */\n      tag_159\n      jump\t// in\n    tag_317:\n        /* \"#utility.yul\":16044:16046   */\n      0x20\n        /* \"#utility.yul\":16039:16042   */\n      dup3\n        /* \"#utility.yul\":16035:16047   */\n      add\n        /* \"#utility.yul\":16028:16047   */\n      swap1\n      pop\n        /* \"#utility.yul\":15687:16053   */\n      swap2\n      swap1\n      pop\n      jump\t// out\n        /* \"#utility.yul\":16059:16478   */\n    tag_99:\n        /* \"#utility.yul\":16225:16229   */\n      0x00\n        /* \"#utility.yul\":16263:16265   */\n      0x20\n        /* \"#utility.yul\":16252:16261   */\n      dup3\n        /* \"#utility.yul\":16248:16266   */\n      add\n        /* \"#utility.yul\":16240:16266   */\n      swap1\n      pop\n        /* \"#utility.yul\":16312:16321   */\n      dup2\n        /* \"#utility.yul\":16306:16310   */\n      dup2\n        /* \"#utility.yul\":16302:16322   */\n      sub\n        /* \"#utility.yul\":16298:16299   */\n      0x00\n        /* \"#utility.yul\":16287:16296   */\n      dup4\n        /* \"#utility.yul\":16283:16300   */\n      add\n        /* \"#utility.yul\":16276:16323   */\n      mstore\n        /* \"#utility.yul\":16340:16471   */\n      tag_319\n        /* \"#utility.yul\":16466:16470   */\n      dup2\n        /* \"#utility.yul\":16340:16471   */\n      tag_160\n      jump\t// in\n    tag_319:\n        /* \"#utility.yul\":16332:16471   */\n      swap1\n      pop\n        /* \"#utility.yul\":16059:16478   */\n      swap2\n      swap1\n      pop\n      jump\t// out\n        /* \"#utility.yul\":16484:16632   */\n    tag_161:\n        /* \"#utility.yul\":16582:16588   */\n      dup3\n        /* \"#utility.yul\":16577:16580   */\n      dup2\n        /* \"#utility.yul\":16572:16575   */\n      dup4\n        /* \"#utility.yul\":16559:16589   */\n      calldatacopy\n        /* \"#utility.yul\":16623:16624   */\n      0x00\n        /* \"#utility.yul\":16614:16620   */\n      dup4\n        /* \"#utility.yul\":16609:16612   */\n      dup4\n        /* \"#utility.yul\":16605:16621   */\n      add\n        /* \"#utility.yul\":16598:16625   */\n      mstore\n        /* \"#utility.yul\":16484:16632   */\n      pop\n      pop\n      pop\n      jump\t// out\n        /* \"#utility.yul\":16638:16740   */\n    tag_162:\n        /* \"#utility.yul\":16679:16685   */\n      0x00\n        /* \"#utility.yul\":16730:16732   */\n      0x1f\n        /* \"#utility.yul\":16726:16733   */\n      not\n        /* \"#utility.yul\":16721:16723   */\n      0x1f\n        /* \"#utility.yul\":16714:16719   */\n      dup4\n        /* \"#utility.yul\":16710:16724   */\n      add\n        /* \"#utility.yul\":16706:16734   */\n      and\n        /* \"#utility.yul\":16696:16734   */\n      swap1\n      pop\n        /* \"#utility.yul\":16638:16740   */\n      swap2\n      swap1\n      pop\n      jump\t// out\n        /* \"#utility.yul\":16768:17082   */\n    tag_163:\n        /* \"#utility.yul\":16864:16867   */\n      0x00\n        /* \"#utility.yul\":16885:16955   */\n      tag_323\n        /* \"#utility.yul\":16948:16954   */\n      dup4\n        /* \"#utility.yul\":16943:16946   */\n      dup6\n        /* \"#utility.yul\":16885:16955   */\n      tag_153\n      jump\t// in\n    tag_323:\n        /* \"#utility.yul\":16878:16955   */\n      swap4\n      pop\n        /* \"#utility.yul\":16965:17021   */\n      tag_324\n        /* \"#utility.yul\":17014:17020   */\n      dup4\n        /* \"#utility.yul\":17009:17012   */\n      dup6\n        /* \"#utility.yul\":17002:17007   */\n      dup5\n        /* \"#utility.yul\":16965:17021   */\n      tag_161\n      jump\t// in\n    tag_324:\n        /* \"#utility.yul\":17046:17075   */\n      tag_325\n        /* \"#utility.yul\":17068:17074   */\n      dup4\n        /* \"#utility.yul\":17046:17075   */\n      tag_162\n      jump\t// in\n    tag_325:\n        /* \"#utility.yul\":17041:17044   */\n      dup5\n        /* \"#utility.yul\":17037:17076   */\n      add\n        /* \"#utility.yul\":17030:17076   */\n      swap1\n      pop\n        /* \"#utility.yul\":16768:17082   */\n      swap4\n      swap3\n      pop\n      pop\n      pop\n      jump\t// out\n        /* \"#utility.yul\":17088:17748   */\n    tag_111:\n        /* \"#utility.yul\":17293:17297   */\n      0x00\n        /* \"#utility.yul\":17331:17334   */\n      0x80\n        /* \"#utility.yul\":17320:17329   */\n      dup3\n        /* \"#utility.yul\":17316:17335   */\n      add\n        /* \"#utility.yul\":17308:17335   */\n      swap1\n      pop\n        /* \"#utility.yul\":17345:17416   */\n      tag_327\n        /* \"#utility.yul\":17413:17414   */\n      0x00\n        /* \"#utility.yul\":17402:17411   */\n      dup4\n        /* \"#utility.yul\":17398:17415   */\n      add\n        /* \"#utility.yul\":17389:17395   */\n      dup9\n        /* \"#utility.yul\":17345:17416   */\n      tag_128\n      jump\t// in\n    tag_327:\n        /* \"#utility.yul\":17426:17498   */\n      tag_328\n        /* \"#utility.yul\":17494:17496   */\n      0x20\n        /* \"#utility.yul\":17483:17492   */\n      dup4\n        /* \"#utility.yul\":17479:17497   */\n      add\n        /* \"#utility.yul\":17470:17476   */\n      dup8\n        /* \"#utility.yul\":17426:17498   */\n      tag_128\n      jump\t// in\n    tag_328:\n        /* \"#utility.yul\":17508:17580   */\n      tag_329\n        /* \"#utility.yul\":17576:17578   */\n      0x40\n        /* \"#utility.yul\":17565:17574   */\n      dup4\n        /* \"#utility.yul\":17561:17579   */\n      add\n        /* \"#utility.yul\":17552:17558   */\n      dup7\n        /* \"#utility.yul\":17508:17580   */\n      tag_131\n      jump\t// in\n    tag_329:\n        /* \"#utility.yul\":17627:17636   */\n      dup2\n        /* \"#utility.yul\":17621:17625   */\n      dup2\n        /* \"#utility.yul\":17617:17637   */\n      sub\n        /* \"#utility.yul\":17612:17614   */\n      0x60\n        /* \"#utility.yul\":17601:17610   */\n      dup4\n        /* \"#utility.yul\":17597:17615   */\n      add\n        /* \"#utility.yul\":17590:17638   */\n      mstore\n        /* \"#utility.yul\":17655:17741   */\n      tag_330\n        /* \"#utility.yul\":17736:17740   */\n      dup2\n        /* \"#utility.yul\":17727:17733   */\n      dup5\n        /* \"#utility.yul\":17719:17725   */\n      dup7\n        /* \"#utility.yul\":17655:17741   */\n      tag_163\n      jump\t// in\n    tag_330:\n        /* \"#utility.yul\":17647:17741   */\n      swap1\n      pop\n        /* \"#utility.yul\":17088:17748   */\n      swap7\n      swap6\n      pop\n      pop\n      pop\n      pop\n      pop\n      pop\n      jump\t// out\n\n    auxdata: 0xa26469706673582212202471193cbe50b4ae98ab1a9fc25c1c93ad862ec2d50ccfad1f0ca0221b232abf64736f6c634300081a0033\n}\n",
				"bytecode": {
					"linkReferences": {},
					"object": "6080604052348015600e575f80fd5b506117368061001c5f395ff3fe608060405234801561000f575f80fd5b506004361061009c575f3560e01c806370a082311161006457806370a082311461015457806375e79be614610184578063a22cb465146101b4578063b88d4fde146101d0578063e985e9c5146101ec5761009c565b8063081812fc146100a0578063095ea7b3146100d057806323b872dd146100ec57806342842e0e146101085780636352211e14610124575b5f80fd5b6100ba60048036038101906100b59190610ec9565b61021c565b6040516100c79190610f33565b60405180910390f35b6100ea60048036038101906100e59190610f76565b6102f2565b005b61010660048036038101906101019190610fb4565b6104ce565b005b610122600480360381019061011d9190610fb4565b6107a8565b005b61013e60048036038101906101399190610ec9565b6108dc565b60405161014b9190610f33565b60405180910390f35b61016e60048036038101906101699190611004565b610982565b60405161017b919061103e565b60405180910390f35b61019e600480360381019061019991906110ac565b610a36565b6040516101ab91906110f1565b60405180910390f35b6101ce60048036038101906101c99190611134565b610b07565b005b6101ea60048036038101906101e591906111d3565b610bff565b005b61020660048036038101906102019190611257565b610d39565b60405161021391906110f1565b60405180910390f35b5f8073ffffffffffffffffffffffffffffffffffffffff165f808481526020019081526020015f205f9054906101000a900473ffffffffffffffffffffffffffffffffffffffff1673ffffffffffffffffffffffffffffffffffffffff16036102ba576040517f08c379a00000000000000000000000000000000000000000000000000000000081526004016102b1906112ef565b60405180910390fd5b60025f8381526020019081526020015f205f9054906101000a900473ffffffffffffffffffffffffffffffffffffffff169050919050565b5f805f8381526020019081526020015f205f9054906101000a900473ffffffffffffffffffffffffffffffffffffffff1690508073ffffffffffffffffffffffffffffffffffffffff163373ffffffffffffffffffffffffffffffffffffffff1614806103e0575060035f8273ffffffffffffffffffffffffffffffffffffffff1673ffffffffffffffffffffffffffffffffffffffff1681526020019081526020015f205f3373ffffffffffffffffffffffffffffffffffffffff1673ffffffffffffffffffffffffffffffffffffffff1681526020019081526020015f205f9054906101000a900460ff165b61041f576040517f08c379a000000000000000000000000000000000000000000000000000000000815260040161041690611357565b60405180910390fd5b8260025f8481526020019081526020015f205f6101000a81548173ffffffffffffffffffffffffffffffffffffffff021916908373ffffffffffffffffffffffffffffffffffffffff160217905550818373ffffffffffffffffffffffffffffffffffffffff168273ffffffffffffffffffffffffffffffffffffffff167f8c5be1e5ebec7d5bd14f71427d1e84f3dd0314c0f7b2291e5b200ac8c7c3b92560405160405180910390a4505050565b5f808281526020019081526020015f205f9054906101000a900473ffffffffffffffffffffffffffffffffffffffff1673ffffffffffffffffffffffffffffffffffffffff168373ffffffffffffffffffffffffffffffffffffffff161461056b576040517f08c379a0000000000000000000000000000000000000000000000000000000008152600401610562906113bf565b60405180910390fd5b5f73ffffffffffffffffffffffffffffffffffffffff168273ffffffffffffffffffffffffffffffffffffffff16036105d9576040517f08c379a00000000000000000000000000000000000000000000000000000000081526004016105d090611427565b60405180910390fd5b6105e4833383610d63565b610623576040517f08c379a000000000000000000000000000000000000000000000000000000000815260040161061a90611357565b60405180910390fd5b60015f8473ffffffffffffffffffffffffffffffffffffffff1673ffffffffffffffffffffffffffffffffffffffff1681526020019081526020015f205f81548092919061067090611472565b919050555060015f8373ffffffffffffffffffffffffffffffffffffffff1673ffffffffffffffffffffffffffffffffffffffff1681526020019081526020015f205f8154809291906106c290611499565b9190505550815f808381526020019081526020015f205f6101000a81548173ffffffffffffffffffffffffffffffffffffffff021916908373ffffffffffffffffffffffffffffffffffffffff16021790555060025f8281526020019081526020015f205f6101000a81549073ffffffffffffffffffffffffffffffffffffffff0219169055808273ffffffffffffffffffffffffffffffffffffffff168473ffffffffffffffffffffffffffffffffffffffff167fddf252ad1be2c89b69c2b068fc378daa952ba7f163c4a11628f55a4df523b3ef60405160405180910390a4505050565b6107b38383836104ce565b5f8273ffffffffffffffffffffffffffffffffffffffff163b1480610898575063150b7a0260e01b7bffffffffffffffffffffffffffffffffffffffffffffffffffffffff19168273ffffffffffffffffffffffffffffffffffffffff1663150b7a023386856040518463ffffffff1660e01b815260040161083793929190611513565b6020604051808303815f875af1158015610853573d5f803e3d5ffd5b505050506040513d601f19601f82011682018060405250810190610877919061156f565b7bffffffffffffffffffffffffffffffffffffffffffffffffffffffff1916145b6108d7576040517f08c379a00000000000000000000000000000000000000000000000000000000081526004016108ce906115e4565b60405180910390fd5b505050565b5f805f8381526020019081526020015f205f9054906101000a900473ffffffffffffffffffffffffffffffffffffffff1690505f73ffffffffffffffffffffffffffffffffffffffff168173ffffffffffffffffffffffffffffffffffffffff160361097d576040517f08c379a00000000000000000000000000000000000000000000000000000000081526004016109749061164c565b60405180910390fd5b919050565b5f8073ffffffffffffffffffffffffffffffffffffffff168273ffffffffffffffffffffffffffffffffffffffff16036109f1576040517f08c379a00000000000000000000000000000000000000000000000000000000081526004016109e89061164c565b60405180910390fd5b60015f8373ffffffffffffffffffffffffffffffffffffffff1673ffffffffffffffffffffffffffffffffffffffff1681526020019081526020015f20549050919050565b5f7fc22876c3000000000000000000000000000000000000000000000000000000007bffffffffffffffffffffffffffffffffffffffffffffffffffffffff1916827bffffffffffffffffffffffffffffffffffffffffffffffffffffffff19161480610b0057507f75e79be6000000000000000000000000000000000000000000000000000000007bffffffffffffffffffffffffffffffffffffffffffffffffffffffff1916827bffffffffffffffffffffffffffffffffffffffffffffffffffffffff1916145b9050919050565b8060035f3373ffffffffffffffffffffffffffffffffffffffff1673ffffffffffffffffffffffffffffffffffffffff1681526020019081526020015f205f8473ffffffffffffffffffffffffffffffffffffffff1673ffffffffffffffffffffffffffffffffffffffff1681526020019081526020015f205f6101000a81548160ff0219169083151502179055508173ffffffffffffffffffffffffffffffffffffffff163373ffffffffffffffffffffffffffffffffffffffff167f17307eab39ab6107e8899845ad3d59bd9653f200f220920489ca2b5937696c3183604051610bf391906110f1565b60405180910390a35050565b610c0a8585856104ce565b5f8473ffffffffffffffffffffffffffffffffffffffff163b1480610cf3575063150b7a0260e01b7bffffffffffffffffffffffffffffffffffffffffffffffffffffffff19168473ffffffffffffffffffffffffffffffffffffffff1663150b7a0233888787876040518663ffffffff1660e01b8152600401610c929594939291906116b4565b6020604051808303815f875af1158015610cae573d5f803e3d5ffd5b505050506040513d601f19601f82011682018060405250810190610cd2919061156f565b7bffffffffffffffffffffffffffffffffffffffffffffffffffffffff1916145b610d32576040517f08c379a0000000000000000000000000000000000000000000000000000000008152600401610d29906115e4565b60405180910390fd5b5050505050565b6003602052815f5260405f20602052805f5260405f205f915091509054906101000a900460ff1681565b5f8373ffffffffffffffffffffffffffffffffffffffff168373ffffffffffffffffffffffffffffffffffffffff161480610e1f575060035f8573ffffffffffffffffffffffffffffffffffffffff1673ffffffffffffffffffffffffffffffffffffffff1681526020019081526020015f205f8473ffffffffffffffffffffffffffffffffffffffff1673ffffffffffffffffffffffffffffffffffffffff1681526020019081526020015f205f9054906101000a900460ff165b80610e85575060025f8381526020019081526020015f205f9054906101000a900473ffffffffffffffffffffffffffffffffffffffff1673ffffffffffffffffffffffffffffffffffffffff168373ffffffffffffffffffffffffffffffffffffffff16145b90509392505050565b5f80fd5b5f80fd5b5f819050919050565b610ea881610e96565b8114610eb2575f80fd5b50565b5f81359050610ec381610e9f565b92915050565b5f60208284031215610ede57610edd610e8e565b5b5f610eeb84828501610eb5565b91505092915050565b5f73ffffffffffffffffffffffffffffffffffffffff82169050919050565b5f610f1d82610ef4565b9050919050565b610f2d81610f13565b82525050565b5f602082019050610f465f830184610f24565b92915050565b610f5581610f13565b8114610f5f575f80fd5b50565b5f81359050610f7081610f4c565b92915050565b5f8060408385031215610f8c57610f8b610e8e565b5b5f610f9985828601610f62565b9250506020610faa85828601610eb5565b9150509250929050565b5f805f60608486031215610fcb57610fca610e8e565b5b5f610fd886828701610f62565b9350506020610fe986828701610f62565b9250506040610ffa86828701610eb5565b9150509250925092565b5f6020828403121561101957611018610e8e565b5b5f61102684828501610f62565b91505092915050565b61103881610e96565b82525050565b5f6020820190506110515f83018461102f565b92915050565b5f7fffffffff0000000000000000000000000000000000000000000000000000000082169050919050565b61108b81611057565b8114611095575f80fd5b50565b5f813590506110a681611082565b92915050565b5f602082840312156110c1576110c0610e8e565b5b5f6110ce84828501611098565b91505092915050565b5f8115159050919050565b6110eb816110d7565b82525050565b5f6020820190506111045f8301846110e2565b92915050565b611113816110d7565b811461111d575f80fd5b50565b5f8135905061112e8161110a565b92915050565b5f806040838503121561114a57611149610e8e565b5b5f61115785828601610f62565b925050602061116885828601611120565b9150509250929050565b5f80fd5b5f80fd5b5f80fd5b5f8083601f84011261119357611192611172565b5b8235905067ffffffffffffffff8111156111b0576111af611176565b5b6020830191508360018202830111156111cc576111cb61117a565b5b9250929050565b5f805f805f608086880312156111ec576111eb610e8e565b5b5f6111f988828901610f62565b955050602061120a88828901610f62565b945050604061121b88828901610eb5565b935050606086013567ffffffffffffffff81111561123c5761123b610e92565b5b6112488882890161117e565b92509250509295509295909350565b5f806040838503121561126d5761126c610e8e565b5b5f61127a85828601610f62565b925050602061128b85828601610f62565b9150509250929050565b5f82825260208201905092915050565b7f746f6b656e4964206973206e6f742065786973740000000000000000000000005f82015250565b5f6112d9601483611295565b91506112e4826112a5565b602082019050919050565b5f6020820190508181035f830152611306816112cd565b9050919050565b7f6e6f7420617574686f72697a65640000000000000000000000000000000000005f82015250565b5f611341600e83611295565b915061134c8261130d565b602082019050919050565b5f6020820190508181035f83015261136e81611335565b9050919050565b7f66726f6d20213d206f776e6572000000000000000000000000000000000000005f82015250565b5f6113a9600d83611295565b91506113b482611375565b602082019050919050565b5f6020820190508181035f8301526113d68161139d565b9050919050565b7f746f203d207a65726f00000000000000000000000000000000000000000000005f82015250565b5f611411600983611295565b915061141c826113dd565b602082019050919050565b5f6020820190508181035f83015261143e81611405565b9050919050565b7f4e487b71000000000000000000000000000000000000000000000000000000005f52601160045260245ffd5b5f61147c82610e96565b91505f820361148e5761148d611445565b5b600182039050919050565b5f6114a382610e96565b91507fffffffffffffffffffffffffffffffffffffffffffffffffffffffffffffffff82036114d5576114d4611445565b5b600182019050919050565b5f82825260208201905092915050565b50565b5f6114fe5f836114e0565b9150611509826114f0565b5f82019050919050565b5f6080820190506115265f830186610f24565b6115336020830185610f24565b611540604083018461102f565b8181036060830152611551816114f3565b9050949350505050565b5f8151905061156981611082565b92915050565b5f6020828403121561158457611583610e8e565b5b5f6115918482850161155b565b91505092915050565b7f756e7361666520726563656970740000000000000000000000000000000000005f82015250565b5f6115ce600e83611295565b91506115d98261159a565b602082019050919050565b5f6020820190508181035f8301526115fb816115c2565b9050919050565b7f6f776e6572203d206164647265737328302900000000000000000000000000005f82015250565b5f611636601283611295565b915061164182611602565b602082019050919050565b5f6020820190508181035f8301526116638161162a565b9050919050565b828183375f83830152505050565b5f601f19601f8301169050919050565b5f61169383856114e0565b93506116a083858461166a565b6116a983611678565b840190509392505050565b5f6080820190506116c75f830188610f24565b6116d46020830187610f24565b6116e1604083018661102f565b81810360608301526116f4818486611688565b9050969550505050505056fea26469706673582212202471193cbe50b4ae98ab1a9fc25c1c93ad862ec2d50ccfad1f0ca0221b232abf64736f6c634300081a0033",
					"opcodes": "PUSH1 0x80 PUSH1 0x40 MSTORE CALLVALUE DUP1 ISZERO PUSH1 0xE JUMPI PUSH0 DUP1 REVERT JUMPDEST POP PUSH2 0x1736 DUP1 PUSH2 0x1C PUSH0 CODECOPY PUSH0 RETURN INVALID PUSH1 0x80 PUSH1 0x40 MSTORE CALLVALUE DUP1 ISZERO PUSH2 0xF JUMPI PUSH0 DUP1 REVERT JUMPDEST POP PUSH1 0x4 CALLDATASIZE LT PUSH2 0x9C JUMPI PUSH0 CALLDATALOAD PUSH1 0xE0 SHR DUP1 PUSH4 0x70A08231 GT PUSH2 0x64 JUMPI DUP1 PUSH4 0x70A08231 EQ PUSH2 0x154 JUMPI DUP1 PUSH4 0x75E79BE6 EQ PUSH2 0x184 JUMPI DUP1 PUSH4 0xA22CB465 EQ PUSH2 0x1B4 JUMPI DUP1 PUSH4 0xB88D4FDE EQ PUSH2 0x1D0 JUMPI DUP1 PUSH4 0xE985E9C5 EQ PUSH2 0x1EC JUMPI PUSH2 0x9C JUMP JUMPDEST DUP1 PUSH4 0x81812FC EQ PUSH2 0xA0 JUMPI DUP1 PUSH4 0x95EA7B3 EQ PUSH2 0xD0 JUMPI DUP1 PUSH4 0x23B872DD EQ PUSH2 0xEC JUMPI DUP1 PUSH4 0x42842E0E EQ PUSH2 0x108 JUMPI DUP1 PUSH4 0x6352211E EQ PUSH2 0x124 JUMPI JUMPDEST PUSH0 DUP1 REVERT JUMPDEST PUSH2 0xBA PUSH1 0x4 DUP1 CALLDATASIZE SUB DUP2 ADD SWAP1 PUSH2 0xB5 SWAP2 SWAP1 PUSH2 0xEC9 JUMP JUMPDEST PUSH2 0x21C JUMP JUMPDEST PUSH1 0x40 MLOAD PUSH2 0xC7 SWAP2 SWAP1 PUSH2 0xF33 JUMP JUMPDEST PUSH1 0x40 MLOAD DUP1 SWAP2 SUB SWAP1 RETURN JUMPDEST PUSH2 0xEA PUSH1 0x4 DUP1 CALLDATASIZE SUB DUP2 ADD SWAP1 PUSH2 0xE5 SWAP2 SWAP1 PUSH2 0xF76 JUMP JUMPDEST PUSH2 0x2F2 JUMP JUMPDEST STOP JUMPDEST PUSH2 0x106 PUSH1 0x4 DUP1 CALLDATASIZE SUB DUP2 ADD SWAP1 PUSH2 0x101 SWAP2 SWAP1 PUSH2 0xFB4 JUMP JUMPDEST PUSH2 0x4CE JUMP JUMPDEST STOP JUMPDEST PUSH2 0x122 PUSH1 0x4 DUP1 CALLDATASIZE SUB DUP2 ADD SWAP1 PUSH2 0x11D SWAP2 SWAP1 PUSH2 0xFB4 JUMP JUMPDEST PUSH2 0x7A8 JUMP JUMPDEST STOP JUMPDEST PUSH2 0x13E PUSH1 0x4 DUP1 CALLDATASIZE SUB DUP2 ADD SWAP1 PUSH2 0x139 SWAP2 SWAP1 PUSH2 0xEC9 JUMP JUMPDEST PUSH2 0x8DC JUMP JUMPDEST PUSH1 0x40 MLOAD PUSH2 0x14B SWAP2 SWAP1 PUSH2 0xF33 JUMP JUMPDEST PUSH1 0x40 MLOAD DUP1 SWAP2 SUB SWAP1 RETURN JUMPDEST PUSH2 0x16E PUSH1 0x4 DUP1 CALLDATASIZE SUB DUP2 ADD SWAP1 PUSH2 0x169 SWAP2 SWAP1 PUSH2 0x1004 JUMP JUMPDEST PUSH2 0x982 JUMP JUMPDEST PUSH1 0x40 MLOAD PUSH2 0x17B SWAP2 SWAP1 PUSH2 0x103E JUMP JUMPDEST PUSH1 0x40 MLOAD DUP1 SWAP2 SUB SWAP1 RETURN JUMPDEST PUSH2 0x19E PUSH1 0x4 DUP1 CALLDATASIZE SUB DUP2 ADD SWAP1 PUSH2 0x199 SWAP2 SWAP1 PUSH2 0x10AC JUMP JUMPDEST PUSH2 0xA36 JUMP JUMPDEST PUSH1 0x40 MLOAD PUSH2 0x1AB SWAP2 SWAP1 PUSH2 0x10F1 JUMP JUMPDEST PUSH1 0x40 MLOAD DUP1 SWAP2 SUB SWAP1 RETURN JUMPDEST PUSH2 0x1CE PUSH1 0x4 DUP1 CALLDATASIZE SUB DUP2 ADD SWAP1 PUSH2 0x1C9 SWAP2 SWAP1 PUSH2 0x1134 JUMP JUMPDEST PUSH2 0xB07 JUMP JUMPDEST STOP JUMPDEST PUSH2 0x1EA PUSH1 0x4 DUP1 CALLDATASIZE SUB DUP2 ADD SWAP1 PUSH2 0x1E5 SWAP2 SWAP1 PUSH2 0x11D3 JUMP JUMPDEST PUSH2 0xBFF JUMP JUMPDEST STOP JUMPDEST PUSH2 0x206 PUSH1 0x4 DUP1 CALLDATASIZE SUB DUP2 ADD SWAP1 PUSH2 0x201 SWAP2 SWAP1 PUSH2 0x1257 JUMP JUMPDEST PUSH2 0xD39 JUMP JUMPDEST PUSH1 0x40 MLOAD PUSH2 0x213 SWAP2 SWAP1 PUSH2 0x10F1 JUMP JUMPDEST PUSH1 0x40 MLOAD DUP1 SWAP2 SUB SWAP1 RETURN JUMPDEST PUSH0 DUP1 PUSH20 0xFFFFFFFFFFFFFFFFFFFFFFFFFFFFFFFFFFFFFFFF AND PUSH0 DUP1 DUP5 DUP2 MSTORE PUSH1 0x20 ADD SWAP1 DUP2 MSTORE PUSH1 0x20 ADD PUSH0 KECCAK256 PUSH0 SWAP1 SLOAD SWAP1 PUSH2 0x100 EXP SWAP1 DIV PUSH20 0xFFFFFFFFFFFFFFFFFFFFFFFFFFFFFFFFFFFFFFFF AND PUSH20 0xFFFFFFFFFFFFFFFFFFFFFFFFFFFFFFFFFFFFFFFF AND SUB PUSH2 0x2BA JUMPI PUSH1 0x40 MLOAD PUSH32 0x8C379A000000000000000000000000000000000000000000000000000000000 DUP2 MSTORE PUSH1 0x4 ADD PUSH2 0x2B1 SWAP1 PUSH2 0x12EF JUMP JUMPDEST PUSH1 0x40 MLOAD DUP1 SWAP2 SUB SWAP1 REVERT JUMPDEST PUSH1 0x2 PUSH0 DUP4 DUP2 MSTORE PUSH1 0x20 ADD SWAP1 DUP2 MSTORE PUSH1 0x20 ADD PUSH0 KECCAK256 PUSH0 SWAP1 SLOAD SWAP1 PUSH2 0x100 EXP SWAP1 DIV PUSH20 0xFFFFFFFFFFFFFFFFFFFFFFFFFFFFFFFFFFFFFFFF AND SWAP1 POP SWAP2 SWAP1 POP JUMP JUMPDEST PUSH0 DUP1 PUSH0 DUP4 DUP2 MSTORE PUSH1 0x20 ADD SWAP1 DUP2 MSTORE PUSH1 0x20 ADD PUSH0 KECCAK256 PUSH0 SWAP1 SLOAD SWAP1 PUSH2 0x100 EXP SWAP1 DIV PUSH20 0xFFFFFFFFFFFFFFFFFFFFFFFFFFFFFFFFFFFFFFFF AND SWAP1 POP DUP1 PUSH20 0xFFFFFFFFFFFFFFFFFFFFFFFFFFFFFFFFFFFFFFFF AND CALLER PUSH20 0xFFFFFFFFFFFFFFFFFFFFFFFFFFFFFFFFFFFFFFFF AND EQ DUP1 PUSH2 0x3E0 JUMPI POP PUSH1 0x3 PUSH0 DUP3 PUSH20 0xFFFFFFFFFFFFFFFFFFFFFFFFFFFFFFFFFFFFFFFF AND PUSH20 0xFFFFFFFFFFFFFFFFFFFFFFFFFFFFFFFFFFFFFFFF AND DUP2 MSTORE PUSH1 0x20 ADD SWAP1 DUP2 MSTORE PUSH1 0x20 ADD PUSH0 KECCAK256 PUSH0 CALLER PUSH20 0xFFFFFFFFFFFFFFFFFFFFFFFFFFFFFFFFFFFFFFFF AND PUSH20 0xFFFFFFFFFFFFFFFFFFFFFFFFFFFFFFFFFFFFFFFF AND DUP2 MSTORE PUSH1 0x20 ADD SWAP1 DUP2 MSTORE PUSH1 0x20 ADD PUSH0 KECCAK256 PUSH0 SWAP1 SLOAD SWAP1 PUSH2 0x100 EXP SWAP1 DIV PUSH1 0xFF AND JUMPDEST PUSH2 0x41F JUMPI PUSH1 0x40 MLOAD PUSH32 0x8C379A000000000000000000000000000000000000000000000000000000000 DUP2 MSTORE PUSH1 0x4 ADD PUSH2 0x416 SWAP1 PUSH2 0x1357 JUMP JUMPDEST PUSH1 0x40 MLOAD DUP1 SWAP2 SUB SWAP1 REVERT JUMPDEST DUP3 PUSH1 0x2 PUSH0 DUP5 DUP2 MSTORE PUSH1 0x20 ADD SWAP1 DUP2 MSTORE PUSH1 0x20 ADD PUSH0 KECCAK256 PUSH0 PUSH2 0x100 EXP DUP2 SLOAD DUP2 PUSH20 0xFFFFFFFFFFFFFFFFFFFFFFFFFFFFFFFFFFFFFFFF MUL NOT AND SWAP1 DUP4 PUSH20 0xFFFFFFFFFFFFFFFFFFFFFFFFFFFFFFFFFFFFFFFF AND MUL OR SWAP1 SSTORE POP DUP2 DUP4 PUSH20 0xFFFFFFFFFFFFFFFFFFFFFFFFFFFFFFFFFFFFFFFF AND DUP3 PUSH20 0xFFFFFFFFFFFFFFFFFFFFFFFFFFFFFFFFFFFFFFFF AND PUSH32 0x8C5BE1E5EBEC7D5BD14F71427D1E84F3DD0314C0F7B2291E5B200AC8C7C3B925 PUSH1 0x40 MLOAD PUSH1 0x40 MLOAD DUP1 SWAP2 SUB SWAP1 LOG4 POP POP POP JUMP JUMPDEST PUSH0 DUP1 DUP3 DUP2 MSTORE PUSH1 0x20 ADD SWAP1 DUP2 MSTORE PUSH1 0x20 ADD PUSH0 KECCAK256 PUSH0 SWAP1 SLOAD SWAP1 PUSH2 0x100 EXP SWAP1 DIV PUSH20 0xFFFFFFFFFFFFFFFFFFFFFFFFFFFFFFFFFFFFFFFF AND PUSH20 0xFFFFFFFFFFFFFFFFFFFFFFFFFFFFFFFFFFFFFFFF AND DUP4 PUSH20 0xFFFFFFFFFFFFFFFFFFFFFFFFFFFFFFFFFFFFFFFF AND EQ PUSH2 0x56B JUMPI PUSH1 0x40 MLOAD PUSH32 0x8C379A000000000000000000000000000000000000000000000000000000000 DUP2 MSTORE PUSH1 0x4 ADD PUSH2 0x562 SWAP1 PUSH2 0x13BF JUMP JUMPDEST PUSH1 0x40 MLOAD DUP1 SWAP2 SUB SWAP1 REVERT JUMPDEST PUSH0 PUSH20 0xFFFFFFFFFFFFFFFFFFFFFFFFFFFFFFFFFFFFFFFF AND DUP3 PUSH20 0xFFFFFFFFFFFFFFFFFFFFFFFFFFFFFFFFFFFFFFFF AND SUB PUSH2 0x5D9 JUMPI PUSH1 0x40 MLOAD PUSH32 0x8C379A000000000000000000000000000000000000000000000000000000000 DUP2 MSTORE PUSH1 0x4 ADD PUSH2 0x5D0 SWAP1 PUSH2 0x1427 JUMP JUMPDEST PUSH1 0x40 MLOAD DUP1 SWAP2 SUB SWAP1 REVERT JUMPDEST PUSH2 0x5E4 DUP4 CALLER DUP4 PUSH2 0xD63 JUMP JUMPDEST PUSH2 0x623 JUMPI PUSH1 0x40 MLOAD PUSH32 0x8C379A000000000000000000000000000000000000000000000000000000000 DUP2 MSTORE PUSH1 0x4 ADD PUSH2 0x61A SWAP1 PUSH2 0x1357 JUMP JUMPDEST PUSH1 0x40 MLOAD DUP1 SWAP2 SUB SWAP1 REVERT JUMPDEST PUSH1 0x1 PUSH0 DUP5 PUSH20 0xFFFFFFFFFFFFFFFFFFFFFFFFFFFFFFFFFFFFFFFF AND PUSH20 0xFFFFFFFFFFFFFFFFFFFFFFFFFFFFFFFFFFFFFFFF AND DUP2 MSTORE PUSH1 0x20 ADD SWAP1 DUP2 MSTORE PUSH1 0x20 ADD PUSH0 KECCAK256 PUSH0 DUP2 SLOAD DUP1 SWAP3 SWAP2 SWAP1 PUSH2 0x670 SWAP1 PUSH2 0x1472 JUMP JUMPDEST SWAP2 SWAP1 POP SSTORE POP PUSH1 0x1 PUSH0 DUP4 PUSH20 0xFFFFFFFFFFFFFFFFFFFFFFFFFFFFFFFFFFFFFFFF AND PUSH20 0xFFFFFFFFFFFFFFFFFFFFFFFFFFFFFFFFFFFFFFFF AND DUP2 MSTORE PUSH1 0x20 ADD SWAP1 DUP2 MSTORE PUSH1 0x20 ADD PUSH0 KECCAK256 PUSH0 DUP2 SLOAD DUP1 SWAP3 SWAP2 SWAP1 PUSH2 0x6C2 SWAP1 PUSH2 0x1499 JUMP JUMPDEST SWAP2 SWAP1 POP SSTORE POP DUP2 PUSH0 DUP1 DUP4 DUP2 MSTORE PUSH1 0x20 ADD SWAP1 DUP2 MSTORE PUSH1 0x20 ADD PUSH0 KECCAK256 PUSH0 PUSH2 0x100 EXP DUP2 SLOAD DUP2 PUSH20 0xFFFFFFFFFFFFFFFFFFFFFFFFFFFFFFFFFFFFFFFF MUL NOT AND SWAP1 DUP4 PUSH20 0xFFFFFFFFFFFFFFFFFFFFFFFFFFFFFFFFFFFFFFFF AND MUL OR SWAP1 SSTORE POP PUSH1 0x2 PUSH0 DUP3 DUP2 MSTORE PUSH1 0x20 ADD SWAP1 DUP2 MSTORE PUSH1 0x20 ADD PUSH0 KECCAK256 PUSH0 PUSH2 0x100 EXP DUP2 SLOAD SWAP1 PUSH20 0xFFFFFFFFFFFFFFFFFFFFFFFFFFFFFFFFFFFFFFFF MUL NOT AND SWAP1 SSTORE DUP1 DUP3 PUSH20 0xFFFFFFFFFFFFFFFFFFFFFFFFFFFFFFFFFFFFFFFF AND DUP5 PUSH20 0xFFFFFFFFFFFFFFFFFFFFFFFFFFFFFFFFFFFFFFFF AND PUSH32 0xDDF252AD1BE2C89B69C2B068FC378DAA952BA7F163C4A11628F55A4DF523B3EF PUSH1 0x40 MLOAD PUSH1 0x40 MLOAD DUP1 SWAP2 SUB SWAP1 LOG4 POP POP POP JUMP JUMPDEST PUSH2 0x7B3 DUP4 DUP4 DUP4 PUSH2 0x4CE JUMP JUMPDEST PUSH0 DUP3 PUSH20 0xFFFFFFFFFFFFFFFFFFFFFFFFFFFFFFFFFFFFFFFF AND EXTCODESIZE EQ DUP1 PUSH2 0x898 JUMPI POP PUSH4 0x150B7A02 PUSH1 0xE0 SHL PUSH28 0xFFFFFFFFFFFFFFFFFFFFFFFFFFFFFFFFFFFFFFFFFFFFFFFFFFFFFFFF NOT AND DUP3 PUSH20 0xFFFFFFFFFFFFFFFFFFFFFFFFFFFFFFFFFFFFFFFF AND PUSH4 0x150B7A02 CALLER DUP7 DUP6 PUSH1 0x40 MLOAD DUP5 PUSH4 0xFFFFFFFF AND PUSH1 0xE0 SHL DUP2 MSTORE PUSH1 0x4 ADD PUSH2 0x837 SWAP4 SWAP3 SWAP2 SWAP1 PUSH2 0x1513 JUMP JUMPDEST PUSH1 0x20 PUSH1 0x40 MLOAD DUP1 DUP4 SUB DUP2 PUSH0 DUP8 GAS CALL ISZERO DUP1 ISZERO PUSH2 0x853 JUMPI RETURNDATASIZE PUSH0 DUP1 RETURNDATACOPY RETURNDATASIZE PUSH0 REVERT JUMPDEST POP POP POP POP PUSH1 0x40 MLOAD RETURNDATASIZE PUSH1 0x1F NOT PUSH1 0x1F DUP3 ADD AND DUP3 ADD DUP1 PUSH1 0x40 MSTORE POP DUP2 ADD SWAP1 PUSH2 0x877 SWAP2 SWAP1 PUSH2 0x156F JUMP JUMPDEST PUSH28 0xFFFFFFFFFFFFFFFFFFFFFFFFFFFFFFFFFFFFFFFFFFFFFFFFFFFFFFFF NOT AND EQ JUMPDEST PUSH2 0x8D7 JUMPI PUSH1 0x40 MLOAD PUSH32 0x8C379A000000000000000000000000000000000000000000000000000000000 DUP2 MSTORE PUSH1 0x4 ADD PUSH2 0x8CE SWAP1 PUSH2 0x15E4 JUMP JUMPDEST PUSH1 0x40 MLOAD DUP1 SWAP2 SUB SWAP1 REVERT JUMPDEST POP POP POP JUMP JUMPDEST PUSH0 DUP1 PUSH0 DUP4 DUP2 MSTORE PUSH1 0x20 ADD SWAP1 DUP2 MSTORE PUSH1 0x20 ADD PUSH0 KECCAK256 PUSH0 SWAP1 SLOAD SWAP1 PUSH2 0x100 EXP SWAP1 DIV PUSH20 0xFFFFFFFFFFFFFFFFFFFFFFFFFFFFFFFFFFFFFFFF AND SWAP1 POP PUSH0 PUSH20 0xFFFFFFFFFFFFFFFFFFFFFFFFFFFFFFFFFFFFFFFF AND DUP2 PUSH20 0xFFFFFFFFFFFFFFFFFFFFFFFFFFFFFFFFFFFFFFFF AND SUB PUSH2 0x97D JUMPI PUSH1 0x40 MLOAD PUSH32 0x8C379A000000000000000000000000000000000000000000000000000000000 DUP2 MSTORE PUSH1 0x4 ADD PUSH2 0x974 SWAP1 PUSH2 0x164C JUMP JUMPDEST PUSH1 0x40 MLOAD DUP1 SWAP2 SUB SWAP1 REVERT JUMPDEST SWAP2 SWAP1 POP JUMP JUMPDEST PUSH0 DUP1 PUSH20 0xFFFFFFFFFFFFFFFFFFFFFFFFFFFFFFFFFFFFFFFF AND DUP3 PUSH20 0xFFFFFFFFFFFFFFFFFFFFFFFFFFFFFFFFFFFFFFFF AND SUB PUSH2 0x9F1 JUMPI PUSH1 0x40 MLOAD PUSH32 0x8C379A000000000000000000000000000000000000000000000000000000000 DUP2 MSTORE PUSH1 0x4 ADD PUSH2 0x9E8 SWAP1 PUSH2 0x164C JUMP JUMPDEST PUSH1 0x40 MLOAD DUP1 SWAP2 SUB SWAP1 REVERT JUMPDEST PUSH1 0x1 PUSH0 DUP4 PUSH20 0xFFFFFFFFFFFFFFFFFFFFFFFFFFFFFFFFFFFFFFFF AND PUSH20 0xFFFFFFFFFFFFFFFFFFFFFFFFFFFFFFFFFFFFFFFF AND DUP2 MSTORE PUSH1 0x20 ADD SWAP1 DUP2 MSTORE PUSH1 0x20 ADD PUSH0 KECCAK256 SLOAD SWAP1 POP SWAP2 SWAP1 POP JUMP JUMPDEST PUSH0 PUSH32 0xC22876C300000000000000000000000000000000000000000000000000000000 PUSH28 0xFFFFFFFFFFFFFFFFFFFFFFFFFFFFFFFFFFFFFFFFFFFFFFFFFFFFFFFF NOT AND DUP3 PUSH28 0xFFFFFFFFFFFFFFFFFFFFFFFFFFFFFFFFFFFFFFFFFFFFFFFFFFFFFFFF NOT AND EQ DUP1 PUSH2 0xB00 JUMPI POP PUSH32 0x75E79BE600000000000000000000000000000000000000000000000000000000 PUSH28 0xFFFFFFFFFFFFFFFFFFFFFFFFFFFFFFFFFFFFFFFFFFFFFFFFFFFFFFFF NOT AND DUP3 PUSH28 0xFFFFFFFFFFFFFFFFFFFFFFFFFFFFFFFFFFFFFFFFFFFFFFFFFFFFFFFF NOT AND EQ JUMPDEST SWAP1 POP SWAP2 SWAP1 POP JUMP JUMPDEST DUP1 PUSH1 0x3 PUSH0 CALLER PUSH20 0xFFFFFFFFFFFFFFFFFFFFFFFFFFFFFFFFFFFFFFFF AND PUSH20 0xFFFFFFFFFFFFFFFFFFFFFFFFFFFFFFFFFFFFFFFF AND DUP2 MSTORE PUSH1 0x20 ADD SWAP1 DUP2 MSTORE PUSH1 0x20 ADD PUSH0 KECCAK256 PUSH0 DUP5 PUSH20 0xFFFFFFFFFFFFFFFFFFFFFFFFFFFFFFFFFFFFFFFF AND PUSH20 0xFFFFFFFFFFFFFFFFFFFFFFFFFFFFFFFFFFFFFFFF AND DUP2 MSTORE PUSH1 0x20 ADD SWAP1 DUP2 MSTORE PUSH1 0x20 ADD PUSH0 KECCAK256 PUSH0 PUSH2 0x100 EXP DUP2 SLOAD DUP2 PUSH1 0xFF MUL NOT AND SWAP1 DUP4 ISZERO ISZERO MUL OR SWAP1 SSTORE POP DUP2 PUSH20 0xFFFFFFFFFFFFFFFFFFFFFFFFFFFFFFFFFFFFFFFF AND CALLER PUSH20 0xFFFFFFFFFFFFFFFFFFFFFFFFFFFFFFFFFFFFFFFF AND PUSH32 0x17307EAB39AB6107E8899845AD3D59BD9653F200F220920489CA2B5937696C31 DUP4 PUSH1 0x40 MLOAD PUSH2 0xBF3 SWAP2 SWAP1 PUSH2 0x10F1 JUMP JUMPDEST PUSH1 0x40 MLOAD DUP1 SWAP2 SUB SWAP1 LOG3 POP POP JUMP JUMPDEST PUSH2 0xC0A DUP6 DUP6 DUP6 PUSH2 0x4CE JUMP JUMPDEST PUSH0 DUP5 PUSH20 0xFFFFFFFFFFFFFFFFFFFFFFFFFFFFFFFFFFFFFFFF AND EXTCODESIZE EQ DUP1 PUSH2 0xCF3 JUMPI POP PUSH4 0x150B7A02 PUSH1 0xE0 SHL PUSH28 0xFFFFFFFFFFFFFFFFFFFFFFFFFFFFFFFFFFFFFFFFFFFFFFFFFFFFFFFF NOT AND DUP5 PUSH20 0xFFFFFFFFFFFFFFFFFFFFFFFFFFFFFFFFFFFFFFFF AND PUSH4 0x150B7A02 CALLER DUP9 DUP8 DUP8 DUP8 PUSH1 0x40 MLOAD DUP7 PUSH4 0xFFFFFFFF AND PUSH1 0xE0 SHL DUP2 MSTORE PUSH1 0x4 ADD PUSH2 0xC92 SWAP6 SWAP5 SWAP4 SWAP3 SWAP2 SWAP1 PUSH2 0x16B4 JUMP JUMPDEST PUSH1 0x20 PUSH1 0x40 MLOAD DUP1 DUP4 SUB DUP2 PUSH0 DUP8 GAS CALL ISZERO DUP1 ISZERO PUSH2 0xCAE JUMPI RETURNDATASIZE PUSH0 DUP1 RETURNDATACOPY RETURNDATASIZE PUSH0 REVERT JUMPDEST POP POP POP POP PUSH1 0x40 MLOAD RETURNDATASIZE PUSH1 0x1F NOT PUSH1 0x1F DUP3 ADD AND DUP3 ADD DUP1 PUSH1 0x40 MSTORE POP DUP2 ADD SWAP1 PUSH2 0xCD2 SWAP2 SWAP1 PUSH2 0x156F JUMP JUMPDEST PUSH28 0xFFFFFFFFFFFFFFFFFFFFFFFFFFFFFFFFFFFFFFFFFFFFFFFFFFFFFFFF NOT AND EQ JUMPDEST PUSH2 0xD32 JUMPI PUSH1 0x40 MLOAD PUSH32 0x8C379A000000000000000000000000000000000000000000000000000000000 DUP2 MSTORE PUSH1 0x4 ADD PUSH2 0xD29 SWAP1 PUSH2 0x15E4 JUMP JUMPDEST PUSH1 0x40 MLOAD DUP1 SWAP2 SUB SWAP1 REVERT JUMPDEST POP POP POP POP POP JUMP JUMPDEST PUSH1 0x3 PUSH1 0x20 MSTORE DUP2 PUSH0 MSTORE PUSH1 0x40 PUSH0 KECCAK256 PUSH1 0x20 MSTORE DUP1 PUSH0 MSTORE PUSH1 0x40 PUSH0 KECCAK256 PUSH0 SWAP2 POP SWAP2 POP SWAP1 SLOAD SWAP1 PUSH2 0x100 EXP SWAP1 DIV PUSH1 0xFF AND DUP2 JUMP JUMPDEST PUSH0 DUP4 PUSH20 0xFFFFFFFFFFFFFFFFFFFFFFFFFFFFFFFFFFFFFFFF AND DUP4 PUSH20 0xFFFFFFFFFFFFFFFFFFFFFFFFFFFFFFFFFFFFFFFF AND EQ DUP1 PUSH2 0xE1F JUMPI POP PUSH1 0x3 PUSH0 DUP6 PUSH20 0xFFFFFFFFFFFFFFFFFFFFFFFFFFFFFFFFFFFFFFFF AND PUSH20 0xFFFFFFFFFFFFFFFFFFFFFFFFFFFFFFFFFFFFFFFF AND DUP2 MSTORE PUSH1 0x20 ADD SWAP1 DUP2 MSTORE PUSH1 0x20 ADD PUSH0 KECCAK256 PUSH0 DUP5 PUSH20 0xFFFFFFFFFFFFFFFFFFFFFFFFFFFFFFFFFFFFFFFF AND PUSH20 0xFFFFFFFFFFFFFFFFFFFFFFFFFFFFFFFFFFFFFFFF AND DUP2 MSTORE PUSH1 0x20 ADD SWAP1 DUP2 MSTORE PUSH1 0x20 ADD PUSH0 KECCAK256 PUSH0 SWAP1 SLOAD SWAP1 PUSH2 0x100 EXP SWAP1 DIV PUSH1 0xFF AND JUMPDEST DUP1 PUSH2 0xE85 JUMPI POP PUSH1 0x2 PUSH0 DUP4 DUP2 MSTORE PUSH1 0x20 ADD SWAP1 DUP2 MSTORE PUSH1 0x20 ADD PUSH0 KECCAK256 PUSH0 SWAP1 SLOAD SWAP1 PUSH2 0x100 EXP SWAP1 DIV PUSH20 0xFFFFFFFFFFFFFFFFFFFFFFFFFFFFFFFFFFFFFFFF AND PUSH20 0xFFFFFFFFFFFFFFFFFFFFFFFFFFFFFFFFFFFFFFFF AND DUP4 PUSH20 0xFFFFFFFFFFFFFFFFFFFFFFFFFFFFFFFFFFFFFFFF AND EQ JUMPDEST SWAP1 POP SWAP4 SWAP3 POP POP POP JUMP JUMPDEST PUSH0 DUP1 REVERT JUMPDEST PUSH0 DUP1 REVERT JUMPDEST PUSH0 DUP2 SWAP1 POP SWAP2 SWAP1 POP JUMP JUMPDEST PUSH2 0xEA8 DUP2 PUSH2 0xE96 JUMP JUMPDEST DUP2 EQ PUSH2 0xEB2 JUMPI PUSH0 DUP1 REVERT JUMPDEST POP JUMP JUMPDEST PUSH0 DUP2 CALLDATALOAD SWAP1 POP PUSH2 0xEC3 DUP2 PUSH2 0xE9F JUMP JUMPDEST SWAP3 SWAP2 POP POP JUMP JUMPDEST PUSH0 PUSH1 0x20 DUP3 DUP5 SUB SLT ISZERO PUSH2 0xEDE JUMPI PUSH2 0xEDD PUSH2 0xE8E JUMP JUMPDEST JUMPDEST PUSH0 PUSH2 0xEEB DUP5 DUP3 DUP6 ADD PUSH2 0xEB5 JUMP JUMPDEST SWAP2 POP POP SWAP3 SWAP2 POP POP JUMP JUMPDEST PUSH0 PUSH20 0xFFFFFFFFFFFFFFFFFFFFFFFFFFFFFFFFFFFFFFFF DUP3 AND SWAP1 POP SWAP2 SWAP1 POP JUMP JUMPDEST PUSH0 PUSH2 0xF1D DUP3 PUSH2 0xEF4 JUMP JUMPDEST SWAP1 POP SWAP2 SWAP1 POP JUMP JUMPDEST PUSH2 0xF2D DUP2 PUSH2 0xF13 JUMP JUMPDEST DUP3 MSTORE POP POP JUMP JUMPDEST PUSH0 PUSH1 0x20 DUP3 ADD SWAP1 POP PUSH2 0xF46 PUSH0 DUP4 ADD DUP5 PUSH2 0xF24 JUMP JUMPDEST SWAP3 SWAP2 POP POP JUMP JUMPDEST PUSH2 0xF55 DUP2 PUSH2 0xF13 JUMP JUMPDEST DUP2 EQ PUSH2 0xF5F JUMPI PUSH0 DUP1 REVERT JUMPDEST POP JUMP JUMPDEST PUSH0 DUP2 CALLDATALOAD SWAP1 POP PUSH2 0xF70 DUP2 PUSH2 0xF4C JUMP JUMPDEST SWAP3 SWAP2 POP POP JUMP JUMPDEST PUSH0 DUP1 PUSH1 0x40 DUP4 DUP6 SUB SLT ISZERO PUSH2 0xF8C JUMPI PUSH2 0xF8B PUSH2 0xE8E JUMP JUMPDEST JUMPDEST PUSH0 PUSH2 0xF99 DUP6 DUP3 DUP7 ADD PUSH2 0xF62 JUMP JUMPDEST SWAP3 POP POP PUSH1 0x20 PUSH2 0xFAA DUP6 DUP3 DUP7 ADD PUSH2 0xEB5 JUMP JUMPDEST SWAP2 POP POP SWAP3 POP SWAP3 SWAP1 POP JUMP JUMPDEST PUSH0 DUP1 PUSH0 PUSH1 0x60 DUP5 DUP7 SUB SLT ISZERO PUSH2 0xFCB JUMPI PUSH2 0xFCA PUSH2 0xE8E JUMP JUMPDEST JUMPDEST PUSH0 PUSH2 0xFD8 DUP7 DUP3 DUP8 ADD PUSH2 0xF62 JUMP JUMPDEST SWAP4 POP POP PUSH1 0x20 PUSH2 0xFE9 DUP7 DUP3 DUP8 ADD PUSH2 0xF62 JUMP JUMPDEST SWAP3 POP POP PUSH1 0x40 PUSH2 0xFFA DUP7 DUP3 DUP8 ADD PUSH2 0xEB5 JUMP JUMPDEST SWAP2 POP POP SWAP3 POP SWAP3 POP SWAP3 JUMP JUMPDEST PUSH0 PUSH1 0x20 DUP3 DUP5 SUB SLT ISZERO PUSH2 0x1019 JUMPI PUSH2 0x1018 PUSH2 0xE8E JUMP JUMPDEST JUMPDEST PUSH0 PUSH2 0x1026 DUP5 DUP3 DUP6 ADD PUSH2 0xF62 JUMP JUMPDEST SWAP2 POP POP SWAP3 SWAP2 POP POP JUMP JUMPDEST PUSH2 0x1038 DUP2 PUSH2 0xE96 JUMP JUMPDEST DUP3 MSTORE POP POP JUMP JUMPDEST PUSH0 PUSH1 0x20 DUP3 ADD SWAP1 POP PUSH2 0x1051 PUSH0 DUP4 ADD DUP5 PUSH2 0x102F JUMP JUMPDEST SWAP3 SWAP2 POP POP JUMP JUMPDEST PUSH0 PUSH32 0xFFFFFFFF00000000000000000000000000000000000000000000000000000000 DUP3 AND SWAP1 POP SWAP2 SWAP1 POP JUMP JUMPDEST PUSH2 0x108B DUP2 PUSH2 0x1057 JUMP JUMPDEST DUP2 EQ PUSH2 0x1095 JUMPI PUSH0 DUP1 REVERT JUMPDEST POP JUMP JUMPDEST PUSH0 DUP2 CALLDATALOAD SWAP1 POP PUSH2 0x10A6 DUP2 PUSH2 0x1082 JUMP JUMPDEST SWAP3 SWAP2 POP POP JUMP JUMPDEST PUSH0 PUSH1 0x20 DUP3 DUP5 SUB SLT ISZERO PUSH2 0x10C1 JUMPI PUSH2 0x10C0 PUSH2 0xE8E JUMP JUMPDEST JUMPDEST PUSH0 PUSH2 0x10CE DUP5 DUP3 DUP6 ADD PUSH2 0x1098 JUMP JUMPDEST SWAP2 POP POP SWAP3 SWAP2 POP POP JUMP JUMPDEST PUSH0 DUP2 ISZERO ISZERO SWAP1 POP SWAP2 SWAP1 POP JUMP JUMPDEST PUSH2 0x10EB DUP2 PUSH2 0x10D7 JUMP JUMPDEST DUP3 MSTORE POP POP JUMP JUMPDEST PUSH0 PUSH1 0x20 DUP3 ADD SWAP1 POP PUSH2 0x1104 PUSH0 DUP4 ADD DUP5 PUSH2 0x10E2 JUMP JUMPDEST SWAP3 SWAP2 POP POP JUMP JUMPDEST PUSH2 0x1113 DUP2 PUSH2 0x10D7 JUMP JUMPDEST DUP2 EQ PUSH2 0x111D JUMPI PUSH0 DUP1 REVERT JUMPDEST POP JUMP JUMPDEST PUSH0 DUP2 CALLDATALOAD SWAP1 POP PUSH2 0x112E DUP2 PUSH2 0x110A JUMP JUMPDEST SWAP3 SWAP2 POP POP JUMP JUMPDEST PUSH0 DUP1 PUSH1 0x40 DUP4 DUP6 SUB SLT ISZERO PUSH2 0x114A JUMPI PUSH2 0x1149 PUSH2 0xE8E JUMP JUMPDEST JUMPDEST PUSH0 PUSH2 0x1157 DUP6 DUP3 DUP7 ADD PUSH2 0xF62 JUMP JUMPDEST SWAP3 POP POP PUSH1 0x20 PUSH2 0x1168 DUP6 DUP3 DUP7 ADD PUSH2 0x1120 JUMP JUMPDEST SWAP2 POP POP SWAP3 POP SWAP3 SWAP1 POP JUMP JUMPDEST PUSH0 DUP1 REVERT JUMPDEST PUSH0 DUP1 REVERT JUMPDEST PUSH0 DUP1 REVERT JUMPDEST PUSH0 DUP1 DUP4 PUSH1 0x1F DUP5 ADD SLT PUSH2 0x1193 JUMPI PUSH2 0x1192 PUSH2 0x1172 JUMP JUMPDEST JUMPDEST DUP3 CALLDATALOAD SWAP1 POP PUSH8 0xFFFFFFFFFFFFFFFF DUP2 GT ISZERO PUSH2 0x11B0 JUMPI PUSH2 0x11AF PUSH2 0x1176 JUMP JUMPDEST JUMPDEST PUSH1 0x20 DUP4 ADD SWAP2 POP DUP4 PUSH1 0x1 DUP3 MUL DUP4 ADD GT ISZERO PUSH2 0x11CC JUMPI PUSH2 0x11CB PUSH2 0x117A JUMP JUMPDEST JUMPDEST SWAP3 POP SWAP3 SWAP1 POP JUMP JUMPDEST PUSH0 DUP1 PUSH0 DUP1 PUSH0 PUSH1 0x80 DUP7 DUP9 SUB SLT ISZERO PUSH2 0x11EC JUMPI PUSH2 0x11EB PUSH2 0xE8E JUMP JUMPDEST JUMPDEST PUSH0 PUSH2 0x11F9 DUP9 DUP3 DUP10 ADD PUSH2 0xF62 JUMP JUMPDEST SWAP6 POP POP PUSH1 0x20 PUSH2 0x120A DUP9 DUP3 DUP10 ADD PUSH2 0xF62 JUMP JUMPDEST SWAP5 POP POP PUSH1 0x40 PUSH2 0x121B DUP9 DUP3 DUP10 ADD PUSH2 0xEB5 JUMP JUMPDEST SWAP4 POP POP PUSH1 0x60 DUP7 ADD CALLDATALOAD PUSH8 0xFFFFFFFFFFFFFFFF DUP2 GT ISZERO PUSH2 0x123C JUMPI PUSH2 0x123B PUSH2 0xE92 JUMP JUMPDEST JUMPDEST PUSH2 0x1248 DUP9 DUP3 DUP10 ADD PUSH2 0x117E JUMP JUMPDEST SWAP3 POP SWAP3 POP POP SWAP3 SWAP6 POP SWAP3 SWAP6 SWAP1 SWAP4 POP JUMP JUMPDEST PUSH0 DUP1 PUSH1 0x40 DUP4 DUP6 SUB SLT ISZERO PUSH2 0x126D JUMPI PUSH2 0x126C PUSH2 0xE8E JUMP JUMPDEST JUMPDEST PUSH0 PUSH2 0x127A DUP6 DUP3 DUP7 ADD PUSH2 0xF62 JUMP JUMPDEST SWAP3 POP POP PUSH1 0x20 PUSH2 0x128B DUP6 DUP3 DUP7 ADD PUSH2 0xF62 JUMP JUMPDEST SWAP2 POP POP SWAP3 POP SWAP3 SWAP1 POP JUMP JUMPDEST PUSH0 DUP3 DUP3 MSTORE PUSH1 0x20 DUP3 ADD SWAP1 POP SWAP3 SWAP2 POP POP JUMP JUMPDEST PUSH32 0x746F6B656E4964206973206E6F74206578697374000000000000000000000000 PUSH0 DUP3 ADD MSTORE POP JUMP JUMPDEST PUSH0 PUSH2 0x12D9 PUSH1 0x14 DUP4 PUSH2 0x1295 JUMP JUMPDEST SWAP2 POP PUSH2 0x12E4 DUP3 PUSH2 0x12A5 JUMP JUMPDEST PUSH1 0x20 DUP3 ADD SWAP1 POP SWAP2 SWAP1 POP JUMP JUMPDEST PUSH0 PUSH1 0x20 DUP3 ADD SWAP1 POP DUP2 DUP2 SUB PUSH0 DUP4 ADD MSTORE PUSH2 0x1306 DUP2 PUSH2 0x12CD JUMP JUMPDEST SWAP1 POP SWAP2 SWAP1 POP JUMP JUMPDEST PUSH32 0x6E6F7420617574686F72697A6564000000000000000000000000000000000000 PUSH0 DUP3 ADD MSTORE POP JUMP JUMPDEST PUSH0 PUSH2 0x1341 PUSH1 0xE DUP4 PUSH2 0x1295 JUMP JUMPDEST SWAP2 POP PUSH2 0x134C DUP3 PUSH2 0x130D JUMP JUMPDEST PUSH1 0x20 DUP3 ADD SWAP1 POP SWAP2 SWAP1 POP JUMP JUMPDEST PUSH0 PUSH1 0x20 DUP3 ADD SWAP1 POP DUP2 DUP2 SUB PUSH0 DUP4 ADD MSTORE PUSH2 0x136E DUP2 PUSH2 0x1335 JUMP JUMPDEST SWAP1 POP SWAP2 SWAP1 POP JUMP JUMPDEST PUSH32 0x66726F6D20213D206F776E657200000000000000000000000000000000000000 PUSH0 DUP3 ADD MSTORE POP JUMP JUMPDEST PUSH0 PUSH2 0x13A9 PUSH1 0xD DUP4 PUSH2 0x1295 JUMP JUMPDEST SWAP2 POP PUSH2 0x13B4 DUP3 PUSH2 0x1375 JUMP JUMPDEST PUSH1 0x20 DUP3 ADD SWAP1 POP SWAP2 SWAP1 POP JUMP JUMPDEST PUSH0 PUSH1 0x20 DUP3 ADD SWAP1 POP DUP2 DUP2 SUB PUSH0 DUP4 ADD MSTORE PUSH2 0x13D6 DUP2 PUSH2 0x139D JUMP JUMPDEST SWAP1 POP SWAP2 SWAP1 POP JUMP JUMPDEST PUSH32 0x746F203D207A65726F0000000000000000000000000000000000000000000000 PUSH0 DUP3 ADD MSTORE POP JUMP JUMPDEST PUSH0 PUSH2 0x1411 PUSH1 0x9 DUP4 PUSH2 0x1295 JUMP JUMPDEST SWAP2 POP PUSH2 0x141C DUP3 PUSH2 0x13DD JUMP JUMPDEST PUSH1 0x20 DUP3 ADD SWAP1 POP SWAP2 SWAP1 POP JUMP JUMPDEST PUSH0 PUSH1 0x20 DUP3 ADD SWAP1 POP DUP2 DUP2 SUB PUSH0 DUP4 ADD MSTORE PUSH2 0x143E DUP2 PUSH2 0x1405 JUMP JUMPDEST SWAP1 POP SWAP2 SWAP1 POP JUMP JUMPDEST PUSH32 0x4E487B7100000000000000000000000000000000000000000000000000000000 PUSH0 MSTORE PUSH1 0x11 PUSH1 0x4 MSTORE PUSH1 0x24 PUSH0 REVERT JUMPDEST PUSH0 PUSH2 0x147C DUP3 PUSH2 0xE96 JUMP JUMPDEST SWAP2 POP PUSH0 DUP3 SUB PUSH2 0x148E JUMPI PUSH2 0x148D PUSH2 0x1445 JUMP JUMPDEST JUMPDEST PUSH1 0x1 DUP3 SUB SWAP1 POP SWAP2 SWAP1 POP JUMP JUMPDEST PUSH0 PUSH2 0x14A3 DUP3 PUSH2 0xE96 JUMP JUMPDEST SWAP2 POP PUSH32 0xFFFFFFFFFFFFFFFFFFFFFFFFFFFFFFFFFFFFFFFFFFFFFFFFFFFFFFFFFFFFFFFF DUP3 SUB PUSH2 0x14D5 JUMPI PUSH2 0x14D4 PUSH2 0x1445 JUMP JUMPDEST JUMPDEST PUSH1 0x1 DUP3 ADD SWAP1 POP SWAP2 SWAP1 POP JUMP JUMPDEST PUSH0 DUP3 DUP3 MSTORE PUSH1 0x20 DUP3 ADD SWAP1 POP SWAP3 SWAP2 POP POP JUMP JUMPDEST POP JUMP JUMPDEST PUSH0 PUSH2 0x14FE PUSH0 DUP4 PUSH2 0x14E0 JUMP JUMPDEST SWAP2 POP PUSH2 0x1509 DUP3 PUSH2 0x14F0 JUMP JUMPDEST PUSH0 DUP3 ADD SWAP1 POP SWAP2 SWAP1 POP JUMP JUMPDEST PUSH0 PUSH1 0x80 DUP3 ADD SWAP1 POP PUSH2 0x1526 PUSH0 DUP4 ADD DUP7 PUSH2 0xF24 JUMP JUMPDEST PUSH2 0x1533 PUSH1 0x20 DUP4 ADD DUP6 PUSH2 0xF24 JUMP JUMPDEST PUSH2 0x1540 PUSH1 0x40 DUP4 ADD DUP5 PUSH2 0x102F JUMP JUMPDEST DUP2 DUP2 SUB PUSH1 0x60 DUP4 ADD MSTORE PUSH2 0x1551 DUP2 PUSH2 0x14F3 JUMP JUMPDEST SWAP1 POP SWAP5 SWAP4 POP POP POP POP JUMP JUMPDEST PUSH0 DUP2 MLOAD SWAP1 POP PUSH2 0x1569 DUP2 PUSH2 0x1082 JUMP JUMPDEST SWAP3 SWAP2 POP POP JUMP JUMPDEST PUSH0 PUSH1 0x20 DUP3 DUP5 SUB SLT ISZERO PUSH2 0x1584 JUMPI PUSH2 0x1583 PUSH2 0xE8E JUMP JUMPDEST JUMPDEST PUSH0 PUSH2 0x1591 DUP5 DUP3 DUP6 ADD PUSH2 0x155B JUMP JUMPDEST SWAP2 POP POP SWAP3 SWAP2 POP POP JUMP JUMPDEST PUSH32 0x756E736166652072656365697074000000000000000000000000000000000000 PUSH0 DUP3 ADD MSTORE POP JUMP JUMPDEST PUSH0 PUSH2 0x15CE PUSH1 0xE DUP4 PUSH2 0x1295 JUMP JUMPDEST SWAP2 POP PUSH2 0x15D9 DUP3 PUSH2 0x159A JUMP JUMPDEST PUSH1 0x20 DUP3 ADD SWAP1 POP SWAP2 SWAP1 POP JUMP JUMPDEST PUSH0 PUSH1 0x20 DUP3 ADD SWAP1 POP DUP2 DUP2 SUB PUSH0 DUP4 ADD MSTORE PUSH2 0x15FB DUP2 PUSH2 0x15C2 JUMP JUMPDEST SWAP1 POP SWAP2 SWAP1 POP JUMP JUMPDEST PUSH32 0x6F776E6572203D20616464726573732830290000000000000000000000000000 PUSH0 DUP3 ADD MSTORE POP JUMP JUMPDEST PUSH0 PUSH2 0x1636 PUSH1 0x12 DUP4 PUSH2 0x1295 JUMP JUMPDEST SWAP2 POP PUSH2 0x1641 DUP3 PUSH2 0x1602 JUMP JUMPDEST PUSH1 0x20 DUP3 ADD SWAP1 POP SWAP2 SWAP1 POP JUMP JUMPDEST PUSH0 PUSH1 0x20 DUP3 ADD SWAP1 POP DUP2 DUP2 SUB PUSH0 DUP4 ADD MSTORE PUSH2 0x1663 DUP2 PUSH2 0x162A JUMP JUMPDEST SWAP1 POP SWAP2 SWAP1 POP JUMP JUMPDEST DUP3 DUP2 DUP4 CALLDATACOPY PUSH0 DUP4 DUP4 ADD MSTORE POP POP POP JUMP JUMPDEST PUSH0 PUSH1 0x1F NOT PUSH1 0x1F DUP4 ADD AND SWAP1 POP SWAP2 SWAP1 POP JUMP JUMPDEST PUSH0 PUSH2 0x1693 DUP4 DUP6 PUSH2 0x14E0 JUMP JUMPDEST SWAP4 POP PUSH2 0x16A0 DUP4 DUP6 DUP5 PUSH2 0x166A JUMP JUMPDEST PUSH2 0x16A9 DUP4 PUSH2 0x1678 JUMP JUMPDEST DUP5 ADD SWAP1 POP SWAP4 SWAP3 POP POP POP JUMP JUMPDEST PUSH0 PUSH1 0x80 DUP3 ADD SWAP1 POP PUSH2 0x16C7 PUSH0 DUP4 ADD DUP9 PUSH2 0xF24 JUMP JUMPDEST PUSH2 0x16D4 PUSH1 0x20 DUP4 ADD DUP8 PUSH2 0xF24 JUMP JUMPDEST PUSH2 0x16E1 PUSH1 0x40 DUP4 ADD DUP7 PUSH2 0x102F JUMP JUMPDEST DUP2 DUP2 SUB PUSH1 0x60 DUP4 ADD MSTORE PUSH2 0x16F4 DUP2 DUP5 DUP7 PUSH2 0x1688 JUMP JUMPDEST SWAP1 POP SWAP7 SWAP6 POP POP POP POP POP POP JUMP INVALID LOG2 PUSH5 0x6970667358 0x22 SLT KECCAK256 0x24 PUSH18 0x193CBE50B4AE98AB1A9FC25C1C93AD862EC2 0xD5 0xC 0xCF 0xAD 0x1F 0xC LOG0 0x22 SHL 0x23 0x2A 0xBF PUSH5 0x736F6C6343 STOP ADDMOD BYTE STOP CALLER "
				},
				"gasEstimates": {
					"creation": {
						"codeDepositCost": "1188400",
						"executionCost": "1232",
						"totalCost": "1189632"
					},
					"external": {
						"approve(address,uint256)": "31497",
						"balanceOf(address)": "2864",
						"getApproved(uint256)": "5099",
						"isApprovedForAll(address,address)": "infinite",
						"ownerOf(uint256)": "3027",
						"safeTransferFrom(address,address,uint256)": "infinite",
						"safeTransferFrom(address,address,uint256,bytes)": "infinite",
						"setApprovalForAll(address,bool)": "infinite",
						"supportInterface(bytes4)": "697",
						"transferFrom(address,address,uint256)": "infinite"
					},
					"internal": {
						"_burn(uint256)": "infinite",
						"_isApprovedOrOwner(address,address,uint256)": "4639",
						"_mint(address,uint256)": "infinite"
					}
				},
				"methodIdentifiers": {
					"approve(address,uint256)": "095ea7b3",
					"balanceOf(address)": "70a08231",
					"getApproved(uint256)": "081812fc",
					"isApprovedForAll(address,address)": "e985e9c5",
					"ownerOf(uint256)": "6352211e",
					"safeTransferFrom(address,address,uint256)": "42842e0e",
					"safeTransferFrom(address,address,uint256,bytes)": "b88d4fde",
					"setApprovalForAll(address,bool)": "a22cb465",
					"supportInterface(bytes4)": "75e79be6",
					"transferFrom(address,address,uint256)": "23b872dd"
				}
			},
			"storageLayout": {
				"storage": [
					{
						"astId": 120,
						"contract": "IERC721.sol:ERC721",
						"label": "_ownerOf",
						"offset": 0,
						"slot": "0",
						"type": "t_mapping(t_uint256,t_address)"
					},
					{
						"astId": 124,
						"contract": "IERC721.sol:ERC721",
						"label": "_balanceOf",
						"offset": 0,
						"slot": "1",
						"type": "t_mapping(t_address,t_uint256)"
					},
					{
						"astId": 128,
						"contract": "IERC721.sol:ERC721",
						"label": "_approvals",
						"offset": 0,
						"slot": "2",
						"type": "t_mapping(t_uint256,t_address)"
					},
					{
						"astId": 134,
						"contract": "IERC721.sol:ERC721",
						"label": "isApprovedForAll",
						"offset": 0,
						"slot": "3",
						"type": "t_mapping(t_address,t_mapping(t_address,t_bool))"
					}
				],
				"types": {
					"t_address": {
						"encoding": "inplace",
						"label": "address",
						"numberOfBytes": "20"
					},
					"t_bool": {
						"encoding": "inplace",
						"label": "bool",
						"numberOfBytes": "1"
					},
					"t_mapping(t_address,t_bool)": {
						"encoding": "mapping",
						"key": "t_address",
						"label": "mapping(address => bool)",
						"numberOfBytes": "32",
						"value": "t_bool"
					},
					"t_mapping(t_address,t_mapping(t_address,t_bool))": {
						"encoding": "mapping",
						"key": "t_address",
						"label": "mapping(address => mapping(address => bool))",
						"numberOfBytes": "32",
						"value": "t_mapping(t_address,t_bool)"
					},
					"t_mapping(t_address,t_uint256)": {
						"encoding": "mapping",
						"key": "t_address",
						"label": "mapping(address => uint256)",
						"numberOfBytes": "32",
						"value": "t_uint256"
					},
					"t_mapping(t_uint256,t_address)": {
						"encoding": "mapping",
						"key": "t_uint256",
						"label": "mapping(uint256 => address)",
						"numberOfBytes": "32",
						"value": "t_address"
					},
					"t_uint256": {
						"encoding": "inplace",
						"label": "uint256",
						"numberOfBytes": "32"
					}
				}
			},
			"userdoc": {
				"kind": "user",
				"methods": {},
				"version": 1
			}
		}
	}
}