{
	"ArrayShift.sol": {
		"ArrayShift": {
			"abi": [
				{
					"inputs": [
						{
							"internalType": "uint256",
							"name": "",
							"type": "uint256"
						}
					],
					"name": "arr",
					"outputs": [
						{
							"internalType": "uint256",
							"name": "",
							"type": "uint256"
						}
					],
					"stateMutability": "view",
					"type": "function"
				},
				{
					"inputs": [],
					"name": "example",
					"outputs": [],
					"stateMutability": "nonpayable",
					"type": "function"
				},
				{
					"inputs": [
						{
							"internalType": "uint256",
							"name": "_index",
							"type": "uint256"
						}
					],
					"name": "remove",
					"outputs": [],
					"stateMutability": "nonpayable",
					"type": "function"
				},
				{
					"inputs": [],
					"name": "test",
					"outputs": [],
					"stateMutability": "nonpayable",
					"type": "function"
				}
			],
			"devdoc": {
				"kind": "dev",
				"methods": {},
				"version": 1
			},
			"evm": {
				"assembly": "    /* \"ArrayShift.sol\":57:850  contract ArrayShift {... */\n  mstore(0x40, 0x80)\n  callvalue\n  dup1\n  iszero\n  tag_1\n  jumpi\n  0x00\n  dup1\n  revert\ntag_1:\n  pop\n  dataSize(sub_0)\n  dup1\n  dataOffset(sub_0)\n  0x00\n  codecopy\n  0x00\n  return\nstop\n\nsub_0: assembly {\n        /* \"ArrayShift.sol\":57:850  contract ArrayShift {... */\n      mstore(0x40, 0x80)\n      callvalue\n      dup1\n      iszero\n      tag_1\n      jumpi\n      0x00\n      dup1\n      revert\n    tag_1:\n      pop\n      jumpi(tag_2, lt(calldatasize, 0x04))\n      shr(0xe0, calldataload(0x00))\n      dup1\n      0x4cc82215\n      eq\n      tag_3\n      jumpi\n      dup1\n      0x54353f2f\n      eq\n      tag_4\n      jumpi\n      dup1\n      0x71e5ee5f\n      eq\n      tag_5\n      jumpi\n      dup1\n      0xf8a8fd6d\n      eq\n      tag_6\n      jumpi\n    tag_2:\n      0x00\n      dup1\n      revert\n        /* \"ArrayShift.sol\":254:482  function remove(uint256 _index) public {... */\n    tag_3:\n      tag_7\n      0x04\n      dup1\n      calldatasize\n      sub\n      dup2\n      add\n      swap1\n      tag_8\n      swap2\n      swap1\n      tag_9\n      jump\t// in\n    tag_8:\n      tag_10\n      jump\t// in\n    tag_7:\n      stop\n        /* \"ArrayShift.sol\":110:201  function example() public {... */\n    tag_4:\n      tag_11\n      tag_12\n      jump\t// in\n    tag_11:\n      stop\n        /* \"ArrayShift.sol\":83:103  uint256[] public arr */\n    tag_5:\n      tag_13\n      0x04\n      dup1\n      calldatasize\n      sub\n      dup2\n      add\n      swap1\n      tag_14\n      swap2\n      swap1\n      tag_9\n      jump\t// in\n    tag_14:\n      tag_15\n      jump\t// in\n    tag_13:\n      mload(0x40)\n      tag_16\n      swap2\n      swap1\n      tag_17\n      jump\t// in\n    tag_16:\n      mload(0x40)\n      dup1\n      swap2\n      sub\n      swap1\n      return\n        /* \"ArrayShift.sol\":488:848  function test() external {... */\n    tag_6:\n      tag_18\n      tag_19\n      jump\t// in\n    tag_18:\n      stop\n        /* \"ArrayShift.sol\":254:482  function remove(uint256 _index) public {... */\n    tag_10:\n        /* \"ArrayShift.sol\":320:323  arr */\n      0x00\n        /* \"ArrayShift.sol\":320:330  arr.length */\n      dup1\n      sload\n      swap1\n      pop\n        /* \"ArrayShift.sol\":311:317  _index */\n      dup2\n        /* \"ArrayShift.sol\":311:330  _index < arr.length */\n      lt\n        /* \"ArrayShift.sol\":303:353  require(_index < arr.length, \"index out of bond!\") */\n      tag_21\n      jumpi\n      mload(0x40)\n      0x08c379a000000000000000000000000000000000000000000000000000000000\n      dup2\n      mstore\n      0x04\n      add\n      tag_22\n      swap1\n      tag_23\n      jump\t// in\n    tag_22:\n      mload(0x40)\n      dup1\n      swap2\n      sub\n      swap1\n      revert\n    tag_21:\n        /* \"ArrayShift.sol\":368:377  uint256 i */\n      0x00\n        /* \"ArrayShift.sol\":380:386  _index */\n      dup2\n        /* \"ArrayShift.sol\":368:386  uint256 i = _index */\n      swap1\n      pop\n        /* \"ArrayShift.sol\":363:457  for (uint256 i = _index; i < arr.length - 1; i++) {... */\n    tag_24:\n        /* \"ArrayShift.sol\":405:406  1 */\n      0x01\n        /* \"ArrayShift.sol\":392:395  arr */\n      0x00\n        /* \"ArrayShift.sol\":392:402  arr.length */\n      dup1\n      sload\n      swap1\n      pop\n        /* \"ArrayShift.sol\":392:406  arr.length - 1 */\n      tag_27\n      swap2\n      swap1\n      tag_28\n      jump\t// in\n    tag_27:\n        /* \"ArrayShift.sol\":388:389  i */\n      dup2\n        /* \"ArrayShift.sol\":388:406  i < arr.length - 1 */\n      lt\n        /* \"ArrayShift.sol\":363:457  for (uint256 i = _index; i < arr.length - 1; i++) {... */\n      iszero\n      tag_25\n      jumpi\n        /* \"ArrayShift.sol\":436:439  arr */\n      0x00\n        /* \"ArrayShift.sol\":444:445  1 */\n      0x01\n        /* \"ArrayShift.sol\":440:441  i */\n      dup3\n        /* \"ArrayShift.sol\":440:445  i + 1 */\n      tag_29\n      swap2\n      swap1\n      tag_30\n      jump\t// in\n    tag_29:\n        /* \"ArrayShift.sol\":436:446  arr[i + 1] */\n      dup2\n      sload\n      dup2\n      lt\n      tag_31\n      jumpi\n      tag_32\n      tag_33\n      jump\t// in\n    tag_32:\n    tag_31:\n      swap1\n      0x00\n      mstore\n      keccak256(0x00, 0x20)\n      add\n      sload\n        /* \"ArrayShift.sol\":427:430  arr */\n      0x00\n        /* \"ArrayShift.sol\":431:432  i */\n      dup3\n        /* \"ArrayShift.sol\":427:433  arr[i] */\n      dup2\n      sload\n      dup2\n      lt\n      tag_35\n      jumpi\n      tag_36\n      tag_33\n      jump\t// in\n    tag_36:\n    tag_35:\n      swap1\n      0x00\n      mstore\n      keccak256(0x00, 0x20)\n      add\n        /* \"ArrayShift.sol\":427:446  arr[i] = arr[i + 1] */\n      dup2\n      swap1\n      sstore\n      pop\n        /* \"ArrayShift.sol\":408:411  i++ */\n      dup1\n      dup1\n      0x01\n      add\n      swap2\n      pop\n      pop\n        /* \"ArrayShift.sol\":363:457  for (uint256 i = _index; i < arr.length - 1; i++) {... */\n      jump(tag_24)\n    tag_25:\n      pop\n        /* \"ArrayShift.sol\":466:469  arr */\n      0x00\n        /* \"ArrayShift.sol\":466:475  arr.pop() */\n      dup1\n      sload\n      dup1\n      tag_38\n      jumpi\n      tag_39\n      tag_40\n      jump\t// in\n    tag_39:\n    tag_38:\n      0x01\n      swap1\n      sub\n      dup2\n      dup2\n      swap1\n      0x00\n      mstore\n      keccak256(0x00, 0x20)\n      add\n      0x00\n      swap1\n      sstore\n      swap1\n      sstore\n        /* \"ArrayShift.sol\":254:482  function remove(uint256 _index) public {... */\n      pop\n      jump\t// out\n        /* \"ArrayShift.sol\":110:201  function example() public {... */\n    tag_12:\n        /* \"ArrayShift.sol\":146:161  arr = [1, 2, 3] */\n      mload(0x40)\n      dup1\n      0x60\n      add\n      0x40\n      mstore\n      dup1\n        /* \"ArrayShift.sol\":153:154  1 */\n      0x01\n        /* \"ArrayShift.sol\":146:161  arr = [1, 2, 3] */\n      0xff\n      and\n      dup2\n      mstore\n      0x20\n      add\n        /* \"ArrayShift.sol\":156:157  2 */\n      0x02\n        /* \"ArrayShift.sol\":146:161  arr = [1, 2, 3] */\n      0xff\n      and\n      dup2\n      mstore\n      0x20\n      add\n        /* \"ArrayShift.sol\":159:160  3 */\n      0x03\n        /* \"ArrayShift.sol\":146:161  arr = [1, 2, 3] */\n      0xff\n      and\n      dup2\n      mstore\n      pop\n        /* \"ArrayShift.sol\":146:149  arr */\n      0x00\n        /* \"ArrayShift.sol\":146:161  arr = [1, 2, 3] */\n      swap1\n      0x03\n      tag_43\n      swap3\n      swap2\n      swap1\n      tag_44\n      jump\t// in\n    tag_43:\n      pop\n        /* \"ArrayShift.sol\":178:181  arr */\n      0x00\n        /* \"ArrayShift.sol\":182:183  1 */\n      0x01\n        /* \"ArrayShift.sol\":178:184  arr[1] */\n      dup2\n      sload\n      dup2\n      lt\n      tag_45\n      jumpi\n      tag_46\n      tag_33\n      jump\t// in\n    tag_46:\n    tag_45:\n      swap1\n      0x00\n      mstore\n      keccak256(0x00, 0x20)\n      add\n        /* \"ArrayShift.sol\":171:184  delete arr[1] */\n      0x00\n      swap1\n      sstore\n        /* \"ArrayShift.sol\":110:201  function example() public {... */\n      jump\t// out\n        /* \"ArrayShift.sol\":83:103  uint256[] public arr */\n    tag_15:\n      0x00\n      dup2\n      dup2\n      sload\n      dup2\n      lt\n      tag_48\n      jumpi\n      0x00\n      dup1\n      revert\n    tag_48:\n      swap1\n      0x00\n      mstore\n      keccak256(0x00, 0x20)\n      add\n      0x00\n      swap2\n      pop\n      swap1\n      pop\n      sload\n      dup2\n      jump\t// out\n        /* \"ArrayShift.sol\":488:848  function test() external {... */\n    tag_19:\n        /* \"ArrayShift.sol\":523:544  arr = [1, 2, 3, 4, 5] */\n      mload(0x40)\n      dup1\n      0xa0\n      add\n      0x40\n      mstore\n      dup1\n        /* \"ArrayShift.sol\":530:531  1 */\n      0x01\n        /* \"ArrayShift.sol\":523:544  arr = [1, 2, 3, 4, 5] */\n      0xff\n      and\n      dup2\n      mstore\n      0x20\n      add\n        /* \"ArrayShift.sol\":533:534  2 */\n      0x02\n        /* \"ArrayShift.sol\":523:544  arr = [1, 2, 3, 4, 5] */\n      0xff\n      and\n      dup2\n      mstore\n      0x20\n      add\n        /* \"ArrayShift.sol\":536:537  3 */\n      0x03\n        /* \"ArrayShift.sol\":523:544  arr = [1, 2, 3, 4, 5] */\n      0xff\n      and\n      dup2\n      mstore\n      0x20\n      add\n        /* \"ArrayShift.sol\":539:540  4 */\n      0x04\n        /* \"ArrayShift.sol\":523:544  arr = [1, 2, 3, 4, 5] */\n      0xff\n      and\n      dup2\n      mstore\n      0x20\n      add\n        /* \"ArrayShift.sol\":542:543  5 */\n      0x05\n        /* \"ArrayShift.sol\":523:544  arr = [1, 2, 3, 4, 5] */\n      0xff\n      and\n      dup2\n      mstore\n      pop\n        /* \"ArrayShift.sol\":523:526  arr */\n      0x00\n        /* \"ArrayShift.sol\":523:544  arr = [1, 2, 3, 4, 5] */\n      swap1\n      0x05\n      tag_51\n      swap3\n      swap2\n      swap1\n      tag_52\n      jump\t// in\n    tag_51:\n      pop\n        /* \"ArrayShift.sol\":554:563  remove(2) */\n      tag_53\n        /* \"ArrayShift.sol\":561:562  2 */\n      0x02\n        /* \"ArrayShift.sol\":554:560  remove */\n      tag_10\n        /* \"ArrayShift.sol\":554:563  remove(2) */\n      jump\t// in\n    tag_53:\n        /* \"ArrayShift.sol\":619:620  1 */\n      0x01\n        /* \"ArrayShift.sol\":609:612  arr */\n      0x00\n        /* \"ArrayShift.sol\":613:614  0 */\n      dup1\n        /* \"ArrayShift.sol\":609:615  arr[0] */\n      dup2\n      sload\n      dup2\n      lt\n      tag_54\n      jumpi\n      tag_55\n      tag_33\n      jump\t// in\n    tag_55:\n    tag_54:\n      swap1\n      0x00\n      mstore\n      keccak256(0x00, 0x20)\n      add\n      sload\n        /* \"ArrayShift.sol\":609:620  arr[0] == 1 */\n      eq\n        /* \"ArrayShift.sol\":602:621  assert(arr[0] == 1) */\n      tag_57\n      jumpi\n      tag_58\n      tag_59\n      jump\t// in\n    tag_58:\n    tag_57:\n        /* \"ArrayShift.sol\":648:649  2 */\n      0x02\n        /* \"ArrayShift.sol\":638:641  arr */\n      0x00\n        /* \"ArrayShift.sol\":642:643  1 */\n      0x01\n        /* \"ArrayShift.sol\":638:644  arr[1] */\n      dup2\n      sload\n      dup2\n      lt\n      tag_60\n      jumpi\n      tag_61\n      tag_33\n      jump\t// in\n    tag_61:\n    tag_60:\n      swap1\n      0x00\n      mstore\n      keccak256(0x00, 0x20)\n      add\n      sload\n        /* \"ArrayShift.sol\":638:649  arr[1] == 2 */\n      eq\n        /* \"ArrayShift.sol\":631:650  assert(arr[1] == 2) */\n      tag_63\n      jumpi\n      tag_64\n      tag_59\n      jump\t// in\n    tag_64:\n    tag_63:\n        /* \"ArrayShift.sol\":677:678  4 */\n      0x04\n        /* \"ArrayShift.sol\":667:670  arr */\n      0x00\n        /* \"ArrayShift.sol\":671:672  2 */\n      0x02\n        /* \"ArrayShift.sol\":667:673  arr[2] */\n      dup2\n      sload\n      dup2\n      lt\n      tag_65\n      jumpi\n      tag_66\n      tag_33\n      jump\t// in\n    tag_66:\n    tag_65:\n      swap1\n      0x00\n      mstore\n      keccak256(0x00, 0x20)\n      add\n      sload\n        /* \"ArrayShift.sol\":667:678  arr[2] == 4 */\n      eq\n        /* \"ArrayShift.sol\":660:679  assert(arr[2] == 4) */\n      tag_68\n      jumpi\n      tag_69\n      tag_59\n      jump\t// in\n    tag_69:\n    tag_68:\n        /* \"ArrayShift.sol\":706:707  5 */\n      0x05\n        /* \"ArrayShift.sol\":696:699  arr */\n      0x00\n        /* \"ArrayShift.sol\":700:701  3 */\n      0x03\n        /* \"ArrayShift.sol\":696:702  arr[3] */\n      dup2\n      sload\n      dup2\n      lt\n      tag_70\n      jumpi\n      tag_71\n      tag_33\n      jump\t// in\n    tag_71:\n    tag_70:\n      swap1\n      0x00\n      mstore\n      keccak256(0x00, 0x20)\n      add\n      sload\n        /* \"ArrayShift.sol\":696:707  arr[3] == 5 */\n      eq\n        /* \"ArrayShift.sol\":689:708  assert(arr[3] == 5) */\n      tag_73\n      jumpi\n      tag_74\n      tag_59\n      jump\t// in\n    tag_74:\n    tag_73:\n        /* \"ArrayShift.sol\":739:740  4 */\n      0x04\n        /* \"ArrayShift.sol\":725:728  arr */\n      0x00\n        /* \"ArrayShift.sol\":725:735  arr.length */\n      dup1\n      sload\n      swap1\n      pop\n        /* \"ArrayShift.sol\":725:740  arr.length == 4 */\n      eq\n        /* \"ArrayShift.sol\":718:741  assert(arr.length == 4) */\n      tag_75\n      jumpi\n      tag_76\n      tag_59\n      jump\t// in\n    tag_76:\n    tag_75:\n        /* \"ArrayShift.sol\":760:767  arr=[1] */\n      mload(0x40)\n      dup1\n      0x20\n      add\n      0x40\n      mstore\n      dup1\n        /* \"ArrayShift.sol\":765:766  1 */\n      0x01\n        /* \"ArrayShift.sol\":760:767  arr=[1] */\n      0xff\n      and\n      dup2\n      mstore\n      pop\n        /* \"ArrayShift.sol\":760:763  arr */\n      0x00\n        /* \"ArrayShift.sol\":760:767  arr=[1] */\n      swap1\n      0x01\n      tag_77\n      swap3\n      swap2\n      swap1\n      tag_78\n      jump\t// in\n    tag_77:\n      pop\n        /* \"ArrayShift.sol\":777:786  remove(0) */\n      tag_79\n        /* \"ArrayShift.sol\":784:785  0 */\n      0x00\n        /* \"ArrayShift.sol\":777:783  remove */\n      tag_10\n        /* \"ArrayShift.sol\":777:786  remove(0) */\n      jump\t// in\n    tag_79:\n        /* \"ArrayShift.sol\":838:839  0 */\n      0x00\n        /* \"ArrayShift.sol\":824:827  arr */\n      dup1\n        /* \"ArrayShift.sol\":824:834  arr.length */\n      dup1\n      sload\n      swap1\n      pop\n        /* \"ArrayShift.sol\":824:839  arr.length == 0 */\n      eq\n        /* \"ArrayShift.sol\":817:840  assert(arr.length == 0) */\n      tag_80\n      jumpi\n      tag_81\n      tag_59\n      jump\t// in\n    tag_81:\n    tag_80:\n        /* \"ArrayShift.sol\":488:848  function test() external {... */\n      jump\t// out\n    tag_44:\n      dup3\n      dup1\n      sload\n      dup3\n      dup3\n      sstore\n      swap1\n      0x00\n      mstore\n      keccak256(0x00, 0x20)\n      swap1\n      dup2\n      add\n      swap3\n      dup3\n      iszero\n      tag_82\n      jumpi\n      swap2\n      0x20\n      mul\n      dup3\n      add\n    tag_83:\n      dup3\n      dup2\n      gt\n      iszero\n      tag_84\n      jumpi\n      dup3\n      mload\n      dup3\n      swap1\n      0xff\n      and\n      swap1\n      sstore\n      swap2\n      0x20\n      add\n      swap2\n      swap1\n      0x01\n      add\n      swap1\n      jump(tag_83)\n    tag_84:\n    tag_82:\n      pop\n      swap1\n      pop\n      tag_85\n      swap2\n      swap1\n      tag_86\n      jump\t// in\n    tag_85:\n      pop\n      swap1\n      jump\t// out\n    tag_52:\n      dup3\n      dup1\n      sload\n      dup3\n      dup3\n      sstore\n      swap1\n      0x00\n      mstore\n      keccak256(0x00, 0x20)\n      swap1\n      dup2\n      add\n      swap3\n      dup3\n      iszero\n      tag_87\n      jumpi\n      swap2\n      0x20\n      mul\n      dup3\n      add\n    tag_88:\n      dup3\n      dup2\n      gt\n      iszero\n      tag_89\n      jumpi\n      dup3\n      mload\n      dup3\n      swap1\n      0xff\n      and\n      swap1\n      sstore\n      swap2\n      0x20\n      add\n      swap2\n      swap1\n      0x01\n      add\n      swap1\n      jump(tag_88)\n    tag_89:\n    tag_87:\n      pop\n      swap1\n      pop\n      tag_90\n      swap2\n      swap1\n      tag_86\n      jump\t// in\n    tag_90:\n      pop\n      swap1\n      jump\t// out\n    tag_78:\n      dup3\n      dup1\n      sload\n      dup3\n      dup3\n      sstore\n      swap1\n      0x00\n      mstore\n      keccak256(0x00, 0x20)\n      swap1\n      dup2\n      add\n      swap3\n      dup3\n      iszero\n      tag_91\n      jumpi\n      swap2\n      0x20\n      mul\n      dup3\n      add\n    tag_92:\n      dup3\n      dup2\n      gt\n      iszero\n      tag_93\n      jumpi\n      dup3\n      mload\n      dup3\n      swap1\n      0xff\n      and\n      swap1\n      sstore\n      swap2\n      0x20\n      add\n      swap2\n      swap1\n      0x01\n      add\n      swap1\n      jump(tag_92)\n    tag_93:\n    tag_91:\n      pop\n      swap1\n      pop\n      tag_94\n      swap2\n      swap1\n      tag_86\n      jump\t// in\n    tag_94:\n      pop\n      swap1\n      jump\t// out\n    tag_86:\n    tag_95:\n      dup1\n      dup3\n      gt\n      iszero\n      tag_96\n      jumpi\n      0x00\n      dup2\n      0x00\n      swap1\n      sstore\n      pop\n      0x01\n      add\n      jump(tag_95)\n    tag_96:\n      pop\n      swap1\n      jump\t// out\n        /* \"#utility.yul\":88:205   */\n    tag_98:\n        /* \"#utility.yul\":197:198   */\n      0x00\n        /* \"#utility.yul\":194:195   */\n      dup1\n        /* \"#utility.yul\":187:199   */\n      revert\n        /* \"#utility.yul\":334:411   */\n    tag_100:\n        /* \"#utility.yul\":371:378   */\n      0x00\n        /* \"#utility.yul\":400:405   */\n      dup2\n        /* \"#utility.yul\":389:405   */\n      swap1\n      pop\n        /* \"#utility.yul\":334:411   */\n      swap2\n      swap1\n      pop\n      jump\t// out\n        /* \"#utility.yul\":417:539   */\n    tag_101:\n        /* \"#utility.yul\":490:514   */\n      tag_114\n        /* \"#utility.yul\":508:513   */\n      dup2\n        /* \"#utility.yul\":490:514   */\n      tag_100\n      jump\t// in\n    tag_114:\n        /* \"#utility.yul\":483:488   */\n      dup2\n        /* \"#utility.yul\":480:515   */\n      eq\n        /* \"#utility.yul\":470:533   */\n      tag_115\n      jumpi\n        /* \"#utility.yul\":529:530   */\n      0x00\n        /* \"#utility.yul\":526:527   */\n      dup1\n        /* \"#utility.yul\":519:531   */\n      revert\n        /* \"#utility.yul\":470:533   */\n    tag_115:\n        /* \"#utility.yul\":417:539   */\n      pop\n      jump\t// out\n        /* \"#utility.yul\":545:684   */\n    tag_102:\n        /* \"#utility.yul\":591:596   */\n      0x00\n        /* \"#utility.yul\":629:635   */\n      dup2\n        /* \"#utility.yul\":616:636   */\n      calldataload\n        /* \"#utility.yul\":607:636   */\n      swap1\n      pop\n        /* \"#utility.yul\":645:678   */\n      tag_117\n        /* \"#utility.yul\":672:677   */\n      dup2\n        /* \"#utility.yul\":645:678   */\n      tag_101\n      jump\t// in\n    tag_117:\n        /* \"#utility.yul\":545:684   */\n      swap3\n      swap2\n      pop\n      pop\n      jump\t// out\n        /* \"#utility.yul\":690:1019   */\n    tag_9:\n        /* \"#utility.yul\":749:755   */\n      0x00\n        /* \"#utility.yul\":798:800   */\n      0x20\n        /* \"#utility.yul\":786:795   */\n      dup3\n        /* \"#utility.yul\":777:784   */\n      dup5\n        /* \"#utility.yul\":773:796   */\n      sub\n        /* \"#utility.yul\":769:801   */\n      slt\n        /* \"#utility.yul\":766:885   */\n      iszero\n      tag_119\n      jumpi\n        /* \"#utility.yul\":804:883   */\n      tag_120\n      tag_98\n      jump\t// in\n    tag_120:\n        /* \"#utility.yul\":766:885   */\n    tag_119:\n        /* \"#utility.yul\":924:925   */\n      0x00\n        /* \"#utility.yul\":949:1002   */\n      tag_121\n        /* \"#utility.yul\":994:1001   */\n      dup5\n        /* \"#utility.yul\":985:991   */\n      dup3\n        /* \"#utility.yul\":974:983   */\n      dup6\n        /* \"#utility.yul\":970:992   */\n      add\n        /* \"#utility.yul\":949:1002   */\n      tag_102\n      jump\t// in\n    tag_121:\n        /* \"#utility.yul\":939:1002   */\n      swap2\n      pop\n        /* \"#utility.yul\":895:1012   */\n      pop\n        /* \"#utility.yul\":690:1019   */\n      swap3\n      swap2\n      pop\n      pop\n      jump\t// out\n        /* \"#utility.yul\":1025:1143   */\n    tag_103:\n        /* \"#utility.yul\":1112:1136   */\n      tag_123\n        /* \"#utility.yul\":1130:1135   */\n      dup2\n        /* \"#utility.yul\":1112:1136   */\n      tag_100\n      jump\t// in\n    tag_123:\n        /* \"#utility.yul\":1107:1110   */\n      dup3\n        /* \"#utility.yul\":1100:1137   */\n      mstore\n        /* \"#utility.yul\":1025:1143   */\n      pop\n      pop\n      jump\t// out\n        /* \"#utility.yul\":1149:1371   */\n    tag_17:\n        /* \"#utility.yul\":1242:1246   */\n      0x00\n        /* \"#utility.yul\":1280:1282   */\n      0x20\n        /* \"#utility.yul\":1269:1278   */\n      dup3\n        /* \"#utility.yul\":1265:1283   */\n      add\n        /* \"#utility.yul\":1257:1283   */\n      swap1\n      pop\n        /* \"#utility.yul\":1293:1364   */\n      tag_125\n        /* \"#utility.yul\":1361:1362   */\n      0x00\n        /* \"#utility.yul\":1350:1359   */\n      dup4\n        /* \"#utility.yul\":1346:1363   */\n      add\n        /* \"#utility.yul\":1337:1343   */\n      dup5\n        /* \"#utility.yul\":1293:1364   */\n      tag_103\n      jump\t// in\n    tag_125:\n        /* \"#utility.yul\":1149:1371   */\n      swap3\n      swap2\n      pop\n      pop\n      jump\t// out\n        /* \"#utility.yul\":1377:1546   */\n    tag_104:\n        /* \"#utility.yul\":1461:1472   */\n      0x00\n        /* \"#utility.yul\":1495:1501   */\n      dup3\n        /* \"#utility.yul\":1490:1493   */\n      dup3\n        /* \"#utility.yul\":1483:1502   */\n      mstore\n        /* \"#utility.yul\":1535:1539   */\n      0x20\n        /* \"#utility.yul\":1530:1533   */\n      dup3\n        /* \"#utility.yul\":1526:1540   */\n      add\n        /* \"#utility.yul\":1511:1540   */\n      swap1\n      pop\n        /* \"#utility.yul\":1377:1546   */\n      swap3\n      swap2\n      pop\n      pop\n      jump\t// out\n        /* \"#utility.yul\":1552:1720   */\n    tag_105:\n        /* \"#utility.yul\":1692:1712   */\n      0x696e646578206f7574206f6620626f6e64210000000000000000000000000000\n        /* \"#utility.yul\":1688:1689   */\n      0x00\n        /* \"#utility.yul\":1680:1686   */\n      dup3\n        /* \"#utility.yul\":1676:1690   */\n      add\n        /* \"#utility.yul\":1669:1713   */\n      mstore\n        /* \"#utility.yul\":1552:1720   */\n      pop\n      jump\t// out\n        /* \"#utility.yul\":1726:2092   */\n    tag_106:\n        /* \"#utility.yul\":1868:1871   */\n      0x00\n        /* \"#utility.yul\":1889:1956   */\n      tag_129\n        /* \"#utility.yul\":1953:1955   */\n      0x12\n        /* \"#utility.yul\":1948:1951   */\n      dup4\n        /* \"#utility.yul\":1889:1956   */\n      tag_104\n      jump\t// in\n    tag_129:\n        /* \"#utility.yul\":1882:1956   */\n      swap2\n      pop\n        /* \"#utility.yul\":1965:2058   */\n      tag_130\n        /* \"#utility.yul\":2054:2057   */\n      dup3\n        /* \"#utility.yul\":1965:2058   */\n      tag_105\n      jump\t// in\n    tag_130:\n        /* \"#utility.yul\":2083:2085   */\n      0x20\n        /* \"#utility.yul\":2078:2081   */\n      dup3\n        /* \"#utility.yul\":2074:2086   */\n      add\n        /* \"#utility.yul\":2067:2086   */\n      swap1\n      pop\n        /* \"#utility.yul\":1726:2092   */\n      swap2\n      swap1\n      pop\n      jump\t// out\n        /* \"#utility.yul\":2098:2517   */\n    tag_23:\n        /* \"#utility.yul\":2264:2268   */\n      0x00\n        /* \"#utility.yul\":2302:2304   */\n      0x20\n        /* \"#utility.yul\":2291:2300   */\n      dup3\n        /* \"#utility.yul\":2287:2305   */\n      add\n        /* \"#utility.yul\":2279:2305   */\n      swap1\n      pop\n        /* \"#utility.yul\":2351:2360   */\n      dup2\n        /* \"#utility.yul\":2345:2349   */\n      dup2\n        /* \"#utility.yul\":2341:2361   */\n      sub\n        /* \"#utility.yul\":2337:2338   */\n      0x00\n        /* \"#utility.yul\":2326:2335   */\n      dup4\n        /* \"#utility.yul\":2322:2339   */\n      add\n        /* \"#utility.yul\":2315:2362   */\n      mstore\n        /* \"#utility.yul\":2379:2510   */\n      tag_132\n        /* \"#utility.yul\":2505:2509   */\n      dup2\n        /* \"#utility.yul\":2379:2510   */\n      tag_106\n      jump\t// in\n    tag_132:\n        /* \"#utility.yul\":2371:2510   */\n      swap1\n      pop\n        /* \"#utility.yul\":2098:2517   */\n      swap2\n      swap1\n      pop\n      jump\t// out\n        /* \"#utility.yul\":2523:2703   */\n    tag_107:\n        /* \"#utility.yul\":2571:2648   */\n      0x4e487b7100000000000000000000000000000000000000000000000000000000\n        /* \"#utility.yul\":2568:2569   */\n      0x00\n        /* \"#utility.yul\":2561:2649   */\n      mstore\n        /* \"#utility.yul\":2668:2672   */\n      0x11\n        /* \"#utility.yul\":2665:2666   */\n      0x04\n        /* \"#utility.yul\":2658:2673   */\n      mstore\n        /* \"#utility.yul\":2692:2696   */\n      0x24\n        /* \"#utility.yul\":2689:2690   */\n      0x00\n        /* \"#utility.yul\":2682:2697   */\n      revert\n        /* \"#utility.yul\":2709:2903   */\n    tag_28:\n        /* \"#utility.yul\":2749:2753   */\n      0x00\n        /* \"#utility.yul\":2769:2789   */\n      tag_135\n        /* \"#utility.yul\":2787:2788   */\n      dup3\n        /* \"#utility.yul\":2769:2789   */\n      tag_100\n      jump\t// in\n    tag_135:\n        /* \"#utility.yul\":2764:2789   */\n      swap2\n      pop\n        /* \"#utility.yul\":2803:2823   */\n      tag_136\n        /* \"#utility.yul\":2821:2822   */\n      dup4\n        /* \"#utility.yul\":2803:2823   */\n      tag_100\n      jump\t// in\n    tag_136:\n        /* \"#utility.yul\":2798:2823   */\n      swap3\n      pop\n        /* \"#utility.yul\":2847:2848   */\n      dup3\n        /* \"#utility.yul\":2844:2845   */\n      dup3\n        /* \"#utility.yul\":2840:2849   */\n      sub\n        /* \"#utility.yul\":2832:2849   */\n      swap1\n      pop\n        /* \"#utility.yul\":2871:2872   */\n      dup2\n        /* \"#utility.yul\":2865:2869   */\n      dup2\n        /* \"#utility.yul\":2862:2873   */\n      gt\n        /* \"#utility.yul\":2859:2896   */\n      iszero\n      tag_137\n      jumpi\n        /* \"#utility.yul\":2876:2894   */\n      tag_138\n      tag_107\n      jump\t// in\n    tag_138:\n        /* \"#utility.yul\":2859:2896   */\n    tag_137:\n        /* \"#utility.yul\":2709:2903   */\n      swap3\n      swap2\n      pop\n      pop\n      jump\t// out\n        /* \"#utility.yul\":2909:3100   */\n    tag_30:\n        /* \"#utility.yul\":2949:2952   */\n      0x00\n        /* \"#utility.yul\":2968:2988   */\n      tag_140\n        /* \"#utility.yul\":2986:2987   */\n      dup3\n        /* \"#utility.yul\":2968:2988   */\n      tag_100\n      jump\t// in\n    tag_140:\n        /* \"#utility.yul\":2963:2988   */\n      swap2\n      pop\n        /* \"#utility.yul\":3002:3022   */\n      tag_141\n        /* \"#utility.yul\":3020:3021   */\n      dup4\n        /* \"#utility.yul\":3002:3022   */\n      tag_100\n      jump\t// in\n    tag_141:\n        /* \"#utility.yul\":2997:3022   */\n      swap3\n      pop\n        /* \"#utility.yul\":3045:3046   */\n      dup3\n        /* \"#utility.yul\":3042:3043   */\n      dup3\n        /* \"#utility.yul\":3038:3047   */\n      add\n        /* \"#utility.yul\":3031:3047   */\n      swap1\n      pop\n        /* \"#utility.yul\":3066:3069   */\n      dup1\n        /* \"#utility.yul\":3063:3064   */\n      dup3\n        /* \"#utility.yul\":3060:3070   */\n      gt\n        /* \"#utility.yul\":3057:3093   */\n      iszero\n      tag_142\n      jumpi\n        /* \"#utility.yul\":3073:3091   */\n      tag_143\n      tag_107\n      jump\t// in\n    tag_143:\n        /* \"#utility.yul\":3057:3093   */\n    tag_142:\n        /* \"#utility.yul\":2909:3100   */\n      swap3\n      swap2\n      pop\n      pop\n      jump\t// out\n        /* \"#utility.yul\":3106:3286   */\n    tag_33:\n        /* \"#utility.yul\":3154:3231   */\n      0x4e487b7100000000000000000000000000000000000000000000000000000000\n        /* \"#utility.yul\":3151:3152   */\n      0x00\n        /* \"#utility.yul\":3144:3232   */\n      mstore\n        /* \"#utility.yul\":3251:3255   */\n      0x32\n        /* \"#utility.yul\":3248:3249   */\n      0x04\n        /* \"#utility.yul\":3241:3256   */\n      mstore\n        /* \"#utility.yul\":3275:3279   */\n      0x24\n        /* \"#utility.yul\":3272:3273   */\n      0x00\n        /* \"#utility.yul\":3265:3280   */\n      revert\n        /* \"#utility.yul\":3292:3472   */\n    tag_40:\n        /* \"#utility.yul\":3340:3417   */\n      0x4e487b7100000000000000000000000000000000000000000000000000000000\n        /* \"#utility.yul\":3337:3338   */\n      0x00\n        /* \"#utility.yul\":3330:3418   */\n      mstore\n        /* \"#utility.yul\":3437:3441   */\n      0x31\n        /* \"#utility.yul\":3434:3435   */\n      0x04\n        /* \"#utility.yul\":3427:3442   */\n      mstore\n        /* \"#utility.yul\":3461:3465   */\n      0x24\n        /* \"#utility.yul\":3458:3459   */\n      0x00\n        /* \"#utility.yul\":3451:3466   */\n      revert\n        /* \"#utility.yul\":3478:3658   */\n    tag_59:\n        /* \"#utility.yul\":3526:3603   */\n      0x4e487b7100000000000000000000000000000000000000000000000000000000\n        /* \"#utility.yul\":3523:3524   */\n      0x00\n        /* \"#utility.yul\":3516:3604   */\n      mstore\n        /* \"#utility.yul\":3623:3627   */\n      0x01\n        /* \"#utility.yul\":3620:3621   */\n      0x04\n        /* \"#utility.yul\":3613:3628   */\n      mstore\n        /* \"#utility.yul\":3647:3651   */\n      0x24\n        /* \"#utility.yul\":3644:3645   */\n      0x00\n        /* \"#utility.yul\":3637:3652   */\n      revert\n\n    auxdata: 0xa26469706673582212205bb9d892a8afd842ea4cc37cbf222537f45811cc45b807f7357552af4b79ed4c64736f6c634300081a0033\n}\n",
				"bytecode": {
					"linkReferences": {},
					"object": "6080604052348015600e575f80fd5b506106c08061001c5f395ff3fe608060405234801561000f575f80fd5b506004361061004a575f3560e01c80634cc822151461004e57806354353f2f1461006a57806371e5ee5f14610074578063f8a8fd6d146100a4575b5f80fd5b610068600480360381019061006391906104a5565b6100ae565b005b61007261018d565b005b61008e600480360381019061008991906104a5565b6101e5565b60405161009b91906104df565b60405180910390f35b6100ac610204565b005b5f8054905081106100f4576040517f08c379a00000000000000000000000000000000000000000000000000000000081526004016100eb90610552565b60405180910390fd5b5f8190505b60015f8054905061010a919061059d565b811015610165575f60018261011f91906105d0565b815481106101305761012f610603565b5b905f5260205f2001545f828154811061014c5761014b610603565b5b905f5260205f20018190555080806001019150506100f9565b505f80548061017757610176610630565b5b600190038181905f5260205f20015f9055905550565b6040518060600160405280600160ff168152602001600260ff168152602001600360ff168152505f9060036101c3929190610363565b505f6001815481106101d8576101d7610603565b5b905f5260205f20015f9055565b5f81815481106101f3575f80fd5b905f5260205f20015f915090505481565b6040518060a00160405280600160ff168152602001600260ff168152602001600360ff168152602001600460ff168152602001600560ff168152505f90600561024e9291906103b3565b5061025960026100ae565b60015f808154811061026e5761026d610603565b5b905f5260205f200154146102855761028461065d565b5b60025f60018154811061029b5761029a610603565b5b905f5260205f200154146102b2576102b161065d565b5b60045f6002815481106102c8576102c7610603565b5b905f5260205f200154146102df576102de61065d565b5b60055f6003815481106102f5576102f4610603565b5b905f5260205f2001541461030c5761030b61065d565b5b60045f80549050146103215761032061065d565b5b6040518060200160405280600160ff168152505f906001610343929190610403565b5061034d5f6100ae565b5f8080549050146103615761036061065d565b5b565b828054828255905f5260205f209081019282156103a2579160200282015b828111156103a1578251829060ff16905591602001919060010190610381565b5b5090506103af9190610453565b5090565b828054828255905f5260205f209081019282156103f2579160200282015b828111156103f1578251829060ff169055916020019190600101906103d1565b5b5090506103ff9190610453565b5090565b828054828255905f5260205f20908101928215610442579160200282015b82811115610441578251829060ff16905591602001919060010190610421565b5b50905061044f9190610453565b5090565b5b8082111561046a575f815f905550600101610454565b5090565b5f80fd5b5f819050919050565b61048481610472565b811461048e575f80fd5b50565b5f8135905061049f8161047b565b92915050565b5f602082840312156104ba576104b961046e565b5b5f6104c784828501610491565b91505092915050565b6104d981610472565b82525050565b5f6020820190506104f25f8301846104d0565b92915050565b5f82825260208201905092915050565b7f696e646578206f7574206f6620626f6e642100000000000000000000000000005f82015250565b5f61053c6012836104f8565b915061054782610508565b602082019050919050565b5f6020820190508181035f83015261056981610530565b9050919050565b7f4e487b71000000000000000000000000000000000000000000000000000000005f52601160045260245ffd5b5f6105a782610472565b91506105b283610472565b92508282039050818111156105ca576105c9610570565b5b92915050565b5f6105da82610472565b91506105e583610472565b92508282019050808211156105fd576105fc610570565b5b92915050565b7f4e487b71000000000000000000000000000000000000000000000000000000005f52603260045260245ffd5b7f4e487b71000000000000000000000000000000000000000000000000000000005f52603160045260245ffd5b7f4e487b71000000000000000000000000000000000000000000000000000000005f52600160045260245ffdfea26469706673582212205bb9d892a8afd842ea4cc37cbf222537f45811cc45b807f7357552af4b79ed4c64736f6c634300081a0033",
					"opcodes": "PUSH1 0x80 PUSH1 0x40 MSTORE CALLVALUE DUP1 ISZERO PUSH1 0xE JUMPI PUSH0 DUP1 REVERT JUMPDEST POP PUSH2 0x6C0 DUP1 PUSH2 0x1C PUSH0 CODECOPY PUSH0 RETURN INVALID PUSH1 0x80 PUSH1 0x40 MSTORE CALLVALUE DUP1 ISZERO PUSH2 0xF JUMPI PUSH0 DUP1 REVERT JUMPDEST POP PUSH1 0x4 CALLDATASIZE LT PUSH2 0x4A JUMPI PUSH0 CALLDATALOAD PUSH1 0xE0 SHR DUP1 PUSH4 0x4CC82215 EQ PUSH2 0x4E JUMPI DUP1 PUSH4 0x54353F2F EQ PUSH2 0x6A JUMPI DUP1 PUSH4 0x71E5EE5F EQ PUSH2 0x74 JUMPI DUP1 PUSH4 0xF8A8FD6D EQ PUSH2 0xA4 JUMPI JUMPDEST PUSH0 DUP1 REVERT JUMPDEST PUSH2 0x68 PUSH1 0x4 DUP1 CALLDATASIZE SUB DUP2 ADD SWAP1 PUSH2 0x63 SWAP2 SWAP1 PUSH2 0x4A5 JUMP JUMPDEST PUSH2 0xAE JUMP JUMPDEST STOP JUMPDEST PUSH2 0x72 PUSH2 0x18D JUMP JUMPDEST STOP JUMPDEST PUSH2 0x8E PUSH1 0x4 DUP1 CALLDATASIZE SUB DUP2 ADD SWAP1 PUSH2 0x89 SWAP2 SWAP1 PUSH2 0x4A5 JUMP JUMPDEST PUSH2 0x1E5 JUMP JUMPDEST PUSH1 0x40 MLOAD PUSH2 0x9B SWAP2 SWAP1 PUSH2 0x4DF JUMP JUMPDEST PUSH1 0x40 MLOAD DUP1 SWAP2 SUB SWAP1 RETURN JUMPDEST PUSH2 0xAC PUSH2 0x204 JUMP JUMPDEST STOP JUMPDEST PUSH0 DUP1 SLOAD SWAP1 POP DUP2 LT PUSH2 0xF4 JUMPI PUSH1 0x40 MLOAD PUSH32 0x8C379A000000000000000000000000000000000000000000000000000000000 DUP2 MSTORE PUSH1 0x4 ADD PUSH2 0xEB SWAP1 PUSH2 0x552 JUMP JUMPDEST PUSH1 0x40 MLOAD DUP1 SWAP2 SUB SWAP1 REVERT JUMPDEST PUSH0 DUP2 SWAP1 POP JUMPDEST PUSH1 0x1 PUSH0 DUP1 SLOAD SWAP1 POP PUSH2 0x10A SWAP2 SWAP1 PUSH2 0x59D JUMP JUMPDEST DUP2 LT ISZERO PUSH2 0x165 JUMPI PUSH0 PUSH1 0x1 DUP3 PUSH2 0x11F SWAP2 SWAP1 PUSH2 0x5D0 JUMP JUMPDEST DUP2 SLOAD DUP2 LT PUSH2 0x130 JUMPI PUSH2 0x12F PUSH2 0x603 JUMP JUMPDEST JUMPDEST SWAP1 PUSH0 MSTORE PUSH1 0x20 PUSH0 KECCAK256 ADD SLOAD PUSH0 DUP3 DUP2 SLOAD DUP2 LT PUSH2 0x14C JUMPI PUSH2 0x14B PUSH2 0x603 JUMP JUMPDEST JUMPDEST SWAP1 PUSH0 MSTORE PUSH1 0x20 PUSH0 KECCAK256 ADD DUP2 SWAP1 SSTORE POP DUP1 DUP1 PUSH1 0x1 ADD SWAP2 POP POP PUSH2 0xF9 JUMP JUMPDEST POP PUSH0 DUP1 SLOAD DUP1 PUSH2 0x177 JUMPI PUSH2 0x176 PUSH2 0x630 JUMP JUMPDEST JUMPDEST PUSH1 0x1 SWAP1 SUB DUP2 DUP2 SWAP1 PUSH0 MSTORE PUSH1 0x20 PUSH0 KECCAK256 ADD PUSH0 SWAP1 SSTORE SWAP1 SSTORE POP JUMP JUMPDEST PUSH1 0x40 MLOAD DUP1 PUSH1 0x60 ADD PUSH1 0x40 MSTORE DUP1 PUSH1 0x1 PUSH1 0xFF AND DUP2 MSTORE PUSH1 0x20 ADD PUSH1 0x2 PUSH1 0xFF AND DUP2 MSTORE PUSH1 0x20 ADD PUSH1 0x3 PUSH1 0xFF AND DUP2 MSTORE POP PUSH0 SWAP1 PUSH1 0x3 PUSH2 0x1C3 SWAP3 SWAP2 SWAP1 PUSH2 0x363 JUMP JUMPDEST POP PUSH0 PUSH1 0x1 DUP2 SLOAD DUP2 LT PUSH2 0x1D8 JUMPI PUSH2 0x1D7 PUSH2 0x603 JUMP JUMPDEST JUMPDEST SWAP1 PUSH0 MSTORE PUSH1 0x20 PUSH0 KECCAK256 ADD PUSH0 SWAP1 SSTORE JUMP JUMPDEST PUSH0 DUP2 DUP2 SLOAD DUP2 LT PUSH2 0x1F3 JUMPI PUSH0 DUP1 REVERT JUMPDEST SWAP1 PUSH0 MSTORE PUSH1 0x20 PUSH0 KECCAK256 ADD PUSH0 SWAP2 POP SWAP1 POP SLOAD DUP2 JUMP JUMPDEST PUSH1 0x40 MLOAD DUP1 PUSH1 0xA0 ADD PUSH1 0x40 MSTORE DUP1 PUSH1 0x1 PUSH1 0xFF AND DUP2 MSTORE PUSH1 0x20 ADD PUSH1 0x2 PUSH1 0xFF AND DUP2 MSTORE PUSH1 0x20 ADD PUSH1 0x3 PUSH1 0xFF AND DUP2 MSTORE PUSH1 0x20 ADD PUSH1 0x4 PUSH1 0xFF AND DUP2 MSTORE PUSH1 0x20 ADD PUSH1 0x5 PUSH1 0xFF AND DUP2 MSTORE POP PUSH0 SWAP1 PUSH1 0x5 PUSH2 0x24E SWAP3 SWAP2 SWAP1 PUSH2 0x3B3 JUMP JUMPDEST POP PUSH2 0x259 PUSH1 0x2 PUSH2 0xAE JUMP JUMPDEST PUSH1 0x1 PUSH0 DUP1 DUP2 SLOAD DUP2 LT PUSH2 0x26E JUMPI PUSH2 0x26D PUSH2 0x603 JUMP JUMPDEST JUMPDEST SWAP1 PUSH0 MSTORE PUSH1 0x20 PUSH0 KECCAK256 ADD SLOAD EQ PUSH2 0x285 JUMPI PUSH2 0x284 PUSH2 0x65D JUMP JUMPDEST JUMPDEST PUSH1 0x2 PUSH0 PUSH1 0x1 DUP2 SLOAD DUP2 LT PUSH2 0x29B JUMPI PUSH2 0x29A PUSH2 0x603 JUMP JUMPDEST JUMPDEST SWAP1 PUSH0 MSTORE PUSH1 0x20 PUSH0 KECCAK256 ADD SLOAD EQ PUSH2 0x2B2 JUMPI PUSH2 0x2B1 PUSH2 0x65D JUMP JUMPDEST JUMPDEST PUSH1 0x4 PUSH0 PUSH1 0x2 DUP2 SLOAD DUP2 LT PUSH2 0x2C8 JUMPI PUSH2 0x2C7 PUSH2 0x603 JUMP JUMPDEST JUMPDEST SWAP1 PUSH0 MSTORE PUSH1 0x20 PUSH0 KECCAK256 ADD SLOAD EQ PUSH2 0x2DF JUMPI PUSH2 0x2DE PUSH2 0x65D JUMP JUMPDEST JUMPDEST PUSH1 0x5 PUSH0 PUSH1 0x3 DUP2 SLOAD DUP2 LT PUSH2 0x2F5 JUMPI PUSH2 0x2F4 PUSH2 0x603 JUMP JUMPDEST JUMPDEST SWAP1 PUSH0 MSTORE PUSH1 0x20 PUSH0 KECCAK256 ADD SLOAD EQ PUSH2 0x30C JUMPI PUSH2 0x30B PUSH2 0x65D JUMP JUMPDEST JUMPDEST PUSH1 0x4 PUSH0 DUP1 SLOAD SWAP1 POP EQ PUSH2 0x321 JUMPI PUSH2 0x320 PUSH2 0x65D JUMP JUMPDEST JUMPDEST PUSH1 0x40 MLOAD DUP1 PUSH1 0x20 ADD PUSH1 0x40 MSTORE DUP1 PUSH1 0x1 PUSH1 0xFF AND DUP2 MSTORE POP PUSH0 SWAP1 PUSH1 0x1 PUSH2 0x343 SWAP3 SWAP2 SWAP1 PUSH2 0x403 JUMP JUMPDEST POP PUSH2 0x34D PUSH0 PUSH2 0xAE JUMP JUMPDEST PUSH0 DUP1 DUP1 SLOAD SWAP1 POP EQ PUSH2 0x361 JUMPI PUSH2 0x360 PUSH2 0x65D JUMP JUMPDEST JUMPDEST JUMP JUMPDEST DUP3 DUP1 SLOAD DUP3 DUP3 SSTORE SWAP1 PUSH0 MSTORE PUSH1 0x20 PUSH0 KECCAK256 SWAP1 DUP2 ADD SWAP3 DUP3 ISZERO PUSH2 0x3A2 JUMPI SWAP2 PUSH1 0x20 MUL DUP3 ADD JUMPDEST DUP3 DUP2 GT ISZERO PUSH2 0x3A1 JUMPI DUP3 MLOAD DUP3 SWAP1 PUSH1 0xFF AND SWAP1 SSTORE SWAP2 PUSH1 0x20 ADD SWAP2 SWAP1 PUSH1 0x1 ADD SWAP1 PUSH2 0x381 JUMP JUMPDEST JUMPDEST POP SWAP1 POP PUSH2 0x3AF SWAP2 SWAP1 PUSH2 0x453 JUMP JUMPDEST POP SWAP1 JUMP JUMPDEST DUP3 DUP1 SLOAD DUP3 DUP3 SSTORE SWAP1 PUSH0 MSTORE PUSH1 0x20 PUSH0 KECCAK256 SWAP1 DUP2 ADD SWAP3 DUP3 ISZERO PUSH2 0x3F2 JUMPI SWAP2 PUSH1 0x20 MUL DUP3 ADD JUMPDEST DUP3 DUP2 GT ISZERO PUSH2 0x3F1 JUMPI DUP3 MLOAD DUP3 SWAP1 PUSH1 0xFF AND SWAP1 SSTORE SWAP2 PUSH1 0x20 ADD SWAP2 SWAP1 PUSH1 0x1 ADD SWAP1 PUSH2 0x3D1 JUMP JUMPDEST JUMPDEST POP SWAP1 POP PUSH2 0x3FF SWAP2 SWAP1 PUSH2 0x453 JUMP JUMPDEST POP SWAP1 JUMP JUMPDEST DUP3 DUP1 SLOAD DUP3 DUP3 SSTORE SWAP1 PUSH0 MSTORE PUSH1 0x20 PUSH0 KECCAK256 SWAP1 DUP2 ADD SWAP3 DUP3 ISZERO PUSH2 0x442 JUMPI SWAP2 PUSH1 0x20 MUL DUP3 ADD JUMPDEST DUP3 DUP2 GT ISZERO PUSH2 0x441 JUMPI DUP3 MLOAD DUP3 SWAP1 PUSH1 0xFF AND SWAP1 SSTORE SWAP2 PUSH1 0x20 ADD SWAP2 SWAP1 PUSH1 0x1 ADD SWAP1 PUSH2 0x421 JUMP JUMPDEST JUMPDEST POP SWAP1 POP PUSH2 0x44F SWAP2 SWAP1 PUSH2 0x453 JUMP JUMPDEST POP SWAP1 JUMP JUMPDEST JUMPDEST DUP1 DUP3 GT ISZERO PUSH2 0x46A JUMPI PUSH0 DUP2 PUSH0 SWAP1 SSTORE POP PUSH1 0x1 ADD PUSH2 0x454 JUMP JUMPDEST POP SWAP1 JUMP JUMPDEST PUSH0 DUP1 REVERT JUMPDEST PUSH0 DUP2 SWAP1 POP SWAP2 SWAP1 POP JUMP JUMPDEST PUSH2 0x484 DUP2 PUSH2 0x472 JUMP JUMPDEST DUP2 EQ PUSH2 0x48E JUMPI PUSH0 DUP1 REVERT JUMPDEST POP JUMP JUMPDEST PUSH0 DUP2 CALLDATALOAD SWAP1 POP PUSH2 0x49F DUP2 PUSH2 0x47B JUMP JUMPDEST SWAP3 SWAP2 POP POP JUMP JUMPDEST PUSH0 PUSH1 0x20 DUP3 DUP5 SUB SLT ISZERO PUSH2 0x4BA JUMPI PUSH2 0x4B9 PUSH2 0x46E JUMP JUMPDEST JUMPDEST PUSH0 PUSH2 0x4C7 DUP5 DUP3 DUP6 ADD PUSH2 0x491 JUMP JUMPDEST SWAP2 POP POP SWAP3 SWAP2 POP POP JUMP JUMPDEST PUSH2 0x4D9 DUP2 PUSH2 0x472 JUMP JUMPDEST DUP3 MSTORE POP POP JUMP JUMPDEST PUSH0 PUSH1 0x20 DUP3 ADD SWAP1 POP PUSH2 0x4F2 PUSH0 DUP4 ADD DUP5 PUSH2 0x4D0 JUMP JUMPDEST SWAP3 SWAP2 POP POP JUMP JUMPDEST PUSH0 DUP3 DUP3 MSTORE PUSH1 0x20 DUP3 ADD SWAP1 POP SWAP3 SWAP2 POP POP JUMP JUMPDEST PUSH32 0x696E646578206F7574206F6620626F6E64210000000000000000000000000000 PUSH0 DUP3 ADD MSTORE POP JUMP JUMPDEST PUSH0 PUSH2 0x53C PUSH1 0x12 DUP4 PUSH2 0x4F8 JUMP JUMPDEST SWAP2 POP PUSH2 0x547 DUP3 PUSH2 0x508 JUMP JUMPDEST PUSH1 0x20 DUP3 ADD SWAP1 POP SWAP2 SWAP1 POP JUMP JUMPDEST PUSH0 PUSH1 0x20 DUP3 ADD SWAP1 POP DUP2 DUP2 SUB PUSH0 DUP4 ADD MSTORE PUSH2 0x569 DUP2 PUSH2 0x530 JUMP JUMPDEST SWAP1 POP SWAP2 SWAP1 POP JUMP JUMPDEST PUSH32 0x4E487B7100000000000000000000000000000000000000000000000000000000 PUSH0 MSTORE PUSH1 0x11 PUSH1 0x4 MSTORE PUSH1 0x24 PUSH0 REVERT JUMPDEST PUSH0 PUSH2 0x5A7 DUP3 PUSH2 0x472 JUMP JUMPDEST SWAP2 POP PUSH2 0x5B2 DUP4 PUSH2 0x472 JUMP JUMPDEST SWAP3 POP DUP3 DUP3 SUB SWAP1 POP DUP2 DUP2 GT ISZERO PUSH2 0x5CA JUMPI PUSH2 0x5C9 PUSH2 0x570 JUMP JUMPDEST JUMPDEST SWAP3 SWAP2 POP POP JUMP JUMPDEST PUSH0 PUSH2 0x5DA DUP3 PUSH2 0x472 JUMP JUMPDEST SWAP2 POP PUSH2 0x5E5 DUP4 PUSH2 0x472 JUMP JUMPDEST SWAP3 POP DUP3 DUP3 ADD SWAP1 POP DUP1 DUP3 GT ISZERO PUSH2 0x5FD JUMPI PUSH2 0x5FC PUSH2 0x570 JUMP JUMPDEST JUMPDEST SWAP3 SWAP2 POP POP JUMP JUMPDEST PUSH32 0x4E487B7100000000000000000000000000000000000000000000000000000000 PUSH0 MSTORE PUSH1 0x32 PUSH1 0x4 MSTORE PUSH1 0x24 PUSH0 REVERT JUMPDEST PUSH32 0x4E487B7100000000000000000000000000000000000000000000000000000000 PUSH0 MSTORE PUSH1 0x31 PUSH1 0x4 MSTORE PUSH1 0x24 PUSH0 REVERT JUMPDEST PUSH32 0x4E487B7100000000000000000000000000000000000000000000000000000000 PUSH0 MSTORE PUSH1 0x1 PUSH1 0x4 MSTORE PUSH1 0x24 PUSH0 REVERT INVALID LOG2 PUSH5 0x6970667358 0x22 SLT KECCAK256 JUMPDEST 0xB9 0xD8 SWAP3 0xA8 0xAF 0xD8 TIMESTAMP 0xEA 0x4C 0xC3 PUSH29 0xBF222537F45811CC45B807F7357552AF4B79ED4C64736F6C634300081A STOP CALLER "
				},
				"gasEstimates": {
					"creation": {
						"codeDepositCost": "345600",
						"executionCost": "378",
						"totalCost": "345978"
					},
					"external": {
						"arr(uint256)": "infinite",
						"example()": "infinite",
						"remove(uint256)": "infinite",
						"test()": "infinite"
					}
				},
				"methodIdentifiers": {
					"arr(uint256)": "71e5ee5f",
					"example()": "54353f2f",
					"remove(uint256)": "4cc82215",
					"test()": "f8a8fd6d"
				}
			},
			"storageLayout": {
				"storage": [
					{
						"astId": 4,
						"contract": "ArrayShift.sol:ArrayShift",
						"label": "arr",
						"offset": 0,
						"slot": "0",
						"type": "t_array(t_uint256)dyn_storage"
					}
				],
				"types": {
					"t_array(t_uint256)dyn_storage": {
						"base": "t_uint256",
						"encoding": "dynamic_array",
						"label": "uint256[]",
						"numberOfBytes": "32"
					},
					"t_uint256": {
						"encoding": "inplace",
						"label": "uint256",
						"numberOfBytes": "32"
					}
				}
			},
			"userdoc": {
				"kind": "user",
				"methods": {},
				"version": 1
			}
		}
	}
}