{
	"FunctionOutputs1.sol": {
		"FunctionOutputs": {
			"abi": [
				{
					"inputs": [],
					"name": "assigned",
					"outputs": [
						{
							"internalType": "uint256",
							"name": "x",
							"type": "uint256"
						},
						{
							"internalType": "bool",
							"name": "b",
							"type": "bool"
						}
					],
					"stateMutability": "pure",
					"type": "function"
				},
				{
					"inputs": [],
					"name": "destructingAssignments",
					"outputs": [],
					"stateMutability": "pure",
					"type": "function"
				},
				{
					"inputs": [],
					"name": "named",
					"outputs": [
						{
							"internalType": "uint256",
							"name": "x",
							"type": "uint256"
						},
						{
							"internalType": "bool",
							"name": "b",
							"type": "bool"
						}
					],
					"stateMutability": "pure",
					"type": "function"
				},
				{
					"inputs": [],
					"name": "returnMany",
					"outputs": [
						{
							"internalType": "uint256",
							"name": "",
							"type": "uint256"
						},
						{
							"internalType": "bool",
							"name": "",
							"type": "bool"
						}
					],
					"stateMutability": "pure",
					"type": "function"
				}
			],
			"devdoc": {
				"kind": "dev",
				"methods": {},
				"version": 1
			},
			"evm": {
				"assembly": "    /* \"FunctionOutputs1.sol\":57:586  contract FunctionOutputs {... */\n  mstore(0x40, 0x80)\n  callvalue\n  dup1\n  iszero\n  tag_1\n  jumpi\n  0x00\n  dup1\n  revert\ntag_1:\n  pop\n  dataSize(sub_0)\n  dup1\n  dataOffset(sub_0)\n  0x00\n  codecopy\n  0x00\n  return\nstop\n\nsub_0: assembly {\n        /* \"FunctionOutputs1.sol\":57:586  contract FunctionOutputs {... */\n      mstore(0x40, 0x80)\n      callvalue\n      dup1\n      iszero\n      tag_1\n      jumpi\n      0x00\n      dup1\n      revert\n    tag_1:\n      pop\n      jumpi(tag_2, lt(calldatasize, 0x04))\n      shr(0xe0, calldataload(0x00))\n      dup1\n      0x3f7f3db6\n      eq\n      tag_3\n      jumpi\n      dup1\n      0x45f907a8\n      eq\n      tag_4\n      jumpi\n      dup1\n      0x86887544\n      eq\n      tag_5\n      jumpi\n      dup1\n      0xadb4d990\n      eq\n      tag_6\n      jumpi\n    tag_2:\n      0x00\n      dup1\n      revert\n        /* \"FunctionOutputs1.sol\":416:584  function destructingAssignments() public pure {... */\n    tag_3:\n      tag_7\n      tag_8\n      jump\t// in\n    tag_7:\n      stop\n        /* \"FunctionOutputs1.sol\":185:275  function named() public pure returns (uint256 x, bool b) {... */\n    tag_4:\n      tag_9\n      tag_10\n      jump\t// in\n    tag_9:\n      mload(0x40)\n      tag_11\n      swap3\n      swap2\n      swap1\n      tag_12\n      jump\t// in\n    tag_11:\n      mload(0x40)\n      dup1\n      swap2\n      sub\n      swap1\n      return\n        /* \"FunctionOutputs1.sol\":88:179  function returnMany() public pure returns (uint256, bool) {... */\n    tag_5:\n      tag_13\n      tag_14\n      jump\t// in\n    tag_13:\n      mload(0x40)\n      tag_15\n      swap3\n      swap2\n      swap1\n      tag_12\n      jump\t// in\n    tag_15:\n      mload(0x40)\n      dup1\n      swap2\n      sub\n      swap1\n      return\n        /* \"FunctionOutputs1.sol\":281:410  function assigned() public pure returns (uint256 x, bool b) {... */\n    tag_6:\n      tag_16\n      tag_17\n      jump\t// in\n    tag_16:\n      mload(0x40)\n      tag_18\n      swap3\n      swap2\n      swap1\n      tag_12\n      jump\t// in\n    tag_18:\n      mload(0x40)\n      dup1\n      swap2\n      sub\n      swap1\n      return\n        /* \"FunctionOutputs1.sol\":416:584  function destructingAssignments() public pure {... */\n    tag_8:\n        /* \"FunctionOutputs1.sol\":473:482  uint256 u */\n      0x00\n        /* \"FunctionOutputs1.sol\":484:490  bool b */\n      dup1\n        /* \"FunctionOutputs1.sol\":494:506  returnMany() */\n      tag_20\n        /* \"FunctionOutputs1.sol\":494:504  returnMany */\n      tag_14\n        /* \"FunctionOutputs1.sol\":494:506  returnMany() */\n      jump\t// in\n    tag_20:\n        /* \"FunctionOutputs1.sol\":472:506  (uint256 u, bool b) = returnMany() */\n      swap2\n      pop\n      swap2\n      pop\n        /* \"FunctionOutputs1.sol\":519:526  bool _b */\n      0x00\n        /* \"FunctionOutputs1.sol\":530:542  returnMany() */\n      tag_21\n        /* \"FunctionOutputs1.sol\":530:540  returnMany */\n      tag_14\n        /* \"FunctionOutputs1.sol\":530:542  returnMany() */\n      jump\t// in\n    tag_21:\n        /* \"FunctionOutputs1.sol\":516:542  (, bool _b) = returnMany() */\n      swap2\n      pop\n      pop\n        /* \"FunctionOutputs1.sol\":462:584  {... */\n      pop\n      pop\n      pop\n        /* \"FunctionOutputs1.sol\":416:584  function destructingAssignments() public pure {... */\n      jump\t// out\n        /* \"FunctionOutputs1.sol\":185:275  function named() public pure returns (uint256 x, bool b) {... */\n    tag_10:\n        /* \"FunctionOutputs1.sol\":223:232  uint256 x */\n      0x00\n        /* \"FunctionOutputs1.sol\":234:240  bool b */\n      dup1\n        /* \"FunctionOutputs1.sol\":260:261  1 */\n      0x01\n        /* \"FunctionOutputs1.sol\":263:267  true */\n      dup1\n        /* \"FunctionOutputs1.sol\":252:268  return (1, true) */\n      swap2\n      pop\n      swap2\n      pop\n        /* \"FunctionOutputs1.sol\":185:275  function named() public pure returns (uint256 x, bool b) {... */\n      swap1\n      swap2\n      jump\t// out\n        /* \"FunctionOutputs1.sol\":88:179  function returnMany() public pure returns (uint256, bool) {... */\n    tag_14:\n        /* \"FunctionOutputs1.sol\":131:138  uint256 */\n      0x00\n        /* \"FunctionOutputs1.sol\":140:144  bool */\n      dup1\n        /* \"FunctionOutputs1.sol\":164:165  1 */\n      0x01\n        /* \"FunctionOutputs1.sol\":167:171  true */\n      dup1\n        /* \"FunctionOutputs1.sol\":156:172  return (1, true) */\n      swap2\n      pop\n      swap2\n      pop\n        /* \"FunctionOutputs1.sol\":88:179  function returnMany() public pure returns (uint256, bool) {... */\n      swap1\n      swap2\n      jump\t// out\n        /* \"FunctionOutputs1.sol\":281:410  function assigned() public pure returns (uint256 x, bool b) {... */\n    tag_17:\n        /* \"FunctionOutputs1.sol\":322:331  uint256 x */\n      0x00\n        /* \"FunctionOutputs1.sol\":333:339  bool b */\n      dup1\n        /* \"FunctionOutputs1.sol\":384:385  1 */\n      0x01\n        /* \"FunctionOutputs1.sol\":380:385  x = 1 */\n      swap2\n      pop\n        /* \"FunctionOutputs1.sol\":399:403  true */\n      0x01\n        /* \"FunctionOutputs1.sol\":395:403  b = true */\n      swap1\n      pop\n        /* \"FunctionOutputs1.sol\":281:410  function assigned() public pure returns (uint256 x, bool b) {... */\n      swap1\n      swap2\n      jump\t// out\n        /* \"#utility.yul\":7:84   */\n    tag_25:\n        /* \"#utility.yul\":44:51   */\n      0x00\n        /* \"#utility.yul\":73:78   */\n      dup2\n        /* \"#utility.yul\":62:78   */\n      swap1\n      pop\n        /* \"#utility.yul\":7:84   */\n      swap2\n      swap1\n      pop\n      jump\t// out\n        /* \"#utility.yul\":90:208   */\n    tag_26:\n        /* \"#utility.yul\":177:201   */\n      tag_32\n        /* \"#utility.yul\":195:200   */\n      dup2\n        /* \"#utility.yul\":177:201   */\n      tag_25\n      jump\t// in\n    tag_32:\n        /* \"#utility.yul\":172:175   */\n      dup3\n        /* \"#utility.yul\":165:202   */\n      mstore\n        /* \"#utility.yul\":90:208   */\n      pop\n      pop\n      jump\t// out\n        /* \"#utility.yul\":214:304   */\n    tag_27:\n        /* \"#utility.yul\":248:255   */\n      0x00\n        /* \"#utility.yul\":291:296   */\n      dup2\n        /* \"#utility.yul\":284:297   */\n      iszero\n        /* \"#utility.yul\":277:298   */\n      iszero\n        /* \"#utility.yul\":266:298   */\n      swap1\n      pop\n        /* \"#utility.yul\":214:304   */\n      swap2\n      swap1\n      pop\n      jump\t// out\n        /* \"#utility.yul\":310:419   */\n    tag_28:\n        /* \"#utility.yul\":391:412   */\n      tag_35\n        /* \"#utility.yul\":406:411   */\n      dup2\n        /* \"#utility.yul\":391:412   */\n      tag_27\n      jump\t// in\n    tag_35:\n        /* \"#utility.yul\":386:389   */\n      dup3\n        /* \"#utility.yul\":379:413   */\n      mstore\n        /* \"#utility.yul\":310:419   */\n      pop\n      pop\n      jump\t// out\n        /* \"#utility.yul\":425:745   */\n    tag_12:\n        /* \"#utility.yul\":540:544   */\n      0x00\n        /* \"#utility.yul\":578:580   */\n      0x40\n        /* \"#utility.yul\":567:576   */\n      dup3\n        /* \"#utility.yul\":563:581   */\n      add\n        /* \"#utility.yul\":555:581   */\n      swap1\n      pop\n        /* \"#utility.yul\":591:662   */\n      tag_37\n        /* \"#utility.yul\":659:660   */\n      0x00\n        /* \"#utility.yul\":648:657   */\n      dup4\n        /* \"#utility.yul\":644:661   */\n      add\n        /* \"#utility.yul\":635:641   */\n      dup6\n        /* \"#utility.yul\":591:662   */\n      tag_26\n      jump\t// in\n    tag_37:\n        /* \"#utility.yul\":672:738   */\n      tag_38\n        /* \"#utility.yul\":734:736   */\n      0x20\n        /* \"#utility.yul\":723:732   */\n      dup4\n        /* \"#utility.yul\":719:737   */\n      add\n        /* \"#utility.yul\":710:716   */\n      dup5\n        /* \"#utility.yul\":672:738   */\n      tag_28\n      jump\t// in\n    tag_38:\n        /* \"#utility.yul\":425:745   */\n      swap4\n      swap3\n      pop\n      pop\n      pop\n      jump\t// out\n\n    auxdata: 0xa26469706673582212201de641767d276f29727328fb797d81a49a939b43a18a2db79c4535cf1736c35164736f6c634300081a0033\n}\n",
				"bytecode": {
					"linkReferences": {},
					"object": "6080604052348015600e575f80fd5b5061018b8061001c5f395ff3fe608060405234801561000f575f80fd5b506004361061004a575f3560e01c80633f7f3db61461004e57806345f907a8146100585780638688754414610077578063adb4d99014610096575b5f80fd5b6100566100b5565b005b6100606100d4565b60405161006e92919061012e565b60405180910390f35b61007f6100e1565b60405161008d92919061012e565b60405180910390f35b61009e6100ee565b6040516100ac92919061012e565b60405180910390f35b5f806100bf6100e1565b915091505f6100cc6100e1565b915050505050565b5f80600180915091509091565b5f80600180915091509091565b5f8060019150600190509091565b5f819050919050565b61010e816100fc565b82525050565b5f8115159050919050565b61012881610114565b82525050565b5f6040820190506101415f830185610105565b61014e602083018461011f565b939250505056fea26469706673582212201de641767d276f29727328fb797d81a49a939b43a18a2db79c4535cf1736c35164736f6c634300081a0033",
					"opcodes": "PUSH1 0x80 PUSH1 0x40 MSTORE CALLVALUE DUP1 ISZERO PUSH1 0xE JUMPI PUSH0 DUP1 REVERT JUMPDEST POP PUSH2 0x18B DUP1 PUSH2 0x1C PUSH0 CODECOPY PUSH0 RETURN INVALID PUSH1 0x80 PUSH1 0x40 MSTORE CALLVALUE DUP1 ISZERO PUSH2 0xF JUMPI PUSH0 DUP1 REVERT JUMPDEST POP PUSH1 0x4 CALLDATASIZE LT PUSH2 0x4A JUMPI PUSH0 CALLDATALOAD PUSH1 0xE0 SHR DUP1 PUSH4 0x3F7F3DB6 EQ PUSH2 0x4E JUMPI DUP1 PUSH4 0x45F907A8 EQ PUSH2 0x58 JUMPI DUP1 PUSH4 0x86887544 EQ PUSH2 0x77 JUMPI DUP1 PUSH4 0xADB4D990 EQ PUSH2 0x96 JUMPI JUMPDEST PUSH0 DUP1 REVERT JUMPDEST PUSH2 0x56 PUSH2 0xB5 JUMP JUMPDEST STOP JUMPDEST PUSH2 0x60 PUSH2 0xD4 JUMP JUMPDEST PUSH1 0x40 MLOAD PUSH2 0x6E SWAP3 SWAP2 SWAP1 PUSH2 0x12E JUMP JUMPDEST PUSH1 0x40 MLOAD DUP1 SWAP2 SUB SWAP1 RETURN JUMPDEST PUSH2 0x7F PUSH2 0xE1 JUMP JUMPDEST PUSH1 0x40 MLOAD PUSH2 0x8D SWAP3 SWAP2 SWAP1 PUSH2 0x12E JUMP JUMPDEST PUSH1 0x40 MLOAD DUP1 SWAP2 SUB SWAP1 RETURN JUMPDEST PUSH2 0x9E PUSH2 0xEE JUMP JUMPDEST PUSH1 0x40 MLOAD PUSH2 0xAC SWAP3 SWAP2 SWAP1 PUSH2 0x12E JUMP JUMPDEST PUSH1 0x40 MLOAD DUP1 SWAP2 SUB SWAP1 RETURN JUMPDEST PUSH0 DUP1 PUSH2 0xBF PUSH2 0xE1 JUMP JUMPDEST SWAP2 POP SWAP2 POP PUSH0 PUSH2 0xCC PUSH2 0xE1 JUMP JUMPDEST SWAP2 POP POP POP POP POP JUMP JUMPDEST PUSH0 DUP1 PUSH1 0x1 DUP1 SWAP2 POP SWAP2 POP SWAP1 SWAP2 JUMP JUMPDEST PUSH0 DUP1 PUSH1 0x1 DUP1 SWAP2 POP SWAP2 POP SWAP1 SWAP2 JUMP JUMPDEST PUSH0 DUP1 PUSH1 0x1 SWAP2 POP PUSH1 0x1 SWAP1 POP SWAP1 SWAP2 JUMP JUMPDEST PUSH0 DUP2 SWAP1 POP SWAP2 SWAP1 POP JUMP JUMPDEST PUSH2 0x10E DUP2 PUSH2 0xFC JUMP JUMPDEST DUP3 MSTORE POP POP JUMP JUMPDEST PUSH0 DUP2 ISZERO ISZERO SWAP1 POP SWAP2 SWAP1 POP JUMP JUMPDEST PUSH2 0x128 DUP2 PUSH2 0x114 JUMP JUMPDEST DUP3 MSTORE POP POP JUMP JUMPDEST PUSH0 PUSH1 0x40 DUP3 ADD SWAP1 POP PUSH2 0x141 PUSH0 DUP4 ADD DUP6 PUSH2 0x105 JUMP JUMPDEST PUSH2 0x14E PUSH1 0x20 DUP4 ADD DUP5 PUSH2 0x11F JUMP JUMPDEST SWAP4 SWAP3 POP POP POP JUMP INVALID LOG2 PUSH5 0x6970667358 0x22 SLT KECCAK256 SAR 0xE6 COINBASE PUSH23 0x7D276F29727328FB797D81A49A939B43A18A2DB79C4535 0xCF OR CALLDATASIZE 0xC3 MLOAD PUSH5 0x736F6C6343 STOP ADDMOD BYTE STOP CALLER "
				},
				"gasEstimates": {
					"creation": {
						"codeDepositCost": "79000",
						"executionCost": "127",
						"totalCost": "79127"
					},
					"external": {
						"assigned()": "495",
						"destructingAssignments()": "infinite",
						"named()": "451",
						"returnMany()": "473"
					}
				},
				"methodIdentifiers": {
					"assigned()": "adb4d990",
					"destructingAssignments()": "3f7f3db6",
					"named()": "45f907a8",
					"returnMany()": "86887544"
				}
			},
			"storageLayout": {
				"storage": [],
				"types": null
			},
			"userdoc": {
				"kind": "user",
				"methods": {},
				"version": 1
			}
		}
	}
}