{
	"ForAndWhileLoops.sol": {
		"ForAndWhileLoops": {
			"abi": [
				{
					"inputs": [],
					"name": "loops",
					"outputs": [],
					"stateMutability": "pure",
					"type": "function"
				},
				{
					"inputs": [
						{
							"internalType": "uint256",
							"name": "n",
							"type": "uint256"
						}
					],
					"name": "sum",
					"outputs": [
						{
							"internalType": "uint256",
							"name": "",
							"type": "uint256"
						}
					],
					"stateMutability": "pure",
					"type": "function"
				}
			],
			"devdoc": {
				"kind": "dev",
				"methods": {},
				"version": 1
			},
			"evm": {
				"assembly": "    /* \"ForAndWhileLoops.sol\":57:565  contract ForAndWhileLoops {... */\n  mstore(0x40, 0x80)\n  callvalue\n  dup1\n  iszero\n  tag_1\n  jumpi\n  revert(0x00, 0x00)\ntag_1:\n  pop\n  dataSize(sub_0)\n  dup1\n  dataOffset(sub_0)\n  0x00\n  codecopy\n  0x00\n  return\nstop\n\nsub_0: assembly {\n        /* \"ForAndWhileLoops.sol\":57:565  contract ForAndWhileLoops {... */\n      mstore(0x40, 0x80)\n      callvalue\n      dup1\n      iszero\n      tag_1\n      jumpi\n      revert(0x00, 0x00)\n    tag_1:\n      pop\n      jumpi(tag_2, lt(calldatasize, 0x04))\n      shr(0xe0, calldataload(0x00))\n      dup1\n      0x188b85b4\n      eq\n      tag_3\n      jumpi\n      dup1\n      0x938b9ceb\n      eq\n      tag_4\n      jumpi\n    tag_2:\n      revert(0x00, 0x00)\n        /* \"ForAndWhileLoops.sol\":391:563  function sum(uint256 n) external pure returns (uint256) {... */\n    tag_3:\n      tag_5\n      0x04\n      dup1\n      calldatasize\n      sub\n      dup2\n      add\n      swap1\n      tag_6\n      swap2\n      swap1\n      tag_7\n      jump\t// in\n    tag_6:\n      tag_8\n      jump\t// in\n    tag_5:\n      mload(0x40)\n      tag_9\n      swap2\n      swap1\n      tag_10\n      jump\t// in\n    tag_9:\n      mload(0x40)\n      dup1\n      swap2\n      sub\n      swap1\n      return\n        /* \"ForAndWhileLoops.sol\":89:385  function loops() external pure {... */\n    tag_4:\n      tag_11\n      tag_12\n      jump\t// in\n    tag_11:\n      stop\n        /* \"ForAndWhileLoops.sol\":391:563  function sum(uint256 n) external pure returns (uint256) {... */\n    tag_8:\n        /* \"ForAndWhileLoops.sol\":438:445  uint256 */\n      0x00\n        /* \"ForAndWhileLoops.sol\":457:466  uint256 s */\n      0x00\n        /* \"ForAndWhileLoops.sol\":481:490  uint256 i */\n      0x00\n        /* \"ForAndWhileLoops.sol\":493:494  1 */\n      0x01\n        /* \"ForAndWhileLoops.sol\":481:494  uint256 i = 1 */\n      swap1\n      pop\n        /* \"ForAndWhileLoops.sol\":476:539  for (uint256 i = 1; i < n; i++) {... */\n    tag_14:\n        /* \"ForAndWhileLoops.sol\":500:501  n */\n      dup4\n        /* \"ForAndWhileLoops.sol\":496:497  i */\n      dup2\n        /* \"ForAndWhileLoops.sol\":496:501  i < n */\n      lt\n        /* \"ForAndWhileLoops.sol\":476:539  for (uint256 i = 1; i < n; i++) {... */\n      iszero\n      tag_15\n      jumpi\n        /* \"ForAndWhileLoops.sol\":527:528  i */\n      dup1\n        /* \"ForAndWhileLoops.sol\":522:528  s += i */\n      dup3\n      tag_17\n      swap2\n      swap1\n      tag_18\n      jump\t// in\n    tag_17:\n      swap2\n      pop\n        /* \"ForAndWhileLoops.sol\":503:506  i++ */\n      dup1\n      dup1\n      0x01\n      add\n      swap2\n      pop\n      pop\n        /* \"ForAndWhileLoops.sol\":476:539  for (uint256 i = 1; i < n; i++) {... */\n      jump(tag_14)\n    tag_15:\n      pop\n        /* \"ForAndWhileLoops.sol\":555:556  s */\n      dup1\n        /* \"ForAndWhileLoops.sol\":548:556  return s */\n      swap2\n      pop\n      pop\n        /* \"ForAndWhileLoops.sol\":391:563  function sum(uint256 n) external pure returns (uint256) {... */\n      swap2\n      swap1\n      pop\n      jump\t// out\n        /* \"ForAndWhileLoops.sol\":89:385  function loops() external pure {... */\n    tag_12:\n        /* \"ForAndWhileLoops.sol\":135:144  uint256 i */\n      0x00\n        /* \"ForAndWhileLoops.sol\":147:148  0 */\n      0x00\n        /* \"ForAndWhileLoops.sol\":135:148  uint256 i = 0 */\n      swap1\n      pop\n        /* \"ForAndWhileLoops.sol\":130:303  for (uint256 i = 0; i < 10; i++) {... */\n    tag_20:\n        /* \"ForAndWhileLoops.sol\":154:156  10 */\n      0x0a\n        /* \"ForAndWhileLoops.sol\":150:151  i */\n      dup2\n        /* \"ForAndWhileLoops.sol\":150:156  i < 10 */\n      lt\n        /* \"ForAndWhileLoops.sol\":130:303  for (uint256 i = 0; i < 10; i++) {... */\n      iszero\n      tag_21\n      jumpi\n        /* \"ForAndWhileLoops.sol\":186:187  3 */\n      0x03\n        /* \"ForAndWhileLoops.sol\":181:182  i */\n      dup2\n        /* \"ForAndWhileLoops.sol\":181:187  i == 3 */\n      sub\n        /* \"ForAndWhileLoops.sol\":177:230  if (i == 3) {... */\n      iszero\n        /* \"ForAndWhileLoops.sol\":207:215  continue */\n      tag_22\n        /* \"ForAndWhileLoops.sol\":177:230  if (i == 3) {... */\n      jumpi\n        /* \"ForAndWhileLoops.sol\":252:253  5 */\n      0x05\n        /* \"ForAndWhileLoops.sol\":247:248  i */\n      dup2\n        /* \"ForAndWhileLoops.sol\":247:253  i == 5 */\n      sub\n        /* \"ForAndWhileLoops.sol\":243:293  if (i == 5) {... */\n      iszero\n        /* \"ForAndWhileLoops.sol\":273:278  break */\n      tag_21\n        /* \"ForAndWhileLoops.sol\":243:293  if (i == 5) {... */\n      jumpi\n        /* \"ForAndWhileLoops.sol\":130:303  for (uint256 i = 0; i < 10; i++) {... */\n    tag_22:\n        /* \"ForAndWhileLoops.sol\":158:161  i++ */\n      dup1\n      dup1\n      0x01\n      add\n      swap2\n      pop\n      pop\n        /* \"ForAndWhileLoops.sol\":130:303  for (uint256 i = 0; i < 10; i++) {... */\n      jump(tag_20)\n    tag_21:\n      pop\n        /* \"ForAndWhileLoops.sol\":313:322  uint256 j */\n      0x00\n        /* \"ForAndWhileLoops.sol\":325:326  0 */\n      0x00\n        /* \"ForAndWhileLoops.sol\":313:326  uint256 j = 0 */\n      swap1\n      pop\n        /* \"ForAndWhileLoops.sol\":336:379  while (j < 10) {... */\n    tag_25:\n        /* \"ForAndWhileLoops.sol\":347:349  10 */\n      0x0a\n        /* \"ForAndWhileLoops.sol\":343:344  j */\n      dup2\n        /* \"ForAndWhileLoops.sol\":343:349  j < 10 */\n      lt\n        /* \"ForAndWhileLoops.sol\":336:379  while (j < 10) {... */\n      iszero\n      tag_26\n      jumpi\n        /* \"ForAndWhileLoops.sol\":365:368  j++ */\n      dup1\n      dup1\n      tag_27\n      swap1\n      tag_28\n      jump\t// in\n    tag_27:\n      swap2\n      pop\n      pop\n        /* \"ForAndWhileLoops.sol\":336:379  while (j < 10) {... */\n      jump(tag_25)\n    tag_26:\n        /* \"ForAndWhileLoops.sol\":120:385  {... */\n      pop\n        /* \"ForAndWhileLoops.sol\":89:385  function loops() external pure {... */\n      jump\t// out\n        /* \"#utility.yul\":88:205   */\n    tag_30:\n        /* \"#utility.yul\":197:198   */\n      0x00\n        /* \"#utility.yul\":194:195   */\n      0x00\n        /* \"#utility.yul\":187:199   */\n      revert\n        /* \"#utility.yul\":334:411   */\n    tag_32:\n        /* \"#utility.yul\":371:378   */\n      0x00\n        /* \"#utility.yul\":400:405   */\n      dup2\n        /* \"#utility.yul\":389:405   */\n      swap1\n      pop\n        /* \"#utility.yul\":334:411   */\n      swap2\n      swap1\n      pop\n      jump\t// out\n        /* \"#utility.yul\":417:539   */\n    tag_33:\n        /* \"#utility.yul\":490:514   */\n      tag_43\n        /* \"#utility.yul\":508:513   */\n      dup2\n        /* \"#utility.yul\":490:514   */\n      tag_32\n      jump\t// in\n    tag_43:\n        /* \"#utility.yul\":483:488   */\n      dup2\n        /* \"#utility.yul\":480:515   */\n      eq\n        /* \"#utility.yul\":470:533   */\n      tag_44\n      jumpi\n        /* \"#utility.yul\":529:530   */\n      0x00\n        /* \"#utility.yul\":526:527   */\n      0x00\n        /* \"#utility.yul\":519:531   */\n      revert\n        /* \"#utility.yul\":470:533   */\n    tag_44:\n        /* \"#utility.yul\":417:539   */\n      pop\n      jump\t// out\n        /* \"#utility.yul\":545:684   */\n    tag_34:\n        /* \"#utility.yul\":591:596   */\n      0x00\n        /* \"#utility.yul\":629:635   */\n      dup2\n        /* \"#utility.yul\":616:636   */\n      calldataload\n        /* \"#utility.yul\":607:636   */\n      swap1\n      pop\n        /* \"#utility.yul\":645:678   */\n      tag_46\n        /* \"#utility.yul\":672:677   */\n      dup2\n        /* \"#utility.yul\":645:678   */\n      tag_33\n      jump\t// in\n    tag_46:\n        /* \"#utility.yul\":545:684   */\n      swap3\n      swap2\n      pop\n      pop\n      jump\t// out\n        /* \"#utility.yul\":690:1019   */\n    tag_7:\n        /* \"#utility.yul\":749:755   */\n      0x00\n        /* \"#utility.yul\":798:800   */\n      0x20\n        /* \"#utility.yul\":786:795   */\n      dup3\n        /* \"#utility.yul\":777:784   */\n      dup5\n        /* \"#utility.yul\":773:796   */\n      sub\n        /* \"#utility.yul\":769:801   */\n      slt\n        /* \"#utility.yul\":766:885   */\n      iszero\n      tag_48\n      jumpi\n        /* \"#utility.yul\":804:883   */\n      tag_49\n      tag_30\n      jump\t// in\n    tag_49:\n        /* \"#utility.yul\":766:885   */\n    tag_48:\n        /* \"#utility.yul\":924:925   */\n      0x00\n        /* \"#utility.yul\":949:1002   */\n      tag_50\n        /* \"#utility.yul\":994:1001   */\n      dup5\n        /* \"#utility.yul\":985:991   */\n      dup3\n        /* \"#utility.yul\":974:983   */\n      dup6\n        /* \"#utility.yul\":970:992   */\n      add\n        /* \"#utility.yul\":949:1002   */\n      tag_34\n      jump\t// in\n    tag_50:\n        /* \"#utility.yul\":939:1002   */\n      swap2\n      pop\n        /* \"#utility.yul\":895:1012   */\n      pop\n        /* \"#utility.yul\":690:1019   */\n      swap3\n      swap2\n      pop\n      pop\n      jump\t// out\n        /* \"#utility.yul\":1025:1143   */\n    tag_35:\n        /* \"#utility.yul\":1112:1136   */\n      tag_52\n        /* \"#utility.yul\":1130:1135   */\n      dup2\n        /* \"#utility.yul\":1112:1136   */\n      tag_32\n      jump\t// in\n    tag_52:\n        /* \"#utility.yul\":1107:1110   */\n      dup3\n        /* \"#utility.yul\":1100:1137   */\n      mstore\n        /* \"#utility.yul\":1025:1143   */\n      pop\n      pop\n      jump\t// out\n        /* \"#utility.yul\":1149:1371   */\n    tag_10:\n        /* \"#utility.yul\":1242:1246   */\n      0x00\n        /* \"#utility.yul\":1280:1282   */\n      0x20\n        /* \"#utility.yul\":1269:1278   */\n      dup3\n        /* \"#utility.yul\":1265:1283   */\n      add\n        /* \"#utility.yul\":1257:1283   */\n      swap1\n      pop\n        /* \"#utility.yul\":1293:1364   */\n      tag_54\n        /* \"#utility.yul\":1361:1362   */\n      0x00\n        /* \"#utility.yul\":1350:1359   */\n      dup4\n        /* \"#utility.yul\":1346:1363   */\n      add\n        /* \"#utility.yul\":1337:1343   */\n      dup5\n        /* \"#utility.yul\":1293:1364   */\n      tag_35\n      jump\t// in\n    tag_54:\n        /* \"#utility.yul\":1149:1371   */\n      swap3\n      swap2\n      pop\n      pop\n      jump\t// out\n        /* \"#utility.yul\":1377:1557   */\n    tag_36:\n        /* \"#utility.yul\":1425:1502   */\n      0x4e487b7100000000000000000000000000000000000000000000000000000000\n        /* \"#utility.yul\":1422:1423   */\n      0x00\n        /* \"#utility.yul\":1415:1503   */\n      mstore\n        /* \"#utility.yul\":1522:1526   */\n      0x11\n        /* \"#utility.yul\":1519:1520   */\n      0x04\n        /* \"#utility.yul\":1512:1527   */\n      mstore\n        /* \"#utility.yul\":1546:1550   */\n      0x24\n        /* \"#utility.yul\":1543:1544   */\n      0x00\n        /* \"#utility.yul\":1536:1551   */\n      revert\n        /* \"#utility.yul\":1563:1754   */\n    tag_18:\n        /* \"#utility.yul\":1603:1606   */\n      0x00\n        /* \"#utility.yul\":1622:1642   */\n      tag_57\n        /* \"#utility.yul\":1640:1641   */\n      dup3\n        /* \"#utility.yul\":1622:1642   */\n      tag_32\n      jump\t// in\n    tag_57:\n        /* \"#utility.yul\":1617:1642   */\n      swap2\n      pop\n        /* \"#utility.yul\":1656:1676   */\n      tag_58\n        /* \"#utility.yul\":1674:1675   */\n      dup4\n        /* \"#utility.yul\":1656:1676   */\n      tag_32\n      jump\t// in\n    tag_58:\n        /* \"#utility.yul\":1651:1676   */\n      swap3\n      pop\n        /* \"#utility.yul\":1699:1700   */\n      dup3\n        /* \"#utility.yul\":1696:1697   */\n      dup3\n        /* \"#utility.yul\":1692:1701   */\n      add\n        /* \"#utility.yul\":1685:1701   */\n      swap1\n      pop\n        /* \"#utility.yul\":1720:1723   */\n      dup1\n        /* \"#utility.yul\":1717:1718   */\n      dup3\n        /* \"#utility.yul\":1714:1724   */\n      gt\n        /* \"#utility.yul\":1711:1747   */\n      iszero\n      tag_59\n      jumpi\n        /* \"#utility.yul\":1727:1745   */\n      tag_60\n      tag_36\n      jump\t// in\n    tag_60:\n        /* \"#utility.yul\":1711:1747   */\n    tag_59:\n        /* \"#utility.yul\":1563:1754   */\n      swap3\n      swap2\n      pop\n      pop\n      jump\t// out\n        /* \"#utility.yul\":1760:1993   */\n    tag_28:\n        /* \"#utility.yul\":1799:1802   */\n      0x00\n        /* \"#utility.yul\":1822:1846   */\n      tag_62\n        /* \"#utility.yul\":1840:1845   */\n      dup3\n        /* \"#utility.yul\":1822:1846   */\n      tag_32\n      jump\t// in\n    tag_62:\n        /* \"#utility.yul\":1813:1846   */\n      swap2\n      pop\n        /* \"#utility.yul\":1868:1934   */\n      0xffffffffffffffffffffffffffffffffffffffffffffffffffffffffffffffff\n        /* \"#utility.yul\":1861:1866   */\n      dup3\n        /* \"#utility.yul\":1858:1935   */\n      sub\n        /* \"#utility.yul\":1855:1958   */\n      tag_63\n      jumpi\n        /* \"#utility.yul\":1938:1956   */\n      tag_64\n      tag_36\n      jump\t// in\n    tag_64:\n        /* \"#utility.yul\":1855:1958   */\n    tag_63:\n        /* \"#utility.yul\":1985:1986   */\n      0x01\n        /* \"#utility.yul\":1978:1983   */\n      dup3\n        /* \"#utility.yul\":1974:1987   */\n      add\n        /* \"#utility.yul\":1967:1987   */\n      swap1\n      pop\n        /* \"#utility.yul\":1760:1993   */\n      swap2\n      swap1\n      pop\n      jump\t// out\n\n    auxdata: 0xa2646970667358221220c034c9fd621ad4cc8c3e52709a58d6831ab53dfe9bebf993e7105a98d1a42f7664736f6c634300081c0033\n}\n",
				"bytecode": {
					"linkReferences": {},
					"object": "6080604052348015600e575f5ffd5b506102618061001c5f395ff3fe608060405234801561000f575f5ffd5b5060043610610034575f3560e01c8063188b85b414610038578063938b9ceb14610068575b5f5ffd5b610052600480360381019061004d9190610131565b610072565b60405161005f919061016b565b60405180910390f35b6100706100a7565b005b5f5f5f600190505b8381101561009d57808261008e91906101b1565b9150808060010191505061007a565b5080915050919050565b5f5f90505b600a8110156100d55760038103156100c85760058103156100d5575b80806001019150506100ac565b505f5f90505b600a8110156100f75780806100ef906101e4565b9150506100db565b50565b5f5ffd5b5f819050919050565b610110816100fe565b811461011a575f5ffd5b50565b5f8135905061012b81610107565b92915050565b5f60208284031215610146576101456100fa565b5b5f6101538482850161011d565b91505092915050565b610165816100fe565b82525050565b5f60208201905061017e5f83018461015c565b92915050565b7f4e487b71000000000000000000000000000000000000000000000000000000005f52601160045260245ffd5b5f6101bb826100fe565b91506101c6836100fe565b92508282019050808211156101de576101dd610184565b5b92915050565b5f6101ee826100fe565b91507fffffffffffffffffffffffffffffffffffffffffffffffffffffffffffffffff82036102205761021f610184565b5b60018201905091905056fea2646970667358221220c034c9fd621ad4cc8c3e52709a58d6831ab53dfe9bebf993e7105a98d1a42f7664736f6c634300081c0033",
					"opcodes": "PUSH1 0x80 PUSH1 0x40 MSTORE CALLVALUE DUP1 ISZERO PUSH1 0xE JUMPI PUSH0 PUSH0 REVERT JUMPDEST POP PUSH2 0x261 DUP1 PUSH2 0x1C PUSH0 CODECOPY PUSH0 RETURN INVALID PUSH1 0x80 PUSH1 0x40 MSTORE CALLVALUE DUP1 ISZERO PUSH2 0xF JUMPI PUSH0 PUSH0 REVERT JUMPDEST POP PUSH1 0x4 CALLDATASIZE LT PUSH2 0x34 JUMPI PUSH0 CALLDATALOAD PUSH1 0xE0 SHR DUP1 PUSH4 0x188B85B4 EQ PUSH2 0x38 JUMPI DUP1 PUSH4 0x938B9CEB EQ PUSH2 0x68 JUMPI JUMPDEST PUSH0 PUSH0 REVERT JUMPDEST PUSH2 0x52 PUSH1 0x4 DUP1 CALLDATASIZE SUB DUP2 ADD SWAP1 PUSH2 0x4D SWAP2 SWAP1 PUSH2 0x131 JUMP JUMPDEST PUSH2 0x72 JUMP JUMPDEST PUSH1 0x40 MLOAD PUSH2 0x5F SWAP2 SWAP1 PUSH2 0x16B JUMP JUMPDEST PUSH1 0x40 MLOAD DUP1 SWAP2 SUB SWAP1 RETURN JUMPDEST PUSH2 0x70 PUSH2 0xA7 JUMP JUMPDEST STOP JUMPDEST PUSH0 PUSH0 PUSH0 PUSH1 0x1 SWAP1 POP JUMPDEST DUP4 DUP2 LT ISZERO PUSH2 0x9D JUMPI DUP1 DUP3 PUSH2 0x8E SWAP2 SWAP1 PUSH2 0x1B1 JUMP JUMPDEST SWAP2 POP DUP1 DUP1 PUSH1 0x1 ADD SWAP2 POP POP PUSH2 0x7A JUMP JUMPDEST POP DUP1 SWAP2 POP POP SWAP2 SWAP1 POP JUMP JUMPDEST PUSH0 PUSH0 SWAP1 POP JUMPDEST PUSH1 0xA DUP2 LT ISZERO PUSH2 0xD5 JUMPI PUSH1 0x3 DUP2 SUB ISZERO PUSH2 0xC8 JUMPI PUSH1 0x5 DUP2 SUB ISZERO PUSH2 0xD5 JUMPI JUMPDEST DUP1 DUP1 PUSH1 0x1 ADD SWAP2 POP POP PUSH2 0xAC JUMP JUMPDEST POP PUSH0 PUSH0 SWAP1 POP JUMPDEST PUSH1 0xA DUP2 LT ISZERO PUSH2 0xF7 JUMPI DUP1 DUP1 PUSH2 0xEF SWAP1 PUSH2 0x1E4 JUMP JUMPDEST SWAP2 POP POP PUSH2 0xDB JUMP JUMPDEST POP JUMP JUMPDEST PUSH0 PUSH0 REVERT JUMPDEST PUSH0 DUP2 SWAP1 POP SWAP2 SWAP1 POP JUMP JUMPDEST PUSH2 0x110 DUP2 PUSH2 0xFE JUMP JUMPDEST DUP2 EQ PUSH2 0x11A JUMPI PUSH0 PUSH0 REVERT JUMPDEST POP JUMP JUMPDEST PUSH0 DUP2 CALLDATALOAD SWAP1 POP PUSH2 0x12B DUP2 PUSH2 0x107 JUMP JUMPDEST SWAP3 SWAP2 POP POP JUMP JUMPDEST PUSH0 PUSH1 0x20 DUP3 DUP5 SUB SLT ISZERO PUSH2 0x146 JUMPI PUSH2 0x145 PUSH2 0xFA JUMP JUMPDEST JUMPDEST PUSH0 PUSH2 0x153 DUP5 DUP3 DUP6 ADD PUSH2 0x11D JUMP JUMPDEST SWAP2 POP POP SWAP3 SWAP2 POP POP JUMP JUMPDEST PUSH2 0x165 DUP2 PUSH2 0xFE JUMP JUMPDEST DUP3 MSTORE POP POP JUMP JUMPDEST PUSH0 PUSH1 0x20 DUP3 ADD SWAP1 POP PUSH2 0x17E PUSH0 DUP4 ADD DUP5 PUSH2 0x15C JUMP JUMPDEST SWAP3 SWAP2 POP POP JUMP JUMPDEST PUSH32 0x4E487B7100000000000000000000000000000000000000000000000000000000 PUSH0 MSTORE PUSH1 0x11 PUSH1 0x4 MSTORE PUSH1 0x24 PUSH0 REVERT JUMPDEST PUSH0 PUSH2 0x1BB DUP3 PUSH2 0xFE JUMP JUMPDEST SWAP2 POP PUSH2 0x1C6 DUP4 PUSH2 0xFE JUMP JUMPDEST SWAP3 POP DUP3 DUP3 ADD SWAP1 POP DUP1 DUP3 GT ISZERO PUSH2 0x1DE JUMPI PUSH2 0x1DD PUSH2 0x184 JUMP JUMPDEST JUMPDEST SWAP3 SWAP2 POP POP JUMP JUMPDEST PUSH0 PUSH2 0x1EE DUP3 PUSH2 0xFE JUMP JUMPDEST SWAP2 POP PUSH32 0xFFFFFFFFFFFFFFFFFFFFFFFFFFFFFFFFFFFFFFFFFFFFFFFFFFFFFFFFFFFFFFFF DUP3 SUB PUSH2 0x220 JUMPI PUSH2 0x21F PUSH2 0x184 JUMP JUMPDEST JUMPDEST PUSH1 0x1 DUP3 ADD SWAP1 POP SWAP2 SWAP1 POP JUMP INVALID LOG2 PUSH5 0x6970667358 0x22 SLT KECCAK256 0xC0 CALLVALUE 0xC9 REVERT PUSH3 0x1AD4CC DUP13 RETURNDATACOPY MSTORE PUSH17 0x9A58D6831AB53DFE9BEBF993E7105A98D1 LOG4 0x2F PUSH23 0x64736F6C634300081C0033000000000000000000000000 "
				},
				"gasEstimates": {
					"creation": {
						"codeDepositCost": "121800",
						"executionCost": "169",
						"totalCost": "121969"
					},
					"external": {
						"loops()": "infinite",
						"sum(uint256)": "infinite"
					}
				},
				"methodIdentifiers": {
					"loops()": "938b9ceb",
					"sum(uint256)": "188b85b4"
				}
			},
			"storageLayout": {
				"storage": [],
				"types": null
			},
			"userdoc": {
				"kind": "user",
				"methods": {},
				"version": 1
			}
		}
	}
}