{
	"data": {
		"bytecode": {
			"linkReferences": {},
			"object": "6080604052348015600e575f80fd5b506106048061001c5f395ff3fe608060405234801561000f575f80fd5b506004361061007b575f3560e01c80635c975abb116100595780635c975abb146100c3578063c2985578146100e1578063d9f2ac8a146100eb578063e3a9d1ef146100f55761007b565b806306661abd1461007f578063119fbbd41461009d57806316c38b3c146100a7575b5f80fd5b610087610111565b6040516100949190610320565b60405180910390f35b6100a5610117565b005b6100c160048036038101906100bc9190610372565b61017e565b005b6100cb610199565b6040516100d891906103ac565b60405180910390f35b6100e96101a9565b005b6100f36101f4565b005b61010f600480360381019061010a91906103ef565b61025b565b005b60015481565b5f8054906101000a900460ff1615610164576040517f08c379a000000000000000000000000000000000000000000000000000000000815260040161015b90610474565b60405180910390fd5b6001805f82825461017591906104bf565b92505081905550565b805f806101000a81548160ff02191690831515021790555050565b5f8054906101000a900460ff1681565b6001805f8282546101ba91906104bf565b925050819055506001805f8282546101d291906104bf565b92505081905550600260015f8282546101eb91906104f2565b92505081905550565b5f8054906101000a900460ff1615610241576040517f08c379a000000000000000000000000000000000000000000000000000000000815260040161023890610474565b60405180910390fd5b6001805f8282546102529190610533565b92505081905550565b5f8054906101000a900460ff16156102a8576040517f08c379a000000000000000000000000000000000000000000000000000000000815260040161029f90610474565b60405180910390fd5b80606481106102ec576040517f08c379a00000000000000000000000000000000000000000000000000000000081526004016102e3906105b0565b60405180910390fd5b8160015f8282546102fd91906104bf565b925050819055505050565b5f819050919050565b61031a81610308565b82525050565b5f6020820190506103335f830184610311565b92915050565b5f80fd5b5f8115159050919050565b6103518161033d565b811461035b575f80fd5b50565b5f8135905061036c81610348565b92915050565b5f6020828403121561038757610386610339565b5b5f6103948482850161035e565b91505092915050565b6103a68161033d565b82525050565b5f6020820190506103bf5f83018461039d565b92915050565b6103ce81610308565b81146103d8575f80fd5b50565b5f813590506103e9816103c5565b92915050565b5f6020828403121561040457610403610339565b5b5f610411848285016103db565b91505092915050565b5f82825260208201905092915050565b7f70617573656400000000000000000000000000000000000000000000000000005f82015250565b5f61045e60068361041a565b91506104698261042a565b602082019050919050565b5f6020820190508181035f83015261048b81610452565b9050919050565b7f4e487b71000000000000000000000000000000000000000000000000000000005f52601160045260245ffd5b5f6104c982610308565b91506104d483610308565b92508282019050808211156104ec576104eb610492565b5b92915050565b5f6104fc82610308565b915061050783610308565b925082820261051581610308565b9150828204841483151761052c5761052b610492565b5b5092915050565b5f61053d82610308565b915061054883610308565b92508282039050818111156105605761055f610492565b5b92915050565b7f78203e3d203130300000000000000000000000000000000000000000000000005f82015250565b5f61059a60088361041a565b91506105a582610566565b602082019050919050565b5f6020820190508181035f8301526105c78161058e565b905091905056fea2646970667358221220688065c3f2f7c1bcfcc347416216dc5f3b13a24465f521b23101e65c7471239664736f6c634300081a0033",
			"opcodes": "PUSH1 0x80 PUSH1 0x40 MSTORE CALLVALUE DUP1 ISZERO PUSH1 0xE JUMPI PUSH0 DUP1 REVERT JUMPDEST POP PUSH2 0x604 DUP1 PUSH2 0x1C PUSH0 CODECOPY PUSH0 RETURN INVALID PUSH1 0x80 PUSH1 0x40 MSTORE CALLVALUE DUP1 ISZERO PUSH2 0xF JUMPI PUSH0 DUP1 REVERT JUMPDEST POP PUSH1 0x4 CALLDATASIZE LT PUSH2 0x7B JUMPI PUSH0 CALLDATALOAD PUSH1 0xE0 SHR DUP1 PUSH4 0x5C975ABB GT PUSH2 0x59 JUMPI DUP1 PUSH4 0x5C975ABB EQ PUSH2 0xC3 JUMPI DUP1 PUSH4 0xC2985578 EQ PUSH2 0xE1 JUMPI DUP1 PUSH4 0xD9F2AC8A EQ PUSH2 0xEB JUMPI DUP1 PUSH4 0xE3A9D1EF EQ PUSH2 0xF5 JUMPI PUSH2 0x7B JUMP JUMPDEST DUP1 PUSH4 0x6661ABD EQ PUSH2 0x7F JUMPI DUP1 PUSH4 0x119FBBD4 EQ PUSH2 0x9D JUMPI DUP1 PUSH4 0x16C38B3C EQ PUSH2 0xA7 JUMPI JUMPDEST PUSH0 DUP1 REVERT JUMPDEST PUSH2 0x87 PUSH2 0x111 JUMP JUMPDEST PUSH1 0x40 MLOAD PUSH2 0x94 SWAP2 SWAP1 PUSH2 0x320 JUMP JUMPDEST PUSH1 0x40 MLOAD DUP1 SWAP2 SUB SWAP1 RETURN JUMPDEST PUSH2 0xA5 PUSH2 0x117 JUMP JUMPDEST STOP JUMPDEST PUSH2 0xC1 PUSH1 0x4 DUP1 CALLDATASIZE SUB DUP2 ADD SWAP1 PUSH2 0xBC SWAP2 SWAP1 PUSH2 0x372 JUMP JUMPDEST PUSH2 0x17E JUMP JUMPDEST STOP JUMPDEST PUSH2 0xCB PUSH2 0x199 JUMP JUMPDEST PUSH1 0x40 MLOAD PUSH2 0xD8 SWAP2 SWAP1 PUSH2 0x3AC JUMP JUMPDEST PUSH1 0x40 MLOAD DUP1 SWAP2 SUB SWAP1 RETURN JUMPDEST PUSH2 0xE9 PUSH2 0x1A9 JUMP JUMPDEST STOP JUMPDEST PUSH2 0xF3 PUSH2 0x1F4 JUMP JUMPDEST STOP JUMPDEST PUSH2 0x10F PUSH1 0x4 DUP1 CALLDATASIZE SUB DUP2 ADD SWAP1 PUSH2 0x10A SWAP2 SWAP1 PUSH2 0x3EF JUMP JUMPDEST PUSH2 0x25B JUMP JUMPDEST STOP JUMPDEST PUSH1 0x1 SLOAD DUP2 JUMP JUMPDEST PUSH0 DUP1 SLOAD SWAP1 PUSH2 0x100 EXP SWAP1 DIV PUSH1 0xFF AND ISZERO PUSH2 0x164 JUMPI PUSH1 0x40 MLOAD PUSH32 0x8C379A000000000000000000000000000000000000000000000000000000000 DUP2 MSTORE PUSH1 0x4 ADD PUSH2 0x15B SWAP1 PUSH2 0x474 JUMP JUMPDEST PUSH1 0x40 MLOAD DUP1 SWAP2 SUB SWAP1 REVERT JUMPDEST PUSH1 0x1 DUP1 PUSH0 DUP3 DUP3 SLOAD PUSH2 0x175 SWAP2 SWAP1 PUSH2 0x4BF JUMP JUMPDEST SWAP3 POP POP DUP2 SWAP1 SSTORE POP JUMP JUMPDEST DUP1 PUSH0 DUP1 PUSH2 0x100 EXP DUP2 SLOAD DUP2 PUSH1 0xFF MUL NOT AND SWAP1 DUP4 ISZERO ISZERO MUL OR SWAP1 SSTORE POP POP JUMP JUMPDEST PUSH0 DUP1 SLOAD SWAP1 PUSH2 0x100 EXP SWAP1 DIV PUSH1 0xFF AND DUP2 JUMP JUMPDEST PUSH1 0x1 DUP1 PUSH0 DUP3 DUP3 SLOAD PUSH2 0x1BA SWAP2 SWAP1 PUSH2 0x4BF JUMP JUMPDEST SWAP3 POP POP DUP2 SWAP1 SSTORE POP PUSH1 0x1 DUP1 PUSH0 DUP3 DUP3 SLOAD PUSH2 0x1D2 SWAP2 SWAP1 PUSH2 0x4BF JUMP JUMPDEST SWAP3 POP POP DUP2 SWAP1 SSTORE POP PUSH1 0x2 PUSH1 0x1 PUSH0 DUP3 DUP3 SLOAD PUSH2 0x1EB SWAP2 SWAP1 PUSH2 0x4F2 JUMP JUMPDEST SWAP3 POP POP DUP2 SWAP1 SSTORE POP JUMP JUMPDEST PUSH0 DUP1 SLOAD SWAP1 PUSH2 0x100 EXP SWAP1 DIV PUSH1 0xFF AND ISZERO PUSH2 0x241 JUMPI PUSH1 0x40 MLOAD PUSH32 0x8C379A000000000000000000000000000000000000000000000000000000000 DUP2 MSTORE PUSH1 0x4 ADD PUSH2 0x238 SWAP1 PUSH2 0x474 JUMP JUMPDEST PUSH1 0x40 MLOAD DUP1 SWAP2 SUB SWAP1 REVERT JUMPDEST PUSH1 0x1 DUP1 PUSH0 DUP3 DUP3 SLOAD PUSH2 0x252 SWAP2 SWAP1 PUSH2 0x533 JUMP JUMPDEST SWAP3 POP POP DUP2 SWAP1 SSTORE POP JUMP JUMPDEST PUSH0 DUP1 SLOAD SWAP1 PUSH2 0x100 EXP SWAP1 DIV PUSH1 0xFF AND ISZERO PUSH2 0x2A8 JUMPI PUSH1 0x40 MLOAD PUSH32 0x8C379A000000000000000000000000000000000000000000000000000000000 DUP2 MSTORE PUSH1 0x4 ADD PUSH2 0x29F SWAP1 PUSH2 0x474 JUMP JUMPDEST PUSH1 0x40 MLOAD DUP1 SWAP2 SUB SWAP1 REVERT JUMPDEST DUP1 PUSH1 0x64 DUP2 LT PUSH2 0x2EC JUMPI PUSH1 0x40 MLOAD PUSH32 0x8C379A000000000000000000000000000000000000000000000000000000000 DUP2 MSTORE PUSH1 0x4 ADD PUSH2 0x2E3 SWAP1 PUSH2 0x5B0 JUMP JUMPDEST PUSH1 0x40 MLOAD DUP1 SWAP2 SUB SWAP1 REVERT JUMPDEST DUP2 PUSH1 0x1 PUSH0 DUP3 DUP3 SLOAD PUSH2 0x2FD SWAP2 SWAP1 PUSH2 0x4BF JUMP JUMPDEST SWAP3 POP POP DUP2 SWAP1 SSTORE POP POP POP JUMP JUMPDEST PUSH0 DUP2 SWAP1 POP SWAP2 SWAP1 POP JUMP JUMPDEST PUSH2 0x31A DUP2 PUSH2 0x308 JUMP JUMPDEST DUP3 MSTORE POP POP JUMP JUMPDEST PUSH0 PUSH1 0x20 DUP3 ADD SWAP1 POP PUSH2 0x333 PUSH0 DUP4 ADD DUP5 PUSH2 0x311 JUMP JUMPDEST SWAP3 SWAP2 POP POP JUMP JUMPDEST PUSH0 DUP1 REVERT JUMPDEST PUSH0 DUP2 ISZERO ISZERO SWAP1 POP SWAP2 SWAP1 POP JUMP JUMPDEST PUSH2 0x351 DUP2 PUSH2 0x33D JUMP JUMPDEST DUP2 EQ PUSH2 0x35B JUMPI PUSH0 DUP1 REVERT JUMPDEST POP JUMP JUMPDEST PUSH0 DUP2 CALLDATALOAD SWAP1 POP PUSH2 0x36C DUP2 PUSH2 0x348 JUMP JUMPDEST SWAP3 SWAP2 POP POP JUMP JUMPDEST PUSH0 PUSH1 0x20 DUP3 DUP5 SUB SLT ISZERO PUSH2 0x387 JUMPI PUSH2 0x386 PUSH2 0x339 JUMP JUMPDEST JUMPDEST PUSH0 PUSH2 0x394 DUP5 DUP3 DUP6 ADD PUSH2 0x35E JUMP JUMPDEST SWAP2 POP POP SWAP3 SWAP2 POP POP JUMP JUMPDEST PUSH2 0x3A6 DUP2 PUSH2 0x33D JUMP JUMPDEST DUP3 MSTORE POP POP JUMP JUMPDEST PUSH0 PUSH1 0x20 DUP3 ADD SWAP1 POP PUSH2 0x3BF PUSH0 DUP4 ADD DUP5 PUSH2 0x39D JUMP JUMPDEST SWAP3 SWAP2 POP POP JUMP JUMPDEST PUSH2 0x3CE DUP2 PUSH2 0x308 JUMP JUMPDEST DUP2 EQ PUSH2 0x3D8 JUMPI PUSH0 DUP1 REVERT JUMPDEST POP JUMP JUMPDEST PUSH0 DUP2 CALLDATALOAD SWAP1 POP PUSH2 0x3E9 DUP2 PUSH2 0x3C5 JUMP JUMPDEST SWAP3 SWAP2 POP POP JUMP JUMPDEST PUSH0 PUSH1 0x20 DUP3 DUP5 SUB SLT ISZERO PUSH2 0x404 JUMPI PUSH2 0x403 PUSH2 0x339 JUMP JUMPDEST JUMPDEST PUSH0 PUSH2 0x411 DUP5 DUP3 DUP6 ADD PUSH2 0x3DB JUMP JUMPDEST SWAP2 POP POP SWAP3 SWAP2 POP POP JUMP JUMPDEST PUSH0 DUP3 DUP3 MSTORE PUSH1 0x20 DUP3 ADD SWAP1 POP SWAP3 SWAP2 POP POP JUMP JUMPDEST PUSH32 0x7061757365640000000000000000000000000000000000000000000000000000 PUSH0 DUP3 ADD MSTORE POP JUMP JUMPDEST PUSH0 PUSH2 0x45E PUSH1 0x6 DUP4 PUSH2 0x41A JUMP JUMPDEST SWAP2 POP PUSH2 0x469 DUP3 PUSH2 0x42A JUMP JUMPDEST PUSH1 0x20 DUP3 ADD SWAP1 POP SWAP2 SWAP1 POP JUMP JUMPDEST PUSH0 PUSH1 0x20 DUP3 ADD SWAP1 POP DUP2 DUP2 SUB PUSH0 DUP4 ADD MSTORE PUSH2 0x48B DUP2 PUSH2 0x452 JUMP JUMPDEST SWAP1 POP SWAP2 SWAP1 POP JUMP JUMPDEST PUSH32 0x4E487B7100000000000000000000000000000000000000000000000000000000 PUSH0 MSTORE PUSH1 0x11 PUSH1 0x4 MSTORE PUSH1 0x24 PUSH0 REVERT JUMPDEST PUSH0 PUSH2 0x4C9 DUP3 PUSH2 0x308 JUMP JUMPDEST SWAP2 POP PUSH2 0x4D4 DUP4 PUSH2 0x308 JUMP JUMPDEST SWAP3 POP DUP3 DUP3 ADD SWAP1 POP DUP1 DUP3 GT ISZERO PUSH2 0x4EC JUMPI PUSH2 0x4EB PUSH2 0x492 JUMP JUMPDEST JUMPDEST SWAP3 SWAP2 POP POP JUMP JUMPDEST PUSH0 PUSH2 0x4FC DUP3 PUSH2 0x308 JUMP JUMPDEST SWAP2 POP PUSH2 0x507 DUP4 PUSH2 0x308 JUMP JUMPDEST SWAP3 POP DUP3 DUP3 MUL PUSH2 0x515 DUP2 PUSH2 0x308 JUMP JUMPDEST SWAP2 POP DUP3 DUP3 DIV DUP5 EQ DUP4 ISZERO OR PUSH2 0x52C JUMPI PUSH2 0x52B PUSH2 0x492 JUMP JUMPDEST JUMPDEST POP SWAP3 SWAP2 POP POP JUMP JUMPDEST PUSH0 PUSH2 0x53D DUP3 PUSH2 0x308 JUMP JUMPDEST SWAP2 POP PUSH2 0x548 DUP4 PUSH2 0x308 JUMP JUMPDEST SWAP3 POP DUP3 DUP3 SUB SWAP1 POP DUP2 DUP2 GT ISZERO PUSH2 0x560 JUMPI PUSH2 0x55F PUSH2 0x492 JUMP JUMPDEST JUMPDEST SWAP3 SWAP2 POP POP JUMP JUMPDEST PUSH32 0x78203E3D20313030000000000000000000000000000000000000000000000000 PUSH0 DUP3 ADD MSTORE POP JUMP JUMPDEST PUSH0 PUSH2 0x59A PUSH1 0x8 DUP4 PUSH2 0x41A JUMP JUMPDEST SWAP2 POP PUSH2 0x5A5 DUP3 PUSH2 0x566 JUMP JUMPDEST PUSH1 0x20 DUP3 ADD SWAP1 POP SWAP2 SWAP1 POP JUMP JUMPDEST PUSH0 PUSH1 0x20 DUP3 ADD SWAP1 POP DUP2 DUP2 SUB PUSH0 DUP4 ADD MSTORE PUSH2 0x5C7 DUP2 PUSH2 0x58E JUMP JUMPDEST SWAP1 POP SWAP2 SWAP1 POP JUMP INVALID LOG2 PUSH5 0x6970667358 0x22 SLT KECCAK256 PUSH9 0x8065C3F2F7C1BCFCC3 SELFBALANCE COINBASE PUSH3 0x16DC5F EXTCODESIZE SGT LOG2 PREVRANDAO PUSH6 0xF521B23101E6 TLOAD PUSH21 0x71239664736F6C634300081A003300000000000000 "
		},
		"gasEstimates": {
			"creation": {
				"codeDepositCost": "308000",
				"executionCost": "347",
				"totalCost": "308347"
			},
			"external": {
				"count()": "2426",
				"decr()": "infinite",
				"foo()": "infinite",
				"incr()": "infinite",
				"incrBy(uint256)": "infinite",
				"paused()": "2463",
				"setPaused(bool)": "24718"
			}
		},
		"methodIdentifiers": {
			"count()": "06661abd",
			"decr()": "d9f2ac8a",
			"foo()": "c2985578",
			"incr()": "119fbbd4",
			"incrBy(uint256)": "e3a9d1ef",
			"paused()": "5c975abb",
			"setPaused(bool)": "16c38b3c"
		}
	},
	"abi": [
		{
			"inputs": [],
			"name": "count",
			"outputs": [
				{
					"internalType": "uint256",
					"name": "",
					"type": "uint256"
				}
			],
			"stateMutability": "view",
			"type": "function"
		},
		{
			"inputs": [],
			"name": "decr",
			"outputs": [],
			"stateMutability": "nonpayable",
			"type": "function"
		},
		{
			"inputs": [],
			"name": "foo",
			"outputs": [],
			"stateMutability": "nonpayable",
			"type": "function"
		},
		{
			"inputs": [],
			"name": "incr",
			"outputs": [],
			"stateMutability": "nonpayable",
			"type": "function"
		},
		{
			"inputs": [
				{
					"internalType": "uint256",
					"name": "_x",
					"type": "uint256"
				}
			],
			"name": "incrBy",
			"outputs": [],
			"stateMutability": "nonpayable",
			"type": "function"
		},
		{
			"inputs": [],
			"name": "paused",
			"outputs": [
				{
					"internalType": "bool",
					"name": "",
					"type": "bool"
				}
			],
			"stateMutability": "view",
			"type": "function"
		},
		{
			"inputs": [
				{
					"internalType": "bool",
					"name": "_paused",
					"type": "bool"
				}
			],
			"name": "setPaused",
			"outputs": [],
			"stateMutability": "nonpayable",
			"type": "function"
		}
	]
}