{
	"data": {
		"bytecode": {
			"linkReferences": {},
			"object": "6080604052348015600e575f80fd5b506107428061001c5f395ff3fe608060405260043610610037575f3560e01c80630c55699c1461004257806324ccab8f1461006c578063e21f37ce1461009d5761003e565b3661003e57005b5f80fd5b34801561004d575f80fd5b506100566100c7565b6040516100639190610198565b60405180910390f35b61008660048036038101906100819190610328565b6100cd565b60405161009492919061039c565b60405180910390f35b3480156100a8575f80fd5b506100b16100f5565b6040516100be9190610423565b60405180910390f35b60015481565b5f80835f90816100dd919061063d565b508260018190555060016103e7915091509250929050565b5f805461010190610470565b80601f016020809104026020016040519081016040528092919081815260200182805461012d90610470565b80156101785780601f1061014f57610100808354040283529160200191610178565b820191905f5260205f20905b81548152906001019060200180831161015b57829003601f168201915b505050505081565b5f819050919050565b61019281610180565b82525050565b5f6020820190506101ab5f830184610189565b92915050565b5f604051905090565b5f80fd5b5f80fd5b5f80fd5b5f80fd5b5f601f19601f8301169050919050565b7f4e487b71000000000000000000000000000000000000000000000000000000005f52604160045260245ffd5b610210826101ca565b810181811067ffffffffffffffff8211171561022f5761022e6101da565b5b80604052505050565b5f6102416101b1565b905061024d8282610207565b919050565b5f67ffffffffffffffff82111561026c5761026b6101da565b5b610275826101ca565b9050602081019050919050565b828183375f83830152505050565b5f6102a261029d84610252565b610238565b9050828152602081018484840111156102be576102bd6101c6565b5b6102c9848285610282565b509392505050565b5f82601f8301126102e5576102e46101c2565b5b81356102f5848260208601610290565b91505092915050565b61030781610180565b8114610311575f80fd5b50565b5f81359050610322816102fe565b92915050565b5f806040838503121561033e5761033d6101ba565b5b5f83013567ffffffffffffffff81111561035b5761035a6101be565b5b610367858286016102d1565b925050602061037885828601610314565b9150509250929050565b5f8115159050919050565b61039681610382565b82525050565b5f6040820190506103af5f83018561038d565b6103bc6020830184610189565b9392505050565b5f81519050919050565b5f82825260208201905092915050565b8281835e5f83830152505050565b5f6103f5826103c3565b6103ff81856103cd565b935061040f8185602086016103dd565b610418816101ca565b840191505092915050565b5f6020820190508181035f83015261043b81846103eb565b905092915050565b7f4e487b71000000000000000000000000000000000000000000000000000000005f52602260045260245ffd5b5f600282049050600182168061048757607f821691505b60208210810361049a57610499610443565b5b50919050565b5f819050815f5260205f209050919050565b5f6020601f8301049050919050565b5f82821b905092915050565b5f600883026104fc7fffffffffffffffffffffffffffffffffffffffffffffffffffffffffffffffff826104c1565b61050686836104c1565b95508019841693508086168417925050509392505050565b5f819050919050565b5f61054161053c61053784610180565b61051e565b610180565b9050919050565b5f819050919050565b61055a83610527565b61056e61056682610548565b8484546104cd565b825550505050565b5f90565b610582610576565b61058d818484610551565b505050565b5b818110156105b0576105a55f8261057a565b600181019050610593565b5050565b601f8211156105f5576105c6816104a0565b6105cf846104b2565b810160208510156105de578190505b6105f26105ea856104b2565b830182610592565b50505b505050565b5f82821c905092915050565b5f6106155f19846008026105fa565b1980831691505092915050565b5f61062d8383610606565b9150826002028217905092915050565b610646826103c3565b67ffffffffffffffff81111561065f5761065e6101da565b5b6106698254610470565b6106748282856105b4565b5f60209050601f8311600181146106a5575f8415610693578287015190505b61069d8582610622565b865550610704565b601f1984166106b3866104a0565b5f5b828110156106da578489015182556001820191506020850194506020810190506106b5565b868310156106f757848901516106f3601f891682610606565b8355505b6001600288020188555050505b50505050505056fea2646970667358221220dbb3bc42000883d8a831936a0f1a4de72eaa29202af69eb38c4bd9613d001a1c64736f6c634300081a0033",
			"opcodes": "PUSH1 0x80 PUSH1 0x40 MSTORE CALLVALUE DUP1 ISZERO PUSH1 0xE JUMPI PUSH0 DUP1 REVERT JUMPDEST POP PUSH2 0x742 DUP1 PUSH2 0x1C PUSH0 CODECOPY PUSH0 RETURN INVALID PUSH1 0x80 PUSH1 0x40 MSTORE PUSH1 0x4 CALLDATASIZE LT PUSH2 0x37 JUMPI PUSH0 CALLDATALOAD PUSH1 0xE0 SHR DUP1 PUSH4 0xC55699C EQ PUSH2 0x42 JUMPI DUP1 PUSH4 0x24CCAB8F EQ PUSH2 0x6C JUMPI DUP1 PUSH4 0xE21F37CE EQ PUSH2 0x9D JUMPI PUSH2 0x3E JUMP JUMPDEST CALLDATASIZE PUSH2 0x3E JUMPI STOP JUMPDEST PUSH0 DUP1 REVERT JUMPDEST CALLVALUE DUP1 ISZERO PUSH2 0x4D JUMPI PUSH0 DUP1 REVERT JUMPDEST POP PUSH2 0x56 PUSH2 0xC7 JUMP JUMPDEST PUSH1 0x40 MLOAD PUSH2 0x63 SWAP2 SWAP1 PUSH2 0x198 JUMP JUMPDEST PUSH1 0x40 MLOAD DUP1 SWAP2 SUB SWAP1 RETURN JUMPDEST PUSH2 0x86 PUSH1 0x4 DUP1 CALLDATASIZE SUB DUP2 ADD SWAP1 PUSH2 0x81 SWAP2 SWAP1 PUSH2 0x328 JUMP JUMPDEST PUSH2 0xCD JUMP JUMPDEST PUSH1 0x40 MLOAD PUSH2 0x94 SWAP3 SWAP2 SWAP1 PUSH2 0x39C JUMP JUMPDEST PUSH1 0x40 MLOAD DUP1 SWAP2 SUB SWAP1 RETURN JUMPDEST CALLVALUE DUP1 ISZERO PUSH2 0xA8 JUMPI PUSH0 DUP1 REVERT JUMPDEST POP PUSH2 0xB1 PUSH2 0xF5 JUMP JUMPDEST PUSH1 0x40 MLOAD PUSH2 0xBE SWAP2 SWAP1 PUSH2 0x423 JUMP JUMPDEST PUSH1 0x40 MLOAD DUP1 SWAP2 SUB SWAP1 RETURN JUMPDEST PUSH1 0x1 SLOAD DUP2 JUMP JUMPDEST PUSH0 DUP1 DUP4 PUSH0 SWAP1 DUP2 PUSH2 0xDD SWAP2 SWAP1 PUSH2 0x63D JUMP JUMPDEST POP DUP3 PUSH1 0x1 DUP2 SWAP1 SSTORE POP PUSH1 0x1 PUSH2 0x3E7 SWAP2 POP SWAP2 POP SWAP3 POP SWAP3 SWAP1 POP JUMP JUMPDEST PUSH0 DUP1 SLOAD PUSH2 0x101 SWAP1 PUSH2 0x470 JUMP JUMPDEST DUP1 PUSH1 0x1F ADD PUSH1 0x20 DUP1 SWAP2 DIV MUL PUSH1 0x20 ADD PUSH1 0x40 MLOAD SWAP1 DUP2 ADD PUSH1 0x40 MSTORE DUP1 SWAP3 SWAP2 SWAP1 DUP2 DUP2 MSTORE PUSH1 0x20 ADD DUP3 DUP1 SLOAD PUSH2 0x12D SWAP1 PUSH2 0x470 JUMP JUMPDEST DUP1 ISZERO PUSH2 0x178 JUMPI DUP1 PUSH1 0x1F LT PUSH2 0x14F JUMPI PUSH2 0x100 DUP1 DUP4 SLOAD DIV MUL DUP4 MSTORE SWAP2 PUSH1 0x20 ADD SWAP2 PUSH2 0x178 JUMP JUMPDEST DUP3 ADD SWAP2 SWAP1 PUSH0 MSTORE PUSH1 0x20 PUSH0 KECCAK256 SWAP1 JUMPDEST DUP2 SLOAD DUP2 MSTORE SWAP1 PUSH1 0x1 ADD SWAP1 PUSH1 0x20 ADD DUP1 DUP4 GT PUSH2 0x15B JUMPI DUP3 SWAP1 SUB PUSH1 0x1F AND DUP3 ADD SWAP2 JUMPDEST POP POP POP POP POP DUP2 JUMP JUMPDEST PUSH0 DUP2 SWAP1 POP SWAP2 SWAP1 POP JUMP JUMPDEST PUSH2 0x192 DUP2 PUSH2 0x180 JUMP JUMPDEST DUP3 MSTORE POP POP JUMP JUMPDEST PUSH0 PUSH1 0x20 DUP3 ADD SWAP1 POP PUSH2 0x1AB PUSH0 DUP4 ADD DUP5 PUSH2 0x189 JUMP JUMPDEST SWAP3 SWAP2 POP POP JUMP JUMPDEST PUSH0 PUSH1 0x40 MLOAD SWAP1 POP SWAP1 JUMP JUMPDEST PUSH0 DUP1 REVERT JUMPDEST PUSH0 DUP1 REVERT JUMPDEST PUSH0 DUP1 REVERT JUMPDEST PUSH0 DUP1 REVERT JUMPDEST PUSH0 PUSH1 0x1F NOT PUSH1 0x1F DUP4 ADD AND SWAP1 POP SWAP2 SWAP1 POP JUMP JUMPDEST PUSH32 0x4E487B7100000000000000000000000000000000000000000000000000000000 PUSH0 MSTORE PUSH1 0x41 PUSH1 0x4 MSTORE PUSH1 0x24 PUSH0 REVERT JUMPDEST PUSH2 0x210 DUP3 PUSH2 0x1CA JUMP JUMPDEST DUP2 ADD DUP2 DUP2 LT PUSH8 0xFFFFFFFFFFFFFFFF DUP3 GT OR ISZERO PUSH2 0x22F JUMPI PUSH2 0x22E PUSH2 0x1DA JUMP JUMPDEST JUMPDEST DUP1 PUSH1 0x40 MSTORE POP POP POP JUMP JUMPDEST PUSH0 PUSH2 0x241 PUSH2 0x1B1 JUMP JUMPDEST SWAP1 POP PUSH2 0x24D DUP3 DUP3 PUSH2 0x207 JUMP JUMPDEST SWAP2 SWAP1 POP JUMP JUMPDEST PUSH0 PUSH8 0xFFFFFFFFFFFFFFFF DUP3 GT ISZERO PUSH2 0x26C JUMPI PUSH2 0x26B PUSH2 0x1DA JUMP JUMPDEST JUMPDEST PUSH2 0x275 DUP3 PUSH2 0x1CA JUMP JUMPDEST SWAP1 POP PUSH1 0x20 DUP2 ADD SWAP1 POP SWAP2 SWAP1 POP JUMP JUMPDEST DUP3 DUP2 DUP4 CALLDATACOPY PUSH0 DUP4 DUP4 ADD MSTORE POP POP POP JUMP JUMPDEST PUSH0 PUSH2 0x2A2 PUSH2 0x29D DUP5 PUSH2 0x252 JUMP JUMPDEST PUSH2 0x238 JUMP JUMPDEST SWAP1 POP DUP3 DUP2 MSTORE PUSH1 0x20 DUP2 ADD DUP5 DUP5 DUP5 ADD GT ISZERO PUSH2 0x2BE JUMPI PUSH2 0x2BD PUSH2 0x1C6 JUMP JUMPDEST JUMPDEST PUSH2 0x2C9 DUP5 DUP3 DUP6 PUSH2 0x282 JUMP JUMPDEST POP SWAP4 SWAP3 POP POP POP JUMP JUMPDEST PUSH0 DUP3 PUSH1 0x1F DUP4 ADD SLT PUSH2 0x2E5 JUMPI PUSH2 0x2E4 PUSH2 0x1C2 JUMP JUMPDEST JUMPDEST DUP2 CALLDATALOAD PUSH2 0x2F5 DUP5 DUP3 PUSH1 0x20 DUP7 ADD PUSH2 0x290 JUMP JUMPDEST SWAP2 POP POP SWAP3 SWAP2 POP POP JUMP JUMPDEST PUSH2 0x307 DUP2 PUSH2 0x180 JUMP JUMPDEST DUP2 EQ PUSH2 0x311 JUMPI PUSH0 DUP1 REVERT JUMPDEST POP JUMP JUMPDEST PUSH0 DUP2 CALLDATALOAD SWAP1 POP PUSH2 0x322 DUP2 PUSH2 0x2FE JUMP JUMPDEST SWAP3 SWAP2 POP POP JUMP JUMPDEST PUSH0 DUP1 PUSH1 0x40 DUP4 DUP6 SUB SLT ISZERO PUSH2 0x33E JUMPI PUSH2 0x33D PUSH2 0x1BA JUMP JUMPDEST JUMPDEST PUSH0 DUP4 ADD CALLDATALOAD PUSH8 0xFFFFFFFFFFFFFFFF DUP2 GT ISZERO PUSH2 0x35B JUMPI PUSH2 0x35A PUSH2 0x1BE JUMP JUMPDEST JUMPDEST PUSH2 0x367 DUP6 DUP3 DUP7 ADD PUSH2 0x2D1 JUMP JUMPDEST SWAP3 POP POP PUSH1 0x20 PUSH2 0x378 DUP6 DUP3 DUP7 ADD PUSH2 0x314 JUMP JUMPDEST SWAP2 POP POP SWAP3 POP SWAP3 SWAP1 POP JUMP JUMPDEST PUSH0 DUP2 ISZERO ISZERO SWAP1 POP SWAP2 SWAP1 POP JUMP JUMPDEST PUSH2 0x396 DUP2 PUSH2 0x382 JUMP JUMPDEST DUP3 MSTORE POP POP JUMP JUMPDEST PUSH0 PUSH1 0x40 DUP3 ADD SWAP1 POP PUSH2 0x3AF PUSH0 DUP4 ADD DUP6 PUSH2 0x38D JUMP JUMPDEST PUSH2 0x3BC PUSH1 0x20 DUP4 ADD DUP5 PUSH2 0x189 JUMP JUMPDEST SWAP4 SWAP3 POP POP POP JUMP JUMPDEST PUSH0 DUP2 MLOAD SWAP1 POP SWAP2 SWAP1 POP JUMP JUMPDEST PUSH0 DUP3 DUP3 MSTORE PUSH1 0x20 DUP3 ADD SWAP1 POP SWAP3 SWAP2 POP POP JUMP JUMPDEST DUP3 DUP2 DUP4 MCOPY PUSH0 DUP4 DUP4 ADD MSTORE POP POP POP JUMP JUMPDEST PUSH0 PUSH2 0x3F5 DUP3 PUSH2 0x3C3 JUMP JUMPDEST PUSH2 0x3FF DUP2 DUP6 PUSH2 0x3CD JUMP JUMPDEST SWAP4 POP PUSH2 0x40F DUP2 DUP6 PUSH1 0x20 DUP7 ADD PUSH2 0x3DD JUMP JUMPDEST PUSH2 0x418 DUP2 PUSH2 0x1CA JUMP JUMPDEST DUP5 ADD SWAP2 POP POP SWAP3 SWAP2 POP POP JUMP JUMPDEST PUSH0 PUSH1 0x20 DUP3 ADD SWAP1 POP DUP2 DUP2 SUB PUSH0 DUP4 ADD MSTORE PUSH2 0x43B DUP2 DUP5 PUSH2 0x3EB JUMP JUMPDEST SWAP1 POP SWAP3 SWAP2 POP POP JUMP JUMPDEST PUSH32 0x4E487B7100000000000000000000000000000000000000000000000000000000 PUSH0 MSTORE PUSH1 0x22 PUSH1 0x4 MSTORE PUSH1 0x24 PUSH0 REVERT JUMPDEST PUSH0 PUSH1 0x2 DUP3 DIV SWAP1 POP PUSH1 0x1 DUP3 AND DUP1 PUSH2 0x487 JUMPI PUSH1 0x7F DUP3 AND SWAP2 POP JUMPDEST PUSH1 0x20 DUP3 LT DUP2 SUB PUSH2 0x49A JUMPI PUSH2 0x499 PUSH2 0x443 JUMP JUMPDEST JUMPDEST POP SWAP2 SWAP1 POP JUMP JUMPDEST PUSH0 DUP2 SWAP1 POP DUP2 PUSH0 MSTORE PUSH1 0x20 PUSH0 KECCAK256 SWAP1 POP SWAP2 SWAP1 POP JUMP JUMPDEST PUSH0 PUSH1 0x20 PUSH1 0x1F DUP4 ADD DIV SWAP1 POP SWAP2 SWAP1 POP JUMP JUMPDEST PUSH0 DUP3 DUP3 SHL SWAP1 POP SWAP3 SWAP2 POP POP JUMP JUMPDEST PUSH0 PUSH1 0x8 DUP4 MUL PUSH2 0x4FC PUSH32 0xFFFFFFFFFFFFFFFFFFFFFFFFFFFFFFFFFFFFFFFFFFFFFFFFFFFFFFFFFFFFFFFF DUP3 PUSH2 0x4C1 JUMP JUMPDEST PUSH2 0x506 DUP7 DUP4 PUSH2 0x4C1 JUMP JUMPDEST SWAP6 POP DUP1 NOT DUP5 AND SWAP4 POP DUP1 DUP7 AND DUP5 OR SWAP3 POP POP POP SWAP4 SWAP3 POP POP POP JUMP JUMPDEST PUSH0 DUP2 SWAP1 POP SWAP2 SWAP1 POP JUMP JUMPDEST PUSH0 PUSH2 0x541 PUSH2 0x53C PUSH2 0x537 DUP5 PUSH2 0x180 JUMP JUMPDEST PUSH2 0x51E JUMP JUMPDEST PUSH2 0x180 JUMP JUMPDEST SWAP1 POP SWAP2 SWAP1 POP JUMP JUMPDEST PUSH0 DUP2 SWAP1 POP SWAP2 SWAP1 POP JUMP JUMPDEST PUSH2 0x55A DUP4 PUSH2 0x527 JUMP JUMPDEST PUSH2 0x56E PUSH2 0x566 DUP3 PUSH2 0x548 JUMP JUMPDEST DUP5 DUP5 SLOAD PUSH2 0x4CD JUMP JUMPDEST DUP3 SSTORE POP POP POP POP JUMP JUMPDEST PUSH0 SWAP1 JUMP JUMPDEST PUSH2 0x582 PUSH2 0x576 JUMP JUMPDEST PUSH2 0x58D DUP2 DUP5 DUP5 PUSH2 0x551 JUMP JUMPDEST POP POP POP JUMP JUMPDEST JUMPDEST DUP2 DUP2 LT ISZERO PUSH2 0x5B0 JUMPI PUSH2 0x5A5 PUSH0 DUP3 PUSH2 0x57A JUMP JUMPDEST PUSH1 0x1 DUP2 ADD SWAP1 POP PUSH2 0x593 JUMP JUMPDEST POP POP JUMP JUMPDEST PUSH1 0x1F DUP3 GT ISZERO PUSH2 0x5F5 JUMPI PUSH2 0x5C6 DUP2 PUSH2 0x4A0 JUMP JUMPDEST PUSH2 0x5CF DUP5 PUSH2 0x4B2 JUMP JUMPDEST DUP2 ADD PUSH1 0x20 DUP6 LT ISZERO PUSH2 0x5DE JUMPI DUP2 SWAP1 POP JUMPDEST PUSH2 0x5F2 PUSH2 0x5EA DUP6 PUSH2 0x4B2 JUMP JUMPDEST DUP4 ADD DUP3 PUSH2 0x592 JUMP JUMPDEST POP POP JUMPDEST POP POP POP JUMP JUMPDEST PUSH0 DUP3 DUP3 SHR SWAP1 POP SWAP3 SWAP2 POP POP JUMP JUMPDEST PUSH0 PUSH2 0x615 PUSH0 NOT DUP5 PUSH1 0x8 MUL PUSH2 0x5FA JUMP JUMPDEST NOT DUP1 DUP4 AND SWAP2 POP POP SWAP3 SWAP2 POP POP JUMP JUMPDEST PUSH0 PUSH2 0x62D DUP4 DUP4 PUSH2 0x606 JUMP JUMPDEST SWAP2 POP DUP3 PUSH1 0x2 MUL DUP3 OR SWAP1 POP SWAP3 SWAP2 POP POP JUMP JUMPDEST PUSH2 0x646 DUP3 PUSH2 0x3C3 JUMP JUMPDEST PUSH8 0xFFFFFFFFFFFFFFFF DUP2 GT ISZERO PUSH2 0x65F JUMPI PUSH2 0x65E PUSH2 0x1DA JUMP JUMPDEST JUMPDEST PUSH2 0x669 DUP3 SLOAD PUSH2 0x470 JUMP JUMPDEST PUSH2 0x674 DUP3 DUP3 DUP6 PUSH2 0x5B4 JUMP JUMPDEST PUSH0 PUSH1 0x20 SWAP1 POP PUSH1 0x1F DUP4 GT PUSH1 0x1 DUP2 EQ PUSH2 0x6A5 JUMPI PUSH0 DUP5 ISZERO PUSH2 0x693 JUMPI DUP3 DUP8 ADD MLOAD SWAP1 POP JUMPDEST PUSH2 0x69D DUP6 DUP3 PUSH2 0x622 JUMP JUMPDEST DUP7 SSTORE POP PUSH2 0x704 JUMP JUMPDEST PUSH1 0x1F NOT DUP5 AND PUSH2 0x6B3 DUP7 PUSH2 0x4A0 JUMP JUMPDEST PUSH0 JUMPDEST DUP3 DUP2 LT ISZERO PUSH2 0x6DA JUMPI DUP5 DUP10 ADD MLOAD DUP3 SSTORE PUSH1 0x1 DUP3 ADD SWAP2 POP PUSH1 0x20 DUP6 ADD SWAP5 POP PUSH1 0x20 DUP2 ADD SWAP1 POP PUSH2 0x6B5 JUMP JUMPDEST DUP7 DUP4 LT ISZERO PUSH2 0x6F7 JUMPI DUP5 DUP10 ADD MLOAD PUSH2 0x6F3 PUSH1 0x1F DUP10 AND DUP3 PUSH2 0x606 JUMP JUMPDEST DUP4 SSTORE POP JUMPDEST PUSH1 0x1 PUSH1 0x2 DUP9 MUL ADD DUP9 SSTORE POP POP POP JUMPDEST POP POP POP POP POP POP JUMP INVALID LOG2 PUSH5 0x6970667358 0x22 SLT KECCAK256 0xDB 0xB3 0xBC TIMESTAMP STOP ADDMOD DUP4 0xD8 0xA8 BALANCE SWAP4 PUSH11 0xF1A4DE72EAA29202AF69E 0xB3 DUP13 0x4B 0xD9 PUSH2 0x3D00 BYTE SHR PUSH5 0x736F6C6343 STOP ADDMOD BYTE STOP CALLER "
		},
		"gasEstimates": {
			"creation": {
				"codeDepositCost": "371600",
				"executionCost": "409",
				"totalCost": "372009"
			},
			"external": {
				"foo(string,uint256)": "infinite",
				"message()": "infinite",
				"x()": "2403"
			}
		},
		"methodIdentifiers": {
			"foo(string,uint256)": "24ccab8f",
			"message()": "e21f37ce",
			"x()": "0c55699c"
		}
	},
	"abi": [
		{
			"anonymous": false,
			"inputs": [
				{
					"indexed": false,
					"internalType": "address",
					"name": "caller",
					"type": "address"
				},
				{
					"indexed": false,
					"internalType": "uint256",
					"name": "amount",
					"type": "uint256"
				},
				{
					"indexed": false,
					"internalType": "string",
					"name": "message",
					"type": "string"
				}
			],
			"name": "Log",
			"type": "event"
		},
		{
			"inputs": [
				{
					"internalType": "string",
					"name": "_message",
					"type": "string"
				},
				{
					"internalType": "uint256",
					"name": "_x",
					"type": "uint256"
				}
			],
			"name": "foo",
			"outputs": [
				{
					"internalType": "bool",
					"name": "",
					"type": "bool"
				},
				{
					"internalType": "uint256",
					"name": "",
					"type": "uint256"
				}
			],
			"stateMutability": "payable",
			"type": "function"
		},
		{
			"inputs": [],
			"name": "message",
			"outputs": [
				{
					"internalType": "string",
					"name": "",
					"type": "string"
				}
			],
			"stateMutability": "view",
			"type": "function"
		},
		{
			"inputs": [],
			"name": "x",
			"outputs": [
				{
					"internalType": "uint256",
					"name": "",
					"type": "uint256"
				}
			],
			"stateMutability": "view",
			"type": "function"
		},
		{
			"stateMutability": "payable",
			"type": "receive"
		}
	]
}